{
  "contractName": "auctionPPA",
  "abi": [
    {
      "anonymous": false,
      "inputs": [
        {
          "indexed": true,
          "internalType": "address",
          "name": "ppaBuyer",
          "type": "address"
        }
      ],
      "name": "buyerDeregistered",
      "type": "event"
    },
    {
      "anonymous": false,
      "inputs": [
        {
          "indexed": true,
          "internalType": "address",
          "name": "ppaBuyer",
          "type": "address"
        }
      ],
      "name": "buyerRegistered",
      "type": "event"
    },
    {
      "anonymous": false,
      "inputs": [
        {
          "indexed": true,
          "internalType": "address",
          "name": "producer",
          "type": "address"
        }
      ],
      "name": "producerDeregistered",
      "type": "event"
    },
    {
      "anonymous": false,
      "inputs": [
        {
          "indexed": true,
          "internalType": "address",
          "name": "producer",
          "type": "address"
        }
      ],
      "name": "producerRegistered",
      "type": "event"
    },
    {
      "constant": false,
      "inputs": [
        {
          "internalType": "address",
          "name": "abuyer",
          "type": "address"
        }
      ],
      "name": "deregisterPPABuyer",
      "outputs": [],
      "payable": false,
      "stateMutability": "nonpayable",
      "type": "function"
    },
    {
      "constant": false,
      "inputs": [],
      "name": "deregisterProducer",
      "outputs": [],
      "payable": false,
      "stateMutability": "nonpayable",
      "type": "function"
    },
    {
      "constant": false,
      "inputs": [
        {
          "internalType": "address",
          "name": "abuyer",
          "type": "address"
        }
      ],
      "name": "registerPPABuyer",
      "outputs": [],
      "payable": false,
      "stateMutability": "nonpayable",
      "type": "function"
    },
    {
      "constant": false,
      "inputs": [],
      "name": "registerProducer",
      "outputs": [],
      "payable": false,
      "stateMutability": "nonpayable",
      "type": "function"
    },
    {
      "constant": false,
      "inputs": [
        {
          "internalType": "uint256",
          "name": "_kwhPrice",
          "type": "uint256"
        },
        {
          "internalType": "uint256",
          "name": "_startDay",
          "type": "uint256"
        },
        {
          "internalType": "uint256",
          "name": "_endDay",
          "type": "uint256"
        }
      ],
      "name": "createAuctionPPA",
      "outputs": [],
      "payable": false,
      "stateMutability": "nonpayable",
      "type": "function"
    },
    {
      "constant": false,
      "inputs": [],
      "name": "claimAuctionPPA",
      "outputs": [],
      "payable": false,
      "stateMutability": "nonpayable",
      "type": "function"
    },
    {
      "constant": false,
      "inputs": [],
      "name": "getPPAWithLowestPrice",
      "outputs": [],
      "payable": false,
      "stateMutability": "nonpayable",
      "type": "function"
    },
    {
      "constant": true,
      "inputs": [],
      "name": "viewAllPPAs",
      "outputs": [
        {
          "components": [
            {
              "internalType": "address",
              "name": "producer",
              "type": "address"
            },
            {
              "internalType": "uint256",
              "name": "kwhPrice",
              "type": "uint256"
            },
            {
              "internalType": "uint256",
              "name": "startDay",
              "type": "uint256"
            },
            {
              "internalType": "uint256",
              "name": "endDay",
              "type": "uint256"
            },
            {
              "internalType": "uint256",
              "name": "id",
              "type": "uint256"
            },
            {
              "internalType": "enum auctionPPA.Status",
              "name": "status",
              "type": "uint8"
            }
          ],
          "internalType": "struct auctionPPA.auppa[]",
          "name": "",
          "type": "tuple[]"
        }
      ],
      "payable": false,
      "stateMutability": "view",
      "type": "function"
    },
    {
      "constant": true,
      "inputs": [],
      "name": "getCountPPA",
      "outputs": [
        {
          "internalType": "uint256",
          "name": "count",
          "type": "uint256"
        }
      ],
      "payable": false,
      "stateMutability": "view",
      "type": "function"
    },
    {
      "constant": true,
      "inputs": [],
      "name": "viewAllpurchases",
      "outputs": [
        {
          "components": [
            {
              "internalType": "address",
              "name": "buyer",
              "type": "address"
            },
            {
              "internalType": "address",
              "name": "producer",
              "type": "address"
            },
            {
              "internalType": "uint256",
              "name": "timestamp",
              "type": "uint256"
            },
            {
              "internalType": "uint256",
              "name": "id",
              "type": "uint256"
            },
            {
              "internalType": "uint256",
              "name": "purchasedEnergy",
              "type": "uint256"
            }
          ],
          "internalType": "struct auctionPPA.purchasesppa[]",
          "name": "",
          "type": "tuple[]"
        }
      ],
      "payable": false,
      "stateMutability": "view",
      "type": "function"
    },
    {
      "constant": true,
      "inputs": [],
      "name": "viewAllActivatedPPAs",
      "outputs": [
        {
          "components": [
            {
              "internalType": "address",
              "name": "buyer",
              "type": "address"
            },
            {
              "internalType": "address",
              "name": "producer",
              "type": "address"
            },
            {
              "internalType": "uint256",
              "name": "kwhPrice",
              "type": "uint256"
            },
            {
              "internalType": "uint256",
              "name": "startDay",
              "type": "uint256"
            },
            {
              "internalType": "uint256",
              "name": "endDay",
              "type": "uint256"
            },
            {
              "internalType": "uint256",
              "name": "id",
              "type": "uint256"
            },
            {
              "internalType": "uint256",
              "name": "totalKwh",
              "type": "uint256"
            },
            {
              "internalType": "enum auctionPPA.Status",
              "name": "status",
              "type": "uint8"
            }
          ],
          "internalType": "struct auctionPPA.activeppa[]",
          "name": "",
          "type": "tuple[]"
        }
      ],
      "payable": false,
      "stateMutability": "view",
      "type": "function"
    },
    {
      "constant": true,
      "inputs": [
        {
          "internalType": "uint256",
          "name": "_id",
          "type": "uint256"
        }
      ],
      "name": "getPPAByID",
      "outputs": [
        {
          "internalType": "address",
          "name": "",
          "type": "address"
        },
        {
          "internalType": "uint256",
          "name": "",
          "type": "uint256"
        },
        {
          "internalType": "uint256",
          "name": "",
          "type": "uint256"
        },
        {
          "internalType": "uint256",
          "name": "",
          "type": "uint256"
        }
      ],
      "payable": false,
      "stateMutability": "view",
      "type": "function"
    },
    {
      "constant": true,
      "inputs": [
        {
          "internalType": "uint256",
          "name": "_id",
          "type": "uint256"
        }
      ],
      "name": "getApprovedPPAByID",
      "outputs": [
        {
          "internalType": "address",
          "name": "",
          "type": "address"
        },
        {
          "internalType": "address",
          "name": "",
          "type": "address"
        },
        {
          "internalType": "uint256",
          "name": "",
          "type": "uint256"
        },
        {
          "internalType": "uint256",
          "name": "",
          "type": "uint256"
        },
        {
          "internalType": "uint256",
          "name": "",
          "type": "uint256"
        }
      ],
      "payable": false,
      "stateMutability": "view",
      "type": "function"
    }
  ],
  "bytecode": "0x608060405234801561001057600080fd5b506123fd806100206000396000f3fe608060405234801561001057600080fd5b50600436106100cf5760003560e01c8063b5b5dcc11161008c578063e1b0d3c011610066578063e1b0d3c0146101e1578063ea1d381f146101ff578063f7342a2214610209578063f791560c14610213576100cf565b8063b5b5dcc11461019d578063c7cb9b21146101bb578063dbdf0c21146101d7576100cf565b806322e5ef3d146100d457806325163d5d1461010857806341228ef81461013b57806346f4414f146101595780635d5d7c58146101635780639d88df6214610181575b600080fd5b6100ee60048036036100e99190810190611bf8565b61022f565b6040516100ff9594939291906120c9565b60405180910390f35b610122600480360361011d9190810190611bf8565b6102c2565b604051610132949392919061211c565b60405180910390f35b61014361032b565b6040516101509190612161565b60405180910390f35b610161610496565b005b61016b6109bd565b6040516101789190612247565b60405180910390f35b61019b60048036036101969190810190611bcf565b6109ca565b005b6101a5610a8b565b6040516101b291906121a5565b60405180910390f35b6101d560048036036101d09190810190611c21565b610bb4565b005b6101df610dbc565b005b6101e9610e5e565b6040516101f69190612183565b60405180910390f35b610207610f68565b005b61021161100a565b005b61022d60048036036102289190810190611bcf565b611a1c565b005b6000806000806000806007878154811061024557fe5b906000526020600020906008020190508060010160009054906101000a900473ffffffffffffffffffffffffffffffffffffffff168160000160009054906101000a900473ffffffffffffffffffffffffffffffffffffffff16826002015483600301548460040154955095509550955095505091939590929450565b6000806000806000600586815481106102d757fe5b906000526020600020906006020190508060000160009054906101000a900473ffffffffffffffffffffffffffffffffffffffff168160010154826002015483600301549450945094509450509193509193565b60606007805480602002602001604051908101604052809291908181526020016000905b8282101561048d5783829060005260206000209060080201604051806101000160405290816000820160009054906101000a900473ffffffffffffffffffffffffffffffffffffffff1673ffffffffffffffffffffffffffffffffffffffff1673ffffffffffffffffffffffffffffffffffffffff1681526020016001820160009054906101000a900473ffffffffffffffffffffffffffffffffffffffff1673ffffffffffffffffffffffffffffffffffffffff1673ffffffffffffffffffffffffffffffffffffffff16815260200160028201548152602001600382015481526020016004820154815260200160058201548152602001600682015481526020016007820160009054906101000a900460ff16600281111561046f57fe5b600281111561047a57fe5b815250508152602001906001019061034f565b50505050905090565b60008090506000809050600033905060008090505b6005805490508110156109b757600584815481106104c557fe5b906000526020600020906006020160010154600582815481106104e457fe5b90600052602060002090600602016001015410156109aa578093506000600281111561050c57fe5b6005858154811061051957fe5b906000526020600020906006020160050160009054906101000a900460ff16600281111561054357fe5b14610583576040517f08c379a000000000000000000000000000000000000000000000000000000000815260040161057a906121c7565b60405180910390fd5b8173ffffffffffffffffffffffffffffffffffffffff16600585815481106105a757fe5b906000526020600020906006020160000160009054906101000a900473ffffffffffffffffffffffffffffffffffffffff1673ffffffffffffffffffffffffffffffffffffffff161415610630576040517f08c379a000000000000000000000000000000000000000000000000000000000815260040161062790612207565b60405180910390fd5b60076040518061010001604052808473ffffffffffffffffffffffffffffffffffffffff1681526020016005878154811061066757fe5b906000526020600020906006020160000160009054906101000a900473ffffffffffffffffffffffffffffffffffffffff1673ffffffffffffffffffffffffffffffffffffffff168152602001600587815481106106c157fe5b9060005260206000209060060201600101548152602001600587815481106106e557fe5b90600052602060002090600602016002015481526020016005878154811061070957fe5b90600052602060002090600602016003015481526020016005878154811061072d57fe5b90600052602060002090600602016004015481526020018581526020016001600281111561075757fe5b8152509080600181540180825580915050906001820390600052602060002090600802016000909192909190915060008201518160000160006101000a81548173ffffffffffffffffffffffffffffffffffffffff021916908373ffffffffffffffffffffffffffffffffffffffff16021790555060208201518160010160006101000a81548173ffffffffffffffffffffffffffffffffffffffff021916908373ffffffffffffffffffffffffffffffffffffffff16021790555060408201518160020155606082015181600301556080820151816004015560a0820151816005015560c0820151816006015560e08201518160070160006101000a81548160ff0219169083600281111561086957fe5b021790555050505061087a826109ca565b6001600580549050111561098f5760056001600580549050038154811061089d57fe5b9060005260206000209060060201600585815481106108b857fe5b90600052602060002090600602016000820160009054906101000a900473ffffffffffffffffffffffffffffffffffffffff168160000160006101000a81548173ffffffffffffffffffffffffffffffffffffffff021916908373ffffffffffffffffffffffffffffffffffffffff160217905550600182015481600101556002820154816002015560038201548160030155600482015481600401556005820160009054906101000a900460ff168160050160006101000a81548160ff0219169083600281111561098657fe5b02179055509050505b60058054809190600190036109a49190611af9565b506109b7565b80806001019150506104ab565b50505050565b6000600580549050905090565b6000809050808060010191505060008163ffffffff1614610a29578173ffffffffffffffffffffffffffffffffffffffff167f7420b8b978434d1ce66c980ff580761f988dfca7b96378123d4717285774382c60405160405180910390a25b80600160008473ffffffffffffffffffffffffffffffffffffffff1673ffffffffffffffffffffffffffffffffffffffff16815260200190815260200160002060006101000a81548163ffffffff021916908363ffffffff1602179055505050565b60606008805480602002602001604051908101604052809291908181526020016000905b82821015610bab57838290600052602060002090600502016040518060a00160405290816000820160009054906101000a900473ffffffffffffffffffffffffffffffffffffffff1673ffffffffffffffffffffffffffffffffffffffff1673ffffffffffffffffffffffffffffffffffffffff1681526020016001820160009054906101000a900473ffffffffffffffffffffffffffffffffffffffff1673ffffffffffffffffffffffffffffffffffffffff1673ffffffffffffffffffffffffffffffffffffffff168152602001600282015481526020016003820154815260200160048201548152505081526020019060010190610aaf565b50505050905090565b6000803373ffffffffffffffffffffffffffffffffffffffff1673ffffffffffffffffffffffffffffffffffffffff16815260200190815260200160002060009054906101000a900460ff16610c3f576040517f08c379a0000000000000000000000000000000000000000000000000000000008152600401610c36906121e7565b60405180910390fd5b818111610c81576040517f08c379a0000000000000000000000000000000000000000000000000000000008152600401610c7890612227565b60405180910390fd5b610c8b6003611ad5565b6000610c976003611aeb565b9050600033905060056040518060c001604052808373ffffffffffffffffffffffffffffffffffffffff16815260200187815260200186815260200185815260200184815260200160006002811115610cec57fe5b8152509080600181540180825580915050906001820390600052602060002090600602016000909192909190915060008201518160000160006101000a81548173ffffffffffffffffffffffffffffffffffffffff021916908373ffffffffffffffffffffffffffffffffffffffff1602179055506020820151816001015560408201518160020155606082015181600301556080820151816004015560a08201518160050160006101000a81548160ff02191690836002811115610dad57fe5b02179055505050505050505050565b60003390508073ffffffffffffffffffffffffffffffffffffffff167f769268709e630d5b24d4c651adeae2d7a75c3dd7c3876275233e21570be22fd460405160405180910390a260016000808373ffffffffffffffffffffffffffffffffffffffff1673ffffffffffffffffffffffffffffffffffffffff16815260200190815260200160002060006101000a81548160ff02191690831515021790555050565b60606005805480602002602001604051908101604052809291908181526020016000905b82821015610f5f57838290600052602060002090600602016040518060c00160405290816000820160009054906101000a900473ffffffffffffffffffffffffffffffffffffffff1673ffffffffffffffffffffffffffffffffffffffff1673ffffffffffffffffffffffffffffffffffffffff168152602001600182015481526020016002820154815260200160038201548152602001600482015481526020016005820160009054906101000a900460ff166002811115610f4157fe5b6002811115610f4c57fe5b8152505081526020019060010190610e82565b50505050905090565b60003390508073ffffffffffffffffffffffffffffffffffffffff167f0bb6d68f109745f7ae353e3b90fff6fb8245c34cca44f18d9dfa00e4d705fa6460405160405180910390a260008060008373ffffffffffffffffffffffffffffffffffffffff1673ffffffffffffffffffffffffffffffffffffffff16815260200190815260200160002060006101000a81548160ff02191690831515021790555050565b6000809050600033905060008090505b600580549050811015611a1757600080905060008090505b600580549050811015611546576005838154811061104c57fe5b9060005260206000209060060201600101546005828154811061106b57fe5b9060005260206000209060060201600101541015611403576000600281111561109057fe5b6005828154811061109d57fe5b906000526020600020906006020160050160009054906101000a900460ff1660028111156110c757fe5b14611107576040517f08c379a00000000000000000000000000000000000000000000000000000000081526004016110fe906121c7565b60405180910390fd5b8373ffffffffffffffffffffffffffffffffffffffff166005828154811061112b57fe5b906000526020600020906006020160000160009054906101000a900473ffffffffffffffffffffffffffffffffffffffff1673ffffffffffffffffffffffffffffffffffffffff1614156111b4576040517f08c379a00000000000000000000000000000000000000000000000000000000081526004016111ab90612207565b60405180910390fd5b60076040518061010001604052808673ffffffffffffffffffffffffffffffffffffffff168152602001600584815481106111eb57fe5b906000526020600020906006020160000160009054906101000a900473ffffffffffffffffffffffffffffffffffffffff1673ffffffffffffffffffffffffffffffffffffffff1681526020016005848154811061124557fe5b90600052602060002090600602016001015481526020016005848154811061126957fe5b90600052602060002090600602016002015481526020016005848154811061128d57fe5b9060005260206000209060060201600301548152602001600584815481106112b157fe5b9060005260206000209060060201600401548152602001878152602001600160028111156112db57fe5b8152509080600181540180825580915050906001820390600052602060002090600802016000909192909190915060008201518160000160006101000a81548173ffffffffffffffffffffffffffffffffffffffff021916908373ffffffffffffffffffffffffffffffffffffffff16021790555060208201518160010160006101000a81548173ffffffffffffffffffffffffffffffffffffffff021916908373ffffffffffffffffffffffffffffffffffffffff16021790555060408201518160020155606082015181600301556080820151816004015560a0820151816005015560c0820151816006015560e08201518160070160006101000a81548160ff021916908360028111156113ed57fe5b02179055505050506113fe846109ca565b600191505b8115611539576001600580549050111561151e5760056001600580549050038154811061142c57fe5b90600052602060002090600602016005828154811061144757fe5b90600052602060002090600602016000820160009054906101000a900473ffffffffffffffffffffffffffffffffffffffff168160000160006101000a81548173ffffffffffffffffffffffffffffffffffffffff021916908373ffffffffffffffffffffffffffffffffffffffff160217905550600182015481600101556002820154816002015560038201548160030155600482015481600401556005820160009054906101000a900460ff168160050160006101000a81548160ff0219169083600281111561151557fe5b02179055509050505b60058054809190600190036115339190611af9565b50611546565b8080600101915050611032565b5080156115535750611a17565b6000600281111561156057fe5b6005838154811061156d57fe5b906000526020600020906006020160050160009054906101000a900460ff16600281111561159757fe5b146115d7576040517f08c379a00000000000000000000000000000000000000000000000000000000081526004016115ce906121c7565b60405180910390fd5b8273ffffffffffffffffffffffffffffffffffffffff16600583815481106115fb57fe5b906000526020600020906006020160000160009054906101000a900473ffffffffffffffffffffffffffffffffffffffff1673ffffffffffffffffffffffffffffffffffffffff161415611684576040517f08c379a000000000000000000000000000000000000000000000000000000000815260040161167b90612207565b60405180910390fd5b60076040518061010001604052808573ffffffffffffffffffffffffffffffffffffffff168152602001600585815481106116bb57fe5b906000526020600020906006020160000160009054906101000a900473ffffffffffffffffffffffffffffffffffffffff1673ffffffffffffffffffffffffffffffffffffffff1681526020016005858154811061171557fe5b90600052602060002090600602016001015481526020016005858154811061173957fe5b90600052602060002090600602016002015481526020016005858154811061175d57fe5b90600052602060002090600602016003015481526020016005858154811061178157fe5b9060005260206000209060060201600401548152602001868152602001600160028111156117ab57fe5b8152509080600181540180825580915050906001820390600052602060002090600802016000909192909190915060008201518160000160006101000a81548173ffffffffffffffffffffffffffffffffffffffff021916908373ffffffffffffffffffffffffffffffffffffffff16021790555060208201518160010160006101000a81548173ffffffffffffffffffffffffffffffffffffffff021916908373ffffffffffffffffffffffffffffffffffffffff16021790555060408201518160020155606082015181600301556080820151816004015560a0820151816005015560c0820151816006015560e08201518160070160006101000a81548160ff021916908360028111156118bd57fe5b02179055505050506118ce836109ca565b600190508015611a0957600160058054905011156119ed576005600160058054905003815481106118fb57fe5b90600052602060002090600602016005838154811061191657fe5b90600052602060002090600602016000820160009054906101000a900473ffffffffffffffffffffffffffffffffffffffff168160000160006101000a81548173ffffffffffffffffffffffffffffffffffffffff021916908373ffffffffffffffffffffffffffffffffffffffff160217905550600182015481600101556002820154816002015560038201548160030155600482015481600401556005820160009054906101000a900460ff168160050160006101000a81548160ff021916908360028111156119e457fe5b02179055509050505b6005805480919060019003611a029190611af9565b5050611a17565b50808060010191505061101a565b505050565b600080905060008163ffffffff1614611a73578173ffffffffffffffffffffffffffffffffffffffff167fac6737d5d897955c9efa7aa0f05d006183e2529acaba2d32b6152acbff7aff9f60405160405180910390a25b80600160008473ffffffffffffffffffffffffffffffffffffffff1673ffffffffffffffffffffffffffffffffffffffff16815260200190815260200160002060006101000a81548163ffffffff021916908363ffffffff1602179055505050565b6001816000016000828254019250508190555050565b600081600001549050919050565b815481835581811115611b2657600602816006028360005260206000209182019101611b259190611b2b565b5b505050565b611ba291905b80821115611b9e57600080820160006101000a81549073ffffffffffffffffffffffffffffffffffffffff021916905560018201600090556002820160009055600382016000905560048201600090556005820160006101000a81549060ff021916905550600601611b31565b5090565b90565b600081359050611bb48161238c565b92915050565b600081359050611bc9816123a3565b92915050565b600060208284031215611be157600080fd5b6000611bef84828501611ba5565b91505092915050565b600060208284031215611c0a57600080fd5b6000611c1884828501611bba565b91505092915050565b600080600060608486031215611c3657600080fd5b6000611c4486828701611bba565b9350506020611c5586828701611bba565b9250506040611c6686828701611bba565b9150509250925092565b6000611c7c8383611f26565b6101008301905092915050565b6000611c958383611fc8565b60c08301905092915050565b6000611cad8383612043565b60a08301905092915050565b611cc28161231e565b82525050565b611cd18161231e565b82525050565b6000611ce282612292565b611cec81856122da565b9350611cf783612262565b8060005b83811015611d28578151611d0f8882611c70565b9750611d1a836122b3565b925050600181019050611cfb565b5085935050505092915050565b6000611d408261229d565b611d4a81856122eb565b9350611d5583612272565b8060005b83811015611d86578151611d6d8882611c89565b9750611d78836122c0565b925050600181019050611d59565b5085935050505092915050565b6000611d9e826122a8565b611da881856122fc565b9350611db383612282565b8060005b83811015611de4578151611dcb8882611ca1565b9750611dd6836122cd565b925050600181019050611db7565b5085935050505092915050565b611dfa8161236d565b82525050565b6000611e0d60138361230d565b91507f50504120646f6573206e6f7420657869737473000000000000000000000000006000830152602082019050919050565b6000611e4d601e8361230d565b91507f596f75206d75737420626520612063757272656e742050726f647563657200006000830152602082019050919050565b6000611e8d60138361230d565b91507f57726f6e672061646472657373206275796572000000000000000000000000006000830152602082019050919050565b6000611ecd60218361230d565b91507f4974277320696d706f737369626c6520656e64446179203c207374617274446160008301527f79000000000000000000000000000000000000000000000000000000000000006020830152604082019050919050565b61010082016000820151611f3d6000850182611cb9565b506020820151611f506020850182611cb9565b506040820151611f6360408501826120ab565b506060820151611f7660608501826120ab565b506080820151611f8960808501826120ab565b5060a0820151611f9c60a08501826120ab565b5060c0820151611faf60c08501826120ab565b5060e0820151611fc260e0850182611df1565b50505050565b60c082016000820151611fde6000850182611cb9565b506020820151611ff160208501826120ab565b50604082015161200460408501826120ab565b50606082015161201760608501826120ab565b50608082015161202a60808501826120ab565b5060a082015161203d60a0850182611df1565b50505050565b60a0820160008201516120596000850182611cb9565b50602082015161206c6020850182611cb9565b50604082015161207f60408501826120ab565b50606082015161209260608501826120ab565b5060808201516120a560808501826120ab565b50505050565b6120b481612363565b82525050565b6120c381612363565b82525050565b600060a0820190506120de6000830188611cc8565b6120eb6020830187611cc8565b6120f860408301866120ba565b61210560608301856120ba565b61211260808301846120ba565b9695505050505050565b60006080820190506121316000830187611cc8565b61213e60208301866120ba565b61214b60408301856120ba565b61215860608301846120ba565b95945050505050565b6000602082019050818103600083015261217b8184611cd7565b905092915050565b6000602082019050818103600083015261219d8184611d35565b905092915050565b600060208201905081810360008301526121bf8184611d93565b905092915050565b600060208201905081810360008301526121e081611e00565b9050919050565b6000602082019050818103600083015261220081611e40565b9050919050565b6000602082019050818103600083015261222081611e80565b9050919050565b6000602082019050818103600083015261224081611ec0565b9050919050565b600060208201905061225c60008301846120ba565b92915050565b6000819050602082019050919050565b6000819050602082019050919050565b6000819050602082019050919050565b600081519050919050565b600081519050919050565b600081519050919050565b6000602082019050919050565b6000602082019050919050565b6000602082019050919050565b600082825260208201905092915050565b600082825260208201905092915050565b600082825260208201905092915050565b600082825260208201905092915050565b600061232982612343565b9050919050565b600081905061233e8261237f565b919050565b600073ffffffffffffffffffffffffffffffffffffffff82169050919050565b6000819050919050565b600061237882612330565b9050919050565b6003811061238957fe5b50565b6123958161231e565b81146123a057600080fd5b50565b6123ac81612363565b81146123b757600080fd5b5056fea365627a7a7231582077317083c3ba081e4c35c06df0dff47da62780d0d5107ddb62c65eb9973672286c6578706572696d656e74616cf564736f6c63430005100040",
  "source": "pragma solidity >=0.4.21 <0.9.0;\r\npragma experimental ABIEncoderV2;\r\n\r\nimport \"src/contracts/PPA.sol\";\r\nimport \"src/contracts/SafeMath.sol\";\r\nimport \"src/contracts/Counters.sol\";\r\n\r\ncontract auctionPPA is producerRegistry, ppaBuyerRegistry{\r\n\r\n    using Counters for Counters.Counter;\r\n    Counters.Counter private contractID;\r\n\r\n    enum Status {Pending, Activated, Expired}\r\n\r\n    struct auppa {\r\n        address producer;\r\n        uint kwhPrice;         //price per energy(kwh)\r\n        uint startDay;\r\n        uint endDay;           //It must be timestamp (ex. uint endDay = 1833746400; // 2028-02-10 00:00:00)\r\n        uint id;               //id number of each ppa contract\r\n        Status status;\r\n    }\r\n\r\n    mapping(address => auppa) ppas;\r\n    auppa[] pendingPPAs;\r\n\r\n    struct activeppa {\r\n        address buyer;\r\n        address producer;\r\n        uint kwhPrice;         //price per energy(kwh)\r\n        uint startDay;\r\n        uint endDay;           //It must be timestamp (ex. uint endDay = 1833746400; // 2028-02-10 00:00:00)\r\n        uint id;               //id number of each ppa contract\r\n        uint totalKwh;\r\n        Status status;\r\n    }\r\n\r\n    mapping(address => mapping(uint => activeppa)) activatedPPAs;\r\n    activeppa[] listOfAppas;\r\n\r\n    struct purchasesppa{\r\n        address buyer;\r\n        address producer;\r\n        uint timestamp;\r\n        uint id;\r\n        uint purchasedEnergy;\r\n    }\r\n\r\n    purchasesppa[] purchases;\r\n\r\n    function createAuctionPPA(uint _kwhPrice,uint _startDay, uint _endDay) public onlyRegisteredProducers{\r\n        require(_endDay > _startDay, \"It's impossible endDay < startDay\");\r\n        contractID.increment();\r\n        uint currentID = contractID.current();\r\n        address _producer = msg.sender;\r\n        pendingPPAs.push(auppa({\r\n            producer: _producer,\r\n            kwhPrice: _kwhPrice,\r\n            startDay: _startDay,\r\n            endDay: _endDay,\r\n            id: currentID,\r\n            status: Status.Pending\r\n        }));\r\n    }\r\n\r\n    function claimAuctionPPA() public {\r\n        uint _totalkwh = 0;\r\n        address buyerAddr = msg.sender;\r\n        for(uint i = 0; i < pendingPPAs.length; i++){\r\n            bool isClaimed = false;\r\n            for(uint j = 0; j < pendingPPAs.length; j++){\r\n                if(pendingPPAs[j].kwhPrice < pendingPPAs[i].kwhPrice){\r\n                    require(pendingPPAs[j].status == Status.Pending, \"PPA does not exists\");\r\n                    require(pendingPPAs[j].producer != buyerAddr, \"Wrong address buyer\");\r\n                    listOfAppas.push(activeppa({\r\n                        buyer: buyerAddr,\r\n                        producer: pendingPPAs[j].producer,\r\n                        kwhPrice: pendingPPAs[j].kwhPrice,\r\n                        startDay: pendingPPAs[j].startDay,\r\n                        endDay: pendingPPAs[j].endDay,\r\n                        id: pendingPPAs[j].id,\r\n                        totalKwh: _totalkwh,\r\n                        status: Status.Activated\r\n                        }));\r\n                    ppaBuyerRegistry.registerPPABuyer(buyerAddr);\r\n                    isClaimed = true;\r\n                }\r\n                if(isClaimed){\r\n                    if(pendingPPAs.length > 1){\r\n                        pendingPPAs[j] = pendingPPAs[pendingPPAs.length-1];\r\n                    }\r\n                    pendingPPAs.length--;\r\n                    break;\r\n                }\r\n            }\r\n            if(isClaimed){\r\n                break;\r\n            }else{\r\n                require(pendingPPAs[i].status == Status.Pending, \"PPA does not exists\");\r\n                require(pendingPPAs[i].producer != buyerAddr, \"Wrong address buyer\");\r\n                listOfAppas.push(activeppa({\r\n                    buyer: buyerAddr,\r\n                    producer: pendingPPAs[i].producer,\r\n                    kwhPrice: pendingPPAs[i].kwhPrice,\r\n                    startDay: pendingPPAs[i].startDay,\r\n                    endDay: pendingPPAs[i].endDay,\r\n                    id: pendingPPAs[i].id,\r\n                    totalKwh: _totalkwh,\r\n                    status: Status.Activated\r\n                }));\r\n                ppaBuyerRegistry.registerPPABuyer(buyerAddr);\r\n                isClaimed = true;\r\n                if(isClaimed){\r\n                    if(pendingPPAs.length > 1){\r\n                        pendingPPAs[i] = pendingPPAs[pendingPPAs.length-1];\r\n                    }\r\n                    pendingPPAs.length--;\r\n                    break;\r\n                }\r\n            }\r\n        }\r\n    }\r\n\r\n    //Claim an Auction type PPA with the lowest price\r\n    function getPPAWithLowestPrice() public {\r\n        uint x = 0;\r\n        uint _totalKwh = 0;\r\n        address buyerAddr = msg.sender;\r\n        for(uint i = 0; i < pendingPPAs.length; i++){\r\n            if(pendingPPAs[i].kwhPrice < pendingPPAs[x].kwhPrice){\r\n                x = i;\r\n                require(pendingPPAs[x].status == Status.Pending, \"PPA does not exists\");\r\n                require(pendingPPAs[x].producer != buyerAddr, \"Wrong address buyer\");\r\n                listOfAppas.push(activeppa({\r\n                    buyer: buyerAddr,\r\n                    producer: pendingPPAs[x].producer,\r\n                    kwhPrice: pendingPPAs[x].kwhPrice,\r\n                    startDay: pendingPPAs[x].startDay,\r\n                    endDay: pendingPPAs[x].endDay,\r\n                    id: pendingPPAs[x].id,\r\n                    totalKwh: _totalKwh,\r\n                    status: Status.Activated\r\n                }));\r\n                ppaBuyerRegistry.registerPPABuyer(buyerAddr);\r\n                if(pendingPPAs.length > 1){\r\n                    pendingPPAs[x] = pendingPPAs[pendingPPAs.length-1];\r\n                }\r\n                pendingPPAs.length--;\r\n                break;\r\n            }\r\n        }\r\n    }\r\n\r\n    function viewAllPPAs () public view returns (auppa[] memory){\r\n        return pendingPPAs;\r\n    }\r\n\r\n    function getCountPPA () public view returns (uint count){\r\n        return pendingPPAs.length;\r\n    }\r\n\r\n    function viewAllpurchases() public view returns (purchasesppa[] memory){\r\n        return purchases;\r\n    }\r\n\r\n    function viewAllActivatedPPAs() public view returns(activeppa[] memory){\r\n        return listOfAppas;\r\n    }\r\n\r\n    function getPPAByID(uint _id) public view returns (address, uint, uint, uint){\r\n        auppa storage _ppa = pendingPPAs[_id];\r\n        return(_ppa.producer, _ppa.kwhPrice, _ppa.startDay, _ppa.endDay);\r\n    }\r\n\r\n    function getApprovedPPAByID(uint _id) public view returns (address, address, uint, uint, uint){\r\n        activeppa storage _Actppa = listOfAppas[_id];\r\n        return(_Actppa.producer, _Actppa.buyer, _Actppa.kwhPrice, _Actppa.startDay, _Actppa.endDay);\r\n    }\r\n}",
  "sourcePath": "C:/Users/Lenovo/projects/ethereum/protergia/blockchain-energy-trading-and-green-energy-certification-thesis-w-protergia/src/contracts/AuctionPPA.sol",
  "compiler": {
    "name": "solc",
    "version": "0.5.16+commit.9c3226ce.Emscripten.clang"
  },
  "schemaVersion": "3.4.1",
  "updatedAt": "2021-07-17T19:11:51.634Z",
  "devdoc": {
    "methods": {}
  },
  "userdoc": {
    "methods": {}
  }
}