{
  "contractName": "Battery",
  "abi": [
    {
      "inputs": [
        {
          "internalType": "address",
          "name": "batteryId",
          "type": "address"
        },
        {
          "internalType": "uint256",
          "name": "batteryData",
          "type": "uint256"
        }
      ],
      "payable": false,
      "stateMutability": "nonpayable",
      "type": "constructor"
    },
    {
      "constant": true,
      "inputs": [
        {
          "internalType": "uint256",
          "name": "",
          "type": "uint256"
        }
      ],
      "name": "listOfbatteries",
      "outputs": [
        {
          "internalType": "address",
          "name": "batteryId",
          "type": "address"
        },
        {
          "internalType": "uint256",
          "name": "batteryData",
          "type": "uint256"
        },
        {
          "internalType": "bool",
          "name": "isexist",
          "type": "bool"
        }
      ],
      "payable": false,
      "stateMutability": "view",
      "type": "function"
    },
    {
      "constant": true,
      "inputs": [],
      "name": "owner",
      "outputs": [
        {
          "internalType": "address",
          "name": "",
          "type": "address"
        }
      ],
      "payable": false,
      "stateMutability": "view",
      "type": "function"
    },
    {
      "constant": false,
      "inputs": [
        {
          "internalType": "address",
          "name": "batteryId",
          "type": "address"
        },
        {
          "internalType": "uint256",
          "name": "batteryData",
          "type": "uint256"
        }
      ],
      "name": "addNewBattery",
      "outputs": [
        {
          "internalType": "bool",
          "name": "",
          "type": "bool"
        }
      ],
      "payable": false,
      "stateMutability": "nonpayable",
      "type": "function"
    },
    {
      "constant": true,
      "inputs": [],
      "name": "showAllBatteries",
      "outputs": [
        {
          "components": [
            {
              "internalType": "address",
              "name": "batteryId",
              "type": "address"
            },
            {
              "internalType": "uint256",
              "name": "batteryData",
              "type": "uint256"
            },
            {
              "internalType": "bool",
              "name": "isexist",
              "type": "bool"
            }
          ],
          "internalType": "struct Battery.battery[]",
          "name": "",
          "type": "tuple[]"
        }
      ],
      "payable": false,
      "stateMutability": "view",
      "type": "function"
    },
    {
      "constant": true,
      "inputs": [
        {
          "internalType": "address",
          "name": "batteryId",
          "type": "address"
        }
      ],
      "name": "getBatteryDetails",
      "outputs": [
        {
          "internalType": "address",
          "name": "",
          "type": "address"
        },
        {
          "internalType": "uint256",
          "name": "",
          "type": "uint256"
        }
      ],
      "payable": false,
      "stateMutability": "view",
      "type": "function"
    }
  ],
  "bytecode": "0x60806040523480156200001157600080fd5b5060405162000e1638038062000e16833981810160405262000037919081019062000302565b336000806101000a81548173ffffffffffffffffffffffffffffffffffffffff021916908373ffffffffffffffffffffffffffffffffffffffff16021790555060001515600160008473ffffffffffffffffffffffffffffffffffffffff1673ffffffffffffffffffffffffffffffffffffffff16815260200190815260200160002060020160009054906101000a900460ff1615151462000110576040517f08c379a0000000000000000000000000000000000000000000000000000000008152600401620001079062000385565b60405180910390fd5b60405180606001604052808373ffffffffffffffffffffffffffffffffffffffff16815260200182815260200160011515815250600160008473ffffffffffffffffffffffffffffffffffffffff1673ffffffffffffffffffffffffffffffffffffffff16815260200190815260200160002060008201518160000160006101000a81548173ffffffffffffffffffffffffffffffffffffffff021916908373ffffffffffffffffffffffffffffffffffffffff1602179055506020820151816001015560408201518160020160006101000a81548160ff021916908315150217905550905050600260405180606001604052808473ffffffffffffffffffffffffffffffffffffffff168152602001838152602001600115158152509080600181540180825580915050906001820390600052602060002090600302016000909192909190915060008201518160000160006101000a81548173ffffffffffffffffffffffffffffffffffffffff021916908373ffffffffffffffffffffffffffffffffffffffff1602179055506020820151816001015560408201518160020160006101000a81548160ff02191690831515021790555050505050506200042a565b600081519050620002e581620003f6565b92915050565b600081519050620002fc8162000410565b92915050565b600080604083850312156200031657600080fd5b60006200032685828601620002d4565b92505060206200033985828601620002eb565b9150509250929050565b600062000352601d83620003a7565b91507f426174746572792064657461696c7320616c72656164792061646465640000006000830152602082019050919050565b60006020820190508181036000830152620003a08162000343565b9050919050565b600082825260208201905092915050565b6000620003c582620003cc565b9050919050565b600073ffffffffffffffffffffffffffffffffffffffff82169050919050565b6000819050919050565b6200040181620003b8565b81146200040d57600080fd5b50565b6200041b81620003ec565b81146200042757600080fd5b50565b6109dc806200043a6000396000f3fe608060405234801561001057600080fd5b50600436106100575760003560e01c80634b927f691461005c5780638da5cb5b1461008e5780639cf42c97146100ac578063a496b7ed146100dd578063b48fba3f146100fb575b600080fd5b61007660048036036100719190810190610686565b61012b565b60405161008593929190610845565b60405180910390f35b61009661018f565b6040516100a39190610801565b60405180910390f35b6100c660048036036100c19190810190610621565b6101b4565b6040516100d492919061081c565b60405180910390f35b6100e5610266565b6040516100f2919061087c565b60405180910390f35b6101156004803603610110919081019061064a565b610340565b604051610122919061089e565b60405180910390f35b6002818154811061013857fe5b90600052602060002090600302016000915090508060000160009054906101000a900473ffffffffffffffffffffffffffffffffffffffff16908060010154908060020160009054906101000a900460ff16905083565b6000809054906101000a900473ffffffffffffffffffffffffffffffffffffffff1681565b600080600160008473ffffffffffffffffffffffffffffffffffffffff1673ffffffffffffffffffffffffffffffffffffffff16815260200190815260200160002060000160009054906101000a900473ffffffffffffffffffffffffffffffffffffffff16600160008573ffffffffffffffffffffffffffffffffffffffff1673ffffffffffffffffffffffffffffffffffffffff1681526020019081526020016000206001015491509150915091565b60606002805480602002602001604051908101604052809291908181526020016000905b8282101561033757838290600052602060002090600302016040518060600160405290816000820160009054906101000a900473ffffffffffffffffffffffffffffffffffffffff1673ffffffffffffffffffffffffffffffffffffffff1673ffffffffffffffffffffffffffffffffffffffff168152602001600182015481526020016002820160009054906101000a900460ff1615151515815250508152602001906001019061028a565b50505050905090565b60008060009054906101000a900473ffffffffffffffffffffffffffffffffffffffff1673ffffffffffffffffffffffffffffffffffffffff163373ffffffffffffffffffffffffffffffffffffffff161461039b57600080fd5b60001515600160008573ffffffffffffffffffffffffffffffffffffffff1673ffffffffffffffffffffffffffffffffffffffff16815260200190815260200160002060020160009054906101000a900460ff16151514610431576040517f08c379a0000000000000000000000000000000000000000000000000000000008152600401610428906108b9565b60405180910390fd5b60405180606001604052808473ffffffffffffffffffffffffffffffffffffffff16815260200183815260200160011515815250600160008573ffffffffffffffffffffffffffffffffffffffff1673ffffffffffffffffffffffffffffffffffffffff16815260200190815260200160002060008201518160000160006101000a81548173ffffffffffffffffffffffffffffffffffffffff021916908373ffffffffffffffffffffffffffffffffffffffff1602179055506020820151816001015560408201518160020160006101000a81548160ff021916908315150217905550905050600260405180606001604052808573ffffffffffffffffffffffffffffffffffffffff168152602001848152602001600115158152509080600181540180825580915050906001820390600052602060002090600302016000909192909190915060008201518160000160006101000a81548173ffffffffffffffffffffffffffffffffffffffff021916908373ffffffffffffffffffffffffffffffffffffffff1602179055506020820151816001015560408201518160020160006101000a81548160ff0219169083151502179055505050506001905092915050565b6000813590506106068161096b565b92915050565b60008135905061061b81610982565b92915050565b60006020828403121561063357600080fd5b6000610641848285016105f7565b91505092915050565b6000806040838503121561065d57600080fd5b600061066b858286016105f7565b925050602061067c8582860161060c565b9150509250929050565b60006020828403121561069857600080fd5b60006106a68482850161060c565b91505092915050565b60006106bb83836107a1565b60608301905092915050565b6106d081610923565b82525050565b6106df81610923565b82525050565b60006106f0826108e9565b6106fa8185610901565b9350610705836108d9565b8060005b8381101561073657815161071d88826106af565b9750610728836108f4565b925050600181019050610709565b5085935050505092915050565b61074c81610935565b82525050565b61075b81610935565b82525050565b600061076e601d83610912565b91507f426174746572792064657461696c7320616c72656164792061646465640000006000830152602082019050919050565b6060820160008201516107b760008501826106c7565b5060208201516107ca60208501826107e3565b5060408201516107dd6040850182610743565b50505050565b6107ec81610961565b82525050565b6107fb81610961565b82525050565b600060208201905061081660008301846106d6565b92915050565b600060408201905061083160008301856106d6565b61083e60208301846107f2565b9392505050565b600060608201905061085a60008301866106d6565b61086760208301856107f2565b6108746040830184610752565b949350505050565b6000602082019050818103600083015261089681846106e5565b905092915050565b60006020820190506108b36000830184610752565b92915050565b600060208201905081810360008301526108d281610761565b9050919050565b6000819050602082019050919050565b600081519050919050565b6000602082019050919050565b600082825260208201905092915050565b600082825260208201905092915050565b600061092e82610941565b9050919050565b60008115159050919050565b600073ffffffffffffffffffffffffffffffffffffffff82169050919050565b6000819050919050565b61097481610923565b811461097f57600080fd5b50565b61098b81610961565b811461099657600080fd5b5056fea365627a7a7231582016436a70da4f85a7401a81eb95283424f314415206cc84a7ac1772de0f9ee4cf6c6578706572696d656e74616cf564736f6c63430005100040",
  "source": "pragma solidity >=0.4.21 <0.7.0;\r\npragma experimental ABIEncoderV2;\r\n\r\n/*Battery Management Smart Contract*/\r\n\r\ncontract Battery{\r\n\r\n    address public owner;\r\n\r\n    mapping (address => battery) batteries; //mapping address as key to struct battery with mapping name batteries\r\n    \r\n    //assigning the contract AddBattery as the owner\r\n    //a modifier onlyOwner is created to limit the access to function AddNewBattery to contract AddBattery\r\n    /*constructor() public{\r\n        owner=msg.sender;\r\n    }*/\r\n\r\n    struct battery{\r\n        address batteryId; //batteryId is battery's ethereum address\r\n        uint batteryData;\r\n        bool isexist;\r\n    }\r\n\r\n    battery[] public listOfbatteries;\r\n\r\n    //assigning the battery details to a key (batteryId)\r\n    /*function isExist(address batteryId) public view returns(bool isIndeed) {\r\n        if(listOfbatteries.length == 0) return false;\r\n        return batteries[batteryId].isexist;\r\n    }*/\r\n\r\n    constructor (address batteryId, uint batteryData) public {\r\n        owner=msg.sender;\r\n        require(batteries[batteryId].isexist==false, \"Battery details already added\");\r\n        batteries[batteryId] = battery(batteryId, batteryData, true);\r\n        listOfbatteries.push(battery(batteryId, batteryData, true));\r\n    }\r\n\r\n    modifier onlyOwner{\r\n        require(msg.sender==owner);\r\n        _;\r\n    }\r\n\r\n    function addNewBattery (address batteryId, uint batteryData) public onlyOwner returns(bool) {\r\n        require(batteries[batteryId].isexist==false, \"Battery details already added\");\r\n        batteries[batteryId] = battery(batteryId, batteryData, true);\r\n        listOfbatteries.push(battery(batteryId, batteryData, true));\r\n        return true;\r\n    }\r\n\r\n    function showAllBatteries () public view returns (battery[] memory){\r\n        return listOfbatteries;\r\n    }\r\n\r\n    //function to get the details of a battery when batteryId is given\r\n    //returning battery's eth address and id of battery to corresponding key\r\n    function getBatteryDetails(address batteryId) public view returns (address, uint){\r\n        return (batteries[batteryId].batteryId, batteries[batteryId].batteryData);\r\n    }\r\n\r\n    /*function removeBattery(address batteryId) public onlyOwner {\r\n        require(batteries[batteryId].isexist==true, \"Battery details removed\");\r\n        uint rowToDelete = batteries[batteryId].batteryId\r\n    }*/\r\n}",
  "sourcePath": "C:/Users/Lenovo/projects/ethereum/protergia/Blockchain-energy-trading-and-green-energy-certification-Thesis-w-Protergia/src/contracts/Battery.sol",
  "compiler": {
    "name": "solc",
    "version": "0.5.16+commit.9c3226ce.Emscripten.clang"
  },
  "schemaVersion": "3.3.4",
  "updatedAt": "2021-04-13T12:41:30.525Z",
  "devdoc": {
    "methods": {}
  },
  "userdoc": {
    "methods": {}
  }
}