{
  "contractName": "Battery",
  "abi": [
    {
      "inputs": [
        {
          "internalType": "string",
          "name": "batteryId",
          "type": "string"
        },
        {
          "internalType": "uint256",
          "name": "batteryData",
          "type": "uint256"
        }
      ],
      "payable": false,
      "stateMutability": "nonpayable",
      "type": "constructor"
    },
    {
      "constant": true,
      "inputs": [
        {
          "internalType": "uint256",
          "name": "",
          "type": "uint256"
        }
      ],
      "name": "listOfbatteries",
      "outputs": [
        {
          "internalType": "string",
          "name": "batteryId",
          "type": "string"
        },
        {
          "internalType": "uint256",
          "name": "batteryData",
          "type": "uint256"
        },
        {
          "internalType": "bool",
          "name": "isexist",
          "type": "bool"
        }
      ],
      "payable": false,
      "stateMutability": "view",
      "type": "function"
    },
    {
      "constant": true,
      "inputs": [],
      "name": "owner",
      "outputs": [
        {
          "internalType": "address",
          "name": "",
          "type": "address"
        }
      ],
      "payable": false,
      "stateMutability": "view",
      "type": "function"
    },
    {
      "constant": false,
      "inputs": [
        {
          "internalType": "string",
          "name": "batteryId",
          "type": "string"
        },
        {
          "internalType": "uint256",
          "name": "batteryData",
          "type": "uint256"
        }
      ],
      "name": "addNewBattery",
      "outputs": [
        {
          "internalType": "bool",
          "name": "",
          "type": "bool"
        }
      ],
      "payable": false,
      "stateMutability": "nonpayable",
      "type": "function"
    },
    {
      "constant": true,
      "inputs": [],
      "name": "showAllBatteries",
      "outputs": [
        {
          "components": [
            {
              "internalType": "string",
              "name": "batteryId",
              "type": "string"
            },
            {
              "internalType": "uint256",
              "name": "batteryData",
              "type": "uint256"
            },
            {
              "internalType": "bool",
              "name": "isexist",
              "type": "bool"
            }
          ],
          "internalType": "struct Battery.battery[]",
          "name": "",
          "type": "tuple[]"
        }
      ],
      "payable": false,
      "stateMutability": "view",
      "type": "function"
    },
    {
      "constant": true,
      "inputs": [
        {
          "internalType": "string",
          "name": "batteryId",
          "type": "string"
        }
      ],
      "name": "getBatteryDetails",
      "outputs": [
        {
          "internalType": "string",
          "name": "",
          "type": "string"
        },
        {
          "internalType": "uint256",
          "name": "",
          "type": "uint256"
        }
      ],
      "payable": false,
      "stateMutability": "view",
      "type": "function"
    }
  ],
  "bytecode": "0x60806040523480156200001157600080fd5b506040516200123c3803806200123c83398181016040526200003791908101906200033c565b336000806101000a81548173ffffffffffffffffffffffffffffffffffffffff021916908373ffffffffffffffffffffffffffffffffffffffff160217905550600015156001836040516200008d91906200040f565b908152602001604051809103902060020160009054906101000a900460ff16151514620000f1576040517f08c379a0000000000000000000000000000000000000000000000000000000008152600401620000e89062000428565b60405180910390fd5b6040518060600160405280838152602001828152602001600115158152506001836040516200012191906200040f565b908152602001604051809103902060008201518160000190805190602001906200014d9291906200021a565b506020820151816001015560408201518160020160006101000a81548160ff0219169083151502179055509050506002604051806060016040528084815260200183815260200160011515815250908060018154018082558091505090600182039060005260206000209060030201600090919290919091506000820151816000019080519060200190620001e49291906200021a565b506020820151816001015560408201518160020160006101000a81548160ff021916908315150217905550505050505062000526565b828054600181600116156101000203166002900490600052602060002090601f016020900481019282601f106200025d57805160ff19168380011785556200028e565b828001600101855582156200028e579182015b828111156200028d57825182559160200191906001019062000270565b5b5090506200029d9190620002a1565b5090565b620002c691905b80821115620002c2576000816000905550600101620002a8565b5090565b90565b600082601f830112620002db57600080fd5b8151620002f2620002ec8262000478565b6200044a565b915080825260208301602083018583830111156200030f57600080fd5b6200031c838284620004d6565b50505092915050565b60008151905062000336816200050c565b92915050565b600080604083850312156200035057600080fd5b600083015167ffffffffffffffff8111156200036b57600080fd5b6200037985828601620002c9565b92505060206200038c8582860162000325565b9150509250929050565b6000620003a382620004a5565b620003af8185620004c1565b9350620003c1818560208601620004d6565b80840191505092915050565b6000620003dc601d83620004b0565b91507f426174746572792064657461696c7320616c72656164792061646465640000006000830152602082019050919050565b60006200041d828462000396565b915081905092915050565b600060208201905081810360008301526200044381620003cd565b9050919050565b6000604051905081810181811067ffffffffffffffff821117156200046e57600080fd5b8060405250919050565b600067ffffffffffffffff8211156200049057600080fd5b601f19601f8301169050602081019050919050565b600081519050919050565b600082825260208201905092915050565b600081905092915050565b6000819050919050565b60005b83811015620004f6578082015181840152602081019050620004d9565b8381111562000506576000848401525b50505050565b6200051781620004cc565b81146200052357600080fd5b50565b610d0680620005366000396000f3fe608060405234801561001057600080fd5b50600436106100575760003560e01c80631779e7fb1461005c5780634b927f691461008c5780634c6f8952146100be5780638da5cb5b146100ef578063a496b7ed1461010d575b600080fd5b61007660048036036100719190810190610782565b61012b565b6040516100839190610a93565b60405180910390f35b6100a660048036036100a191908101906107d6565b610320565b6040516100b593929190610ade565b60405180910390f35b6100d860048036036100d39190810190610741565b6103fc565b6040516100e6929190610aae565b60405180910390f35b6100f76104e8565b6040516101049190610a56565b60405180910390f35b61011561050d565b6040516101229190610a71565b60405180910390f35b60008060009054906101000a900473ffffffffffffffffffffffffffffffffffffffff1673ffffffffffffffffffffffffffffffffffffffff163373ffffffffffffffffffffffffffffffffffffffff161461018657600080fd5b6000151560018460405161019a9190610a3f565b908152602001604051809103902060020160009054906101000a900460ff161515146101fb576040517f08c379a00000000000000000000000000000000000000000000000000000000081526004016101f290610b1c565b60405180910390fd5b6040518060600160405280848152602001838152602001600115158152506001846040516102299190610a3f565b90815260200160405180910390206000820151816000019080519060200190610253929190610633565b506020820151816001015560408201518160020160006101000a81548160ff02191690831515021790555090505060026040518060600160405280858152602001848152602001600115158152509080600181540180825580915050906001820390600052602060002090600302016000909192909190915060008201518160000190805190602001906102e8929190610633565b506020820151816001015560408201518160020160006101000a81548160ff0219169083151502179055505050506001905092915050565b6002818154811061032d57fe5b9060005260206000209060030201600091509050806000018054600181600116156101000203166002900480601f0160208091040260200160405190810160405280929190818152602001828054600181600116156101000203166002900480156103d95780601f106103ae576101008083540402835291602001916103d9565b820191906000526020600020905b8154815290600101906020018083116103bc57829003601f168201915b5050505050908060010154908060020160009054906101000a900460ff16905083565b606060006001836040516104109190610a3f565b90815260200160405180910390206000016001846040516104319190610a3f565b908152602001604051809103902060010154818054600181600116156101000203166002900480601f0160208091040260200160405190810160405280929190818152602001828054600181600116156101000203166002900480156104d85780601f106104ad576101008083540402835291602001916104d8565b820191906000526020600020905b8154815290600101906020018083116104bb57829003601f168201915b5050505050915091509150915091565b6000809054906101000a900473ffffffffffffffffffffffffffffffffffffffff1681565b60606002805480602002602001604051908101604052809291908181526020016000905b8282101561062a5783829060005260206000209060030201604051806060016040529081600082018054600181600116156101000203166002900480601f0160208091040260200160405190810160405280929190818152602001828054600181600116156101000203166002900480156105ed5780601f106105c2576101008083540402835291602001916105ed565b820191906000526020600020905b8154815290600101906020018083116105d057829003601f168201915b50505050508152602001600182015481526020016002820160009054906101000a900460ff16151515158152505081526020019060010190610531565b50505050905090565b828054600181600116156101000203166002900490600052602060002090601f016020900481019282601f1061067457805160ff19168380011785556106a2565b828001600101855582156106a2579182015b828111156106a1578251825591602001919060010190610686565b5b5090506106af91906106b3565b5090565b6106d591905b808211156106d15760008160009055506001016106b9565b5090565b90565b600082601f8301126106e957600080fd5b81356106fc6106f782610b69565b610b3c565b9150808252602083016020830185838301111561071857600080fd5b610723838284610c59565b50505092915050565b60008135905061073b81610cac565b92915050565b60006020828403121561075357600080fd5b600082013567ffffffffffffffff81111561076d57600080fd5b610779848285016106d8565b91505092915050565b6000806040838503121561079557600080fd5b600083013567ffffffffffffffff8111156107af57600080fd5b6107bb858286016106d8565b92505060206107cc8582860161072c565b9150509250929050565b6000602082840312156107e857600080fd5b60006107f68482850161072c565b91505092915050565b600061080b83836109d1565b905092915050565b61081c81610c11565b82525050565b600061082d82610ba5565b6108378185610bd3565b93508360208202850161084985610b95565b8060005b85811015610885578484038952815161086685826107ff565b945061087183610bc6565b925060208a0199505060018101905061084d565b50829750879550505050505092915050565b6108a081610c23565b82525050565b6108af81610c23565b82525050565b60006108c082610bbb565b6108ca8185610bf5565b93506108da818560208601610c68565b6108e381610c9b565b840191505092915050565b60006108f982610bbb565b6109038185610c06565b9350610913818560208601610c68565b80840191505092915050565b600061092a82610bb0565b6109348185610be4565b9350610944818560208601610c68565b61094d81610c9b565b840191505092915050565b600061096382610bb0565b61096d8185610bf5565b935061097d818560208601610c68565b61098681610c9b565b840191505092915050565b600061099e601d83610bf5565b91507f426174746572792064657461696c7320616c72656164792061646465640000006000830152602082019050919050565b600060608301600083015184820360008601526109ee828261091f565b9150506020830151610a036020860182610a21565b506040830151610a166040860182610897565b508091505092915050565b610a2a81610c4f565b82525050565b610a3981610c4f565b82525050565b6000610a4b82846108ee565b915081905092915050565b6000602082019050610a6b6000830184610813565b92915050565b60006020820190508181036000830152610a8b8184610822565b905092915050565b6000602082019050610aa860008301846108a6565b92915050565b60006040820190508181036000830152610ac881856108b5565b9050610ad76020830184610a30565b9392505050565b60006060820190508181036000830152610af88186610958565b9050610b076020830185610a30565b610b1460408301846108a6565b949350505050565b60006020820190508181036000830152610b3581610991565b9050919050565b6000604051905081810181811067ffffffffffffffff82111715610b5f57600080fd5b8060405250919050565b600067ffffffffffffffff821115610b8057600080fd5b601f19601f8301169050602081019050919050565b6000819050602082019050919050565b600081519050919050565b600081519050919050565b600081519050919050565b6000602082019050919050565b600082825260208201905092915050565b600082825260208201905092915050565b600082825260208201905092915050565b600081905092915050565b6000610c1c82610c2f565b9050919050565b60008115159050919050565b600073ffffffffffffffffffffffffffffffffffffffff82169050919050565b6000819050919050565b82818337600083830152505050565b60005b83811015610c86578082015181840152602081019050610c6b565b83811115610c95576000848401525b50505050565b6000601f19601f8301169050919050565b610cb581610c4f565b8114610cc057600080fd5b5056fea365627a7a723158201c9acaba6606a40526bc4522af5c909ed07cf078de66262f861ac62827a281d66c6578706572696d656e74616cf564736f6c63430005100040",
  "source": "pragma solidity >=0.4.21 <0.7.0;\r\npragma experimental ABIEncoderV2;\r\n\r\n/*Battery Management Smart Contract*/\r\n\r\ncontract Battery{\r\n\r\n    address public owner;\r\n\r\n    mapping (string => battery) batteries; //mapping \"string\" address as key to struct battery with mapping name batteries\r\n    \r\n    //assigning the contract AddBattery as the owner\r\n    //a modifier onlyOwner is created to limit the access to function AddNewBattery to contract AddBattery\r\n    /*constructor() public{\r\n        owner=msg.sender;\r\n    }*/\r\n\r\n    struct battery{\r\n        string batteryId; //batteryId is battery's ethereum address\r\n        uint batteryData;\r\n        bool isexist;\r\n    }\r\n\r\n    battery[] public listOfbatteries;\r\n\r\n    //assigning the battery details to a key (batteryId)\r\n    constructor (string memory batteryId, uint batteryData) public {\r\n        owner=msg.sender;\r\n        require(batteries[batteryId].isexist==false, \"Battery details already added\");\r\n        batteries[batteryId] = battery(batteryId, batteryData, true);\r\n        listOfbatteries.push(battery(batteryId, batteryData, true));\r\n    }\r\n\r\n    modifier onlyOwner{\r\n        require(msg.sender==owner);\r\n        _;\r\n    }\r\n\r\n    function addNewBattery (string memory batteryId, uint batteryData) public onlyOwner returns(bool) {\r\n        require(batteries[batteryId].isexist==false, \"Battery details already added\");\r\n        batteries[batteryId] = battery(batteryId, batteryData, true);\r\n        listOfbatteries.push(battery(batteryId, batteryData, true));\r\n        return true;\r\n    }\r\n\r\n    function showAllBatteries () public view returns (battery[] memory){\r\n        return listOfbatteries;\r\n    }\r\n\r\n    //function to get the details of a battery when batteryId is given\r\n    //returning battery's eth address and id of battery to corresponding key\r\n    function getBatteryDetails(string memory batteryId) public view returns (string memory, uint){\r\n        return (batteries[batteryId].batteryId, batteries[batteryId].batteryData);\r\n    }\r\n}",
  "sourcePath": "C:/Users/Lenovo/projects/ethereum/protergia/Blockchain-energy-trading-and-green-energy-certification-Thesis-w-Protergia/src/contracts/Battery.sol",
  "compiler": {
    "name": "solc",
    "version": "0.5.16+commit.9c3226ce.Emscripten.clang"
  },
  "schemaVersion": "3.3.4",
  "updatedAt": "2021-04-14T15:07:41.682Z",
  "devdoc": {
    "methods": {}
  },
  "userdoc": {
    "methods": {}
  }
}