{
  "contractName": "batteryRegistry",
  "abi": [
    {
      "anonymous": false,
      "inputs": [
        {
          "indexed": true,
          "internalType": "address",
          "name": "ownerOfBattery",
          "type": "address"
        },
        {
          "indexed": false,
          "internalType": "uint256",
          "name": "date",
          "type": "uint256"
        },
        {
          "indexed": false,
          "internalType": "string",
          "name": "id",
          "type": "string"
        }
      ],
      "name": "batteryAdded",
      "type": "event"
    },
    {
      "constant": false,
      "inputs": [
        {
          "internalType": "string",
          "name": "uuID",
          "type": "string"
        }
      ],
      "name": "addNewBattery",
      "outputs": [],
      "payable": false,
      "stateMutability": "nonpayable",
      "type": "function"
    },
    {
      "constant": true,
      "inputs": [],
      "name": "getCountOfBatteries",
      "outputs": [
        {
          "internalType": "uint256",
          "name": "count",
          "type": "uint256"
        }
      ],
      "payable": false,
      "stateMutability": "view",
      "type": "function"
    },
    {
      "constant": false,
      "inputs": [
        {
          "internalType": "address",
          "name": "batteryID",
          "type": "address"
        },
        {
          "internalType": "string",
          "name": "uuID",
          "type": "string"
        }
      ],
      "name": "updateBattery",
      "outputs": [],
      "payable": false,
      "stateMutability": "nonpayable",
      "type": "function"
    },
    {
      "constant": true,
      "inputs": [
        {
          "internalType": "address",
          "name": "batteryID",
          "type": "address"
        }
      ],
      "name": "getBatteryByID",
      "outputs": [
        {
          "internalType": "address",
          "name": "",
          "type": "address"
        },
        {
          "internalType": "string",
          "name": "",
          "type": "string"
        },
        {
          "internalType": "uint256",
          "name": "",
          "type": "uint256"
        }
      ],
      "payable": false,
      "stateMutability": "view",
      "type": "function"
    }
  ],
  "bytecode": "0x608060405234801561001057600080fd5b506109b0806100206000396000f3fe608060405234801561001057600080fd5b506004361061004c5760003560e01c806344da1a9414610051578063c9fb85781461006f578063edacc18a14610166578063eefa716b14610221575b600080fd5b6100596102fc565b6040518082815260200191505060405180910390f35b6100b16004803603602081101561008557600080fd5b81019080803573ffffffffffffffffffffffffffffffffffffffff169060200190929190505050610309565b604051808473ffffffffffffffffffffffffffffffffffffffff1673ffffffffffffffffffffffffffffffffffffffff16815260200180602001838152602001828103825284818151815260200191508051906020019080838360005b8381101561012957808201518184015260208101905061010e565b50505050905090810190601f1680156101565780820380516001836020036101000a031916815260200191505b5094505050505060405180910390f35b61021f6004803603602081101561017c57600080fd5b810190808035906020019064010000000081111561019957600080fd5b8201836020820111156101ab57600080fd5b803590602001918460018302840111640100000000831117156101cd57600080fd5b91908080601f016020809104026020016040519081016040528093929190818152602001838380828437600081840152601f19601f82011690508083019250505050505050919291929050505061049d565b005b6102fa6004803603604081101561023757600080fd5b81019080803573ffffffffffffffffffffffffffffffffffffffff1690602001909291908035906020019064010000000081111561027457600080fd5b82018360208201111561028657600080fd5b803590602001918460018302840111640100000000831117156102a857600080fd5b91908080601f016020809104026020016040519081016040528093929190818152602001838380828437600081840152601f19601f82011690508083019250505050505050919291929050505061072c565b005b6000600180549050905090565b6000606060008060008573ffffffffffffffffffffffffffffffffffffffff1673ffffffffffffffffffffffffffffffffffffffff16815260200190815260200160002060000160009054906101000a900473ffffffffffffffffffffffffffffffffffffffff166000808673ffffffffffffffffffffffffffffffffffffffff1673ffffffffffffffffffffffffffffffffffffffff1681526020019081526020016000206001016000808773ffffffffffffffffffffffffffffffffffffffff1673ffffffffffffffffffffffffffffffffffffffff16815260200190815260200160002060020154818054600181600116156101000203166002900480601f0160208091040260200160405190810160405280929190818152602001828054600181600116156101000203166002900480156104895780601f1061045e57610100808354040283529160200191610489565b820191906000526020600020905b81548152906001019060200180831161046c57829003601f168201915b505050505091509250925092509193909250565b600015156000803373ffffffffffffffffffffffffffffffffffffffff1673ffffffffffffffffffffffffffffffffffffffff16815260200190815260200160002060030160009054906101000a900460ff16151514610565576040517f08c379a000000000000000000000000000000000000000000000000000000000815260040180806020018281038252601d8152602001807f426174746572792064657461696c7320616c726561647920616464656400000081525060200191505060405180910390fd5b60405180608001604052803373ffffffffffffffffffffffffffffffffffffffff168152602001828152602001428152602001600115158152506000803373ffffffffffffffffffffffffffffffffffffffff1673ffffffffffffffffffffffffffffffffffffffff16815260200190815260200160002060008201518160000160006101000a81548173ffffffffffffffffffffffffffffffffffffffff021916908373ffffffffffffffffffffffffffffffffffffffff1602179055506020820151816001019080519060200190610640929190610831565b506040820151816002015560608201518160030160006101000a81548160ff0219169083151502179055509050503373ffffffffffffffffffffffffffffffffffffffff167fc5cfbe3ae2f47bc1f211d45a138cf6097b76f828f5bd86d48fd6f0b6ebb3ee6042836040518083815260200180602001828103825283818151815260200191508051906020019080838360005b838110156106ee5780820151818401526020810190506106d3565b50505050905090810190601f16801561071b5780820380516001836020036101000a031916815260200191505b50935050505060405180910390a250565b600115156000803373ffffffffffffffffffffffffffffffffffffffff1673ffffffffffffffffffffffffffffffffffffffff16815260200190815260200160002060030160009054906101000a900460ff161515146107d7576040517f08c379a00000000000000000000000000000000000000000000000000000000081526004018080602001828103825260258152602001806109576025913960400191505060405180910390fd5b806000808473ffffffffffffffffffffffffffffffffffffffff1673ffffffffffffffffffffffffffffffffffffffff168152602001908152602001600020600101908051906020019061082c9291906108b1565b505050565b828054600181600116156101000203166002900490600052602060002090601f016020900481019282601f1061087257805160ff19168380011785556108a0565b828001600101855582156108a0579182015b8281111561089f578251825591602001919060010190610884565b5b5090506108ad9190610931565b5090565b828054600181600116156101000203166002900490600052602060002090601f016020900481019282601f106108f257805160ff1916838001178555610920565b82800160010185558215610920579182015b8281111561091f578251825591602001919060010190610904565b5b50905061092d9190610931565b5090565b61095391905b8082111561094f576000816000905550600101610937565b5090565b9056fe4f6e6c79207265676973746572656420626174746572696573206861766520616363657373a265627a7a72315820f8f5123aa245ef8e83a065c6617eff741392ddde327e4edec59765531c23d04764736f6c63430005100032",
  "source": "pragma solidity >=0.4.21 <0.9.0;\r\n\r\n//Contract that allows battery address to be registered\r\ncontract batteryRegistry {\r\n\r\n    event batteryAdded(address indexed ownerOfBattery, uint date, string id);\r\n\r\n    struct battery {\r\n        address batteryID;            //battery wallet address\r\n        string uuID;                  //id of battery\r\n        uint timestamp;\r\n        bool isExist;                 //Check if battery exists\r\n    }\r\n    //e.g. type of bytes32: 0x454f533857453739536f6e4847486335447175563466787479396248666e4c53\r\n    //You have to convert string to bytes32 through web3.\r\n\r\n    //mapping address as key to struct battery with mapping name batteries\r\n    mapping (address => battery) batteries;\r\n    battery[] listOfBatteries;\r\n\r\n    modifier onlyRegisteredBattery{\r\n         require(batteries[msg.sender].isExist==true, \"Only registered batteries have access\");\r\n         _;\r\n     }\r\n\r\n    //add a battery by eth account address\r\n    function addNewBattery (string memory uuID) public {\r\n        require(batteries[msg.sender].isExist==false, \"Battery details already added\");\r\n        batteries[msg.sender] = battery(msg.sender, uuID, block.timestamp, true);\r\n        emit batteryAdded(msg.sender, block.timestamp, uuID);\r\n    }\r\n\r\n    function getCountOfBatteries () public view returns (uint count) {\r\n        return listOfBatteries.length;\r\n    }\r\n\r\n    //change details of a battery\r\n    function updateBattery(address batteryID, string memory uuID) public onlyRegisteredBattery {\r\n        batteries[batteryID].uuID = uuID;\r\n    }\r\n\r\n    //view single battery by battery id\r\n    function getBatteryByID(address batteryID) public view returns (address, string memory, uint){\r\n        return (batteries[batteryID].batteryID, batteries[batteryID].uuID, batteries[batteryID].timestamp);\r\n    }\r\n}\r\n\r\ncontract EnergyTrading is batteryRegistry {\r\n\r\n    event offerEnergyNotifier(address indexed seller, uint indexed day, uint indexed price, uint energy);\r\n    event askEnergyNotifier(address indexed buyer, uint indexed day, uint energy);\r\n\r\n    uint constant cent = 1;\r\n    uint constant dollar = 100 * cent;\r\n\r\n    uint constant mWh = 1;\r\n    uint constant  Wh = 1000 * mWh;\r\n    uint constant kWh = 1000 * Wh;\r\n    uint constant MWh = 1000 * kWh;\r\n    uint constant GWh = 1000 * MWh;\r\n    uint constant TWh = 1000 * GWh;\r\n\r\n    //uint uinversalPrice = 2; //Energy market price per kWh (ex. 2euro/kWh, the price is trial)\r\n\r\n    struct bid {\r\n        address prosumerID;    \r\n        uint numberOfBid;    //A battery can create more than one energy offer\r\n        uint energy;         //energy to trade\r\n        uint eprice;         //Energy market price per kWh\r\n        uint timestamp;      //timestamp for when the bid was created\r\n    }\r\n    \r\n    struct ask {\r\n        address consumerID;\r\n        uint energy;\r\n        uint timestamp;\r\n        uint remainingEnergy;\r\n    }\r\n\r\n    //struct to store all energy purchases\r\n    struct buyedEnergy {\r\n        address consumerID;\r\n        address prosumerID;\r\n        uint energy;\r\n        uint price;\r\n        uint timestamp;\r\n    }\r\n    \r\n    mapping(address => uint) asks; \r\n    ask[] listOfAsks;\r\n\r\n    buyedEnergy[] listOfBuyedEnergy;\r\n\r\n    mapping(address => uint) bids;\r\n    bid[] listOfBids;\r\n    uint nextNumberOfBid;                                    \r\n\r\n    //create energy offer \r\n    //There is a minimum energy requirement \r\n    //Only registered batteries can use this function\r\n    function energyOffer(uint _energy, uint _eprice) public onlyRegisteredBattery {\r\n        require(_energy >= kWh, \"Wrong energy input require a minimum offer of 1 kWh(in whs), for instance 5.6kwhs = 5600whs\");\r\n        require(_eprice >= cent, \"Price in 'cent', for example 1.5dollars/kwh = 150cents/kwh\");\r\n\r\n        listOfBids.push(bid({\r\n            prosumerID: msg.sender,\r\n            numberOfBid: nextNumberOfBid,\r\n            energy: _energy,\r\n            eprice: _eprice,\r\n            timestamp: block.timestamp\r\n        }));\r\n        nextNumberOfBid++;\r\n\r\n        emit offerEnergyNotifier(msg.sender, block.timestamp, _eprice, _energy);\r\n\r\n        bidEnergyTrading(listOfBids[listOfBids.length-1]);\r\n    }\r\n\r\n    //make ask request and buy energy from available bids\r\n    function askEnergy(uint _energy) public onlyRegisteredBattery {\r\n        require(_energy >= kWh, \"Wrong energy input require a minimum offer of 1 kWh (in whs), for instance 5.6kwhs = 5600whs\");\r\n\r\n        listOfAsks.push(ask({\r\n            consumerID: msg.sender,\r\n            energy: _energy,\r\n            timestamp: block.timestamp,\r\n            remainingEnergy: _energy\r\n        }));\r\n\r\n        emit askEnergyNotifier(msg.sender, block.timestamp, _energy);\r\n\r\n        askEnergyTrading(listOfAsks[listOfAsks.length-1]);\r\n    }\r\n\r\n    //core function for energy trading (ask case)\r\n    function askEnergyTrading(ask memory _ask) private onlyRegisteredBattery {\r\n        //require(listOfBids.length > 0, \"There is no energy offer\");\r\n\r\n        uint remainingEnergy = _ask.remainingEnergy;\r\n\r\n        for(uint i = 0; i<listOfBids.length; i++){\r\n\r\n            address _prosumerID;\r\n            bool isEnergyPurchased = false;\r\n            uint energyPurchased = 0;\r\n            uint _price = 0;\r\n\r\n            if(listOfBids[i].energy < remainingEnergy){\r\n                _prosumerID = listOfBids[i].prosumerID;\r\n                energyPurchased = listOfBids[i].energy; \r\n                remainingEnergy = remainingEnergy - listOfBids[i].energy;\r\n                listOfAsks[i].remainingEnergy = remainingEnergy;\r\n                _price = listOfBids[i].eprice*energyPurchased;\r\n                listOfBids[i].energy = 0;\r\n\r\n                isEnergyPurchased = true;\r\n\r\n                //remove energy offer from the list if energy is zero\r\n                if (listOfBids.length > 1) {\r\n                    listOfBids[i] = listOfBids[listOfBids.length-1];\r\n                }\r\n                listOfBids.length--;\r\n                i--;\r\n\r\n            }else if(listOfBids[i].energy == remainingEnergy){\r\n                _prosumerID = listOfBids[i].prosumerID;\r\n                energyPurchased = remainingEnergy;\r\n                _price = listOfBids[i].eprice*energyPurchased;\r\n                listOfBids[i].energy = 0;\r\n                remainingEnergy = 0;\r\n\r\n                isEnergyPurchased = true;\r\n\r\n                if (listOfBids.length > 1) {\r\n                    listOfBids[i] = listOfBids[listOfBids.length-1];\r\n                }\r\n                listOfBids.length--;\r\n\r\n            }else{\r\n                _prosumerID = listOfBids[i].prosumerID;\r\n                energyPurchased = remainingEnergy;\r\n                listOfBids[i].energy = listOfBids[i].energy - remainingEnergy;\r\n                _price = listOfBids[i].eprice*energyPurchased;\r\n                remainingEnergy = 0;\r\n\r\n                isEnergyPurchased = true;\r\n            }\r\n\r\n            //store purchase \r\n            if(isEnergyPurchased){\r\n                listOfBuyedEnergy.push(buyedEnergy({\r\n                    consumerID: msg.sender,\r\n                    prosumerID: _prosumerID,\r\n                    energy: energyPurchased,\r\n                    price: _price,\r\n                    timestamp: _ask.timestamp\r\n                }));\r\n            }\r\n\r\n            //remove ask request from list \r\n            if(remainingEnergy == 0){\r\n                if (listOfAsks.length > 1){\r\n                    listOfAsks[i] = listOfAsks[listOfAsks.length-1];\r\n                }\r\n                listOfAsks.length--;\r\n                break ;\r\n            }\r\n        }\r\n    }\r\n\r\n    /////Energy trading for bid case \r\n    function bidEnergyTrading(bid memory _bid) private onlyRegisteredBattery {\r\n        uint _remainingBidEnergy = _bid.energy;\r\n\r\n        for(uint i = 0; i<listOfAsks.length; i++){\r\n            \r\n            address _consumerID;\r\n            bool isEnergyPurchased = false;\r\n            uint energyPurchased = 0;\r\n            uint _price = 0;\r\n            if(listOfAsks[i].remainingEnergy < _remainingBidEnergy){\r\n                _consumerID = listOfAsks[i].consumerID;\r\n                energyPurchased = listOfAsks[i].remainingEnergy;\r\n                _remainingBidEnergy = _remainingBidEnergy - energyPurchased;\r\n                listOfBids[i].energy = _remainingBidEnergy;\r\n                _price = _bid.eprice*energyPurchased;\r\n                listOfAsks[i].remainingEnergy = 0;\r\n\r\n                isEnergyPurchased = true;\r\n\r\n                if(listOfAsks.length > 1){\r\n                    listOfAsks[i] = listOfAsks[listOfAsks.length-1];\r\n                }\r\n                listOfAsks.length--;\r\n                i--;\r\n\r\n            }else if(listOfAsks[i].remainingEnergy == _remainingBidEnergy){\r\n                _consumerID = listOfAsks[i].consumerID;\r\n                energyPurchased = _remainingBidEnergy;\r\n                _price = _bid.eprice*energyPurchased;\r\n                _remainingBidEnergy = 0;\r\n                listOfAsks[i].remainingEnergy = 0;\r\n\r\n                isEnergyPurchased = true;\r\n\r\n                if(listOfAsks.length > 1){\r\n                    listOfAsks[i] = listOfAsks[listOfAsks.length-1];\r\n                }\r\n                listOfAsks.length--;\r\n\r\n            }else{\r\n                _consumerID = listOfAsks[i].consumerID;\r\n                energyPurchased = _remainingBidEnergy;\r\n                listOfAsks[i].remainingEnergy = listOfAsks[i].remainingEnergy - energyPurchased;\r\n                _price = _bid.eprice*energyPurchased;\r\n                _remainingBidEnergy = 0;\r\n\r\n                isEnergyPurchased = true;\r\n            }\r\n\r\n            if(isEnergyPurchased){\r\n                listOfBuyedEnergy.push(buyedEnergy({\r\n                    consumerID: _consumerID,\r\n                    prosumerID: msg.sender,\r\n                    energy: energyPurchased,\r\n                    price: _price,\r\n                    timestamp: _bid.timestamp\r\n                }));\r\n            }\r\n\r\n            if(_remainingBidEnergy == 0){\r\n                if(listOfBids.length > 1){\r\n                    listOfBids[i] = listOfBids[listOfBids.length-1];\r\n                }\r\n                listOfBids.length--;\r\n                break;\r\n            }\r\n        }\r\n    }\r\n\r\n    //list of all ask energy requests\r\n    function viewAllAsks (uint n) public view returns (address[] memory, uint[] memory, uint[] memory){\r\n        address[] memory _consumers = new address[](listOfAsks.length);\r\n        uint[] memory _dates = new uint[](listOfAsks.length);\r\n        uint[] memory _energyList = new uint[](listOfAsks.length);\r\n        for(uint i = 0; i < n; i++){\r\n            _consumers[i] = listOfAsks[i].consumerID;\r\n            _dates[i] = listOfAsks[i].timestamp;\r\n            _energyList[i] = listOfAsks[i].remainingEnergy;\r\n        }\r\n        return(_consumers, _dates, _energyList);\r\n    }\r\n\r\n    function getCountOfAsks () public view returns (uint count){\r\n        return listOfAsks.length;\r\n    }\r\n\r\n    //list of all energy purchases\r\n    function viewAllEnergyPurchases (uint n) public view returns (address[] memory, address[] memory, uint[] memory, uint[] memory, uint[] memory){\r\n        address[] memory _prosumers = new address[](listOfBuyedEnergy.length);\r\n        address[] memory _consumersList= new address[](listOfBuyedEnergy.length);\r\n        uint[] memory _prchsEnergy = new uint[](listOfBuyedEnergy.length);\r\n        uint[] memory _prices = new uint[](listOfBuyedEnergy.length);\r\n        uint[] memory _time = new uint[](listOfBuyedEnergy.length);\r\n        for(uint i = 0; i < n; i++){\r\n            _prosumers[i] = listOfBuyedEnergy[i].prosumerID;\r\n            _consumersList[i] = listOfBuyedEnergy[i].consumerID;\r\n            _prchsEnergy[i] = listOfBuyedEnergy[i].energy;\r\n            _prices[i] = listOfBuyedEnergy[i].price;\r\n            _time[i] = listOfBuyedEnergy[i].timestamp;\r\n        }\r\n        return(_prosumers, _consumersList, _prchsEnergy, _prices, _time);\r\n    }\r\n\r\n    //view all bids \r\n    function viewAllBids (uint n) public view returns (address[] memory, uint[] memory, uint[] memory){\r\n        address[] memory prosumers = new address[](listOfBids.length);\r\n        uint[] memory dates = new uint[](listOfBids.length);\r\n        uint[] memory energyList = new uint[](listOfBids.length);\r\n        for(uint i = 0; i < n; i++){\r\n            prosumers[i] = listOfBids[i].prosumerID;\r\n            dates[i] = listOfBids[i].timestamp;\r\n            energyList[i] = listOfBids[i].energy;\r\n        }\r\n        return(prosumers, dates, energyList);\r\n    }\r\n\r\n    function getBidsLength () public view returns (uint count){\r\n        return listOfBids.length;\r\n    }\r\n\r\n    function getAsksLength () public view returns (uint count){\r\n        return listOfAsks.length;\r\n    }\r\n\r\n    function getBidsByIndex (uint _index) public view returns (address, uint, uint){\r\n        bid storage _bid = listOfBids[_index];\r\n        return(_bid.prosumerID, _bid.energy, _bid.timestamp);\r\n    }\r\n\r\n    function getAsksByIndex (uint _index) public view returns (address, uint, uint){\r\n        ask storage _ask = listOfAsks[_index];\r\n        return(_ask.consumerID, _ask.energy, _ask.timestamp);\r\n    }\r\n}",
  "sourcePath": "C:/Users/Lenovo/projects/ethereum/protergia/blockchain-energy-trading-and-green-energy-certification-thesis-w-protergia/src/contracts/EnergyTrading.sol",
  "compiler": {
    "name": "solc",
    "version": "0.5.16+commit.9c3226ce.Emscripten.clang"
  },
  "schemaVersion": "3.4.1",
  "updatedAt": "2021-08-20T17:25:33.463Z",
  "devdoc": {
    "methods": {}
  },
  "userdoc": {
    "methods": {}
  }
}