{
  "contractName": "batteryRegistry",
  "abi": [
    {
      "constant": false,
      "inputs": [
        {
          "internalType": "string",
          "name": "uuID",
          "type": "string"
        },
        {
          "internalType": "uint256",
          "name": "date",
          "type": "uint256"
        }
      ],
      "name": "addNewBattery",
      "outputs": [],
      "payable": false,
      "stateMutability": "nonpayable",
      "type": "function"
    },
    {
      "constant": true,
      "inputs": [],
      "name": "viewAllBatteries",
      "outputs": [
        {
          "components": [
            {
              "internalType": "address",
              "name": "batteryID",
              "type": "address"
            },
            {
              "internalType": "string",
              "name": "uuID",
              "type": "string"
            },
            {
              "internalType": "uint256",
              "name": "date",
              "type": "uint256"
            },
            {
              "internalType": "uint256",
              "name": "timestamp",
              "type": "uint256"
            },
            {
              "internalType": "bool",
              "name": "isExist",
              "type": "bool"
            }
          ],
          "internalType": "struct batteryRegistry.battery[]",
          "name": "",
          "type": "tuple[]"
        }
      ],
      "payable": false,
      "stateMutability": "view",
      "type": "function"
    },
    {
      "constant": true,
      "inputs": [],
      "name": "getCountOfBatteries",
      "outputs": [
        {
          "internalType": "uint256",
          "name": "count",
          "type": "uint256"
        }
      ],
      "payable": false,
      "stateMutability": "view",
      "type": "function"
    },
    {
      "constant": false,
      "inputs": [
        {
          "internalType": "address",
          "name": "batteryID",
          "type": "address"
        },
        {
          "internalType": "string",
          "name": "uuID",
          "type": "string"
        }
      ],
      "name": "updateBattery",
      "outputs": [],
      "payable": false,
      "stateMutability": "nonpayable",
      "type": "function"
    },
    {
      "constant": true,
      "inputs": [
        {
          "internalType": "address",
          "name": "batteryID",
          "type": "address"
        }
      ],
      "name": "getBatteryByID",
      "outputs": [
        {
          "internalType": "address",
          "name": "",
          "type": "address"
        },
        {
          "internalType": "string",
          "name": "",
          "type": "string"
        },
        {
          "internalType": "uint256",
          "name": "",
          "type": "uint256"
        },
        {
          "internalType": "uint256",
          "name": "",
          "type": "uint256"
        }
      ],
      "payable": false,
      "stateMutability": "view",
      "type": "function"
    },
    {
      "constant": true,
      "inputs": [
        {
          "internalType": "uint256",
          "name": "_idbat",
          "type": "uint256"
        }
      ],
      "name": "getBatteryByLength",
      "outputs": [
        {
          "internalType": "address",
          "name": "",
          "type": "address"
        },
        {
          "internalType": "string",
          "name": "",
          "type": "string"
        },
        {
          "internalType": "uint256",
          "name": "",
          "type": "uint256"
        }
      ],
      "payable": false,
      "stateMutability": "view",
      "type": "function"
    }
  ],
  "bytecode": "0x6080604052336000806101000a81548173ffffffffffffffffffffffffffffffffffffffff021916908373ffffffffffffffffffffffffffffffffffffffff1602179055506111fc806100536000396000f3fe608060405234801561001057600080fd5b50600436106100625760003560e01c80631779e7fb1461006757806344da1a9414610083578063844cbc79146100a1578063b47c7741146100d3578063c9fb8578146100f1578063eefa716b14610124575b600080fd5b610081600480360361007c9190810190610c40565b610140565b005b61008b6103fc565b604051610098919061100b565b60405180910390f35b6100bb60048036036100b69190810190610c94565b610409565b6040516100ca93929190610f1f565b60405180910390f35b6100db610505565b6040516100e89190610fa9565b60405180910390f35b61010b60048036036101069190810190610bc3565b61068b565b60405161011b9493929190610f5d565b60405180910390f35b61013e60048036036101399190810190610bec565b610868565b005b60001515600160003373ffffffffffffffffffffffffffffffffffffffff1673ffffffffffffffffffffffffffffffffffffffff16815260200190815260200160002060040160009054906101000a900460ff161515146101d6576040517f08c379a00000000000000000000000000000000000000000000000000000000081526004016101cd90610feb565b60405180910390fd5b6040518060a001604052803373ffffffffffffffffffffffffffffffffffffffff16815260200183815260200182815260200142815260200160011515815250600160003373ffffffffffffffffffffffffffffffffffffffff1673ffffffffffffffffffffffffffffffffffffffff16815260200190815260200160002060008201518160000160006101000a81548173ffffffffffffffffffffffffffffffffffffffff021916908373ffffffffffffffffffffffffffffffffffffffff16021790555060208201518160010190805190602001906102b8929190610a20565b50604082015181600201556060820151816003015560808201518160040160006101000a81548160ff02191690831515021790555090505060026040518060a001604052803373ffffffffffffffffffffffffffffffffffffffff168152602001848152602001838152602001428152602001600115158152509080600181540180825580915050906001820390600052602060002090600502016000909192909190915060008201518160000160006101000a81548173ffffffffffffffffffffffffffffffffffffffff021916908373ffffffffffffffffffffffffffffffffffffffff16021790555060208201518160010190805190602001906103c0929190610a20565b50604082015181600201556060820151816003015560808201518160040160006101000a81548160ff0219169083151502179055505050505050565b6000600280549050905090565b600060606000806002858154811061041d57fe5b906000526020600020906005020190508060000160009054906101000a900473ffffffffffffffffffffffffffffffffffffffff16816001018260020154818054600181600116156101000203166002900480601f0160208091040260200160405190810160405280929190818152602001828054600181600116156101000203166002900480156104f05780601f106104c5576101008083540402835291602001916104f0565b820191906000526020600020905b8154815290600101906020018083116104d357829003601f168201915b50505050509150935093509350509193909250565b60606002805480602002602001604051908101604052809291908181526020016000905b8282101561068257838290600052602060002090600502016040518060a00160405290816000820160009054906101000a900473ffffffffffffffffffffffffffffffffffffffff1673ffffffffffffffffffffffffffffffffffffffff1673ffffffffffffffffffffffffffffffffffffffff168152602001600182018054600181600116156101000203166002900480601f01602080910402602001604051908101604052809291908181526020018280546001816001161561010002031660029004801561063b5780601f106106105761010080835404028352916020019161063b565b820191906000526020600020905b81548152906001019060200180831161061e57829003601f168201915b5050505050815260200160028201548152602001600382015481526020016004820160009054906101000a900460ff16151515158152505081526020019060010190610529565b50505050905090565b60006060600080600160008673ffffffffffffffffffffffffffffffffffffffff1673ffffffffffffffffffffffffffffffffffffffff16815260200190815260200160002060000160009054906101000a900473ffffffffffffffffffffffffffffffffffffffff16600160008773ffffffffffffffffffffffffffffffffffffffff1673ffffffffffffffffffffffffffffffffffffffff168152602001908152602001600020600101600160008873ffffffffffffffffffffffffffffffffffffffff1673ffffffffffffffffffffffffffffffffffffffff16815260200190815260200160002060030154600160008973ffffffffffffffffffffffffffffffffffffffff1673ffffffffffffffffffffffffffffffffffffffff16815260200190815260200160002060020154828054600181600116156101000203166002900480601f0160208091040260200160405190810160405280929190818152602001828054600181600116156101000203166002900480156108525780601f1061082757610100808354040283529160200191610852565b820191906000526020600020905b81548152906001019060200180831161083557829003601f168201915b5050505050925093509350935093509193509193565b60011515600160003373ffffffffffffffffffffffffffffffffffffffff1673ffffffffffffffffffffffffffffffffffffffff16815260200190815260200160002060040160009054906101000a900460ff161515146108fe576040517f08c379a00000000000000000000000000000000000000000000000000000000081526004016108f590610fcb565b60405180910390fd5b60008090505b600280549050811015610a1b578273ffffffffffffffffffffffffffffffffffffffff166002828154811061093557fe5b906000526020600020906005020160000160009054906101000a900473ffffffffffffffffffffffffffffffffffffffff1673ffffffffffffffffffffffffffffffffffffffff161415610a0e57816002828154811061099157fe5b906000526020600020906005020160010190805190602001906109b5929190610aa0565b5081600160008573ffffffffffffffffffffffffffffffffffffffff1673ffffffffffffffffffffffffffffffffffffffff1681526020019081526020016000206001019080519060200190610a0c929190610aa0565b505b8080600101915050610904565b505050565b828054600181600116156101000203166002900490600052602060002090601f016020900481019282601f10610a6157805160ff1916838001178555610a8f565b82800160010185558215610a8f579182015b82811115610a8e578251825591602001919060010190610a73565b5b509050610a9c9190610b20565b5090565b828054600181600116156101000203166002900490600052602060002090601f016020900481019282601f10610ae157805160ff1916838001178555610b0f565b82800160010185558215610b0f579182015b82811115610b0e578251825591602001919060010190610af3565b5b509050610b1c9190610b20565b5090565b610b4291905b80821115610b3e576000816000905550600101610b26565b5090565b90565b600081359050610b548161118b565b92915050565b600082601f830112610b6b57600080fd5b8135610b7e610b7982611053565b611026565b91508082526020830160208301858383011115610b9a57600080fd5b610ba5838284611138565b50505092915050565b600081359050610bbd816111a2565b92915050565b600060208284031215610bd557600080fd5b6000610be384828501610b45565b91505092915050565b60008060408385031215610bff57600080fd5b6000610c0d85828601610b45565b925050602083013567ffffffffffffffff811115610c2a57600080fd5b610c3685828601610b5a565b9150509250929050565b60008060408385031215610c5357600080fd5b600083013567ffffffffffffffff811115610c6d57600080fd5b610c7985828601610b5a565b9250506020610c8a85828601610bae565b9150509250929050565b600060208284031215610ca657600080fd5b6000610cb484828501610bae565b91505092915050565b6000610cc98383610e8b565b905092915050565b610cda816110f0565b82525050565b610ce9816110f0565b82525050565b6000610cfa8261108f565b610d0481856110bd565b935083602082028501610d168561107f565b8060005b85811015610d525784840389528151610d338582610cbd565b9450610d3e836110b0565b925060208a01995050600181019050610d1a565b50829750879550505050505092915050565b610d6d81611102565b82525050565b6000610d7e826110a5565b610d8881856110df565b9350610d98818560208601611147565b610da18161117a565b840191505092915050565b6000610db78261109a565b610dc181856110ce565b9350610dd1818560208601611147565b610dda8161117a565b840191505092915050565b6000610df26025836110df565b91507f4f6e6c792072656769737465726564206261747465726965732068617665206160008301527f63636573730000000000000000000000000000000000000000000000000000006020830152604082019050919050565b6000610e58601d836110df565b91507f426174746572792064657461696c7320616c72656164792061646465640000006000830152602082019050919050565b600060a083016000830151610ea36000860182610cd1565b5060208301518482036020860152610ebb8282610dac565b9150506040830151610ed06040860182610f01565b506060830151610ee36060860182610f01565b506080830151610ef66080860182610d64565b508091505092915050565b610f0a8161112e565b82525050565b610f198161112e565b82525050565b6000606082019050610f346000830186610ce0565b8181036020830152610f468185610d73565b9050610f556040830184610f10565b949350505050565b6000608082019050610f726000830187610ce0565b8181036020830152610f848186610d73565b9050610f936040830185610f10565b610fa06060830184610f10565b95945050505050565b60006020820190508181036000830152610fc38184610cef565b905092915050565b60006020820190508181036000830152610fe481610de5565b9050919050565b6000602082019050818103600083015261100481610e4b565b9050919050565b60006020820190506110206000830184610f10565b92915050565b6000604051905081810181811067ffffffffffffffff8211171561104957600080fd5b8060405250919050565b600067ffffffffffffffff82111561106a57600080fd5b601f19601f8301169050602081019050919050565b6000819050602082019050919050565b600081519050919050565b600081519050919050565b600081519050919050565b6000602082019050919050565b600082825260208201905092915050565b600082825260208201905092915050565b600082825260208201905092915050565b60006110fb8261110e565b9050919050565b60008115159050919050565b600073ffffffffffffffffffffffffffffffffffffffff82169050919050565b6000819050919050565b82818337600083830152505050565b60005b8381101561116557808201518184015260208101905061114a565b83811115611174576000848401525b50505050565b6000601f19601f8301169050919050565b611194816110f0565b811461119f57600080fd5b50565b6111ab8161112e565b81146111b657600080fd5b5056fea365627a7a72315820ee82b6088cdc7205dfc0d688e32756bd3ae3f0376504a645f41c120ba1a33da46c6578706572696d656e74616cf564736f6c63430005100040",
  "source": "pragma solidity >=0.4.21 <0.9.0;\r\npragma experimental ABIEncoderV2;\r\n\r\ncontract owned {\r\n    \r\n    address owner;\r\n    \r\n    constructor() public {\r\n        owner = msg.sender;\r\n    }\r\n    \r\n    modifier onlyOwner {\r\n        require(msg.sender == owner, \"Only owner can call this function.\");\r\n         _;\r\n    }\r\n}\r\n\r\n//Contract that allows battery address to be registered\r\ncontract batteryRegistry is owned {\r\n\r\n    struct battery {\r\n        address batteryID;            //battery wallet address\r\n        string uuID;                  //id of battery  \r\n        uint date;                  //Creation date\r\n        uint timestamp;\r\n        bool isExist;                 //Check if battery exist into addNewBattery function\r\n    }\r\n\r\n    //mapping address as key to struct battery with mapping name batteries\r\n    mapping (address => battery) batteries;\r\n    battery[] listOfBatteries;\r\n\r\n    modifier onlyRegisteredBattery{\r\n         require(batteries[msg.sender].isExist==true, \"Only registered batteries have access\");\r\n         _;\r\n     }\r\n\r\n    //add a battery by eth account address\r\n    function addNewBattery (string memory uuID, uint date) public {\r\n        require(batteries[msg.sender].isExist==false, \"Battery details already added\");\r\n        batteries[msg.sender] = battery(msg.sender, uuID, date, block.timestamp, true);\r\n\r\n        listOfBatteries.push(battery({\r\n            batteryID: msg.sender,\r\n            uuID: uuID,\r\n            date: date,\r\n            timestamp: block.timestamp,\r\n            isExist: true\r\n            }));\r\n    }\r\n\r\n    //to view all batteries\r\n    function viewAllBatteries () public view returns (battery[] memory) {\r\n        return listOfBatteries;\r\n    }\r\n\r\n    function getCountOfBatteries () public view returns (uint count) {\r\n        return listOfBatteries.length;\r\n    }\r\n\r\n    //change details of a battery\r\n    function updateBattery(address batteryID, string memory uuID) public onlyRegisteredBattery {\r\n        for(uint i = 0; i<listOfBatteries.length; i++){\r\n            if(listOfBatteries[i].batteryID == batteryID){\r\n                listOfBatteries[i].uuID = uuID;\r\n                batteries[batteryID].uuID = uuID;\r\n            }\r\n        }\r\n    }\r\n\r\n    //view single battery by battery id\r\n    function getBatteryByID(address batteryID) public view returns (address, string memory, uint, uint){\r\n        return (batteries[batteryID].batteryID, batteries[batteryID].uuID, batteries[batteryID].timestamp, batteries[batteryID].date);\r\n    }\r\n\r\n    //This function created in order to help us in unit test\r\n    function getBatteryByLength(uint _idbat) public view returns(address, string memory, uint){\r\n        battery storage _bat = listOfBatteries[_idbat];\r\n        return(_bat.batteryID, _bat.uuID, _bat.date);\r\n    }\r\n}\r\n\r\ncontract energyBid is owned, batteryRegistry {\r\n\r\n    //event offerEnergyMade(address indexed sellerBatteryID, uint32 indexed day, uint32 indexed price, uint64 energy);\r\n    //event buyEnergyMade(address indexed sellerBatteryID, uint32 indexed day, uint32 price, uint64 energy, address indexed batteryID);\r\n\r\n    uint64 constant kWh = 1;\r\n    uint64 constant MWh = 1000 * kWh;\r\n    uint64 constant GWh = 1000 * MWh;\r\n    uint64 constant TWh = 1000 * GWh;\r\n\r\n    //uint uinversalPrice = 2; //Energy market price per kWh (ex. 2euro/kWh, the price is trial)\r\n\r\n    struct bid {\r\n        address prosumerID;    \r\n        uint numberOfBid;    //A battery can create more than one energy offer\r\n        uint day;            //day for which the offer is valid\r\n        uint energy;         //energy to trade\r\n        uint eprice;         //Energy market price per kWh\r\n        uint timestamp;      //timestamp for when the bid was created\r\n    }\r\n    \r\n    struct ask {\r\n        address consumerID;    \r\n        uint energy;\r\n        uint timestamp;\r\n        uint day;\r\n        uint remainingEnergy;\r\n    }\r\n\r\n    //struct to store all energy purchases\r\n    struct buyedEnergy {\r\n        address consumerID;\r\n        address prosumerID;\r\n        uint energy;\r\n        uint price;\r\n        uint day;\r\n        uint timestamp;\r\n    }\r\n    \r\n    mapping(address => uint) asks; \r\n    ask[] listOfAsks;\r\n\r\n    buyedEnergy[] listOfBuyedEnergy;\r\n\r\n    mapping(address => mapping(uint => mapping(uint=> uint))) bids;\r\n    bid[] listOfBids;\r\n    uint nextNumberOfBid;                                    \r\n\r\n    //create energy offer \r\n    //There is a minimum energy requirement \r\n    //Only registered batteries can use this function\r\n    function energyOffer(uint _day, uint _energy, uint _eprice) public onlyRegisteredBattery {\r\n        require(_energy >= kWh, \"Wrong energy input require a minimum offer of 1 kWh\");\r\n\r\n        listOfBids.push(bid({\r\n            prosumerID: msg.sender,\r\n            numberOfBid: nextNumberOfBid,\r\n            day: _day,\r\n            energy: _energy,\r\n            eprice: _eprice,\r\n            timestamp: block.timestamp\r\n        }));\r\n        nextNumberOfBid++;\r\n        bidEnergyTrading(listOfBids[listOfBids.length-1]);\r\n    }\r\n\r\n    //make ask request and buy energy from available bids\r\n    function askEnergy(uint _day, uint _energy) public onlyRegisteredBattery {\r\n        require(_energy >= kWh, \"Wrong energy input require a minimum offer of 1 kWh\");\r\n\r\n        listOfAsks.push(ask({\r\n            consumerID: msg.sender,\r\n            energy: _energy,\r\n            timestamp: block.timestamp,\r\n            day: _day,\r\n            remainingEnergy: _energy\r\n        }));\r\n        askEnergyTrading(listOfAsks[listOfAsks.length-1]);\r\n    }\r\n\r\n    //core function for energy trading (ask case)\r\n    function askEnergyTrading(ask memory _ask) private onlyRegisteredBattery {\r\n        //require(listOfBids.length > 0, \"There is no energy offer\");\r\n\r\n        uint remainingEnergy = _ask.remainingEnergy;\r\n\r\n        for(uint i = 0; i<listOfBids.length; i++){\r\n\r\n            address _prosumerID;\r\n            bool isEnergyPurchased = false;\r\n            uint energyPurchased = 0;\r\n            uint _price = 0;\r\n\r\n            if(listOfBids[i].energy < remainingEnergy){\r\n                _prosumerID = listOfBids[i].prosumerID;\r\n                energyPurchased = listOfBids[i].energy; \r\n                remainingEnergy = remainingEnergy - listOfBids[i].energy;\r\n                listOfAsks[i].remainingEnergy = remainingEnergy;//-----\r\n                _price = listOfBids[i].eprice*energyPurchased; //price per kWh\r\n                listOfBids[i].energy = 0;\r\n\r\n                isEnergyPurchased = true;\r\n\r\n                //remove energy offer from the list if energy is zero\r\n                if (listOfBids.length > 1) {\r\n                    listOfBids[i] = listOfBids[listOfBids.length-1];\r\n                }\r\n                listOfBids.length--;\r\n                i--;//-----\r\n\r\n            }else if(listOfBids[i].energy == remainingEnergy){\r\n                _prosumerID = listOfBids[i].prosumerID;\r\n                energyPurchased = remainingEnergy;\r\n                _price = listOfBids[i].eprice*energyPurchased;\r\n                listOfBids[i].energy = 0;\r\n                remainingEnergy = 0;\r\n\r\n                isEnergyPurchased = true;\r\n\r\n                if (listOfBids.length > 1) {\r\n                    listOfBids[i] = listOfBids[listOfBids.length-1];\r\n                }\r\n                listOfBids.length--;\r\n\r\n            }else{\r\n                _prosumerID = listOfBids[i].prosumerID;\r\n                energyPurchased = remainingEnergy;\r\n                listOfBids[i].energy = listOfBids[i].energy - remainingEnergy;\r\n                _price = listOfBids[i].eprice*energyPurchased;\r\n                remainingEnergy = 0;\r\n\r\n                isEnergyPurchased = true;\r\n            }\r\n\r\n            //store purchase \r\n            if(isEnergyPurchased){\r\n                listOfBuyedEnergy.push(buyedEnergy({\r\n                    consumerID: msg.sender,\r\n                    prosumerID: _prosumerID,\r\n                    energy: energyPurchased,\r\n                    price: _price,\r\n                    day: _ask.day,\r\n                    timestamp: _ask.timestamp\r\n                }));\r\n            }\r\n\r\n            //remove ask request from list \r\n            if(remainingEnergy == 0){\r\n                if (listOfAsks.length > 1){\r\n                    listOfAsks[i] = listOfAsks[listOfAsks.length-1];\r\n                }\r\n                listOfAsks.length--;\r\n                break ;\r\n            }\r\n        }\r\n    }\r\n\r\n    /////Energy trading for bid case \r\n    function bidEnergyTrading(bid memory _bid) private onlyRegisteredBattery {\r\n        uint _remainingBidEnergy = _bid.energy;\r\n\r\n        for(uint i = 0; i<listOfAsks.length; i++){\r\n            \r\n            address _consumerID;\r\n            bool isEnergyPurchased = false;\r\n            uint energyPurchased = 0;\r\n            uint _price = 0;\r\n            if(listOfAsks[i].remainingEnergy < _remainingBidEnergy){\r\n                _consumerID = listOfAsks[i].consumerID;\r\n                energyPurchased = listOfAsks[i].remainingEnergy;\r\n                _remainingBidEnergy = _remainingBidEnergy - energyPurchased;\r\n                listOfBids[i].energy = _remainingBidEnergy;\r\n                _price = _bid.eprice*energyPurchased;\r\n                listOfAsks[i].remainingEnergy = 0;\r\n\r\n                isEnergyPurchased = true;\r\n\r\n                if(listOfAsks.length > 1){\r\n                    listOfAsks[i] = listOfAsks[listOfAsks.length-1];\r\n                }\r\n                listOfAsks.length--;\r\n                i--;\r\n\r\n            }else if(listOfAsks[i].remainingEnergy == _remainingBidEnergy){\r\n                _consumerID = listOfAsks[i].consumerID;\r\n                energyPurchased = _remainingBidEnergy;\r\n                _price = _bid.eprice*energyPurchased;\r\n                _remainingBidEnergy = 0;\r\n                listOfAsks[i].remainingEnergy = 0;\r\n\r\n                isEnergyPurchased = true;\r\n\r\n                if(listOfAsks.length > 1){\r\n                    listOfAsks[i] = listOfAsks[listOfAsks.length-1];\r\n                }\r\n                listOfAsks.length--;\r\n\r\n            }else{\r\n                _consumerID = listOfAsks[i].consumerID;\r\n                energyPurchased = _remainingBidEnergy;\r\n                listOfAsks[i].remainingEnergy = listOfAsks[i].remainingEnergy - energyPurchased;\r\n                _price = _bid.eprice*energyPurchased;\r\n                _remainingBidEnergy = 0;\r\n\r\n                isEnergyPurchased = true;\r\n            }\r\n\r\n            if(isEnergyPurchased){\r\n                listOfBuyedEnergy.push(buyedEnergy({\r\n                    consumerID: _consumerID,\r\n                    prosumerID: msg.sender,\r\n                    energy: energyPurchased,\r\n                    price: _price,\r\n                    day: _bid.day,\r\n                    timestamp: _bid.timestamp\r\n                }));\r\n            }\r\n\r\n            if(_remainingBidEnergy == 0){\r\n                if(listOfBids.length > 1){\r\n                    listOfBids[i] = listOfBids[listOfBids.length-1];\r\n                }\r\n                listOfBids.length--;\r\n                break;\r\n            }\r\n        }\r\n    }\r\n\r\n    //list of all ask energy requests\r\n    function viewAllAsks () public view returns (ask[] memory){\r\n        return listOfAsks;\r\n    }\r\n\r\n    function getCountOfAsks () public view returns (uint count){\r\n        return listOfAsks.length;\r\n    }\r\n\r\n    //view single ask energy request by batteryID\r\n    function getAskByBatteryId (address _consumerID) public view returns (address, uint, uint){\r\n        uint indexA = asks[_consumerID];\r\n        require(listOfAsks.length > indexA, \"Wrong index\");\r\n        require(listOfAsks[indexA].consumerID == _consumerID, \"Wrong Battery Id\");\r\n        return (listOfAsks[indexA].consumerID, listOfAsks[indexA].day, listOfAsks[indexA].energy);\r\n    }\r\n\r\n    //list of all energy purchases\r\n    function viewAllEnergyPurchases () public view returns (buyedEnergy[] memory){\r\n        return listOfBuyedEnergy;\r\n    }\r\n\r\n    //view all bids \r\n    function viewAllBids () public view returns (bid[] memory){\r\n      return listOfBids;\r\n    }\r\n\r\n    function getCountOfBids () public view returns (uint count){\r\n        return listOfBids.length;\r\n    }\r\n\r\n    //view single bid by batteryID\r\n    function getBidByBatteryID (address prosumerID, uint day, uint numberOfBid) public view returns (uint, uint, uint){\r\n        uint index = bids[prosumerID][day][numberOfBid];\r\n        require(listOfBids.length > index, \"Wrong index\");\r\n        require(listOfBids[index].day == day, \"There is no offer on this day\");\r\n        require(listOfBids[index].prosumerID == prosumerID, \"Wrong ID\");\r\n        return (listOfBids[index].numberOfBid, listOfBids[index].day, listOfBids[index].energy);\r\n    }\r\n\r\n    //Functions \"getBidsByLength\" and \"getAsksByLength\" are only for unit test\r\n    function getBidsByLength (uint _idbid) public view returns (address, uint, uint){\r\n        bid storage _bid = listOfBids[_idbid];\r\n        return(_bid.prosumerID, _bid.day, _bid.energy);\r\n    }\r\n\r\n    function getAsksByLength (uint _idask) public view returns (address, uint, uint){\r\n        ask storage _ask = listOfAsks[_idask];\r\n        return(_ask.consumerID, _ask.day, _ask.energy);\r\n    }\r\n}",
  "sourcePath": "C:/Users/Lenovo/projects/ethereum/protergia/blockchain-energy-trading-and-green-energy-certification-thesis-w-protergia/src/contracts/EnergyTrading.sol",
  "compiler": {
    "name": "solc",
    "version": "0.5.16+commit.9c3226ce.Emscripten.clang"
  },
  "schemaVersion": "3.4.1",
  "updatedAt": "2021-07-17T19:11:51.704Z",
  "devdoc": {
    "methods": {}
  },
  "userdoc": {
    "methods": {}
  }
}