{
  "contractName": "batteryRegistry",
  "abi": [
    {
      "constant": false,
      "inputs": [
        {
          "internalType": "string",
          "name": "nameOfBatteryOwner",
          "type": "string"
        },
        {
          "internalType": "uint32",
          "name": "date",
          "type": "uint32"
        }
      ],
      "name": "addNewBattery",
      "outputs": [],
      "payable": false,
      "stateMutability": "nonpayable",
      "type": "function"
    },
    {
      "constant": true,
      "inputs": [],
      "name": "viewAllBatteries",
      "outputs": [
        {
          "components": [
            {
              "internalType": "address",
              "name": "batteryID",
              "type": "address"
            },
            {
              "internalType": "string",
              "name": "nameOfBatteryOwner",
              "type": "string"
            },
            {
              "internalType": "uint32",
              "name": "date",
              "type": "uint32"
            },
            {
              "internalType": "bool",
              "name": "isExist",
              "type": "bool"
            }
          ],
          "internalType": "struct batteryRegistry.battery[]",
          "name": "",
          "type": "tuple[]"
        }
      ],
      "payable": false,
      "stateMutability": "view",
      "type": "function"
    },
    {
      "constant": false,
      "inputs": [
        {
          "internalType": "address",
          "name": "batteryID",
          "type": "address"
        },
        {
          "internalType": "string",
          "name": "nameOfBatteryOwner",
          "type": "string"
        }
      ],
      "name": "updateBattery",
      "outputs": [],
      "payable": false,
      "stateMutability": "nonpayable",
      "type": "function"
    },
    {
      "constant": true,
      "inputs": [
        {
          "internalType": "address",
          "name": "batteryID",
          "type": "address"
        }
      ],
      "name": "getBatteryByID",
      "outputs": [
        {
          "internalType": "address",
          "name": "",
          "type": "address"
        },
        {
          "internalType": "string",
          "name": "",
          "type": "string"
        },
        {
          "internalType": "uint32",
          "name": "",
          "type": "uint32"
        }
      ],
      "payable": false,
      "stateMutability": "view",
      "type": "function"
    }
  ],
  "bytecode": "0x6080604052336000806101000a81548173ffffffffffffffffffffffffffffffffffffffff021916908373ffffffffffffffffffffffffffffffffffffffff160217905550610ff1806100536000396000f3fe608060405234801561001057600080fd5b506004361061004c5760003560e01c806386b6c85a14610051578063b47c77411461006d578063c9fb85781461008b578063eefa716b146100bd575b600080fd5b61006b60048036036100669190810190610ad2565b6100d9565b005b6100756103bb565b6040516100829190610db3565b60405180910390f35b6100a560048036036100a09190810190610a55565b610553565b6040516100b493929190610d75565b60405180910390f35b6100d760048036036100d29190810190610a7e565b6106fa565b005b60001515600160003373ffffffffffffffffffffffffffffffffffffffff1673ffffffffffffffffffffffffffffffffffffffff16815260200190815260200160002060020160049054906101000a900460ff1615151461016f576040517f08c379a000000000000000000000000000000000000000000000000000000000815260040161016690610df5565b60405180910390fd5b60405180608001604052803373ffffffffffffffffffffffffffffffffffffffff1681526020018381526020018263ffffffff16815260200160011515815250600160003373ffffffffffffffffffffffffffffffffffffffff1673ffffffffffffffffffffffffffffffffffffffff16815260200190815260200160002060008201518160000160006101000a81548173ffffffffffffffffffffffffffffffffffffffff021916908373ffffffffffffffffffffffffffffffffffffffff16021790555060208201518160010190805190602001906102519291906108b2565b5060408201518160020160006101000a81548163ffffffff021916908363ffffffff16021790555060608201518160020160046101000a81548160ff021916908315150217905550905050600260405180608001604052803373ffffffffffffffffffffffffffffffffffffffff1681526020018481526020018363ffffffff168152602001600115158152509080600181540180825580915050906001820390600052602060002090600302016000909192909190915060008201518160000160006101000a81548173ffffffffffffffffffffffffffffffffffffffff021916908373ffffffffffffffffffffffffffffffffffffffff160217905550602082015181600101908051906020019061036c9291906108b2565b5060408201518160020160006101000a81548163ffffffff021916908363ffffffff16021790555060608201518160020160046101000a81548160ff0219169083151502179055505050505050565b60606002805480602002602001604051908101604052809291908181526020016000905b8282101561054a57838290600052602060002090600302016040518060800160405290816000820160009054906101000a900473ffffffffffffffffffffffffffffffffffffffff1673ffffffffffffffffffffffffffffffffffffffff1673ffffffffffffffffffffffffffffffffffffffff168152602001600182018054600181600116156101000203166002900480601f0160208091040260200160405190810160405280929190818152602001828054600181600116156101000203166002900480156104f15780601f106104c6576101008083540402835291602001916104f1565b820191906000526020600020905b8154815290600101906020018083116104d457829003601f168201915b505050505081526020016002820160009054906101000a900463ffffffff1663ffffffff1663ffffffff1681526020016002820160049054906101000a900460ff161515151581525050815260200190600101906103df565b50505050905090565b600060606000600160008573ffffffffffffffffffffffffffffffffffffffff1673ffffffffffffffffffffffffffffffffffffffff16815260200190815260200160002060000160009054906101000a900473ffffffffffffffffffffffffffffffffffffffff16600160008673ffffffffffffffffffffffffffffffffffffffff1673ffffffffffffffffffffffffffffffffffffffff168152602001908152602001600020600101600160008773ffffffffffffffffffffffffffffffffffffffff1673ffffffffffffffffffffffffffffffffffffffff16815260200190815260200160002060020160009054906101000a900463ffffffff16818054600181600116156101000203166002900480601f0160208091040260200160405190810160405280929190818152602001828054600181600116156101000203166002900480156106e65780601f106106bb576101008083540402835291602001916106e6565b820191906000526020600020905b8154815290600101906020018083116106c957829003601f168201915b505050505091509250925092509193909250565b60011515600160003373ffffffffffffffffffffffffffffffffffffffff1673ffffffffffffffffffffffffffffffffffffffff16815260200190815260200160002060020160049054906101000a900460ff16151514610790576040517f08c379a000000000000000000000000000000000000000000000000000000000815260040161078790610dd5565b60405180910390fd5b60008090505b6002805490508110156108ad578273ffffffffffffffffffffffffffffffffffffffff16600282815481106107c757fe5b906000526020600020906003020160000160009054906101000a900473ffffffffffffffffffffffffffffffffffffffff1673ffffffffffffffffffffffffffffffffffffffff1614156108a057816002828154811061082357fe5b90600052602060002090600302016001019080519060200190610847929190610932565b5081600160008573ffffffffffffffffffffffffffffffffffffffff1673ffffffffffffffffffffffffffffffffffffffff168152602001908152602001600020600101908051906020019061089e929190610932565b505b8080600101915050610796565b505050565b828054600181600116156101000203166002900490600052602060002090601f016020900481019282601f106108f357805160ff1916838001178555610921565b82800160010185558215610921579182015b82811115610920578251825591602001919060010190610905565b5b50905061092e91906109b2565b5090565b828054600181600116156101000203166002900490600052602060002090601f016020900481019282601f1061097357805160ff19168380011785556109a1565b828001600101855582156109a1579182015b828111156109a0578251825591602001919060010190610985565b5b5090506109ae91906109b2565b5090565b6109d491905b808211156109d05760008160009055506001016109b8565b5090565b90565b6000813590506109e681610f80565b92915050565b600082601f8301126109fd57600080fd5b8135610a10610a0b82610e42565b610e15565b91508082526020830160208301858383011115610a2c57600080fd5b610a37838284610f2d565b50505092915050565b600081359050610a4f81610f97565b92915050565b600060208284031215610a6757600080fd5b6000610a75848285016109d7565b91505092915050565b60008060408385031215610a9157600080fd5b6000610a9f858286016109d7565b925050602083013567ffffffffffffffff811115610abc57600080fd5b610ac8858286016109ec565b9150509250929050565b60008060408385031215610ae557600080fd5b600083013567ffffffffffffffff811115610aff57600080fd5b610b0b858286016109ec565b9250506020610b1c85828601610a40565b9150509250929050565b6000610b328383610cf4565b905092915050565b610b4381610edf565b82525050565b610b5281610edf565b82525050565b6000610b6382610e7e565b610b6d8185610eac565b935083602082028501610b7f85610e6e565b8060005b85811015610bbb5784840389528151610b9c8582610b26565b9450610ba783610e9f565b925060208a01995050600181019050610b83565b50829750879550505050505092915050565b610bd681610ef1565b82525050565b6000610be782610e94565b610bf18185610ece565b9350610c01818560208601610f3c565b610c0a81610f6f565b840191505092915050565b6000610c2082610e89565b610c2a8185610ebd565b9350610c3a818560208601610f3c565b610c4381610f6f565b840191505092915050565b6000610c5b602583610ece565b91507f4f6e6c792072656769737465726564206261747465726965732068617665206160008301527f63636573730000000000000000000000000000000000000000000000000000006020830152604082019050919050565b6000610cc1601d83610ece565b91507f426174746572792064657461696c7320616c72656164792061646465640000006000830152602082019050919050565b6000608083016000830151610d0c6000860182610b3a565b5060208301518482036020860152610d248282610c15565b9150506040830151610d396040860182610d57565b506060830151610d4c6060860182610bcd565b508091505092915050565b610d6081610f1d565b82525050565b610d6f81610f1d565b82525050565b6000606082019050610d8a6000830186610b49565b8181036020830152610d9c8185610bdc565b9050610dab6040830184610d66565b949350505050565b60006020820190508181036000830152610dcd8184610b58565b905092915050565b60006020820190508181036000830152610dee81610c4e565b9050919050565b60006020820190508181036000830152610e0e81610cb4565b9050919050565b6000604051905081810181811067ffffffffffffffff82111715610e3857600080fd5b8060405250919050565b600067ffffffffffffffff821115610e5957600080fd5b601f19601f8301169050602081019050919050565b6000819050602082019050919050565b600081519050919050565b600081519050919050565b600081519050919050565b6000602082019050919050565b600082825260208201905092915050565b600082825260208201905092915050565b600082825260208201905092915050565b6000610eea82610efd565b9050919050565b60008115159050919050565b600073ffffffffffffffffffffffffffffffffffffffff82169050919050565b600063ffffffff82169050919050565b82818337600083830152505050565b60005b83811015610f5a578082015181840152602081019050610f3f565b83811115610f69576000848401525b50505050565b6000601f19601f8301169050919050565b610f8981610edf565b8114610f9457600080fd5b50565b610fa081610f1d565b8114610fab57600080fd5b5056fea365627a7a72315820e525ef12f278e8f9bb1f7174afe372bdb2c50dfa750a62103135792494e92d906c6578706572696d656e74616cf564736f6c63430005100040",
  "source": "pragma solidity >=0.4.21 <0.7.0;\r\npragma experimental ABIEncoderV2;\r\n\r\n/********owned Contract********/\r\n//Create a contract owner\r\ncontract owned {\r\n    \r\n    address owner;\r\n    \r\n    constructor() public {\r\n        owner = msg.sender;\r\n    }\r\n    \r\n    modifier onlyOwner {\r\n        require(msg.sender == owner, \"Only owner can call this function.\");\r\n         _;\r\n    }\r\n}\r\n\r\n/********batteryRegistry Contract********/\r\n//Contract that allows battery address to be registered\r\ncontract batteryRegistry is owned {\r\n\r\n    struct battery {\r\n        address batteryID;            //batteryID is Owner of battery ethereum address\r\n        string nameOfBatteryOwner;    //Name of battery owner \r\n        uint32 date;                  //Creation date\r\n        bool isExist;                 //Check if battery exist into addNewBattery function\r\n    }\r\n\r\n    //mapping address as key to struct battery with mapping name batteries\r\n    mapping (address => battery) batteries;\r\n    battery[] listOfBatteries;\r\n\r\n    modifier onlyRegisteredBattery{\r\n         require(batteries[msg.sender].isExist==true, \"Only registered batteries have access\");\r\n         _;\r\n     }\r\n\r\n    //add a battery by eth account address\r\n    function addNewBattery (string memory nameOfBatteryOwner, uint32 date) public {\r\n        require(batteries[msg.sender].isExist==false, \"Battery details already added\");\r\n        batteries[msg.sender] = battery(msg.sender, nameOfBatteryOwner, date, true);\r\n\r\n        listOfBatteries.push(battery({\r\n            batteryID: msg.sender,\r\n            nameOfBatteryOwner: nameOfBatteryOwner,\r\n            date: date,\r\n            isExist: true\r\n            }));\r\n    }\r\n\r\n    //to view all batteries\r\n    function viewAllBatteries () public view returns (battery[] memory) {\r\n        return listOfBatteries;\r\n    }\r\n\r\n    //change details of a battery\r\n    function updateBattery(address batteryID, string memory nameOfBatteryOwner) public onlyRegisteredBattery {\r\n        for(uint i = 0; i<listOfBatteries.length; i++){\r\n            if(listOfBatteries[i].batteryID == batteryID){\r\n                listOfBatteries[i].nameOfBatteryOwner = nameOfBatteryOwner;\r\n                batteries[batteryID].nameOfBatteryOwner = nameOfBatteryOwner;\r\n            }\r\n        }\r\n    }\r\n\r\n    //view single battery by battery id\r\n    function getBatteryByID(address batteryID) public view returns (address, string memory, uint32){\r\n        return (batteries[batteryID].batteryID, batteries[batteryID].nameOfBatteryOwner, batteries[batteryID].date);\r\n    }\r\n}\r\n\r\n/********energyBid Contract********/\r\n//Contract for energy offers from current batteries\r\ncontract energyBid is owned, batteryRegistry {\r\n\r\n    //event offerEnergyMade(address indexed sellerBatteryID, uint32 indexed day, uint32 indexed price, uint64 energy);\r\n    //event askEnergyMade(address indexed sellerBatteryID, uint64 energy, uint32 day);\r\n    //event buyEnergyMade(address indexed sellerBatteryID, uint32 indexed day, uint32 price, uint64 energy, address indexed batteryID);\r\n\r\n    uint64 constant mWh = 1;\r\n    uint64 constant Wh = 1000 * mWh;\r\n    uint64 constant kWh = 1000 * Wh;\r\n    uint64 constant MWh = 1000 * kWh;\r\n    uint64 constant GWh = 1000 * MWh;\r\n    uint64 constant TWh = 1000 * GWh;\r\n\r\n    struct bid{\r\n        address sellerBatteryID;    //battery public key\r\n        uint numberOfBid;           //A battery can create more than one energy offer\r\n        uint32 day;                 //day for which the offer is valid\r\n        uint32 price;               //price vs market price\r\n        uint64 energy;              //energy to trade\r\n        uint64 timestamp;           //timestamp for when the bid was created\r\n        address askBatteryID;       //battery id from registered battery (consumer)\r\n        uint nextNumberOfAsk;\r\n        string status;\r\n    }\r\n    \r\n    struct ask {\r\n        address askBatteryID;    //battery id from prosumer \r\n        uint numberOfAsk;\r\n        uint32 day;\r\n        uint64 energy;\r\n        uint64 timestamp;\r\n    }\r\n    \r\n    mapping(address => mapping(uint32 => mapping(uint=> uint))) asks; \r\n    ask[] listOfAsks;\r\n    uint nextNumberOfAsk;\r\n\r\n    mapping(address => mapping(uint32 => mapping(uint=> uint))) bids;\r\n    bid[] listOfBids;\r\n    bid[] listOfBuyedBids;\r\n    uint nextNumberOfBid;             \r\n\r\n    function askEnergy(uint32 _day, uint64 _energy, uint64 _timestamp) public onlyRegisteredBattery{\r\n        require(batteries[msg.sender].isExist==true, \"Battery details are not exist\");\r\n        require(_energy >= kWh, \"Wrong energy input require a minimum offer of 1 kWh (1.000.000mWh)\");\r\n\r\n        uint indexA = asks[msg.sender][_day][nextNumberOfAsk];\r\n\r\n        indexA = listOfAsks.length;\r\n        asks[msg.sender][_day][nextNumberOfAsk] = indexA;\r\n        listOfAsks.push(ask({\r\n            askBatteryID: msg.sender,\r\n            numberOfAsk: nextNumberOfAsk,\r\n            day: _day,\r\n            energy: _energy,\r\n            timestamp: _timestamp\r\n        }));\r\n        nextNumberOfAsk++;\r\n    }                              \r\n\r\n    //create energy offer \r\n    //There is a minimum energy requirement \r\n    //Only registered batteries can use this function\r\n    function energyOffer(uint32 _day, uint32 _price, uint64 _energy, uint64 _timestamp, address _askBatteryID, string memory _status) public onlyRegisteredBattery{\r\n        require(batteries[msg.sender].isExist==true, \"Battery details are not exist\");\r\n        require(_energy >= kWh, \"Wrong energy input require a minimum offer of 1 kWh (1.000.000mWh)\");\r\n        uint index = bids[msg.sender][_day][nextNumberOfBid];\r\n\r\n        index = listOfBids.length;\r\n        bids[msg.sender][_day][nextNumberOfBid] = index;\r\n        listOfBids.push(bid({\r\n            sellerBatteryID: msg.sender,\r\n            numberOfBid: nextNumberOfBid,\r\n            day: _day,\r\n            price: _price,\r\n            energy: _energy,\r\n            timestamp: _timestamp,\r\n            askBatteryID: _askBatteryID,\r\n            nextNumberOfAsk: nextNumberOfAsk,\r\n            status: _status\r\n        }));\r\n        nextNumberOfBid++;\r\n    }\r\n\r\n    //Ask and buy energy \r\n    //There is a minimum energy requirement \r\n    //Only registered batteries can use this function\r\n    function dealEnergy(address _sellerBatteryID, uint32 _day, uint32 _price, uint64 _energy, uint64 _timestamp, uint _numberOfAsk, string memory _status) public onlyRegisteredBattery returns(uint){\r\n        require(batteries[msg.sender].isExist==true, \"Battery details are not exist\");\r\n        require(_energy >= kWh, \"Require a minimum ask energy of 1 kWh (1.000.000mWh)\");\r\n        uint index = bids[_sellerBatteryID][_day][nextNumberOfBid];\r\n        uint indexA = asks[msg.sender][_day][_numberOfAsk];\r\n\r\n        for(uint i = index; i<listOfBids.length-1; i++){\r\n            if((listOfBids[i].price == _price) && (listOfBids[i].day == _day) && (listOfBids[i].sellerBatteryID == _sellerBatteryID)){\r\n\r\n                bids[_sellerBatteryID][_day][nextNumberOfBid] = listOfBuyedBids.length;\r\n                listOfBuyedBids.push(bid({\r\n                    sellerBatteryID: _sellerBatteryID,\r\n                    numberOfBid: nextNumberOfBid,\r\n                    day: _day,\r\n                    price: _price,\r\n                    energy: _energy,\r\n                    timestamp: _timestamp,\r\n                    askBatteryID: msg.sender,\r\n                    nextNumberOfAsk: nextNumberOfAsk,\r\n                    status: _status\r\n                }));\r\n            }else{\r\n                revert();\r\n            }\r\n        }\r\n    }\r\n\r\n    //list of all ask energy requests\r\n    function viewAllAsks () public view returns (ask[] memory){\r\n        return listOfAsks;\r\n    }\r\n\r\n    //view single ask energy request by batteryID\r\n    function getAskByIdAndDay (address askBatteryID, uint32 day, uint numberOfAsk) public view returns (uint, uint32, uint64){\r\n        uint indexA = asks[askBatteryID][day][numberOfAsk];\r\n        require(listOfAsks.length > indexA, \"Wrong index\");\r\n        require(listOfAsks[indexA].day == day, \"There is no offer on this day\");\r\n        require(listOfAsks[indexA].askBatteryID == askBatteryID, \"Wrong Battery Id\");\r\n        return (listOfAsks[indexA].numberOfAsk, listOfAsks[indexA].day, listOfAsks[indexA].energy);\r\n    }\r\n\r\n    //view all bids \r\n    function viewAllBids () public view returns (bid[] memory){\r\n        return listOfBids;\r\n    }\r\n\r\n    function viewAllBuyedBids () public view returns (bid[] memory){\r\n        return listOfBuyedBids;\r\n    }\r\n\r\n    //view single bid by batteryID\r\n    function getBidByIdAndDay (address batteryID, uint32 day, uint numberOfBid) public view returns (uint, uint32, uint32, uint64){\r\n        uint index = bids[batteryID][day][numberOfBid];\r\n        require(listOfBids.length > index, \"Wrong index\");\r\n        require(listOfBids[index].day == day, \"There is no offer on this day\");\r\n        require(listOfBids[index].sellerBatteryID == batteryID, \"Wrong ID\");\r\n        return (listOfBids[index].numberOfBid, listOfBids[index].day, listOfBids[index].price, listOfBids[index].energy);\r\n    }\r\n}",
  "sourcePath": "C:/Users/Lenovo/projects/ethereum/protergia/blockchain-energy-trading-and-green-energy-certification-thesis-w-protergia/src/contracts/Battery.sol",
  "compiler": {
    "name": "solc",
    "version": "0.5.16+commit.9c3226ce.Emscripten.clang"
  },
  "schemaVersion": "3.3.4",
  "updatedAt": "2021-05-24T13:34:05.638Z",
  "devdoc": {
    "methods": {}
  },
  "userdoc": {
    "methods": {},
    "notice": "******batteryRegistry Contract*******"
  }
}