{
  "contractName": "Battery",
  "abi": [
    {
      "inputs": [
        {
          "internalType": "address",
          "name": "batteryId",
          "type": "address"
        },
        {
          "internalType": "string",
          "name": "name",
          "type": "string"
        },
        {
          "internalType": "uint256",
          "name": "batteryData",
          "type": "uint256"
        }
      ],
      "payable": false,
      "stateMutability": "nonpayable",
      "type": "constructor"
    },
    {
      "constant": true,
      "inputs": [
        {
          "internalType": "uint256",
          "name": "",
          "type": "uint256"
        }
      ],
      "name": "listOfbatteries",
      "outputs": [
        {
          "internalType": "address",
          "name": "batteryId",
          "type": "address"
        },
        {
          "internalType": "string",
          "name": "name",
          "type": "string"
        },
        {
          "internalType": "uint256",
          "name": "batteryData",
          "type": "uint256"
        },
        {
          "internalType": "bool",
          "name": "isexist",
          "type": "bool"
        }
      ],
      "payable": false,
      "stateMutability": "view",
      "type": "function"
    },
    {
      "constant": true,
      "inputs": [],
      "name": "owner",
      "outputs": [
        {
          "internalType": "address",
          "name": "",
          "type": "address"
        }
      ],
      "payable": false,
      "stateMutability": "view",
      "type": "function"
    },
    {
      "constant": false,
      "inputs": [
        {
          "internalType": "address",
          "name": "batteryId",
          "type": "address"
        },
        {
          "internalType": "string",
          "name": "name",
          "type": "string"
        },
        {
          "internalType": "uint256",
          "name": "batteryData",
          "type": "uint256"
        }
      ],
      "name": "addNewBattery",
      "outputs": [
        {
          "internalType": "bool",
          "name": "",
          "type": "bool"
        }
      ],
      "payable": false,
      "stateMutability": "nonpayable",
      "type": "function"
    },
    {
      "constant": true,
      "inputs": [],
      "name": "showAllBatteries",
      "outputs": [
        {
          "components": [
            {
              "internalType": "address",
              "name": "batteryId",
              "type": "address"
            },
            {
              "internalType": "string",
              "name": "name",
              "type": "string"
            },
            {
              "internalType": "uint256",
              "name": "batteryData",
              "type": "uint256"
            },
            {
              "internalType": "bool",
              "name": "isexist",
              "type": "bool"
            }
          ],
          "internalType": "struct Battery.battery[]",
          "name": "",
          "type": "tuple[]"
        }
      ],
      "payable": false,
      "stateMutability": "view",
      "type": "function"
    },
    {
      "constant": true,
      "inputs": [
        {
          "internalType": "address",
          "name": "batteryId",
          "type": "address"
        }
      ],
      "name": "getBatteryDetails",
      "outputs": [
        {
          "internalType": "address",
          "name": "",
          "type": "address"
        },
        {
          "internalType": "string",
          "name": "",
          "type": "string"
        },
        {
          "internalType": "uint256",
          "name": "",
          "type": "uint256"
        }
      ],
      "payable": false,
      "stateMutability": "view",
      "type": "function"
    }
  ],
  "bytecode": "0x60806040523480156200001157600080fd5b50604051620015d9380380620015d9833981810160405262000037919081019062000498565b336000806101000a81548173ffffffffffffffffffffffffffffffffffffffff021916908373ffffffffffffffffffffffffffffffffffffffff160217905550336000806101000a81548173ffffffffffffffffffffffffffffffffffffffff021916908373ffffffffffffffffffffffffffffffffffffffff16021790555060001515600160008573ffffffffffffffffffffffffffffffffffffffff1673ffffffffffffffffffffffffffffffffffffffff16815260200190815260200160002060030160009054906101000a900460ff1615151462000150576040517f08c379a0000000000000000000000000000000000000000000000000000000008152600401620001479062000549565b60405180910390fd5b60405180608001604052808473ffffffffffffffffffffffffffffffffffffffff16815260200183815260200182815260200160011515815250600160008573ffffffffffffffffffffffffffffffffffffffff1673ffffffffffffffffffffffffffffffffffffffff16815260200190815260200160002060008201518160000160006101000a81548173ffffffffffffffffffffffffffffffffffffffff021916908373ffffffffffffffffffffffffffffffffffffffff16021790555060208201518160010190805190602001906200022e9291906200035f565b506040820151816002015560608201518160030160006101000a81548160ff021916908315150217905550905050600260405180608001604052808573ffffffffffffffffffffffffffffffffffffffff168152602001848152602001838152602001600115158152509080600181540180825580915050906001820390600052602060002090600402016000909192909190915060008201518160000160006101000a81548173ffffffffffffffffffffffffffffffffffffffff021916908373ffffffffffffffffffffffffffffffffffffffff1602179055506020820151816001019080519060200190620003289291906200035f565b506040820151816002015560608201518160030160006101000a81548160ff0219169083151502179055505050505050506200067f565b828054600181600116156101000203166002900490600052602060002090601f016020900481019282601f10620003a257805160ff1916838001178555620003d3565b82800160010185558215620003d3579182015b82811115620003d2578251825591602001919060010190620003b5565b5b509050620003e29190620003e6565b5090565b6200040b91905b8082111562000407576000816000905550600101620003ed565b5090565b90565b6000815190506200041f816200064b565b92915050565b600082601f8301126200043757600080fd5b81516200044e620004488262000599565b6200056b565b915080825260208301602083018583830111156200046b57600080fd5b6200047883828462000615565b50505092915050565b600081519050620004928162000665565b92915050565b600080600060608486031215620004ae57600080fd5b6000620004be868287016200040e565b935050602084015167ffffffffffffffff811115620004dc57600080fd5b620004ea8682870162000425565b9250506040620004fd8682870162000481565b9150509250925092565b600062000516601d83620005c6565b91507f426174746572792064657461696c7320616c72656164792061646465640000006000830152602082019050919050565b60006020820190508181036000830152620005648162000507565b9050919050565b6000604051905081810181811067ffffffffffffffff821117156200058f57600080fd5b8060405250919050565b600067ffffffffffffffff821115620005b157600080fd5b601f19601f8301169050602081019050919050565b600082825260208201905092915050565b6000620005e482620005eb565b9050919050565b600073ffffffffffffffffffffffffffffffffffffffff82169050919050565b6000819050919050565b60005b838110156200063557808201518184015260208101905062000618565b8381111562000645576000848401525b50505050565b6200065681620005d7565b81146200066257600080fd5b50565b62000670816200060b565b81146200067c57600080fd5b50565b610f4a806200068f6000396000f3fe608060405234801561001057600080fd5b50600436106100575760003560e01c80634b927f691461005c5780638da5cb5b1461008f57806396d6979e146100ad5780639cf42c97146100dd578063a496b7ed1461010f575b600080fd5b61007660048036036100719190810190610a18565b61012d565b6040516100869493929190610ccb565b60405180910390f35b61009761022f565b6040516100a49190610c72565b60405180910390f35b6100c760048036036100c291908101906109b1565b610254565b6040516100d49190610d39565b60405180910390f35b6100f760048036036100f29190810190610988565b610552565b60405161010693929190610c8d565b60405180910390f35b6101176106e9565b6040516101249190610d17565b60405180910390f35b6002818154811061013a57fe5b90600052602060002090600402016000915090508060000160009054906101000a900473ffffffffffffffffffffffffffffffffffffffff1690806001018054600181600116156101000203166002900480601f01602080910402602001604051908101604052809291908181526020018280546001816001161561010002031660029004801561020c5780601f106101e15761010080835404028352916020019161020c565b820191906000526020600020905b8154815290600101906020018083116101ef57829003601f168201915b5050505050908060020154908060030160009054906101000a900460ff16905084565b6000809054906101000a900473ffffffffffffffffffffffffffffffffffffffff1681565b60008060009054906101000a900473ffffffffffffffffffffffffffffffffffffffff1673ffffffffffffffffffffffffffffffffffffffff163373ffffffffffffffffffffffffffffffffffffffff16146102af57600080fd5b60001515600160008673ffffffffffffffffffffffffffffffffffffffff1673ffffffffffffffffffffffffffffffffffffffff16815260200190815260200160002060030160009054906101000a900460ff16151514610345576040517f08c379a000000000000000000000000000000000000000000000000000000000815260040161033c90610d54565b60405180910390fd5b60405180608001604052808573ffffffffffffffffffffffffffffffffffffffff16815260200184815260200183815260200160011515815250600160008673ffffffffffffffffffffffffffffffffffffffff1673ffffffffffffffffffffffffffffffffffffffff16815260200190815260200160002060008201518160000160006101000a81548173ffffffffffffffffffffffffffffffffffffffff021916908373ffffffffffffffffffffffffffffffffffffffff1602179055506020820151816001019080519060200190610421929190610865565b506040820151816002015560608201518160030160006101000a81548160ff021916908315150217905550905050600260405180608001604052808673ffffffffffffffffffffffffffffffffffffffff168152602001858152602001848152602001600115158152509080600181540180825580915050906001820390600052602060002090600402016000909192909190915060008201518160000160006101000a81548173ffffffffffffffffffffffffffffffffffffffff021916908373ffffffffffffffffffffffffffffffffffffffff1602179055506020820151816001019080519060200190610519929190610865565b506040820151816002015560608201518160030160006101000a81548160ff021916908315150217905550505050600190509392505050565b600060606000600160008573ffffffffffffffffffffffffffffffffffffffff1673ffffffffffffffffffffffffffffffffffffffff16815260200190815260200160002060000160009054906101000a900473ffffffffffffffffffffffffffffffffffffffff16600160008673ffffffffffffffffffffffffffffffffffffffff1673ffffffffffffffffffffffffffffffffffffffff168152602001908152602001600020600101600160008773ffffffffffffffffffffffffffffffffffffffff1673ffffffffffffffffffffffffffffffffffffffff16815260200190815260200160002060020154818054600181600116156101000203166002900480601f0160208091040260200160405190810160405280929190818152602001828054600181600116156101000203166002900480156106d55780601f106106aa576101008083540402835291602001916106d5565b820191906000526020600020905b8154815290600101906020018083116106b857829003601f168201915b505050505091509250925092509193909250565b60606002805480602002602001604051908101604052809291908181526020016000905b8282101561085c57838290600052602060002090600402016040518060800160405290816000820160009054906101000a900473ffffffffffffffffffffffffffffffffffffffff1673ffffffffffffffffffffffffffffffffffffffff1673ffffffffffffffffffffffffffffffffffffffff168152602001600182018054600181600116156101000203166002900480601f01602080910402602001604051908101604052809291908181526020018280546001816001161561010002031660029004801561081f5780601f106107f45761010080835404028352916020019161081f565b820191906000526020600020905b81548152906001019060200180831161080257829003601f168201915b50505050508152602001600282015481526020016003820160009054906101000a900460ff1615151515815250508152602001906001019061070d565b50505050905090565b828054600181600116156101000203166002900490600052602060002090601f016020900481019282601f106108a657805160ff19168380011785556108d4565b828001600101855582156108d4579182015b828111156108d35782518255916020019190600101906108b8565b5b5090506108e191906108e5565b5090565b61090791905b808211156109035760008160009055506001016108eb565b5090565b90565b60008135905061091981610ed9565b92915050565b600082601f83011261093057600080fd5b813561094361093e82610da1565b610d74565b9150808252602083016020830185838301111561095f57600080fd5b61096a838284610e86565b50505092915050565b60008135905061098281610ef0565b92915050565b60006020828403121561099a57600080fd5b60006109a88482850161090a565b91505092915050565b6000806000606084860312156109c657600080fd5b60006109d48682870161090a565b935050602084013567ffffffffffffffff8111156109f157600080fd5b6109fd8682870161091f565b9250506040610a0e86828701610973565b9150509250925092565b600060208284031215610a2a57600080fd5b6000610a3884828501610973565b91505092915050565b6000610a4d8383610bf1565b905092915050565b610a5e81610e3e565b82525050565b610a6d81610e3e565b82525050565b6000610a7e82610ddd565b610a888185610e0b565b935083602082028501610a9a85610dcd565b8060005b85811015610ad65784840389528151610ab78582610a41565b9450610ac283610dfe565b925060208a01995050600181019050610a9e565b50829750879550505050505092915050565b610af181610e50565b82525050565b610b0081610e50565b82525050565b6000610b1182610df3565b610b1b8185610e2d565b9350610b2b818560208601610e95565b610b3481610ec8565b840191505092915050565b6000610b4a82610de8565b610b548185610e1c565b9350610b64818560208601610e95565b610b6d81610ec8565b840191505092915050565b6000610b8382610de8565b610b8d8185610e2d565b9350610b9d818560208601610e95565b610ba681610ec8565b840191505092915050565b6000610bbe601d83610e2d565b91507f426174746572792064657461696c7320616c72656164792061646465640000006000830152602082019050919050565b6000608083016000830151610c096000860182610a55565b5060208301518482036020860152610c218282610b3f565b9150506040830151610c366040860182610c54565b506060830151610c496060860182610ae8565b508091505092915050565b610c5d81610e7c565b82525050565b610c6c81610e7c565b82525050565b6000602082019050610c876000830184610a64565b92915050565b6000606082019050610ca26000830186610a64565b8181036020830152610cb48185610b06565b9050610cc36040830184610c63565b949350505050565b6000608082019050610ce06000830187610a64565b8181036020830152610cf28186610b78565b9050610d016040830185610c63565b610d0e6060830184610af7565b95945050505050565b60006020820190508181036000830152610d318184610a73565b905092915050565b6000602082019050610d4e6000830184610af7565b92915050565b60006020820190508181036000830152610d6d81610bb1565b9050919050565b6000604051905081810181811067ffffffffffffffff82111715610d9757600080fd5b8060405250919050565b600067ffffffffffffffff821115610db857600080fd5b601f19601f8301169050602081019050919050565b6000819050602082019050919050565b600081519050919050565b600081519050919050565b600081519050919050565b6000602082019050919050565b600082825260208201905092915050565b600082825260208201905092915050565b600082825260208201905092915050565b6000610e4982610e5c565b9050919050565b60008115159050919050565b600073ffffffffffffffffffffffffffffffffffffffff82169050919050565b6000819050919050565b82818337600083830152505050565b60005b83811015610eb3578082015181840152602081019050610e98565b83811115610ec2576000848401525b50505050565b6000601f19601f8301169050919050565b610ee281610e3e565b8114610eed57600080fd5b50565b610ef981610e7c565b8114610f0457600080fd5b5056fea365627a7a723158206a6655a76e1a2762d662018ff969db432e14461baf7ef4833aae3fcd2c12e0e06c6578706572696d656e74616cf564736f6c63430005100040",
  "source": "pragma solidity >=0.4.21 <0.7.0;\r\npragma experimental ABIEncoderV2;\r\n\r\nimport \"./Owned.sol\";\r\n\r\n/*Battery Management Smart Contract*/\r\n\r\ncontract Battery is Owned {\r\n\r\n    //address public owner;\r\n\r\n    mapping (address => battery) batteries; //mapping \"string\" address as key to struct battery with mapping name batteries\r\n    \r\n    //assigning the contract AddBattery as the owner\r\n    //a modifier onlyOwner is created to limit the access to function AddNewBattery to contract AddBattery\r\n    /*constructor() public{\r\n        owner=msg.sender;\r\n    }*/\r\n\r\n    struct battery{\r\n        address batteryId; //batteryId is battery's ethereum address\r\n        string name;\r\n        uint batteryData;\r\n        bool isexist;\r\n    }\r\n\r\n    battery[] public listOfbatteries;\r\n\r\n    //assigning the battery details to a key (batteryId)\r\n    constructor (address batteryId, string memory name, uint batteryData) public {\r\n        owner=msg.sender;\r\n        require(batteries[batteryId].isexist==false, \"Battery details already added\");\r\n        batteries[batteryId] = battery(batteryId, name, batteryData, true);\r\n        listOfbatteries.push(battery(batteryId, name, batteryData, true));\r\n    }\r\n\r\n    /*modifier onlyRegisteredBattery{\r\n        require(msg.sender==onlyregisteredbattery);\r\n        _;\r\n    }*/\r\n\r\n    function addNewBattery (address batteryId, string memory name, uint batteryData) public onlyOwner returns(bool) {\r\n        require(batteries[batteryId].isexist==false, \"Battery details already added\");\r\n        batteries[batteryId] = battery(batteryId, name, batteryData, true);\r\n        listOfbatteries.push(battery(batteryId, name, batteryData, true));\r\n        return true;\r\n    }\r\n\r\n    function showAllBatteries () public view returns (battery[] memory){\r\n        return listOfbatteries;\r\n    }\r\n\r\n    //function to get the details of a battery when batteryId is given\r\n    //returning battery's eth address and id of battery to corresponding key\r\n    function getBatteryDetails(address batteryId) public view returns (address, string memory, uint){\r\n        return (batteries[batteryId].batteryId, batteries[batteryId].name, batteries[batteryId].batteryData);\r\n    }\r\n}",
  "sourcePath": "C:/Users/Lenovo/projects/ethereum/protergia/blockchain-energy-trading-and-green-energy-certification-thesis-w-protergia/src/contracts/Battery.sol",
  "compiler": {
    "name": "solc",
    "version": "0.5.16+commit.9c3226ce.Emscripten.clang"
  },
  "schemaVersion": "3.3.4",
  "updatedAt": "2021-04-27T22:06:09.898Z",
  "networkType": "ethereum",
  "devdoc": {
    "methods": {}
  },
  "userdoc": {
    "methods": {}
  }
}