{
  "contractName": "batteryRegistry",
  "abi": [
    {
      "constant": false,
      "inputs": [
        {
          "internalType": "string",
          "name": "uuID",
          "type": "string"
        },
        {
          "internalType": "uint32",
          "name": "date",
          "type": "uint32"
        }
      ],
      "name": "addNewBattery",
      "outputs": [],
      "payable": false,
      "stateMutability": "nonpayable",
      "type": "function"
    },
    {
      "constant": true,
      "inputs": [],
      "name": "viewAllBatteries",
      "outputs": [
        {
          "components": [
            {
              "internalType": "address",
              "name": "batteryID",
              "type": "address"
            },
            {
              "internalType": "string",
              "name": "uuID",
              "type": "string"
            },
            {
              "internalType": "uint32",
              "name": "date",
              "type": "uint32"
            },
            {
              "internalType": "uint256",
              "name": "timestamp",
              "type": "uint256"
            },
            {
              "internalType": "bool",
              "name": "isExist",
              "type": "bool"
            }
          ],
          "internalType": "struct batteryRegistry.battery[]",
          "name": "",
          "type": "tuple[]"
        }
      ],
      "payable": false,
      "stateMutability": "view",
      "type": "function"
    },
    {
      "constant": true,
      "inputs": [],
      "name": "getCountOfBatteries",
      "outputs": [
        {
          "internalType": "uint256",
          "name": "count",
          "type": "uint256"
        }
      ],
      "payable": false,
      "stateMutability": "view",
      "type": "function"
    },
    {
      "constant": false,
      "inputs": [
        {
          "internalType": "address",
          "name": "batteryID",
          "type": "address"
        },
        {
          "internalType": "string",
          "name": "uuID",
          "type": "string"
        }
      ],
      "name": "updateBattery",
      "outputs": [],
      "payable": false,
      "stateMutability": "nonpayable",
      "type": "function"
    },
    {
      "constant": true,
      "inputs": [
        {
          "internalType": "address",
          "name": "batteryID",
          "type": "address"
        }
      ],
      "name": "getBatteryByID",
      "outputs": [
        {
          "internalType": "address",
          "name": "",
          "type": "address"
        },
        {
          "internalType": "string",
          "name": "",
          "type": "string"
        },
        {
          "internalType": "uint256",
          "name": "",
          "type": "uint256"
        },
        {
          "internalType": "uint32",
          "name": "",
          "type": "uint32"
        }
      ],
      "payable": false,
      "stateMutability": "view",
      "type": "function"
    }
  ],
  "bytecode": "0x6080604052336000806101000a81548173ffffffffffffffffffffffffffffffffffffffff021916908373ffffffffffffffffffffffffffffffffffffffff1602179055506110fc806100536000396000f3fe608060405234801561001057600080fd5b50600436106100575760003560e01c806344da1a941461005c57806386b6c85a1461007a578063b47c774114610096578063c9fb8578146100b4578063eefa716b146100e7575b600080fd5b610064610103565b6040516100719190610efb565b60405180910390f35b610094600480360361008f9190810190610b79565b610110565b005b61009e610412565b6040516100ab9190610e99565b60405180910390f35b6100ce60048036036100c99190810190610afc565b6105b4565b6040516100de9493929190610e4d565b60405180910390f35b61010160048036036100fc9190810190610b25565b6107a1565b005b6000600280549050905090565b60001515600160003373ffffffffffffffffffffffffffffffffffffffff1673ffffffffffffffffffffffffffffffffffffffff16815260200190815260200160002060040160009054906101000a900460ff161515146101a6576040517f08c379a000000000000000000000000000000000000000000000000000000000815260040161019d90610edb565b60405180910390fd5b6040518060a001604052803373ffffffffffffffffffffffffffffffffffffffff1681526020018381526020018263ffffffff16815260200142815260200160011515815250600160003373ffffffffffffffffffffffffffffffffffffffff1673ffffffffffffffffffffffffffffffffffffffff16815260200190815260200160002060008201518160000160006101000a81548173ffffffffffffffffffffffffffffffffffffffff021916908373ffffffffffffffffffffffffffffffffffffffff160217905550602082015181600101908051906020019061028e929190610959565b5060408201518160020160006101000a81548163ffffffff021916908363ffffffff1602179055506060820151816003015560808201518160040160006101000a81548160ff02191690831515021790555090505060026040518060a001604052803373ffffffffffffffffffffffffffffffffffffffff1681526020018481526020018363ffffffff168152602001428152602001600115158152509080600181540180825580915050906001820390600052602060002090600502016000909192909190915060008201518160000160006101000a81548173ffffffffffffffffffffffffffffffffffffffff021916908373ffffffffffffffffffffffffffffffffffffffff16021790555060208201518160010190805190602001906103b9929190610959565b5060408201518160020160006101000a81548163ffffffff021916908363ffffffff1602179055506060820151816003015560808201518160040160006101000a81548160ff0219169083151502179055505050505050565b60606002805480602002602001604051908101604052809291908181526020016000905b828210156105ab57838290600052602060002090600502016040518060a00160405290816000820160009054906101000a900473ffffffffffffffffffffffffffffffffffffffff1673ffffffffffffffffffffffffffffffffffffffff1673ffffffffffffffffffffffffffffffffffffffff168152602001600182018054600181600116156101000203166002900480601f0160208091040260200160405190810160405280929190818152602001828054600181600116156101000203166002900480156105485780601f1061051d57610100808354040283529160200191610548565b820191906000526020600020905b81548152906001019060200180831161052b57829003601f168201915b505050505081526020016002820160009054906101000a900463ffffffff1663ffffffff1663ffffffff168152602001600382015481526020016004820160009054906101000a900460ff16151515158152505081526020019060010190610436565b50505050905090565b60006060600080600160008673ffffffffffffffffffffffffffffffffffffffff1673ffffffffffffffffffffffffffffffffffffffff16815260200190815260200160002060000160009054906101000a900473ffffffffffffffffffffffffffffffffffffffff16600160008773ffffffffffffffffffffffffffffffffffffffff1673ffffffffffffffffffffffffffffffffffffffff168152602001908152602001600020600101600160008873ffffffffffffffffffffffffffffffffffffffff1673ffffffffffffffffffffffffffffffffffffffff16815260200190815260200160002060030154600160008973ffffffffffffffffffffffffffffffffffffffff1673ffffffffffffffffffffffffffffffffffffffff16815260200190815260200160002060020160009054906101000a900463ffffffff16828054600181600116156101000203166002900480601f01602080910402602001604051908101604052809291908181526020018280546001816001161561010002031660029004801561078b5780601f106107605761010080835404028352916020019161078b565b820191906000526020600020905b81548152906001019060200180831161076e57829003601f168201915b5050505050925093509350935093509193509193565b60011515600160003373ffffffffffffffffffffffffffffffffffffffff1673ffffffffffffffffffffffffffffffffffffffff16815260200190815260200160002060040160009054906101000a900460ff16151514610837576040517f08c379a000000000000000000000000000000000000000000000000000000000815260040161082e90610ebb565b60405180910390fd5b60008090505b600280549050811015610954578273ffffffffffffffffffffffffffffffffffffffff166002828154811061086e57fe5b906000526020600020906005020160000160009054906101000a900473ffffffffffffffffffffffffffffffffffffffff1673ffffffffffffffffffffffffffffffffffffffff1614156109475781600282815481106108ca57fe5b906000526020600020906005020160010190805190602001906108ee9291906109d9565b5081600160008573ffffffffffffffffffffffffffffffffffffffff1673ffffffffffffffffffffffffffffffffffffffff16815260200190815260200160002060010190805190602001906109459291906109d9565b505b808060010191505061083d565b505050565b828054600181600116156101000203166002900490600052602060002090601f016020900481019282601f1061099a57805160ff19168380011785556109c8565b828001600101855582156109c8579182015b828111156109c75782518255916020019190600101906109ac565b5b5090506109d59190610a59565b5090565b828054600181600116156101000203166002900490600052602060002090601f016020900481019282601f10610a1a57805160ff1916838001178555610a48565b82800160010185558215610a48579182015b82811115610a47578251825591602001919060010190610a2c565b5b509050610a559190610a59565b5090565b610a7b91905b80821115610a77576000816000905550600101610a5f565b5090565b90565b600081359050610a8d8161108b565b92915050565b600082601f830112610aa457600080fd5b8135610ab7610ab282610f43565b610f16565b91508082526020830160208301858383011115610ad357600080fd5b610ade838284611038565b50505092915050565b600081359050610af6816110a2565b92915050565b600060208284031215610b0e57600080fd5b6000610b1c84828501610a7e565b91505092915050565b60008060408385031215610b3857600080fd5b6000610b4685828601610a7e565b925050602083013567ffffffffffffffff811115610b6357600080fd5b610b6f85828601610a93565b9150509250929050565b60008060408385031215610b8c57600080fd5b600083013567ffffffffffffffff811115610ba657600080fd5b610bb285828601610a93565b9250506020610bc385828601610ae7565b9150509250929050565b6000610bd98383610d9b565b905092915050565b610bea81610fe0565b82525050565b610bf981610fe0565b82525050565b6000610c0a82610f7f565b610c148185610fad565b935083602082028501610c2685610f6f565b8060005b85811015610c625784840389528151610c438582610bcd565b9450610c4e83610fa0565b925060208a01995050600181019050610c2a565b50829750879550505050505092915050565b610c7d81610ff2565b82525050565b6000610c8e82610f95565b610c988185610fcf565b9350610ca8818560208601611047565b610cb18161107a565b840191505092915050565b6000610cc782610f8a565b610cd18185610fbe565b9350610ce1818560208601611047565b610cea8161107a565b840191505092915050565b6000610d02602583610fcf565b91507f4f6e6c792072656769737465726564206261747465726965732068617665206160008301527f63636573730000000000000000000000000000000000000000000000000000006020830152604082019050919050565b6000610d68601d83610fcf565b91507f426174746572792064657461696c7320616c72656164792061646465640000006000830152602082019050919050565b600060a083016000830151610db36000860182610be1565b5060208301518482036020860152610dcb8282610cbc565b9150506040830151610de06040860182610e2f565b506060830151610df36060860182610e11565b506080830151610e066080860182610c74565b508091505092915050565b610e1a8161101e565b82525050565b610e298161101e565b82525050565b610e3881611028565b82525050565b610e4781611028565b82525050565b6000608082019050610e626000830187610bf0565b8181036020830152610e748186610c83565b9050610e836040830185610e20565b610e906060830184610e3e565b95945050505050565b60006020820190508181036000830152610eb38184610bff565b905092915050565b60006020820190508181036000830152610ed481610cf5565b9050919050565b60006020820190508181036000830152610ef481610d5b565b9050919050565b6000602082019050610f106000830184610e20565b92915050565b6000604051905081810181811067ffffffffffffffff82111715610f3957600080fd5b8060405250919050565b600067ffffffffffffffff821115610f5a57600080fd5b601f19601f8301169050602081019050919050565b6000819050602082019050919050565b600081519050919050565b600081519050919050565b600081519050919050565b6000602082019050919050565b600082825260208201905092915050565b600082825260208201905092915050565b600082825260208201905092915050565b6000610feb82610ffe565b9050919050565b60008115159050919050565b600073ffffffffffffffffffffffffffffffffffffffff82169050919050565b6000819050919050565b600063ffffffff82169050919050565b82818337600083830152505050565b60005b8381101561106557808201518184015260208101905061104a565b83811115611074576000848401525b50505050565b6000601f19601f8301169050919050565b61109481610fe0565b811461109f57600080fd5b50565b6110ab81611028565b81146110b657600080fd5b5056fea365627a7a72315820e25892dcb774f288ba5eedff4ab7f228618020c28429e8b4e77181c0b635840a6c6578706572696d656e74616cf564736f6c63430005100040",
  "source": "pragma solidity >=0.4.21 <0.9.0;\r\npragma experimental ABIEncoderV2;\r\n\r\ncontract owned {\r\n    \r\n    address owner;\r\n    \r\n    constructor() public {\r\n        owner = msg.sender;\r\n    }\r\n    \r\n    modifier onlyOwner {\r\n        require(msg.sender == owner, \"Only owner can call this function.\");\r\n         _;\r\n    }\r\n}\r\n\r\n//Contract that allows battery address to be registered\r\ncontract batteryRegistry is owned {\r\n\r\n    struct battery {\r\n        address batteryID;            //battery wallet address\r\n        string uuID;                  //id of battery  \r\n        uint32 date;                  //Creation date\r\n        uint timestamp;\r\n        bool isExist;                 //Check if battery exist into addNewBattery function\r\n    }\r\n\r\n    //mapping address as key to struct battery with mapping name batteries\r\n    mapping (address => battery) batteries;\r\n    battery[] listOfBatteries;\r\n\r\n    modifier onlyRegisteredBattery{\r\n         require(batteries[msg.sender].isExist==true, \"Only registered batteries have access\");\r\n         _;\r\n     }\r\n\r\n    //add a battery by eth account address\r\n    function addNewBattery (string memory uuID, uint32 date) public {\r\n        require(batteries[msg.sender].isExist==false, \"Battery details already added\");\r\n        batteries[msg.sender] = battery(msg.sender, uuID, date, block.timestamp, true);\r\n\r\n        listOfBatteries.push(battery({\r\n            batteryID: msg.sender,\r\n            uuID: uuID,\r\n            date: date,\r\n            timestamp: block.timestamp,\r\n            isExist: true\r\n            }));\r\n    }\r\n\r\n    //to view all batteries\r\n    function viewAllBatteries () public view returns (battery[] memory) {\r\n        return listOfBatteries;\r\n    }\r\n\r\n    function getCountOfBatteries () public view returns (uint count) {\r\n        return listOfBatteries.length;\r\n    }\r\n\r\n    //change details of a battery\r\n    function updateBattery(address batteryID, string memory uuID) public onlyRegisteredBattery {\r\n        for(uint i = 0; i<listOfBatteries.length; i++){\r\n            if(listOfBatteries[i].batteryID == batteryID){\r\n                listOfBatteries[i].uuID = uuID;\r\n                batteries[batteryID].uuID = uuID;\r\n            }\r\n        }\r\n    }\r\n\r\n    //view single battery by battery id\r\n    function getBatteryByID(address batteryID) public view returns (address, string memory, uint, uint32){\r\n        return (batteries[batteryID].batteryID, batteries[batteryID].uuID, batteries[batteryID].timestamp, batteries[batteryID].date);\r\n    }\r\n}\r\n\r\ncontract energyBid is owned, batteryRegistry {\r\n\r\n    //event offerEnergyMade(address indexed sellerBatteryID, uint32 indexed day, uint32 indexed price, uint64 energy);\r\n    //event buyEnergyMade(address indexed sellerBatteryID, uint32 indexed day, uint32 price, uint64 energy, address indexed batteryID);\r\n\r\n    uint64 constant kWh = 1;\r\n    uint64 constant MWh = 1000 * kWh;\r\n    uint64 constant GWh = 1000 * MWh;\r\n    uint64 constant TWh = 1000 * GWh;\r\n\r\n    //uint uinversalPrice = 2; //Energy market price per kWh (ex. 2euro/kWh, the price is trial)\r\n\r\n    struct bid {\r\n        address prosumerID;    \r\n        uint numberOfBid;      //A battery can create more than one energy offer\r\n        uint32 day;            //day for which the offer is valid\r\n        uint64 energy;         //energy to trade\r\n        uint32 eprice;         //Energy market price per kWh\r\n        uint timestamp;      //timestamp for when the bid was created\r\n    }\r\n    \r\n    struct ask {\r\n        address consumerID;    \r\n        uint64 energy;\r\n        uint timestamp;\r\n        uint32 day;\r\n        uint64 remainingEnergy;\r\n    }\r\n\r\n    //struct to store all energy purchases\r\n    struct buyedEnergy {\r\n        address consumerID;\r\n        address prosumerID;\r\n        uint64 energy;\r\n        uint price;\r\n        uint32 day;\r\n        uint timestamp;\r\n    }\r\n    \r\n    mapping(address => uint) asks; \r\n    ask[] listOfAsks;\r\n\r\n    buyedEnergy[] listOfBuyedEnergy;\r\n\r\n    mapping(address => mapping(uint32 => mapping(uint=> uint))) bids;\r\n    bid[] listOfBids;\r\n    uint nextNumberOfBid;                                    \r\n\r\n    //create energy offer \r\n    //There is a minimum energy requirement \r\n    //Only registered batteries can use this function\r\n    function energyOffer(uint32 _day, uint64 _energy, uint32 _eprice) public onlyRegisteredBattery {\r\n        require(_energy >= kWh, \"Wrong energy input require a minimum offer of 1 kWh\");\r\n\r\n        listOfBids.push(bid({\r\n            prosumerID: msg.sender,\r\n            numberOfBid: nextNumberOfBid,\r\n            day: _day,\r\n            energy: _energy,\r\n            eprice: _eprice,\r\n            timestamp: block.timestamp\r\n        }));\r\n        nextNumberOfBid++;\r\n        bidEnergyTrading(listOfBids[listOfBids.length-1]);\r\n    }\r\n\r\n    //make ask request and buy energy from available bids\r\n    function askEnergy(uint32 _day, uint64 _energy) public onlyRegisteredBattery {\r\n        require(_energy >= kWh, \"Wrong energy input require a minimum offer of 1 kWh\");\r\n\r\n        listOfAsks.push(ask({\r\n            consumerID: msg.sender,\r\n            energy: _energy,\r\n            timestamp: block.timestamp,\r\n            day: _day,\r\n            remainingEnergy: _energy\r\n        }));\r\n        askEnergyTrading(listOfAsks[listOfAsks.length-1]);\r\n    }\r\n\r\n    //core function for energy trading (ask case)\r\n    function askEnergyTrading(ask memory _ask) private onlyRegisteredBattery {\r\n        //require(listOfBids.length > 0, \"There is no energy offer\");\r\n\r\n        uint64 remainingEnergy = _ask.remainingEnergy;\r\n\r\n        for(uint i = 0; i<listOfBids.length; i++){\r\n\r\n            address _prosumerID;\r\n            bool isEnergyPurchased = false;\r\n            uint64 energyPurchased = 0;\r\n            uint _price = 0;\r\n\r\n            if(listOfBids[i].energy < remainingEnergy){\r\n                _prosumerID = listOfBids[i].prosumerID;\r\n                energyPurchased = listOfBids[i].energy; \r\n                remainingEnergy = remainingEnergy - listOfBids[i].energy;\r\n                listOfAsks[i].remainingEnergy = remainingEnergy;//-----\r\n                _price = listOfBids[i].eprice*energyPurchased; //price per kWh\r\n                listOfBids[i].energy = 0;\r\n\r\n                isEnergyPurchased = true;\r\n\r\n                //remove energy offer from the list if energy is zero\r\n                if (listOfBids.length > 1) {\r\n                    listOfBids[i] = listOfBids[listOfBids.length-1];\r\n                }\r\n                listOfBids.length--;\r\n                i--;//-----\r\n\r\n            }else if(listOfBids[i].energy == remainingEnergy){\r\n                _prosumerID = listOfBids[i].prosumerID;\r\n                energyPurchased = remainingEnergy;\r\n                _price = listOfBids[i].eprice*energyPurchased;\r\n                listOfBids[i].energy = 0;\r\n                remainingEnergy = 0;\r\n\r\n                isEnergyPurchased = true;\r\n\r\n                if (listOfBids.length > 1) {\r\n                    listOfBids[i] = listOfBids[listOfBids.length-1];\r\n                }\r\n                listOfBids.length--;\r\n\r\n            }else{\r\n                _prosumerID = listOfBids[i].prosumerID;\r\n                energyPurchased = remainingEnergy;\r\n                listOfBids[i].energy = listOfBids[i].energy - remainingEnergy;\r\n                _price = listOfBids[i].eprice*energyPurchased;\r\n                remainingEnergy = 0;\r\n\r\n                isEnergyPurchased = true;\r\n            }\r\n\r\n            //store purchase \r\n            if(isEnergyPurchased){\r\n                listOfBuyedEnergy.push(buyedEnergy({\r\n                    consumerID: msg.sender,\r\n                    prosumerID: _prosumerID,\r\n                    energy: energyPurchased,\r\n                    price: _price,\r\n                    day: _ask.day,\r\n                    timestamp: _ask.timestamp\r\n                }));\r\n            }\r\n\r\n            //remove ask request from list \r\n            if(remainingEnergy == 0){\r\n                if (listOfAsks.length > 1){\r\n                    listOfAsks[i] = listOfAsks[listOfAsks.length-1];\r\n                }\r\n                listOfAsks.length--;\r\n                break ;\r\n            }\r\n        }\r\n    }\r\n\r\n    /////Energy trading for bid case \r\n    function bidEnergyTrading(bid memory _bid) private onlyRegisteredBattery {\r\n\r\n        //require();\r\n\r\n        uint64 _remainingBidEnergy = _bid.energy;\r\n\r\n        for(uint i = 0; i<listOfAsks.length; i++){\r\n            \r\n            address _consumerID;\r\n            bool isEnergyPurchased = false;\r\n            uint64 energyPurchased = 0;\r\n            uint _price = 0;\r\n            if(listOfAsks[i].remainingEnergy < _remainingBidEnergy){\r\n                _consumerID = listOfAsks[i].consumerID;\r\n                energyPurchased = listOfAsks[i].remainingEnergy;\r\n                _remainingBidEnergy = _remainingBidEnergy - energyPurchased;\r\n                listOfBids[i].energy = _remainingBidEnergy;\r\n                _price = _bid.eprice*energyPurchased;\r\n                listOfAsks[i].remainingEnergy = 0;\r\n\r\n                isEnergyPurchased = true;\r\n\r\n                if(listOfAsks.length > 1){\r\n                    listOfAsks[i] = listOfAsks[listOfAsks.length-1];\r\n                }\r\n                listOfAsks.length--;\r\n                i--;\r\n\r\n            }else if(listOfAsks[i].remainingEnergy == _remainingBidEnergy){\r\n                _consumerID = listOfAsks[i].consumerID;\r\n                energyPurchased = _remainingBidEnergy;\r\n                _price = _bid.eprice*energyPurchased;\r\n                _remainingBidEnergy = 0;\r\n                listOfAsks[i].remainingEnergy = 0;\r\n\r\n                isEnergyPurchased = true;\r\n\r\n                if(listOfAsks.length > 1){\r\n                    listOfAsks[i] = listOfAsks[listOfAsks.length-1];\r\n                }\r\n                listOfAsks.length--;\r\n\r\n            }else{\r\n                _consumerID = listOfAsks[i].consumerID;\r\n                energyPurchased = _remainingBidEnergy;\r\n                listOfAsks[i].remainingEnergy = listOfAsks[i].remainingEnergy - energyPurchased;\r\n                _price = _bid.eprice*energyPurchased;\r\n                _remainingBidEnergy = 0;\r\n\r\n                isEnergyPurchased = true;\r\n            }\r\n\r\n            if(isEnergyPurchased){\r\n                listOfBuyedEnergy.push(buyedEnergy({\r\n                    consumerID: _consumerID,\r\n                    prosumerID: msg.sender,\r\n                    energy: energyPurchased,\r\n                    price: _price,\r\n                    day: _bid.day,\r\n                    timestamp: _bid.timestamp\r\n                }));\r\n            }\r\n\r\n            if(_remainingBidEnergy == 0){\r\n                if(listOfBids.length > 1){\r\n                    listOfBids[i] = listOfBids[listOfBids.length-1];\r\n                }\r\n                listOfBids.length--;\r\n                break;\r\n            }\r\n        }\r\n    }\r\n\r\n    //list of all ask energy requests\r\n    function viewAllAsks () public view returns (ask[] memory){\r\n        return listOfAsks;\r\n    }\r\n\r\n    function getCountOfAsks () public view returns (uint count){\r\n        return listOfAsks.length;\r\n    }\r\n\r\n    //view single ask energy request by batteryID\r\n    function getAskByBatteryId (address _consumerID) public view returns (address, uint32, uint64){\r\n        uint indexA = asks[_consumerID];\r\n        require(listOfAsks.length > indexA, \"Wrong index\");\r\n        require(listOfAsks[indexA].consumerID == _consumerID, \"Wrong Battery Id\");\r\n        return (listOfAsks[indexA].consumerID, listOfAsks[indexA].day, listOfAsks[indexA].energy);\r\n    }\r\n\r\n    //list of all energy purchases\r\n    function viewAllEnergyPurchases () public view returns (buyedEnergy[] memory){\r\n        return listOfBuyedEnergy;\r\n    }\r\n\r\n    //view all bids \r\n    function viewAllBids () public view returns (bid[] memory){\r\n      return listOfBids;\r\n    }\r\n\r\n    function getCountOfBids () public view returns (uint count){\r\n        return listOfBids.length;\r\n    }\r\n\r\n    //view single bid by batteryID\r\n    function getBidByBatteryID (address prosumerID, uint32 day, uint numberOfBid) public view returns (uint, uint32, uint64){\r\n        uint index = bids[prosumerID][day][numberOfBid];\r\n        require(listOfBids.length > index, \"Wrong index\");\r\n        require(listOfBids[index].day == day, \"There is no offer on this day\");\r\n        require(listOfBids[index].prosumerID == prosumerID, \"Wrong ID\");\r\n        return (listOfBids[index].numberOfBid, listOfBids[index].day, listOfBids[index].energy);\r\n    }\r\n}",
  "sourcePath": "C:/Users/Lenovo/projects/ethereum/protergia/blockchain-energy-trading-and-green-energy-certification-thesis-w-protergia/src/contracts/Battery.sol",
  "compiler": {
    "name": "solc",
    "version": "0.5.16+commit.9c3226ce.Emscripten.clang"
  },
  "schemaVersion": "3.3.4",
  "updatedAt": "2021-06-24T13:56:30.068Z",
  "devdoc": {
    "methods": {}
  },
  "userdoc": {
    "methods": {}
  }
}