{
  "contractName": "batteryRegistry",
  "abi": [
    {
      "anonymous": false,
      "inputs": [
        {
          "indexed": true,
          "internalType": "address",
          "name": "batteryID",
          "type": "address"
        }
      ],
      "name": "batteryAdded",
      "type": "event"
    },
    {
      "constant": true,
      "inputs": [
        {
          "internalType": "uint256",
          "name": "",
          "type": "uint256"
        }
      ],
      "name": "listOfBatteries",
      "outputs": [
        {
          "internalType": "address",
          "name": "batteryID",
          "type": "address"
        },
        {
          "internalType": "string",
          "name": "nameOfBatteryOwner",
          "type": "string"
        },
        {
          "internalType": "uint32",
          "name": "date",
          "type": "uint32"
        },
        {
          "internalType": "bool",
          "name": "isExist",
          "type": "bool"
        }
      ],
      "payable": false,
      "stateMutability": "view",
      "type": "function"
    },
    {
      "constant": true,
      "inputs": [],
      "name": "owner",
      "outputs": [
        {
          "internalType": "address",
          "name": "",
          "type": "address"
        }
      ],
      "payable": false,
      "stateMutability": "view",
      "type": "function"
    },
    {
      "constant": false,
      "inputs": [
        {
          "internalType": "address",
          "name": "batteryID",
          "type": "address"
        },
        {
          "internalType": "string",
          "name": "nameOfBatteryOwner",
          "type": "string"
        },
        {
          "internalType": "uint32",
          "name": "date",
          "type": "uint32"
        }
      ],
      "name": "addNewBattery",
      "outputs": [
        {
          "internalType": "bool",
          "name": "",
          "type": "bool"
        }
      ],
      "payable": false,
      "stateMutability": "nonpayable",
      "type": "function"
    },
    {
      "constant": true,
      "inputs": [],
      "name": "viewAllBatteries",
      "outputs": [
        {
          "components": [
            {
              "internalType": "address",
              "name": "batteryID",
              "type": "address"
            },
            {
              "internalType": "string",
              "name": "nameOfBatteryOwner",
              "type": "string"
            },
            {
              "internalType": "uint32",
              "name": "date",
              "type": "uint32"
            },
            {
              "internalType": "bool",
              "name": "isExist",
              "type": "bool"
            }
          ],
          "internalType": "struct batteryRegistry.battery[]",
          "name": "",
          "type": "tuple[]"
        }
      ],
      "payable": false,
      "stateMutability": "view",
      "type": "function"
    },
    {
      "constant": false,
      "inputs": [
        {
          "internalType": "address",
          "name": "batteryID",
          "type": "address"
        },
        {
          "internalType": "string",
          "name": "nameOfBatteryOwner",
          "type": "string"
        }
      ],
      "name": "updateBattery",
      "outputs": [],
      "payable": false,
      "stateMutability": "nonpayable",
      "type": "function"
    },
    {
      "constant": false,
      "inputs": [
        {
          "internalType": "address",
          "name": "batteryID",
          "type": "address"
        }
      ],
      "name": "removeBattery",
      "outputs": [],
      "payable": false,
      "stateMutability": "nonpayable",
      "type": "function"
    },
    {
      "constant": true,
      "inputs": [
        {
          "internalType": "address",
          "name": "batteryID",
          "type": "address"
        }
      ],
      "name": "getBatteryByID",
      "outputs": [
        {
          "internalType": "address",
          "name": "",
          "type": "address"
        },
        {
          "internalType": "string",
          "name": "",
          "type": "string"
        },
        {
          "internalType": "uint32",
          "name": "",
          "type": "uint32"
        }
      ],
      "payable": false,
      "stateMutability": "view",
      "type": "function"
    }
  ],
  "bytecode": "0x6080604052336000806101000a81548173ffffffffffffffffffffffffffffffffffffffff021916908373ffffffffffffffffffffffffffffffffffffffff16021790555061164a806100536000396000f3fe608060405234801561001057600080fd5b506004361061007d5760003560e01c8063bc2d26571161005b578063bc2d2657146100f1578063c9fb85781461010d578063ca89d0d81461013f578063eefa716b1461016f5761007d565b8063791e1372146100825780638da5cb5b146100b5578063b47c7741146100d3575b600080fd5b61009c6004803603610097919081019061106b565b61018b565b6040516100ac9493929190611384565b60405180910390f35b6100bd61029d565b6040516100ca919061132b565b60405180910390f35b6100db6102c2565b6040516100e891906113d0565b60405180910390f35b61010b60048036036101069190810190610f87565b61045a565b005b61012760048036036101229190810190610f87565b610616565b60405161013693929190611346565b60405180910390f35b61015960048036036101549190810190611004565b6107bd565b60405161016691906113f2565b60405180910390f35b61018960048036036101849190810190610fb0565b610b7a565b005b6002818154811061019857fe5b90600052602060002090600302016000915090508060000160009054906101000a900473ffffffffffffffffffffffffffffffffffffffff1690806001018054600181600116156101000203166002900480601f01602080910402602001604051908101604052809291908181526020018280546001816001161561010002031660029004801561026a5780601f1061023f5761010080835404028352916020019161026a565b820191906000526020600020905b81548152906001019060200180831161024d57829003601f168201915b5050505050908060020160009054906101000a900463ffffffff16908060020160049054906101000a900460ff16905084565b6000809054906101000a900473ffffffffffffffffffffffffffffffffffffffff1681565b60606002805480602002602001604051908101604052809291908181526020016000905b8282101561045157838290600052602060002090600302016040518060800160405290816000820160009054906101000a900473ffffffffffffffffffffffffffffffffffffffff1673ffffffffffffffffffffffffffffffffffffffff1673ffffffffffffffffffffffffffffffffffffffff168152602001600182018054600181600116156101000203166002900480601f0160208091040260200160405190810160405280929190818152602001828054600181600116156101000203166002900480156103f85780601f106103cd576101008083540402835291602001916103f8565b820191906000526020600020905b8154815290600101906020018083116103db57829003601f168201915b505050505081526020016002820160009054906101000a900463ffffffff1663ffffffff1663ffffffff1681526020016002820160049054906101000a900460ff161515151581525050815260200190600101906102e6565b50505050905090565b6000809054906101000a900473ffffffffffffffffffffffffffffffffffffffff1673ffffffffffffffffffffffffffffffffffffffff163373ffffffffffffffffffffffffffffffffffffffff16146104e9576040517f08c379a00000000000000000000000000000000000000000000000000000000081526004016104e09061140d565b60405180910390fd5b60008090505b600280549050811015610612578173ffffffffffffffffffffffffffffffffffffffff166002828154811061052057fe5b906000526020600020906003020160000160009054906101000a900473ffffffffffffffffffffffffffffffffffffffff1673ffffffffffffffffffffffffffffffffffffffff161415610605576002818154811061057b57fe5b9060005260206000209060030201600080820160006101000a81549073ffffffffffffffffffffffffffffffffffffffff02191690556001820160006105c19190610cd4565b6002820160006101000a81549063ffffffff02191690556002820160046101000a81549060ff0219169055505060028054809190600190036106039190610d1c565b505b80806001019150506104ef565b5050565b600060606000600160008573ffffffffffffffffffffffffffffffffffffffff1673ffffffffffffffffffffffffffffffffffffffff16815260200190815260200160002060000160009054906101000a900473ffffffffffffffffffffffffffffffffffffffff16600160008673ffffffffffffffffffffffffffffffffffffffff1673ffffffffffffffffffffffffffffffffffffffff168152602001908152602001600020600101600160008773ffffffffffffffffffffffffffffffffffffffff1673ffffffffffffffffffffffffffffffffffffffff16815260200190815260200160002060020160009054906101000a900463ffffffff16818054600181600116156101000203166002900480601f0160208091040260200160405190810160405280929190818152602001828054600181600116156101000203166002900480156107a95780601f1061077e576101008083540402835291602001916107a9565b820191906000526020600020905b81548152906001019060200180831161078c57829003601f168201915b505050505091509250925092509193909250565b60008060009054906101000a900473ffffffffffffffffffffffffffffffffffffffff1673ffffffffffffffffffffffffffffffffffffffff163373ffffffffffffffffffffffffffffffffffffffff161461084e576040517f08c379a00000000000000000000000000000000000000000000000000000000081526004016108459061140d565b60405180910390fd5b60001515600160008673ffffffffffffffffffffffffffffffffffffffff1673ffffffffffffffffffffffffffffffffffffffff16815260200190815260200160002060020160049054906101000a900460ff161515146108e4576040517f08c379a00000000000000000000000000000000000000000000000000000000081526004016108db9061142d565b60405180910390fd5b60405180608001604052808573ffffffffffffffffffffffffffffffffffffffff1681526020018481526020018363ffffffff16815260200160011515815250600160008673ffffffffffffffffffffffffffffffffffffffff1673ffffffffffffffffffffffffffffffffffffffff16815260200190815260200160002060008201518160000160006101000a81548173ffffffffffffffffffffffffffffffffffffffff021916908373ffffffffffffffffffffffffffffffffffffffff16021790555060208201518160010190805190602001906109c6929190610d4e565b5060408201518160020160006101000a81548163ffffffff021916908363ffffffff16021790555060608201518160020160046101000a81548160ff021916908315150217905550905050600260405180608001604052808673ffffffffffffffffffffffffffffffffffffffff1681526020018581526020018463ffffffff168152602001600115158152509080600181540180825580915050906001820390600052602060002090600302016000909192909190915060008201518160000160006101000a81548173ffffffffffffffffffffffffffffffffffffffff021916908373ffffffffffffffffffffffffffffffffffffffff1602179055506020820151816001019080519060200190610ae1929190610d4e565b5060408201518160020160006101000a81548163ffffffff021916908363ffffffff16021790555060608201518160020160046101000a81548160ff0219169083151502179055505050508373ffffffffffffffffffffffffffffffffffffffff167fbf313c3ec3b04ed9423550c08a339ad0bc0efc07b4e7c49ddc12969ccf81e5c360405160405180910390a2600190509392505050565b6000809054906101000a900473ffffffffffffffffffffffffffffffffffffffff1673ffffffffffffffffffffffffffffffffffffffff163373ffffffffffffffffffffffffffffffffffffffff1614610c09576040517f08c379a0000000000000000000000000000000000000000000000000000000008152600401610c009061140d565b60405180910390fd5b60008090505b600280549050811015610ccf578273ffffffffffffffffffffffffffffffffffffffff1660028281548110610c4057fe5b906000526020600020906003020160000160009054906101000a900473ffffffffffffffffffffffffffffffffffffffff1673ffffffffffffffffffffffffffffffffffffffff161415610cc2578160028281548110610c9c57fe5b90600052602060002090600302016001019080519060200190610cc0929190610dce565b505b8080600101915050610c0f565b505050565b50805460018160011615610100020316600290046000825580601f10610cfa5750610d19565b601f016020900490600052602060002090810190610d189190610e4e565b5b50565b815481835581811115610d4957600302816003028360005260206000209182019101610d489190610e73565b5b505050565b828054600181600116156101000203166002900490600052602060002090601f016020900481019282601f10610d8f57805160ff1916838001178555610dbd565b82800160010185558215610dbd579182015b82811115610dbc578251825591602001919060010190610da1565b5b509050610dca9190610e4e565b5090565b828054600181600116156101000203166002900490600052602060002090601f016020900481019282601f10610e0f57805160ff1916838001178555610e3d565b82800160010185558215610e3d579182015b82811115610e3c578251825591602001919060010190610e21565b5b509050610e4a9190610e4e565b5090565b610e7091905b80821115610e6c576000816000905550600101610e54565b5090565b90565b610ef191905b80821115610eed57600080820160006101000a81549073ffffffffffffffffffffffffffffffffffffffff0219169055600182016000610eb99190610cd4565b6002820160006101000a81549063ffffffff02191690556002820160046101000a81549060ff021916905550600301610e79565b5090565b90565b600081359050610f03816115c2565b92915050565b600082601f830112610f1a57600080fd5b8135610f2d610f288261147a565b61144d565b91508082526020830160208301858383011115610f4957600080fd5b610f5483828461156f565b50505092915050565b600081359050610f6c816115d9565b92915050565b600081359050610f81816115f0565b92915050565b600060208284031215610f9957600080fd5b6000610fa784828501610ef4565b91505092915050565b60008060408385031215610fc357600080fd5b6000610fd185828601610ef4565b925050602083013567ffffffffffffffff811115610fee57600080fd5b610ffa85828601610f09565b9150509250929050565b60008060006060848603121561101957600080fd5b600061102786828701610ef4565b935050602084013567ffffffffffffffff81111561104457600080fd5b61105086828701610f09565b925050604061106186828701610f72565b9150509250925092565b60006020828403121561107d57600080fd5b600061108b84828501610f5d565b91505092915050565b60006110a083836112aa565b905092915050565b6110b181611517565b82525050565b6110c081611517565b82525050565b60006110d1826114b6565b6110db81856114e4565b9350836020820285016110ed856114a6565b8060005b85811015611129578484038952815161110a8582611094565b9450611115836114d7565b925060208a019950506001810190506110f1565b50829750879550505050505092915050565b61114481611529565b82525050565b61115381611529565b82525050565b6000611164826114cc565b61116e8185611506565b935061117e81856020860161157e565b611187816115b1565b840191505092915050565b600061119d826114c1565b6111a781856114f5565b93506111b781856020860161157e565b6111c0816115b1565b840191505092915050565b60006111d6826114c1565b6111e08185611506565b93506111f081856020860161157e565b6111f9816115b1565b840191505092915050565b6000611211602283611506565b91507f4f6e6c79206f776e65722063616e2063616c6c20746869732066756e6374696f60008301527f6e2e0000000000000000000000000000000000000000000000000000000000006020830152604082019050919050565b6000611277601d83611506565b91507f426174746572792064657461696c7320616c72656164792061646465640000006000830152602082019050919050565b60006080830160008301516112c260008601826110a8565b50602083015184820360208601526112da8282611192565b91505060408301516112ef604086018261130d565b506060830151611302606086018261113b565b508091505092915050565b6113168161155f565b82525050565b6113258161155f565b82525050565b600060208201905061134060008301846110b7565b92915050565b600060608201905061135b60008301866110b7565b818103602083015261136d8185611159565b905061137c604083018461131c565b949350505050565b600060808201905061139960008301876110b7565b81810360208301526113ab81866111cb565b90506113ba604083018561131c565b6113c7606083018461114a565b95945050505050565b600060208201905081810360008301526113ea81846110c6565b905092915050565b6000602082019050611407600083018461114a565b92915050565b6000602082019050818103600083015261142681611204565b9050919050565b600060208201905081810360008301526114468161126a565b9050919050565b6000604051905081810181811067ffffffffffffffff8211171561147057600080fd5b8060405250919050565b600067ffffffffffffffff82111561149157600080fd5b601f19601f8301169050602081019050919050565b6000819050602082019050919050565b600081519050919050565b600081519050919050565b600081519050919050565b6000602082019050919050565b600082825260208201905092915050565b600082825260208201905092915050565b600082825260208201905092915050565b600061152282611535565b9050919050565b60008115159050919050565b600073ffffffffffffffffffffffffffffffffffffffff82169050919050565b6000819050919050565b600063ffffffff82169050919050565b82818337600083830152505050565b60005b8381101561159c578082015181840152602081019050611581565b838111156115ab576000848401525b50505050565b6000601f19601f8301169050919050565b6115cb81611517565b81146115d657600080fd5b50565b6115e281611555565b81146115ed57600080fd5b50565b6115f98161155f565b811461160457600080fd5b5056fea365627a7a72315820b8150c3887f77cf11ebd3f302deae8efb47353f9e84a9ac474b0f5f0c0447fc36c6578706572696d656e74616cf564736f6c63430005100040",
  "source": "pragma solidity >=0.4.21 <0.7.0;\r\npragma experimental ABIEncoderV2;\r\n\r\n/*----------------------------------------owned Contract----------------------------------------*/\r\n//Create a contract owner\r\ncontract owned {\r\n    \r\n    address public owner;\r\n    \r\n    constructor() public {\r\n        owner = msg.sender;\r\n    }\r\n    \r\n    modifier onlyOwner {\r\n        require(msg.sender == owner, \"Only owner can call this function.\");\r\n         _;\r\n    }\r\n}\r\n\r\n/*----------------------------------------batteryRegistry Contract----------------------------------------*/\r\n//Contract that allows battery address to be registered\r\ncontract batteryRegistry is owned {\r\n\r\n    event batteryAdded(address indexed batteryID);\r\n\r\n    struct battery {\r\n        address batteryID;            //batteryID is Owner of battery ethereum address\r\n        string nameOfBatteryOwner;    //Name of battery owner \r\n        uint32 date;                  //Creation date\r\n        bool isExist;                 //Check if battery exist into addNewBattery function\r\n    }\r\n\r\n    //mapping address as key to struct battery with mapping name batteries\r\n    mapping (address => battery) batteries;\r\n    battery[] public listOfBatteries;\r\n\r\n    //add a battery\r\n    function addNewBattery (address batteryID, string memory nameOfBatteryOwner, uint32 date) public onlyOwner returns(bool) {\r\n        require(batteries[batteryID].isExist==false, \"Battery details already added\");\r\n        batteries[batteryID] = battery(batteryID, nameOfBatteryOwner, date, true);\r\n\r\n        listOfBatteries.push(battery({\r\n            batteryID: batteryID,\r\n            nameOfBatteryOwner: nameOfBatteryOwner,\r\n            date: date,\r\n            isExist: true\r\n            }));\r\n        emit batteryAdded(batteryID);\r\n        return true;\r\n    }\r\n\r\n    //to view all batteries\r\n    function viewAllBatteries () public view returns (battery[] memory){\r\n        return listOfBatteries;\r\n    }\r\n\r\n    //change details of a battery\r\n    function updateBattery(address batteryID, string memory nameOfBatteryOwner) public onlyOwner{\r\n        for(uint i = 0; i<listOfBatteries.length; i++){\r\n            if(listOfBatteries[i].batteryID == batteryID){\r\n                listOfBatteries[i].nameOfBatteryOwner = nameOfBatteryOwner;\r\n            }\r\n        }\r\n    }\r\n\r\n    //delete a battery by batteryID\r\n    function removeBattery(address batteryID) public onlyOwner{\r\n        for(uint i = 0; i<listOfBatteries.length; i++){\r\n            if(listOfBatteries[i].batteryID == batteryID){\r\n                delete listOfBatteries[i];\r\n                listOfBatteries.length--;\r\n            }\r\n        }\r\n    }\r\n\r\n    //view single battery by battery id\r\n    function getBatteryByID(address batteryID) public view returns (address, string memory, uint32){\r\n        return (batteries[batteryID].batteryID, batteries[batteryID].nameOfBatteryOwner, batteries[batteryID].date);\r\n    }\r\n}\r\n\r\n/*----------------------------------------energyBid Contract----------------------------------------*/\r\n//Contract for energy offers from current batteries\r\ncontract energyBid is owned, batteryRegistry {\r\n\r\n    event bidMade(address indexed batteryID, uint32 indexed day, uint32 indexed price, uint64 energy);\r\n\r\n    uint64 constant mWh = 1;\r\n    uint64 constant Wh = 1000 * mWh;\r\n    uint64 constant kWh = 1000 * Wh;\r\n    uint64 constant MWh = 1000 * kWh;\r\n    uint64 constant GWh = 1000 * MWh;\r\n    uint64 constant TWh = 1000 * GWh;\r\n\r\n    struct bid{\r\n        address batteryID;    //battery public key\r\n        uint numberOfBid;     //A battery can create more than one energy offer\r\n        uint32 day;           //day for which the offer is valid\r\n        uint32 price;         //price vs market price\r\n        uint64 energy;        //energy to trade\r\n        uint64 timestamp;     //timestamp for when the bid was created\r\n    }\r\n\r\n    mapping(address => mapping(uint32 => mapping(uint=> uint))) public bids;\r\n    bid[] public listOfBids;\r\n    uint nextNumberOfBid;                                              \r\n\r\n    //create energy offer\r\n    function energyOffer(uint32 _day, uint32 _price, uint64 _energy, uint64 _timestamp) public onlyOwner{\r\n        require(_energy >= kWh, \"Wrong energy input require a minimum offer of 1 kWh (1.000.000mWh)\");\r\n        uint index = bids[msg.sender][_day][nextNumberOfBid];\r\n\r\n        index = listOfBids.length;\r\n        bids[msg.sender][_day][nextNumberOfBid] = index;\r\n        listOfBids.push(bid({\r\n            batteryID: msg.sender,\r\n            numberOfBid: nextNumberOfBid,\r\n            day: _day,\r\n            price: _price,\r\n            energy: _energy,\r\n            timestamp: _timestamp\r\n        }));\r\n        emit bidMade(listOfBids[index].batteryID, listOfBids[index].day, listOfBids[index].price, listOfBids[index].energy);\r\n        nextNumberOfBid++;\r\n    }\r\n\r\n    //view all bids \r\n    function viewAllBids () public view returns (bid[] memory){\r\n      return listOfBids;\r\n    }\r\n\r\n    //view single bid by batteryID\r\n    function getBidByBatteryID (address batteryID, uint32 day, uint numberOfBid) public view returns (uint, uint32, uint32, uint64){\r\n        uint index = bids[batteryID][day][numberOfBid];\r\n        require(listOfBids.length > index, \"Wrong index\");\r\n        require(listOfBids[index].day == day, \"There is no offer on this day\");\r\n        require(listOfBids[index].batteryID == batteryID, \"Wrong Battery ID\");\r\n        return (listOfBids[index].numberOfBid, listOfBids[index].day, listOfBids[index].price, listOfBids[index].energy);\r\n        //return (listOfBids[batteryID].day, listOfBids[batteryID].price, listOfBids[batteryID].energy);\r\n    }\r\n}",
  "sourcePath": "C:/Users/Lenovo/projects/ethereum/protergia/blockchain-energy-trading-and-green-energy-certification-thesis-w-protergia/src/contracts/Battery.sol",
  "compiler": {
    "name": "solc",
    "version": "0.5.16+commit.9c3226ce.Emscripten.clang"
  },
  "schemaVersion": "3.3.4",
  "updatedAt": "2021-04-22T12:17:03.149Z",
  "devdoc": {
    "methods": {}
  },
  "userdoc": {
    "methods": {}
  }
}