{
  "contractName": "batteryRegistry",
  "abi": [
    {
      "inputs": [
        {
          "internalType": "string",
          "name": "nameOfBatteryOwner",
          "type": "string"
        },
        {
          "internalType": "uint32",
          "name": "date",
          "type": "uint32"
        }
      ],
      "payable": false,
      "stateMutability": "nonpayable",
      "type": "constructor"
    },
    {
      "constant": true,
      "inputs": [
        {
          "internalType": "uint256",
          "name": "",
          "type": "uint256"
        }
      ],
      "name": "listOfBatteries",
      "outputs": [
        {
          "internalType": "address",
          "name": "batteryID",
          "type": "address"
        },
        {
          "internalType": "string",
          "name": "nameOfBatteryOwner",
          "type": "string"
        },
        {
          "internalType": "uint32",
          "name": "date",
          "type": "uint32"
        },
        {
          "internalType": "bool",
          "name": "isExist",
          "type": "bool"
        }
      ],
      "payable": false,
      "stateMutability": "view",
      "type": "function"
    },
    {
      "constant": true,
      "inputs": [],
      "name": "owner",
      "outputs": [
        {
          "internalType": "address",
          "name": "",
          "type": "address"
        }
      ],
      "payable": false,
      "stateMutability": "view",
      "type": "function"
    },
    {
      "constant": false,
      "inputs": [
        {
          "internalType": "string",
          "name": "nameOfBatteryOwner",
          "type": "string"
        },
        {
          "internalType": "uint32",
          "name": "date",
          "type": "uint32"
        }
      ],
      "name": "addNewBattery",
      "outputs": [
        {
          "internalType": "bool",
          "name": "",
          "type": "bool"
        }
      ],
      "payable": false,
      "stateMutability": "nonpayable",
      "type": "function"
    },
    {
      "constant": true,
      "inputs": [],
      "name": "viewAllBatteries",
      "outputs": [
        {
          "components": [
            {
              "internalType": "address",
              "name": "batteryID",
              "type": "address"
            },
            {
              "internalType": "string",
              "name": "nameOfBatteryOwner",
              "type": "string"
            },
            {
              "internalType": "uint32",
              "name": "date",
              "type": "uint32"
            },
            {
              "internalType": "bool",
              "name": "isExist",
              "type": "bool"
            }
          ],
          "internalType": "struct batteryRegistry.battery[]",
          "name": "",
          "type": "tuple[]"
        }
      ],
      "payable": false,
      "stateMutability": "view",
      "type": "function"
    },
    {
      "constant": false,
      "inputs": [
        {
          "internalType": "address",
          "name": "batteryID",
          "type": "address"
        },
        {
          "internalType": "string",
          "name": "nameOfBatteryOwner",
          "type": "string"
        }
      ],
      "name": "updateBattery",
      "outputs": [],
      "payable": false,
      "stateMutability": "nonpayable",
      "type": "function"
    },
    {
      "constant": false,
      "inputs": [
        {
          "internalType": "address",
          "name": "batteryID",
          "type": "address"
        }
      ],
      "name": "removeBattery",
      "outputs": [],
      "payable": false,
      "stateMutability": "nonpayable",
      "type": "function"
    },
    {
      "constant": true,
      "inputs": [
        {
          "internalType": "address",
          "name": "batteryID",
          "type": "address"
        }
      ],
      "name": "getBatteryByID",
      "outputs": [
        {
          "internalType": "address",
          "name": "",
          "type": "address"
        },
        {
          "internalType": "string",
          "name": "",
          "type": "string"
        },
        {
          "internalType": "uint32",
          "name": "",
          "type": "uint32"
        }
      ],
      "payable": false,
      "stateMutability": "view",
      "type": "function"
    }
  ],
  "bytecode": "0x60806040523480156200001157600080fd5b5060405162001c1338038062001c13833981810160405262000037919081019062000486565b336000806101000a81548173ffffffffffffffffffffffffffffffffffffffff021916908373ffffffffffffffffffffffffffffffffffffffff16021790555060001515600160003373ffffffffffffffffffffffffffffffffffffffff1673ffffffffffffffffffffffffffffffffffffffff16815260200190815260200160002060020160049054906101000a900460ff1615151462000110576040517f08c379a0000000000000000000000000000000000000000000000000000000008152600401620001079062000522565b60405180910390fd5b60405180608001604052803373ffffffffffffffffffffffffffffffffffffffff1681526020018381526020018263ffffffff16815260200160011515815250600160003373ffffffffffffffffffffffffffffffffffffffff1673ffffffffffffffffffffffffffffffffffffffff16815260200190815260200160002060008201518160000160006101000a81548173ffffffffffffffffffffffffffffffffffffffff021916908373ffffffffffffffffffffffffffffffffffffffff1602179055506020820151816001019080519060200190620001f492919062000364565b5060408201518160020160006101000a81548163ffffffff021916908363ffffffff16021790555060608201518160020160046101000a81548160ff021916908315150217905550905050600260405180608001604052803373ffffffffffffffffffffffffffffffffffffffff1681526020018481526020018363ffffffff168152602001600115158152509080600181540180825580915050906001820390600052602060002090600302016000909192909190915060008201518160000160006101000a81548173ffffffffffffffffffffffffffffffffffffffff021916908373ffffffffffffffffffffffffffffffffffffffff16021790555060208201518160010190805190602001906200031192919062000364565b5060408201518160020160006101000a81548163ffffffff021916908363ffffffff16021790555060608201518160020160046101000a81548160ff021916908315150217905550505050505062000610565b828054600181600116156101000203166002900490600052602060002090601f016020900481019282601f10620003a757805160ff1916838001178555620003d8565b82800160010185558215620003d8579182015b82811115620003d7578251825591602001919060010190620003ba565b5b509050620003e79190620003eb565b5090565b6200041091905b808211156200040c576000816000905550600101620003f2565b5090565b90565b600082601f8301126200042557600080fd5b81516200043c620004368262000572565b62000544565b915080825260208301602083018583830111156200045957600080fd5b62000466838284620005c0565b50505092915050565b6000815190506200048081620005f6565b92915050565b600080604083850312156200049a57600080fd5b600083015167ffffffffffffffff811115620004b557600080fd5b620004c38582860162000413565b9250506020620004d6858286016200046f565b9150509250929050565b6000620004ef601d836200059f565b91507f426174746572792064657461696c7320616c72656164792061646465640000006000830152602082019050919050565b600060208201905081810360008301526200053d81620004e0565b9050919050565b6000604051905081810181811067ffffffffffffffff821117156200056857600080fd5b8060405250919050565b600067ffffffffffffffff8211156200058a57600080fd5b601f19601f8301169050602081019050919050565b600082825260208201905092915050565b600063ffffffff82169050919050565b60005b83811015620005e0578082015181840152602081019050620005c3565b83811115620005f0576000848401525b50505050565b6200060181620005b0565b81146200060d57600080fd5b50565b6115f380620006206000396000f3fe608060405234801561001057600080fd5b506004361061007d5760003560e01c8063b47c77411161005b578063b47c774114610103578063bc2d265714610121578063c9fb85781461013d578063eefa716b1461016f5761007d565b8063791e13721461008257806386b6c85a146100b55780638da5cb5b146100e5575b600080fd5b61009c60048036036100979190810190611014565b61018b565b6040516100ac949392919061132d565b60405180910390f35b6100cf60048036036100ca9190810190610fc0565b61029d565b6040516100dc919061139b565b60405180910390f35b6100ed610616565b6040516100fa91906112d4565b60405180910390f35b61010b61063b565b6040516101189190611379565b60405180910390f35b61013b60048036036101369190810190610f43565b6107d3565b005b61015760048036036101529190810190610f43565b61098f565b604051610166939291906112ef565b60405180910390f35b61018960048036036101849190810190610f6c565b610b36565b005b6002818154811061019857fe5b90600052602060002090600302016000915090508060000160009054906101000a900473ffffffffffffffffffffffffffffffffffffffff1690806001018054600181600116156101000203166002900480601f01602080910402602001604051908101604052809291908181526020018280546001816001161561010002031660029004801561026a5780601f1061023f5761010080835404028352916020019161026a565b820191906000526020600020905b81548152906001019060200180831161024d57829003601f168201915b5050505050908060020160009054906101000a900463ffffffff16908060020160049054906101000a900460ff16905084565b60008060009054906101000a900473ffffffffffffffffffffffffffffffffffffffff1673ffffffffffffffffffffffffffffffffffffffff163373ffffffffffffffffffffffffffffffffffffffff161461032e576040517f08c379a0000000000000000000000000000000000000000000000000000000008152600401610325906113b6565b60405180910390fd5b60001515600160003373ffffffffffffffffffffffffffffffffffffffff1673ffffffffffffffffffffffffffffffffffffffff16815260200190815260200160002060020160049054906101000a900460ff161515146103c4576040517f08c379a00000000000000000000000000000000000000000000000000000000081526004016103bb906113d6565b60405180910390fd5b60405180608001604052803373ffffffffffffffffffffffffffffffffffffffff1681526020018481526020018363ffffffff16815260200160011515815250600160003373ffffffffffffffffffffffffffffffffffffffff1673ffffffffffffffffffffffffffffffffffffffff16815260200190815260200160002060008201518160000160006101000a81548173ffffffffffffffffffffffffffffffffffffffff021916908373ffffffffffffffffffffffffffffffffffffffff16021790555060208201518160010190805190602001906104a6929190610c90565b5060408201518160020160006101000a81548163ffffffff021916908363ffffffff16021790555060608201518160020160046101000a81548160ff021916908315150217905550905050600260405180608001604052803373ffffffffffffffffffffffffffffffffffffffff1681526020018581526020018463ffffffff168152602001600115158152509080600181540180825580915050906001820390600052602060002090600302016000909192909190915060008201518160000160006101000a81548173ffffffffffffffffffffffffffffffffffffffff021916908373ffffffffffffffffffffffffffffffffffffffff16021790555060208201518160010190805190602001906105c1929190610c90565b5060408201518160020160006101000a81548163ffffffff021916908363ffffffff16021790555060608201518160020160046101000a81548160ff0219169083151502179055505050506001905092915050565b6000809054906101000a900473ffffffffffffffffffffffffffffffffffffffff1681565b60606002805480602002602001604051908101604052809291908181526020016000905b828210156107ca57838290600052602060002090600302016040518060800160405290816000820160009054906101000a900473ffffffffffffffffffffffffffffffffffffffff1673ffffffffffffffffffffffffffffffffffffffff1673ffffffffffffffffffffffffffffffffffffffff168152602001600182018054600181600116156101000203166002900480601f0160208091040260200160405190810160405280929190818152602001828054600181600116156101000203166002900480156107715780601f1061074657610100808354040283529160200191610771565b820191906000526020600020905b81548152906001019060200180831161075457829003601f168201915b505050505081526020016002820160009054906101000a900463ffffffff1663ffffffff1663ffffffff1681526020016002820160049054906101000a900460ff1615151515815250508152602001906001019061065f565b50505050905090565b6000809054906101000a900473ffffffffffffffffffffffffffffffffffffffff1673ffffffffffffffffffffffffffffffffffffffff163373ffffffffffffffffffffffffffffffffffffffff1614610862576040517f08c379a0000000000000000000000000000000000000000000000000000000008152600401610859906113b6565b60405180910390fd5b60008090505b60028054905081101561098b578173ffffffffffffffffffffffffffffffffffffffff166002828154811061089957fe5b906000526020600020906003020160000160009054906101000a900473ffffffffffffffffffffffffffffffffffffffff1673ffffffffffffffffffffffffffffffffffffffff16141561097e57600281815481106108f457fe5b9060005260206000209060030201600080820160006101000a81549073ffffffffffffffffffffffffffffffffffffffff021916905560018201600061093a9190610d10565b6002820160006101000a81549063ffffffff02191690556002820160046101000a81549060ff02191690555050600280548091906001900361097c9190610d58565b505b8080600101915050610868565b5050565b600060606000600160008573ffffffffffffffffffffffffffffffffffffffff1673ffffffffffffffffffffffffffffffffffffffff16815260200190815260200160002060000160009054906101000a900473ffffffffffffffffffffffffffffffffffffffff16600160008673ffffffffffffffffffffffffffffffffffffffff1673ffffffffffffffffffffffffffffffffffffffff168152602001908152602001600020600101600160008773ffffffffffffffffffffffffffffffffffffffff1673ffffffffffffffffffffffffffffffffffffffff16815260200190815260200160002060020160009054906101000a900463ffffffff16818054600181600116156101000203166002900480601f016020809104026020016040519081016040528092919081815260200182805460018160011615610100020316600290048015610b225780601f10610af757610100808354040283529160200191610b22565b820191906000526020600020905b815481529060010190602001808311610b0557829003601f168201915b505050505091509250925092509193909250565b6000809054906101000a900473ffffffffffffffffffffffffffffffffffffffff1673ffffffffffffffffffffffffffffffffffffffff163373ffffffffffffffffffffffffffffffffffffffff1614610bc5576040517f08c379a0000000000000000000000000000000000000000000000000000000008152600401610bbc906113b6565b60405180910390fd5b60008090505b600280549050811015610c8b578273ffffffffffffffffffffffffffffffffffffffff1660028281548110610bfc57fe5b906000526020600020906003020160000160009054906101000a900473ffffffffffffffffffffffffffffffffffffffff1673ffffffffffffffffffffffffffffffffffffffff161415610c7e578160028281548110610c5857fe5b90600052602060002090600302016001019080519060200190610c7c929190610d8a565b505b8080600101915050610bcb565b505050565b828054600181600116156101000203166002900490600052602060002090601f016020900481019282601f10610cd157805160ff1916838001178555610cff565b82800160010185558215610cff579182015b82811115610cfe578251825591602001919060010190610ce3565b5b509050610d0c9190610e0a565b5090565b50805460018160011615610100020316600290046000825580601f10610d365750610d55565b601f016020900490600052602060002090810190610d549190610e0a565b5b50565b815481835581811115610d8557600302816003028360005260206000209182019101610d849190610e2f565b5b505050565b828054600181600116156101000203166002900490600052602060002090601f016020900481019282601f10610dcb57805160ff1916838001178555610df9565b82800160010185558215610df9579182015b82811115610df8578251825591602001919060010190610ddd565b5b509050610e069190610e0a565b5090565b610e2c91905b80821115610e28576000816000905550600101610e10565b5090565b90565b610ead91905b80821115610ea957600080820160006101000a81549073ffffffffffffffffffffffffffffffffffffffff0219169055600182016000610e759190610d10565b6002820160006101000a81549063ffffffff02191690556002820160046101000a81549060ff021916905550600301610e35565b5090565b90565b600081359050610ebf8161156b565b92915050565b600082601f830112610ed657600080fd5b8135610ee9610ee482611423565b6113f6565b91508082526020830160208301858383011115610f0557600080fd5b610f10838284611518565b50505092915050565b600081359050610f2881611582565b92915050565b600081359050610f3d81611599565b92915050565b600060208284031215610f5557600080fd5b6000610f6384828501610eb0565b91505092915050565b60008060408385031215610f7f57600080fd5b6000610f8d85828601610eb0565b925050602083013567ffffffffffffffff811115610faa57600080fd5b610fb685828601610ec5565b9150509250929050565b60008060408385031215610fd357600080fd5b600083013567ffffffffffffffff811115610fed57600080fd5b610ff985828601610ec5565b925050602061100a85828601610f2e565b9150509250929050565b60006020828403121561102657600080fd5b600061103484828501610f19565b91505092915050565b60006110498383611253565b905092915050565b61105a816114c0565b82525050565b611069816114c0565b82525050565b600061107a8261145f565b611084818561148d565b9350836020820285016110968561144f565b8060005b858110156110d257848403895281516110b3858261103d565b94506110be83611480565b925060208a0199505060018101905061109a565b50829750879550505050505092915050565b6110ed816114d2565b82525050565b6110fc816114d2565b82525050565b600061110d82611475565b61111781856114af565b9350611127818560208601611527565b6111308161155a565b840191505092915050565b60006111468261146a565b611150818561149e565b9350611160818560208601611527565b6111698161155a565b840191505092915050565b600061117f8261146a565b61118981856114af565b9350611199818560208601611527565b6111a28161155a565b840191505092915050565b60006111ba6022836114af565b91507f4f6e6c79206f776e65722063616e2063616c6c20746869732066756e6374696f60008301527f6e2e0000000000000000000000000000000000000000000000000000000000006020830152604082019050919050565b6000611220601d836114af565b91507f426174746572792064657461696c7320616c72656164792061646465640000006000830152602082019050919050565b600060808301600083015161126b6000860182611051565b5060208301518482036020860152611283828261113b565b915050604083015161129860408601826112b6565b5060608301516112ab60608601826110e4565b508091505092915050565b6112bf81611508565b82525050565b6112ce81611508565b82525050565b60006020820190506112e96000830184611060565b92915050565b60006060820190506113046000830186611060565b81810360208301526113168185611102565b905061132560408301846112c5565b949350505050565b60006080820190506113426000830187611060565b81810360208301526113548186611174565b905061136360408301856112c5565b61137060608301846110f3565b95945050505050565b60006020820190508181036000830152611393818461106f565b905092915050565b60006020820190506113b060008301846110f3565b92915050565b600060208201905081810360008301526113cf816111ad565b9050919050565b600060208201905081810360008301526113ef81611213565b9050919050565b6000604051905081810181811067ffffffffffffffff8211171561141957600080fd5b8060405250919050565b600067ffffffffffffffff82111561143a57600080fd5b601f19601f8301169050602081019050919050565b6000819050602082019050919050565b600081519050919050565b600081519050919050565b600081519050919050565b6000602082019050919050565b600082825260208201905092915050565b600082825260208201905092915050565b600082825260208201905092915050565b60006114cb826114de565b9050919050565b60008115159050919050565b600073ffffffffffffffffffffffffffffffffffffffff82169050919050565b6000819050919050565b600063ffffffff82169050919050565b82818337600083830152505050565b60005b8381101561154557808201518184015260208101905061152a565b83811115611554576000848401525b50505050565b6000601f19601f8301169050919050565b611574816114c0565b811461157f57600080fd5b50565b61158b816114fe565b811461159657600080fd5b50565b6115a281611508565b81146115ad57600080fd5b5056fea365627a7a72315820364fbe083d113c94e5704c221e37e55c0a7d587ef12ce3d9bee77b2f6e45caf16c6578706572696d656e74616cf564736f6c63430005100040",
  "source": "pragma solidity >=0.4.21 <0.7.0;\r\npragma experimental ABIEncoderV2;\r\n\r\n/********owned Contract********/\r\n//Create a contract owner\r\ncontract owned {\r\n    \r\n    address public owner;\r\n    \r\n    constructor() public {\r\n        owner = msg.sender;\r\n    }\r\n    \r\n    modifier onlyOwner {\r\n        require(msg.sender == owner, \"Only owner can call this function.\");\r\n         _;\r\n    }\r\n}\r\n\r\n/********batteryRegistry Contract********/\r\n//Contract that allows battery address to be registered\r\ncontract batteryRegistry is owned {\r\n\r\n    struct battery {\r\n        address batteryID;            //batteryID is Owner of battery ethereum address\r\n        string nameOfBatteryOwner;    //Name of battery owner \r\n        uint32 date;                  //Creation date\r\n        bool isExist;                 //Check if battery exist into addNewBattery function\r\n    }\r\n\r\n    //mapping address as key to struct battery with mapping name batteries\r\n    mapping (address => battery) batteries;\r\n    battery[] public listOfBatteries;\r\n\r\n    /*\r\n    constructor () public{\r\n        addNewBattery(msg.sender, \"chris\", 123);\r\n    }\r\n     */\r\n\r\n    constructor (string memory nameOfBatteryOwner, uint32 date) public{\r\n        //batteryID = msg.sender;\r\n        require(batteries[msg.sender].isExist==false, \"Battery details already added\");\r\n        batteries[msg.sender] = battery(msg.sender, nameOfBatteryOwner, date, true);\r\n\r\n        listOfBatteries.push(battery({\r\n            batteryID: msg.sender,\r\n            nameOfBatteryOwner: nameOfBatteryOwner,\r\n            date: date,\r\n            isExist: true\r\n            }));\r\n    }\r\n\r\n    //add a battery\r\n    function addNewBattery (string memory nameOfBatteryOwner, uint32 date) public onlyOwner returns(bool) {\r\n        //batteryID = msg.sender;\r\n        require(batteries[msg.sender].isExist==false, \"Battery details already added\");\r\n        batteries[msg.sender] = battery(msg.sender, nameOfBatteryOwner, date, true);\r\n\r\n        listOfBatteries.push(battery({\r\n            batteryID: msg.sender,\r\n            nameOfBatteryOwner: nameOfBatteryOwner,\r\n            date: date,\r\n            isExist: true\r\n            }));\r\n        return true;\r\n    }\r\n\r\n    //to view all batteries\r\n    function viewAllBatteries () public view returns (battery[] memory){\r\n        return listOfBatteries;\r\n    }\r\n\r\n    //change details of a battery\r\n    function updateBattery(address batteryID, string memory nameOfBatteryOwner) public onlyOwner{\r\n        for(uint i = 0; i<listOfBatteries.length; i++){\r\n            if(listOfBatteries[i].batteryID == batteryID){\r\n                listOfBatteries[i].nameOfBatteryOwner = nameOfBatteryOwner;\r\n            }\r\n        }\r\n    }\r\n\r\n    //delete a battery by batteryID\r\n    function removeBattery(address batteryID) public onlyOwner{\r\n        for(uint i = 0; i<listOfBatteries.length; i++){\r\n            if(listOfBatteries[i].batteryID == batteryID){\r\n                delete listOfBatteries[i];\r\n                listOfBatteries.length--;\r\n            }\r\n        }\r\n    }\r\n\r\n    //view single battery by battery id\r\n    function getBatteryByID(address batteryID) public view returns (address, string memory, uint32){\r\n        return (batteries[batteryID].batteryID, batteries[batteryID].nameOfBatteryOwner, batteries[batteryID].date);\r\n    }\r\n}\r\n\r\n/********energyBid Contract********/\r\n//Contract for energy offers from current batteries\r\ncontract energyBid is owned, batteryRegistry {\r\n\r\n    uint64 constant mWh = 1;\r\n    uint64 constant Wh = 1000 * mWh;\r\n    uint64 constant kWh = 1000 * Wh;\r\n    uint64 constant MWh = 1000 * kWh;\r\n    uint64 constant GWh = 1000 * MWh;\r\n    uint64 constant TWh = 1000 * GWh;\r\n\r\n    struct bid{\r\n        address batteryID;    //battery public key\r\n        uint numberOfBid;     //A battery can create more than one energy offer\r\n        uint32 day;           //day for which the offer is valid\r\n        uint32 price;         //price vs market price\r\n        uint64 energy;        //energy to trade\r\n        uint64 timestamp;     //timestamp for when the bid was created\r\n    }\r\n    \r\n    struct Ask {\r\n        address batteryID;\r\n        uint64 energy;\r\n        uint64 timestamp;\r\n        uint32 day;\r\n        uint numberOfAsk;     \r\n    }\r\n    \r\n    mapping(address => mapping(uint32 => mapping(uint=> uint))) public asks;\r\n    Ask[] public listOfAsks;\r\n    uint nextNumberOfAsk;\r\n\r\n    mapping(address => mapping(uint32 => mapping(uint=> uint))) public bids;\r\n    bid[] public listOfBids;\r\n    uint nextNumberOfBid;  \r\n\r\n    /*\r\n    constructor () public{                            \r\n        energyOffer(msg.sender, 20052020, 130, 1000000, 1618653420);   \r\n    } \r\n     */  \r\n\r\n    constructor (uint32 _day, uint32 _price, uint64 _energy, uint64 _timestamp) public{\r\n        require(batteries[msg.sender].isExist==true, \"Battery details are not exist\");\r\n        require(_energy >= kWh, \"Wrong energy input require a minimum offer of 1 kWh (1.000.000mWh)\");\r\n        uint index = bids[msg.sender][_day][nextNumberOfBid];\r\n\r\n        index = listOfBids.length;\r\n        bids[msg.sender][_day][nextNumberOfBid] = index;\r\n        listOfBids.push(bid({\r\n            batteryID: msg.sender,\r\n            numberOfBid: nextNumberOfBid,\r\n            day: _day,\r\n            price: _price,\r\n            energy: _energy,\r\n            timestamp: _timestamp\r\n        }));\r\n        nextNumberOfBid++;\r\n    }                                          \r\n\r\n    //create energy offer\r\n    function energyOffer(uint32 _day, uint32 _price, uint64 _energy, uint64 _timestamp) public onlyOwner{\r\n        require(batteries[msg.sender].isExist==true, \"Battery details are not exist\");\r\n        require(_energy >= kWh, \"Wrong energy input require a minimum offer of 1 kWh (1.000.000mWh)\");\r\n        uint index = bids[msg.sender][_day][nextNumberOfBid];\r\n\r\n        index = listOfBids.length;\r\n        bids[msg.sender][_day][nextNumberOfBid] = index;\r\n        listOfBids.push(bid({\r\n            batteryID: msg.sender,\r\n            numberOfBid: nextNumberOfBid,\r\n            day: _day,\r\n            price: _price,\r\n            energy: _energy,\r\n            timestamp: _timestamp\r\n        }));\r\n        nextNumberOfBid++;\r\n    }\r\n\r\n    //view all bids \r\n    function viewAllBids () public view returns (bid[] memory){\r\n      return listOfBids;\r\n    }\r\n\r\n    //view single bid by batteryID\r\n    function getBidByBatteryID (address batteryID, uint32 day, uint numberOfBid) public view returns (uint, uint32, uint32, uint64){\r\n        uint index = bids[batteryID][day][numberOfBid];\r\n        require(listOfBids.length > index, \"Wrong index\");\r\n        require(listOfBids[index].day == day, \"There is no offer on this day\");\r\n        require(listOfBids[index].batteryID == batteryID, \"Wrong Battery ID\");\r\n        return (listOfBids[index].numberOfBid, listOfBids[index].day, listOfBids[index].price, listOfBids[index].energy);\r\n        //return (listOfBids[batteryID].day, listOfBids[batteryID].price, listOfBids[batteryID].energy);\r\n    }\r\n\r\n    //Ask energy \r\n    function askEnergy(uint32 _day, uint64 _energy, uint64 _timestamp)  public   {\r\n        uint indexA = asks[msg.sender][_day][nextNumberOfAsk];\r\n        \r\n        indexA = listOfAsks.length;\r\n        listOfAsks.push(Ask({\r\n            batteryID: msg.sender,\r\n            energy: _energy,\r\n            timestamp: _timestamp,\r\n            day:_day,\r\n            numberOfAsk: nextNumberOfAsk\r\n        }));\r\n        nextNumberOfAsk++;\r\n    }\r\n\r\n    //list of all asks\r\n    function viewAllAsks () public view returns (Ask[] memory){\r\n        return listOfAsks;\r\n    }\r\n\r\n    //view single ask by batteryID\r\n    function getAskByBatteryId (address batteryID, uint32 day, uint numberOfAsk) public view returns (uint, uint32, uint64){\r\n        uint indexA = asks[batteryID][day][numberOfAsk];\r\n        require(listOfAsks.length > indexA, \"Wrong index\");\r\n        require(listOfAsks[indexA].day == day, \"There is no demand on this day\");\r\n        require(listOfAsks[indexA].batteryID == batteryID, \"Wrong Battery Id\");\r\n        return (listOfAsks[indexA].numberOfAsk, listOfAsks[indexA].day, listOfAsks[indexA].energy);\r\n        \r\n    }\r\n}",
  "sourcePath": "C:/Users/Lenovo/projects/ethereum/protergia/blockchain-energy-trading-and-green-energy-certification-thesis-w-protergia/src/contracts/Battery.sol",
  "compiler": {
    "name": "solc",
    "version": "0.5.16+commit.9c3226ce.Emscripten.clang"
  },
  "schemaVersion": "3.3.4",
  "updatedAt": "2021-05-16T15:22:49.495Z",
  "devdoc": {
    "methods": {}
  },
  "userdoc": {
    "methods": {},
    "notice": "******batteryRegistry Contract*******"
  }
}