{
  "contractName": "batteryRegistry",
  "abi": [
    {
      "inputs": [],
      "payable": false,
      "stateMutability": "nonpayable",
      "type": "constructor"
    },
    {
      "anonymous": false,
      "inputs": [
        {
          "indexed": true,
          "internalType": "address",
          "name": "batteryID",
          "type": "address"
        }
      ],
      "name": "batteryAdded",
      "type": "event"
    },
    {
      "constant": true,
      "inputs": [
        {
          "internalType": "uint256",
          "name": "",
          "type": "uint256"
        }
      ],
      "name": "listOfBatteries",
      "outputs": [
        {
          "internalType": "address",
          "name": "batteryID",
          "type": "address"
        },
        {
          "internalType": "string",
          "name": "nameOfBatteryOwner",
          "type": "string"
        },
        {
          "internalType": "uint32",
          "name": "date",
          "type": "uint32"
        },
        {
          "internalType": "bool",
          "name": "isExist",
          "type": "bool"
        }
      ],
      "payable": false,
      "stateMutability": "view",
      "type": "function"
    },
    {
      "constant": false,
      "inputs": [
        {
          "internalType": "address",
          "name": "batteryID",
          "type": "address"
        },
        {
          "internalType": "uint32",
          "name": "date",
          "type": "uint32"
        },
        {
          "internalType": "string",
          "name": "nameOfBatteryOwner",
          "type": "string"
        }
      ],
      "name": "addNewBattery",
      "outputs": [
        {
          "internalType": "bool",
          "name": "",
          "type": "bool"
        }
      ],
      "payable": false,
      "stateMutability": "nonpayable",
      "type": "function"
    },
    {
      "constant": true,
      "inputs": [],
      "name": "viewAllBatteries",
      "outputs": [
        {
          "components": [
            {
              "internalType": "address",
              "name": "batteryID",
              "type": "address"
            },
            {
              "internalType": "string",
              "name": "nameOfBatteryOwner",
              "type": "string"
            },
            {
              "internalType": "uint32",
              "name": "date",
              "type": "uint32"
            },
            {
              "internalType": "bool",
              "name": "isExist",
              "type": "bool"
            }
          ],
          "internalType": "struct batteryRegistry.battery[]",
          "name": "",
          "type": "tuple[]"
        }
      ],
      "payable": false,
      "stateMutability": "view",
      "type": "function"
    },
    {
      "constant": false,
      "inputs": [
        {
          "internalType": "address",
          "name": "batteryID",
          "type": "address"
        },
        {
          "internalType": "string",
          "name": "nameOfBatteryOwner",
          "type": "string"
        }
      ],
      "name": "updateBattery",
      "outputs": [],
      "payable": false,
      "stateMutability": "nonpayable",
      "type": "function"
    },
    {
      "constant": false,
      "inputs": [
        {
          "internalType": "address",
          "name": "batteryID",
          "type": "address"
        }
      ],
      "name": "removeBattery",
      "outputs": [],
      "payable": false,
      "stateMutability": "nonpayable",
      "type": "function"
    },
    {
      "constant": true,
      "inputs": [
        {
          "internalType": "address",
          "name": "batteryID",
          "type": "address"
        }
      ],
      "name": "getBatteryByID",
      "outputs": [
        {
          "internalType": "address",
          "name": "",
          "type": "address"
        },
        {
          "internalType": "string",
          "name": "",
          "type": "string"
        },
        {
          "internalType": "uint32",
          "name": "",
          "type": "uint32"
        }
      ],
      "payable": false,
      "stateMutability": "view",
      "type": "function"
    }
  ],
  "bytecode": "0x60806040523480156200001157600080fd5b50336000806101000a81548173ffffffffffffffffffffffffffffffffffffffff021916908373ffffffffffffffffffffffffffffffffffffffff1602179055506200009b33607b6040518060400160405280600581526020017f6368726973000000000000000000000000000000000000000000000000000000815250620000a260201b60201c565b506200061a565b60008060009054906101000a900473ffffffffffffffffffffffffffffffffffffffff1673ffffffffffffffffffffffffffffffffffffffff163373ffffffffffffffffffffffffffffffffffffffff161462000136576040517f08c379a00000000000000000000000000000000000000000000000000000000081526004016200012d90620005c5565b60405180910390fd5b33935060001515600160008673ffffffffffffffffffffffffffffffffffffffff1673ffffffffffffffffffffffffffffffffffffffff16815260200190815260200160002060020160049054906101000a900460ff16151514620001d2576040517f08c379a0000000000000000000000000000000000000000000000000000000008152600401620001c990620005e7565b60405180910390fd5b60405180608001604052808573ffffffffffffffffffffffffffffffffffffffff1681526020018381526020018463ffffffff16815260200160011515815250600160008673ffffffffffffffffffffffffffffffffffffffff1673ffffffffffffffffffffffffffffffffffffffff16815260200190815260200160002060008201518160000160006101000a81548173ffffffffffffffffffffffffffffffffffffffff021916908373ffffffffffffffffffffffffffffffffffffffff1602179055506020820151816001019080519060200190620002b69291906200046c565b5060408201518160020160006101000a81548163ffffffff021916908363ffffffff16021790555060608201518160020160046101000a81548160ff021916908315150217905550905050600260405180608001604052808673ffffffffffffffffffffffffffffffffffffffff1681526020018481526020018563ffffffff168152602001600115158152509080600181540180825580915050906001820390600052602060002090600302016000909192909190915060008201518160000160006101000a81548173ffffffffffffffffffffffffffffffffffffffff021916908373ffffffffffffffffffffffffffffffffffffffff1602179055506020820151816001019080519060200190620003d39291906200046c565b5060408201518160020160006101000a81548163ffffffff021916908363ffffffff16021790555060608201518160020160046101000a81548160ff0219169083151502179055505050508373ffffffffffffffffffffffffffffffffffffffff167fbf313c3ec3b04ed9423550c08a339ad0bc0efc07b4e7c49ddc12969ccf81e5c360405160405180910390a2600190509392505050565b828054600181600116156101000203166002900490600052602060002090601f016020900481019282601f10620004af57805160ff1916838001178555620004e0565b82800160010185558215620004e0579182015b82811115620004df578251825591602001919060010190620004c2565b5b509050620004ef9190620004f3565b5090565b6200051891905b8082111562000514576000816000905550600101620004fa565b5090565b90565b60006200052a60228362000609565b91507f4f6e6c79206f776e65722063616e2063616c6c20746869732066756e6374696f60008301527f6e2e0000000000000000000000000000000000000000000000000000000000006020830152604082019050919050565b600062000592601d8362000609565b91507f426174746572792064657461696c7320616c72656164792061646465640000006000830152602082019050919050565b60006020820190508181036000830152620005e0816200051b565b9050919050565b60006020820190508181036000830152620006028162000583565b9050919050565b600082825260208201905092915050565b6115d4806200062a6000396000f3fe608060405234801561001057600080fd5b50600436106100625760003560e01c806336fe8b9014610067578063791e137214610097578063b47c7741146100ca578063bc2d2657146100e8578063c9fb857814610104578063eefa716b14610136575b600080fd5b610081600480360361007c9190810190610fa9565b610152565b60405161008e919061137c565b60405180910390f35b6100b160048036036100ac9190810190611010565b610512565b6040516100c1949392919061130e565b60405180910390f35b6100d2610624565b6040516100df919061135a565b60405180910390f35b61010260048036036100fd9190810190610f2c565b6107bc565b005b61011e60048036036101199190810190610f2c565b610978565b60405161012d939291906112d0565b60405180910390f35b610150600480360361014b9190810190610f55565b610b1f565b005b60008060009054906101000a900473ffffffffffffffffffffffffffffffffffffffff1673ffffffffffffffffffffffffffffffffffffffff163373ffffffffffffffffffffffffffffffffffffffff16146101e3576040517f08c379a00000000000000000000000000000000000000000000000000000000081526004016101da90611397565b60405180910390fd5b33935060001515600160008673ffffffffffffffffffffffffffffffffffffffff1673ffffffffffffffffffffffffffffffffffffffff16815260200190815260200160002060020160049054906101000a900460ff1615151461027c576040517f08c379a0000000000000000000000000000000000000000000000000000000008152600401610273906113b7565b60405180910390fd5b60405180608001604052808573ffffffffffffffffffffffffffffffffffffffff1681526020018381526020018463ffffffff16815260200160011515815250600160008673ffffffffffffffffffffffffffffffffffffffff1673ffffffffffffffffffffffffffffffffffffffff16815260200190815260200160002060008201518160000160006101000a81548173ffffffffffffffffffffffffffffffffffffffff021916908373ffffffffffffffffffffffffffffffffffffffff160217905550602082015181600101908051906020019061035e929190610c79565b5060408201518160020160006101000a81548163ffffffff021916908363ffffffff16021790555060608201518160020160046101000a81548160ff021916908315150217905550905050600260405180608001604052808673ffffffffffffffffffffffffffffffffffffffff1681526020018481526020018563ffffffff168152602001600115158152509080600181540180825580915050906001820390600052602060002090600302016000909192909190915060008201518160000160006101000a81548173ffffffffffffffffffffffffffffffffffffffff021916908373ffffffffffffffffffffffffffffffffffffffff1602179055506020820151816001019080519060200190610479929190610c79565b5060408201518160020160006101000a81548163ffffffff021916908363ffffffff16021790555060608201518160020160046101000a81548160ff0219169083151502179055505050508373ffffffffffffffffffffffffffffffffffffffff167fbf313c3ec3b04ed9423550c08a339ad0bc0efc07b4e7c49ddc12969ccf81e5c360405160405180910390a2600190509392505050565b6002818154811061051f57fe5b90600052602060002090600302016000915090508060000160009054906101000a900473ffffffffffffffffffffffffffffffffffffffff1690806001018054600181600116156101000203166002900480601f0160208091040260200160405190810160405280929190818152602001828054600181600116156101000203166002900480156105f15780601f106105c6576101008083540402835291602001916105f1565b820191906000526020600020905b8154815290600101906020018083116105d457829003601f168201915b5050505050908060020160009054906101000a900463ffffffff16908060020160049054906101000a900460ff16905084565b60606002805480602002602001604051908101604052809291908181526020016000905b828210156107b357838290600052602060002090600302016040518060800160405290816000820160009054906101000a900473ffffffffffffffffffffffffffffffffffffffff1673ffffffffffffffffffffffffffffffffffffffff1673ffffffffffffffffffffffffffffffffffffffff168152602001600182018054600181600116156101000203166002900480601f01602080910402602001604051908101604052809291908181526020018280546001816001161561010002031660029004801561075a5780601f1061072f5761010080835404028352916020019161075a565b820191906000526020600020905b81548152906001019060200180831161073d57829003601f168201915b505050505081526020016002820160009054906101000a900463ffffffff1663ffffffff1663ffffffff1681526020016002820160049054906101000a900460ff16151515158152505081526020019060010190610648565b50505050905090565b6000809054906101000a900473ffffffffffffffffffffffffffffffffffffffff1673ffffffffffffffffffffffffffffffffffffffff163373ffffffffffffffffffffffffffffffffffffffff161461084b576040517f08c379a000000000000000000000000000000000000000000000000000000000815260040161084290611397565b60405180910390fd5b60008090505b600280549050811015610974578173ffffffffffffffffffffffffffffffffffffffff166002828154811061088257fe5b906000526020600020906003020160000160009054906101000a900473ffffffffffffffffffffffffffffffffffffffff1673ffffffffffffffffffffffffffffffffffffffff16141561096757600281815481106108dd57fe5b9060005260206000209060030201600080820160006101000a81549073ffffffffffffffffffffffffffffffffffffffff02191690556001820160006109239190610cf9565b6002820160006101000a81549063ffffffff02191690556002820160046101000a81549060ff0219169055505060028054809190600190036109659190610d41565b505b8080600101915050610851565b5050565b600060606000600160008573ffffffffffffffffffffffffffffffffffffffff1673ffffffffffffffffffffffffffffffffffffffff16815260200190815260200160002060000160009054906101000a900473ffffffffffffffffffffffffffffffffffffffff16600160008673ffffffffffffffffffffffffffffffffffffffff1673ffffffffffffffffffffffffffffffffffffffff168152602001908152602001600020600101600160008773ffffffffffffffffffffffffffffffffffffffff1673ffffffffffffffffffffffffffffffffffffffff16815260200190815260200160002060020160009054906101000a900463ffffffff16818054600181600116156101000203166002900480601f016020809104026020016040519081016040528092919081815260200182805460018160011615610100020316600290048015610b0b5780601f10610ae057610100808354040283529160200191610b0b565b820191906000526020600020905b815481529060010190602001808311610aee57829003601f168201915b505050505091509250925092509193909250565b6000809054906101000a900473ffffffffffffffffffffffffffffffffffffffff1673ffffffffffffffffffffffffffffffffffffffff163373ffffffffffffffffffffffffffffffffffffffff1614610bae576040517f08c379a0000000000000000000000000000000000000000000000000000000008152600401610ba590611397565b60405180910390fd5b60008090505b600280549050811015610c74578273ffffffffffffffffffffffffffffffffffffffff1660028281548110610be557fe5b906000526020600020906003020160000160009054906101000a900473ffffffffffffffffffffffffffffffffffffffff1673ffffffffffffffffffffffffffffffffffffffff161415610c67578160028281548110610c4157fe5b90600052602060002090600302016001019080519060200190610c65929190610d73565b505b8080600101915050610bb4565b505050565b828054600181600116156101000203166002900490600052602060002090601f016020900481019282601f10610cba57805160ff1916838001178555610ce8565b82800160010185558215610ce8579182015b82811115610ce7578251825591602001919060010190610ccc565b5b509050610cf59190610df3565b5090565b50805460018160011615610100020316600290046000825580601f10610d1f5750610d3e565b601f016020900490600052602060002090810190610d3d9190610df3565b5b50565b815481835581811115610d6e57600302816003028360005260206000209182019101610d6d9190610e18565b5b505050565b828054600181600116156101000203166002900490600052602060002090601f016020900481019282601f10610db457805160ff1916838001178555610de2565b82800160010185558215610de2579182015b82811115610de1578251825591602001919060010190610dc6565b5b509050610def9190610df3565b5090565b610e1591905b80821115610e11576000816000905550600101610df9565b5090565b90565b610e9691905b80821115610e9257600080820160006101000a81549073ffffffffffffffffffffffffffffffffffffffff0219169055600182016000610e5e9190610cf9565b6002820160006101000a81549063ffffffff02191690556002820160046101000a81549060ff021916905550600301610e1e565b5090565b90565b600081359050610ea88161154c565b92915050565b600082601f830112610ebf57600080fd5b8135610ed2610ecd82611404565b6113d7565b91508082526020830160208301858383011115610eee57600080fd5b610ef98382846114f9565b50505092915050565b600081359050610f1181611563565b92915050565b600081359050610f268161157a565b92915050565b600060208284031215610f3e57600080fd5b6000610f4c84828501610e99565b91505092915050565b60008060408385031215610f6857600080fd5b6000610f7685828601610e99565b925050602083013567ffffffffffffffff811115610f9357600080fd5b610f9f85828601610eae565b9150509250929050565b600080600060608486031215610fbe57600080fd5b6000610fcc86828701610e99565b9350506020610fdd86828701610f17565b925050604084013567ffffffffffffffff811115610ffa57600080fd5b61100686828701610eae565b9150509250925092565b60006020828403121561102257600080fd5b600061103084828501610f02565b91505092915050565b6000611045838361124f565b905092915050565b611056816114a1565b82525050565b611065816114a1565b82525050565b600061107682611440565b611080818561146e565b93508360208202850161109285611430565b8060005b858110156110ce57848403895281516110af8582611039565b94506110ba83611461565b925060208a01995050600181019050611096565b50829750879550505050505092915050565b6110e9816114b3565b82525050565b6110f8816114b3565b82525050565b600061110982611456565b6111138185611490565b9350611123818560208601611508565b61112c8161153b565b840191505092915050565b60006111428261144b565b61114c818561147f565b935061115c818560208601611508565b6111658161153b565b840191505092915050565b600061117b8261144b565b6111858185611490565b9350611195818560208601611508565b61119e8161153b565b840191505092915050565b60006111b6602283611490565b91507f4f6e6c79206f776e65722063616e2063616c6c20746869732066756e6374696f60008301527f6e2e0000000000000000000000000000000000000000000000000000000000006020830152604082019050919050565b600061121c601d83611490565b91507f426174746572792064657461696c7320616c72656164792061646465640000006000830152602082019050919050565b6000608083016000830151611267600086018261104d565b506020830151848203602086015261127f8282611137565b915050604083015161129460408601826112b2565b5060608301516112a760608601826110e0565b508091505092915050565b6112bb816114e9565b82525050565b6112ca816114e9565b82525050565b60006060820190506112e5600083018661105c565b81810360208301526112f781856110fe565b905061130660408301846112c1565b949350505050565b6000608082019050611323600083018761105c565b81810360208301526113358186611170565b905061134460408301856112c1565b61135160608301846110ef565b95945050505050565b60006020820190508181036000830152611374818461106b565b905092915050565b600060208201905061139160008301846110ef565b92915050565b600060208201905081810360008301526113b0816111a9565b9050919050565b600060208201905081810360008301526113d08161120f565b9050919050565b6000604051905081810181811067ffffffffffffffff821117156113fa57600080fd5b8060405250919050565b600067ffffffffffffffff82111561141b57600080fd5b601f19601f8301169050602081019050919050565b6000819050602082019050919050565b600081519050919050565b600081519050919050565b600081519050919050565b6000602082019050919050565b600082825260208201905092915050565b600082825260208201905092915050565b600082825260208201905092915050565b60006114ac826114bf565b9050919050565b60008115159050919050565b600073ffffffffffffffffffffffffffffffffffffffff82169050919050565b6000819050919050565b600063ffffffff82169050919050565b82818337600083830152505050565b60005b8381101561152657808201518184015260208101905061150b565b83811115611535576000848401525b50505050565b6000601f19601f8301169050919050565b611555816114a1565b811461156057600080fd5b50565b61156c816114df565b811461157757600080fd5b50565b611583816114e9565b811461158e57600080fd5b5056fea365627a7a72315820635d0265764e4afcf24d5b93afd4bffb7b84ba4b89052f2a6829fe23562328db6c6578706572696d656e74616cf564736f6c63430005100040",
  "source": "pragma solidity >=0.4.21 <0.7.0;\r\npragma experimental ABIEncoderV2;\r\n\r\n/*----------------------------------------owned Contract----------------------------------------*/\r\n//Create a contract owner\r\ncontract owned {\r\n    \r\n    address owner;\r\n    \r\n    constructor() public {\r\n        owner = msg.sender;\r\n    }\r\n    \r\n    modifier onlyOwner {\r\n        require(msg.sender == owner, \"Only owner can call this function.\");\r\n         _;\r\n    }\r\n}\r\n\r\n/*----------------------------------------batteryRegistry Contract----------------------------------------*/\r\n//Contract that allows battery address to be registered\r\ncontract batteryRegistry is owned {\r\n\r\n    //address public owner;\r\n\r\n    event batteryAdded(address indexed batteryID);\r\n\r\n    struct battery {\r\n        address batteryID;            //batteryID is Owner of battery ethereum address\r\n        string nameOfBatteryOwner;    //Name of battery owner \r\n        uint32 date;                  //Creation date\r\n        bool isExist;                 //Check if battery exist into addNewBattery function\r\n    }\r\n\r\n    //mapping uint as key to struct battery with mapping name batteries\r\n    mapping (address => battery) batteries;\r\n\r\n    battery[] public listOfBatteries;\r\n\r\n    constructor () public{\r\n        addNewBattery(msg.sender, 123, \"chris\");\r\n    }\r\n\r\n    //add a battery\r\n    function addNewBattery (address batteryID, uint32 date, string memory nameOfBatteryOwner) public onlyOwner returns(bool) {\r\n        batteryID = msg.sender;\r\n        require(batteries[batteryID].isExist==false, \"Battery details already added\");\r\n        //batteryID = msg.sender;\r\n        batteries[batteryID] = battery(batteryID, nameOfBatteryOwner, date, true);\r\n\r\n        listOfBatteries.push(battery({\r\n            batteryID: batteryID,\r\n            nameOfBatteryOwner: nameOfBatteryOwner,\r\n            date: date,\r\n            isExist: true\r\n            }));\r\n        emit batteryAdded(batteryID);\r\n        return true;\r\n    }\r\n\r\n    //to view all batteries\r\n    function viewAllBatteries () public view returns (battery[] memory){\r\n        return listOfBatteries;\r\n    }\r\n\r\n    //change details of a battery\r\n    function updateBattery(address batteryID, string memory nameOfBatteryOwner) public onlyOwner{\r\n        for(uint i = 0; i<listOfBatteries.length; i++){\r\n            if(listOfBatteries[i].batteryID == batteryID){\r\n                listOfBatteries[i].nameOfBatteryOwner = nameOfBatteryOwner;\r\n            }\r\n        }\r\n    }\r\n\r\n    //delete a battery by batteryID\r\n    function removeBattery(address batteryID) public onlyOwner{\r\n        for(uint i = 0; i<listOfBatteries.length; i++){\r\n            if(listOfBatteries[i].batteryID == batteryID){\r\n                delete listOfBatteries[i];\r\n                listOfBatteries.length--;\r\n            }\r\n        }\r\n    }\r\n\r\n    //view single battery by battery id\r\n    function getBatteryByID(address batteryID) public view returns (address, string memory, uint32){\r\n        return (batteries[batteryID].batteryID, batteries[batteryID].nameOfBatteryOwner, batteries[batteryID].date);\r\n    }\r\n}\r\n\r\n/*----------------------------------------energyBid Contract----------------------------------------*/\r\n//Contract for energy offers from current batteries\r\ncontract energyBid is batteryRegistry {\r\n\r\n    event bidMade(address indexed batteryID, uint32 indexed day, uint32 indexed price, uint64 energy);\r\n    //event bidRevoked(address indexed batteryID, uint32 indexed day, uint32 indexed price, uint64 energy);\r\n\r\n    uint64 constant mWh = 1;\r\n    uint64 constant Wh = 1000 * mWh;\r\n    uint64 constant kWh = 1000 * Wh;\r\n    uint64 constant MWh = 1000 * kWh;\r\n    uint64 constant GWh = 1000 * MWh;\r\n    uint64 constant TWh = 1000 * GWh;\r\n\r\n    struct bid{\r\n        address batteryID;    //battery public key\r\n        uint numberOfBid;     //A battery can create more than one energy offer\r\n        uint32 day;           //day for which the offer is valid\r\n        uint32 price;         //price vs market price\r\n        uint64 energy;        //energy to trade\r\n        uint64 timestamp;     //timestamp for when the bid was created\r\n    }\r\n\r\n    mapping(address => mapping(uint32 => mapping(uint=> uint))) public bids;\r\n    bid[] public listOfBids;\r\n    uint public nextNumberOfBid; \r\n\r\n    constructor () public{                            \r\n        energyOffer(20052020, 130, 1000, 1618653420);   \r\n    }                                                 \r\n\r\n    //create energy offer\r\n    function energyOffer(uint32 _day, uint32 _price, uint64 _energy, uint64 _timestamp) public onlyOwner{\r\n        require(_energy >= Wh, \"Wrong energy input require a minimum offer of 1 Wh (1000mWh)\");\r\n        uint index = bids[msg.sender][_day][nextNumberOfBid];\r\n\r\n        index = listOfBids.length;\r\n        bids[msg.sender][_day][nextNumberOfBid] = index;\r\n        listOfBids.push(bid({\r\n            batteryID: msg.sender,\r\n            numberOfBid: nextNumberOfBid,\r\n            day: _day,\r\n            price: _price,\r\n            energy: _energy,\r\n            timestamp: _timestamp\r\n        }));\r\n        emit bidMade(listOfBids[index].batteryID, listOfBids[index].day, listOfBids[index].price, listOfBids[index].energy);\r\n        nextNumberOfBid++;\r\n    }\r\n\r\n    //view all bids \r\n    function viewAllBids () public view returns (bid[] memory){\r\n      return listOfBids;\r\n    }\r\n\r\n    //view single bid by batteryID\r\n    function getBidByBatteryID (address batteryID, uint32 day, uint numberOfBid) public view returns (uint, uint32, uint32, uint64){\r\n        uint index = bids[batteryID][day][numberOfBid];\r\n        require(listOfBids.length > index, \"Wrong index\");\r\n        require(listOfBids[index].day == day, \"There is no offer on this day\");\r\n        require(listOfBids[index].batteryID == batteryID, \"Wrong Battery ID\");\r\n        return (listOfBids[index].numberOfBid, listOfBids[index].day, listOfBids[index].price, listOfBids[index].energy);\r\n        //return (listOfBids[batteryID].day, listOfBids[batteryID].price, listOfBids[batteryID].energy);\r\n    }\r\n}",
  "sourcePath": "C:/Users/Lenovo/projects/ethereum/protergia/blockchain-energy-trading-and-green-energy-certification-thesis-w-protergia/src/contracts/Battery.sol",
  "compiler": {
    "name": "solc",
    "version": "0.5.16+commit.9c3226ce.Emscripten.clang"
  },
  "schemaVersion": "3.3.4",
  "updatedAt": "2021-04-20T21:10:42.882Z",
  "devdoc": {
    "methods": {}
  },
  "userdoc": {
    "methods": {}
  }
}