{
  "contractName": "energyBid",
  "abi": [
    {
      "constant": false,
      "inputs": [
        {
          "internalType": "string",
          "name": "uuID",
          "type": "string"
        },
        {
          "internalType": "uint32",
          "name": "date",
          "type": "uint32"
        }
      ],
      "name": "addNewBattery",
      "outputs": [],
      "payable": false,
      "stateMutability": "nonpayable",
      "type": "function"
    },
    {
      "constant": true,
      "inputs": [
        {
          "internalType": "address",
          "name": "batteryID",
          "type": "address"
        }
      ],
      "name": "getBatteryByID",
      "outputs": [
        {
          "internalType": "address",
          "name": "",
          "type": "address"
        },
        {
          "internalType": "string",
          "name": "",
          "type": "string"
        },
        {
          "internalType": "uint32",
          "name": "",
          "type": "uint32"
        }
      ],
      "payable": false,
      "stateMutability": "view",
      "type": "function"
    },
    {
      "constant": true,
      "inputs": [],
      "name": "getCountOfBatteries",
      "outputs": [
        {
          "internalType": "uint256",
          "name": "count",
          "type": "uint256"
        }
      ],
      "payable": false,
      "stateMutability": "view",
      "type": "function"
    },
    {
      "constant": false,
      "inputs": [
        {
          "internalType": "address",
          "name": "batteryID",
          "type": "address"
        },
        {
          "internalType": "string",
          "name": "uuID",
          "type": "string"
        }
      ],
      "name": "updateBattery",
      "outputs": [],
      "payable": false,
      "stateMutability": "nonpayable",
      "type": "function"
    },
    {
      "constant": true,
      "inputs": [],
      "name": "viewAllBatteries",
      "outputs": [
        {
          "components": [
            {
              "internalType": "address",
              "name": "batteryID",
              "type": "address"
            },
            {
              "internalType": "string",
              "name": "uuID",
              "type": "string"
            },
            {
              "internalType": "uint32",
              "name": "date",
              "type": "uint32"
            },
            {
              "internalType": "bool",
              "name": "isExist",
              "type": "bool"
            }
          ],
          "internalType": "struct batteryRegistry.battery[]",
          "name": "",
          "type": "tuple[]"
        }
      ],
      "payable": false,
      "stateMutability": "view",
      "type": "function"
    },
    {
      "constant": false,
      "inputs": [
        {
          "internalType": "uint32",
          "name": "_day",
          "type": "uint32"
        },
        {
          "internalType": "uint64",
          "name": "_energy",
          "type": "uint64"
        },
        {
          "internalType": "uint64",
          "name": "_timestamp",
          "type": "uint64"
        },
        {
          "internalType": "uint32",
          "name": "_eprice",
          "type": "uint32"
        }
      ],
      "name": "energyOffer",
      "outputs": [],
      "payable": false,
      "stateMutability": "nonpayable",
      "type": "function"
    },
    {
      "constant": false,
      "inputs": [
        {
          "internalType": "uint32",
          "name": "_day",
          "type": "uint32"
        },
        {
          "internalType": "uint64",
          "name": "_energy",
          "type": "uint64"
        },
        {
          "internalType": "uint64",
          "name": "_timestamp",
          "type": "uint64"
        }
      ],
      "name": "askEnergy",
      "outputs": [],
      "payable": false,
      "stateMutability": "nonpayable",
      "type": "function"
    },
    {
      "constant": false,
      "inputs": [
        {
          "components": [
            {
              "internalType": "address",
              "name": "consumerID",
              "type": "address"
            },
            {
              "internalType": "uint64",
              "name": "energy",
              "type": "uint64"
            },
            {
              "internalType": "uint64",
              "name": "timestamp",
              "type": "uint64"
            },
            {
              "internalType": "uint32",
              "name": "day",
              "type": "uint32"
            },
            {
              "internalType": "uint64",
              "name": "remainingEnergy",
              "type": "uint64"
            }
          ],
          "internalType": "struct energyBid.ask",
          "name": "_ask",
          "type": "tuple"
        }
      ],
      "name": "energyTrading",
      "outputs": [],
      "payable": false,
      "stateMutability": "nonpayable",
      "type": "function"
    },
    {
      "constant": true,
      "inputs": [],
      "name": "viewAllAsks",
      "outputs": [
        {
          "components": [
            {
              "internalType": "address",
              "name": "consumerID",
              "type": "address"
            },
            {
              "internalType": "uint64",
              "name": "energy",
              "type": "uint64"
            },
            {
              "internalType": "uint64",
              "name": "timestamp",
              "type": "uint64"
            },
            {
              "internalType": "uint32",
              "name": "day",
              "type": "uint32"
            },
            {
              "internalType": "uint64",
              "name": "remainingEnergy",
              "type": "uint64"
            }
          ],
          "internalType": "struct energyBid.ask[]",
          "name": "",
          "type": "tuple[]"
        }
      ],
      "payable": false,
      "stateMutability": "view",
      "type": "function"
    },
    {
      "constant": true,
      "inputs": [],
      "name": "getCountOfAsks",
      "outputs": [
        {
          "internalType": "uint256",
          "name": "count",
          "type": "uint256"
        }
      ],
      "payable": false,
      "stateMutability": "view",
      "type": "function"
    },
    {
      "constant": true,
      "inputs": [
        {
          "internalType": "address",
          "name": "_consumerID",
          "type": "address"
        }
      ],
      "name": "getAskByBatteryId",
      "outputs": [
        {
          "internalType": "address",
          "name": "",
          "type": "address"
        },
        {
          "internalType": "uint32",
          "name": "",
          "type": "uint32"
        },
        {
          "internalType": "uint64",
          "name": "",
          "type": "uint64"
        }
      ],
      "payable": false,
      "stateMutability": "view",
      "type": "function"
    },
    {
      "constant": true,
      "inputs": [],
      "name": "viewAllEnergyPurchases",
      "outputs": [
        {
          "components": [
            {
              "internalType": "address",
              "name": "consumerID",
              "type": "address"
            },
            {
              "internalType": "address",
              "name": "prosumerID",
              "type": "address"
            },
            {
              "internalType": "uint64",
              "name": "energy",
              "type": "uint64"
            },
            {
              "internalType": "uint256",
              "name": "price",
              "type": "uint256"
            },
            {
              "internalType": "uint32",
              "name": "day",
              "type": "uint32"
            },
            {
              "internalType": "uint64",
              "name": "timestamp",
              "type": "uint64"
            }
          ],
          "internalType": "struct energyBid.buyedEnergy[]",
          "name": "",
          "type": "tuple[]"
        }
      ],
      "payable": false,
      "stateMutability": "view",
      "type": "function"
    },
    {
      "constant": true,
      "inputs": [],
      "name": "viewAllBids",
      "outputs": [
        {
          "components": [
            {
              "internalType": "address",
              "name": "prosumerID",
              "type": "address"
            },
            {
              "internalType": "uint256",
              "name": "numberOfBid",
              "type": "uint256"
            },
            {
              "internalType": "uint32",
              "name": "day",
              "type": "uint32"
            },
            {
              "internalType": "uint64",
              "name": "energy",
              "type": "uint64"
            },
            {
              "internalType": "uint32",
              "name": "eprice",
              "type": "uint32"
            },
            {
              "internalType": "uint64",
              "name": "timestamp",
              "type": "uint64"
            }
          ],
          "internalType": "struct energyBid.bid[]",
          "name": "",
          "type": "tuple[]"
        }
      ],
      "payable": false,
      "stateMutability": "view",
      "type": "function"
    },
    {
      "constant": true,
      "inputs": [],
      "name": "getCountOfBids",
      "outputs": [
        {
          "internalType": "uint256",
          "name": "count",
          "type": "uint256"
        }
      ],
      "payable": false,
      "stateMutability": "view",
      "type": "function"
    },
    {
      "constant": true,
      "inputs": [
        {
          "internalType": "address",
          "name": "prosumerID",
          "type": "address"
        },
        {
          "internalType": "uint32",
          "name": "day",
          "type": "uint32"
        },
        {
          "internalType": "uint256",
          "name": "numberOfBid",
          "type": "uint256"
        }
      ],
      "name": "getBidByBatteryID",
      "outputs": [
        {
          "internalType": "uint256",
          "name": "",
          "type": "uint256"
        },
        {
          "internalType": "uint32",
          "name": "",
          "type": "uint32"
        },
        {
          "internalType": "uint64",
          "name": "",
          "type": "uint64"
        }
      ],
      "payable": false,
      "stateMutability": "view",
      "type": "function"
    }
  ],
  "bytecode": "0x6080604052336000806101000a81548173ffffffffffffffffffffffffffffffffffffffff021916908373ffffffffffffffffffffffffffffffffffffffff160217905550613939806100536000396000f3fe608060405234801561001057600080fd5b50600436106100f55760003560e01c80638b4a3c1211610097578063c13c7cff11610066578063c13c7cff14610250578063c26d4ce614610282578063c9fb8578146102a0578063eefa716b146102d2576100f5565b80638b4a3c12146101da5780639521db24146101f6578063a426c76814610214578063b47c774114610232576100f5565b806362e9a430116100d357806362e9a430146101525780636e1d8a591461018457806386b6c85a146101a057806387bdb206146101bc576100f5565b80630a1b163a146100fa57806344da1a94146101165780635b4cf93c14610134575b600080fd5b610114600480360361010f9190810190612c4b565b6102ee565b005b61011e610fd4565b60405161012b9190613614565b60405180910390f35b61013c610fe1565b60405161014991906134d0565b60405180910390f35b61016c60048036036101679190810190612b2b565b611150565b60405161017b93929190613455565b60405180910390f35b61019e60048036036101999190810190612cc3565b61133a565b005b6101ba60048036036101b59190810190612bf7565b6115d2565b005b6101c46118b4565b6040516101d1919061348c565b60405180910390f35b6101f460048036036101ef9190810190612c74565b611a25565b005b6101fe611dec565b60405161020b9190613614565b60405180910390f35b61021c611df9565b6040516102299190613614565b60405180910390f35b61023a611e06565b60405161024791906134ae565b60405180910390f35b61026a60048036036102659190810190612ba8565b611f9e565b6040516102799392919061362f565b60405180910390f35b61028a612214565b60405161029791906134f2565b60405180910390f35b6102ba60048036036102b59190810190612b2b565b6123b3565b6040516102c993929190613417565b60405180910390f35b6102ec60048036036102e79190810190612b54565b61255a565b005b60011515600160003373ffffffffffffffffffffffffffffffffffffffff1673ffffffffffffffffffffffffffffffffffffffff16815260200190815260200160002060020160049054906101000a900460ff16151514610384576040517f08c379a000000000000000000000000000000000000000000000000000000000815260040161037b906135b4565b60405180910390fd5b6000600780549050116103cc576040517f08c379a00000000000000000000000000000000000000000000000000000000081526004016103c390613534565b60405180910390fd5b60008160800151905060008090505b600780549050811015610fcf5760008060009050600080905060008090508567ffffffffffffffff166007868154811061041157fe5b906000526020600020906003020160020160049054906101000a900467ffffffffffffffff1667ffffffffffffffff1610156107d7576007858154811061045457fe5b906000526020600020906003020160000160009054906101000a900473ffffffffffffffffffffffffffffffffffffffff1693506007858154811061049557fe5b906000526020600020906003020160020160049054906101000a900467ffffffffffffffff169150600785815481106104ca57fe5b906000526020600020906003020160020160049054906101000a900467ffffffffffffffff168603876080019067ffffffffffffffff16908167ffffffffffffffff16815250506007858154811061051e57fe5b906000526020600020906003020160020160049054906101000a900467ffffffffffffffff16860395506007858154811061055557fe5b906000526020600020906003020160020160049054906101000a900467ffffffffffffffff166007868154811061058857fe5b9060005260206000209060030201600201600c9054906101000a900463ffffffff1663ffffffff160267ffffffffffffffff1690506000600786815481106105cc57fe5b906000526020600020906003020160020160046101000a81548167ffffffffffffffff021916908367ffffffffffffffff16021790555060019250600160078054905011156107bc5760076001600780549050038154811061062a57fe5b90600052602060002090600302016007868154811061064557fe5b90600052602060002090600302016000820160009054906101000a900473ffffffffffffffffffffffffffffffffffffffff168160000160006101000a81548173ffffffffffffffffffffffffffffffffffffffff021916908373ffffffffffffffffffffffffffffffffffffffff160217905550600182015481600101556002820160009054906101000a900463ffffffff168160020160006101000a81548163ffffffff021916908363ffffffff1602179055506002820160049054906101000a900467ffffffffffffffff168160020160046101000a81548167ffffffffffffffff021916908367ffffffffffffffff16021790555060028201600c9054906101000a900463ffffffff1681600201600c6101000a81548163ffffffff021916908363ffffffff1602179055506002820160109054906101000a900467ffffffffffffffff168160020160106101000a81548167ffffffffffffffff021916908367ffffffffffffffff1602179055509050505b60078054809190600190036107d19190612712565b50610c06565b8567ffffffffffffffff16600786815481106107ef57fe5b906000526020600020906003020160020160049054906101000a900467ffffffffffffffff1667ffffffffffffffff161415610afc576007858154811061083257fe5b906000526020600020906003020160000160009054906101000a900473ffffffffffffffffffffffffffffffffffffffff1693508591506007858154811061087657fe5b906000526020600020906003020160020160049054906101000a900467ffffffffffffffff16600786815481106108a957fe5b9060005260206000209060030201600201600c9054906101000a900463ffffffff1663ffffffff160267ffffffffffffffff1690506000600786815481106108ed57fe5b906000526020600020906003020160020160046101000a81548167ffffffffffffffff021916908367ffffffffffffffff160217905550600095506001925060016007805490501115610ae15760076001600780549050038154811061094f57fe5b90600052602060002090600302016007868154811061096a57fe5b90600052602060002090600302016000820160009054906101000a900473ffffffffffffffffffffffffffffffffffffffff168160000160006101000a81548173ffffffffffffffffffffffffffffffffffffffff021916908373ffffffffffffffffffffffffffffffffffffffff160217905550600182015481600101556002820160009054906101000a900463ffffffff168160020160006101000a81548163ffffffff021916908363ffffffff1602179055506002820160049054906101000a900467ffffffffffffffff168160020160046101000a81548167ffffffffffffffff021916908367ffffffffffffffff16021790555060028201600c9054906101000a900463ffffffff1681600201600c6101000a81548163ffffffff021916908363ffffffff1602179055506002820160109054906101000a900467ffffffffffffffff168160020160106101000a81548167ffffffffffffffff021916908367ffffffffffffffff1602179055509050505b6007805480919060019003610af69190612712565b50610c05565b60078581548110610b0957fe5b906000526020600020906003020160000160009054906101000a900473ffffffffffffffffffffffffffffffffffffffff1693508591508560078681548110610b4e57fe5b906000526020600020906003020160020160049054906101000a900467ffffffffffffffff160360078681548110610b8257fe5b906000526020600020906003020160020160046101000a81548167ffffffffffffffff021916908367ffffffffffffffff1602179055508560078681548110610bc757fe5b9060005260206000209060030201600201600c9054906101000a900463ffffffff1663ffffffff160267ffffffffffffffff16905060009550600192505b5b8215610dd55760056040518060c001604052803373ffffffffffffffffffffffffffffffffffffffff1681526020018673ffffffffffffffffffffffffffffffffffffffff1681526020018467ffffffffffffffff168152602001838152602001896060015163ffffffff168152602001896040015167ffffffffffffffff168152509080600181540180825580915050906001820390600052602060002090600402016000909192909190915060008201518160000160006101000a81548173ffffffffffffffffffffffffffffffffffffffff021916908373ffffffffffffffffffffffffffffffffffffffff16021790555060208201518160010160006101000a81548173ffffffffffffffffffffffffffffffffffffffff021916908373ffffffffffffffffffffffffffffffffffffffff16021790555060408201518160010160146101000a81548167ffffffffffffffff021916908367ffffffffffffffff1602179055506060820151816002015560808201518160030160006101000a81548163ffffffff021916908363ffffffff16021790555060a08201518160030160046101000a81548167ffffffffffffffff021916908367ffffffffffffffff1602179055505050505b60008667ffffffffffffffff161415610fbe5760016004805490501115610f9f57600460016004805490500381548110610e0b57fe5b906000526020600020906002020160048681548110610e2657fe5b90600052602060002090600202016000820160009054906101000a900473ffffffffffffffffffffffffffffffffffffffff168160000160006101000a81548173ffffffffffffffffffffffffffffffffffffffff021916908373ffffffffffffffffffffffffffffffffffffffff1602179055506000820160149054906101000a900467ffffffffffffffff168160000160146101000a81548167ffffffffffffffff021916908367ffffffffffffffff1602179055506001820160009054906101000a900467ffffffffffffffff168160010160006101000a81548167ffffffffffffffff021916908367ffffffffffffffff1602179055506001820160089054906101000a900463ffffffff168160010160086101000a81548163ffffffff021916908363ffffffff16021790555060018201600c9054906101000a900467ffffffffffffffff1681600101600c6101000a81548167ffffffffffffffff021916908367ffffffffffffffff1602179055509050505b6004805480919060019003610fb49190612744565b5050505050610fcf565b5050505080806001019150506103db565b505050565b6000600280549050905090565b60606007805480602002602001604051908101604052809291908181526020016000905b8282101561114757838290600052602060002090600302016040518060c00160405290816000820160009054906101000a900473ffffffffffffffffffffffffffffffffffffffff1673ffffffffffffffffffffffffffffffffffffffff1673ffffffffffffffffffffffffffffffffffffffff168152602001600182015481526020016002820160009054906101000a900463ffffffff1663ffffffff1663ffffffff1681526020016002820160049054906101000a900467ffffffffffffffff1667ffffffffffffffff1667ffffffffffffffff16815260200160028201600c9054906101000a900463ffffffff1663ffffffff1663ffffffff1681526020016002820160109054906101000a900467ffffffffffffffff1667ffffffffffffffff1667ffffffffffffffff168152505081526020019060010190611005565b50505050905090565b600080600080600360008673ffffffffffffffffffffffffffffffffffffffff1673ffffffffffffffffffffffffffffffffffffffff16815260200190815260200160002054905080600480549050116111df576040517f08c379a00000000000000000000000000000000000000000000000000000000081526004016111d690613594565b60405180910390fd5b8473ffffffffffffffffffffffffffffffffffffffff166004828154811061120357fe5b906000526020600020906002020160000160009054906101000a900473ffffffffffffffffffffffffffffffffffffffff1673ffffffffffffffffffffffffffffffffffffffff161461128b576040517f08c379a000000000000000000000000000000000000000000000000000000000815260040161128290613574565b60405180910390fd5b6004818154811061129857fe5b906000526020600020906002020160000160009054906101000a900473ffffffffffffffffffffffffffffffffffffffff16600482815481106112d757fe5b906000526020600020906002020160010160089054906101000a900463ffffffff166004838154811061130657fe5b906000526020600020906002020160000160149054906101000a900467ffffffffffffffff16935093509350509193909250565b60011515600160003373ffffffffffffffffffffffffffffffffffffffff1673ffffffffffffffffffffffffffffffffffffffff16815260200190815260200160002060020160049054906101000a900460ff161515146113d0576040517f08c379a00000000000000000000000000000000000000000000000000000000081526004016113c7906135b4565b60405180910390fd5b600167ffffffffffffffff168367ffffffffffffffff161015611428576040517f08c379a000000000000000000000000000000000000000000000000000000000815260040161141f90613554565b60405180910390fd5b60076040518060c001604052803373ffffffffffffffffffffffffffffffffffffffff16815260200160085481526020018663ffffffff1681526020018567ffffffffffffffff1681526020018363ffffffff1681526020018467ffffffffffffffff168152509080600181540180825580915050906001820390600052602060002090600302016000909192909190915060008201518160000160006101000a81548173ffffffffffffffffffffffffffffffffffffffff021916908373ffffffffffffffffffffffffffffffffffffffff1602179055506020820151816001015560408201518160020160006101000a81548163ffffffff021916908363ffffffff16021790555060608201518160020160046101000a81548167ffffffffffffffff021916908367ffffffffffffffff160217905550608082015181600201600c6101000a81548163ffffffff021916908363ffffffff16021790555060a08201518160020160106101000a81548167ffffffffffffffff021916908367ffffffffffffffff16021790555050505060086000815480929190600101919050555050505050565b60001515600160003373ffffffffffffffffffffffffffffffffffffffff1673ffffffffffffffffffffffffffffffffffffffff16815260200190815260200160002060020160049054906101000a900460ff16151514611668576040517f08c379a000000000000000000000000000000000000000000000000000000000815260040161165f906135f4565b60405180910390fd5b60405180608001604052803373ffffffffffffffffffffffffffffffffffffffff1681526020018381526020018263ffffffff16815260200160011515815250600160003373ffffffffffffffffffffffffffffffffffffffff1673ffffffffffffffffffffffffffffffffffffffff16815260200190815260200160002060008201518160000160006101000a81548173ffffffffffffffffffffffffffffffffffffffff021916908373ffffffffffffffffffffffffffffffffffffffff160217905550602082015181600101908051906020019061174a929190612776565b5060408201518160020160006101000a81548163ffffffff021916908363ffffffff16021790555060608201518160020160046101000a81548160ff021916908315150217905550905050600260405180608001604052803373ffffffffffffffffffffffffffffffffffffffff1681526020018481526020018363ffffffff168152602001600115158152509080600181540180825580915050906001820390600052602060002090600302016000909192909190915060008201518160000160006101000a81548173ffffffffffffffffffffffffffffffffffffffff021916908373ffffffffffffffffffffffffffffffffffffffff1602179055506020820151816001019080519060200190611865929190612776565b5060408201518160020160006101000a81548163ffffffff021916908363ffffffff16021790555060608201518160020160046101000a81548160ff0219169083151502179055505050505050565b60606004805480602002602001604051908101604052809291908181526020016000905b82821015611a1c57838290600052602060002090600202016040518060a00160405290816000820160009054906101000a900473ffffffffffffffffffffffffffffffffffffffff1673ffffffffffffffffffffffffffffffffffffffff1673ffffffffffffffffffffffffffffffffffffffff1681526020016000820160149054906101000a900467ffffffffffffffff1667ffffffffffffffff1667ffffffffffffffff1681526020016001820160009054906101000a900467ffffffffffffffff1667ffffffffffffffff1667ffffffffffffffff1681526020016001820160089054906101000a900463ffffffff1663ffffffff1663ffffffff16815260200160018201600c9054906101000a900467ffffffffffffffff1667ffffffffffffffff1667ffffffffffffffff1681525050815260200190600101906118d8565b50505050905090565b60011515600160003373ffffffffffffffffffffffffffffffffffffffff1673ffffffffffffffffffffffffffffffffffffffff16815260200190815260200160002060020160049054906101000a900460ff16151514611abb576040517f08c379a0000000000000000000000000000000000000000000000000000000008152600401611ab2906135b4565b60405180910390fd5b600167ffffffffffffffff168267ffffffffffffffff161015611b13576040517f08c379a0000000000000000000000000000000000000000000000000000000008152600401611b0a90613554565b60405180910390fd5b60046040518060a001604052803373ffffffffffffffffffffffffffffffffffffffff1681526020018467ffffffffffffffff1681526020018367ffffffffffffffff1681526020018563ffffffff1681526020018467ffffffffffffffff168152509080600181540180825580915050906001820390600052602060002090600202016000909192909190915060008201518160000160006101000a81548173ffffffffffffffffffffffffffffffffffffffff021916908373ffffffffffffffffffffffffffffffffffffffff16021790555060208201518160000160146101000a81548167ffffffffffffffff021916908367ffffffffffffffff16021790555060408201518160010160006101000a81548167ffffffffffffffff021916908367ffffffffffffffff16021790555060608201518160010160086101000a81548163ffffffff021916908363ffffffff160217905550608082015181600101600c6101000a81548167ffffffffffffffff021916908367ffffffffffffffff160217905550505050611de7600460016004805490500381548110611cb757fe5b90600052602060002090600202016040518060a00160405290816000820160009054906101000a900473ffffffffffffffffffffffffffffffffffffffff1673ffffffffffffffffffffffffffffffffffffffff1673ffffffffffffffffffffffffffffffffffffffff1681526020016000820160149054906101000a900467ffffffffffffffff1667ffffffffffffffff1667ffffffffffffffff1681526020016001820160009054906101000a900467ffffffffffffffff1667ffffffffffffffff1667ffffffffffffffff1681526020016001820160089054906101000a900463ffffffff1663ffffffff1663ffffffff16815260200160018201600c9054906101000a900467ffffffffffffffff1667ffffffffffffffff1667ffffffffffffffff16815250506102ee565b505050565b6000600780549050905090565b6000600480549050905090565b60606002805480602002602001604051908101604052809291908181526020016000905b82821015611f9557838290600052602060002090600302016040518060800160405290816000820160009054906101000a900473ffffffffffffffffffffffffffffffffffffffff1673ffffffffffffffffffffffffffffffffffffffff1673ffffffffffffffffffffffffffffffffffffffff168152602001600182018054600181600116156101000203166002900480601f016020809104026020016040519081016040528092919081815260200182805460018160011615610100020316600290048015611f3c5780601f10611f1157610100808354040283529160200191611f3c565b820191906000526020600020905b815481529060010190602001808311611f1f57829003601f168201915b505050505081526020016002820160009054906101000a900463ffffffff1663ffffffff1663ffffffff1681526020016002820160049054906101000a900460ff16151515158152505081526020019060010190611e2a565b50505050905090565b600080600080600660008873ffffffffffffffffffffffffffffffffffffffff1673ffffffffffffffffffffffffffffffffffffffff16815260200190815260200160002060008763ffffffff1663ffffffff1681526020019081526020016000206000868152602001908152602001600020549050806007805490501161205b576040517f08c379a000000000000000000000000000000000000000000000000000000000815260040161205290613594565b60405180910390fd5b8563ffffffff166007828154811061206f57fe5b906000526020600020906003020160020160009054906101000a900463ffffffff1663ffffffff16146120d7576040517f08c379a00000000000000000000000000000000000000000000000000000000081526004016120ce90613514565b60405180910390fd5b8673ffffffffffffffffffffffffffffffffffffffff16600782815481106120fb57fe5b906000526020600020906003020160000160009054906101000a900473ffffffffffffffffffffffffffffffffffffffff1673ffffffffffffffffffffffffffffffffffffffff1614612183576040517f08c379a000000000000000000000000000000000000000000000000000000000815260040161217a906135d4565b60405180910390fd5b6007818154811061219057fe5b906000526020600020906003020160010154600782815481106121af57fe5b906000526020600020906003020160020160009054906101000a900463ffffffff16600783815481106121de57fe5b906000526020600020906003020160020160049054906101000a900467ffffffffffffffff169350935093505093509350939050565b60606005805480602002602001604051908101604052809291908181526020016000905b828210156123aa57838290600052602060002090600402016040518060c00160405290816000820160009054906101000a900473ffffffffffffffffffffffffffffffffffffffff1673ffffffffffffffffffffffffffffffffffffffff1673ffffffffffffffffffffffffffffffffffffffff1681526020016001820160009054906101000a900473ffffffffffffffffffffffffffffffffffffffff1673ffffffffffffffffffffffffffffffffffffffff1673ffffffffffffffffffffffffffffffffffffffff1681526020016001820160149054906101000a900467ffffffffffffffff1667ffffffffffffffff1667ffffffffffffffff168152602001600282015481526020016003820160009054906101000a900463ffffffff1663ffffffff1663ffffffff1681526020016003820160049054906101000a900467ffffffffffffffff1667ffffffffffffffff1667ffffffffffffffff168152505081526020019060010190612238565b50505050905090565b600060606000600160008573ffffffffffffffffffffffffffffffffffffffff1673ffffffffffffffffffffffffffffffffffffffff16815260200190815260200160002060000160009054906101000a900473ffffffffffffffffffffffffffffffffffffffff16600160008673ffffffffffffffffffffffffffffffffffffffff1673ffffffffffffffffffffffffffffffffffffffff168152602001908152602001600020600101600160008773ffffffffffffffffffffffffffffffffffffffff1673ffffffffffffffffffffffffffffffffffffffff16815260200190815260200160002060020160009054906101000a900463ffffffff16818054600181600116156101000203166002900480601f0160208091040260200160405190810160405280929190818152602001828054600181600116156101000203166002900480156125465780601f1061251b57610100808354040283529160200191612546565b820191906000526020600020905b81548152906001019060200180831161252957829003601f168201915b505050505091509250925092509193909250565b60011515600160003373ffffffffffffffffffffffffffffffffffffffff1673ffffffffffffffffffffffffffffffffffffffff16815260200190815260200160002060020160049054906101000a900460ff161515146125f0576040517f08c379a00000000000000000000000000000000000000000000000000000000081526004016125e7906135b4565b60405180910390fd5b60008090505b60028054905081101561270d578273ffffffffffffffffffffffffffffffffffffffff166002828154811061262757fe5b906000526020600020906003020160000160009054906101000a900473ffffffffffffffffffffffffffffffffffffffff1673ffffffffffffffffffffffffffffffffffffffff16141561270057816002828154811061268357fe5b906000526020600020906003020160010190805190602001906126a79291906127f6565b5081600160008573ffffffffffffffffffffffffffffffffffffffff1673ffffffffffffffffffffffffffffffffffffffff16815260200190815260200160002060010190805190602001906126fe9291906127f6565b505b80806001019150506125f6565b505050565b81548183558181111561273f5760030281600302836000526020600020918201910161273e9190612876565b5b505050565b815481835581811115612771576002028160020283600052602060002091820191016127709190612928565b5b505050565b828054600181600116156101000203166002900490600052602060002090601f016020900481019282601f106127b757805160ff19168380011785556127e5565b828001600101855582156127e5579182015b828111156127e45782518255916020019190600101906127c9565b5b5090506127f291906129d6565b5090565b828054600181600116156101000203166002900490600052602060002090601f016020900481019282601f1061283757805160ff1916838001178555612865565b82800160010185558215612865579182015b82811115612864578251825591602001919060010190612849565b5b50905061287291906129d6565b5090565b61292591905b8082111561292157600080820160006101000a81549073ffffffffffffffffffffffffffffffffffffffff021916905560018201600090556002820160006101000a81549063ffffffff02191690556002820160046101000a81549067ffffffffffffffff021916905560028201600c6101000a81549063ffffffff02191690556002820160106101000a81549067ffffffffffffffff02191690555060030161287c565b5090565b90565b6129d391905b808211156129cf57600080820160006101000a81549073ffffffffffffffffffffffffffffffffffffffff02191690556000820160146101000a81549067ffffffffffffffff02191690556001820160006101000a81549067ffffffffffffffff02191690556001820160086101000a81549063ffffffff021916905560018201600c6101000a81549067ffffffffffffffff02191690555060020161292e565b5090565b90565b6129f891905b808211156129f45760008160009055506001016129dc565b5090565b90565b600081359050612a0a8161389a565b92915050565b600082601f830112612a2157600080fd5b8135612a34612a2f82613693565b613666565b91508082526020830160208301858383011115612a5057600080fd5b612a5b838284613847565b50505092915050565b600060a08284031215612a7657600080fd5b612a8060a0613666565b90506000612a90848285016129fb565b6000830152506020612aa484828501612b16565b6020830152506040612ab884828501612b16565b6040830152506060612acc84828501612b01565b6060830152506080612ae084828501612b16565b60808301525092915050565b600081359050612afb816138b1565b92915050565b600081359050612b10816138c8565b92915050565b600081359050612b25816138df565b92915050565b600060208284031215612b3d57600080fd5b6000612b4b848285016129fb565b91505092915050565b60008060408385031215612b6757600080fd5b6000612b75858286016129fb565b925050602083013567ffffffffffffffff811115612b9257600080fd5b612b9e85828601612a10565b9150509250929050565b600080600060608486031215612bbd57600080fd5b6000612bcb868287016129fb565b9350506020612bdc86828701612b01565b9250506040612bed86828701612aec565b9150509250925092565b60008060408385031215612c0a57600080fd5b600083013567ffffffffffffffff811115612c2457600080fd5b612c3085828601612a10565b9250506020612c4185828601612b01565b9150509250929050565b600060a08284031215612c5d57600080fd5b6000612c6b84828501612a64565b91505092915050565b600080600060608486031215612c8957600080fd5b6000612c9786828701612b01565b9350506020612ca886828701612b16565b9250506040612cb986828701612b16565b9150509250925092565b60008060008060808587031215612cd957600080fd5b6000612ce787828801612b01565b9450506020612cf887828801612b16565b9350506040612d0987828801612b16565b9250506060612d1a87828801612b01565b91505092959194509250565b6000612d3283836131fc565b60a08301905092915050565b6000612d4a8383613264565b905092915050565b6000612d5e83836132c7565b60c08301905092915050565b6000612d768383613342565b60c08301905092915050565b612d8b816137db565b82525050565b612d9a816137db565b82525050565b6000612dab826136ff565b612db58185613775565b9350612dc0836136bf565b8060005b83811015612df1578151612dd88882612d26565b9750612de383613741565b925050600181019050612dc4565b5085935050505092915050565b6000612e098261370a565b612e138185613786565b935083602082028501612e25856136cf565b8060005b85811015612e615784840389528151612e428582612d3e565b9450612e4d8361374e565b925060208a01995050600181019050612e29565b50829750879550505050505092915050565b6000612e7e82613715565b612e888185613797565b9350612e93836136df565b8060005b83811015612ec4578151612eab8882612d52565b9750612eb68361375b565b925050600181019050612e97565b5085935050505092915050565b6000612edc82613720565b612ee681856137a8565b9350612ef1836136ef565b8060005b83811015612f22578151612f098882612d6a565b9750612f1483613768565b925050600181019050612ef5565b5085935050505092915050565b612f38816137ed565b82525050565b6000612f4982613736565b612f5381856137ca565b9350612f63818560208601613856565b612f6c81613889565b840191505092915050565b6000612f828261372b565b612f8c81856137b9565b9350612f9c818560208601613856565b612fa581613889565b840191505092915050565b6000612fbd601d836137ca565b91507f5468657265206973206e6f206f66666572206f6e2074686973206461790000006000830152602082019050919050565b6000612ffd6018836137ca565b91507f5468657265206973206e6f20656e65726779206f6666657200000000000000006000830152602082019050919050565b600061303d6033836137ca565b91507f57726f6e6720656e6572677920696e70757420726571756972652061206d696e60008301527f696d756d206f66666572206f662031206b5768000000000000000000000000006020830152604082019050919050565b60006130a36010836137ca565b91507f57726f6e672042617474657279204964000000000000000000000000000000006000830152602082019050919050565b60006130e3600b836137ca565b91507f57726f6e6720696e6465780000000000000000000000000000000000000000006000830152602082019050919050565b60006131236025836137ca565b91507f4f6e6c792072656769737465726564206261747465726965732068617665206160008301527f63636573730000000000000000000000000000000000000000000000000000006020830152604082019050919050565b60006131896008836137ca565b91507f57726f6e672049440000000000000000000000000000000000000000000000006000830152602082019050919050565b60006131c9601d836137ca565b91507f426174746572792064657461696c7320616c72656164792061646465640000006000830152602082019050919050565b60a0820160008201516132126000850182612d82565b50602082015161322560208501826133f9565b50604082015161323860408501826133f9565b50606082015161324b60608501826133db565b50608082015161325e60808501826133f9565b50505050565b600060808301600083015161327c6000860182612d82565b50602083015184820360208601526132948282612f77565b91505060408301516132a960408601826133db565b5060608301516132bc6060860182612f2f565b508091505092915050565b60c0820160008201516132dd6000850182612d82565b5060208201516132f060208501826133bd565b50604082015161330360408501826133db565b50606082015161331660608501826133f9565b50608082015161332960808501826133db565b5060a082015161333c60a08501826133f9565b50505050565b60c0820160008201516133586000850182612d82565b50602082015161336b6020850182612d82565b50604082015161337e60408501826133f9565b50606082015161339160608501826133bd565b5060808201516133a460808501826133db565b5060a08201516133b760a08501826133f9565b50505050565b6133c681613819565b82525050565b6133d581613819565b82525050565b6133e481613823565b82525050565b6133f381613823565b82525050565b61340281613833565b82525050565b61341181613833565b82525050565b600060608201905061342c6000830186612d91565b818103602083015261343e8185612f3e565b905061344d60408301846133ea565b949350505050565b600060608201905061346a6000830186612d91565b61347760208301856133ea565b6134846040830184613408565b949350505050565b600060208201905081810360008301526134a68184612da0565b905092915050565b600060208201905081810360008301526134c88184612dfe565b905092915050565b600060208201905081810360008301526134ea8184612e73565b905092915050565b6000602082019050818103600083015261350c8184612ed1565b905092915050565b6000602082019050818103600083015261352d81612fb0565b9050919050565b6000602082019050818103600083015261354d81612ff0565b9050919050565b6000602082019050818103600083015261356d81613030565b9050919050565b6000602082019050818103600083015261358d81613096565b9050919050565b600060208201905081810360008301526135ad816130d6565b9050919050565b600060208201905081810360008301526135cd81613116565b9050919050565b600060208201905081810360008301526135ed8161317c565b9050919050565b6000602082019050818103600083015261360d816131bc565b9050919050565b600060208201905061362960008301846133cc565b92915050565b600060608201905061364460008301866133cc565b61365160208301856133ea565b61365e6040830184613408565b949350505050565b6000604051905081810181811067ffffffffffffffff8211171561368957600080fd5b8060405250919050565b600067ffffffffffffffff8211156136aa57600080fd5b601f19601f8301169050602081019050919050565b6000819050602082019050919050565b6000819050602082019050919050565b6000819050602082019050919050565b6000819050602082019050919050565b600081519050919050565b600081519050919050565b600081519050919050565b600081519050919050565b600081519050919050565b600081519050919050565b6000602082019050919050565b6000602082019050919050565b6000602082019050919050565b6000602082019050919050565b600082825260208201905092915050565b600082825260208201905092915050565b600082825260208201905092915050565b600082825260208201905092915050565b600082825260208201905092915050565b600082825260208201905092915050565b60006137e6826137f9565b9050919050565b60008115159050919050565b600073ffffffffffffffffffffffffffffffffffffffff82169050919050565b6000819050919050565b600063ffffffff82169050919050565b600067ffffffffffffffff82169050919050565b82818337600083830152505050565b60005b83811015613874578082015181840152602081019050613859565b83811115613883576000848401525b50505050565b6000601f19601f8301169050919050565b6138a3816137db565b81146138ae57600080fd5b50565b6138ba81613819565b81146138c557600080fd5b50565b6138d181613823565b81146138dc57600080fd5b50565b6138e881613833565b81146138f357600080fd5b5056fea365627a7a7231582022abaca2e2bb5aaee0de0df87f914c298859704f30385d619e545c6dfcd5c6376c6578706572696d656e74616cf564736f6c63430005100040",
  "source": "pragma solidity >=0.4.21 <0.7.0;\r\npragma experimental ABIEncoderV2;\r\n\r\ncontract owned {\r\n    \r\n    address owner;\r\n    \r\n    constructor() public {\r\n        owner = msg.sender;\r\n    }\r\n    \r\n    modifier onlyOwner {\r\n        require(msg.sender == owner, \"Only owner can call this function.\");\r\n         _;\r\n    }\r\n}\r\n\r\n//Contract that allows battery address to be registered\r\ncontract batteryRegistry is owned {\r\n\r\n    struct battery {\r\n        address batteryID;            //battery wallet address\r\n        string uuID;                  //id of battery  \r\n        uint32 date;                  //Creation date\r\n        bool isExist;                 //Check if battery exist into addNewBattery function\r\n    }\r\n\r\n    //mapping address as key to struct battery with mapping name batteries\r\n    mapping (address => battery) batteries;\r\n    battery[] listOfBatteries;\r\n\r\n    modifier onlyRegisteredBattery{\r\n         require(batteries[msg.sender].isExist==true, \"Only registered batteries have access\");\r\n         _;\r\n     }\r\n\r\n    //add a battery by eth account address\r\n    function addNewBattery (string memory uuID, uint32 date) public {\r\n        require(batteries[msg.sender].isExist==false, \"Battery details already added\");\r\n        batteries[msg.sender] = battery(msg.sender, uuID, date, true);\r\n\r\n        listOfBatteries.push(battery({\r\n            batteryID: msg.sender,\r\n            uuID: uuID,\r\n            date: date,\r\n            isExist: true\r\n            }));\r\n    }\r\n\r\n    //to view all batteries\r\n    function viewAllBatteries () public view returns (battery[] memory) {\r\n        return listOfBatteries;\r\n    }\r\n\r\n    function getCountOfBatteries () public view returns (uint count) {\r\n        return listOfBatteries.length;\r\n    }\r\n\r\n    //change details of a battery\r\n    function updateBattery(address batteryID, string memory uuID) public onlyRegisteredBattery {\r\n        for(uint i = 0; i<listOfBatteries.length; i++){\r\n            if(listOfBatteries[i].batteryID == batteryID){\r\n                listOfBatteries[i].uuID = uuID;\r\n                batteries[batteryID].uuID = uuID;\r\n            }\r\n        }\r\n    }\r\n\r\n    //view single battery by battery id\r\n    function getBatteryByID(address batteryID) public view returns (address, string memory, uint32){\r\n        return (batteries[batteryID].batteryID, batteries[batteryID].uuID, batteries[batteryID].date);\r\n    }\r\n}\r\n\r\ncontract energyBid is owned, batteryRegistry {\r\n\r\n    //event offerEnergyMade(address indexed sellerBatteryID, uint32 indexed day, uint32 indexed price, uint64 energy);\r\n    //event buyEnergyMade(address indexed sellerBatteryID, uint32 indexed day, uint32 price, uint64 energy, address indexed batteryID);\r\n\r\n    uint64 constant kWh = 1;\r\n    uint64 constant MWh = 1000 * kWh;\r\n    uint64 constant GWh = 1000 * MWh;\r\n    uint64 constant TWh = 1000 * GWh;\r\n\r\n    //uint uinversalPrice = 2; //Energy market price per kWh (ex. 2euro/kWh, the price is trial)\r\n\r\n    struct bid {\r\n        address prosumerID;    \r\n        uint numberOfBid;      //A battery can create more than one energy offer\r\n        uint32 day;            //day for which the offer is valid\r\n        uint64 energy;         //energy to trade\r\n        uint32 eprice;         //Energy market price per kWh\r\n        uint64 timestamp;      //timestamp for when the bid was created\r\n    }\r\n    \r\n    struct ask {\r\n        address consumerID;    \r\n        uint64 energy;\r\n        uint64 timestamp;\r\n        uint32 day;\r\n        uint64 remainingEnergy;\r\n    }\r\n\r\n    //struct to store all energy purchases\r\n    struct buyedEnergy {\r\n        address consumerID;\r\n        address prosumerID;\r\n        uint64 energy;\r\n        uint price;\r\n        uint32 day;\r\n        uint64 timestamp;\r\n    }\r\n    \r\n    mapping(address => uint) asks; \r\n    ask[] listOfAsks;\r\n\r\n    buyedEnergy[] listOfBuyedEnergy;\r\n\r\n    mapping(address => mapping(uint32 => mapping(uint=> uint))) bids;\r\n    bid[] listOfBids;\r\n    uint nextNumberOfBid;                                    \r\n\r\n    //create energy offer \r\n    //There is a minimum energy requirement \r\n    //Only registered batteries can use this function\r\n    function energyOffer(uint32 _day, uint64 _energy, uint64 _timestamp, uint32 _eprice) public onlyRegisteredBattery {\r\n        require(_energy >= kWh, \"Wrong energy input require a minimum offer of 1 kWh\");\r\n\r\n        listOfBids.push(bid({\r\n            prosumerID: msg.sender,\r\n            numberOfBid: nextNumberOfBid,\r\n            day: _day,\r\n            energy: _energy,\r\n            eprice: _eprice,\r\n            timestamp: _timestamp\r\n        }));\r\n        nextNumberOfBid++;\r\n    }\r\n\r\n    //make ask request and buy energy from available bids\r\n    function askEnergy(uint32 _day, uint64 _energy, uint64 _timestamp) public onlyRegisteredBattery {\r\n        require(_energy >= kWh, \"Wrong energy input require a minimum offer of 1 kWh\");\r\n\r\n        listOfAsks.push(ask({\r\n            consumerID: msg.sender,\r\n            energy: _energy,\r\n            timestamp: _timestamp,\r\n            day: _day,\r\n            remainingEnergy: _energy\r\n        }));\r\n        energyTrading(listOfAsks[listOfAsks.length-1]);\r\n    }\r\n\r\n    //core function for energy trading \r\n    function energyTrading(ask memory _ask) public onlyRegisteredBattery {\r\n        require(listOfBids.length > 0, \"There is no energy offer\");\r\n\r\n        uint64 remainingEnergy = _ask.remainingEnergy;\r\n\r\n        for(uint i = 0; i<listOfBids.length; i++){\r\n\r\n            address _prosumerID;\r\n            bool isEnergyPurchased = false;\r\n            uint64 energyPurchased = 0;\r\n            uint _price = 0;\r\n\r\n            if(listOfBids[i].energy < remainingEnergy){\r\n                _prosumerID = listOfBids[i].prosumerID;\r\n                energyPurchased = listOfBids[i].energy; \r\n                _ask.remainingEnergy = remainingEnergy - listOfBids[i].energy;\r\n                remainingEnergy = remainingEnergy - listOfBids[i].energy;\r\n                _price = listOfBids[i].eprice*listOfBids[i].energy; //price per kWh\r\n                listOfBids[i].energy = 0;\r\n\r\n                isEnergyPurchased = true;\r\n\r\n                //remove energy offer from the list if energy is zero\r\n                if (listOfBids.length > 1) {\r\n                    listOfBids[i] = listOfBids[listOfBids.length-1];\r\n                }\r\n                listOfBids.length--;\r\n\r\n            }else if(listOfBids[i].energy == remainingEnergy){\r\n                _prosumerID = listOfBids[i].prosumerID;\r\n                energyPurchased = remainingEnergy;\r\n                _price = listOfBids[i].eprice*listOfBids[i].energy;\r\n                listOfBids[i].energy = 0;\r\n                remainingEnergy = 0;\r\n\r\n                isEnergyPurchased = true;\r\n\r\n                if (listOfBids.length > 1) {\r\n                    listOfBids[i] = listOfBids[listOfBids.length-1];\r\n                }\r\n                listOfBids.length--;\r\n\r\n            }else{\r\n                _prosumerID = listOfBids[i].prosumerID;\r\n                energyPurchased = remainingEnergy;\r\n                listOfBids[i].energy = listOfBids[i].energy - remainingEnergy;\r\n                _price = listOfBids[i].eprice*remainingEnergy;\r\n                remainingEnergy = 0;\r\n\r\n                isEnergyPurchased = true;\r\n            }\r\n\r\n            //store purchase \r\n            if(isEnergyPurchased){\r\n                listOfBuyedEnergy.push(buyedEnergy({\r\n                    consumerID: msg.sender,\r\n                    prosumerID: _prosumerID,\r\n                    energy: energyPurchased,\r\n                    price: _price,\r\n                    day: _ask.day,\r\n                    timestamp: _ask.timestamp\r\n                }));\r\n            }\r\n\r\n            //remove ask request from list \r\n            if(remainingEnergy == 0){\r\n                if (listOfAsks.length > 1){\r\n                    listOfAsks[i] = listOfAsks[listOfAsks.length-1];\r\n                }\r\n                listOfAsks.length--;\r\n                break ;\r\n            }\r\n        }\r\n    }\r\n\r\n    //list of all ask energy requests\r\n    function viewAllAsks () public view returns (ask[] memory){\r\n        return listOfAsks;\r\n    }\r\n\r\n    function getCountOfAsks () public view returns (uint count){\r\n        return listOfAsks.length;\r\n    }\r\n\r\n    //view single ask energy request by batteryID\r\n    function getAskByBatteryId (address _consumerID) public view returns (address, uint32, uint64){\r\n        uint indexA = asks[_consumerID];\r\n        require(listOfAsks.length > indexA, \"Wrong index\");\r\n        require(listOfAsks[indexA].consumerID == _consumerID, \"Wrong Battery Id\");\r\n        return (listOfAsks[indexA].consumerID, listOfAsks[indexA].day, listOfAsks[indexA].energy);\r\n    }\r\n\r\n    //list of all energy purchases\r\n    function viewAllEnergyPurchases () public view returns (buyedEnergy[] memory){\r\n        return listOfBuyedEnergy;\r\n    }\r\n\r\n    //view all bids \r\n    function viewAllBids () public view returns (bid[] memory){\r\n      return listOfBids;\r\n    }\r\n\r\n    function getCountOfBids () public view returns (uint count){\r\n        return listOfBids.length;\r\n    }\r\n\r\n    //view single bid by batteryID\r\n    function getBidByBatteryID (address prosumerID, uint32 day, uint numberOfBid) public view returns (uint, uint32, uint64){\r\n        uint index = bids[prosumerID][day][numberOfBid];\r\n        require(listOfBids.length > index, \"Wrong index\");\r\n        require(listOfBids[index].day == day, \"There is no offer on this day\");\r\n        require(listOfBids[index].prosumerID == prosumerID, \"Wrong ID\");\r\n        return (listOfBids[index].numberOfBid, listOfBids[index].day, listOfBids[index].energy);\r\n    }\r\n}",
  "sourcePath": "C:/Users/Lenovo/projects/ethereum/protergia/blockchain-energy-trading-and-green-energy-certification-thesis-w-protergia/src/contracts/Battery.sol",
  "compiler": {
    "name": "solc",
    "version": "0.5.16+commit.9c3226ce.Emscripten.clang"
  },
  "schemaVersion": "3.3.4",
  "updatedAt": "2021-06-15T19:04:45.004Z",
  "devdoc": {
    "methods": {}
  },
  "userdoc": {
    "methods": {}
  }
}