{
  "contractName": "energyBid",
  "abi": [
    {
      "inputs": [],
      "payable": false,
      "stateMutability": "nonpayable",
      "type": "constructor"
    },
    {
      "anonymous": false,
      "inputs": [
        {
          "indexed": true,
          "internalType": "address",
          "name": "batteryID",
          "type": "address"
        }
      ],
      "name": "batteryAdded",
      "type": "event"
    },
    {
      "anonymous": false,
      "inputs": [
        {
          "indexed": true,
          "internalType": "address",
          "name": "batteryID",
          "type": "address"
        },
        {
          "indexed": true,
          "internalType": "uint32",
          "name": "day",
          "type": "uint32"
        },
        {
          "indexed": true,
          "internalType": "uint32",
          "name": "price",
          "type": "uint32"
        },
        {
          "indexed": false,
          "internalType": "uint64",
          "name": "energy",
          "type": "uint64"
        }
      ],
      "name": "bidMade",
      "type": "event"
    },
    {
      "constant": false,
      "inputs": [
        {
          "internalType": "address",
          "name": "batteryID",
          "type": "address"
        },
        {
          "internalType": "uint32",
          "name": "date",
          "type": "uint32"
        },
        {
          "internalType": "string",
          "name": "nameOfBatteryOwner",
          "type": "string"
        }
      ],
      "name": "addNewBattery",
      "outputs": [
        {
          "internalType": "bool",
          "name": "",
          "type": "bool"
        }
      ],
      "payable": false,
      "stateMutability": "nonpayable",
      "type": "function"
    },
    {
      "constant": true,
      "inputs": [
        {
          "internalType": "address",
          "name": "",
          "type": "address"
        },
        {
          "internalType": "uint32",
          "name": "",
          "type": "uint32"
        },
        {
          "internalType": "uint256",
          "name": "",
          "type": "uint256"
        }
      ],
      "name": "bids",
      "outputs": [
        {
          "internalType": "uint256",
          "name": "",
          "type": "uint256"
        }
      ],
      "payable": false,
      "stateMutability": "view",
      "type": "function"
    },
    {
      "constant": true,
      "inputs": [
        {
          "internalType": "address",
          "name": "batteryID",
          "type": "address"
        }
      ],
      "name": "getBatteryByID",
      "outputs": [
        {
          "internalType": "address",
          "name": "",
          "type": "address"
        },
        {
          "internalType": "string",
          "name": "",
          "type": "string"
        },
        {
          "internalType": "uint32",
          "name": "",
          "type": "uint32"
        }
      ],
      "payable": false,
      "stateMutability": "view",
      "type": "function"
    },
    {
      "constant": true,
      "inputs": [
        {
          "internalType": "uint256",
          "name": "",
          "type": "uint256"
        }
      ],
      "name": "listOfBatteries",
      "outputs": [
        {
          "internalType": "address",
          "name": "batteryID",
          "type": "address"
        },
        {
          "internalType": "string",
          "name": "nameOfBatteryOwner",
          "type": "string"
        },
        {
          "internalType": "uint32",
          "name": "date",
          "type": "uint32"
        },
        {
          "internalType": "bool",
          "name": "isExist",
          "type": "bool"
        }
      ],
      "payable": false,
      "stateMutability": "view",
      "type": "function"
    },
    {
      "constant": true,
      "inputs": [
        {
          "internalType": "uint256",
          "name": "",
          "type": "uint256"
        }
      ],
      "name": "listOfBids",
      "outputs": [
        {
          "internalType": "address",
          "name": "batteryID",
          "type": "address"
        },
        {
          "internalType": "uint256",
          "name": "numberOfBid",
          "type": "uint256"
        },
        {
          "internalType": "uint32",
          "name": "day",
          "type": "uint32"
        },
        {
          "internalType": "uint32",
          "name": "price",
          "type": "uint32"
        },
        {
          "internalType": "uint64",
          "name": "energy",
          "type": "uint64"
        },
        {
          "internalType": "uint64",
          "name": "timestamp",
          "type": "uint64"
        }
      ],
      "payable": false,
      "stateMutability": "view",
      "type": "function"
    },
    {
      "constant": true,
      "inputs": [],
      "name": "nextNumberOfBid",
      "outputs": [
        {
          "internalType": "uint256",
          "name": "",
          "type": "uint256"
        }
      ],
      "payable": false,
      "stateMutability": "view",
      "type": "function"
    },
    {
      "constant": false,
      "inputs": [
        {
          "internalType": "address",
          "name": "batteryID",
          "type": "address"
        }
      ],
      "name": "removeBattery",
      "outputs": [],
      "payable": false,
      "stateMutability": "nonpayable",
      "type": "function"
    },
    {
      "constant": false,
      "inputs": [
        {
          "internalType": "address",
          "name": "batteryID",
          "type": "address"
        },
        {
          "internalType": "string",
          "name": "nameOfBatteryOwner",
          "type": "string"
        }
      ],
      "name": "updateBattery",
      "outputs": [],
      "payable": false,
      "stateMutability": "nonpayable",
      "type": "function"
    },
    {
      "constant": true,
      "inputs": [],
      "name": "viewAllBatteries",
      "outputs": [
        {
          "components": [
            {
              "internalType": "address",
              "name": "batteryID",
              "type": "address"
            },
            {
              "internalType": "string",
              "name": "nameOfBatteryOwner",
              "type": "string"
            },
            {
              "internalType": "uint32",
              "name": "date",
              "type": "uint32"
            },
            {
              "internalType": "bool",
              "name": "isExist",
              "type": "bool"
            }
          ],
          "internalType": "struct batteryRegistry.battery[]",
          "name": "",
          "type": "tuple[]"
        }
      ],
      "payable": false,
      "stateMutability": "view",
      "type": "function"
    },
    {
      "constant": false,
      "inputs": [
        {
          "internalType": "uint32",
          "name": "_day",
          "type": "uint32"
        },
        {
          "internalType": "uint32",
          "name": "_price",
          "type": "uint32"
        },
        {
          "internalType": "uint64",
          "name": "_energy",
          "type": "uint64"
        },
        {
          "internalType": "uint64",
          "name": "_timestamp",
          "type": "uint64"
        }
      ],
      "name": "energyOffer",
      "outputs": [],
      "payable": false,
      "stateMutability": "nonpayable",
      "type": "function"
    },
    {
      "constant": true,
      "inputs": [],
      "name": "viewAllBids",
      "outputs": [
        {
          "components": [
            {
              "internalType": "address",
              "name": "batteryID",
              "type": "address"
            },
            {
              "internalType": "uint256",
              "name": "numberOfBid",
              "type": "uint256"
            },
            {
              "internalType": "uint32",
              "name": "day",
              "type": "uint32"
            },
            {
              "internalType": "uint32",
              "name": "price",
              "type": "uint32"
            },
            {
              "internalType": "uint64",
              "name": "energy",
              "type": "uint64"
            },
            {
              "internalType": "uint64",
              "name": "timestamp",
              "type": "uint64"
            }
          ],
          "internalType": "struct energyBid.bid[]",
          "name": "",
          "type": "tuple[]"
        }
      ],
      "payable": false,
      "stateMutability": "view",
      "type": "function"
    },
    {
      "constant": true,
      "inputs": [
        {
          "internalType": "address",
          "name": "batteryID",
          "type": "address"
        },
        {
          "internalType": "uint32",
          "name": "day",
          "type": "uint32"
        },
        {
          "internalType": "uint256",
          "name": "numberOfBid",
          "type": "uint256"
        }
      ],
      "name": "getBidByBatteryID",
      "outputs": [
        {
          "internalType": "uint256",
          "name": "",
          "type": "uint256"
        },
        {
          "internalType": "uint32",
          "name": "",
          "type": "uint32"
        },
        {
          "internalType": "uint32",
          "name": "",
          "type": "uint32"
        },
        {
          "internalType": "uint64",
          "name": "",
          "type": "uint64"
        }
      ],
      "payable": false,
      "stateMutability": "view",
      "type": "function"
    }
  ],
  "bytecode": "0x60806040523480156200001157600080fd5b50336000806101000a81548173ffffffffffffffffffffffffffffffffffffffff021916908373ffffffffffffffffffffffffffffffffffffffff1602179055506200009b33607b6040518060400160405280600581526020017f6368726973000000000000000000000000000000000000000000000000000000815250620000c160201b60201c565b50620000bb630131f83460826103e863607ab0ec6200048b60201b60201c565b62000bbf565b60008060009054906101000a900473ffffffffffffffffffffffffffffffffffffffff1673ffffffffffffffffffffffffffffffffffffffff163373ffffffffffffffffffffffffffffffffffffffff161462000155576040517f08c379a00000000000000000000000000000000000000000000000000000000081526004016200014c9062000b17565b60405180910390fd5b33935060001515600160008673ffffffffffffffffffffffffffffffffffffffff1673ffffffffffffffffffffffffffffffffffffffff16815260200190815260200160002060020160049054906101000a900460ff16151514620001f1576040517f08c379a0000000000000000000000000000000000000000000000000000000008152600401620001e89062000b39565b60405180910390fd5b60405180608001604052808573ffffffffffffffffffffffffffffffffffffffff1681526020018381526020018463ffffffff16815260200160011515815250600160008673ffffffffffffffffffffffffffffffffffffffff1673ffffffffffffffffffffffffffffffffffffffff16815260200190815260200160002060008201518160000160006101000a81548173ffffffffffffffffffffffffffffffffffffffff021916908373ffffffffffffffffffffffffffffffffffffffff1602179055506020820151816001019080519060200190620002d592919062000945565b5060408201518160020160006101000a81548163ffffffff021916908363ffffffff16021790555060608201518160020160046101000a81548160ff021916908315150217905550905050600260405180608001604052808673ffffffffffffffffffffffffffffffffffffffff1681526020018481526020018563ffffffff168152602001600115158152509080600181540180825580915050906001820390600052602060002090600302016000909192909190915060008201518160000160006101000a81548173ffffffffffffffffffffffffffffffffffffffff021916908373ffffffffffffffffffffffffffffffffffffffff1602179055506020820151816001019080519060200190620003f292919062000945565b5060408201518160020160006101000a81548163ffffffff021916908363ffffffff16021790555060608201518160020160046101000a81548160ff0219169083151502179055505050508373ffffffffffffffffffffffffffffffffffffffff167fbf313c3ec3b04ed9423550c08a339ad0bc0efc07b4e7c49ddc12969ccf81e5c360405160405180910390a2600190509392505050565b6000809054906101000a900473ffffffffffffffffffffffffffffffffffffffff1673ffffffffffffffffffffffffffffffffffffffff163373ffffffffffffffffffffffffffffffffffffffff16146200051d576040517f08c379a0000000000000000000000000000000000000000000000000000000008152600401620005149062000b17565b60405180910390fd5b60016103e80267ffffffffffffffff168267ffffffffffffffff1610156200057c576040517f08c379a0000000000000000000000000000000000000000000000000000000008152600401620005739062000b5b565b60405180910390fd5b6000600360003373ffffffffffffffffffffffffffffffffffffffff1673ffffffffffffffffffffffffffffffffffffffff16815260200190815260200160002060008663ffffffff1663ffffffff16815260200190815260200160002060006005548152602001908152602001600020549050600480549050905080600360003373ffffffffffffffffffffffffffffffffffffffff1673ffffffffffffffffffffffffffffffffffffffff16815260200190815260200160002060008763ffffffff1663ffffffff168152602001908152602001600020600060055481526020019081526020016000208190555060046040518060c001604052803373ffffffffffffffffffffffffffffffffffffffff16815260200160055481526020018763ffffffff1681526020018663ffffffff1681526020018567ffffffffffffffff1681526020018467ffffffffffffffff168152509080600181540180825580915050906001820390600052602060002090600302016000909192909190915060008201518160000160006101000a81548173ffffffffffffffffffffffffffffffffffffffff021916908373ffffffffffffffffffffffffffffffffffffffff1602179055506020820151816001015560408201518160020160006101000a81548163ffffffff021916908363ffffffff16021790555060608201518160020160046101000a81548163ffffffff021916908363ffffffff16021790555060808201518160020160086101000a81548167ffffffffffffffff021916908367ffffffffffffffff16021790555060a08201518160020160106101000a81548167ffffffffffffffff021916908367ffffffffffffffff160217905550505050600481815481106200080c57fe5b906000526020600020906003020160020160049054906101000a900463ffffffff1663ffffffff16600482815481106200084257fe5b906000526020600020906003020160020160009054906101000a900463ffffffff1663ffffffff16600483815481106200087857fe5b906000526020600020906003020160000160009054906101000a900473ffffffffffffffffffffffffffffffffffffffff1673ffffffffffffffffffffffffffffffffffffffff167f01ef96291636cdb8173b03b805efc8fccd6ae838f9473500328ae3371763ad3760048581548110620008ef57fe5b906000526020600020906003020160020160089054906101000a900467ffffffffffffffff1660405162000924919062000b7d565b60405180910390a46005600081548092919060010191905055505050505050565b828054600181600116156101000203166002900490600052602060002090601f016020900481019282601f106200098857805160ff1916838001178555620009b9565b82800160010185558215620009b9579182015b82811115620009b85782518255916020019190600101906200099b565b5b509050620009c89190620009cc565b5090565b620009f191905b80821115620009ed576000816000905550600101620009d3565b5090565b90565b600062000a0360228362000b9a565b91507f4f6e6c79206f776e65722063616e2063616c6c20746869732066756e6374696f60008301527f6e2e0000000000000000000000000000000000000000000000000000000000006020830152604082019050919050565b600062000a6b601d8362000b9a565b91507f426174746572792064657461696c7320616c72656164792061646465640000006000830152602082019050919050565b600062000aad603c8362000b9a565b91507f57726f6e6720656e6572677920696e70757420726571756972652061206d696e60008301527f696d756d206f66666572206f6620312057682028313030306d576829000000006020830152604082019050919050565b62000b118162000bab565b82525050565b6000602082019050818103600083015262000b3281620009f4565b9050919050565b6000602082019050818103600083015262000b548162000a5c565b9050919050565b6000602082019050818103600083015262000b768162000a9e565b9050919050565b600060208201905062000b94600083018462000b06565b92915050565b600082825260208201905092915050565b600067ffffffffffffffff82169050919050565b6125c18062000bcf6000396000f3fe608060405234801561001057600080fd5b50600436106100b45760003560e01c8063791e137211610071578063791e1372146101a6578063b47c7741146101d9578063bc2d2657146101f7578063c13c7cff14610213578063c9fb857814610246578063eefa716b14610278576100b4565b80631e5b354d146100b957806336fe8b90146100e95780634b5b289c146101195780635b4cf93c1461014e5780636729dfe41461016c5780636feb237614610188575b600080fd5b6100d360048036036100ce9190810190611b16565b610294565b6040516100e091906122e5565b60405180910390f35b61010360048036036100fe9190810190611aaf565b6102c6565b604051610110919061220a565b60405180910390f35b610133600480360361012e9190810190611b65565b610686565b60405161014596959493929190612165565b60405180910390f35b610156610737565b60405161016391906121e8565b60405180910390f35b61018660048036036101819190810190611b8e565b6108a6565b005b610190610d54565b60405161019d91906122e5565b60405180910390f35b6101c060048036036101bb9190810190611b65565b610d5a565b6040516101d09493929190612119565b60405180910390f35b6101e1610e6c565b6040516101ee91906121c6565b60405180910390f35b610211600480360361020c9190810190611a32565b611004565b005b61022d60048036036102289190810190611b16565b6111c0565b60405161023d9493929190612300565b60405180910390f35b610260600480360361025b9190810190611a32565b611469565b60405161026f939291906120db565b60405180910390f35b610292600480360361028d9190810190611a5b565b611610565b005b600360205282600052604060002060205281600052604060002060205280600052604060002060009250925050505481565b60008060009054906101000a900473ffffffffffffffffffffffffffffffffffffffff1673ffffffffffffffffffffffffffffffffffffffff163373ffffffffffffffffffffffffffffffffffffffff1614610357576040517f08c379a000000000000000000000000000000000000000000000000000000000815260040161034e90612225565b60405180910390fd5b33935060001515600160008673ffffffffffffffffffffffffffffffffffffffff1673ffffffffffffffffffffffffffffffffffffffff16815260200190815260200160002060020160049054906101000a900460ff161515146103f0576040517f08c379a00000000000000000000000000000000000000000000000000000000081526004016103e7906122a5565b60405180910390fd5b60405180608001604052808573ffffffffffffffffffffffffffffffffffffffff1681526020018381526020018463ffffffff16815260200160011515815250600160008673ffffffffffffffffffffffffffffffffffffffff1673ffffffffffffffffffffffffffffffffffffffff16815260200190815260200160002060008201518160000160006101000a81548173ffffffffffffffffffffffffffffffffffffffff021916908373ffffffffffffffffffffffffffffffffffffffff16021790555060208201518160010190805190602001906104d292919061176a565b5060408201518160020160006101000a81548163ffffffff021916908363ffffffff16021790555060608201518160020160046101000a81548160ff021916908315150217905550905050600260405180608001604052808673ffffffffffffffffffffffffffffffffffffffff1681526020018481526020018563ffffffff168152602001600115158152509080600181540180825580915050906001820390600052602060002090600302016000909192909190915060008201518160000160006101000a81548173ffffffffffffffffffffffffffffffffffffffff021916908373ffffffffffffffffffffffffffffffffffffffff16021790555060208201518160010190805190602001906105ed92919061176a565b5060408201518160020160006101000a81548163ffffffff021916908363ffffffff16021790555060608201518160020160046101000a81548160ff0219169083151502179055505050508373ffffffffffffffffffffffffffffffffffffffff167fbf313c3ec3b04ed9423550c08a339ad0bc0efc07b4e7c49ddc12969ccf81e5c360405160405180910390a2600190509392505050565b6004818154811061069357fe5b90600052602060002090600302016000915090508060000160009054906101000a900473ffffffffffffffffffffffffffffffffffffffff16908060010154908060020160009054906101000a900463ffffffff16908060020160049054906101000a900463ffffffff16908060020160089054906101000a900467ffffffffffffffff16908060020160109054906101000a900467ffffffffffffffff16905086565b60606004805480602002602001604051908101604052809291908181526020016000905b8282101561089d57838290600052602060002090600302016040518060c00160405290816000820160009054906101000a900473ffffffffffffffffffffffffffffffffffffffff1673ffffffffffffffffffffffffffffffffffffffff1673ffffffffffffffffffffffffffffffffffffffff168152602001600182015481526020016002820160009054906101000a900463ffffffff1663ffffffff1663ffffffff1681526020016002820160049054906101000a900463ffffffff1663ffffffff1663ffffffff1681526020016002820160089054906101000a900467ffffffffffffffff1667ffffffffffffffff1667ffffffffffffffff1681526020016002820160109054906101000a900467ffffffffffffffff1667ffffffffffffffff1667ffffffffffffffff16815250508152602001906001019061075b565b50505050905090565b6000809054906101000a900473ffffffffffffffffffffffffffffffffffffffff1673ffffffffffffffffffffffffffffffffffffffff163373ffffffffffffffffffffffffffffffffffffffff1614610935576040517f08c379a000000000000000000000000000000000000000000000000000000000815260040161092c90612225565b60405180910390fd5b60016103e80267ffffffffffffffff168267ffffffffffffffff161015610991576040517f08c379a0000000000000000000000000000000000000000000000000000000008152600401610988906122c5565b60405180910390fd5b6000600360003373ffffffffffffffffffffffffffffffffffffffff1673ffffffffffffffffffffffffffffffffffffffff16815260200190815260200160002060008663ffffffff1663ffffffff16815260200190815260200160002060006005548152602001908152602001600020549050600480549050905080600360003373ffffffffffffffffffffffffffffffffffffffff1673ffffffffffffffffffffffffffffffffffffffff16815260200190815260200160002060008763ffffffff1663ffffffff168152602001908152602001600020600060055481526020019081526020016000208190555060046040518060c001604052803373ffffffffffffffffffffffffffffffffffffffff16815260200160055481526020018763ffffffff1681526020018663ffffffff1681526020018567ffffffffffffffff1681526020018467ffffffffffffffff168152509080600181540180825580915050906001820390600052602060002090600302016000909192909190915060008201518160000160006101000a81548173ffffffffffffffffffffffffffffffffffffffff021916908373ffffffffffffffffffffffffffffffffffffffff1602179055506020820151816001015560408201518160020160006101000a81548163ffffffff021916908363ffffffff16021790555060608201518160020160046101000a81548163ffffffff021916908363ffffffff16021790555060808201518160020160086101000a81548167ffffffffffffffff021916908367ffffffffffffffff16021790555060a08201518160020160106101000a81548167ffffffffffffffff021916908367ffffffffffffffff16021790555050505060048181548110610c2057fe5b906000526020600020906003020160020160049054906101000a900463ffffffff1663ffffffff1660048281548110610c5557fe5b906000526020600020906003020160020160009054906101000a900463ffffffff1663ffffffff1660048381548110610c8a57fe5b906000526020600020906003020160000160009054906101000a900473ffffffffffffffffffffffffffffffffffffffff1673ffffffffffffffffffffffffffffffffffffffff167f01ef96291636cdb8173b03b805efc8fccd6ae838f9473500328ae3371763ad3760048581548110610d0057fe5b906000526020600020906003020160020160089054906101000a900467ffffffffffffffff16604051610d339190612345565b60405180910390a46005600081548092919060010191905055505050505050565b60055481565b60028181548110610d6757fe5b90600052602060002090600302016000915090508060000160009054906101000a900473ffffffffffffffffffffffffffffffffffffffff1690806001018054600181600116156101000203166002900480601f016020809104026020016040519081016040528092919081815260200182805460018160011615610100020316600290048015610e395780601f10610e0e57610100808354040283529160200191610e39565b820191906000526020600020905b815481529060010190602001808311610e1c57829003601f168201915b5050505050908060020160009054906101000a900463ffffffff16908060020160049054906101000a900460ff16905084565b60606002805480602002602001604051908101604052809291908181526020016000905b82821015610ffb57838290600052602060002090600302016040518060800160405290816000820160009054906101000a900473ffffffffffffffffffffffffffffffffffffffff1673ffffffffffffffffffffffffffffffffffffffff1673ffffffffffffffffffffffffffffffffffffffff168152602001600182018054600181600116156101000203166002900480601f016020809104026020016040519081016040528092919081815260200182805460018160011615610100020316600290048015610fa25780601f10610f7757610100808354040283529160200191610fa2565b820191906000526020600020905b815481529060010190602001808311610f8557829003601f168201915b505050505081526020016002820160009054906101000a900463ffffffff1663ffffffff1663ffffffff1681526020016002820160049054906101000a900460ff16151515158152505081526020019060010190610e90565b50505050905090565b6000809054906101000a900473ffffffffffffffffffffffffffffffffffffffff1673ffffffffffffffffffffffffffffffffffffffff163373ffffffffffffffffffffffffffffffffffffffff1614611093576040517f08c379a000000000000000000000000000000000000000000000000000000000815260040161108a90612225565b60405180910390fd5b60008090505b6002805490508110156111bc578173ffffffffffffffffffffffffffffffffffffffff16600282815481106110ca57fe5b906000526020600020906003020160000160009054906101000a900473ffffffffffffffffffffffffffffffffffffffff1673ffffffffffffffffffffffffffffffffffffffff1614156111af576002818154811061112557fe5b9060005260206000209060030201600080820160006101000a81549073ffffffffffffffffffffffffffffffffffffffff021916905560018201600061116b91906117ea565b6002820160006101000a81549063ffffffff02191690556002820160046101000a81549060ff0219169055505060028054809190600190036111ad9190611832565b505b8080600101915050611099565b5050565b6000806000806000600360008973ffffffffffffffffffffffffffffffffffffffff1673ffffffffffffffffffffffffffffffffffffffff16815260200190815260200160002060008863ffffffff1663ffffffff1681526020019081526020016000206000878152602001908152602001600020549050806004805490501161127f576040517f08c379a000000000000000000000000000000000000000000000000000000000815260040161127690612265565b60405180910390fd5b8663ffffffff166004828154811061129357fe5b906000526020600020906003020160020160009054906101000a900463ffffffff1663ffffffff16146112fb576040517f08c379a00000000000000000000000000000000000000000000000000000000081526004016112f290612245565b60405180910390fd5b8773ffffffffffffffffffffffffffffffffffffffff166004828154811061131f57fe5b906000526020600020906003020160000160009054906101000a900473ffffffffffffffffffffffffffffffffffffffff1673ffffffffffffffffffffffffffffffffffffffff16146113a7576040517f08c379a000000000000000000000000000000000000000000000000000000000815260040161139e90612285565b60405180910390fd5b600481815481106113b457fe5b906000526020600020906003020160010154600482815481106113d357fe5b906000526020600020906003020160020160009054906101000a900463ffffffff166004838154811061140257fe5b906000526020600020906003020160020160049054906101000a900463ffffffff166004848154811061143157fe5b906000526020600020906003020160020160089054906101000a900467ffffffffffffffff1694509450945094505093509350935093565b600060606000600160008573ffffffffffffffffffffffffffffffffffffffff1673ffffffffffffffffffffffffffffffffffffffff16815260200190815260200160002060000160009054906101000a900473ffffffffffffffffffffffffffffffffffffffff16600160008673ffffffffffffffffffffffffffffffffffffffff1673ffffffffffffffffffffffffffffffffffffffff168152602001908152602001600020600101600160008773ffffffffffffffffffffffffffffffffffffffff1673ffffffffffffffffffffffffffffffffffffffff16815260200190815260200160002060020160009054906101000a900463ffffffff16818054600181600116156101000203166002900480601f0160208091040260200160405190810160405280929190818152602001828054600181600116156101000203166002900480156115fc5780601f106115d1576101008083540402835291602001916115fc565b820191906000526020600020905b8154815290600101906020018083116115df57829003601f168201915b505050505091509250925092509193909250565b6000809054906101000a900473ffffffffffffffffffffffffffffffffffffffff1673ffffffffffffffffffffffffffffffffffffffff163373ffffffffffffffffffffffffffffffffffffffff161461169f576040517f08c379a000000000000000000000000000000000000000000000000000000000815260040161169690612225565b60405180910390fd5b60008090505b600280549050811015611765578273ffffffffffffffffffffffffffffffffffffffff16600282815481106116d657fe5b906000526020600020906003020160000160009054906101000a900473ffffffffffffffffffffffffffffffffffffffff1673ffffffffffffffffffffffffffffffffffffffff16141561175857816002828154811061173257fe5b90600052602060002090600302016001019080519060200190611756929190611864565b505b80806001019150506116a5565b505050565b828054600181600116156101000203166002900490600052602060002090601f016020900481019282601f106117ab57805160ff19168380011785556117d9565b828001600101855582156117d9579182015b828111156117d85782518255916020019190600101906117bd565b5b5090506117e691906118e4565b5090565b50805460018160011615610100020316600290046000825580601f10611810575061182f565b601f01602090049060005260206000209081019061182e91906118e4565b5b50565b81548183558181111561185f5760030281600302836000526020600020918201910161185e9190611909565b5b505050565b828054600181600116156101000203166002900490600052602060002090601f016020900481019282601f106118a557805160ff19168380011785556118d3565b828001600101855582156118d3579182015b828111156118d25782518255916020019190600101906118b7565b5b5090506118e091906118e4565b5090565b61190691905b808211156119025760008160009055506001016118ea565b5090565b90565b61198791905b8082111561198357600080820160006101000a81549073ffffffffffffffffffffffffffffffffffffffff021916905560018201600061194f91906117ea565b6002820160006101000a81549063ffffffff02191690556002820160046101000a81549060ff02191690555060030161190f565b5090565b90565b60008135905061199981612522565b92915050565b600082601f8301126119b057600080fd5b81356119c36119be8261238d565b612360565b915080825260208301602083018583830111156119df57600080fd5b6119ea8382846124cf565b50505092915050565b600081359050611a0281612539565b92915050565b600081359050611a1781612550565b92915050565b600081359050611a2c81612567565b92915050565b600060208284031215611a4457600080fd5b6000611a528482850161198a565b91505092915050565b60008060408385031215611a6e57600080fd5b6000611a7c8582860161198a565b925050602083013567ffffffffffffffff811115611a9957600080fd5b611aa58582860161199f565b9150509250929050565b600080600060608486031215611ac457600080fd5b6000611ad28682870161198a565b9350506020611ae386828701611a08565b925050604084013567ffffffffffffffff811115611b0057600080fd5b611b0c8682870161199f565b9150509250925092565b600080600060608486031215611b2b57600080fd5b6000611b398682870161198a565b9350506020611b4a86828701611a08565b9250506040611b5b868287016119f3565b9150509250925092565b600060208284031215611b7757600080fd5b6000611b85848285016119f3565b91505092915050565b60008060008060808587031215611ba457600080fd5b6000611bb287828801611a08565b9450506020611bc387828801611a08565b9350506040611bd487828801611a1d565b9250506060611be587828801611a1d565b91505092959194509250565b6000611bfd8383611fa3565b905092915050565b6000611c118383612006565b60c08301905092915050565b611c2681612463565b82525050565b611c3581612463565b82525050565b6000611c46826123d9565b611c50818561241f565b935083602082028501611c62856123b9565b8060005b85811015611c9e5784840389528151611c7f8582611bf1565b9450611c8a83612405565b925060208a01995050600181019050611c66565b50829750879550505050505092915050565b6000611cbb826123e4565b611cc58185612430565b9350611cd0836123c9565b8060005b83811015611d01578151611ce88882611c05565b9750611cf383612412565b925050600181019050611cd4565b5085935050505092915050565b611d1781612475565b82525050565b611d2681612475565b82525050565b6000611d37826123fa565b611d418185612452565b9350611d518185602086016124de565b611d5a81612511565b840191505092915050565b6000611d70826123ef565b611d7a8185612441565b9350611d8a8185602086016124de565b611d9381612511565b840191505092915050565b6000611da9826123ef565b611db38185612452565b9350611dc38185602086016124de565b611dcc81612511565b840191505092915050565b6000611de4602283612452565b91507f4f6e6c79206f776e65722063616e2063616c6c20746869732066756e6374696f60008301527f6e2e0000000000000000000000000000000000000000000000000000000000006020830152604082019050919050565b6000611e4a601d83612452565b91507f5468657265206973206e6f206f66666572206f6e2074686973206461790000006000830152602082019050919050565b6000611e8a600b83612452565b91507f57726f6e6720696e6465780000000000000000000000000000000000000000006000830152602082019050919050565b6000611eca601083612452565b91507f57726f6e672042617474657279204944000000000000000000000000000000006000830152602082019050919050565b6000611f0a601d83612452565b91507f426174746572792064657461696c7320616c72656164792061646465640000006000830152602082019050919050565b6000611f4a603c83612452565b91507f57726f6e6720656e6572677920696e70757420726571756972652061206d696e60008301527f696d756d206f66666572206f6620312057682028313030306d576829000000006020830152604082019050919050565b6000608083016000830151611fbb6000860182611c1d565b5060208301518482036020860152611fd38282611d65565b9150506040830151611fe8604086018261209f565b506060830151611ffb6060860182611d0e565b508091505092915050565b60c08201600082015161201c6000850182611c1d565b50602082015161202f6020850182612081565b506040820151612042604085018261209f565b506060820151612055606085018261209f565b50608082015161206860808501826120bd565b5060a082015161207b60a08501826120bd565b50505050565b61208a816124a1565b82525050565b612099816124a1565b82525050565b6120a8816124ab565b82525050565b6120b7816124ab565b82525050565b6120c6816124bb565b82525050565b6120d5816124bb565b82525050565b60006060820190506120f06000830186611c2c565b81810360208301526121028185611d2c565b905061211160408301846120ae565b949350505050565b600060808201905061212e6000830187611c2c565b81810360208301526121408186611d9e565b905061214f60408301856120ae565b61215c6060830184611d1d565b95945050505050565b600060c08201905061217a6000830189611c2c565b6121876020830188612090565b61219460408301876120ae565b6121a160608301866120ae565b6121ae60808301856120cc565b6121bb60a08301846120cc565b979650505050505050565b600060208201905081810360008301526121e08184611c3b565b905092915050565b600060208201905081810360008301526122028184611cb0565b905092915050565b600060208201905061221f6000830184611d1d565b92915050565b6000602082019050818103600083015261223e81611dd7565b9050919050565b6000602082019050818103600083015261225e81611e3d565b9050919050565b6000602082019050818103600083015261227e81611e7d565b9050919050565b6000602082019050818103600083015261229e81611ebd565b9050919050565b600060208201905081810360008301526122be81611efd565b9050919050565b600060208201905081810360008301526122de81611f3d565b9050919050565b60006020820190506122fa6000830184612090565b92915050565b60006080820190506123156000830187612090565b61232260208301866120ae565b61232f60408301856120ae565b61233c60608301846120cc565b95945050505050565b600060208201905061235a60008301846120cc565b92915050565b6000604051905081810181811067ffffffffffffffff8211171561238357600080fd5b8060405250919050565b600067ffffffffffffffff8211156123a457600080fd5b601f19601f8301169050602081019050919050565b6000819050602082019050919050565b6000819050602082019050919050565b600081519050919050565b600081519050919050565b600081519050919050565b600081519050919050565b6000602082019050919050565b6000602082019050919050565b600082825260208201905092915050565b600082825260208201905092915050565b600082825260208201905092915050565b600082825260208201905092915050565b600061246e82612481565b9050919050565b60008115159050919050565b600073ffffffffffffffffffffffffffffffffffffffff82169050919050565b6000819050919050565b600063ffffffff82169050919050565b600067ffffffffffffffff82169050919050565b82818337600083830152505050565b60005b838110156124fc5780820151818401526020810190506124e1565b8381111561250b576000848401525b50505050565b6000601f19601f8301169050919050565b61252b81612463565b811461253657600080fd5b50565b612542816124a1565b811461254d57600080fd5b50565b612559816124ab565b811461256457600080fd5b50565b612570816124bb565b811461257b57600080fd5b5056fea365627a7a72315820430488b5fe105c04e6eeb7e9fb82c75c8d1d2bf51d3183255ca8e6359703808c6c6578706572696d656e74616cf564736f6c63430005100040",
  "source": "pragma solidity >=0.4.21 <0.7.0;\r\npragma experimental ABIEncoderV2;\r\n\r\n/*----------------------------------------owned Contract----------------------------------------*/\r\n//Create a contract owner\r\ncontract owned {\r\n    \r\n    address owner;\r\n    \r\n    constructor() public {\r\n        owner = msg.sender;\r\n    }\r\n    \r\n    modifier onlyOwner {\r\n        require(msg.sender == owner, \"Only owner can call this function.\");\r\n         _;\r\n    }\r\n}\r\n\r\n/*----------------------------------------batteryRegistry Contract----------------------------------------*/\r\n//Contract that allows battery address to be registered\r\ncontract batteryRegistry is owned {\r\n\r\n    //address public owner;\r\n\r\n    event batteryAdded(address indexed batteryID);\r\n\r\n    struct battery {\r\n        address batteryID;            //batteryID is Owner of battery ethereum address\r\n        string nameOfBatteryOwner;    //Name of battery owner \r\n        uint32 date;                  //Creation date\r\n        bool isExist;                 //Check if battery exist into addNewBattery function\r\n    }\r\n\r\n    //mapping uint as key to struct battery with mapping name batteries\r\n    mapping (address => battery) batteries;\r\n\r\n    battery[] public listOfBatteries;\r\n\r\n    constructor () public{\r\n        addNewBattery(msg.sender, 123, \"chris\");\r\n    }\r\n\r\n    //add a battery\r\n    function addNewBattery (address batteryID, uint32 date, string memory nameOfBatteryOwner) public onlyOwner returns(bool) {\r\n        batteryID = msg.sender;\r\n        require(batteries[batteryID].isExist==false, \"Battery details already added\");\r\n        //batteryID = msg.sender;\r\n        batteries[batteryID] = battery(batteryID, nameOfBatteryOwner, date, true);\r\n\r\n        listOfBatteries.push(battery({\r\n            batteryID: batteryID,\r\n            nameOfBatteryOwner: nameOfBatteryOwner,\r\n            date: date,\r\n            isExist: true\r\n            }));\r\n        emit batteryAdded(batteryID);\r\n        return true;\r\n    }\r\n\r\n    //to view all batteries\r\n    function viewAllBatteries () public view returns (battery[] memory){\r\n        return listOfBatteries;\r\n    }\r\n\r\n    //change details of a battery\r\n    function updateBattery(address batteryID, string memory nameOfBatteryOwner) public onlyOwner{\r\n        for(uint i = 0; i<listOfBatteries.length; i++){\r\n            if(listOfBatteries[i].batteryID == batteryID){\r\n                listOfBatteries[i].nameOfBatteryOwner = nameOfBatteryOwner;\r\n            }\r\n        }\r\n    }\r\n\r\n    //delete a battery by batteryID\r\n    function removeBattery(address batteryID) public onlyOwner{\r\n        for(uint i = 0; i<listOfBatteries.length; i++){\r\n            if(listOfBatteries[i].batteryID == batteryID){\r\n                delete listOfBatteries[i];\r\n                listOfBatteries.length--;\r\n            }\r\n        }\r\n    }\r\n\r\n    //view single battery by battery id\r\n    function getBatteryByID(address batteryID) public view returns (address, string memory, uint32){\r\n        return (batteries[batteryID].batteryID, batteries[batteryID].nameOfBatteryOwner, batteries[batteryID].date);\r\n    }\r\n}\r\n\r\n/*----------------------------------------energyBid Contract----------------------------------------*/\r\n//Contract for energy offers from current batteries\r\ncontract energyBid is batteryRegistry {\r\n\r\n    event bidMade(address indexed batteryID, uint32 indexed day, uint32 indexed price, uint64 energy);\r\n    //event bidRevoked(address indexed batteryID, uint32 indexed day, uint32 indexed price, uint64 energy);\r\n\r\n    uint64 constant mWh = 1;\r\n    uint64 constant Wh = 1000 * mWh;\r\n    uint64 constant kWh = 1000 * Wh;\r\n    uint64 constant MWh = 1000 * kWh;\r\n    uint64 constant GWh = 1000 * MWh;\r\n    uint64 constant TWh = 1000 * GWh;\r\n\r\n    struct bid{\r\n        address batteryID;    //battery public key\r\n        uint numberOfBid;     //A battery can create more than one energy offer\r\n        uint32 day;           //day for which the offer is valid\r\n        uint32 price;         //price vs market price\r\n        uint64 energy;        //energy to trade\r\n        uint64 timestamp;     //timestamp for when the bid was created\r\n    }\r\n\r\n    mapping(address => mapping(uint32 => mapping(uint=> uint))) public bids;\r\n    bid[] public listOfBids;\r\n    uint public nextNumberOfBid; \r\n\r\n    constructor () public{                            \r\n        energyOffer(20052020, 130, 1000, 1618653420);   \r\n    }                                                 \r\n\r\n    //create energy offer\r\n    function energyOffer(uint32 _day, uint32 _price, uint64 _energy, uint64 _timestamp) public onlyOwner{\r\n        require(_energy >= Wh, \"Wrong energy input require a minimum offer of 1 Wh (1000mWh)\");\r\n        uint index = bids[msg.sender][_day][nextNumberOfBid];\r\n\r\n        index = listOfBids.length;\r\n        bids[msg.sender][_day][nextNumberOfBid] = index;\r\n        listOfBids.push(bid({\r\n            batteryID: msg.sender,\r\n            numberOfBid: nextNumberOfBid,\r\n            day: _day,\r\n            price: _price,\r\n            energy: _energy,\r\n            timestamp: _timestamp\r\n        }));\r\n        emit bidMade(listOfBids[index].batteryID, listOfBids[index].day, listOfBids[index].price, listOfBids[index].energy);\r\n        nextNumberOfBid++;\r\n    }\r\n\r\n    //view all bids \r\n    function viewAllBids () public view returns (bid[] memory){\r\n      return listOfBids;\r\n    }\r\n\r\n    //view single bid by batteryID\r\n    function getBidByBatteryID (address batteryID, uint32 day, uint numberOfBid) public view returns (uint, uint32, uint32, uint64){\r\n        uint index = bids[batteryID][day][numberOfBid];\r\n        require(listOfBids.length > index, \"Wrong index\");\r\n        require(listOfBids[index].day == day, \"There is no offer on this day\");\r\n        require(listOfBids[index].batteryID == batteryID, \"Wrong Battery ID\");\r\n        return (listOfBids[index].numberOfBid, listOfBids[index].day, listOfBids[index].price, listOfBids[index].energy);\r\n        //return (listOfBids[batteryID].day, listOfBids[batteryID].price, listOfBids[batteryID].energy);\r\n    }\r\n}",
  "sourcePath": "C:/Users/Lenovo/projects/ethereum/protergia/blockchain-energy-trading-and-green-energy-certification-thesis-w-protergia/src/contracts/Battery.sol",
  "compiler": {
    "name": "solc",
    "version": "0.5.16+commit.9c3226ce.Emscripten.clang"
  },
  "schemaVersion": "3.3.4",
  "updatedAt": "2021-04-20T21:10:42.908Z",
  "devdoc": {
    "methods": {}
  },
  "userdoc": {
    "methods": {}
  }
}