{
  "contractName": "energyBid",
  "abi": [
    {
      "constant": false,
      "inputs": [
        {
          "internalType": "string",
          "name": "nameOfBatteryOwner",
          "type": "string"
        },
        {
          "internalType": "uint32",
          "name": "date",
          "type": "uint32"
        }
      ],
      "name": "addNewBattery",
      "outputs": [],
      "payable": false,
      "stateMutability": "nonpayable",
      "type": "function"
    },
    {
      "constant": true,
      "inputs": [
        {
          "internalType": "address",
          "name": "batteryID",
          "type": "address"
        }
      ],
      "name": "getBatteryByID",
      "outputs": [
        {
          "internalType": "address",
          "name": "",
          "type": "address"
        },
        {
          "internalType": "string",
          "name": "",
          "type": "string"
        },
        {
          "internalType": "uint32",
          "name": "",
          "type": "uint32"
        }
      ],
      "payable": false,
      "stateMutability": "view",
      "type": "function"
    },
    {
      "constant": false,
      "inputs": [
        {
          "internalType": "address",
          "name": "batteryID",
          "type": "address"
        },
        {
          "internalType": "string",
          "name": "nameOfBatteryOwner",
          "type": "string"
        }
      ],
      "name": "updateBattery",
      "outputs": [],
      "payable": false,
      "stateMutability": "nonpayable",
      "type": "function"
    },
    {
      "constant": true,
      "inputs": [],
      "name": "viewAllBatteries",
      "outputs": [
        {
          "components": [
            {
              "internalType": "address",
              "name": "batteryID",
              "type": "address"
            },
            {
              "internalType": "string",
              "name": "nameOfBatteryOwner",
              "type": "string"
            },
            {
              "internalType": "uint32",
              "name": "date",
              "type": "uint32"
            },
            {
              "internalType": "bool",
              "name": "isExist",
              "type": "bool"
            }
          ],
          "internalType": "struct batteryRegistry.battery[]",
          "name": "",
          "type": "tuple[]"
        }
      ],
      "payable": false,
      "stateMutability": "view",
      "type": "function"
    },
    {
      "constant": false,
      "inputs": [
        {
          "internalType": "uint32",
          "name": "_day",
          "type": "uint32"
        },
        {
          "internalType": "uint64",
          "name": "_energy",
          "type": "uint64"
        },
        {
          "internalType": "uint64",
          "name": "_timestamp",
          "type": "uint64"
        }
      ],
      "name": "askEnergy",
      "outputs": [],
      "payable": false,
      "stateMutability": "nonpayable",
      "type": "function"
    },
    {
      "constant": false,
      "inputs": [
        {
          "internalType": "uint32",
          "name": "_day",
          "type": "uint32"
        },
        {
          "internalType": "uint32",
          "name": "_price",
          "type": "uint32"
        },
        {
          "internalType": "uint64",
          "name": "_energy",
          "type": "uint64"
        },
        {
          "internalType": "uint64",
          "name": "_timestamp",
          "type": "uint64"
        },
        {
          "internalType": "address",
          "name": "_askBatteryID",
          "type": "address"
        },
        {
          "internalType": "string",
          "name": "_status",
          "type": "string"
        }
      ],
      "name": "energyOffer",
      "outputs": [],
      "payable": false,
      "stateMutability": "nonpayable",
      "type": "function"
    },
    {
      "constant": false,
      "inputs": [
        {
          "internalType": "address",
          "name": "_sellerBatteryID",
          "type": "address"
        },
        {
          "internalType": "uint32",
          "name": "_day",
          "type": "uint32"
        },
        {
          "internalType": "uint32",
          "name": "_price",
          "type": "uint32"
        },
        {
          "internalType": "uint64",
          "name": "_energy",
          "type": "uint64"
        },
        {
          "internalType": "uint64",
          "name": "_timestamp",
          "type": "uint64"
        },
        {
          "internalType": "uint256",
          "name": "_numberOfAsk",
          "type": "uint256"
        },
        {
          "internalType": "string",
          "name": "_status",
          "type": "string"
        }
      ],
      "name": "dealEnergy",
      "outputs": [
        {
          "internalType": "uint256",
          "name": "",
          "type": "uint256"
        }
      ],
      "payable": false,
      "stateMutability": "nonpayable",
      "type": "function"
    },
    {
      "constant": true,
      "inputs": [],
      "name": "viewAllAsks",
      "outputs": [
        {
          "components": [
            {
              "internalType": "address",
              "name": "askBatteryID",
              "type": "address"
            },
            {
              "internalType": "uint256",
              "name": "numberOfAsk",
              "type": "uint256"
            },
            {
              "internalType": "uint32",
              "name": "day",
              "type": "uint32"
            },
            {
              "internalType": "uint64",
              "name": "energy",
              "type": "uint64"
            },
            {
              "internalType": "uint64",
              "name": "timestamp",
              "type": "uint64"
            }
          ],
          "internalType": "struct energyBid.ask[]",
          "name": "",
          "type": "tuple[]"
        }
      ],
      "payable": false,
      "stateMutability": "view",
      "type": "function"
    },
    {
      "constant": true,
      "inputs": [
        {
          "internalType": "address",
          "name": "askBatteryID",
          "type": "address"
        },
        {
          "internalType": "uint32",
          "name": "day",
          "type": "uint32"
        },
        {
          "internalType": "uint256",
          "name": "numberOfAsk",
          "type": "uint256"
        }
      ],
      "name": "getAskByIdAndDay",
      "outputs": [
        {
          "internalType": "uint256",
          "name": "",
          "type": "uint256"
        },
        {
          "internalType": "uint32",
          "name": "",
          "type": "uint32"
        },
        {
          "internalType": "uint64",
          "name": "",
          "type": "uint64"
        }
      ],
      "payable": false,
      "stateMutability": "view",
      "type": "function"
    },
    {
      "constant": true,
      "inputs": [],
      "name": "viewAllBids",
      "outputs": [
        {
          "components": [
            {
              "internalType": "address",
              "name": "sellerBatteryID",
              "type": "address"
            },
            {
              "internalType": "uint256",
              "name": "numberOfBid",
              "type": "uint256"
            },
            {
              "internalType": "uint32",
              "name": "day",
              "type": "uint32"
            },
            {
              "internalType": "uint32",
              "name": "price",
              "type": "uint32"
            },
            {
              "internalType": "uint64",
              "name": "energy",
              "type": "uint64"
            },
            {
              "internalType": "uint64",
              "name": "timestamp",
              "type": "uint64"
            },
            {
              "internalType": "address",
              "name": "askBatteryID",
              "type": "address"
            },
            {
              "internalType": "uint256",
              "name": "nextNumberOfAsk",
              "type": "uint256"
            },
            {
              "internalType": "string",
              "name": "status",
              "type": "string"
            }
          ],
          "internalType": "struct energyBid.bid[]",
          "name": "",
          "type": "tuple[]"
        }
      ],
      "payable": false,
      "stateMutability": "view",
      "type": "function"
    },
    {
      "constant": true,
      "inputs": [],
      "name": "viewAllBuyedBids",
      "outputs": [
        {
          "components": [
            {
              "internalType": "address",
              "name": "sellerBatteryID",
              "type": "address"
            },
            {
              "internalType": "uint256",
              "name": "numberOfBid",
              "type": "uint256"
            },
            {
              "internalType": "uint32",
              "name": "day",
              "type": "uint32"
            },
            {
              "internalType": "uint32",
              "name": "price",
              "type": "uint32"
            },
            {
              "internalType": "uint64",
              "name": "energy",
              "type": "uint64"
            },
            {
              "internalType": "uint64",
              "name": "timestamp",
              "type": "uint64"
            },
            {
              "internalType": "address",
              "name": "askBatteryID",
              "type": "address"
            },
            {
              "internalType": "uint256",
              "name": "nextNumberOfAsk",
              "type": "uint256"
            },
            {
              "internalType": "string",
              "name": "status",
              "type": "string"
            }
          ],
          "internalType": "struct energyBid.bid[]",
          "name": "",
          "type": "tuple[]"
        }
      ],
      "payable": false,
      "stateMutability": "view",
      "type": "function"
    },
    {
      "constant": true,
      "inputs": [
        {
          "internalType": "address",
          "name": "batteryID",
          "type": "address"
        },
        {
          "internalType": "uint32",
          "name": "day",
          "type": "uint32"
        },
        {
          "internalType": "uint256",
          "name": "numberOfBid",
          "type": "uint256"
        }
      ],
      "name": "getBidByIdAndDay",
      "outputs": [
        {
          "internalType": "uint256",
          "name": "",
          "type": "uint256"
        },
        {
          "internalType": "uint32",
          "name": "",
          "type": "uint32"
        },
        {
          "internalType": "uint32",
          "name": "",
          "type": "uint32"
        },
        {
          "internalType": "uint64",
          "name": "",
          "type": "uint64"
        }
      ],
      "payable": false,
      "stateMutability": "view",
      "type": "function"
    }
  ],
  "bytecode": "0x6080604052336000806101000a81548173ffffffffffffffffffffffffffffffffffffffff021916908373ffffffffffffffffffffffffffffffffffffffff160217905550613504806100536000396000f3fe608060405234801561001057600080fd5b50600436106100b45760003560e01c80638b4a3c12116100715780638b4a3c121461019257806391aedccd146101ae578063b47c7741146101ca578063c9fb8578146101e8578063eefa716b1461021a578063f5bdbfd614610236576100b4565b8063207f9c7a146100b95780632ef3b9a2146100ec5780635acae3d21461011c5780635b4cf93c1461013a57806386b6c85a1461015857806387bdb20614610174575b600080fd5b6100d360048036036100ce91908101906126dd565b610268565b6040516100e394939291906131ee565b60405180910390f35b6101066004803603610101919081019061272c565b610511565b60405161011391906131d3565b60405180910390f35b610124610b61565b6040516101319190613091565b60405180910390f35b610142610dd3565b60405161014f9190613091565b60405180910390f35b610172600480360361016d91908101906127e2565b611045565b005b61017c611327565b604051610189919061304d565b60405180910390f35b6101ac60048036036101a791908101906128d7565b611470565b005b6101c860048036036101c39190810190612836565b611863565b005b6101d2611d26565b6040516101df919061306f565b60405180910390f35b61020260048036036101fd9190810190612660565b611ebe565b6040516102119392919061300f565b60405180910390f35b610234600480360361022f9190810190612689565b612065565b005b610250600480360361024b91908101906126dd565b61221d565b60405161025f93929190613233565b60405180910390f35b6000806000806000600660008973ffffffffffffffffffffffffffffffffffffffff1673ffffffffffffffffffffffffffffffffffffffff16815260200190815260200160002060008863ffffffff1663ffffffff16815260200190815260200160002060008781526020019081526020016000205490508060078054905011610327576040517f08c379a000000000000000000000000000000000000000000000000000000000815260040161031e90613133565b60405180910390fd5b8663ffffffff166007828154811061033b57fe5b906000526020600020906006020160020160009054906101000a900463ffffffff1663ffffffff16146103a3576040517f08c379a000000000000000000000000000000000000000000000000000000000815260040161039a906130b3565b60405180910390fd5b8773ffffffffffffffffffffffffffffffffffffffff16600782815481106103c757fe5b906000526020600020906006020160000160009054906101000a900473ffffffffffffffffffffffffffffffffffffffff1673ffffffffffffffffffffffffffffffffffffffff161461044f576040517f08c379a000000000000000000000000000000000000000000000000000000000815260040161044690613173565b60405180910390fd5b6007818154811061045c57fe5b9060005260206000209060060201600101546007828154811061047b57fe5b906000526020600020906006020160020160009054906101000a900463ffffffff16600783815481106104aa57fe5b906000526020600020906006020160020160049054906101000a900463ffffffff16600784815481106104d957fe5b906000526020600020906006020160020160089054906101000a900467ffffffffffffffff1694509450945094505093509350935093565b600060011515600160003373ffffffffffffffffffffffffffffffffffffffff1673ffffffffffffffffffffffffffffffffffffffff16815260200190815260200160002060020160049054906101000a900460ff161515146105a9576040517f08c379a00000000000000000000000000000000000000000000000000000000081526004016105a090613153565b60405180910390fd5b60011515600160003373ffffffffffffffffffffffffffffffffffffffff1673ffffffffffffffffffffffffffffffffffffffff16815260200190815260200160002060020160049054906101000a900460ff1615151461063f576040517f08c379a0000000000000000000000000000000000000000000000000000000008152600401610636906130d3565b60405180910390fd5b60016103e8026103e80267ffffffffffffffff168567ffffffffffffffff16101561069f576040517f08c379a0000000000000000000000000000000000000000000000000000000008152600401610696906131b3565b60405180910390fd5b6000600660008a73ffffffffffffffffffffffffffffffffffffffff1673ffffffffffffffffffffffffffffffffffffffff16815260200190815260200160002060008963ffffffff1663ffffffff168152602001908152602001600020600060095481526020019081526020016000205490506000600360003373ffffffffffffffffffffffffffffffffffffffff1673ffffffffffffffffffffffffffffffffffffffff16815260200190815260200160002060008a63ffffffff1663ffffffff168152602001908152602001600020600086815260200190815260200160002054905060008290505b600160078054905003811015610b53578863ffffffff16600782815481106107af57fe5b906000526020600020906006020160020160049054906101000a900463ffffffff1663ffffffff1614801561081d57508963ffffffff16600782815481106107f357fe5b906000526020600020906006020160020160009054906101000a900463ffffffff1663ffffffff16145b801561089257508a73ffffffffffffffffffffffffffffffffffffffff166007828154811061084857fe5b906000526020600020906006020160000160009054906101000a900473ffffffffffffffffffffffffffffffffffffffff1673ffffffffffffffffffffffffffffffffffffffff16145b15610b4157600880549050600660008d73ffffffffffffffffffffffffffffffffffffffff1673ffffffffffffffffffffffffffffffffffffffff16815260200190815260200160002060008c63ffffffff1663ffffffff168152602001908152602001600020600060095481526020019081526020016000208190555060086040518061012001604052808d73ffffffffffffffffffffffffffffffffffffffff16815260200160095481526020018c63ffffffff1681526020018b63ffffffff1681526020018a67ffffffffffffffff1681526020018967ffffffffffffffff1681526020013373ffffffffffffffffffffffffffffffffffffffff1681526020016005548152602001878152509080600181540180825580915050906001820390600052602060002090600602016000909192909190915060008201518160000160006101000a81548173ffffffffffffffffffffffffffffffffffffffff021916908373ffffffffffffffffffffffffffffffffffffffff1602179055506020820151816001015560408201518160020160006101000a81548163ffffffff021916908363ffffffff16021790555060608201518160020160046101000a81548163ffffffff021916908363ffffffff16021790555060808201518160020160086101000a81548167ffffffffffffffff021916908367ffffffffffffffff16021790555060a08201518160020160106101000a81548167ffffffffffffffff021916908367ffffffffffffffff16021790555060c08201518160030160006101000a81548173ffffffffffffffffffffffffffffffffffffffff021916908373ffffffffffffffffffffffffffffffffffffffff16021790555060e08201518160040155610100820151816005019080519060200190610b38929190612493565b50505050610b46565b600080fd5b808060010191505061078b565b505050979650505050505050565b60606008805480602002602001604051908101604052809291908181526020016000905b82821015610dca5783829060005260206000209060060201604051806101200160405290816000820160009054906101000a900473ffffffffffffffffffffffffffffffffffffffff1673ffffffffffffffffffffffffffffffffffffffff1673ffffffffffffffffffffffffffffffffffffffff168152602001600182015481526020016002820160009054906101000a900463ffffffff1663ffffffff1663ffffffff1681526020016002820160049054906101000a900463ffffffff1663ffffffff1663ffffffff1681526020016002820160089054906101000a900467ffffffffffffffff1667ffffffffffffffff1667ffffffffffffffff1681526020016002820160109054906101000a900467ffffffffffffffff1667ffffffffffffffff1667ffffffffffffffff1681526020016003820160009054906101000a900473ffffffffffffffffffffffffffffffffffffffff1673ffffffffffffffffffffffffffffffffffffffff1673ffffffffffffffffffffffffffffffffffffffff16815260200160048201548152602001600582018054600181600116156101000203166002900480601f016020809104026020016040519081016040528092919081815260200182805460018160011615610100020316600290048015610db25780601f10610d8757610100808354040283529160200191610db2565b820191906000526020600020905b815481529060010190602001808311610d9557829003601f168201915b50505050508152505081526020019060010190610b85565b50505050905090565b60606007805480602002602001604051908101604052809291908181526020016000905b8282101561103c5783829060005260206000209060060201604051806101200160405290816000820160009054906101000a900473ffffffffffffffffffffffffffffffffffffffff1673ffffffffffffffffffffffffffffffffffffffff1673ffffffffffffffffffffffffffffffffffffffff168152602001600182015481526020016002820160009054906101000a900463ffffffff1663ffffffff1663ffffffff1681526020016002820160049054906101000a900463ffffffff1663ffffffff1663ffffffff1681526020016002820160089054906101000a900467ffffffffffffffff1667ffffffffffffffff1667ffffffffffffffff1681526020016002820160109054906101000a900467ffffffffffffffff1667ffffffffffffffff1667ffffffffffffffff1681526020016003820160009054906101000a900473ffffffffffffffffffffffffffffffffffffffff1673ffffffffffffffffffffffffffffffffffffffff1673ffffffffffffffffffffffffffffffffffffffff16815260200160048201548152602001600582018054600181600116156101000203166002900480601f0160208091040260200160405190810160405280929190818152602001828054600181600116156101000203166002900480156110245780601f10610ff957610100808354040283529160200191611024565b820191906000526020600020905b81548152906001019060200180831161100757829003601f168201915b50505050508152505081526020019060010190610df7565b50505050905090565b60001515600160003373ffffffffffffffffffffffffffffffffffffffff1673ffffffffffffffffffffffffffffffffffffffff16815260200190815260200160002060020160049054906101000a900460ff161515146110db576040517f08c379a00000000000000000000000000000000000000000000000000000000081526004016110d290613193565b60405180910390fd5b60405180608001604052803373ffffffffffffffffffffffffffffffffffffffff1681526020018381526020018263ffffffff16815260200160011515815250600160003373ffffffffffffffffffffffffffffffffffffffff1673ffffffffffffffffffffffffffffffffffffffff16815260200190815260200160002060008201518160000160006101000a81548173ffffffffffffffffffffffffffffffffffffffff021916908373ffffffffffffffffffffffffffffffffffffffff16021790555060208201518160010190805190602001906111bd929190612493565b5060408201518160020160006101000a81548163ffffffff021916908363ffffffff16021790555060608201518160020160046101000a81548160ff021916908315150217905550905050600260405180608001604052803373ffffffffffffffffffffffffffffffffffffffff1681526020018481526020018363ffffffff168152602001600115158152509080600181540180825580915050906001820390600052602060002090600302016000909192909190915060008201518160000160006101000a81548173ffffffffffffffffffffffffffffffffffffffff021916908373ffffffffffffffffffffffffffffffffffffffff16021790555060208201518160010190805190602001906112d8929190612493565b5060408201518160020160006101000a81548163ffffffff021916908363ffffffff16021790555060608201518160020160046101000a81548160ff0219169083151502179055505050505050565b60606004805480602002602001604051908101604052809291908181526020016000905b8282101561146757838290600052602060002090600302016040518060a00160405290816000820160009054906101000a900473ffffffffffffffffffffffffffffffffffffffff1673ffffffffffffffffffffffffffffffffffffffff1673ffffffffffffffffffffffffffffffffffffffff168152602001600182015481526020016002820160009054906101000a900463ffffffff1663ffffffff1663ffffffff1681526020016002820160049054906101000a900467ffffffffffffffff1667ffffffffffffffff1667ffffffffffffffff16815260200160028201600c9054906101000a900467ffffffffffffffff1667ffffffffffffffff1667ffffffffffffffff16815250508152602001906001019061134b565b50505050905090565b60011515600160003373ffffffffffffffffffffffffffffffffffffffff1673ffffffffffffffffffffffffffffffffffffffff16815260200190815260200160002060020160049054906101000a900460ff16151514611506576040517f08c379a00000000000000000000000000000000000000000000000000000000081526004016114fd90613153565b60405180910390fd5b60011515600160003373ffffffffffffffffffffffffffffffffffffffff1673ffffffffffffffffffffffffffffffffffffffff16815260200190815260200160002060020160049054906101000a900460ff1615151461159c576040517f08c379a0000000000000000000000000000000000000000000000000000000008152600401611593906130d3565b60405180910390fd5b60016103e8026103e80267ffffffffffffffff168267ffffffffffffffff1610156115fc576040517f08c379a00000000000000000000000000000000000000000000000000000000081526004016115f3906130f3565b60405180910390fd5b6000600360003373ffffffffffffffffffffffffffffffffffffffff1673ffffffffffffffffffffffffffffffffffffffff16815260200190815260200160002060008563ffffffff1663ffffffff16815260200190815260200160002060006005548152602001908152602001600020549050600480549050905080600360003373ffffffffffffffffffffffffffffffffffffffff1673ffffffffffffffffffffffffffffffffffffffff16815260200190815260200160002060008663ffffffff1663ffffffff168152602001908152602001600020600060055481526020019081526020016000208190555060046040518060a001604052803373ffffffffffffffffffffffffffffffffffffffff16815260200160055481526020018663ffffffff1681526020018567ffffffffffffffff1681526020018467ffffffffffffffff168152509080600181540180825580915050906001820390600052602060002090600302016000909192909190915060008201518160000160006101000a81548173ffffffffffffffffffffffffffffffffffffffff021916908373ffffffffffffffffffffffffffffffffffffffff1602179055506020820151816001015560408201518160020160006101000a81548163ffffffff021916908363ffffffff16021790555060608201518160020160046101000a81548167ffffffffffffffff021916908367ffffffffffffffff160217905550608082015181600201600c6101000a81548167ffffffffffffffff021916908367ffffffffffffffff16021790555050505060056000815480929190600101919050555050505050565b60011515600160003373ffffffffffffffffffffffffffffffffffffffff1673ffffffffffffffffffffffffffffffffffffffff16815260200190815260200160002060020160049054906101000a900460ff161515146118f9576040517f08c379a00000000000000000000000000000000000000000000000000000000081526004016118f090613153565b60405180910390fd5b60011515600160003373ffffffffffffffffffffffffffffffffffffffff1673ffffffffffffffffffffffffffffffffffffffff16815260200190815260200160002060020160049054906101000a900460ff1615151461198f576040517f08c379a0000000000000000000000000000000000000000000000000000000008152600401611986906130d3565b60405180910390fd5b60016103e8026103e80267ffffffffffffffff168467ffffffffffffffff1610156119ef576040517f08c379a00000000000000000000000000000000000000000000000000000000081526004016119e6906130f3565b60405180910390fd5b6000600660003373ffffffffffffffffffffffffffffffffffffffff1673ffffffffffffffffffffffffffffffffffffffff16815260200190815260200160002060008863ffffffff1663ffffffff16815260200190815260200160002060006009548152602001908152602001600020549050600780549050905080600660003373ffffffffffffffffffffffffffffffffffffffff1673ffffffffffffffffffffffffffffffffffffffff16815260200190815260200160002060008963ffffffff1663ffffffff168152602001908152602001600020600060095481526020019081526020016000208190555060076040518061012001604052803373ffffffffffffffffffffffffffffffffffffffff16815260200160095481526020018963ffffffff1681526020018863ffffffff1681526020018767ffffffffffffffff1681526020018667ffffffffffffffff1681526020018573ffffffffffffffffffffffffffffffffffffffff1681526020016005548152602001848152509080600181540180825580915050906001820390600052602060002090600602016000909192909190915060008201518160000160006101000a81548173ffffffffffffffffffffffffffffffffffffffff021916908373ffffffffffffffffffffffffffffffffffffffff1602179055506020820151816001015560408201518160020160006101000a81548163ffffffff021916908363ffffffff16021790555060608201518160020160046101000a81548163ffffffff021916908363ffffffff16021790555060808201518160020160086101000a81548167ffffffffffffffff021916908367ffffffffffffffff16021790555060a08201518160020160106101000a81548167ffffffffffffffff021916908367ffffffffffffffff16021790555060c08201518160030160006101000a81548173ffffffffffffffffffffffffffffffffffffffff021916908373ffffffffffffffffffffffffffffffffffffffff16021790555060e08201518160040155610100820151816005019080519060200190611d07929190612493565b5050505060096000815480929190600101919050555050505050505050565b60606002805480602002602001604051908101604052809291908181526020016000905b82821015611eb557838290600052602060002090600302016040518060800160405290816000820160009054906101000a900473ffffffffffffffffffffffffffffffffffffffff1673ffffffffffffffffffffffffffffffffffffffff1673ffffffffffffffffffffffffffffffffffffffff168152602001600182018054600181600116156101000203166002900480601f016020809104026020016040519081016040528092919081815260200182805460018160011615610100020316600290048015611e5c5780601f10611e3157610100808354040283529160200191611e5c565b820191906000526020600020905b815481529060010190602001808311611e3f57829003601f168201915b505050505081526020016002820160009054906101000a900463ffffffff1663ffffffff1663ffffffff1681526020016002820160049054906101000a900460ff16151515158152505081526020019060010190611d4a565b50505050905090565b600060606000600160008573ffffffffffffffffffffffffffffffffffffffff1673ffffffffffffffffffffffffffffffffffffffff16815260200190815260200160002060000160009054906101000a900473ffffffffffffffffffffffffffffffffffffffff16600160008673ffffffffffffffffffffffffffffffffffffffff1673ffffffffffffffffffffffffffffffffffffffff168152602001908152602001600020600101600160008773ffffffffffffffffffffffffffffffffffffffff1673ffffffffffffffffffffffffffffffffffffffff16815260200190815260200160002060020160009054906101000a900463ffffffff16818054600181600116156101000203166002900480601f0160208091040260200160405190810160405280929190818152602001828054600181600116156101000203166002900480156120515780601f1061202657610100808354040283529160200191612051565b820191906000526020600020905b81548152906001019060200180831161203457829003601f168201915b505050505091509250925092509193909250565b60011515600160003373ffffffffffffffffffffffffffffffffffffffff1673ffffffffffffffffffffffffffffffffffffffff16815260200190815260200160002060020160049054906101000a900460ff161515146120fb576040517f08c379a00000000000000000000000000000000000000000000000000000000081526004016120f290613153565b60405180910390fd5b60008090505b600280549050811015612218578273ffffffffffffffffffffffffffffffffffffffff166002828154811061213257fe5b906000526020600020906003020160000160009054906101000a900473ffffffffffffffffffffffffffffffffffffffff1673ffffffffffffffffffffffffffffffffffffffff16141561220b57816002828154811061218e57fe5b906000526020600020906003020160010190805190602001906121b2929190612513565b5081600160008573ffffffffffffffffffffffffffffffffffffffff1673ffffffffffffffffffffffffffffffffffffffff1681526020019081526020016000206001019080519060200190612209929190612513565b505b8080600101915050612101565b505050565b600080600080600360008873ffffffffffffffffffffffffffffffffffffffff1673ffffffffffffffffffffffffffffffffffffffff16815260200190815260200160002060008763ffffffff1663ffffffff168152602001908152602001600020600086815260200190815260200160002054905080600480549050116122da576040517f08c379a00000000000000000000000000000000000000000000000000000000081526004016122d190613133565b60405180910390fd5b8563ffffffff16600482815481106122ee57fe5b906000526020600020906003020160020160009054906101000a900463ffffffff1663ffffffff1614612356576040517f08c379a000000000000000000000000000000000000000000000000000000000815260040161234d906130b3565b60405180910390fd5b8673ffffffffffffffffffffffffffffffffffffffff166004828154811061237a57fe5b906000526020600020906003020160000160009054906101000a900473ffffffffffffffffffffffffffffffffffffffff1673ffffffffffffffffffffffffffffffffffffffff1614612402576040517f08c379a00000000000000000000000000000000000000000000000000000000081526004016123f990613113565b60405180910390fd5b6004818154811061240f57fe5b9060005260206000209060030201600101546004828154811061242e57fe5b906000526020600020906003020160020160009054906101000a900463ffffffff166004838154811061245d57fe5b906000526020600020906003020160020160049054906101000a900467ffffffffffffffff169350935093505093509350939050565b828054600181600116156101000203166002900490600052602060002090601f016020900481019282601f106124d457805160ff1916838001178555612502565b82800160010185558215612502579182015b828111156125015782518255916020019190600101906124e6565b5b50905061250f9190612593565b5090565b828054600181600116156101000203166002900490600052602060002090601f016020900481019282601f1061255457805160ff1916838001178555612582565b82800160010185558215612582579182015b82811115612581578251825591602001919060010190612566565b5b50905061258f9190612593565b5090565b6125b591905b808211156125b1576000816000905550600101612599565b5090565b90565b6000813590506125c781613465565b92915050565b600082601f8301126125de57600080fd5b81356125f16125ec82613297565b61326a565b9150808252602083016020830185838301111561260d57600080fd5b612618838284613412565b50505092915050565b6000813590506126308161347c565b92915050565b60008135905061264581613493565b92915050565b60008135905061265a816134aa565b92915050565b60006020828403121561267257600080fd5b6000612680848285016125b8565b91505092915050565b6000806040838503121561269c57600080fd5b60006126aa858286016125b8565b925050602083013567ffffffffffffffff8111156126c757600080fd5b6126d3858286016125cd565b9150509250929050565b6000806000606084860312156126f257600080fd5b6000612700868287016125b8565b935050602061271186828701612636565b925050604061272286828701612621565b9150509250925092565b600080600080600080600060e0888a03121561274757600080fd5b60006127558a828b016125b8565b97505060206127668a828b01612636565b96505060406127778a828b01612636565b95505060606127888a828b0161264b565b94505060806127998a828b0161264b565b93505060a06127aa8a828b01612621565b92505060c088013567ffffffffffffffff8111156127c757600080fd5b6127d38a828b016125cd565b91505092959891949750929550565b600080604083850312156127f557600080fd5b600083013567ffffffffffffffff81111561280f57600080fd5b61281b858286016125cd565b925050602061282c85828601612636565b9150509250929050565b60008060008060008060c0878903121561284f57600080fd5b600061285d89828a01612636565b965050602061286e89828a01612636565b955050604061287f89828a0161264b565b945050606061289089828a0161264b565b93505060806128a189828a016125b8565b92505060a087013567ffffffffffffffff8111156128be57600080fd5b6128ca89828a016125cd565b9150509295509295509295565b6000806000606084860312156128ec57600080fd5b60006128fa86828701612636565b935050602061290b8682870161264b565b925050604061291c8682870161264b565b9150509250925092565b60006129328383612e25565b60a08301905092915050565b600061294a8383612e8d565b905092915050565b600061295e8383612ef0565b905092915050565b61296f816133a6565b82525050565b61297e816133a6565b82525050565b600061298f826132f3565b6129998185613351565b93506129a4836132c3565b8060005b838110156129d55781516129bc8882612926565b97506129c78361332a565b9250506001810190506129a8565b5085935050505092915050565b60006129ed826132fe565b6129f78185613362565b935083602082028501612a09856132d3565b8060005b85811015612a455784840389528151612a26858261293e565b9450612a3183613337565b925060208a01995050600181019050612a0d565b50829750879550505050505092915050565b6000612a6282613309565b612a6c8185613373565b935083602082028501612a7e856132e3565b8060005b85811015612aba5784840389528151612a9b8582612952565b9450612aa683613344565b925060208a01995050600181019050612a82565b50829750879550505050505092915050565b612ad5816133b8565b82525050565b6000612ae68261331f565b612af08185613395565b9350612b00818560208601613421565b612b0981613454565b840191505092915050565b6000612b1f82613314565b612b298185613384565b9350612b39818560208601613421565b612b4281613454565b840191505092915050565b6000612b5a601d83613395565b91507f5468657265206973206e6f206f66666572206f6e2074686973206461790000006000830152602082019050919050565b6000612b9a601d83613395565b91507f426174746572792064657461696c7320617265206e6f742065786973740000006000830152602082019050919050565b6000612bda604283613395565b91507f57726f6e6720656e6572677920696e70757420726571756972652061206d696e60008301527f696d756d206f66666572206f662031206b57682028312e3030302e3030306d5760208301527f68290000000000000000000000000000000000000000000000000000000000006040830152606082019050919050565b6000612c66601083613395565b91507f57726f6e672042617474657279204964000000000000000000000000000000006000830152602082019050919050565b6000612ca6600b83613395565b91507f57726f6e6720696e6465780000000000000000000000000000000000000000006000830152602082019050919050565b6000612ce6602583613395565b91507f4f6e6c792072656769737465726564206261747465726965732068617665206160008301527f63636573730000000000000000000000000000000000000000000000000000006020830152604082019050919050565b6000612d4c600883613395565b91507f57726f6e672049440000000000000000000000000000000000000000000000006000830152602082019050919050565b6000612d8c601d83613395565b91507f426174746572792064657461696c7320616c72656164792061646465640000006000830152602082019050919050565b6000612dcc603483613395565b91507f526571756972652061206d696e696d756d2061736b20656e65726779206f662060008301527f31206b57682028312e3030302e3030306d5768290000000000000000000000006020830152604082019050919050565b60a082016000820151612e3b6000850182612966565b506020820151612e4e6020850182612fb5565b506040820151612e616040850182612fd3565b506060820151612e746060850182612ff1565b506080820151612e876080850182612ff1565b50505050565b6000608083016000830151612ea56000860182612966565b5060208301518482036020860152612ebd8282612b14565b9150506040830151612ed26040860182612fd3565b506060830151612ee56060860182612acc565b508091505092915050565b600061012083016000830151612f096000860182612966565b506020830151612f1c6020860182612fb5565b506040830151612f2f6040860182612fd3565b506060830151612f426060860182612fd3565b506080830151612f556080860182612ff1565b5060a0830151612f6860a0860182612ff1565b5060c0830151612f7b60c0860182612966565b5060e0830151612f8e60e0860182612fb5565b50610100830151848203610100860152612fa88282612b14565b9150508091505092915050565b612fbe816133e4565b82525050565b612fcd816133e4565b82525050565b612fdc816133ee565b82525050565b612feb816133ee565b82525050565b612ffa816133fe565b82525050565b613009816133fe565b82525050565b60006060820190506130246000830186612975565b81810360208301526130368185612adb565b90506130456040830184612fe2565b949350505050565b600060208201905081810360008301526130678184612984565b905092915050565b6000602082019050818103600083015261308981846129e2565b905092915050565b600060208201905081810360008301526130ab8184612a57565b905092915050565b600060208201905081810360008301526130cc81612b4d565b9050919050565b600060208201905081810360008301526130ec81612b8d565b9050919050565b6000602082019050818103600083015261310c81612bcd565b9050919050565b6000602082019050818103600083015261312c81612c59565b9050919050565b6000602082019050818103600083015261314c81612c99565b9050919050565b6000602082019050818103600083015261316c81612cd9565b9050919050565b6000602082019050818103600083015261318c81612d3f565b9050919050565b600060208201905081810360008301526131ac81612d7f565b9050919050565b600060208201905081810360008301526131cc81612dbf565b9050919050565b60006020820190506131e86000830184612fc4565b92915050565b60006080820190506132036000830187612fc4565b6132106020830186612fe2565b61321d6040830185612fe2565b61322a6060830184613000565b95945050505050565b60006060820190506132486000830186612fc4565b6132556020830185612fe2565b6132626040830184613000565b949350505050565b6000604051905081810181811067ffffffffffffffff8211171561328d57600080fd5b8060405250919050565b600067ffffffffffffffff8211156132ae57600080fd5b601f19601f8301169050602081019050919050565b6000819050602082019050919050565b6000819050602082019050919050565b6000819050602082019050919050565b600081519050919050565b600081519050919050565b600081519050919050565b600081519050919050565b600081519050919050565b6000602082019050919050565b6000602082019050919050565b6000602082019050919050565b600082825260208201905092915050565b600082825260208201905092915050565b600082825260208201905092915050565b600082825260208201905092915050565b600082825260208201905092915050565b60006133b1826133c4565b9050919050565b60008115159050919050565b600073ffffffffffffffffffffffffffffffffffffffff82169050919050565b6000819050919050565b600063ffffffff82169050919050565b600067ffffffffffffffff82169050919050565b82818337600083830152505050565b60005b8381101561343f578082015181840152602081019050613424565b8381111561344e576000848401525b50505050565b6000601f19601f8301169050919050565b61346e816133a6565b811461347957600080fd5b50565b613485816133e4565b811461349057600080fd5b50565b61349c816133ee565b81146134a757600080fd5b50565b6134b3816133fe565b81146134be57600080fd5b5056fea365627a7a723158206fa0abe38b4e75b8d88a8e12c73cdd373cb8ef61887eb4e5c61e577a57b880c76c6578706572696d656e74616cf564736f6c63430005100040",
  "source": "pragma solidity >=0.4.21 <0.7.0;\r\npragma experimental ABIEncoderV2;\r\n\r\n/********owned Contract********/\r\n//Create a contract owner\r\ncontract owned {\r\n    \r\n    address owner;\r\n    \r\n    constructor() public {\r\n        owner = msg.sender;\r\n    }\r\n    \r\n    modifier onlyOwner {\r\n        require(msg.sender == owner, \"Only owner can call this function.\");\r\n         _;\r\n    }\r\n}\r\n\r\n/********batteryRegistry Contract********/\r\n//Contract that allows battery address to be registered\r\ncontract batteryRegistry is owned {\r\n\r\n    struct battery {\r\n        address batteryID;            //batteryID is Owner of battery ethereum address\r\n        string nameOfBatteryOwner;    //Name of battery owner \r\n        uint32 date;                  //Creation date\r\n        bool isExist;                 //Check if battery exist into addNewBattery function\r\n    }\r\n\r\n    //mapping address as key to struct battery with mapping name batteries\r\n    mapping (address => battery) batteries;\r\n    battery[] listOfBatteries;\r\n\r\n    modifier onlyRegisteredBattery{\r\n         require(batteries[msg.sender].isExist==true, \"Only registered batteries have access\");\r\n         _;\r\n     }\r\n\r\n    //add a battery by eth account address\r\n    function addNewBattery (string memory nameOfBatteryOwner, uint32 date) public {\r\n        require(batteries[msg.sender].isExist==false, \"Battery details already added\");\r\n        batteries[msg.sender] = battery(msg.sender, nameOfBatteryOwner, date, true);\r\n\r\n        listOfBatteries.push(battery({\r\n            batteryID: msg.sender,\r\n            nameOfBatteryOwner: nameOfBatteryOwner,\r\n            date: date,\r\n            isExist: true\r\n            }));\r\n    }\r\n\r\n    //to view all batteries\r\n    function viewAllBatteries () public view returns (battery[] memory) {\r\n        return listOfBatteries;\r\n    }\r\n\r\n    //change details of a battery\r\n    function updateBattery(address batteryID, string memory nameOfBatteryOwner) public onlyRegisteredBattery {\r\n        for(uint i = 0; i<listOfBatteries.length; i++){\r\n            if(listOfBatteries[i].batteryID == batteryID){\r\n                listOfBatteries[i].nameOfBatteryOwner = nameOfBatteryOwner;\r\n                batteries[batteryID].nameOfBatteryOwner = nameOfBatteryOwner;\r\n            }\r\n        }\r\n    }\r\n\r\n    //view single battery by battery id\r\n    function getBatteryByID(address batteryID) public view returns (address, string memory, uint32){\r\n        return (batteries[batteryID].batteryID, batteries[batteryID].nameOfBatteryOwner, batteries[batteryID].date);\r\n    }\r\n}\r\n\r\n/********energyBid Contract********/\r\n//Contract for energy offers from current batteries\r\ncontract energyBid is owned, batteryRegistry {\r\n\r\n    //event offerEnergyMade(address indexed sellerBatteryID, uint32 indexed day, uint32 indexed price, uint64 energy);\r\n    //event askEnergyMade(address indexed sellerBatteryID, uint64 energy, uint32 day);\r\n    //event buyEnergyMade(address indexed sellerBatteryID, uint32 indexed day, uint32 price, uint64 energy, address indexed batteryID);\r\n\r\n    uint64 constant mWh = 1;\r\n    uint64 constant Wh = 1000 * mWh;\r\n    uint64 constant kWh = 1000 * Wh;\r\n    uint64 constant MWh = 1000 * kWh;\r\n    uint64 constant GWh = 1000 * MWh;\r\n    uint64 constant TWh = 1000 * GWh;\r\n\r\n    struct bid{\r\n        address sellerBatteryID;    //battery public key\r\n        uint numberOfBid;           //A battery can create more than one energy offer\r\n        uint32 day;                 //day for which the offer is valid\r\n        uint32 price;               //price vs market price\r\n        uint64 energy;              //energy to trade\r\n        uint64 timestamp;           //timestamp for when the bid was created\r\n        address askBatteryID;       //battery id from registered battery (consumer)\r\n        uint nextNumberOfAsk;\r\n        string status;\r\n    }\r\n    \r\n    struct ask {\r\n        address askBatteryID;    //battery id from prosumer \r\n        uint numberOfAsk;\r\n        uint32 day;\r\n        uint64 energy;\r\n        uint64 timestamp;\r\n    }\r\n    \r\n    mapping(address => mapping(uint32 => mapping(uint=> uint))) asks; \r\n    ask[] listOfAsks;\r\n    uint nextNumberOfAsk;\r\n\r\n    mapping(address => mapping(uint32 => mapping(uint=> uint))) bids;\r\n    bid[] listOfBids;\r\n    bid[] listOfBuyedBids;\r\n    uint nextNumberOfBid;             \r\n\r\n    function askEnergy(uint32 _day, uint64 _energy, uint64 _timestamp) public onlyRegisteredBattery{\r\n        require(batteries[msg.sender].isExist==true, \"Battery details are not exist\");\r\n        require(_energy >= kWh, \"Wrong energy input require a minimum offer of 1 kWh (1.000.000mWh)\");\r\n\r\n        uint indexA = asks[msg.sender][_day][nextNumberOfAsk];\r\n\r\n        indexA = listOfAsks.length;\r\n        asks[msg.sender][_day][nextNumberOfAsk] = indexA;\r\n        listOfAsks.push(ask({\r\n            askBatteryID: msg.sender,\r\n            numberOfAsk: nextNumberOfAsk,\r\n            day: _day,\r\n            energy: _energy,\r\n            timestamp: _timestamp\r\n        }));\r\n        nextNumberOfAsk++;\r\n    }                              \r\n\r\n    //create energy offer \r\n    //There is a minimum energy requirement \r\n    //Only registered batteries can use this function\r\n    function energyOffer(uint32 _day, uint32 _price, uint64 _energy, uint64 _timestamp, address _askBatteryID, string memory _status) public onlyRegisteredBattery{\r\n        require(batteries[msg.sender].isExist==true, \"Battery details are not exist\");\r\n        require(_energy >= kWh, \"Wrong energy input require a minimum offer of 1 kWh (1.000.000mWh)\");\r\n        uint index = bids[msg.sender][_day][nextNumberOfBid];\r\n\r\n        index = listOfBids.length;\r\n        bids[msg.sender][_day][nextNumberOfBid] = index;\r\n        listOfBids.push(bid({\r\n            sellerBatteryID: msg.sender,\r\n            numberOfBid: nextNumberOfBid,\r\n            day: _day,\r\n            price: _price,\r\n            energy: _energy,\r\n            timestamp: _timestamp,\r\n            askBatteryID: _askBatteryID,\r\n            nextNumberOfAsk: nextNumberOfAsk,\r\n            status: _status\r\n        }));\r\n        nextNumberOfBid++;\r\n    }\r\n\r\n    //Ask and buy energy \r\n    //There is a minimum energy requirement \r\n    //Only registered batteries can use this function\r\n    function dealEnergy(address _sellerBatteryID, uint32 _day, uint32 _price, uint64 _energy, uint64 _timestamp, uint _numberOfAsk, string memory _status) public onlyRegisteredBattery returns(uint){\r\n        require(batteries[msg.sender].isExist==true, \"Battery details are not exist\");\r\n        require(_energy >= kWh, \"Require a minimum ask energy of 1 kWh (1.000.000mWh)\");\r\n        uint index = bids[_sellerBatteryID][_day][nextNumberOfBid];\r\n        uint indexA = asks[msg.sender][_day][_numberOfAsk];\r\n\r\n        for(uint i = index; i<listOfBids.length-1; i++){\r\n            if((listOfBids[i].price == _price) && (listOfBids[i].day == _day) && (listOfBids[i].sellerBatteryID == _sellerBatteryID)){\r\n\r\n                bids[_sellerBatteryID][_day][nextNumberOfBid] = listOfBuyedBids.length;\r\n                listOfBuyedBids.push(bid({\r\n                    sellerBatteryID: _sellerBatteryID,\r\n                    numberOfBid: nextNumberOfBid,\r\n                    day: _day,\r\n                    price: _price,\r\n                    energy: _energy,\r\n                    timestamp: _timestamp,\r\n                    askBatteryID: msg.sender,\r\n                    nextNumberOfAsk: nextNumberOfAsk,\r\n                    status: _status\r\n                }));\r\n            }else{\r\n                revert();\r\n            }\r\n        }\r\n    }\r\n\r\n    //list of all ask energy requests\r\n    function viewAllAsks () public view returns (ask[] memory){\r\n        return listOfAsks;\r\n    }\r\n\r\n    //view single ask energy request by batteryID\r\n    function getAskByIdAndDay (address askBatteryID, uint32 day, uint numberOfAsk) public view returns (uint, uint32, uint64){\r\n        uint indexA = asks[askBatteryID][day][numberOfAsk];\r\n        require(listOfAsks.length > indexA, \"Wrong index\");\r\n        require(listOfAsks[indexA].day == day, \"There is no offer on this day\");\r\n        require(listOfAsks[indexA].askBatteryID == askBatteryID, \"Wrong Battery Id\");\r\n        return (listOfAsks[indexA].numberOfAsk, listOfAsks[indexA].day, listOfAsks[indexA].energy);\r\n    }\r\n\r\n    //view all bids \r\n    function viewAllBids () public view returns (bid[] memory){\r\n        return listOfBids;\r\n    }\r\n\r\n    function viewAllBuyedBids () public view returns (bid[] memory){\r\n        return listOfBuyedBids;\r\n    }\r\n\r\n    //view single bid by batteryID\r\n    function getBidByIdAndDay (address batteryID, uint32 day, uint numberOfBid) public view returns (uint, uint32, uint32, uint64){\r\n        uint index = bids[batteryID][day][numberOfBid];\r\n        require(listOfBids.length > index, \"Wrong index\");\r\n        require(listOfBids[index].day == day, \"There is no offer on this day\");\r\n        require(listOfBids[index].sellerBatteryID == batteryID, \"Wrong ID\");\r\n        return (listOfBids[index].numberOfBid, listOfBids[index].day, listOfBids[index].price, listOfBids[index].energy);\r\n    }\r\n}",
  "sourcePath": "C:/Users/Lenovo/projects/ethereum/protergia/blockchain-energy-trading-and-green-energy-certification-thesis-w-protergia/src/contracts/Battery.sol",
  "compiler": {
    "name": "solc",
    "version": "0.5.16+commit.9c3226ce.Emscripten.clang"
  },
  "schemaVersion": "3.3.4",
  "updatedAt": "2021-05-24T13:34:05.668Z",
  "devdoc": {
    "methods": {}
  },
  "userdoc": {
    "methods": {},
    "notice": "******energyBid Contract*******"
  }
}