{
  "contractName": "energyBid",
  "abi": [
    {
      "constant": false,
      "inputs": [
        {
          "internalType": "string",
          "name": "uuID",
          "type": "string"
        },
        {
          "internalType": "uint32",
          "name": "date",
          "type": "uint32"
        }
      ],
      "name": "addNewBattery",
      "outputs": [],
      "payable": false,
      "stateMutability": "nonpayable",
      "type": "function"
    },
    {
      "constant": true,
      "inputs": [
        {
          "internalType": "address",
          "name": "batteryID",
          "type": "address"
        }
      ],
      "name": "getBatteryByID",
      "outputs": [
        {
          "internalType": "address",
          "name": "",
          "type": "address"
        },
        {
          "internalType": "string",
          "name": "",
          "type": "string"
        },
        {
          "internalType": "uint256",
          "name": "",
          "type": "uint256"
        },
        {
          "internalType": "uint32",
          "name": "",
          "type": "uint32"
        }
      ],
      "payable": false,
      "stateMutability": "view",
      "type": "function"
    },
    {
      "constant": true,
      "inputs": [],
      "name": "getCountOfBatteries",
      "outputs": [
        {
          "internalType": "uint256",
          "name": "count",
          "type": "uint256"
        }
      ],
      "payable": false,
      "stateMutability": "view",
      "type": "function"
    },
    {
      "constant": false,
      "inputs": [
        {
          "internalType": "address",
          "name": "batteryID",
          "type": "address"
        },
        {
          "internalType": "string",
          "name": "uuID",
          "type": "string"
        }
      ],
      "name": "updateBattery",
      "outputs": [],
      "payable": false,
      "stateMutability": "nonpayable",
      "type": "function"
    },
    {
      "constant": true,
      "inputs": [],
      "name": "viewAllBatteries",
      "outputs": [
        {
          "components": [
            {
              "internalType": "address",
              "name": "batteryID",
              "type": "address"
            },
            {
              "internalType": "string",
              "name": "uuID",
              "type": "string"
            },
            {
              "internalType": "uint32",
              "name": "date",
              "type": "uint32"
            },
            {
              "internalType": "uint256",
              "name": "timestamp",
              "type": "uint256"
            },
            {
              "internalType": "bool",
              "name": "isExist",
              "type": "bool"
            }
          ],
          "internalType": "struct batteryRegistry.battery[]",
          "name": "",
          "type": "tuple[]"
        }
      ],
      "payable": false,
      "stateMutability": "view",
      "type": "function"
    },
    {
      "constant": false,
      "inputs": [
        {
          "internalType": "uint32",
          "name": "_day",
          "type": "uint32"
        },
        {
          "internalType": "uint64",
          "name": "_energy",
          "type": "uint64"
        },
        {
          "internalType": "uint32",
          "name": "_eprice",
          "type": "uint32"
        }
      ],
      "name": "energyOffer",
      "outputs": [],
      "payable": false,
      "stateMutability": "nonpayable",
      "type": "function"
    },
    {
      "constant": false,
      "inputs": [
        {
          "internalType": "uint32",
          "name": "_day",
          "type": "uint32"
        },
        {
          "internalType": "uint64",
          "name": "_energy",
          "type": "uint64"
        }
      ],
      "name": "askEnergy",
      "outputs": [],
      "payable": false,
      "stateMutability": "nonpayable",
      "type": "function"
    },
    {
      "constant": true,
      "inputs": [],
      "name": "viewAllAsks",
      "outputs": [
        {
          "components": [
            {
              "internalType": "address",
              "name": "consumerID",
              "type": "address"
            },
            {
              "internalType": "uint64",
              "name": "energy",
              "type": "uint64"
            },
            {
              "internalType": "uint256",
              "name": "timestamp",
              "type": "uint256"
            },
            {
              "internalType": "uint32",
              "name": "day",
              "type": "uint32"
            },
            {
              "internalType": "uint64",
              "name": "remainingEnergy",
              "type": "uint64"
            }
          ],
          "internalType": "struct energyBid.ask[]",
          "name": "",
          "type": "tuple[]"
        }
      ],
      "payable": false,
      "stateMutability": "view",
      "type": "function"
    },
    {
      "constant": true,
      "inputs": [],
      "name": "getCountOfAsks",
      "outputs": [
        {
          "internalType": "uint256",
          "name": "count",
          "type": "uint256"
        }
      ],
      "payable": false,
      "stateMutability": "view",
      "type": "function"
    },
    {
      "constant": true,
      "inputs": [
        {
          "internalType": "address",
          "name": "_consumerID",
          "type": "address"
        }
      ],
      "name": "getAskByBatteryId",
      "outputs": [
        {
          "internalType": "address",
          "name": "",
          "type": "address"
        },
        {
          "internalType": "uint32",
          "name": "",
          "type": "uint32"
        },
        {
          "internalType": "uint64",
          "name": "",
          "type": "uint64"
        }
      ],
      "payable": false,
      "stateMutability": "view",
      "type": "function"
    },
    {
      "constant": true,
      "inputs": [],
      "name": "viewAllEnergyPurchases",
      "outputs": [
        {
          "components": [
            {
              "internalType": "address",
              "name": "consumerID",
              "type": "address"
            },
            {
              "internalType": "address",
              "name": "prosumerID",
              "type": "address"
            },
            {
              "internalType": "uint64",
              "name": "energy",
              "type": "uint64"
            },
            {
              "internalType": "uint256",
              "name": "price",
              "type": "uint256"
            },
            {
              "internalType": "uint32",
              "name": "day",
              "type": "uint32"
            },
            {
              "internalType": "uint256",
              "name": "timestamp",
              "type": "uint256"
            }
          ],
          "internalType": "struct energyBid.buyedEnergy[]",
          "name": "",
          "type": "tuple[]"
        }
      ],
      "payable": false,
      "stateMutability": "view",
      "type": "function"
    },
    {
      "constant": true,
      "inputs": [],
      "name": "viewAllBids",
      "outputs": [
        {
          "components": [
            {
              "internalType": "address",
              "name": "prosumerID",
              "type": "address"
            },
            {
              "internalType": "uint256",
              "name": "numberOfBid",
              "type": "uint256"
            },
            {
              "internalType": "uint32",
              "name": "day",
              "type": "uint32"
            },
            {
              "internalType": "uint64",
              "name": "energy",
              "type": "uint64"
            },
            {
              "internalType": "uint32",
              "name": "eprice",
              "type": "uint32"
            },
            {
              "internalType": "uint256",
              "name": "timestamp",
              "type": "uint256"
            }
          ],
          "internalType": "struct energyBid.bid[]",
          "name": "",
          "type": "tuple[]"
        }
      ],
      "payable": false,
      "stateMutability": "view",
      "type": "function"
    },
    {
      "constant": true,
      "inputs": [],
      "name": "getCountOfBids",
      "outputs": [
        {
          "internalType": "uint256",
          "name": "count",
          "type": "uint256"
        }
      ],
      "payable": false,
      "stateMutability": "view",
      "type": "function"
    },
    {
      "constant": true,
      "inputs": [
        {
          "internalType": "address",
          "name": "prosumerID",
          "type": "address"
        },
        {
          "internalType": "uint32",
          "name": "day",
          "type": "uint32"
        },
        {
          "internalType": "uint256",
          "name": "numberOfBid",
          "type": "uint256"
        }
      ],
      "name": "getBidByBatteryID",
      "outputs": [
        {
          "internalType": "uint256",
          "name": "",
          "type": "uint256"
        },
        {
          "internalType": "uint32",
          "name": "",
          "type": "uint32"
        },
        {
          "internalType": "uint64",
          "name": "",
          "type": "uint64"
        }
      ],
      "payable": false,
      "stateMutability": "view",
      "type": "function"
    }
  ],
  "bytecode": "0x6080604052336000806101000a81548173ffffffffffffffffffffffffffffffffffffffff021916908373ffffffffffffffffffffffffffffffffffffffff160217905550614184806100536000396000f3fe608060405234801561001057600080fd5b50600436106100ea5760003560e01c80639521db241161008c578063c13c7cff11610066578063c13c7cff14610229578063c26d4ce61461025b578063c9fb857814610279578063eefa716b146102ac576100ea565b80639521db24146101cf578063a426c768146101ed578063b47c77411461020b576100ea565b806362e9a430116100c857806362e9a4301461014757806366013e271461017957806386b6c85a1461019557806387bdb206146101b1576100ea565b806315eb2bd2146100ef57806344da1a941461010b5780635b4cf93c14610129575b600080fd5b61010960048036036101049190810190613561565b6102c8565b005b61011361064e565b6040516101209190613e5f565b60405180910390f35b61013161065b565b60405161013e9190613d3b565b60405180910390f35b610161600480360361015c9190810190613405565b6107a2565b60405161017093929190613cc0565b60405180910390f35b610193600480360361018e9190810190613525565b61098c565b005b6101af60048036036101aa91908101906134d1565b610cfb565b005b6101b9610ffd565b6040516101c69190613cf7565b60405180910390f35b6101d7611146565b6040516101e49190613e5f565b60405180910390f35b6101f5611153565b6040516102029190613e5f565b60405180910390f35b610213611160565b6040516102209190613d19565b60405180910390f35b610243600480360361023e9190810190613482565b611302565b60405161025293929190613e7a565b60405180910390f35b610263611578565b6040516102709190613d5d565b60405180910390f35b610293600480360361028e9190810190613405565b6116ef565b6040516102a39493929190613c74565b60405180910390f35b6102c660048036036102c1919081019061342e565b6118dc565b005b60011515600160003373ffffffffffffffffffffffffffffffffffffffff1673ffffffffffffffffffffffffffffffffffffffff16815260200190815260200160002060040160009054906101000a900460ff1615151461035e576040517f08c379a000000000000000000000000000000000000000000000000000000000815260040161035590613dff565b60405180910390fd5b600167ffffffffffffffff168267ffffffffffffffff1610156103b6576040517f08c379a00000000000000000000000000000000000000000000000000000000081526004016103ad90613d9f565b60405180910390fd5b60076040518060c001604052803373ffffffffffffffffffffffffffffffffffffffff16815260200160085481526020018563ffffffff1681526020018467ffffffffffffffff1681526020018363ffffffff168152602001428152509080600181540180825580915050906001820390600052602060002090600402016000909192909190915060008201518160000160006101000a81548173ffffffffffffffffffffffffffffffffffffffff021916908373ffffffffffffffffffffffffffffffffffffffff1602179055506020820151816001015560408201518160020160006101000a81548163ffffffff021916908363ffffffff16021790555060608201518160020160046101000a81548167ffffffffffffffff021916908367ffffffffffffffff160217905550608082015181600201600c6101000a81548163ffffffff021916908363ffffffff16021790555060a0820151816003015550505060086000815480929190600101919050555061064960076001600780549050038154811061054357fe5b90600052602060002090600402016040518060c00160405290816000820160009054906101000a900473ffffffffffffffffffffffffffffffffffffffff1673ffffffffffffffffffffffffffffffffffffffff1673ffffffffffffffffffffffffffffffffffffffff168152602001600182015481526020016002820160009054906101000a900463ffffffff1663ffffffff1663ffffffff1681526020016002820160049054906101000a900467ffffffffffffffff1667ffffffffffffffff1667ffffffffffffffff16815260200160028201600c9054906101000a900463ffffffff1663ffffffff1663ffffffff168152602001600382015481525050611a94565b505050565b6000600280549050905090565b60606007805480602002602001604051908101604052809291908181526020016000905b8282101561079957838290600052602060002090600402016040518060c00160405290816000820160009054906101000a900473ffffffffffffffffffffffffffffffffffffffff1673ffffffffffffffffffffffffffffffffffffffff1673ffffffffffffffffffffffffffffffffffffffff168152602001600182015481526020016002820160009054906101000a900463ffffffff1663ffffffff1663ffffffff1681526020016002820160049054906101000a900467ffffffffffffffff1667ffffffffffffffff1667ffffffffffffffff16815260200160028201600c9054906101000a900463ffffffff1663ffffffff1663ffffffff1681526020016003820154815250508152602001906001019061067f565b50505050905090565b600080600080600360008673ffffffffffffffffffffffffffffffffffffffff1673ffffffffffffffffffffffffffffffffffffffff1681526020019081526020016000205490508060048054905011610831576040517f08c379a000000000000000000000000000000000000000000000000000000000815260040161082890613ddf565b60405180910390fd5b8473ffffffffffffffffffffffffffffffffffffffff166004828154811061085557fe5b906000526020600020906003020160000160009054906101000a900473ffffffffffffffffffffffffffffffffffffffff1673ffffffffffffffffffffffffffffffffffffffff16146108dd576040517f08c379a00000000000000000000000000000000000000000000000000000000081526004016108d490613dbf565b60405180910390fd5b600481815481106108ea57fe5b906000526020600020906003020160000160009054906101000a900473ffffffffffffffffffffffffffffffffffffffff166004828154811061092957fe5b906000526020600020906003020160020160009054906101000a900463ffffffff166004838154811061095857fe5b906000526020600020906003020160000160149054906101000a900467ffffffffffffffff16935093509350509193909250565b60011515600160003373ffffffffffffffffffffffffffffffffffffffff1673ffffffffffffffffffffffffffffffffffffffff16815260200190815260200160002060040160009054906101000a900460ff16151514610a22576040517f08c379a0000000000000000000000000000000000000000000000000000000008152600401610a1990613dff565b60405180910390fd5b600167ffffffffffffffff168167ffffffffffffffff161015610a7a576040517f08c379a0000000000000000000000000000000000000000000000000000000008152600401610a7190613d9f565b60405180910390fd5b60046040518060a001604052803373ffffffffffffffffffffffffffffffffffffffff1681526020018367ffffffffffffffff1681526020014281526020018463ffffffff1681526020018367ffffffffffffffff168152509080600181540180825580915050906001820390600052602060002090600302016000909192909190915060008201518160000160006101000a81548173ffffffffffffffffffffffffffffffffffffffff021916908373ffffffffffffffffffffffffffffffffffffffff16021790555060208201518160000160146101000a81548167ffffffffffffffff021916908367ffffffffffffffff1602179055506040820151816001015560608201518160020160006101000a81548163ffffffff021916908363ffffffff16021790555060808201518160020160046101000a81548167ffffffffffffffff021916908367ffffffffffffffff160217905550505050610cf7600460016004805490500381548110610bef57fe5b90600052602060002090600302016040518060a00160405290816000820160009054906101000a900473ffffffffffffffffffffffffffffffffffffffff1673ffffffffffffffffffffffffffffffffffffffff1673ffffffffffffffffffffffffffffffffffffffff1681526020016000820160149054906101000a900467ffffffffffffffff1667ffffffffffffffff1667ffffffffffffffff168152602001600182015481526020016002820160009054906101000a900463ffffffff1663ffffffff1663ffffffff1681526020016002820160049054906101000a900467ffffffffffffffff1667ffffffffffffffff1667ffffffffffffffff1681525050612540565b5050565b60001515600160003373ffffffffffffffffffffffffffffffffffffffff1673ffffffffffffffffffffffffffffffffffffffff16815260200190815260200160002060040160009054906101000a900460ff16151514610d91576040517f08c379a0000000000000000000000000000000000000000000000000000000008152600401610d8890613e3f565b60405180910390fd5b6040518060a001604052803373ffffffffffffffffffffffffffffffffffffffff1681526020018381526020018263ffffffff16815260200142815260200160011515815250600160003373ffffffffffffffffffffffffffffffffffffffff1673ffffffffffffffffffffffffffffffffffffffff16815260200190815260200160002060008201518160000160006101000a81548173ffffffffffffffffffffffffffffffffffffffff021916908373ffffffffffffffffffffffffffffffffffffffff1602179055506020820151816001019080519060200190610e7992919061309a565b5060408201518160020160006101000a81548163ffffffff021916908363ffffffff1602179055506060820151816003015560808201518160040160006101000a81548160ff02191690831515021790555090505060026040518060a001604052803373ffffffffffffffffffffffffffffffffffffffff1681526020018481526020018363ffffffff168152602001428152602001600115158152509080600181540180825580915050906001820390600052602060002090600502016000909192909190915060008201518160000160006101000a81548173ffffffffffffffffffffffffffffffffffffffff021916908373ffffffffffffffffffffffffffffffffffffffff1602179055506020820151816001019080519060200190610fa492919061309a565b5060408201518160020160006101000a81548163ffffffff021916908363ffffffff1602179055506060820151816003015560808201518160040160006101000a81548160ff0219169083151502179055505050505050565b60606004805480602002602001604051908101604052809291908181526020016000905b8282101561113d57838290600052602060002090600302016040518060a00160405290816000820160009054906101000a900473ffffffffffffffffffffffffffffffffffffffff1673ffffffffffffffffffffffffffffffffffffffff1673ffffffffffffffffffffffffffffffffffffffff1681526020016000820160149054906101000a900467ffffffffffffffff1667ffffffffffffffff1667ffffffffffffffff168152602001600182015481526020016002820160009054906101000a900463ffffffff1663ffffffff1663ffffffff1681526020016002820160049054906101000a900467ffffffffffffffff1667ffffffffffffffff1667ffffffffffffffff168152505081526020019060010190611021565b50505050905090565b6000600780549050905090565b6000600480549050905090565b60606002805480602002602001604051908101604052809291908181526020016000905b828210156112f957838290600052602060002090600502016040518060a00160405290816000820160009054906101000a900473ffffffffffffffffffffffffffffffffffffffff1673ffffffffffffffffffffffffffffffffffffffff1673ffffffffffffffffffffffffffffffffffffffff168152602001600182018054600181600116156101000203166002900480601f0160208091040260200160405190810160405280929190818152602001828054600181600116156101000203166002900480156112965780601f1061126b57610100808354040283529160200191611296565b820191906000526020600020905b81548152906001019060200180831161127957829003601f168201915b505050505081526020016002820160009054906101000a900463ffffffff1663ffffffff1663ffffffff168152602001600382015481526020016004820160009054906101000a900460ff16151515158152505081526020019060010190611184565b50505050905090565b600080600080600660008873ffffffffffffffffffffffffffffffffffffffff1673ffffffffffffffffffffffffffffffffffffffff16815260200190815260200160002060008763ffffffff1663ffffffff168152602001908152602001600020600086815260200190815260200160002054905080600780549050116113bf576040517f08c379a00000000000000000000000000000000000000000000000000000000081526004016113b690613ddf565b60405180910390fd5b8563ffffffff16600782815481106113d357fe5b906000526020600020906004020160020160009054906101000a900463ffffffff1663ffffffff161461143b576040517f08c379a000000000000000000000000000000000000000000000000000000000815260040161143290613d7f565b60405180910390fd5b8673ffffffffffffffffffffffffffffffffffffffff166007828154811061145f57fe5b906000526020600020906004020160000160009054906101000a900473ffffffffffffffffffffffffffffffffffffffff1673ffffffffffffffffffffffffffffffffffffffff16146114e7576040517f08c379a00000000000000000000000000000000000000000000000000000000081526004016114de90613e1f565b60405180910390fd5b600781815481106114f457fe5b9060005260206000209060040201600101546007828154811061151357fe5b906000526020600020906004020160020160009054906101000a900463ffffffff166007838154811061154257fe5b906000526020600020906004020160020160049054906101000a900467ffffffffffffffff169350935093505093509350939050565b60606005805480602002602001604051908101604052809291908181526020016000905b828210156116e657838290600052602060002090600502016040518060c00160405290816000820160009054906101000a900473ffffffffffffffffffffffffffffffffffffffff1673ffffffffffffffffffffffffffffffffffffffff1673ffffffffffffffffffffffffffffffffffffffff1681526020016001820160009054906101000a900473ffffffffffffffffffffffffffffffffffffffff1673ffffffffffffffffffffffffffffffffffffffff1673ffffffffffffffffffffffffffffffffffffffff1681526020016001820160149054906101000a900467ffffffffffffffff1667ffffffffffffffff1667ffffffffffffffff168152602001600282015481526020016003820160009054906101000a900463ffffffff1663ffffffff1663ffffffff1681526020016004820154815250508152602001906001019061159c565b50505050905090565b60006060600080600160008673ffffffffffffffffffffffffffffffffffffffff1673ffffffffffffffffffffffffffffffffffffffff16815260200190815260200160002060000160009054906101000a900473ffffffffffffffffffffffffffffffffffffffff16600160008773ffffffffffffffffffffffffffffffffffffffff1673ffffffffffffffffffffffffffffffffffffffff168152602001908152602001600020600101600160008873ffffffffffffffffffffffffffffffffffffffff1673ffffffffffffffffffffffffffffffffffffffff16815260200190815260200160002060030154600160008973ffffffffffffffffffffffffffffffffffffffff1673ffffffffffffffffffffffffffffffffffffffff16815260200190815260200160002060020160009054906101000a900463ffffffff16828054600181600116156101000203166002900480601f0160208091040260200160405190810160405280929190818152602001828054600181600116156101000203166002900480156118c65780601f1061189b576101008083540402835291602001916118c6565b820191906000526020600020905b8154815290600101906020018083116118a957829003601f168201915b5050505050925093509350935093509193509193565b60011515600160003373ffffffffffffffffffffffffffffffffffffffff1673ffffffffffffffffffffffffffffffffffffffff16815260200190815260200160002060040160009054906101000a900460ff16151514611972576040517f08c379a000000000000000000000000000000000000000000000000000000000815260040161196990613dff565b60405180910390fd5b60008090505b600280549050811015611a8f578273ffffffffffffffffffffffffffffffffffffffff16600282815481106119a957fe5b906000526020600020906005020160000160009054906101000a900473ffffffffffffffffffffffffffffffffffffffff1673ffffffffffffffffffffffffffffffffffffffff161415611a82578160028281548110611a0557fe5b90600052602060002090600502016001019080519060200190611a2992919061311a565b5081600160008573ffffffffffffffffffffffffffffffffffffffff1673ffffffffffffffffffffffffffffffffffffffff1681526020019081526020016000206001019080519060200190611a8092919061311a565b505b8080600101915050611978565b505050565b60011515600160003373ffffffffffffffffffffffffffffffffffffffff1673ffffffffffffffffffffffffffffffffffffffff16815260200190815260200160002060040160009054906101000a900460ff16151514611b2a576040517f08c379a0000000000000000000000000000000000000000000000000000000008152600401611b2190613dff565b60405180910390fd5b60008160600151905060008090505b60048054905081101561253b5760008060009050600080905060008090508567ffffffffffffffff1660048681548110611b6f57fe5b906000526020600020906003020160020160049054906101000a900467ffffffffffffffff1667ffffffffffffffff161015611e6a5760048581548110611bb257fe5b906000526020600020906003020160000160009054906101000a900473ffffffffffffffffffffffffffffffffffffffff16935060048581548110611bf357fe5b906000526020600020906003020160020160049054906101000a900467ffffffffffffffff16915081860395508560078681548110611c2e57fe5b906000526020600020906004020160020160046101000a81548167ffffffffffffffff021916908367ffffffffffffffff16021790555081876080015163ffffffff160267ffffffffffffffff169050600060048681548110611c8d57fe5b906000526020600020906003020160020160046101000a81548167ffffffffffffffff021916908367ffffffffffffffff1602179055506001925060016004805490501115611e4657600460016004805490500381548110611ceb57fe5b906000526020600020906003020160048681548110611d0657fe5b90600052602060002090600302016000820160009054906101000a900473ffffffffffffffffffffffffffffffffffffffff168160000160006101000a81548173ffffffffffffffffffffffffffffffffffffffff021916908373ffffffffffffffffffffffffffffffffffffffff1602179055506000820160149054906101000a900467ffffffffffffffff168160000160146101000a81548167ffffffffffffffff021916908367ffffffffffffffff160217905550600182015481600101556002820160009054906101000a900463ffffffff168160020160006101000a81548163ffffffff021916908363ffffffff1602179055506002820160049054906101000a900467ffffffffffffffff168160020160046101000a81548167ffffffffffffffff021916908367ffffffffffffffff1602179055509050505b6004805480919060019003611e5b919061319a565b508480600190039550506121dc565b8567ffffffffffffffff1660048681548110611e8257fe5b906000526020600020906003020160020160049054906101000a900467ffffffffffffffff1667ffffffffffffffff1614156120fc5760048581548110611ec557fe5b906000526020600020906003020160000160009054906101000a900473ffffffffffffffffffffffffffffffffffffffff16935085915081876080015163ffffffff160267ffffffffffffffff16905060009550600060048681548110611f2857fe5b906000526020600020906003020160020160046101000a81548167ffffffffffffffff021916908367ffffffffffffffff16021790555060019250600160048054905011156120e157600460016004805490500381548110611f8657fe5b906000526020600020906003020160048681548110611fa157fe5b90600052602060002090600302016000820160009054906101000a900473ffffffffffffffffffffffffffffffffffffffff168160000160006101000a81548173ffffffffffffffffffffffffffffffffffffffff021916908373ffffffffffffffffffffffffffffffffffffffff1602179055506000820160149054906101000a900467ffffffffffffffff168160000160146101000a81548167ffffffffffffffff021916908367ffffffffffffffff160217905550600182015481600101556002820160009054906101000a900463ffffffff168160020160006101000a81548163ffffffff021916908363ffffffff1602179055506002820160049054906101000a900467ffffffffffffffff168160020160046101000a81548167ffffffffffffffff021916908367ffffffffffffffff1602179055509050505b60048054809190600190036120f6919061319a565b506121db565b6004858154811061210957fe5b906000526020600020906003020160000160009054906101000a900473ffffffffffffffffffffffffffffffffffffffff169350859150816004868154811061214e57fe5b906000526020600020906003020160020160049054906101000a900467ffffffffffffffff16036004868154811061218257fe5b906000526020600020906003020160020160046101000a81548167ffffffffffffffff021916908367ffffffffffffffff16021790555081876080015163ffffffff160267ffffffffffffffff16905060009550600192505b5b821561237c5760056040518060c001604052808673ffffffffffffffffffffffffffffffffffffffff1681526020013373ffffffffffffffffffffffffffffffffffffffff1681526020018467ffffffffffffffff168152602001838152602001896040015163ffffffff1681526020018960a001518152509080600181540180825580915050906001820390600052602060002090600502016000909192909190915060008201518160000160006101000a81548173ffffffffffffffffffffffffffffffffffffffff021916908373ffffffffffffffffffffffffffffffffffffffff16021790555060208201518160010160006101000a81548173ffffffffffffffffffffffffffffffffffffffff021916908373ffffffffffffffffffffffffffffffffffffffff16021790555060408201518160010160146101000a81548167ffffffffffffffff021916908367ffffffffffffffff1602179055506060820151816002015560808201518160030160006101000a81548163ffffffff021916908363ffffffff16021790555060a082015181600401555050505b60008667ffffffffffffffff16141561252a576001600780549050111561250b576007600160078054905003815481106123b257fe5b9060005260206000209060040201600786815481106123cd57fe5b90600052602060002090600402016000820160009054906101000a900473ffffffffffffffffffffffffffffffffffffffff168160000160006101000a81548173ffffffffffffffffffffffffffffffffffffffff021916908373ffffffffffffffffffffffffffffffffffffffff160217905550600182015481600101556002820160009054906101000a900463ffffffff168160020160006101000a81548163ffffffff021916908363ffffffff1602179055506002820160049054906101000a900467ffffffffffffffff168160020160046101000a81548167ffffffffffffffff021916908367ffffffffffffffff16021790555060028201600c9054906101000a900463ffffffff1681600201600c6101000a81548163ffffffff021916908363ffffffff160217905550600382015481600301559050505b600780548091906001900361252091906131cc565b505050505061253b565b505050508080600101915050611b39565b505050565b60011515600160003373ffffffffffffffffffffffffffffffffffffffff1673ffffffffffffffffffffffffffffffffffffffff16815260200190815260200160002060040160009054906101000a900460ff161515146125d6576040517f08c379a00000000000000000000000000000000000000000000000000000000081526004016125cd90613dff565b60405180910390fd5b60008160800151905060008090505b6007805490508110156130955760008060009050600080905060008090508567ffffffffffffffff166007868154811061261b57fe5b906000526020600020906004020160020160049054906101000a900467ffffffffffffffff1667ffffffffffffffff161015612970576007858154811061265e57fe5b906000526020600020906004020160000160009054906101000a900473ffffffffffffffffffffffffffffffffffffffff1693506007858154811061269f57fe5b906000526020600020906004020160020160049054906101000a900467ffffffffffffffff169150600785815481106126d457fe5b906000526020600020906004020160020160049054906101000a900467ffffffffffffffff1686039550856004868154811061270c57fe5b906000526020600020906003020160020160046101000a81548167ffffffffffffffff021916908367ffffffffffffffff160217905550816007868154811061275157fe5b9060005260206000209060040201600201600c9054906101000a900463ffffffff1663ffffffff160267ffffffffffffffff16905060006007868154811061279557fe5b906000526020600020906004020160020160046101000a81548167ffffffffffffffff021916908367ffffffffffffffff160217905550600192506001600780549050111561294c576007600160078054905003815481106127f357fe5b90600052602060002090600402016007868154811061280e57fe5b90600052602060002090600402016000820160009054906101000a900473ffffffffffffffffffffffffffffffffffffffff168160000160006101000a81548173ffffffffffffffffffffffffffffffffffffffff021916908373ffffffffffffffffffffffffffffffffffffffff160217905550600182015481600101556002820160009054906101000a900463ffffffff168160020160006101000a81548163ffffffff021916908363ffffffff1602179055506002820160049054906101000a900467ffffffffffffffff168160020160046101000a81548167ffffffffffffffff021916908367ffffffffffffffff16021790555060028201600c9054906101000a900463ffffffff1681600201600c6101000a81548163ffffffff021916908363ffffffff160217905550600382015481600301559050505b600780548091906001900361296191906131cc565b50848060019003955050612d34565b8567ffffffffffffffff166007868154811061298857fe5b906000526020600020906004020160020160049054906101000a900467ffffffffffffffff1667ffffffffffffffff161415612c2a57600785815481106129cb57fe5b906000526020600020906004020160000160009054906101000a900473ffffffffffffffffffffffffffffffffffffffff1693508591508160078681548110612a1057fe5b9060005260206000209060040201600201600c9054906101000a900463ffffffff1663ffffffff160267ffffffffffffffff169050600060078681548110612a5457fe5b906000526020600020906004020160020160046101000a81548167ffffffffffffffff021916908367ffffffffffffffff160217905550600095506001925060016007805490501115612c0f57600760016007805490500381548110612ab657fe5b906000526020600020906004020160078681548110612ad157fe5b90600052602060002090600402016000820160009054906101000a900473ffffffffffffffffffffffffffffffffffffffff168160000160006101000a81548173ffffffffffffffffffffffffffffffffffffffff021916908373ffffffffffffffffffffffffffffffffffffffff160217905550600182015481600101556002820160009054906101000a900463ffffffff168160020160006101000a81548163ffffffff021916908363ffffffff1602179055506002820160049054906101000a900467ffffffffffffffff168160020160046101000a81548167ffffffffffffffff021916908367ffffffffffffffff16021790555060028201600c9054906101000a900463ffffffff1681600201600c6101000a81548163ffffffff021916908363ffffffff160217905550600382015481600301559050505b6007805480919060019003612c2491906131cc565b50612d33565b60078581548110612c3757fe5b906000526020600020906004020160000160009054906101000a900473ffffffffffffffffffffffffffffffffffffffff1693508591508560078681548110612c7c57fe5b906000526020600020906004020160020160049054906101000a900467ffffffffffffffff160360078681548110612cb057fe5b906000526020600020906004020160020160046101000a81548167ffffffffffffffff021916908367ffffffffffffffff1602179055508160078681548110612cf557fe5b9060005260206000209060040201600201600c9054906101000a900463ffffffff1663ffffffff160267ffffffffffffffff16905060009550600192505b5b8215612ed45760056040518060c001604052803373ffffffffffffffffffffffffffffffffffffffff1681526020018673ffffffffffffffffffffffffffffffffffffffff1681526020018467ffffffffffffffff168152602001838152602001896060015163ffffffff16815260200189604001518152509080600181540180825580915050906001820390600052602060002090600502016000909192909190915060008201518160000160006101000a81548173ffffffffffffffffffffffffffffffffffffffff021916908373ffffffffffffffffffffffffffffffffffffffff16021790555060208201518160010160006101000a81548173ffffffffffffffffffffffffffffffffffffffff021916908373ffffffffffffffffffffffffffffffffffffffff16021790555060408201518160010160146101000a81548167ffffffffffffffff021916908367ffffffffffffffff1602179055506060820151816002015560808201518160030160006101000a81548163ffffffff021916908363ffffffff16021790555060a082015181600401555050505b60008667ffffffffffffffff161415613084576001600480549050111561306557600460016004805490500381548110612f0a57fe5b906000526020600020906003020160048681548110612f2557fe5b90600052602060002090600302016000820160009054906101000a900473ffffffffffffffffffffffffffffffffffffffff168160000160006101000a81548173ffffffffffffffffffffffffffffffffffffffff021916908373ffffffffffffffffffffffffffffffffffffffff1602179055506000820160149054906101000a900467ffffffffffffffff168160000160146101000a81548167ffffffffffffffff021916908367ffffffffffffffff160217905550600182015481600101556002820160009054906101000a900463ffffffff168160020160006101000a81548163ffffffff021916908363ffffffff1602179055506002820160049054906101000a900467ffffffffffffffff168160020160046101000a81548167ffffffffffffffff021916908367ffffffffffffffff1602179055509050505b600480548091906001900361307a919061319a565b5050505050613095565b5050505080806001019150506125e5565b505050565b828054600181600116156101000203166002900490600052602060002090601f016020900481019282601f106130db57805160ff1916838001178555613109565b82800160010185558215613109579182015b828111156131085782518255916020019190600101906130ed565b5b50905061311691906131fe565b5090565b828054600181600116156101000203166002900490600052602060002090601f016020900481019282601f1061315b57805160ff1916838001178555613189565b82800160010185558215613189579182015b8281111561318857825182559160200191906001019061316d565b5b50905061319691906131fe565b5090565b8154818355818111156131c7576003028160030283600052602060002091820191016131c69190613223565b5b505050565b8154818355818111156131f9576004028160040283600052602060002091820191016131f891906132be565b5b505050565b61322091905b8082111561321c576000816000905550600101613204565b5090565b90565b6132bb91905b808211156132b757600080820160006101000a81549073ffffffffffffffffffffffffffffffffffffffff02191690556000820160146101000a81549067ffffffffffffffff021916905560018201600090556002820160006101000a81549063ffffffff02191690556002820160046101000a81549067ffffffffffffffff021916905550600301613229565b5090565b90565b61335a91905b8082111561335657600080820160006101000a81549073ffffffffffffffffffffffffffffffffffffffff021916905560018201600090556002820160006101000a81549063ffffffff02191690556002820160046101000a81549067ffffffffffffffff021916905560028201600c6101000a81549063ffffffff02191690556003820160009055506004016132c4565b5090565b90565b60008135905061336c816140e5565b92915050565b600082601f83011261338357600080fd5b813561339661339182613ede565b613eb1565b915080825260208301602083018583830111156133b257600080fd5b6133bd838284614092565b50505092915050565b6000813590506133d5816140fc565b92915050565b6000813590506133ea81614113565b92915050565b6000813590506133ff8161412a565b92915050565b60006020828403121561341757600080fd5b60006134258482850161335d565b91505092915050565b6000806040838503121561344157600080fd5b600061344f8582860161335d565b925050602083013567ffffffffffffffff81111561346c57600080fd5b61347885828601613372565b9150509250929050565b60008060006060848603121561349757600080fd5b60006134a58682870161335d565b93505060206134b6868287016133db565b92505060406134c7868287016133c6565b9150509250925092565b600080604083850312156134e457600080fd5b600083013567ffffffffffffffff8111156134fe57600080fd5b61350a85828601613372565b925050602061351b858286016133db565b9150509250929050565b6000806040838503121561353857600080fd5b6000613546858286016133db565b9250506020613557858286016133f0565b9150509250929050565b60008060006060848603121561357657600080fd5b6000613584868287016133db565b9350506020613595868287016133f0565b92505060406135a6868287016133db565b9150509250925092565b60006135bc8383613a46565b60a08301905092915050565b60006135d48383613aae565b905092915050565b60006135e88383613b24565b60c08301905092915050565b60006136008383613b9f565b60c08301905092915050565b61361581614026565b82525050565b61362481614026565b82525050565b600061363582613f4a565b61363f8185613fc0565b935061364a83613f0a565b8060005b8381101561367b57815161366288826135b0565b975061366d83613f8c565b92505060018101905061364e565b5085935050505092915050565b600061369382613f55565b61369d8185613fd1565b9350836020820285016136af85613f1a565b8060005b858110156136eb57848403895281516136cc85826135c8565b94506136d783613f99565b925060208a019950506001810190506136b3565b50829750879550505050505092915050565b600061370882613f60565b6137128185613fe2565b935061371d83613f2a565b8060005b8381101561374e57815161373588826135dc565b975061374083613fa6565b925050600181019050613721565b5085935050505092915050565b600061376682613f6b565b6137708185613ff3565b935061377b83613f3a565b8060005b838110156137ac57815161379388826135f4565b975061379e83613fb3565b92505060018101905061377f565b5085935050505092915050565b6137c281614038565b82525050565b60006137d382613f81565b6137dd8185614015565b93506137ed8185602086016140a1565b6137f6816140d4565b840191505092915050565b600061380c82613f76565b6138168185614004565b93506138268185602086016140a1565b61382f816140d4565b840191505092915050565b6000613847601d83614015565b91507f5468657265206973206e6f206f66666572206f6e2074686973206461790000006000830152602082019050919050565b6000613887603383614015565b91507f57726f6e6720656e6572677920696e70757420726571756972652061206d696e60008301527f696d756d206f66666572206f662031206b5768000000000000000000000000006020830152604082019050919050565b60006138ed601083614015565b91507f57726f6e672042617474657279204964000000000000000000000000000000006000830152602082019050919050565b600061392d600b83614015565b91507f57726f6e6720696e6465780000000000000000000000000000000000000000006000830152602082019050919050565b600061396d602583614015565b91507f4f6e6c792072656769737465726564206261747465726965732068617665206160008301527f63636573730000000000000000000000000000000000000000000000000000006020830152604082019050919050565b60006139d3600883614015565b91507f57726f6e672049440000000000000000000000000000000000000000000000006000830152602082019050919050565b6000613a13601d83614015565b91507f426174746572792064657461696c7320616c72656164792061646465640000006000830152602082019050919050565b60a082016000820151613a5c600085018261360c565b506020820151613a6f6020850182613c56565b506040820151613a826040850182613c1a565b506060820151613a956060850182613c38565b506080820151613aa86080850182613c56565b50505050565b600060a083016000830151613ac6600086018261360c565b5060208301518482036020860152613ade8282613801565b9150506040830151613af36040860182613c38565b506060830151613b066060860182613c1a565b506080830151613b1960808601826137b9565b508091505092915050565b60c082016000820151613b3a600085018261360c565b506020820151613b4d6020850182613c1a565b506040820151613b606040850182613c38565b506060820151613b736060850182613c56565b506080820151613b866080850182613c38565b5060a0820151613b9960a0850182613c1a565b50505050565b60c082016000820151613bb5600085018261360c565b506020820151613bc8602085018261360c565b506040820151613bdb6040850182613c56565b506060820151613bee6060850182613c1a565b506080820151613c016080850182613c38565b5060a0820151613c1460a0850182613c1a565b50505050565b613c2381614064565b82525050565b613c3281614064565b82525050565b613c418161406e565b82525050565b613c508161406e565b82525050565b613c5f8161407e565b82525050565b613c6e8161407e565b82525050565b6000608082019050613c89600083018761361b565b8181036020830152613c9b81866137c8565b9050613caa6040830185613c29565b613cb76060830184613c47565b95945050505050565b6000606082019050613cd5600083018661361b565b613ce26020830185613c47565b613cef6040830184613c65565b949350505050565b60006020820190508181036000830152613d11818461362a565b905092915050565b60006020820190508181036000830152613d338184613688565b905092915050565b60006020820190508181036000830152613d5581846136fd565b905092915050565b60006020820190508181036000830152613d77818461375b565b905092915050565b60006020820190508181036000830152613d988161383a565b9050919050565b60006020820190508181036000830152613db88161387a565b9050919050565b60006020820190508181036000830152613dd8816138e0565b9050919050565b60006020820190508181036000830152613df881613920565b9050919050565b60006020820190508181036000830152613e1881613960565b9050919050565b60006020820190508181036000830152613e38816139c6565b9050919050565b60006020820190508181036000830152613e5881613a06565b9050919050565b6000602082019050613e746000830184613c29565b92915050565b6000606082019050613e8f6000830186613c29565b613e9c6020830185613c47565b613ea96040830184613c65565b949350505050565b6000604051905081810181811067ffffffffffffffff82111715613ed457600080fd5b8060405250919050565b600067ffffffffffffffff821115613ef557600080fd5b601f19601f8301169050602081019050919050565b6000819050602082019050919050565b6000819050602082019050919050565b6000819050602082019050919050565b6000819050602082019050919050565b600081519050919050565b600081519050919050565b600081519050919050565b600081519050919050565b600081519050919050565b600081519050919050565b6000602082019050919050565b6000602082019050919050565b6000602082019050919050565b6000602082019050919050565b600082825260208201905092915050565b600082825260208201905092915050565b600082825260208201905092915050565b600082825260208201905092915050565b600082825260208201905092915050565b600082825260208201905092915050565b600061403182614044565b9050919050565b60008115159050919050565b600073ffffffffffffffffffffffffffffffffffffffff82169050919050565b6000819050919050565b600063ffffffff82169050919050565b600067ffffffffffffffff82169050919050565b82818337600083830152505050565b60005b838110156140bf5780820151818401526020810190506140a4565b838111156140ce576000848401525b50505050565b6000601f19601f8301169050919050565b6140ee81614026565b81146140f957600080fd5b50565b61410581614064565b811461411057600080fd5b50565b61411c8161406e565b811461412757600080fd5b50565b6141338161407e565b811461413e57600080fd5b5056fea365627a7a72315820a86a3459f88638b1bc451b052f3c3aec032485d9d9fa3e908a689c68fd02617d6c6578706572696d656e74616cf564736f6c63430005100040",
  "source": "pragma solidity >=0.4.21 <0.7.0;\r\npragma experimental ABIEncoderV2;\r\n\r\ncontract owned {\r\n    \r\n    address owner;\r\n    \r\n    constructor() public {\r\n        owner = msg.sender;\r\n    }\r\n    \r\n    modifier onlyOwner {\r\n        require(msg.sender == owner, \"Only owner can call this function.\");\r\n         _;\r\n    }\r\n}\r\n\r\n//Contract that allows battery address to be registered\r\ncontract batteryRegistry is owned {\r\n\r\n    struct battery {\r\n        address batteryID;            //battery wallet address\r\n        string uuID;                  //id of battery  \r\n        uint32 date;                  //Creation date\r\n        uint timestamp;\r\n        bool isExist;                 //Check if battery exist into addNewBattery function\r\n    }\r\n\r\n    //mapping address as key to struct battery with mapping name batteries\r\n    mapping (address => battery) batteries;\r\n    battery[] listOfBatteries;\r\n\r\n    modifier onlyRegisteredBattery{\r\n         require(batteries[msg.sender].isExist==true, \"Only registered batteries have access\");\r\n         _;\r\n     }\r\n\r\n    //add a battery by eth account address\r\n    function addNewBattery (string memory uuID, uint32 date) public {\r\n        require(batteries[msg.sender].isExist==false, \"Battery details already added\");\r\n        batteries[msg.sender] = battery(msg.sender, uuID, date, block.timestamp, true);\r\n\r\n        listOfBatteries.push(battery({\r\n            batteryID: msg.sender,\r\n            uuID: uuID,\r\n            date: date,\r\n            timestamp: block.timestamp,\r\n            isExist: true\r\n            }));\r\n    }\r\n\r\n    //to view all batteries\r\n    function viewAllBatteries () public view returns (battery[] memory) {\r\n        return listOfBatteries;\r\n    }\r\n\r\n    function getCountOfBatteries () public view returns (uint count) {\r\n        return listOfBatteries.length;\r\n    }\r\n\r\n    //change details of a battery\r\n    function updateBattery(address batteryID, string memory uuID) public onlyRegisteredBattery {\r\n        for(uint i = 0; i<listOfBatteries.length; i++){\r\n            if(listOfBatteries[i].batteryID == batteryID){\r\n                listOfBatteries[i].uuID = uuID;\r\n                batteries[batteryID].uuID = uuID;\r\n            }\r\n        }\r\n    }\r\n\r\n    //view single battery by battery id\r\n    function getBatteryByID(address batteryID) public view returns (address, string memory, uint, uint32){\r\n        return (batteries[batteryID].batteryID, batteries[batteryID].uuID, batteries[batteryID].timestamp, batteries[batteryID].date);\r\n    }\r\n}\r\n\r\ncontract energyBid is owned, batteryRegistry {\r\n\r\n    //event offerEnergyMade(address indexed sellerBatteryID, uint32 indexed day, uint32 indexed price, uint64 energy);\r\n    //event buyEnergyMade(address indexed sellerBatteryID, uint32 indexed day, uint32 price, uint64 energy, address indexed batteryID);\r\n\r\n    uint64 constant kWh = 1;\r\n    uint64 constant MWh = 1000 * kWh;\r\n    uint64 constant GWh = 1000 * MWh;\r\n    uint64 constant TWh = 1000 * GWh;\r\n\r\n    //uint uinversalPrice = 2; //Energy market price per kWh (ex. 2euro/kWh, the price is trial)\r\n\r\n    struct bid {\r\n        address prosumerID;    \r\n        uint numberOfBid;      //A battery can create more than one energy offer\r\n        uint32 day;            //day for which the offer is valid\r\n        uint64 energy;         //energy to trade\r\n        uint32 eprice;         //Energy market price per kWh\r\n        uint timestamp;      //timestamp for when the bid was created\r\n    }\r\n    \r\n    struct ask {\r\n        address consumerID;    \r\n        uint64 energy;\r\n        uint timestamp;\r\n        uint32 day;\r\n        uint64 remainingEnergy;\r\n    }\r\n\r\n    //struct to store all energy purchases\r\n    struct buyedEnergy {\r\n        address consumerID;\r\n        address prosumerID;\r\n        uint64 energy;\r\n        uint price;\r\n        uint32 day;\r\n        uint timestamp;\r\n    }\r\n    \r\n    mapping(address => uint) asks; \r\n    ask[] listOfAsks;\r\n\r\n    buyedEnergy[] listOfBuyedEnergy;\r\n\r\n    mapping(address => mapping(uint32 => mapping(uint=> uint))) bids;\r\n    bid[] listOfBids;\r\n    uint nextNumberOfBid;                                    \r\n\r\n    //create energy offer \r\n    //There is a minimum energy requirement \r\n    //Only registered batteries can use this function\r\n    function energyOffer(uint32 _day, uint64 _energy, uint32 _eprice) public onlyRegisteredBattery {\r\n        require(_energy >= kWh, \"Wrong energy input require a minimum offer of 1 kWh\");\r\n\r\n        listOfBids.push(bid({\r\n            prosumerID: msg.sender,\r\n            numberOfBid: nextNumberOfBid,\r\n            day: _day,\r\n            energy: _energy,\r\n            eprice: _eprice,\r\n            timestamp: block.timestamp\r\n        }));\r\n        nextNumberOfBid++;\r\n        bidEnergyTrading(listOfBids[listOfBids.length-1]);\r\n    }\r\n\r\n    //make ask request and buy energy from available bids\r\n    function askEnergy(uint32 _day, uint64 _energy) public onlyRegisteredBattery {\r\n        require(_energy >= kWh, \"Wrong energy input require a minimum offer of 1 kWh\");\r\n\r\n        listOfAsks.push(ask({\r\n            consumerID: msg.sender,\r\n            energy: _energy,\r\n            timestamp: block.timestamp,\r\n            day: _day,\r\n            remainingEnergy: _energy\r\n        }));\r\n        askEnergyTrading(listOfAsks[listOfAsks.length-1]);\r\n    }\r\n\r\n    //core function for energy trading (ask case)\r\n    function askEnergyTrading(ask memory _ask) private onlyRegisteredBattery {\r\n        //require(listOfBids.length > 0, \"There is no energy offer\");\r\n\r\n        uint64 remainingEnergy = _ask.remainingEnergy;\r\n\r\n        for(uint i = 0; i<listOfBids.length; i++){\r\n\r\n            address _prosumerID;\r\n            bool isEnergyPurchased = false;\r\n            uint64 energyPurchased = 0;\r\n            uint _price = 0;\r\n\r\n            if(listOfBids[i].energy < remainingEnergy){\r\n                _prosumerID = listOfBids[i].prosumerID;\r\n                energyPurchased = listOfBids[i].energy; \r\n                remainingEnergy = remainingEnergy - listOfBids[i].energy;\r\n                listOfAsks[i].remainingEnergy = remainingEnergy;//-----\r\n                _price = listOfBids[i].eprice*energyPurchased; //price per kWh\r\n                listOfBids[i].energy = 0;\r\n\r\n                isEnergyPurchased = true;\r\n\r\n                //remove energy offer from the list if energy is zero\r\n                if (listOfBids.length > 1) {\r\n                    listOfBids[i] = listOfBids[listOfBids.length-1];\r\n                }\r\n                listOfBids.length--;\r\n                i--;//-----\r\n\r\n            }else if(listOfBids[i].energy == remainingEnergy){\r\n                _prosumerID = listOfBids[i].prosumerID;\r\n                energyPurchased = remainingEnergy;\r\n                _price = listOfBids[i].eprice*energyPurchased;\r\n                listOfBids[i].energy = 0;\r\n                remainingEnergy = 0;\r\n\r\n                isEnergyPurchased = true;\r\n\r\n                if (listOfBids.length > 1) {\r\n                    listOfBids[i] = listOfBids[listOfBids.length-1];\r\n                }\r\n                listOfBids.length--;\r\n\r\n            }else{\r\n                _prosumerID = listOfBids[i].prosumerID;\r\n                energyPurchased = remainingEnergy;\r\n                listOfBids[i].energy = listOfBids[i].energy - remainingEnergy;\r\n                _price = listOfBids[i].eprice*energyPurchased;\r\n                remainingEnergy = 0;\r\n\r\n                isEnergyPurchased = true;\r\n            }\r\n\r\n            //store purchase \r\n            if(isEnergyPurchased){\r\n                listOfBuyedEnergy.push(buyedEnergy({\r\n                    consumerID: msg.sender,\r\n                    prosumerID: _prosumerID,\r\n                    energy: energyPurchased,\r\n                    price: _price,\r\n                    day: _ask.day,\r\n                    timestamp: _ask.timestamp\r\n                }));\r\n            }\r\n\r\n            //remove ask request from list \r\n            if(remainingEnergy == 0){\r\n                if (listOfAsks.length > 1){\r\n                    listOfAsks[i] = listOfAsks[listOfAsks.length-1];\r\n                }\r\n                listOfAsks.length--;\r\n                break ;\r\n            }\r\n        }\r\n    }\r\n\r\n    /////Energy trading for bid case \r\n    function bidEnergyTrading(bid memory _bid) private onlyRegisteredBattery {\r\n\r\n        //require();\r\n\r\n        uint64 _remainingBidEnergy = _bid.energy;\r\n\r\n        for(uint i = 0; i<listOfAsks.length; i++){\r\n            \r\n            address _consumerID;\r\n            bool isEnergyPurchased = false;\r\n            uint64 energyPurchased = 0;\r\n            uint _price = 0;\r\n            if(listOfAsks[i].remainingEnergy < _remainingBidEnergy){\r\n                _consumerID = listOfAsks[i].consumerID;\r\n                energyPurchased = listOfAsks[i].remainingEnergy;\r\n                _remainingBidEnergy = _remainingBidEnergy - energyPurchased;\r\n                listOfBids[i].energy = _remainingBidEnergy;\r\n                _price = _bid.eprice*energyPurchased;\r\n                listOfAsks[i].remainingEnergy = 0;\r\n\r\n                isEnergyPurchased = true;\r\n\r\n                if(listOfAsks.length > 1){\r\n                    listOfAsks[i] = listOfAsks[listOfAsks.length-1];\r\n                }\r\n                listOfAsks.length--;\r\n                i--;\r\n\r\n            }else if(listOfAsks[i].remainingEnergy == _remainingBidEnergy){\r\n                _consumerID = listOfAsks[i].consumerID;\r\n                energyPurchased = _remainingBidEnergy;\r\n                _price = _bid.eprice*energyPurchased;\r\n                _remainingBidEnergy = 0;\r\n                listOfAsks[i].remainingEnergy = 0;\r\n\r\n                isEnergyPurchased = true;\r\n\r\n                if(listOfAsks.length > 1){\r\n                    listOfAsks[i] = listOfAsks[listOfAsks.length-1];\r\n                }\r\n                listOfAsks.length--;\r\n\r\n            }else{\r\n                _consumerID = listOfAsks[i].consumerID;\r\n                energyPurchased = _remainingBidEnergy;\r\n                listOfAsks[i].remainingEnergy = listOfAsks[i].remainingEnergy - energyPurchased;\r\n                _price = _bid.eprice*energyPurchased;\r\n                _remainingBidEnergy = 0;\r\n\r\n                isEnergyPurchased = true;\r\n            }\r\n\r\n            if(isEnergyPurchased){\r\n                listOfBuyedEnergy.push(buyedEnergy({\r\n                    consumerID: _consumerID,\r\n                    prosumerID: msg.sender,\r\n                    energy: energyPurchased,\r\n                    price: _price,\r\n                    day: _bid.day,\r\n                    timestamp: _bid.timestamp\r\n                }));\r\n            }\r\n\r\n            if(_remainingBidEnergy == 0){\r\n                if(listOfBids.length > 1){\r\n                    listOfBids[i] = listOfBids[listOfBids.length-1];\r\n                }\r\n                listOfBids.length--;\r\n                break;\r\n            }\r\n        }\r\n    }\r\n\r\n    //list of all ask energy requests\r\n    function viewAllAsks () public view returns (ask[] memory){\r\n        return listOfAsks;\r\n    }\r\n\r\n    function getCountOfAsks () public view returns (uint count){\r\n        return listOfAsks.length;\r\n    }\r\n\r\n    //view single ask energy request by batteryID\r\n    function getAskByBatteryId (address _consumerID) public view returns (address, uint32, uint64){\r\n        uint indexA = asks[_consumerID];\r\n        require(listOfAsks.length > indexA, \"Wrong index\");\r\n        require(listOfAsks[indexA].consumerID == _consumerID, \"Wrong Battery Id\");\r\n        return (listOfAsks[indexA].consumerID, listOfAsks[indexA].day, listOfAsks[indexA].energy);\r\n    }\r\n\r\n    //list of all energy purchases\r\n    function viewAllEnergyPurchases () public view returns (buyedEnergy[] memory){\r\n        return listOfBuyedEnergy;\r\n    }\r\n\r\n    //view all bids \r\n    function viewAllBids () public view returns (bid[] memory){\r\n      return listOfBids;\r\n    }\r\n\r\n    function getCountOfBids () public view returns (uint count){\r\n        return listOfBids.length;\r\n    }\r\n\r\n    //view single bid by batteryID\r\n    function getBidByBatteryID (address prosumerID, uint32 day, uint numberOfBid) public view returns (uint, uint32, uint64){\r\n        uint index = bids[prosumerID][day][numberOfBid];\r\n        require(listOfBids.length > index, \"Wrong index\");\r\n        require(listOfBids[index].day == day, \"There is no offer on this day\");\r\n        require(listOfBids[index].prosumerID == prosumerID, \"Wrong ID\");\r\n        return (listOfBids[index].numberOfBid, listOfBids[index].day, listOfBids[index].energy);\r\n    }\r\n}",
  "sourcePath": "C:/Users/Lenovo/projects/ethereum/protergia/blockchain-energy-trading-and-green-energy-certification-thesis-w-protergia/src/contracts/Battery.sol",
  "compiler": {
    "name": "solc",
    "version": "0.5.16+commit.9c3226ce.Emscripten.clang"
  },
  "schemaVersion": "3.3.4",
  "updatedAt": "2021-06-19T00:57:08.325Z",
  "devdoc": {
    "methods": {}
  },
  "userdoc": {
    "methods": {}
  }
}