{
  "contractName": "energyBid",
  "abi": [
    {
      "anonymous": false,
      "inputs": [
        {
          "indexed": true,
          "internalType": "address",
          "name": "sellerBatteryID",
          "type": "address"
        },
        {
          "indexed": true,
          "internalType": "uint32",
          "name": "day",
          "type": "uint32"
        },
        {
          "indexed": false,
          "internalType": "uint32",
          "name": "price",
          "type": "uint32"
        },
        {
          "indexed": false,
          "internalType": "uint64",
          "name": "energy",
          "type": "uint64"
        },
        {
          "indexed": true,
          "internalType": "address",
          "name": "batteryID",
          "type": "address"
        }
      ],
      "name": "buyEnergyMade",
      "type": "event"
    },
    {
      "anonymous": false,
      "inputs": [
        {
          "indexed": true,
          "internalType": "address",
          "name": "sellerBatteryID",
          "type": "address"
        },
        {
          "indexed": true,
          "internalType": "uint32",
          "name": "day",
          "type": "uint32"
        },
        {
          "indexed": true,
          "internalType": "uint32",
          "name": "price",
          "type": "uint32"
        },
        {
          "indexed": false,
          "internalType": "uint64",
          "name": "energy",
          "type": "uint64"
        }
      ],
      "name": "offerEnergyMade",
      "type": "event"
    },
    {
      "constant": false,
      "inputs": [
        {
          "internalType": "string",
          "name": "nameOfBatteryOwner",
          "type": "string"
        },
        {
          "internalType": "uint32",
          "name": "date",
          "type": "uint32"
        }
      ],
      "name": "addNewBattery",
      "outputs": [],
      "payable": false,
      "stateMutability": "nonpayable",
      "type": "function"
    },
    {
      "constant": true,
      "inputs": [
        {
          "internalType": "address",
          "name": "batteryID",
          "type": "address"
        }
      ],
      "name": "getBatteryByID",
      "outputs": [
        {
          "internalType": "address",
          "name": "",
          "type": "address"
        },
        {
          "internalType": "string",
          "name": "",
          "type": "string"
        },
        {
          "internalType": "uint32",
          "name": "",
          "type": "uint32"
        }
      ],
      "payable": false,
      "stateMutability": "view",
      "type": "function"
    },
    {
      "constant": false,
      "inputs": [
        {
          "internalType": "address",
          "name": "batteryID",
          "type": "address"
        },
        {
          "internalType": "string",
          "name": "nameOfBatteryOwner",
          "type": "string"
        }
      ],
      "name": "updateBattery",
      "outputs": [],
      "payable": false,
      "stateMutability": "nonpayable",
      "type": "function"
    },
    {
      "constant": true,
      "inputs": [],
      "name": "viewAllBatteries",
      "outputs": [
        {
          "components": [
            {
              "internalType": "address",
              "name": "batteryID",
              "type": "address"
            },
            {
              "internalType": "string",
              "name": "nameOfBatteryOwner",
              "type": "string"
            },
            {
              "internalType": "uint32",
              "name": "date",
              "type": "uint32"
            },
            {
              "internalType": "bool",
              "name": "isExist",
              "type": "bool"
            }
          ],
          "internalType": "struct batteryRegistry.battery[]",
          "name": "",
          "type": "tuple[]"
        }
      ],
      "payable": false,
      "stateMutability": "view",
      "type": "function"
    },
    {
      "constant": false,
      "inputs": [
        {
          "internalType": "uint32",
          "name": "_day",
          "type": "uint32"
        },
        {
          "internalType": "uint32",
          "name": "_price",
          "type": "uint32"
        },
        {
          "internalType": "uint64",
          "name": "_energy",
          "type": "uint64"
        },
        {
          "internalType": "uint64",
          "name": "_timestamp",
          "type": "uint64"
        }
      ],
      "name": "energyOffer",
      "outputs": [],
      "payable": false,
      "stateMutability": "nonpayable",
      "type": "function"
    },
    {
      "constant": true,
      "inputs": [],
      "name": "viewAllBids",
      "outputs": [
        {
          "components": [
            {
              "internalType": "address",
              "name": "sellerBatteryID",
              "type": "address"
            },
            {
              "internalType": "uint256",
              "name": "numberOfBid",
              "type": "uint256"
            },
            {
              "internalType": "uint32",
              "name": "day",
              "type": "uint32"
            },
            {
              "internalType": "uint32",
              "name": "price",
              "type": "uint32"
            },
            {
              "internalType": "uint64",
              "name": "energy",
              "type": "uint64"
            },
            {
              "internalType": "uint64",
              "name": "timestamp",
              "type": "uint64"
            }
          ],
          "internalType": "struct energyBid.bid[]",
          "name": "",
          "type": "tuple[]"
        }
      ],
      "payable": false,
      "stateMutability": "view",
      "type": "function"
    },
    {
      "constant": true,
      "inputs": [
        {
          "internalType": "address",
          "name": "batteryID",
          "type": "address"
        },
        {
          "internalType": "uint32",
          "name": "day",
          "type": "uint32"
        },
        {
          "internalType": "uint256",
          "name": "numberOfBid",
          "type": "uint256"
        }
      ],
      "name": "getBidByBatteryID",
      "outputs": [
        {
          "internalType": "uint256",
          "name": "",
          "type": "uint256"
        },
        {
          "internalType": "uint32",
          "name": "",
          "type": "uint32"
        },
        {
          "internalType": "uint32",
          "name": "",
          "type": "uint32"
        },
        {
          "internalType": "uint64",
          "name": "",
          "type": "uint64"
        }
      ],
      "payable": false,
      "stateMutability": "view",
      "type": "function"
    },
    {
      "constant": false,
      "inputs": [
        {
          "internalType": "address",
          "name": "_sellerBatteryID",
          "type": "address"
        },
        {
          "internalType": "uint32",
          "name": "_day",
          "type": "uint32"
        },
        {
          "internalType": "uint32",
          "name": "_price",
          "type": "uint32"
        },
        {
          "internalType": "uint64",
          "name": "_energy",
          "type": "uint64"
        },
        {
          "internalType": "uint64",
          "name": "_timestamp",
          "type": "uint64"
        },
        {
          "internalType": "address",
          "name": "_batteryID",
          "type": "address"
        }
      ],
      "name": "askAndBuyEnergy",
      "outputs": [],
      "payable": false,
      "stateMutability": "nonpayable",
      "type": "function"
    },
    {
      "constant": true,
      "inputs": [],
      "name": "viewAllAsks",
      "outputs": [
        {
          "components": [
            {
              "internalType": "address",
              "name": "sellerBatteryID",
              "type": "address"
            },
            {
              "internalType": "uint64",
              "name": "energy",
              "type": "uint64"
            },
            {
              "internalType": "uint32",
              "name": "price",
              "type": "uint32"
            },
            {
              "internalType": "uint64",
              "name": "timestamp",
              "type": "uint64"
            },
            {
              "internalType": "uint32",
              "name": "day",
              "type": "uint32"
            },
            {
              "internalType": "address",
              "name": "batteryID",
              "type": "address"
            }
          ],
          "internalType": "struct energyBid.ask[]",
          "name": "",
          "type": "tuple[]"
        }
      ],
      "payable": false,
      "stateMutability": "view",
      "type": "function"
    },
    {
      "constant": true,
      "inputs": [
        {
          "internalType": "address",
          "name": "batteryID",
          "type": "address"
        }
      ],
      "name": "getAskByBatteryId",
      "outputs": [
        {
          "internalType": "address",
          "name": "",
          "type": "address"
        },
        {
          "internalType": "uint32",
          "name": "",
          "type": "uint32"
        },
        {
          "internalType": "uint32",
          "name": "",
          "type": "uint32"
        },
        {
          "internalType": "uint64",
          "name": "",
          "type": "uint64"
        }
      ],
      "payable": false,
      "stateMutability": "view",
      "type": "function"
    }
  ],
  "bytecode": "0x6080604052336000806101000a81548173ffffffffffffffffffffffffffffffffffffffff021916908373ffffffffffffffffffffffffffffffffffffffff160217905550612d11806100536000396000f3fe608060405234801561001057600080fd5b506004361061009e5760003560e01c806387bdb2061161006657806387bdb20614610148578063b47c774114610166578063c13c7cff14610184578063c9fb8578146101b7578063eefa716b146101e95761009e565b80635b4cf93c146100a357806362e9a430146100c15780636729dfe4146100f45780637964daad1461011057806386b6c85a1461012c575b600080fd5b6100ab610205565b6040516100b8919061288c565b60405180910390f35b6100db60048036036100d69190810190611eda565b610374565b6040516100eb9493929190612803565b60405180910390f35b61010e60048036036101099190810190612083565b610591565b005b61012a60048036036101259190810190611fa6565b610ae0565b005b6101466004803603610141919081019061202f565b6110d0565b005b6101506113b2565b60405161015d9190612848565b60405180910390f35b61016e61156d565b60405161017b919061286a565b60405180910390f35b61019e60048036036101999190810190611f57565b611705565b6040516101ae94939291906129ee565b60405180910390f35b6101d160048036036101cc9190810190611eda565b6119ae565b6040516101e0939291906127c5565b60405180910390f35b61020360048036036101fe9190810190611f03565b611b55565b005b60606006805480602002602001604051908101604052809291908181526020016000905b8282101561036b57838290600052602060002090600302016040518060c00160405290816000820160009054906101000a900473ffffffffffffffffffffffffffffffffffffffff1673ffffffffffffffffffffffffffffffffffffffff1673ffffffffffffffffffffffffffffffffffffffff168152602001600182015481526020016002820160009054906101000a900463ffffffff1663ffffffff1663ffffffff1681526020016002820160049054906101000a900463ffffffff1663ffffffff1663ffffffff1681526020016002820160089054906101000a900467ffffffffffffffff1667ffffffffffffffff1667ffffffffffffffff1681526020016002820160109054906101000a900467ffffffffffffffff1667ffffffffffffffff1667ffffffffffffffff168152505081526020019060010190610229565b50505050905090565b6000806000806000600360008773ffffffffffffffffffffffffffffffffffffffff1673ffffffffffffffffffffffffffffffffffffffff1681526020019081526020016000205490508060048054905011610405576040517f08c379a00000000000000000000000000000000000000000000000000000000081526004016103fc9061296e565b60405180910390fd5b8573ffffffffffffffffffffffffffffffffffffffff166004828154811061042957fe5b9060005260206000209060020201600101600c9054906101000a900473ffffffffffffffffffffffffffffffffffffffff1673ffffffffffffffffffffffffffffffffffffffff16146104b1576040517f08c379a00000000000000000000000000000000000000000000000000000000081526004016104a89061294e565b60405180910390fd5b600481815481106104be57fe5b906000526020600020906002020160000160009054906101000a900473ffffffffffffffffffffffffffffffffffffffff16600482815481106104fd57fe5b906000526020600020906002020160010160089054906101000a900463ffffffff166004838154811061052c57fe5b9060005260206000209060020201600001601c9054906101000a900463ffffffff166004848154811061055b57fe5b906000526020600020906002020160000160149054906101000a900467ffffffffffffffff169450945094509450509193509193565b60011515600160003373ffffffffffffffffffffffffffffffffffffffff1673ffffffffffffffffffffffffffffffffffffffff16815260200190815260200160002060020160049054906101000a900460ff16151514610627576040517f08c379a000000000000000000000000000000000000000000000000000000000815260040161061e9061290e565b60405180910390fd5b60011515600160003373ffffffffffffffffffffffffffffffffffffffff1673ffffffffffffffffffffffffffffffffffffffff16815260200190815260200160002060020160049054906101000a900460ff161515146106bd576040517f08c379a00000000000000000000000000000000000000000000000000000000081526004016106b4906128ee565b60405180910390fd5b60016103e8026103e80267ffffffffffffffff168267ffffffffffffffff16101561071d576040517f08c379a00000000000000000000000000000000000000000000000000000000081526004016107149061292e565b60405180910390fd5b6000600560003373ffffffffffffffffffffffffffffffffffffffff1673ffffffffffffffffffffffffffffffffffffffff16815260200190815260200160002060008663ffffffff1663ffffffff16815260200190815260200160002060006007548152602001908152602001600020549050600680549050905080600560003373ffffffffffffffffffffffffffffffffffffffff1673ffffffffffffffffffffffffffffffffffffffff16815260200190815260200160002060008763ffffffff1663ffffffff168152602001908152602001600020600060075481526020019081526020016000208190555060066040518060c001604052803373ffffffffffffffffffffffffffffffffffffffff16815260200160075481526020018763ffffffff1681526020018663ffffffff1681526020018567ffffffffffffffff1681526020018467ffffffffffffffff168152509080600181540180825580915050906001820390600052602060002090600302016000909192909190915060008201518160000160006101000a81548173ffffffffffffffffffffffffffffffffffffffff021916908373ffffffffffffffffffffffffffffffffffffffff1602179055506020820151816001015560408201518160020160006101000a81548163ffffffff021916908363ffffffff16021790555060608201518160020160046101000a81548163ffffffff021916908363ffffffff16021790555060808201518160020160086101000a81548167ffffffffffffffff021916908367ffffffffffffffff16021790555060a08201518160020160106101000a81548167ffffffffffffffff021916908367ffffffffffffffff160217905550505050600760008154809291906001019190505550600681815481106109be57fe5b906000526020600020906003020160020160049054906101000a900463ffffffff1663ffffffff16600682815481106109f357fe5b906000526020600020906003020160020160009054906101000a900463ffffffff1663ffffffff1660068381548110610a2857fe5b906000526020600020906003020160000160009054906101000a900473ffffffffffffffffffffffffffffffffffffffff1673ffffffffffffffffffffffffffffffffffffffff167f107026db9f0bfa31b7c73525212ffca2ceeccc11162fee4e08993a1f51ffc02a60068581548110610a9e57fe5b906000526020600020906003020160020160089054906101000a900467ffffffffffffffff16604051610ad19190612a5c565b60405180910390a45050505050565b60011515600160003373ffffffffffffffffffffffffffffffffffffffff1673ffffffffffffffffffffffffffffffffffffffff16815260200190815260200160002060020160049054906101000a900460ff16151514610b76576040517f08c379a0000000000000000000000000000000000000000000000000000000008152600401610b6d9061290e565b60405180910390fd5b60011515600160003373ffffffffffffffffffffffffffffffffffffffff1673ffffffffffffffffffffffffffffffffffffffff16815260200190815260200160002060020160049054906101000a900460ff16151514610c0c576040517f08c379a0000000000000000000000000000000000000000000000000000000008152600401610c03906128ee565b60405180910390fd5b60016103e8026103e80267ffffffffffffffff168367ffffffffffffffff161015610c6c576040517f08c379a0000000000000000000000000000000000000000000000000000000008152600401610c63906129ce565b60405180910390fd5b6000600560008873ffffffffffffffffffffffffffffffffffffffff1673ffffffffffffffffffffffffffffffffffffffff16815260200190815260200160002060008763ffffffff1663ffffffff1681526020019081526020016000206000600754815260200190815260200160002054905080600680549050118015610d5d57508673ffffffffffffffffffffffffffffffffffffffff1660068281548110610d1357fe5b906000526020600020906003020160000160009054906101000a900473ffffffffffffffffffffffffffffffffffffffff1673ffffffffffffffffffffffffffffffffffffffff16145b8015610da257508563ffffffff1660068281548110610d7857fe5b906000526020600020906003020160020160009054906101000a900463ffffffff1663ffffffff16145b156110c2578463ffffffff1660068281548110610dbb57fe5b906000526020600020906003020160020160049054906101000a900463ffffffff1663ffffffff1614610e23576040517f08c379a0000000000000000000000000000000000000000000000000000000008152600401610e1a906128ce565b60405180910390fd5b600480549050600360008473ffffffffffffffffffffffffffffffffffffffff1673ffffffffffffffffffffffffffffffffffffffff1681526020019081526020016000208190555060046040518060c001604052808973ffffffffffffffffffffffffffffffffffffffff1681526020018667ffffffffffffffff1681526020018763ffffffff1681526020018567ffffffffffffffff1681526020018863ffffffff1681526020018473ffffffffffffffffffffffffffffffffffffffff168152509080600181540180825580915050906001820390600052602060002090600202016000909192909190915060008201518160000160006101000a81548173ffffffffffffffffffffffffffffffffffffffff021916908373ffffffffffffffffffffffffffffffffffffffff16021790555060208201518160000160146101000a81548167ffffffffffffffff021916908367ffffffffffffffff160217905550604082015181600001601c6101000a81548163ffffffff021916908363ffffffff16021790555060608201518160010160006101000a81548167ffffffffffffffff021916908367ffffffffffffffff16021790555060808201518160010160086101000a81548163ffffffff021916908363ffffffff16021790555060a082015181600101600c6101000a81548173ffffffffffffffffffffffffffffffffffffffff021916908373ffffffffffffffffffffffffffffffffffffffff1602179055505050508173ffffffffffffffffffffffffffffffffffffffff168663ffffffff168873ffffffffffffffffffffffffffffffffffffffff167f6aec5b5e3497636004a7eab239b3cfc7628b1af90423ad8c0c73addd05d8ccae88886040516110b5929190612a33565b60405180910390a46110c7565b600080fd5b50505050505050565b60001515600160003373ffffffffffffffffffffffffffffffffffffffff1673ffffffffffffffffffffffffffffffffffffffff16815260200190815260200160002060020160049054906101000a900460ff16151514611166576040517f08c379a000000000000000000000000000000000000000000000000000000000815260040161115d906129ae565b60405180910390fd5b60405180608001604052803373ffffffffffffffffffffffffffffffffffffffff1681526020018381526020018263ffffffff16815260200160011515815250600160003373ffffffffffffffffffffffffffffffffffffffff1673ffffffffffffffffffffffffffffffffffffffff16815260200190815260200160002060008201518160000160006101000a81548173ffffffffffffffffffffffffffffffffffffffff021916908373ffffffffffffffffffffffffffffffffffffffff1602179055506020820151816001019080519060200190611248929190611d0d565b5060408201518160020160006101000a81548163ffffffff021916908363ffffffff16021790555060608201518160020160046101000a81548160ff021916908315150217905550905050600260405180608001604052803373ffffffffffffffffffffffffffffffffffffffff1681526020018481526020018363ffffffff168152602001600115158152509080600181540180825580915050906001820390600052602060002090600302016000909192909190915060008201518160000160006101000a81548173ffffffffffffffffffffffffffffffffffffffff021916908373ffffffffffffffffffffffffffffffffffffffff1602179055506020820151816001019080519060200190611363929190611d0d565b5060408201518160020160006101000a81548163ffffffff021916908363ffffffff16021790555060608201518160020160046101000a81548160ff0219169083151502179055505050505050565b60606004805480602002602001604051908101604052809291908181526020016000905b8282101561156457838290600052602060002090600202016040518060c00160405290816000820160009054906101000a900473ffffffffffffffffffffffffffffffffffffffff1673ffffffffffffffffffffffffffffffffffffffff1673ffffffffffffffffffffffffffffffffffffffff1681526020016000820160149054906101000a900467ffffffffffffffff1667ffffffffffffffff1667ffffffffffffffff16815260200160008201601c9054906101000a900463ffffffff1663ffffffff1663ffffffff1681526020016001820160009054906101000a900467ffffffffffffffff1667ffffffffffffffff1667ffffffffffffffff1681526020016001820160089054906101000a900463ffffffff1663ffffffff1663ffffffff16815260200160018201600c9054906101000a900473ffffffffffffffffffffffffffffffffffffffff1673ffffffffffffffffffffffffffffffffffffffff1673ffffffffffffffffffffffffffffffffffffffff1681525050815260200190600101906113d6565b50505050905090565b60606002805480602002602001604051908101604052809291908181526020016000905b828210156116fc57838290600052602060002090600302016040518060800160405290816000820160009054906101000a900473ffffffffffffffffffffffffffffffffffffffff1673ffffffffffffffffffffffffffffffffffffffff1673ffffffffffffffffffffffffffffffffffffffff168152602001600182018054600181600116156101000203166002900480601f0160208091040260200160405190810160405280929190818152602001828054600181600116156101000203166002900480156116a35780601f10611678576101008083540402835291602001916116a3565b820191906000526020600020905b81548152906001019060200180831161168657829003601f168201915b505050505081526020016002820160009054906101000a900463ffffffff1663ffffffff1663ffffffff1681526020016002820160049054906101000a900460ff16151515158152505081526020019060010190611591565b50505050905090565b6000806000806000600560008973ffffffffffffffffffffffffffffffffffffffff1673ffffffffffffffffffffffffffffffffffffffff16815260200190815260200160002060008863ffffffff1663ffffffff168152602001908152602001600020600087815260200190815260200160002054905080600680549050116117c4576040517f08c379a00000000000000000000000000000000000000000000000000000000081526004016117bb9061296e565b60405180910390fd5b8663ffffffff16600682815481106117d857fe5b906000526020600020906003020160020160009054906101000a900463ffffffff1663ffffffff1614611840576040517f08c379a0000000000000000000000000000000000000000000000000000000008152600401611837906128ae565b60405180910390fd5b8773ffffffffffffffffffffffffffffffffffffffff166006828154811061186457fe5b906000526020600020906003020160000160009054906101000a900473ffffffffffffffffffffffffffffffffffffffff1673ffffffffffffffffffffffffffffffffffffffff16146118ec576040517f08c379a00000000000000000000000000000000000000000000000000000000081526004016118e39061298e565b60405180910390fd5b600681815481106118f957fe5b9060005260206000209060030201600101546006828154811061191857fe5b906000526020600020906003020160020160009054906101000a900463ffffffff166006838154811061194757fe5b906000526020600020906003020160020160049054906101000a900463ffffffff166006848154811061197657fe5b906000526020600020906003020160020160089054906101000a900467ffffffffffffffff1694509450945094505093509350935093565b600060606000600160008573ffffffffffffffffffffffffffffffffffffffff1673ffffffffffffffffffffffffffffffffffffffff16815260200190815260200160002060000160009054906101000a900473ffffffffffffffffffffffffffffffffffffffff16600160008673ffffffffffffffffffffffffffffffffffffffff1673ffffffffffffffffffffffffffffffffffffffff168152602001908152602001600020600101600160008773ffffffffffffffffffffffffffffffffffffffff1673ffffffffffffffffffffffffffffffffffffffff16815260200190815260200160002060020160009054906101000a900463ffffffff16818054600181600116156101000203166002900480601f016020809104026020016040519081016040528092919081815260200182805460018160011615610100020316600290048015611b415780601f10611b1657610100808354040283529160200191611b41565b820191906000526020600020905b815481529060010190602001808311611b2457829003601f168201915b505050505091509250925092509193909250565b60011515600160003373ffffffffffffffffffffffffffffffffffffffff1673ffffffffffffffffffffffffffffffffffffffff16815260200190815260200160002060020160049054906101000a900460ff16151514611beb576040517f08c379a0000000000000000000000000000000000000000000000000000000008152600401611be29061290e565b60405180910390fd5b60008090505b600280549050811015611d08578273ffffffffffffffffffffffffffffffffffffffff1660028281548110611c2257fe5b906000526020600020906003020160000160009054906101000a900473ffffffffffffffffffffffffffffffffffffffff1673ffffffffffffffffffffffffffffffffffffffff161415611cfb578160028281548110611c7e57fe5b90600052602060002090600302016001019080519060200190611ca2929190611d8d565b5081600160008573ffffffffffffffffffffffffffffffffffffffff1673ffffffffffffffffffffffffffffffffffffffff1681526020019081526020016000206001019080519060200190611cf9929190611d8d565b505b8080600101915050611bf1565b505050565b828054600181600116156101000203166002900490600052602060002090601f016020900481019282601f10611d4e57805160ff1916838001178555611d7c565b82800160010185558215611d7c579182015b82811115611d7b578251825591602001919060010190611d60565b5b509050611d899190611e0d565b5090565b828054600181600116156101000203166002900490600052602060002090601f016020900481019282601f10611dce57805160ff1916838001178555611dfc565b82800160010185558215611dfc579182015b82811115611dfb578251825591602001919060010190611de0565b5b509050611e099190611e0d565b5090565b611e2f91905b80821115611e2b576000816000905550600101611e13565b5090565b90565b600081359050611e4181612c72565b92915050565b600082601f830112611e5857600080fd5b8135611e6b611e6682612aa4565b612a77565b91508082526020830160208301858383011115611e8757600080fd5b611e92838284612c1f565b50505092915050565b600081359050611eaa81612c89565b92915050565b600081359050611ebf81612ca0565b92915050565b600081359050611ed481612cb7565b92915050565b600060208284031215611eec57600080fd5b6000611efa84828501611e32565b91505092915050565b60008060408385031215611f1657600080fd5b6000611f2485828601611e32565b925050602083013567ffffffffffffffff811115611f4157600080fd5b611f4d85828601611e47565b9150509250929050565b600080600060608486031215611f6c57600080fd5b6000611f7a86828701611e32565b9350506020611f8b86828701611eb0565b9250506040611f9c86828701611e9b565b9150509250925092565b60008060008060008060c08789031215611fbf57600080fd5b6000611fcd89828a01611e32565b9650506020611fde89828a01611eb0565b9550506040611fef89828a01611eb0565b945050606061200089828a01611ec5565b935050608061201189828a01611ec5565b92505060a061202289828a01611e32565b9150509295509295509295565b6000806040838503121561204257600080fd5b600083013567ffffffffffffffff81111561205c57600080fd5b61206885828601611e47565b925050602061207985828601611eb0565b9150509250929050565b6000806000806080858703121561209957600080fd5b60006120a787828801611eb0565b94505060206120b887828801611eb0565b93505060406120c987828801611ec5565b92505060606120da87828801611ec5565b91505092959194509250565b60006120f28383612612565b60c08301905092915050565b600061210a838361268d565b905092915050565b600061211e83836126f0565b60c08301905092915050565b61213381612bb3565b82525050565b61214281612bb3565b82525050565b600061215382612b00565b61215d8185612b5e565b935061216883612ad0565b8060005b8381101561219957815161218088826120e6565b975061218b83612b37565b92505060018101905061216c565b5085935050505092915050565b60006121b182612b0b565b6121bb8185612b6f565b9350836020820285016121cd85612ae0565b8060005b8581101561220957848403895281516121ea85826120fe565b94506121f583612b44565b925060208a019950506001810190506121d1565b50829750879550505050505092915050565b600061222682612b16565b6122308185612b80565b935061223b83612af0565b8060005b8381101561226c5781516122538882612112565b975061225e83612b51565b92505060018101905061223f565b5085935050505092915050565b61228281612bc5565b82525050565b600061229382612b2c565b61229d8185612ba2565b93506122ad818560208601612c2e565b6122b681612c61565b840191505092915050565b60006122cc82612b21565b6122d68185612b91565b93506122e6818560208601612c2e565b6122ef81612c61565b840191505092915050565b6000612307601d83612ba2565b91507f5468657265206973206e6f206f66666572206f6e2074686973206461790000006000830152602082019050919050565b6000612347601483612ba2565b91507f507269636520646f6573206e6f74206d617463680000000000000000000000006000830152602082019050919050565b6000612387601d83612ba2565b91507f426174746572792064657461696c7320617265206e6f742065786973740000006000830152602082019050919050565b60006123c7602583612ba2565b91507f6f6e6c792072656769737465726564206261747465726965732068617665206160008301527f63636573730000000000000000000000000000000000000000000000000000006020830152604082019050919050565b600061242d604283612ba2565b91507f57726f6e6720656e6572677920696e70757420726571756972652061206d696e60008301527f696d756d206f66666572206f662031206b57682028312e3030302e3030306d5760208301527f68290000000000000000000000000000000000000000000000000000000000006040830152606082019050919050565b60006124b9601083612ba2565b91507f57726f6e672042617474657279204964000000000000000000000000000000006000830152602082019050919050565b60006124f9600b83612ba2565b91507f57726f6e6720696e6465780000000000000000000000000000000000000000006000830152602082019050919050565b6000612539600883612ba2565b91507f57726f6e672049440000000000000000000000000000000000000000000000006000830152602082019050919050565b6000612579601d83612ba2565b91507f426174746572792064657461696c7320616c72656164792061646465640000006000830152602082019050919050565b60006125b9603483612ba2565b91507f526571756972652061206d696e696d756d2061736b20656e65726779206f662060008301527f31206b57682028312e3030302e3030306d5768290000000000000000000000006020830152604082019050919050565b60c082016000820151612628600085018261212a565b50602082015161263b60208501826127a7565b50604082015161264e6040850182612789565b50606082015161266160608501826127a7565b5060808201516126746080850182612789565b5060a082015161268760a085018261212a565b50505050565b60006080830160008301516126a5600086018261212a565b50602083015184820360208601526126bd82826122c1565b91505060408301516126d26040860182612789565b5060608301516126e56060860182612279565b508091505092915050565b60c082016000820151612706600085018261212a565b506020820151612719602085018261276b565b50604082015161272c6040850182612789565b50606082015161273f6060850182612789565b50608082015161275260808501826127a7565b5060a082015161276560a08501826127a7565b50505050565b61277481612bf1565b82525050565b61278381612bf1565b82525050565b61279281612bfb565b82525050565b6127a181612bfb565b82525050565b6127b081612c0b565b82525050565b6127bf81612c0b565b82525050565b60006060820190506127da6000830186612139565b81810360208301526127ec8185612288565b90506127fb6040830184612798565b949350505050565b60006080820190506128186000830187612139565b6128256020830186612798565b6128326040830185612798565b61283f60608301846127b6565b95945050505050565b600060208201905081810360008301526128628184612148565b905092915050565b6000602082019050818103600083015261288481846121a6565b905092915050565b600060208201905081810360008301526128a6818461221b565b905092915050565b600060208201905081810360008301526128c7816122fa565b9050919050565b600060208201905081810360008301526128e78161233a565b9050919050565b600060208201905081810360008301526129078161237a565b9050919050565b60006020820190508181036000830152612927816123ba565b9050919050565b6000602082019050818103600083015261294781612420565b9050919050565b60006020820190508181036000830152612967816124ac565b9050919050565b60006020820190508181036000830152612987816124ec565b9050919050565b600060208201905081810360008301526129a78161252c565b9050919050565b600060208201905081810360008301526129c78161256c565b9050919050565b600060208201905081810360008301526129e7816125ac565b9050919050565b6000608082019050612a03600083018761277a565b612a106020830186612798565b612a1d6040830185612798565b612a2a60608301846127b6565b95945050505050565b6000604082019050612a486000830185612798565b612a5560208301846127b6565b9392505050565b6000602082019050612a7160008301846127b6565b92915050565b6000604051905081810181811067ffffffffffffffff82111715612a9a57600080fd5b8060405250919050565b600067ffffffffffffffff821115612abb57600080fd5b601f19601f8301169050602081019050919050565b6000819050602082019050919050565b6000819050602082019050919050565b6000819050602082019050919050565b600081519050919050565b600081519050919050565b600081519050919050565b600081519050919050565b600081519050919050565b6000602082019050919050565b6000602082019050919050565b6000602082019050919050565b600082825260208201905092915050565b600082825260208201905092915050565b600082825260208201905092915050565b600082825260208201905092915050565b600082825260208201905092915050565b6000612bbe82612bd1565b9050919050565b60008115159050919050565b600073ffffffffffffffffffffffffffffffffffffffff82169050919050565b6000819050919050565b600063ffffffff82169050919050565b600067ffffffffffffffff82169050919050565b82818337600083830152505050565b60005b83811015612c4c578082015181840152602081019050612c31565b83811115612c5b576000848401525b50505050565b6000601f19601f8301169050919050565b612c7b81612bb3565b8114612c8657600080fd5b50565b612c9281612bf1565b8114612c9d57600080fd5b50565b612ca981612bfb565b8114612cb457600080fd5b50565b612cc081612c0b565b8114612ccb57600080fd5b5056fea365627a7a723158207bdb33b995e930498158c485347b69bb7b2587d5c79fae9cbbbbc76b6a377f8a6c6578706572696d656e74616cf564736f6c63430005100040",
  "source": "pragma solidity >=0.4.21 <0.7.0;\r\npragma experimental ABIEncoderV2;\r\n\r\n/********owned Contract********/\r\n//Create a contract owner\r\ncontract owned {\r\n    \r\n    address owner;\r\n    \r\n    constructor() public {\r\n        owner = msg.sender;\r\n    }\r\n    \r\n    modifier onlyOwner {\r\n        require(msg.sender == owner, \"Only owner can call this function.\");\r\n         _;\r\n    }\r\n}\r\n\r\n/********batteryRegistry Contract********/\r\n//Contract that allows battery address to be registered\r\ncontract batteryRegistry is owned {\r\n\r\n    struct battery {\r\n        address batteryID;            //batteryID is Owner of battery ethereum address\r\n        string nameOfBatteryOwner;    //Name of battery owner \r\n        uint32 date;                  //Creation date\r\n        bool isExist;                 //Check if battery exist into addNewBattery function\r\n    }\r\n\r\n    //mapping address as key to struct battery with mapping name batteries\r\n    mapping (address => battery) batteries;\r\n    battery[] listOfBatteries;\r\n\r\n    modifier onlyRegisteredBattery{\r\n         require(batteries[msg.sender].isExist==true, \"only registered batteries have access\");\r\n         _;\r\n     }\r\n\r\n    //add a battery by eth account address\r\n    function addNewBattery (string memory nameOfBatteryOwner, uint32 date) public {\r\n        require(batteries[msg.sender].isExist==false, \"Battery details already added\");\r\n        batteries[msg.sender] = battery(msg.sender, nameOfBatteryOwner, date, true);\r\n\r\n        listOfBatteries.push(battery({\r\n            batteryID: msg.sender,\r\n            nameOfBatteryOwner: nameOfBatteryOwner,\r\n            date: date,\r\n            isExist: true\r\n            }));\r\n    }\r\n\r\n    //to view all batteries\r\n    function viewAllBatteries () public view returns (battery[] memory) {\r\n        return listOfBatteries;\r\n    }\r\n\r\n    //change details of a battery\r\n    function updateBattery(address batteryID, string memory nameOfBatteryOwner) public onlyRegisteredBattery {\r\n        for(uint i = 0; i<listOfBatteries.length; i++){\r\n            if(listOfBatteries[i].batteryID == batteryID){\r\n                listOfBatteries[i].nameOfBatteryOwner = nameOfBatteryOwner;\r\n                batteries[batteryID].nameOfBatteryOwner = nameOfBatteryOwner;\r\n            }\r\n        }\r\n    }\r\n\r\n    //view single battery by battery id\r\n    function getBatteryByID(address batteryID) public view returns (address, string memory, uint32){\r\n        return (batteries[batteryID].batteryID, batteries[batteryID].nameOfBatteryOwner, batteries[batteryID].date);\r\n    }\r\n}\r\n\r\n/********energyBid Contract********/\r\n//Contract for energy offers from current batteries\r\ncontract energyBid is owned, batteryRegistry {\r\n\r\n    event offerEnergyMade(address indexed sellerBatteryID, uint32 indexed day, uint32 indexed price, uint64 energy);\r\n    event buyEnergyMade(address indexed sellerBatteryID, uint32 indexed day, uint32 price, uint64 energy, address indexed batteryID);\r\n\r\n    uint64 constant mWh = 1;\r\n    uint64 constant Wh = 1000 * mWh;\r\n    uint64 constant kWh = 1000 * Wh;\r\n    uint64 constant MWh = 1000 * kWh;\r\n    uint64 constant GWh = 1000 * MWh;\r\n    uint64 constant TWh = 1000 * GWh;\r\n\r\n    struct bid{\r\n        address sellerBatteryID;    //battery public key\r\n        uint numberOfBid;           //A battery can create more than one energy offer\r\n        uint32 day;                 //day for which the offer is valid\r\n        uint32 price;               //price vs market price\r\n        uint64 energy;              //energy to trade\r\n        uint64 timestamp;           //timestamp for when the bid was created\r\n    }\r\n    \r\n    struct ask {\r\n        address sellerBatteryID;    //battery id from prosumer \r\n        uint64 energy;\r\n        uint32 price;\r\n        uint64 timestamp;\r\n        uint32 day;\r\n        address batteryID;         //battery id from registered battery (consumer)\r\n    }\r\n    \r\n    mapping(address => uint) asks; \r\n    ask[] listOfAsks;\r\n\r\n    mapping(address => mapping(uint32 => mapping(uint=> uint))) bids;\r\n    bid[] listOfBids;\r\n    uint nextNumberOfBid;                                           \r\n\r\n    //create energy offer \r\n    //There is a minimum energy requirement \r\n    //Only registered batteries can use this function\r\n    function energyOffer(uint32 _day, uint32 _price, uint64 _energy, uint64 _timestamp) public onlyRegisteredBattery{\r\n        require(batteries[msg.sender].isExist==true, \"Battery details are not exist\");\r\n        require(_energy >= kWh, \"Wrong energy input require a minimum offer of 1 kWh (1.000.000mWh)\");\r\n        uint index = bids[msg.sender][_day][nextNumberOfBid];\r\n\r\n        index = listOfBids.length;\r\n        bids[msg.sender][_day][nextNumberOfBid] = index;\r\n        listOfBids.push(bid({\r\n            sellerBatteryID: msg.sender,\r\n            numberOfBid: nextNumberOfBid,\r\n            day: _day,\r\n            price: _price,\r\n            energy: _energy,\r\n            timestamp: _timestamp\r\n        }));\r\n        nextNumberOfBid++;\r\n        emit offerEnergyMade(listOfBids[index].sellerBatteryID, listOfBids[index].day, listOfBids[index].price, listOfBids[index].energy);\r\n    }\r\n\r\n    //view all bids \r\n    function viewAllBids () public view returns (bid[] memory){\r\n      return listOfBids;\r\n    }\r\n\r\n    //view single bid by batteryID\r\n    function getBidByBatteryID (address batteryID, uint32 day, uint numberOfBid) public view returns (uint, uint32, uint32, uint64){\r\n        uint index = bids[batteryID][day][numberOfBid];\r\n        require(listOfBids.length > index, \"Wrong index\");\r\n        require(listOfBids[index].day == day, \"There is no offer on this day\");\r\n        require(listOfBids[index].sellerBatteryID == batteryID, \"Wrong ID\");\r\n        return (listOfBids[index].numberOfBid, listOfBids[index].day, listOfBids[index].price, listOfBids[index].energy);\r\n    }\r\n\r\n    //Ask and buy energy \r\n    //There is a minimum energy requirement \r\n    //Only registered batteries can use this function\r\n    function askAndBuyEnergy(address _sellerBatteryID, uint32 _day, uint32 _price, uint64 _energy, uint64 _timestamp, address _batteryID) public onlyRegisteredBattery {\r\n        require(batteries[msg.sender].isExist==true, \"Battery details are not exist\");\r\n        require(_energy >= kWh, \"Require a minimum ask energy of 1 kWh (1.000.000mWh)\");\r\n        uint index = bids[_sellerBatteryID][_day][nextNumberOfBid];\r\n        \r\n        //check if energy offer exist\r\n        if((listOfBids.length > index) && (listOfBids[index].sellerBatteryID == _sellerBatteryID) && (listOfBids[index].day == _day)){\r\n\r\n            require(listOfBids[index].price == _price, \"Price does not match\");\r\n\r\n            //record data from consumer' s choice\r\n            asks[_batteryID] = listOfAsks.length;\r\n            listOfAsks.push(ask({\r\n                sellerBatteryID: _sellerBatteryID,\r\n                price: _price,\r\n                energy: _energy,\r\n                timestamp: _timestamp,\r\n                day:_day,\r\n                batteryID: _batteryID\r\n            }));\r\n            \r\n            emit buyEnergyMade(_sellerBatteryID, _day, _price, _energy, _batteryID);\r\n        } else {\r\n            //if energy offer does not exist then, revert.\r\n            revert();\r\n        }\r\n    }\r\n\r\n    //list of all ask energy requests\r\n    function viewAllAsks () public view returns (ask[] memory){\r\n        return listOfAsks;\r\n    }\r\n\r\n    //view single ask energy request by batteryID\r\n    function getAskByBatteryId (address batteryID) public view returns (address, uint32, uint32, uint64){\r\n        uint indexA = asks[batteryID];\r\n        require(listOfAsks.length > indexA, \"Wrong index\");\r\n        require(listOfAsks[indexA].batteryID == batteryID, \"Wrong Battery Id\");\r\n        return (listOfAsks[indexA].sellerBatteryID, listOfAsks[indexA].day, listOfAsks[indexA].price, listOfAsks[indexA].energy);\r\n        \r\n    }\r\n}",
  "sourcePath": "C:/Users/Lenovo/projects/ethereum/protergia/blockchain-energy-trading-and-green-energy-certification-thesis-w-protergia/src/contracts/Battery.sol",
  "compiler": {
    "name": "solc",
    "version": "0.5.16+commit.9c3226ce.Emscripten.clang"
  },
  "schemaVersion": "3.3.4",
  "updatedAt": "2021-05-21T16:40:53.205Z",
  "devdoc": {
    "methods": {}
  },
  "userdoc": {
    "methods": {},
    "notice": "******energyBid Contract*******"
  }
}