{
  "contractName": "energyBid",
  "abi": [
    {
      "anonymous": false,
      "inputs": [
        {
          "indexed": true,
          "internalType": "address",
          "name": "batteryID",
          "type": "address"
        }
      ],
      "name": "batteryAdded",
      "type": "event"
    },
    {
      "anonymous": false,
      "inputs": [
        {
          "indexed": true,
          "internalType": "address",
          "name": "batteryID",
          "type": "address"
        },
        {
          "indexed": true,
          "internalType": "uint32",
          "name": "day",
          "type": "uint32"
        },
        {
          "indexed": true,
          "internalType": "uint32",
          "name": "price",
          "type": "uint32"
        },
        {
          "indexed": false,
          "internalType": "uint64",
          "name": "energy",
          "type": "uint64"
        }
      ],
      "name": "bidMade",
      "type": "event"
    },
    {
      "constant": false,
      "inputs": [
        {
          "internalType": "address",
          "name": "batteryID",
          "type": "address"
        },
        {
          "internalType": "string",
          "name": "nameOfBatteryOwner",
          "type": "string"
        },
        {
          "internalType": "uint32",
          "name": "date",
          "type": "uint32"
        }
      ],
      "name": "addNewBattery",
      "outputs": [
        {
          "internalType": "bool",
          "name": "",
          "type": "bool"
        }
      ],
      "payable": false,
      "stateMutability": "nonpayable",
      "type": "function"
    },
    {
      "constant": true,
      "inputs": [
        {
          "internalType": "address",
          "name": "",
          "type": "address"
        },
        {
          "internalType": "uint32",
          "name": "",
          "type": "uint32"
        },
        {
          "internalType": "uint256",
          "name": "",
          "type": "uint256"
        }
      ],
      "name": "bids",
      "outputs": [
        {
          "internalType": "uint256",
          "name": "",
          "type": "uint256"
        }
      ],
      "payable": false,
      "stateMutability": "view",
      "type": "function"
    },
    {
      "constant": true,
      "inputs": [
        {
          "internalType": "address",
          "name": "batteryID",
          "type": "address"
        }
      ],
      "name": "getBatteryByID",
      "outputs": [
        {
          "internalType": "address",
          "name": "",
          "type": "address"
        },
        {
          "internalType": "string",
          "name": "",
          "type": "string"
        },
        {
          "internalType": "uint32",
          "name": "",
          "type": "uint32"
        }
      ],
      "payable": false,
      "stateMutability": "view",
      "type": "function"
    },
    {
      "constant": true,
      "inputs": [
        {
          "internalType": "uint256",
          "name": "",
          "type": "uint256"
        }
      ],
      "name": "listOfBatteries",
      "outputs": [
        {
          "internalType": "address",
          "name": "batteryID",
          "type": "address"
        },
        {
          "internalType": "string",
          "name": "nameOfBatteryOwner",
          "type": "string"
        },
        {
          "internalType": "uint32",
          "name": "date",
          "type": "uint32"
        },
        {
          "internalType": "bool",
          "name": "isExist",
          "type": "bool"
        }
      ],
      "payable": false,
      "stateMutability": "view",
      "type": "function"
    },
    {
      "constant": true,
      "inputs": [
        {
          "internalType": "uint256",
          "name": "",
          "type": "uint256"
        }
      ],
      "name": "listOfBids",
      "outputs": [
        {
          "internalType": "address",
          "name": "batteryID",
          "type": "address"
        },
        {
          "internalType": "uint256",
          "name": "numberOfBid",
          "type": "uint256"
        },
        {
          "internalType": "uint32",
          "name": "day",
          "type": "uint32"
        },
        {
          "internalType": "uint32",
          "name": "price",
          "type": "uint32"
        },
        {
          "internalType": "uint64",
          "name": "energy",
          "type": "uint64"
        },
        {
          "internalType": "uint64",
          "name": "timestamp",
          "type": "uint64"
        }
      ],
      "payable": false,
      "stateMutability": "view",
      "type": "function"
    },
    {
      "constant": true,
      "inputs": [],
      "name": "owner",
      "outputs": [
        {
          "internalType": "address",
          "name": "",
          "type": "address"
        }
      ],
      "payable": false,
      "stateMutability": "view",
      "type": "function"
    },
    {
      "constant": false,
      "inputs": [
        {
          "internalType": "address",
          "name": "batteryID",
          "type": "address"
        }
      ],
      "name": "removeBattery",
      "outputs": [],
      "payable": false,
      "stateMutability": "nonpayable",
      "type": "function"
    },
    {
      "constant": false,
      "inputs": [
        {
          "internalType": "address",
          "name": "batteryID",
          "type": "address"
        },
        {
          "internalType": "string",
          "name": "nameOfBatteryOwner",
          "type": "string"
        }
      ],
      "name": "updateBattery",
      "outputs": [],
      "payable": false,
      "stateMutability": "nonpayable",
      "type": "function"
    },
    {
      "constant": true,
      "inputs": [],
      "name": "viewAllBatteries",
      "outputs": [
        {
          "components": [
            {
              "internalType": "address",
              "name": "batteryID",
              "type": "address"
            },
            {
              "internalType": "string",
              "name": "nameOfBatteryOwner",
              "type": "string"
            },
            {
              "internalType": "uint32",
              "name": "date",
              "type": "uint32"
            },
            {
              "internalType": "bool",
              "name": "isExist",
              "type": "bool"
            }
          ],
          "internalType": "struct batteryRegistry.battery[]",
          "name": "",
          "type": "tuple[]"
        }
      ],
      "payable": false,
      "stateMutability": "view",
      "type": "function"
    },
    {
      "constant": false,
      "inputs": [
        {
          "internalType": "uint32",
          "name": "_day",
          "type": "uint32"
        },
        {
          "internalType": "uint32",
          "name": "_price",
          "type": "uint32"
        },
        {
          "internalType": "uint64",
          "name": "_energy",
          "type": "uint64"
        },
        {
          "internalType": "uint64",
          "name": "_timestamp",
          "type": "uint64"
        }
      ],
      "name": "energyOffer",
      "outputs": [],
      "payable": false,
      "stateMutability": "nonpayable",
      "type": "function"
    },
    {
      "constant": true,
      "inputs": [],
      "name": "viewAllBids",
      "outputs": [
        {
          "components": [
            {
              "internalType": "address",
              "name": "batteryID",
              "type": "address"
            },
            {
              "internalType": "uint256",
              "name": "numberOfBid",
              "type": "uint256"
            },
            {
              "internalType": "uint32",
              "name": "day",
              "type": "uint32"
            },
            {
              "internalType": "uint32",
              "name": "price",
              "type": "uint32"
            },
            {
              "internalType": "uint64",
              "name": "energy",
              "type": "uint64"
            },
            {
              "internalType": "uint64",
              "name": "timestamp",
              "type": "uint64"
            }
          ],
          "internalType": "struct energyBid.bid[]",
          "name": "",
          "type": "tuple[]"
        }
      ],
      "payable": false,
      "stateMutability": "view",
      "type": "function"
    },
    {
      "constant": true,
      "inputs": [
        {
          "internalType": "address",
          "name": "batteryID",
          "type": "address"
        },
        {
          "internalType": "uint32",
          "name": "day",
          "type": "uint32"
        },
        {
          "internalType": "uint256",
          "name": "numberOfBid",
          "type": "uint256"
        }
      ],
      "name": "getBidByBatteryID",
      "outputs": [
        {
          "internalType": "uint256",
          "name": "",
          "type": "uint256"
        },
        {
          "internalType": "uint32",
          "name": "",
          "type": "uint32"
        },
        {
          "internalType": "uint32",
          "name": "",
          "type": "uint32"
        },
        {
          "internalType": "uint64",
          "name": "",
          "type": "uint64"
        }
      ],
      "payable": false,
      "stateMutability": "view",
      "type": "function"
    }
  ],
  "bytecode": "0x6080604052336000806101000a81548173ffffffffffffffffffffffffffffffffffffffff021916908373ffffffffffffffffffffffffffffffffffffffff160217905550612622806100536000396000f3fe608060405234801561001057600080fd5b50600436106100b45760003560e01c8063b47c774111610071578063b47c7741146101a9578063bc2d2657146101c7578063c13c7cff146101e3578063c9fb857814610216578063ca89d0d814610248578063eefa716b14610278576100b4565b80631e5b354d146100b95780634b5b289c146100e95780635b4cf93c1461011e5780636729dfe41461013c578063791e1372146101585780638da5cb5b1461018b575b600080fd5b6100d360048036036100ce9190810190611b36565b610294565b6040516100e09190612346565b60405180910390f35b61010360048036036100fe9190810190611b85565b6102c6565b604051610115969594939291906121c6565b60405180910390f35b610126610377565b6040516101339190612249565b60405180910390f35b61015660048036036101519190810190611bae565b6104e6565b005b610172600480360361016d9190810190611b85565b610998565b604051610182949392919061217a565b60405180910390f35b610193610aaa565b6040516101a09190612121565b60405180910390f35b6101b1610acf565b6040516101be9190612227565b60405180910390f35b6101e160048036036101dc9190810190611a52565b610c67565b005b6101fd60048036036101f89190810190611b36565b610e23565b60405161020d9493929190612361565b60405180910390f35b610230600480360361022b9190810190611a52565b6110cc565b60405161023f9392919061213c565b60405180910390f35b610262600480360361025d9190810190611acf565b611273565b60405161026f919061226b565b60405180910390f35b610292600480360361028d9190810190611a7b565b611630565b005b600360205282600052604060002060205281600052604060002060205280600052604060002060009250925050505481565b600481815481106102d357fe5b90600052602060002090600302016000915090508060000160009054906101000a900473ffffffffffffffffffffffffffffffffffffffff16908060010154908060020160009054906101000a900463ffffffff16908060020160049054906101000a900463ffffffff16908060020160089054906101000a900467ffffffffffffffff16908060020160109054906101000a900467ffffffffffffffff16905086565b60606004805480602002602001604051908101604052809291908181526020016000905b828210156104dd57838290600052602060002090600302016040518060c00160405290816000820160009054906101000a900473ffffffffffffffffffffffffffffffffffffffff1673ffffffffffffffffffffffffffffffffffffffff1673ffffffffffffffffffffffffffffffffffffffff168152602001600182015481526020016002820160009054906101000a900463ffffffff1663ffffffff1663ffffffff1681526020016002820160049054906101000a900463ffffffff1663ffffffff1663ffffffff1681526020016002820160089054906101000a900467ffffffffffffffff1667ffffffffffffffff1667ffffffffffffffff1681526020016002820160109054906101000a900467ffffffffffffffff1667ffffffffffffffff1667ffffffffffffffff16815250508152602001906001019061039b565b50505050905090565b6000809054906101000a900473ffffffffffffffffffffffffffffffffffffffff1673ffffffffffffffffffffffffffffffffffffffff163373ffffffffffffffffffffffffffffffffffffffff1614610575576040517f08c379a000000000000000000000000000000000000000000000000000000000815260040161056c90612286565b60405180910390fd5b60016103e8026103e80267ffffffffffffffff168267ffffffffffffffff1610156105d5576040517f08c379a00000000000000000000000000000000000000000000000000000000081526004016105cc906122c6565b60405180910390fd5b6000600360003373ffffffffffffffffffffffffffffffffffffffff1673ffffffffffffffffffffffffffffffffffffffff16815260200190815260200160002060008663ffffffff1663ffffffff16815260200190815260200160002060006005548152602001908152602001600020549050600480549050905080600360003373ffffffffffffffffffffffffffffffffffffffff1673ffffffffffffffffffffffffffffffffffffffff16815260200190815260200160002060008763ffffffff1663ffffffff168152602001908152602001600020600060055481526020019081526020016000208190555060046040518060c001604052803373ffffffffffffffffffffffffffffffffffffffff16815260200160055481526020018763ffffffff1681526020018663ffffffff1681526020018567ffffffffffffffff1681526020018467ffffffffffffffff168152509080600181540180825580915050906001820390600052602060002090600302016000909192909190915060008201518160000160006101000a81548173ffffffffffffffffffffffffffffffffffffffff021916908373ffffffffffffffffffffffffffffffffffffffff1602179055506020820151816001015560408201518160020160006101000a81548163ffffffff021916908363ffffffff16021790555060608201518160020160046101000a81548163ffffffff021916908363ffffffff16021790555060808201518160020160086101000a81548167ffffffffffffffff021916908367ffffffffffffffff16021790555060a08201518160020160106101000a81548167ffffffffffffffff021916908367ffffffffffffffff1602179055505050506004818154811061086457fe5b906000526020600020906003020160020160049054906101000a900463ffffffff1663ffffffff166004828154811061089957fe5b906000526020600020906003020160020160009054906101000a900463ffffffff1663ffffffff16600483815481106108ce57fe5b906000526020600020906003020160000160009054906101000a900473ffffffffffffffffffffffffffffffffffffffff1673ffffffffffffffffffffffffffffffffffffffff167f01ef96291636cdb8173b03b805efc8fccd6ae838f9473500328ae3371763ad376004858154811061094457fe5b906000526020600020906003020160020160089054906101000a900467ffffffffffffffff1660405161097791906123a6565b60405180910390a46005600081548092919060010191905055505050505050565b600281815481106109a557fe5b90600052602060002090600302016000915090508060000160009054906101000a900473ffffffffffffffffffffffffffffffffffffffff1690806001018054600181600116156101000203166002900480601f016020809104026020016040519081016040528092919081815260200182805460018160011615610100020316600290048015610a775780601f10610a4c57610100808354040283529160200191610a77565b820191906000526020600020905b815481529060010190602001808311610a5a57829003601f168201915b5050505050908060020160009054906101000a900463ffffffff16908060020160049054906101000a900460ff16905084565b6000809054906101000a900473ffffffffffffffffffffffffffffffffffffffff1681565b60606002805480602002602001604051908101604052809291908181526020016000905b82821015610c5e57838290600052602060002090600302016040518060800160405290816000820160009054906101000a900473ffffffffffffffffffffffffffffffffffffffff1673ffffffffffffffffffffffffffffffffffffffff1673ffffffffffffffffffffffffffffffffffffffff168152602001600182018054600181600116156101000203166002900480601f016020809104026020016040519081016040528092919081815260200182805460018160011615610100020316600290048015610c055780601f10610bda57610100808354040283529160200191610c05565b820191906000526020600020905b815481529060010190602001808311610be857829003601f168201915b505050505081526020016002820160009054906101000a900463ffffffff1663ffffffff1663ffffffff1681526020016002820160049054906101000a900460ff16151515158152505081526020019060010190610af3565b50505050905090565b6000809054906101000a900473ffffffffffffffffffffffffffffffffffffffff1673ffffffffffffffffffffffffffffffffffffffff163373ffffffffffffffffffffffffffffffffffffffff1614610cf6576040517f08c379a0000000000000000000000000000000000000000000000000000000008152600401610ced90612286565b60405180910390fd5b60008090505b600280549050811015610e1f578173ffffffffffffffffffffffffffffffffffffffff1660028281548110610d2d57fe5b906000526020600020906003020160000160009054906101000a900473ffffffffffffffffffffffffffffffffffffffff1673ffffffffffffffffffffffffffffffffffffffff161415610e125760028181548110610d8857fe5b9060005260206000209060030201600080820160006101000a81549073ffffffffffffffffffffffffffffffffffffffff0219169055600182016000610dce919061178a565b6002820160006101000a81549063ffffffff02191690556002820160046101000a81549060ff021916905550506002805480919060019003610e1091906117d2565b505b8080600101915050610cfc565b5050565b6000806000806000600360008973ffffffffffffffffffffffffffffffffffffffff1673ffffffffffffffffffffffffffffffffffffffff16815260200190815260200160002060008863ffffffff1663ffffffff16815260200190815260200160002060008781526020019081526020016000205490508060048054905011610ee2576040517f08c379a0000000000000000000000000000000000000000000000000000000008152600401610ed9906122e6565b60405180910390fd5b8663ffffffff1660048281548110610ef657fe5b906000526020600020906003020160020160009054906101000a900463ffffffff1663ffffffff1614610f5e576040517f08c379a0000000000000000000000000000000000000000000000000000000008152600401610f55906122a6565b60405180910390fd5b8773ffffffffffffffffffffffffffffffffffffffff1660048281548110610f8257fe5b906000526020600020906003020160000160009054906101000a900473ffffffffffffffffffffffffffffffffffffffff1673ffffffffffffffffffffffffffffffffffffffff161461100a576040517f08c379a000000000000000000000000000000000000000000000000000000000815260040161100190612306565b60405180910390fd5b6004818154811061101757fe5b9060005260206000209060030201600101546004828154811061103657fe5b906000526020600020906003020160020160009054906101000a900463ffffffff166004838154811061106557fe5b906000526020600020906003020160020160049054906101000a900463ffffffff166004848154811061109457fe5b906000526020600020906003020160020160089054906101000a900467ffffffffffffffff1694509450945094505093509350935093565b600060606000600160008573ffffffffffffffffffffffffffffffffffffffff1673ffffffffffffffffffffffffffffffffffffffff16815260200190815260200160002060000160009054906101000a900473ffffffffffffffffffffffffffffffffffffffff16600160008673ffffffffffffffffffffffffffffffffffffffff1673ffffffffffffffffffffffffffffffffffffffff168152602001908152602001600020600101600160008773ffffffffffffffffffffffffffffffffffffffff1673ffffffffffffffffffffffffffffffffffffffff16815260200190815260200160002060020160009054906101000a900463ffffffff16818054600181600116156101000203166002900480601f01602080910402602001604051908101604052809291908181526020018280546001816001161561010002031660029004801561125f5780601f106112345761010080835404028352916020019161125f565b820191906000526020600020905b81548152906001019060200180831161124257829003601f168201915b505050505091509250925092509193909250565b60008060009054906101000a900473ffffffffffffffffffffffffffffffffffffffff1673ffffffffffffffffffffffffffffffffffffffff163373ffffffffffffffffffffffffffffffffffffffff1614611304576040517f08c379a00000000000000000000000000000000000000000000000000000000081526004016112fb90612286565b60405180910390fd5b60001515600160008673ffffffffffffffffffffffffffffffffffffffff1673ffffffffffffffffffffffffffffffffffffffff16815260200190815260200160002060020160049054906101000a900460ff1615151461139a576040517f08c379a000000000000000000000000000000000000000000000000000000000815260040161139190612326565b60405180910390fd5b60405180608001604052808573ffffffffffffffffffffffffffffffffffffffff1681526020018481526020018363ffffffff16815260200160011515815250600160008673ffffffffffffffffffffffffffffffffffffffff1673ffffffffffffffffffffffffffffffffffffffff16815260200190815260200160002060008201518160000160006101000a81548173ffffffffffffffffffffffffffffffffffffffff021916908373ffffffffffffffffffffffffffffffffffffffff160217905550602082015181600101908051906020019061147c929190611804565b5060408201518160020160006101000a81548163ffffffff021916908363ffffffff16021790555060608201518160020160046101000a81548160ff021916908315150217905550905050600260405180608001604052808673ffffffffffffffffffffffffffffffffffffffff1681526020018581526020018463ffffffff168152602001600115158152509080600181540180825580915050906001820390600052602060002090600302016000909192909190915060008201518160000160006101000a81548173ffffffffffffffffffffffffffffffffffffffff021916908373ffffffffffffffffffffffffffffffffffffffff1602179055506020820151816001019080519060200190611597929190611804565b5060408201518160020160006101000a81548163ffffffff021916908363ffffffff16021790555060608201518160020160046101000a81548160ff0219169083151502179055505050508373ffffffffffffffffffffffffffffffffffffffff167fbf313c3ec3b04ed9423550c08a339ad0bc0efc07b4e7c49ddc12969ccf81e5c360405160405180910390a2600190509392505050565b6000809054906101000a900473ffffffffffffffffffffffffffffffffffffffff1673ffffffffffffffffffffffffffffffffffffffff163373ffffffffffffffffffffffffffffffffffffffff16146116bf576040517f08c379a00000000000000000000000000000000000000000000000000000000081526004016116b690612286565b60405180910390fd5b60008090505b600280549050811015611785578273ffffffffffffffffffffffffffffffffffffffff16600282815481106116f657fe5b906000526020600020906003020160000160009054906101000a900473ffffffffffffffffffffffffffffffffffffffff1673ffffffffffffffffffffffffffffffffffffffff16141561177857816002828154811061175257fe5b90600052602060002090600302016001019080519060200190611776929190611884565b505b80806001019150506116c5565b505050565b50805460018160011615610100020316600290046000825580601f106117b057506117cf565b601f0160209004906000526020600020908101906117ce9190611904565b5b50565b8154818355818111156117ff576003028160030283600052602060002091820191016117fe9190611929565b5b505050565b828054600181600116156101000203166002900490600052602060002090601f016020900481019282601f1061184557805160ff1916838001178555611873565b82800160010185558215611873579182015b82811115611872578251825591602001919060010190611857565b5b5090506118809190611904565b5090565b828054600181600116156101000203166002900490600052602060002090601f016020900481019282601f106118c557805160ff19168380011785556118f3565b828001600101855582156118f3579182015b828111156118f25782518255916020019190600101906118d7565b5b5090506119009190611904565b5090565b61192691905b8082111561192257600081600090555060010161190a565b5090565b90565b6119a791905b808211156119a357600080820160006101000a81549073ffffffffffffffffffffffffffffffffffffffff021916905560018201600061196f919061178a565b6002820160006101000a81549063ffffffff02191690556002820160046101000a81549060ff02191690555060030161192f565b5090565b90565b6000813590506119b981612583565b92915050565b600082601f8301126119d057600080fd5b81356119e36119de826123ee565b6123c1565b915080825260208301602083018583830111156119ff57600080fd5b611a0a838284612530565b50505092915050565b600081359050611a228161259a565b92915050565b600081359050611a37816125b1565b92915050565b600081359050611a4c816125c8565b92915050565b600060208284031215611a6457600080fd5b6000611a72848285016119aa565b91505092915050565b60008060408385031215611a8e57600080fd5b6000611a9c858286016119aa565b925050602083013567ffffffffffffffff811115611ab957600080fd5b611ac5858286016119bf565b9150509250929050565b600080600060608486031215611ae457600080fd5b6000611af2868287016119aa565b935050602084013567ffffffffffffffff811115611b0f57600080fd5b611b1b868287016119bf565b9250506040611b2c86828701611a28565b9150509250925092565b600080600060608486031215611b4b57600080fd5b6000611b59868287016119aa565b9350506020611b6a86828701611a28565b9250506040611b7b86828701611a13565b9150509250925092565b600060208284031215611b9757600080fd5b6000611ba584828501611a13565b91505092915050565b60008060008060808587031215611bc457600080fd5b6000611bd287828801611a28565b9450506020611be387828801611a28565b9350506040611bf487828801611a3d565b9250506060611c0587828801611a3d565b91505092959194509250565b6000611c1d8383611fe9565b905092915050565b6000611c31838361204c565b60c08301905092915050565b611c46816124c4565b82525050565b611c55816124c4565b82525050565b6000611c668261243a565b611c708185612480565b935083602082028501611c828561241a565b8060005b85811015611cbe5784840389528151611c9f8582611c11565b9450611caa83612466565b925060208a01995050600181019050611c86565b50829750879550505050505092915050565b6000611cdb82612445565b611ce58185612491565b9350611cf08361242a565b8060005b83811015611d21578151611d088882611c25565b9750611d1383612473565b925050600181019050611cf4565b5085935050505092915050565b611d37816124d6565b82525050565b611d46816124d6565b82525050565b6000611d578261245b565b611d6181856124b3565b9350611d7181856020860161253f565b611d7a81612572565b840191505092915050565b6000611d9082612450565b611d9a81856124a2565b9350611daa81856020860161253f565b611db381612572565b840191505092915050565b6000611dc982612450565b611dd381856124b3565b9350611de381856020860161253f565b611dec81612572565b840191505092915050565b6000611e046022836124b3565b91507f4f6e6c79206f776e65722063616e2063616c6c20746869732066756e6374696f60008301527f6e2e0000000000000000000000000000000000000000000000000000000000006020830152604082019050919050565b6000611e6a601d836124b3565b91507f5468657265206973206e6f206f66666572206f6e2074686973206461790000006000830152602082019050919050565b6000611eaa6042836124b3565b91507f57726f6e6720656e6572677920696e70757420726571756972652061206d696e60008301527f696d756d206f66666572206f662031206b57682028312e3030302e3030306d5760208301527f68290000000000000000000000000000000000000000000000000000000000006040830152606082019050919050565b6000611f36600b836124b3565b91507f57726f6e6720696e6465780000000000000000000000000000000000000000006000830152602082019050919050565b6000611f766010836124b3565b91507f57726f6e672042617474657279204944000000000000000000000000000000006000830152602082019050919050565b6000611fb6601d836124b3565b91507f426174746572792064657461696c7320616c72656164792061646465640000006000830152602082019050919050565b60006080830160008301516120016000860182611c3d565b50602083015184820360208601526120198282611d85565b915050604083015161202e60408601826120e5565b5060608301516120416060860182611d2e565b508091505092915050565b60c0820160008201516120626000850182611c3d565b50602082015161207560208501826120c7565b50604082015161208860408501826120e5565b50606082015161209b60608501826120e5565b5060808201516120ae6080850182612103565b5060a08201516120c160a0850182612103565b50505050565b6120d081612502565b82525050565b6120df81612502565b82525050565b6120ee8161250c565b82525050565b6120fd8161250c565b82525050565b61210c8161251c565b82525050565b61211b8161251c565b82525050565b60006020820190506121366000830184611c4c565b92915050565b60006060820190506121516000830186611c4c565b81810360208301526121638185611d4c565b905061217260408301846120f4565b949350505050565b600060808201905061218f6000830187611c4c565b81810360208301526121a18186611dbe565b90506121b060408301856120f4565b6121bd6060830184611d3d565b95945050505050565b600060c0820190506121db6000830189611c4c565b6121e860208301886120d6565b6121f560408301876120f4565b61220260608301866120f4565b61220f6080830185612112565b61221c60a0830184612112565b979650505050505050565b600060208201905081810360008301526122418184611c5b565b905092915050565b600060208201905081810360008301526122638184611cd0565b905092915050565b60006020820190506122806000830184611d3d565b92915050565b6000602082019050818103600083015261229f81611df7565b9050919050565b600060208201905081810360008301526122bf81611e5d565b9050919050565b600060208201905081810360008301526122df81611e9d565b9050919050565b600060208201905081810360008301526122ff81611f29565b9050919050565b6000602082019050818103600083015261231f81611f69565b9050919050565b6000602082019050818103600083015261233f81611fa9565b9050919050565b600060208201905061235b60008301846120d6565b92915050565b600060808201905061237660008301876120d6565b61238360208301866120f4565b61239060408301856120f4565b61239d6060830184612112565b95945050505050565b60006020820190506123bb6000830184612112565b92915050565b6000604051905081810181811067ffffffffffffffff821117156123e457600080fd5b8060405250919050565b600067ffffffffffffffff82111561240557600080fd5b601f19601f8301169050602081019050919050565b6000819050602082019050919050565b6000819050602082019050919050565b600081519050919050565b600081519050919050565b600081519050919050565b600081519050919050565b6000602082019050919050565b6000602082019050919050565b600082825260208201905092915050565b600082825260208201905092915050565b600082825260208201905092915050565b600082825260208201905092915050565b60006124cf826124e2565b9050919050565b60008115159050919050565b600073ffffffffffffffffffffffffffffffffffffffff82169050919050565b6000819050919050565b600063ffffffff82169050919050565b600067ffffffffffffffff82169050919050565b82818337600083830152505050565b60005b8381101561255d578082015181840152602081019050612542565b8381111561256c576000848401525b50505050565b6000601f19601f8301169050919050565b61258c816124c4565b811461259757600080fd5b50565b6125a381612502565b81146125ae57600080fd5b50565b6125ba8161250c565b81146125c557600080fd5b50565b6125d18161251c565b81146125dc57600080fd5b5056fea365627a7a72315820ffb231f4d185e3875fbc1a31ce523be2365a54dd7c783430c31ffd78cbb53a346c6578706572696d656e74616cf564736f6c63430005100040",
  "source": "pragma solidity >=0.4.21 <0.7.0;\r\npragma experimental ABIEncoderV2;\r\n\r\n/*----------------------------------------owned Contract----------------------------------------*/\r\n//Create a contract owner\r\ncontract owned {\r\n    \r\n    address public owner;\r\n    \r\n    constructor() public {\r\n        owner = msg.sender;\r\n    }\r\n    \r\n    modifier onlyOwner {\r\n        require(msg.sender == owner, \"Only owner can call this function.\");\r\n         _;\r\n    }\r\n}\r\n\r\n/*----------------------------------------batteryRegistry Contract----------------------------------------*/\r\n//Contract that allows battery address to be registered\r\ncontract batteryRegistry is owned {\r\n\r\n    event batteryAdded(address indexed batteryID);\r\n\r\n    struct battery {\r\n        address batteryID;            //batteryID is Owner of battery ethereum address\r\n        string nameOfBatteryOwner;    //Name of battery owner \r\n        uint32 date;                  //Creation date\r\n        bool isExist;                 //Check if battery exist into addNewBattery function\r\n    }\r\n\r\n    //mapping address as key to struct battery with mapping name batteries\r\n    mapping (address => battery) batteries;\r\n    battery[] public listOfBatteries;\r\n\r\n    //add a battery\r\n    function addNewBattery (address batteryID, string memory nameOfBatteryOwner, uint32 date) public onlyOwner returns(bool) {\r\n        require(batteries[batteryID].isExist==false, \"Battery details already added\");\r\n        batteries[batteryID] = battery(batteryID, nameOfBatteryOwner, date, true);\r\n\r\n        listOfBatteries.push(battery({\r\n            batteryID: batteryID,\r\n            nameOfBatteryOwner: nameOfBatteryOwner,\r\n            date: date,\r\n            isExist: true\r\n            }));\r\n        emit batteryAdded(batteryID);\r\n        return true;\r\n    }\r\n\r\n    //to view all batteries\r\n    function viewAllBatteries () public view returns (battery[] memory){\r\n        return listOfBatteries;\r\n    }\r\n\r\n    //change details of a battery\r\n    function updateBattery(address batteryID, string memory nameOfBatteryOwner) public onlyOwner{\r\n        for(uint i = 0; i<listOfBatteries.length; i++){\r\n            if(listOfBatteries[i].batteryID == batteryID){\r\n                listOfBatteries[i].nameOfBatteryOwner = nameOfBatteryOwner;\r\n            }\r\n        }\r\n    }\r\n\r\n    //delete a battery by batteryID\r\n    function removeBattery(address batteryID) public onlyOwner{\r\n        for(uint i = 0; i<listOfBatteries.length; i++){\r\n            if(listOfBatteries[i].batteryID == batteryID){\r\n                delete listOfBatteries[i];\r\n                listOfBatteries.length--;\r\n            }\r\n        }\r\n    }\r\n\r\n    //view single battery by battery id\r\n    function getBatteryByID(address batteryID) public view returns (address, string memory, uint32){\r\n        return (batteries[batteryID].batteryID, batteries[batteryID].nameOfBatteryOwner, batteries[batteryID].date);\r\n    }\r\n}\r\n\r\n/*----------------------------------------energyBid Contract----------------------------------------*/\r\n//Contract for energy offers from current batteries\r\ncontract energyBid is owned, batteryRegistry {\r\n\r\n    event bidMade(address indexed batteryID, uint32 indexed day, uint32 indexed price, uint64 energy);\r\n\r\n    uint64 constant mWh = 1;\r\n    uint64 constant Wh = 1000 * mWh;\r\n    uint64 constant kWh = 1000 * Wh;\r\n    uint64 constant MWh = 1000 * kWh;\r\n    uint64 constant GWh = 1000 * MWh;\r\n    uint64 constant TWh = 1000 * GWh;\r\n\r\n    struct bid{\r\n        address batteryID;    //battery public key\r\n        uint numberOfBid;     //A battery can create more than one energy offer\r\n        uint32 day;           //day for which the offer is valid\r\n        uint32 price;         //price vs market price\r\n        uint64 energy;        //energy to trade\r\n        uint64 timestamp;     //timestamp for when the bid was created\r\n    }\r\n\r\n    mapping(address => mapping(uint32 => mapping(uint=> uint))) public bids;\r\n    bid[] public listOfBids;\r\n    uint nextNumberOfBid;                                              \r\n\r\n    //create energy offer\r\n    function energyOffer(uint32 _day, uint32 _price, uint64 _energy, uint64 _timestamp) public onlyOwner{\r\n        require(_energy >= kWh, \"Wrong energy input require a minimum offer of 1 kWh (1.000.000mWh)\");\r\n        uint index = bids[msg.sender][_day][nextNumberOfBid];\r\n\r\n        index = listOfBids.length;\r\n        bids[msg.sender][_day][nextNumberOfBid] = index;\r\n        listOfBids.push(bid({\r\n            batteryID: msg.sender,\r\n            numberOfBid: nextNumberOfBid,\r\n            day: _day,\r\n            price: _price,\r\n            energy: _energy,\r\n            timestamp: _timestamp\r\n        }));\r\n        emit bidMade(listOfBids[index].batteryID, listOfBids[index].day, listOfBids[index].price, listOfBids[index].energy);\r\n        nextNumberOfBid++;\r\n    }\r\n\r\n    //view all bids \r\n    function viewAllBids () public view returns (bid[] memory){\r\n      return listOfBids;\r\n    }\r\n\r\n    //view single bid by batteryID\r\n    function getBidByBatteryID (address batteryID, uint32 day, uint numberOfBid) public view returns (uint, uint32, uint32, uint64){\r\n        uint index = bids[batteryID][day][numberOfBid];\r\n        require(listOfBids.length > index, \"Wrong index\");\r\n        require(listOfBids[index].day == day, \"There is no offer on this day\");\r\n        require(listOfBids[index].batteryID == batteryID, \"Wrong Battery ID\");\r\n        return (listOfBids[index].numberOfBid, listOfBids[index].day, listOfBids[index].price, listOfBids[index].energy);\r\n        //return (listOfBids[batteryID].day, listOfBids[batteryID].price, listOfBids[batteryID].energy);\r\n    }\r\n}",
  "sourcePath": "C:/Users/Lenovo/projects/ethereum/protergia/blockchain-energy-trading-and-green-energy-certification-thesis-w-protergia/src/contracts/Battery.sol",
  "compiler": {
    "name": "solc",
    "version": "0.5.16+commit.9c3226ce.Emscripten.clang"
  },
  "schemaVersion": "3.3.4",
  "updatedAt": "2021-04-22T12:17:03.168Z",
  "devdoc": {
    "methods": {}
  },
  "userdoc": {
    "methods": {}
  }
}