{
  "contractName": "energyBid",
  "abi": [
    {
      "constant": false,
      "inputs": [
        {
          "internalType": "string",
          "name": "nameOfBatteryOwner",
          "type": "string"
        },
        {
          "internalType": "uint32",
          "name": "date",
          "type": "uint32"
        }
      ],
      "name": "addNewBattery",
      "outputs": [],
      "payable": false,
      "stateMutability": "nonpayable",
      "type": "function"
    },
    {
      "constant": true,
      "inputs": [
        {
          "internalType": "address",
          "name": "",
          "type": "address"
        },
        {
          "internalType": "uint32",
          "name": "",
          "type": "uint32"
        },
        {
          "internalType": "uint256",
          "name": "",
          "type": "uint256"
        }
      ],
      "name": "bids",
      "outputs": [
        {
          "internalType": "uint256",
          "name": "",
          "type": "uint256"
        }
      ],
      "payable": false,
      "stateMutability": "view",
      "type": "function"
    },
    {
      "constant": true,
      "inputs": [
        {
          "internalType": "address",
          "name": "batteryID",
          "type": "address"
        }
      ],
      "name": "getBatteryByID",
      "outputs": [
        {
          "internalType": "address",
          "name": "",
          "type": "address"
        },
        {
          "internalType": "string",
          "name": "",
          "type": "string"
        },
        {
          "internalType": "uint32",
          "name": "",
          "type": "uint32"
        }
      ],
      "payable": false,
      "stateMutability": "view",
      "type": "function"
    },
    {
      "constant": true,
      "inputs": [
        {
          "internalType": "uint256",
          "name": "",
          "type": "uint256"
        }
      ],
      "name": "listOfBids",
      "outputs": [
        {
          "internalType": "address",
          "name": "producerID",
          "type": "address"
        },
        {
          "internalType": "uint256",
          "name": "numberOfBid",
          "type": "uint256"
        },
        {
          "internalType": "uint32",
          "name": "day",
          "type": "uint32"
        },
        {
          "internalType": "uint64",
          "name": "energy",
          "type": "uint64"
        },
        {
          "internalType": "uint64",
          "name": "timestamp",
          "type": "uint64"
        }
      ],
      "payable": false,
      "stateMutability": "view",
      "type": "function"
    },
    {
      "constant": false,
      "inputs": [
        {
          "internalType": "address",
          "name": "batteryID",
          "type": "address"
        },
        {
          "internalType": "string",
          "name": "nameOfBatteryOwner",
          "type": "string"
        }
      ],
      "name": "updateBattery",
      "outputs": [],
      "payable": false,
      "stateMutability": "nonpayable",
      "type": "function"
    },
    {
      "constant": true,
      "inputs": [],
      "name": "viewAllBatteries",
      "outputs": [
        {
          "components": [
            {
              "internalType": "address",
              "name": "batteryID",
              "type": "address"
            },
            {
              "internalType": "string",
              "name": "nameOfBatteryOwner",
              "type": "string"
            },
            {
              "internalType": "uint32",
              "name": "date",
              "type": "uint32"
            },
            {
              "internalType": "bool",
              "name": "isExist",
              "type": "bool"
            }
          ],
          "internalType": "struct batteryRegistry.battery[]",
          "name": "",
          "type": "tuple[]"
        }
      ],
      "payable": false,
      "stateMutability": "view",
      "type": "function"
    },
    {
      "constant": false,
      "inputs": [
        {
          "internalType": "uint32",
          "name": "_day",
          "type": "uint32"
        },
        {
          "internalType": "uint64",
          "name": "_energy",
          "type": "uint64"
        },
        {
          "internalType": "uint64",
          "name": "_timestamp",
          "type": "uint64"
        }
      ],
      "name": "energyOffer",
      "outputs": [],
      "payable": false,
      "stateMutability": "nonpayable",
      "type": "function"
    },
    {
      "constant": true,
      "inputs": [],
      "name": "viewAllBids",
      "outputs": [
        {
          "components": [
            {
              "internalType": "address",
              "name": "producerID",
              "type": "address"
            },
            {
              "internalType": "uint256",
              "name": "numberOfBid",
              "type": "uint256"
            },
            {
              "internalType": "uint32",
              "name": "day",
              "type": "uint32"
            },
            {
              "internalType": "uint64",
              "name": "energy",
              "type": "uint64"
            },
            {
              "internalType": "uint64",
              "name": "timestamp",
              "type": "uint64"
            }
          ],
          "internalType": "struct energyBid.bid[]",
          "name": "",
          "type": "tuple[]"
        }
      ],
      "payable": false,
      "stateMutability": "view",
      "type": "function"
    },
    {
      "constant": true,
      "inputs": [
        {
          "internalType": "address",
          "name": "producerID",
          "type": "address"
        },
        {
          "internalType": "uint32",
          "name": "day",
          "type": "uint32"
        },
        {
          "internalType": "uint256",
          "name": "numberOfBid",
          "type": "uint256"
        }
      ],
      "name": "getBidByBatteryID",
      "outputs": [
        {
          "internalType": "uint256",
          "name": "",
          "type": "uint256"
        },
        {
          "internalType": "uint32",
          "name": "",
          "type": "uint32"
        },
        {
          "internalType": "uint64",
          "name": "",
          "type": "uint64"
        }
      ],
      "payable": false,
      "stateMutability": "view",
      "type": "function"
    },
    {
      "constant": false,
      "inputs": [
        {
          "internalType": "uint32",
          "name": "_day",
          "type": "uint32"
        },
        {
          "internalType": "uint64",
          "name": "_energy",
          "type": "uint64"
        },
        {
          "internalType": "uint64",
          "name": "_timestamp",
          "type": "uint64"
        }
      ],
      "name": "askEnergy",
      "outputs": [],
      "payable": false,
      "stateMutability": "nonpayable",
      "type": "function"
    },
    {
      "constant": false,
      "inputs": [
        {
          "components": [
            {
              "internalType": "address",
              "name": "consumerID",
              "type": "address"
            },
            {
              "internalType": "uint64",
              "name": "energy",
              "type": "uint64"
            },
            {
              "internalType": "uint64",
              "name": "timestamp",
              "type": "uint64"
            },
            {
              "internalType": "uint32",
              "name": "day",
              "type": "uint32"
            }
          ],
          "internalType": "struct energyBid.ask",
          "name": "_ask",
          "type": "tuple"
        }
      ],
      "name": "energyTrading",
      "outputs": [],
      "payable": false,
      "stateMutability": "nonpayable",
      "type": "function"
    },
    {
      "constant": true,
      "inputs": [],
      "name": "viewAllAsks",
      "outputs": [
        {
          "components": [
            {
              "internalType": "address",
              "name": "consumerID",
              "type": "address"
            },
            {
              "internalType": "uint64",
              "name": "energy",
              "type": "uint64"
            },
            {
              "internalType": "uint64",
              "name": "timestamp",
              "type": "uint64"
            },
            {
              "internalType": "uint32",
              "name": "day",
              "type": "uint32"
            }
          ],
          "internalType": "struct energyBid.ask[]",
          "name": "",
          "type": "tuple[]"
        }
      ],
      "payable": false,
      "stateMutability": "view",
      "type": "function"
    },
    {
      "constant": true,
      "inputs": [
        {
          "internalType": "address",
          "name": "_consumerID",
          "type": "address"
        }
      ],
      "name": "getAskByBatteryId",
      "outputs": [
        {
          "internalType": "address",
          "name": "",
          "type": "address"
        },
        {
          "internalType": "uint32",
          "name": "",
          "type": "uint32"
        },
        {
          "internalType": "uint64",
          "name": "",
          "type": "uint64"
        }
      ],
      "payable": false,
      "stateMutability": "view",
      "type": "function"
    }
  ],
  "bytecode": "0x6080604052336000806101000a81548173ffffffffffffffffffffffffffffffffffffffff021916908373ffffffffffffffffffffffffffffffffffffffff160217905550613285806100536000396000f3fe608060405234801561001057600080fd5b50600436106100cf5760003560e01c806387bdb2061161008c578063b807615111610066578063b807615114610218578063c13c7cff14610234578063c9fb857814610266578063eefa716b14610298576100cf565b806387bdb206146101c05780638b4a3c12146101de578063b47c7741146101fa576100cf565b80631e5b354d146100d45780634b5b289c146101045780634f421756146101385780635b4cf93c1461015457806362e9a4301461017257806386b6c85a146101a4575b600080fd5b6100ee60048036036100e99190810190612687565b6102b4565b6040516100fb9190612f99565b60405180910390f35b61011e60048036036101199190810190612753565b6102e6565b60405161012f959493929190612dc9565b60405180910390f35b610152600480360361014d919081019061272a565b610381565b005b61015c610e05565b6040516101699190612e97565b60405180910390f35b61018c6004803603610187919081019061260a565b610f4e565b60405161019b93929190612e1c565b60405180910390f35b6101be60048036036101b991908101906126d6565b611138565b005b6101c861141a565b6040516101d59190612e53565b60405180910390f35b6101f860048036036101f3919081019061277c565b611559565b005b610202611832565b60405161020f9190612e75565b60405180910390f35b610232600480360361022d919081019061277c565b6119ca565b005b61024e60048036036102499190810190612687565b611d27565b60405161025d93929190612fb4565b60405180910390f35b610280600480360361027b919081019061260a565b611f9d565b60405161028f93929190612d8b565b60405180910390f35b6102b260048036036102ad9190810190612633565b612144565b005b600660205282600052604060002060205281600052604060002060205280600052604060002060009250925050505481565b600781815481106102f357fe5b90600052602060002090600302016000915090508060000160009054906101000a900473ffffffffffffffffffffffffffffffffffffffff16908060010154908060020160009054906101000a900463ffffffff16908060020160049054906101000a900467ffffffffffffffff169080600201600c9054906101000a900467ffffffffffffffff16905085565b60011515600160003373ffffffffffffffffffffffffffffffffffffffff1673ffffffffffffffffffffffffffffffffffffffff16815260200190815260200160002060020160049054906101000a900460ff16151514610417576040517f08c379a000000000000000000000000000000000000000000000000000000000815260040161040e90612f39565b60405180910390fd5b60008090505b600780549050811015610e0157600082602001519050826020015167ffffffffffffffff166007838154811061044f57fe5b906000526020600020906003020160020160049054906101000a900467ffffffffffffffff1667ffffffffffffffff1610156108065782602001516007838154811061049757fe5b906000526020600020906003020160020160049054906101000a900467ffffffffffffffff1603600783815481106104cb57fe5b906000526020600020906003020160020160046101000a81548167ffffffffffffffff021916908367ffffffffffffffff16021790555082602001518103836020019067ffffffffffffffff16908167ffffffffffffffff1681525050600560405180608001604052803373ffffffffffffffffffffffffffffffffffffffff168152602001856020015167ffffffffffffffff168152602001856040015167ffffffffffffffff168152602001856060015163ffffffff168152509080600181540180825580915050906001820390600052602060002090600202016000909192909190915060008201518160000160006101000a81548173ffffffffffffffffffffffffffffffffffffffff021916908373ffffffffffffffffffffffffffffffffffffffff16021790555060208201518160000160146101000a81548167ffffffffffffffff021916908367ffffffffffffffff16021790555060408201518160010160006101000a81548167ffffffffffffffff021916908367ffffffffffffffff16021790555060608201518160010160086101000a81548163ffffffff021916908363ffffffff1602179055505050506007600183018154811061069157fe5b9060005260206000209060030201600783815481106106ac57fe5b90600052602060002090600302016000820160009054906101000a900473ffffffffffffffffffffffffffffffffffffffff168160000160006101000a81548173ffffffffffffffffffffffffffffffffffffffff021916908373ffffffffffffffffffffffffffffffffffffffff160217905550600182015481600101556002820160009054906101000a900463ffffffff168160020160006101000a81548163ffffffff021916908363ffffffff1602179055506002820160049054906101000a900467ffffffffffffffff168160020160046101000a81548167ffffffffffffffff021916908367ffffffffffffffff16021790555060028201600c9054906101000a900467ffffffffffffffff1681600201600c6101000a81548167ffffffffffffffff021916908367ffffffffffffffff160217905550905050600780548091906001900361080091906122fc565b50610dd7565b826020015167ffffffffffffffff166007838154811061082257fe5b906000526020600020906003020160020160049054906101000a900467ffffffffffffffff1667ffffffffffffffff161415610bd95782602001516007838154811061086a57fe5b906000526020600020906003020160020160049054906101000a900467ffffffffffffffff16036007838154811061089e57fe5b906000526020600020906003020160020160046101000a81548167ffffffffffffffff021916908367ffffffffffffffff16021790555082602001518103836020019067ffffffffffffffff16908167ffffffffffffffff1681525050600560405180608001604052803373ffffffffffffffffffffffffffffffffffffffff168152602001856020015167ffffffffffffffff168152602001856040015167ffffffffffffffff168152602001856060015163ffffffff168152509080600181540180825580915050906001820390600052602060002090600202016000909192909190915060008201518160000160006101000a81548173ffffffffffffffffffffffffffffffffffffffff021916908373ffffffffffffffffffffffffffffffffffffffff16021790555060208201518160000160146101000a81548167ffffffffffffffff021916908367ffffffffffffffff16021790555060408201518160010160006101000a81548167ffffffffffffffff021916908367ffffffffffffffff16021790555060608201518160010160086101000a81548163ffffffff021916908363ffffffff16021790555050505060076001830181548110610a6457fe5b906000526020600020906003020160078381548110610a7f57fe5b90600052602060002090600302016000820160009054906101000a900473ffffffffffffffffffffffffffffffffffffffff168160000160006101000a81548173ffffffffffffffffffffffffffffffffffffffff021916908373ffffffffffffffffffffffffffffffffffffffff160217905550600182015481600101556002820160009054906101000a900463ffffffff168160020160006101000a81548163ffffffff021916908363ffffffff1602179055506002820160049054906101000a900467ffffffffffffffff168160020160046101000a81548167ffffffffffffffff021916908367ffffffffffffffff16021790555060028201600c9054906101000a900467ffffffffffffffff1681600201600c6101000a81548167ffffffffffffffff021916908367ffffffffffffffff1602179055509050506007805480919060019003610bd391906122fc565b50610dd6565b826020015160078381548110610beb57fe5b906000526020600020906003020160020160049054906101000a900467ffffffffffffffff160360078381548110610c1f57fe5b906000526020600020906003020160020160046101000a81548167ffffffffffffffff021916908367ffffffffffffffff16021790555082602001518103836020019067ffffffffffffffff16908167ffffffffffffffff1681525050600560405180608001604052803373ffffffffffffffffffffffffffffffffffffffff168152602001856020015167ffffffffffffffff168152602001856040015167ffffffffffffffff168152602001856060015163ffffffff168152509080600181540180825580915050906001820390600052602060002090600202016000909192909190915060008201518160000160006101000a81548173ffffffffffffffffffffffffffffffffffffffff021916908373ffffffffffffffffffffffffffffffffffffffff16021790555060208201518160000160146101000a81548167ffffffffffffffff021916908367ffffffffffffffff16021790555060408201518160010160006101000a81548167ffffffffffffffff021916908367ffffffffffffffff16021790555060608201518160010160086101000a81548163ffffffff021916908363ffffffff1602179055505050505b5b6000836020015167ffffffffffffffff161415610df357600080fd5b50808060010191505061041d565b5050565b60606007805480602002602001604051908101604052809291908181526020016000905b82821015610f4557838290600052602060002090600302016040518060a00160405290816000820160009054906101000a900473ffffffffffffffffffffffffffffffffffffffff1673ffffffffffffffffffffffffffffffffffffffff1673ffffffffffffffffffffffffffffffffffffffff168152602001600182015481526020016002820160009054906101000a900463ffffffff1663ffffffff1663ffffffff1681526020016002820160049054906101000a900467ffffffffffffffff1667ffffffffffffffff1667ffffffffffffffff16815260200160028201600c9054906101000a900467ffffffffffffffff1667ffffffffffffffff1667ffffffffffffffff168152505081526020019060010190610e29565b50505050905090565b600080600080600360008673ffffffffffffffffffffffffffffffffffffffff1673ffffffffffffffffffffffffffffffffffffffff1681526020019081526020016000205490508060048054905011610fdd576040517f08c379a0000000000000000000000000000000000000000000000000000000008152600401610fd490612f19565b60405180910390fd5b8473ffffffffffffffffffffffffffffffffffffffff166004828154811061100157fe5b906000526020600020906002020160000160009054906101000a900473ffffffffffffffffffffffffffffffffffffffff1673ffffffffffffffffffffffffffffffffffffffff1614611089576040517f08c379a000000000000000000000000000000000000000000000000000000000815260040161108090612ef9565b60405180910390fd5b6004818154811061109657fe5b906000526020600020906002020160000160009054906101000a900473ffffffffffffffffffffffffffffffffffffffff16600482815481106110d557fe5b906000526020600020906002020160010160089054906101000a900463ffffffff166004838154811061110457fe5b906000526020600020906002020160000160149054906101000a900467ffffffffffffffff16935093509350509193909250565b60001515600160003373ffffffffffffffffffffffffffffffffffffffff1673ffffffffffffffffffffffffffffffffffffffff16815260200190815260200160002060020160049054906101000a900460ff161515146111ce576040517f08c379a00000000000000000000000000000000000000000000000000000000081526004016111c590612f79565b60405180910390fd5b60405180608001604052803373ffffffffffffffffffffffffffffffffffffffff1681526020018381526020018263ffffffff16815260200160011515815250600160003373ffffffffffffffffffffffffffffffffffffffff1673ffffffffffffffffffffffffffffffffffffffff16815260200190815260200160002060008201518160000160006101000a81548173ffffffffffffffffffffffffffffffffffffffff021916908373ffffffffffffffffffffffffffffffffffffffff16021790555060208201518160010190805190602001906112b092919061232e565b5060408201518160020160006101000a81548163ffffffff021916908363ffffffff16021790555060608201518160020160046101000a81548160ff021916908315150217905550905050600260405180608001604052803373ffffffffffffffffffffffffffffffffffffffff1681526020018481526020018363ffffffff168152602001600115158152509080600181540180825580915050906001820390600052602060002090600302016000909192909190915060008201518160000160006101000a81548173ffffffffffffffffffffffffffffffffffffffff021916908373ffffffffffffffffffffffffffffffffffffffff16021790555060208201518160010190805190602001906113cb92919061232e565b5060408201518160020160006101000a81548163ffffffff021916908363ffffffff16021790555060608201518160020160046101000a81548160ff0219169083151502179055505050505050565b60606004805480602002602001604051908101604052809291908181526020016000905b8282101561155057838290600052602060002090600202016040518060800160405290816000820160009054906101000a900473ffffffffffffffffffffffffffffffffffffffff1673ffffffffffffffffffffffffffffffffffffffff1673ffffffffffffffffffffffffffffffffffffffff1681526020016000820160149054906101000a900467ffffffffffffffff1667ffffffffffffffff1667ffffffffffffffff1681526020016001820160009054906101000a900467ffffffffffffffff1667ffffffffffffffff1667ffffffffffffffff1681526020016001820160089054906101000a900463ffffffff1663ffffffff1663ffffffff16815250508152602001906001019061143e565b50505050905090565b60011515600160003373ffffffffffffffffffffffffffffffffffffffff1673ffffffffffffffffffffffffffffffffffffffff16815260200190815260200160002060020160049054906101000a900460ff161515146115ef576040517f08c379a00000000000000000000000000000000000000000000000000000000081526004016115e690612f39565b60405180910390fd5b60016103e8026103e80267ffffffffffffffff168267ffffffffffffffff16101561164f576040517f08c379a000000000000000000000000000000000000000000000000000000000815260040161164690612ed9565b60405180910390fd5b6000600360003373ffffffffffffffffffffffffffffffffffffffff1673ffffffffffffffffffffffffffffffffffffffff168152602001908152602001600020549050600480549050905080600360003373ffffffffffffffffffffffffffffffffffffffff1673ffffffffffffffffffffffffffffffffffffffff16815260200190815260200160002081905550600460405180608001604052803373ffffffffffffffffffffffffffffffffffffffff1681526020018567ffffffffffffffff1681526020018467ffffffffffffffff1681526020018663ffffffff168152509080600181540180825580915050906001820390600052602060002090600202016000909192909190915060008201518160000160006101000a81548173ffffffffffffffffffffffffffffffffffffffff021916908373ffffffffffffffffffffffffffffffffffffffff16021790555060208201518160000160146101000a81548167ffffffffffffffff021916908367ffffffffffffffff16021790555060408201518160010160006101000a81548167ffffffffffffffff021916908367ffffffffffffffff16021790555060608201518160010160086101000a81548163ffffffff021916908363ffffffff16021790555050505050505050565b60606002805480602002602001604051908101604052809291908181526020016000905b828210156119c157838290600052602060002090600302016040518060800160405290816000820160009054906101000a900473ffffffffffffffffffffffffffffffffffffffff1673ffffffffffffffffffffffffffffffffffffffff1673ffffffffffffffffffffffffffffffffffffffff168152602001600182018054600181600116156101000203166002900480601f0160208091040260200160405190810160405280929190818152602001828054600181600116156101000203166002900480156119685780601f1061193d57610100808354040283529160200191611968565b820191906000526020600020905b81548152906001019060200180831161194b57829003601f168201915b505050505081526020016002820160009054906101000a900463ffffffff1663ffffffff1663ffffffff1681526020016002820160049054906101000a900460ff16151515158152505081526020019060010190611856565b50505050905090565b60011515600160003373ffffffffffffffffffffffffffffffffffffffff1673ffffffffffffffffffffffffffffffffffffffff16815260200190815260200160002060020160049054906101000a900460ff16151514611a60576040517f08c379a0000000000000000000000000000000000000000000000000000000008152600401611a5790612f39565b60405180910390fd5b60016103e8026103e80267ffffffffffffffff168267ffffffffffffffff161015611ac0576040517f08c379a0000000000000000000000000000000000000000000000000000000008152600401611ab790612ed9565b60405180910390fd5b6000600660003373ffffffffffffffffffffffffffffffffffffffff1673ffffffffffffffffffffffffffffffffffffffff16815260200190815260200160002060008563ffffffff1663ffffffff16815260200190815260200160002060006008548152602001908152602001600020549050600780549050905080600660003373ffffffffffffffffffffffffffffffffffffffff1673ffffffffffffffffffffffffffffffffffffffff16815260200190815260200160002060008663ffffffff1663ffffffff168152602001908152602001600020600060085481526020019081526020016000208190555060076040518060a001604052803373ffffffffffffffffffffffffffffffffffffffff16815260200160085481526020018663ffffffff1681526020018567ffffffffffffffff1681526020018467ffffffffffffffff168152509080600181540180825580915050906001820390600052602060002090600302016000909192909190915060008201518160000160006101000a81548173ffffffffffffffffffffffffffffffffffffffff021916908373ffffffffffffffffffffffffffffffffffffffff1602179055506020820151816001015560408201518160020160006101000a81548163ffffffff021916908363ffffffff16021790555060608201518160020160046101000a81548167ffffffffffffffff021916908367ffffffffffffffff160217905550608082015181600201600c6101000a81548167ffffffffffffffff021916908367ffffffffffffffff16021790555050505060086000815480929190600101919050555050505050565b600080600080600660008873ffffffffffffffffffffffffffffffffffffffff1673ffffffffffffffffffffffffffffffffffffffff16815260200190815260200160002060008763ffffffff1663ffffffff16815260200190815260200160002060008681526020019081526020016000205490508060078054905011611de4576040517f08c379a0000000000000000000000000000000000000000000000000000000008152600401611ddb90612f19565b60405180910390fd5b8563ffffffff1660078281548110611df857fe5b906000526020600020906003020160020160009054906101000a900463ffffffff1663ffffffff1614611e60576040517f08c379a0000000000000000000000000000000000000000000000000000000008152600401611e5790612eb9565b60405180910390fd5b8673ffffffffffffffffffffffffffffffffffffffff1660078281548110611e8457fe5b906000526020600020906003020160000160009054906101000a900473ffffffffffffffffffffffffffffffffffffffff1673ffffffffffffffffffffffffffffffffffffffff1614611f0c576040517f08c379a0000000000000000000000000000000000000000000000000000000008152600401611f0390612f59565b60405180910390fd5b60078181548110611f1957fe5b90600052602060002090600302016001015460078281548110611f3857fe5b906000526020600020906003020160020160009054906101000a900463ffffffff1660078381548110611f6757fe5b906000526020600020906003020160020160049054906101000a900467ffffffffffffffff169350935093505093509350939050565b600060606000600160008573ffffffffffffffffffffffffffffffffffffffff1673ffffffffffffffffffffffffffffffffffffffff16815260200190815260200160002060000160009054906101000a900473ffffffffffffffffffffffffffffffffffffffff16600160008673ffffffffffffffffffffffffffffffffffffffff1673ffffffffffffffffffffffffffffffffffffffff168152602001908152602001600020600101600160008773ffffffffffffffffffffffffffffffffffffffff1673ffffffffffffffffffffffffffffffffffffffff16815260200190815260200160002060020160009054906101000a900463ffffffff16818054600181600116156101000203166002900480601f0160208091040260200160405190810160405280929190818152602001828054600181600116156101000203166002900480156121305780601f1061210557610100808354040283529160200191612130565b820191906000526020600020905b81548152906001019060200180831161211357829003601f168201915b505050505091509250925092509193909250565b60011515600160003373ffffffffffffffffffffffffffffffffffffffff1673ffffffffffffffffffffffffffffffffffffffff16815260200190815260200160002060020160049054906101000a900460ff161515146121da576040517f08c379a00000000000000000000000000000000000000000000000000000000081526004016121d190612f39565b60405180910390fd5b60008090505b6002805490508110156122f7578273ffffffffffffffffffffffffffffffffffffffff166002828154811061221157fe5b906000526020600020906003020160000160009054906101000a900473ffffffffffffffffffffffffffffffffffffffff1673ffffffffffffffffffffffffffffffffffffffff1614156122ea57816002828154811061226d57fe5b906000526020600020906003020160010190805190602001906122919291906123ae565b5081600160008573ffffffffffffffffffffffffffffffffffffffff1673ffffffffffffffffffffffffffffffffffffffff16815260200190815260200160002060010190805190602001906122e89291906123ae565b505b80806001019150506121e0565b505050565b81548183558181111561232957600302816003028360005260206000209182019101612328919061242e565b5b505050565b828054600181600116156101000203166002900490600052602060002090601f016020900481019282601f1061236f57805160ff191683800117855561239d565b8280016001018555821561239d579182015b8281111561239c578251825591602001919060010190612381565b5b5090506123aa91906124c9565b5090565b828054600181600116156101000203166002900490600052602060002090601f016020900481019282601f106123ef57805160ff191683800117855561241d565b8280016001018555821561241d579182015b8281111561241c578251825591602001919060010190612401565b5b50905061242a91906124c9565b5090565b6124c691905b808211156124c257600080820160006101000a81549073ffffffffffffffffffffffffffffffffffffffff021916905560018201600090556002820160006101000a81549063ffffffff02191690556002820160046101000a81549067ffffffffffffffff021916905560028201600c6101000a81549067ffffffffffffffff021916905550600301612434565b5090565b90565b6124eb91905b808211156124e75760008160009055506001016124cf565b5090565b90565b6000813590506124fd816131e6565b92915050565b600082601f83011261251457600080fd5b813561252761252282613018565b612feb565b9150808252602083016020830185838301111561254357600080fd5b61254e838284613193565b50505092915050565b60006080828403121561256957600080fd5b6125736080612feb565b90506000612583848285016124ee565b6000830152506020612597848285016125f5565b60208301525060406125ab848285016125f5565b60408301525060606125bf848285016125e0565b60608301525092915050565b6000813590506125da816131fd565b92915050565b6000813590506125ef81613214565b92915050565b6000813590506126048161322b565b92915050565b60006020828403121561261c57600080fd5b600061262a848285016124ee565b91505092915050565b6000806040838503121561264657600080fd5b6000612654858286016124ee565b925050602083013567ffffffffffffffff81111561267157600080fd5b61267d85828601612503565b9150509250929050565b60008060006060848603121561269c57600080fd5b60006126aa868287016124ee565b93505060206126bb868287016125e0565b92505060406126cc868287016125cb565b9150509250925092565b600080604083850312156126e957600080fd5b600083013567ffffffffffffffff81111561270357600080fd5b61270f85828601612503565b9250506020612720858286016125e0565b9150509250929050565b60006080828403121561273c57600080fd5b600061274a84828501612557565b91505092915050565b60006020828403121561276557600080fd5b6000612773848285016125cb565b91505092915050565b60008060006060848603121561279157600080fd5b600061279f868287016125e0565b93505060206127b0868287016125f5565b92505060406127c1868287016125f5565b9150509250925092565b60006127d78383612c11565b60808301905092915050565b60006127ef8383612c66565b905092915050565b60006128038383612cc9565b60a08301905092915050565b61281881613127565b82525050565b61282781613127565b82525050565b600061283882613074565b61284281856130d2565b935061284d83613044565b8060005b8381101561287e57815161286588826127cb565b9750612870836130ab565b925050600181019050612851565b5085935050505092915050565b60006128968261307f565b6128a081856130e3565b9350836020820285016128b285613054565b8060005b858110156128ee57848403895281516128cf85826127e3565b94506128da836130b8565b925060208a019950506001810190506128b6565b50829750879550505050505092915050565b600061290b8261308a565b61291581856130f4565b935061292083613064565b8060005b8381101561295157815161293888826127f7565b9750612943836130c5565b925050600181019050612924565b5085935050505092915050565b61296781613139565b82525050565b6000612978826130a0565b6129828185613116565b93506129928185602086016131a2565b61299b816131d5565b840191505092915050565b60006129b182613095565b6129bb8185613105565b93506129cb8185602086016131a2565b6129d4816131d5565b840191505092915050565b60006129ec601d83613116565b91507f5468657265206973206e6f206f66666572206f6e2074686973206461790000006000830152602082019050919050565b6000612a2c604283613116565b91507f57726f6e6720656e6572677920696e70757420726571756972652061206d696e60008301527f696d756d206f66666572206f662031206b57682028312e3030302e3030306d5760208301527f68290000000000000000000000000000000000000000000000000000000000006040830152606082019050919050565b6000612ab8601083613116565b91507f57726f6e672042617474657279204964000000000000000000000000000000006000830152602082019050919050565b6000612af8600b83613116565b91507f57726f6e6720696e6465780000000000000000000000000000000000000000006000830152602082019050919050565b6000612b38602583613116565b91507f4f6e6c792072656769737465726564206261747465726965732068617665206160008301527f63636573730000000000000000000000000000000000000000000000000000006020830152604082019050919050565b6000612b9e600883613116565b91507f57726f6e672049440000000000000000000000000000000000000000000000006000830152602082019050919050565b6000612bde601d83613116565b91507f426174746572792064657461696c7320616c72656164792061646465640000006000830152602082019050919050565b608082016000820151612c27600085018261280f565b506020820151612c3a6020850182612d6d565b506040820151612c4d6040850182612d6d565b506060820151612c606060850182612d4f565b50505050565b6000608083016000830151612c7e600086018261280f565b5060208301518482036020860152612c9682826129a6565b9150506040830151612cab6040860182612d4f565b506060830151612cbe606086018261295e565b508091505092915050565b60a082016000820151612cdf600085018261280f565b506020820151612cf26020850182612d31565b506040820151612d056040850182612d4f565b506060820151612d186060850182612d6d565b506080820151612d2b6080850182612d6d565b50505050565b612d3a81613165565b82525050565b612d4981613165565b82525050565b612d588161316f565b82525050565b612d678161316f565b82525050565b612d768161317f565b82525050565b612d858161317f565b82525050565b6000606082019050612da0600083018661281e565b8181036020830152612db2818561296d565b9050612dc16040830184612d5e565b949350505050565b600060a082019050612dde600083018861281e565b612deb6020830187612d40565b612df86040830186612d5e565b612e056060830185612d7c565b612e126080830184612d7c565b9695505050505050565b6000606082019050612e31600083018661281e565b612e3e6020830185612d5e565b612e4b6040830184612d7c565b949350505050565b60006020820190508181036000830152612e6d818461282d565b905092915050565b60006020820190508181036000830152612e8f818461288b565b905092915050565b60006020820190508181036000830152612eb18184612900565b905092915050565b60006020820190508181036000830152612ed2816129df565b9050919050565b60006020820190508181036000830152612ef281612a1f565b9050919050565b60006020820190508181036000830152612f1281612aab565b9050919050565b60006020820190508181036000830152612f3281612aeb565b9050919050565b60006020820190508181036000830152612f5281612b2b565b9050919050565b60006020820190508181036000830152612f7281612b91565b9050919050565b60006020820190508181036000830152612f9281612bd1565b9050919050565b6000602082019050612fae6000830184612d40565b92915050565b6000606082019050612fc96000830186612d40565b612fd66020830185612d5e565b612fe36040830184612d7c565b949350505050565b6000604051905081810181811067ffffffffffffffff8211171561300e57600080fd5b8060405250919050565b600067ffffffffffffffff82111561302f57600080fd5b601f19601f8301169050602081019050919050565b6000819050602082019050919050565b6000819050602082019050919050565b6000819050602082019050919050565b600081519050919050565b600081519050919050565b600081519050919050565b600081519050919050565b600081519050919050565b6000602082019050919050565b6000602082019050919050565b6000602082019050919050565b600082825260208201905092915050565b600082825260208201905092915050565b600082825260208201905092915050565b600082825260208201905092915050565b600082825260208201905092915050565b600061313282613145565b9050919050565b60008115159050919050565b600073ffffffffffffffffffffffffffffffffffffffff82169050919050565b6000819050919050565b600063ffffffff82169050919050565b600067ffffffffffffffff82169050919050565b82818337600083830152505050565b60005b838110156131c05780820151818401526020810190506131a5565b838111156131cf576000848401525b50505050565b6000601f19601f8301169050919050565b6131ef81613127565b81146131fa57600080fd5b50565b61320681613165565b811461321157600080fd5b50565b61321d8161316f565b811461322857600080fd5b50565b6132348161317f565b811461323f57600080fd5b5056fea365627a7a723158200f4175d804f92b1760d3acf92f85ffee3bc2efd63dcc8794d0daacef673099c46c6578706572696d656e74616cf564736f6c63430005100040",
  "source": "pragma solidity >=0.4.21 <0.7.0;\r\npragma experimental ABIEncoderV2;\r\n\r\n/********owned Contract********/\r\n//Create a contract owner\r\ncontract owned {\r\n    \r\n    address owner;\r\n    \r\n    constructor() public {\r\n        owner = msg.sender;\r\n    }\r\n    \r\n    modifier onlyOwner {\r\n        require(msg.sender == owner, \"Only owner can call this function.\");\r\n         _;\r\n    }\r\n}\r\n\r\n/********batteryRegistry Contract********/\r\n//Contract that allows battery address to be registered\r\ncontract batteryRegistry is owned {\r\n\r\n    struct battery {\r\n        address batteryID;            //batteryID is Owner of battery ethereum address\r\n        string nameOfBatteryOwner;    //Name of battery owner \r\n        uint32 date;                  //Creation date\r\n        bool isExist;                 //Check if battery exist into addNewBattery function\r\n    }\r\n\r\n    //mapping address as key to struct battery with mapping name batteries\r\n    mapping (address => battery) batteries;\r\n    battery[] listOfBatteries;\r\n\r\n    modifier onlyRegisteredBattery{\r\n         require(batteries[msg.sender].isExist==true, \"Only registered batteries have access\");\r\n         _;\r\n     }\r\n\r\n    //add a battery by eth account address\r\n    function addNewBattery (string memory nameOfBatteryOwner, uint32 date) public {\r\n        require(batteries[msg.sender].isExist==false, \"Battery details already added\");\r\n        batteries[msg.sender] = battery(msg.sender, nameOfBatteryOwner, date, true);\r\n\r\n        listOfBatteries.push(battery({\r\n            batteryID: msg.sender,\r\n            nameOfBatteryOwner: nameOfBatteryOwner,\r\n            date: date,\r\n            isExist: true\r\n            }));\r\n    }\r\n\r\n    //to view all batteries\r\n    function viewAllBatteries () public view returns (battery[] memory) {\r\n        return listOfBatteries;\r\n    }\r\n\r\n    //change details of a battery\r\n    function updateBattery(address batteryID, string memory nameOfBatteryOwner) public onlyRegisteredBattery {\r\n        for(uint i = 0; i<listOfBatteries.length; i++){\r\n            if(listOfBatteries[i].batteryID == batteryID){\r\n                listOfBatteries[i].nameOfBatteryOwner = nameOfBatteryOwner;\r\n                batteries[batteryID].nameOfBatteryOwner = nameOfBatteryOwner;\r\n            }\r\n        }\r\n    }\r\n\r\n    //view single battery by battery id\r\n    function getBatteryByID(address batteryID) public view returns (address, string memory, uint32){\r\n        return (batteries[batteryID].batteryID, batteries[batteryID].nameOfBatteryOwner, batteries[batteryID].date);\r\n    }\r\n}\r\n\r\n/********energyBid Contract********/\r\n//Contract for energy offers from current batteries\r\ncontract energyBid is owned, batteryRegistry {\r\n\r\n    //event offerEnergyMade(address indexed sellerBatteryID, uint32 indexed day, uint32 indexed price, uint64 energy);\r\n    //event buyEnergyMade(address indexed sellerBatteryID, uint32 indexed day, uint32 price, uint64 energy, address indexed batteryID);\r\n\r\n    uint64 constant mWh = 1;\r\n    uint64 constant Wh = 1000 * mWh;\r\n    uint64 constant kWh = 1000 * Wh;\r\n    uint64 constant MWh = 1000 * kWh;\r\n    uint64 constant GWh = 1000 * MWh;\r\n    uint64 constant TWh = 1000 * GWh;\r\n\r\n    struct bid{\r\n        address producerID;    //battery public key\r\n        uint numberOfBid;      //A battery can create more than one energy offer\r\n        uint32 day;            //day for which the offer is valid\r\n        uint64 energy;         //energy to trade\r\n        uint64 timestamp;      //timestamp for when the bid was created\r\n    }\r\n    \r\n    struct ask {\r\n        address consumerID;\r\n        uint64 energy;\r\n        uint64 timestamp;\r\n        uint32 day;\r\n    }\r\n    \r\n    mapping(address => uint) asks; \r\n    ask[] listOfAsks;\r\n    ask[] listOfBuyedEnergy;\r\n\r\n    mapping(address => mapping(uint32 => mapping(uint=> uint))) public bids;\r\n    bid[] public listOfBids;\r\n    uint nextNumberOfBid;                                    \r\n\r\n    //create energy offer \r\n    //There is a minimum energy requirement \r\n    //Only registered batteries can use this function\r\n    function energyOffer(uint32 _day, uint64 _energy, uint64 _timestamp) public onlyRegisteredBattery {\r\n        require(_energy >= kWh, \"Wrong energy input require a minimum offer of 1 kWh (1.000.000mWh)\");\r\n        uint index = bids[msg.sender][_day][nextNumberOfBid];\r\n\r\n        index = listOfBids.length;\r\n        bids[msg.sender][_day][nextNumberOfBid] = index;\r\n        listOfBids.push(bid({\r\n            producerID: msg.sender,\r\n            numberOfBid: nextNumberOfBid,\r\n            day: _day,\r\n            energy: _energy,\r\n            timestamp: _timestamp\r\n        }));\r\n        nextNumberOfBid++;\r\n    }\r\n\r\n    //view all bids \r\n    function viewAllBids () public view returns (bid[] memory){\r\n      return listOfBids;\r\n    }\r\n\r\n    //view single bid by batteryID\r\n    function getBidByBatteryID (address producerID, uint32 day, uint numberOfBid) public view returns (uint, uint32, uint64){\r\n        uint index = bids[producerID][day][numberOfBid];\r\n        require(listOfBids.length > index, \"Wrong index\");\r\n        require(listOfBids[index].day == day, \"There is no offer on this day\");\r\n        require(listOfBids[index].producerID == producerID, \"Wrong ID\");\r\n        return (listOfBids[index].numberOfBid, listOfBids[index].day, listOfBids[index].energy);\r\n    }\r\n\r\n    function askEnergy(uint32 _day, uint64 _energy, uint64 _timestamp) public onlyRegisteredBattery{\r\n        require(_energy >= kWh, \"Wrong energy input require a minimum offer of 1 kWh (1.000.000mWh)\");\r\n\r\n        uint indexA = asks[msg.sender];\r\n\r\n        indexA = listOfAsks.length;\r\n        asks[msg.sender] = indexA;\r\n        listOfAsks.push(ask({\r\n            consumerID: msg.sender,\r\n            energy: _energy,\r\n            timestamp: _timestamp,\r\n            day: _day\r\n        }));\r\n    }\r\n\r\n    //Ask and buy energy \r\n    //There is a minimum energy requirement \r\n    //Only registered batteries can use this function\r\n    function energyTrading(ask memory _ask) public onlyRegisteredBattery {\r\n        for(uint i =0; i<listOfBids.length; i++){\r\n            uint64 aEnergy = _ask.energy;\r\n            if(listOfBids[i].energy < _ask.energy){\r\n                listOfBids[i].energy = listOfBids[i].energy - _ask.energy;\r\n                _ask.energy = aEnergy - _ask.energy;\r\n                listOfBuyedEnergy.push(ask({\r\n                    consumerID: msg.sender,\r\n                    energy: _ask.energy,\r\n                    timestamp: _ask.timestamp,\r\n                    day: _ask.day\r\n                }));\r\n                listOfBids[i] = listOfBids[i+1];\r\n                listOfBids.length--;\r\n            }else if(listOfBids[i].energy == _ask.energy){\r\n                listOfBids[i].energy = listOfBids[i].energy - _ask.energy;\r\n                _ask.energy = aEnergy - _ask.energy;\r\n\r\n                listOfBuyedEnergy.push(ask({\r\n                    consumerID: msg.sender,\r\n                    energy: _ask.energy,\r\n                    timestamp: _ask.timestamp,\r\n                    day: _ask.day\r\n                }));\r\n                listOfBids[i] = listOfBids[i+1];\r\n                listOfBids.length--;\r\n            }else{\r\n                listOfBids[i].energy = listOfBids[i].energy - _ask.energy;\r\n                _ask.energy = aEnergy - _ask.energy;\r\n\r\n                listOfBuyedEnergy.push(ask({\r\n                    consumerID: msg.sender,\r\n                    energy: _ask.energy,\r\n                    timestamp: _ask.timestamp,\r\n                    day: _ask.day\r\n                }));\r\n            }\r\n            \r\n            if(_ask.energy == 0) revert();\r\n        }\r\n    }\r\n\r\n    //list of all ask energy requests\r\n    function viewAllAsks () public view returns (ask[] memory){\r\n        return listOfAsks;\r\n    }\r\n\r\n    //view single ask energy request by batteryID\r\n    function getAskByBatteryId (address _consumerID) public view returns (address, uint32, uint64){\r\n        uint indexA = asks[_consumerID];\r\n        require(listOfAsks.length > indexA, \"Wrong index\");\r\n        require(listOfAsks[indexA].consumerID == _consumerID, \"Wrong Battery Id\");\r\n        return (listOfAsks[indexA].consumerID, listOfAsks[indexA].day, listOfAsks[indexA].energy);\r\n        \r\n    }\r\n}",
  "sourcePath": "C:/Users/Lenovo/projects/ethereum/protergia/blockchain-energy-trading-and-green-energy-certification-thesis-w-protergia/src/contracts/Battery.sol",
  "compiler": {
    "name": "solc",
    "version": "0.5.16+commit.9c3226ce.Emscripten.clang"
  },
  "schemaVersion": "3.3.4",
  "updatedAt": "2021-05-27T20:38:44.536Z",
  "devdoc": {
    "methods": {}
  },
  "userdoc": {
    "methods": {},
    "notice": "******energyBid Contract*******"
  }
}