{
  "contractName": "energyBid",
  "abi": [
    {
      "constant": false,
      "inputs": [
        {
          "internalType": "string",
          "name": "uuID",
          "type": "string"
        },
        {
          "internalType": "uint256",
          "name": "date",
          "type": "uint256"
        }
      ],
      "name": "addNewBattery",
      "outputs": [],
      "payable": false,
      "stateMutability": "nonpayable",
      "type": "function"
    },
    {
      "constant": true,
      "inputs": [
        {
          "internalType": "address",
          "name": "batteryID",
          "type": "address"
        }
      ],
      "name": "getBatteryByID",
      "outputs": [
        {
          "internalType": "address",
          "name": "",
          "type": "address"
        },
        {
          "internalType": "string",
          "name": "",
          "type": "string"
        },
        {
          "internalType": "uint256",
          "name": "",
          "type": "uint256"
        },
        {
          "internalType": "uint256",
          "name": "",
          "type": "uint256"
        }
      ],
      "payable": false,
      "stateMutability": "view",
      "type": "function"
    },
    {
      "constant": true,
      "inputs": [
        {
          "internalType": "uint256",
          "name": "_idbat",
          "type": "uint256"
        }
      ],
      "name": "getBatteryByLength",
      "outputs": [
        {
          "internalType": "address",
          "name": "",
          "type": "address"
        },
        {
          "internalType": "string",
          "name": "",
          "type": "string"
        },
        {
          "internalType": "uint256",
          "name": "",
          "type": "uint256"
        }
      ],
      "payable": false,
      "stateMutability": "view",
      "type": "function"
    },
    {
      "constant": true,
      "inputs": [],
      "name": "getCountOfBatteries",
      "outputs": [
        {
          "internalType": "uint256",
          "name": "count",
          "type": "uint256"
        }
      ],
      "payable": false,
      "stateMutability": "view",
      "type": "function"
    },
    {
      "constant": false,
      "inputs": [
        {
          "internalType": "address",
          "name": "batteryID",
          "type": "address"
        },
        {
          "internalType": "string",
          "name": "uuID",
          "type": "string"
        }
      ],
      "name": "updateBattery",
      "outputs": [],
      "payable": false,
      "stateMutability": "nonpayable",
      "type": "function"
    },
    {
      "constant": true,
      "inputs": [],
      "name": "viewAllBatteries",
      "outputs": [
        {
          "components": [
            {
              "internalType": "address",
              "name": "batteryID",
              "type": "address"
            },
            {
              "internalType": "string",
              "name": "uuID",
              "type": "string"
            },
            {
              "internalType": "uint256",
              "name": "date",
              "type": "uint256"
            },
            {
              "internalType": "uint256",
              "name": "timestamp",
              "type": "uint256"
            },
            {
              "internalType": "bool",
              "name": "isExist",
              "type": "bool"
            }
          ],
          "internalType": "struct batteryRegistry.battery[]",
          "name": "",
          "type": "tuple[]"
        }
      ],
      "payable": false,
      "stateMutability": "view",
      "type": "function"
    },
    {
      "constant": false,
      "inputs": [
        {
          "internalType": "uint256",
          "name": "_day",
          "type": "uint256"
        },
        {
          "internalType": "uint256",
          "name": "_energy",
          "type": "uint256"
        },
        {
          "internalType": "uint256",
          "name": "_eprice",
          "type": "uint256"
        }
      ],
      "name": "energyOffer",
      "outputs": [],
      "payable": false,
      "stateMutability": "nonpayable",
      "type": "function"
    },
    {
      "constant": false,
      "inputs": [
        {
          "internalType": "uint256",
          "name": "_day",
          "type": "uint256"
        },
        {
          "internalType": "uint256",
          "name": "_energy",
          "type": "uint256"
        }
      ],
      "name": "askEnergy",
      "outputs": [],
      "payable": false,
      "stateMutability": "nonpayable",
      "type": "function"
    },
    {
      "constant": true,
      "inputs": [],
      "name": "viewAllAsks",
      "outputs": [
        {
          "components": [
            {
              "internalType": "address",
              "name": "consumerID",
              "type": "address"
            },
            {
              "internalType": "uint256",
              "name": "energy",
              "type": "uint256"
            },
            {
              "internalType": "uint256",
              "name": "timestamp",
              "type": "uint256"
            },
            {
              "internalType": "uint256",
              "name": "day",
              "type": "uint256"
            },
            {
              "internalType": "uint256",
              "name": "remainingEnergy",
              "type": "uint256"
            }
          ],
          "internalType": "struct energyBid.ask[]",
          "name": "",
          "type": "tuple[]"
        }
      ],
      "payable": false,
      "stateMutability": "view",
      "type": "function"
    },
    {
      "constant": true,
      "inputs": [],
      "name": "getCountOfAsks",
      "outputs": [
        {
          "internalType": "uint256",
          "name": "count",
          "type": "uint256"
        }
      ],
      "payable": false,
      "stateMutability": "view",
      "type": "function"
    },
    {
      "constant": true,
      "inputs": [
        {
          "internalType": "address",
          "name": "_consumerID",
          "type": "address"
        }
      ],
      "name": "getAskByBatteryId",
      "outputs": [
        {
          "internalType": "address",
          "name": "",
          "type": "address"
        },
        {
          "internalType": "uint256",
          "name": "",
          "type": "uint256"
        },
        {
          "internalType": "uint256",
          "name": "",
          "type": "uint256"
        }
      ],
      "payable": false,
      "stateMutability": "view",
      "type": "function"
    },
    {
      "constant": true,
      "inputs": [],
      "name": "viewAllEnergyPurchases",
      "outputs": [
        {
          "components": [
            {
              "internalType": "address",
              "name": "consumerID",
              "type": "address"
            },
            {
              "internalType": "address",
              "name": "prosumerID",
              "type": "address"
            },
            {
              "internalType": "uint256",
              "name": "energy",
              "type": "uint256"
            },
            {
              "internalType": "uint256",
              "name": "price",
              "type": "uint256"
            },
            {
              "internalType": "uint256",
              "name": "day",
              "type": "uint256"
            },
            {
              "internalType": "uint256",
              "name": "timestamp",
              "type": "uint256"
            }
          ],
          "internalType": "struct energyBid.buyedEnergy[]",
          "name": "",
          "type": "tuple[]"
        }
      ],
      "payable": false,
      "stateMutability": "view",
      "type": "function"
    },
    {
      "constant": true,
      "inputs": [],
      "name": "viewAllBids",
      "outputs": [
        {
          "components": [
            {
              "internalType": "address",
              "name": "prosumerID",
              "type": "address"
            },
            {
              "internalType": "uint256",
              "name": "numberOfBid",
              "type": "uint256"
            },
            {
              "internalType": "uint256",
              "name": "day",
              "type": "uint256"
            },
            {
              "internalType": "uint256",
              "name": "energy",
              "type": "uint256"
            },
            {
              "internalType": "uint256",
              "name": "eprice",
              "type": "uint256"
            },
            {
              "internalType": "uint256",
              "name": "timestamp",
              "type": "uint256"
            }
          ],
          "internalType": "struct energyBid.bid[]",
          "name": "",
          "type": "tuple[]"
        }
      ],
      "payable": false,
      "stateMutability": "view",
      "type": "function"
    },
    {
      "constant": true,
      "inputs": [],
      "name": "getCountOfBids",
      "outputs": [
        {
          "internalType": "uint256",
          "name": "count",
          "type": "uint256"
        }
      ],
      "payable": false,
      "stateMutability": "view",
      "type": "function"
    },
    {
      "constant": true,
      "inputs": [
        {
          "internalType": "address",
          "name": "prosumerID",
          "type": "address"
        },
        {
          "internalType": "uint256",
          "name": "day",
          "type": "uint256"
        },
        {
          "internalType": "uint256",
          "name": "numberOfBid",
          "type": "uint256"
        }
      ],
      "name": "getBidByBatteryID",
      "outputs": [
        {
          "internalType": "uint256",
          "name": "",
          "type": "uint256"
        },
        {
          "internalType": "uint256",
          "name": "",
          "type": "uint256"
        },
        {
          "internalType": "uint256",
          "name": "",
          "type": "uint256"
        }
      ],
      "payable": false,
      "stateMutability": "view",
      "type": "function"
    },
    {
      "constant": true,
      "inputs": [
        {
          "internalType": "uint256",
          "name": "_idbid",
          "type": "uint256"
        }
      ],
      "name": "getBidsByLength",
      "outputs": [
        {
          "internalType": "address",
          "name": "",
          "type": "address"
        },
        {
          "internalType": "uint256",
          "name": "",
          "type": "uint256"
        },
        {
          "internalType": "uint256",
          "name": "",
          "type": "uint256"
        }
      ],
      "payable": false,
      "stateMutability": "view",
      "type": "function"
    },
    {
      "constant": true,
      "inputs": [
        {
          "internalType": "uint256",
          "name": "_idask",
          "type": "uint256"
        }
      ],
      "name": "getAsksByLength",
      "outputs": [
        {
          "internalType": "address",
          "name": "",
          "type": "address"
        },
        {
          "internalType": "uint256",
          "name": "",
          "type": "uint256"
        },
        {
          "internalType": "uint256",
          "name": "",
          "type": "uint256"
        }
      ],
      "payable": false,
      "stateMutability": "view",
      "type": "function"
    }
  ],
  "bytecode": "0x6080604052336000806101000a81548173ffffffffffffffffffffffffffffffffffffffff021916908373ffffffffffffffffffffffffffffffffffffffff160217905550613886806100536000396000f3fe608060405234801561001057600080fd5b506004361061010b5760003560e01c806387bdb206116100a2578063c26d4ce611610071578063c26d4ce6146102c4578063c9fb8578146102e2578063d4eed50f14610315578063e204dacc14610331578063eefa716b146103635761010b565b806387bdb2061461024c5780639521db241461026a578063a426c76814610288578063b47c7741146102a65761010b565b80635b4cf93c116100de5780635b4cf93c1461019857806362e9a430146101b6578063844cbc79146101e85780638617f9a91461021a5761010b565b806303b473ad146101105780631779e7fb1461014257806318f74a601461015e57806344da1a941461017a575b600080fd5b61012a60048036036101259190810190612c4e565b61037f565b60405161013993929190613414565b60405180910390f35b61015c60048036036101579190810190612bfa565b6103df565b005b61017860048036036101739190810190612c77565b61069b565b005b610182610913565b60405161018f91906135b3565b60405180910390f35b6101a0610920565b6040516101ad919061348f565b60405180910390f35b6101d060048036036101cb9190810190612b2e565b610a07565b6040516101df93929190613414565b60405180910390f35b61020260048036036101fd9190810190612c4e565b610bcd565b6040516102119392919061338a565b60405180910390f35b610234600480360361022f9190810190612bab565b610cc9565b604051610243939291906135ce565b60405180910390f35b610254610ef3565b604051610261919061344b565b60405180910390f35b610272610fd0565b60405161027f91906135b3565b60405180910390f35b610290610fdd565b60405161029d91906135b3565b60405180910390f35b6102ae610fea565b6040516102bb919061346d565b60405180910390f35b6102cc611170565b6040516102d991906134b1565b60405180910390f35b6102fc60048036036102f79190810190612b2e565b6112a3565b60405161030c94939291906133c8565b60405180910390f35b61032f600480360361032a9190810190612cb3565b611480565b005b61034b60048036036103469190810190612c4e565b611727565b60405161035a93929190613414565b60405180910390f35b61037d60048036036103789190810190612b57565b611787565b005b6000806000806004858154811061039257fe5b906000526020600020906005020190508060000160009054906101000a900473ffffffffffffffffffffffffffffffffffffffff1681600301548260010154935093509350509193909250565b60001515600160003373ffffffffffffffffffffffffffffffffffffffff1673ffffffffffffffffffffffffffffffffffffffff16815260200190815260200160002060040160009054906101000a900460ff16151514610475576040517f08c379a000000000000000000000000000000000000000000000000000000000815260040161046c90613593565b60405180910390fd5b6040518060a001604052803373ffffffffffffffffffffffffffffffffffffffff16815260200183815260200182815260200142815260200160011515815250600160003373ffffffffffffffffffffffffffffffffffffffff1673ffffffffffffffffffffffffffffffffffffffff16815260200190815260200160002060008201518160000160006101000a81548173ffffffffffffffffffffffffffffffffffffffff021916908373ffffffffffffffffffffffffffffffffffffffff1602179055506020820151816001019080519060200190610557929190612853565b50604082015181600201556060820151816003015560808201518160040160006101000a81548160ff02191690831515021790555090505060026040518060a001604052803373ffffffffffffffffffffffffffffffffffffffff168152602001848152602001838152602001428152602001600115158152509080600181540180825580915050906001820390600052602060002090600502016000909192909190915060008201518160000160006101000a81548173ffffffffffffffffffffffffffffffffffffffff021916908373ffffffffffffffffffffffffffffffffffffffff160217905550602082015181600101908051906020019061065f929190612853565b50604082015181600201556060820151816003015560808201518160040160006101000a81548160ff0219169083151502179055505050505050565b60011515600160003373ffffffffffffffffffffffffffffffffffffffff1673ffffffffffffffffffffffffffffffffffffffff16815260200190815260200160002060040160009054906101000a900460ff16151514610731576040517f08c379a000000000000000000000000000000000000000000000000000000000815260040161072890613553565b60405180910390fd5b600167ffffffffffffffff1681101561077f576040517f08c379a0000000000000000000000000000000000000000000000000000000008152600401610776906134f3565b60405180910390fd5b60046040518060a001604052803373ffffffffffffffffffffffffffffffffffffffff168152602001838152602001428152602001848152602001838152509080600181540180825580915050906001820390600052602060002090600502016000909192909190915060008201518160000160006101000a81548173ffffffffffffffffffffffffffffffffffffffff021916908373ffffffffffffffffffffffffffffffffffffffff1602179055506020820151816001015560408201518160020155606082015181600301556080820151816004015550505061090f60046001600480549050038154811061087357fe5b90600052602060002090600502016040518060a00160405290816000820160009054906101000a900473ffffffffffffffffffffffffffffffffffffffff1673ffffffffffffffffffffffffffffffffffffffff1673ffffffffffffffffffffffffffffffffffffffff16815260200160018201548152602001600282015481526020016003820154815260200160048201548152505061193f565b5050565b6000600280549050905090565b60606007805480602002602001604051908101604052809291908181526020016000905b828210156109fe57838290600052602060002090600602016040518060c00160405290816000820160009054906101000a900473ffffffffffffffffffffffffffffffffffffffff1673ffffffffffffffffffffffffffffffffffffffff1673ffffffffffffffffffffffffffffffffffffffff1681526020016001820154815260200160028201548152602001600382015481526020016004820154815260200160058201548152505081526020019060010190610944565b50505050905090565b600080600080600360008673ffffffffffffffffffffffffffffffffffffffff1673ffffffffffffffffffffffffffffffffffffffff1681526020019081526020016000205490508060048054905011610a96576040517f08c379a0000000000000000000000000000000000000000000000000000000008152600401610a8d90613533565b60405180910390fd5b8473ffffffffffffffffffffffffffffffffffffffff1660048281548110610aba57fe5b906000526020600020906005020160000160009054906101000a900473ffffffffffffffffffffffffffffffffffffffff1673ffffffffffffffffffffffffffffffffffffffff1614610b42576040517f08c379a0000000000000000000000000000000000000000000000000000000008152600401610b3990613513565b60405180910390fd5b60048181548110610b4f57fe5b906000526020600020906005020160000160009054906101000a900473ffffffffffffffffffffffffffffffffffffffff1660048281548110610b8e57fe5b90600052602060002090600502016003015460048381548110610bad57fe5b906000526020600020906005020160010154935093509350509193909250565b6000606060008060028581548110610be157fe5b906000526020600020906005020190508060000160009054906101000a900473ffffffffffffffffffffffffffffffffffffffff16816001018260020154818054600181600116156101000203166002900480601f016020809104026020016040519081016040528092919081815260200182805460018160011615610100020316600290048015610cb45780601f10610c8957610100808354040283529160200191610cb4565b820191906000526020600020905b815481529060010190602001808311610c9757829003601f168201915b50505050509150935093509350509193909250565b600080600080600660008873ffffffffffffffffffffffffffffffffffffffff1673ffffffffffffffffffffffffffffffffffffffff168152602001908152602001600020600087815260200190815260200160002060008681526020019081526020016000205490508060078054905011610d7a576040517f08c379a0000000000000000000000000000000000000000000000000000000008152600401610d7190613533565b60405180910390fd5b8560078281548110610d8857fe5b90600052602060002090600602016002015414610dda576040517f08c379a0000000000000000000000000000000000000000000000000000000008152600401610dd1906134d3565b60405180910390fd5b8673ffffffffffffffffffffffffffffffffffffffff1660078281548110610dfe57fe5b906000526020600020906006020160000160009054906101000a900473ffffffffffffffffffffffffffffffffffffffff1673ffffffffffffffffffffffffffffffffffffffff1614610e86576040517f08c379a0000000000000000000000000000000000000000000000000000000008152600401610e7d90613573565b60405180910390fd5b60078181548110610e9357fe5b90600052602060002090600602016001015460078281548110610eb257fe5b90600052602060002090600602016002015460078381548110610ed157fe5b9060005260206000209060060201600301549350935093505093509350939050565b60606004805480602002602001604051908101604052809291908181526020016000905b82821015610fc757838290600052602060002090600502016040518060a00160405290816000820160009054906101000a900473ffffffffffffffffffffffffffffffffffffffff1673ffffffffffffffffffffffffffffffffffffffff1673ffffffffffffffffffffffffffffffffffffffff16815260200160018201548152602001600282015481526020016003820154815260200160048201548152505081526020019060010190610f17565b50505050905090565b6000600780549050905090565b6000600480549050905090565b60606002805480602002602001604051908101604052809291908181526020016000905b8282101561116757838290600052602060002090600502016040518060a00160405290816000820160009054906101000a900473ffffffffffffffffffffffffffffffffffffffff1673ffffffffffffffffffffffffffffffffffffffff1673ffffffffffffffffffffffffffffffffffffffff168152602001600182018054600181600116156101000203166002900480601f0160208091040260200160405190810160405280929190818152602001828054600181600116156101000203166002900480156111205780601f106110f557610100808354040283529160200191611120565b820191906000526020600020905b81548152906001019060200180831161110357829003601f168201915b5050505050815260200160028201548152602001600382015481526020016004820160009054906101000a900460ff1615151515815250508152602001906001019061100e565b50505050905090565b60606005805480602002602001604051908101604052809291908181526020016000905b8282101561129a57838290600052602060002090600602016040518060c00160405290816000820160009054906101000a900473ffffffffffffffffffffffffffffffffffffffff1673ffffffffffffffffffffffffffffffffffffffff1673ffffffffffffffffffffffffffffffffffffffff1681526020016001820160009054906101000a900473ffffffffffffffffffffffffffffffffffffffff1673ffffffffffffffffffffffffffffffffffffffff1673ffffffffffffffffffffffffffffffffffffffff16815260200160028201548152602001600382015481526020016004820154815260200160058201548152505081526020019060010190611194565b50505050905090565b60006060600080600160008673ffffffffffffffffffffffffffffffffffffffff1673ffffffffffffffffffffffffffffffffffffffff16815260200190815260200160002060000160009054906101000a900473ffffffffffffffffffffffffffffffffffffffff16600160008773ffffffffffffffffffffffffffffffffffffffff1673ffffffffffffffffffffffffffffffffffffffff168152602001908152602001600020600101600160008873ffffffffffffffffffffffffffffffffffffffff1673ffffffffffffffffffffffffffffffffffffffff16815260200190815260200160002060030154600160008973ffffffffffffffffffffffffffffffffffffffff1673ffffffffffffffffffffffffffffffffffffffff16815260200190815260200160002060020154828054600181600116156101000203166002900480601f01602080910402602001604051908101604052809291908181526020018280546001816001161561010002031660029004801561146a5780601f1061143f5761010080835404028352916020019161146a565b820191906000526020600020905b81548152906001019060200180831161144d57829003601f168201915b5050505050925093509350935093509193509193565b60011515600160003373ffffffffffffffffffffffffffffffffffffffff1673ffffffffffffffffffffffffffffffffffffffff16815260200190815260200160002060040160009054906101000a900460ff16151514611516576040517f08c379a000000000000000000000000000000000000000000000000000000000815260040161150d90613553565b60405180910390fd5b600167ffffffffffffffff16821015611564576040517f08c379a000000000000000000000000000000000000000000000000000000000815260040161155b906134f3565b60405180910390fd5b60076040518060c001604052803373ffffffffffffffffffffffffffffffffffffffff1681526020016008548152602001858152602001848152602001838152602001428152509080600181540180825580915050906001820390600052602060002090600602016000909192909190915060008201518160000160006101000a81548173ffffffffffffffffffffffffffffffffffffffff021916908373ffffffffffffffffffffffffffffffffffffffff1602179055506020820151816001015560408201518160020155606082015181600301556080820151816004015560a0820151816005015550505060086000815480929190600101919050555061172260076001600780549050038154811061167c57fe5b90600052602060002090600602016040518060c00160405290816000820160009054906101000a900473ffffffffffffffffffffffffffffffffffffffff1673ffffffffffffffffffffffffffffffffffffffff1673ffffffffffffffffffffffffffffffffffffffff16815260200160018201548152602001600282015481526020016003820154815260200160048201548152602001600582015481525050612104565b505050565b6000806000806007858154811061173a57fe5b906000526020600020906006020190508060000160009054906101000a900473ffffffffffffffffffffffffffffffffffffffff1681600201548260030154935093509350509193909250565b60011515600160003373ffffffffffffffffffffffffffffffffffffffff1673ffffffffffffffffffffffffffffffffffffffff16815260200190815260200160002060040160009054906101000a900460ff1615151461181d576040517f08c379a000000000000000000000000000000000000000000000000000000000815260040161181490613553565b60405180910390fd5b60008090505b60028054905081101561193a578273ffffffffffffffffffffffffffffffffffffffff166002828154811061185457fe5b906000526020600020906005020160000160009054906101000a900473ffffffffffffffffffffffffffffffffffffffff1673ffffffffffffffffffffffffffffffffffffffff16141561192d5781600282815481106118b057fe5b906000526020600020906005020160010190805190602001906118d49291906128d3565b5081600160008573ffffffffffffffffffffffffffffffffffffffff1673ffffffffffffffffffffffffffffffffffffffff168152602001908152602001600020600101908051906020019061192b9291906128d3565b505b8080600101915050611823565b505050565b60011515600160003373ffffffffffffffffffffffffffffffffffffffff1673ffffffffffffffffffffffffffffffffffffffff16815260200190815260200160002060040160009054906101000a900460ff161515146119d5576040517f08c379a00000000000000000000000000000000000000000000000000000000081526004016119cc90613553565b60405180910390fd5b60008160800151905060008090505b6007805490508110156120ff5760008060009050600080905060008090508560078681548110611a1057fe5b9060005260206000209060060201600301541015611c285760078581548110611a3557fe5b906000526020600020906006020160000160009054906101000a900473ffffffffffffffffffffffffffffffffffffffff16935060078581548110611a7657fe5b906000526020600020906006020160030154915060078581548110611a9757fe5b906000526020600020906006020160030154860395508560048681548110611abb57fe5b9060005260206000209060050201600401819055508160078681548110611ade57fe5b906000526020600020906006020160040154029050600060078681548110611b0257fe5b9060005260206000209060060201600301819055506001925060016007805490501115611c0457600760016007805490500381548110611b3e57fe5b906000526020600020906006020160078681548110611b5957fe5b90600052602060002090600602016000820160009054906101000a900473ffffffffffffffffffffffffffffffffffffffff168160000160006101000a81548173ffffffffffffffffffffffffffffffffffffffff021916908373ffffffffffffffffffffffffffffffffffffffff16021790555060018201548160010155600282015481600201556003820154816003015560048201548160040155600582015481600501559050505b6007805480919060019003611c199190612953565b50848060019003955050611e99565b8560078681548110611c3657fe5b9060005260206000209060060201600301541415611de55760078581548110611c5b57fe5b906000526020600020906006020160000160009054906101000a900473ffffffffffffffffffffffffffffffffffffffff1693508591508160078681548110611ca057fe5b906000526020600020906006020160040154029050600060078681548110611cc457fe5b906000526020600020906006020160030181905550600095506001925060016007805490501115611dca57600760016007805490500381548110611d0457fe5b906000526020600020906006020160078681548110611d1f57fe5b90600052602060002090600602016000820160009054906101000a900473ffffffffffffffffffffffffffffffffffffffff168160000160006101000a81548173ffffffffffffffffffffffffffffffffffffffff021916908373ffffffffffffffffffffffffffffffffffffffff16021790555060018201548160010155600282015481600201556003820154816003015560048201548160040155600582015481600501559050505b6007805480919060019003611ddf9190612953565b50611e98565b60078581548110611df257fe5b906000526020600020906006020160000160009054906101000a900473ffffffffffffffffffffffffffffffffffffffff1693508591508560078681548110611e3757fe5b9060005260206000209060060201600301540360078681548110611e5757fe5b9060005260206000209060060201600301819055508160078681548110611e7a57fe5b90600052602060002090600602016004015402905060009550600192505b5b8215611fe75760056040518060c001604052803373ffffffffffffffffffffffffffffffffffffffff1681526020018673ffffffffffffffffffffffffffffffffffffffff1681526020018481526020018381526020018960600151815260200189604001518152509080600181540180825580915050906001820390600052602060002090600602016000909192909190915060008201518160000160006101000a81548173ffffffffffffffffffffffffffffffffffffffff021916908373ffffffffffffffffffffffffffffffffffffffff16021790555060208201518160010160006101000a81548173ffffffffffffffffffffffffffffffffffffffff021916908373ffffffffffffffffffffffffffffffffffffffff16021790555060408201518160020155606082015181600301556080820151816004015560a082015181600501555050505b60008614156120ee57600160048054905011156120cf5760046001600480549050038154811061201357fe5b90600052602060002090600502016004868154811061202e57fe5b90600052602060002090600502016000820160009054906101000a900473ffffffffffffffffffffffffffffffffffffffff168160000160006101000a81548173ffffffffffffffffffffffffffffffffffffffff021916908373ffffffffffffffffffffffffffffffffffffffff160217905550600182015481600101556002820154816002015560038201548160030155600482015481600401559050505b60048054809190600190036120e49190612985565b50505050506120ff565b5050505080806001019150506119e4565b505050565b60011515600160003373ffffffffffffffffffffffffffffffffffffffff1673ffffffffffffffffffffffffffffffffffffffff16815260200190815260200160002060040160009054906101000a900460ff1615151461219a576040517f08c379a000000000000000000000000000000000000000000000000000000000815260040161219190613553565b60405180910390fd5b60008160600151905060008090505b60048054905081101561284e57600080600090506000809050600080905085600486815481106121d557fe5b90600052602060002090600502016004015410156123ab57600485815481106121fa57fe5b906000526020600020906005020160000160009054906101000a900473ffffffffffffffffffffffffffffffffffffffff1693506004858154811061223b57fe5b90600052602060002090600502016004015491508186039550856007868154811061226257fe5b90600052602060002090600602016003018190555081876080015102905060006004868154811061228f57fe5b9060005260206000209060050201600401819055506001925060016004805490501115612387576004600160048054905003815481106122cb57fe5b9060005260206000209060050201600486815481106122e657fe5b90600052602060002090600502016000820160009054906101000a900473ffffffffffffffffffffffffffffffffffffffff168160000160006101000a81548173ffffffffffffffffffffffffffffffffffffffff021916908373ffffffffffffffffffffffffffffffffffffffff160217905550600182015481600101556002820154816002015560038201548160030155600482015481600401559050505b600480548091906001900361239c9190612985565b508480600190039550506125de565b85600486815481106123b957fe5b906000526020600020906005020160040154141561254457600485815481106123de57fe5b906000526020600020906005020160000160009054906101000a900473ffffffffffffffffffffffffffffffffffffffff1693508591508187608001510290506000955060006004868154811061243157fe5b90600052602060002090600502016004018190555060019250600160048054905011156125295760046001600480549050038154811061246d57fe5b90600052602060002090600502016004868154811061248857fe5b90600052602060002090600502016000820160009054906101000a900473ffffffffffffffffffffffffffffffffffffffff168160000160006101000a81548173ffffffffffffffffffffffffffffffffffffffff021916908373ffffffffffffffffffffffffffffffffffffffff160217905550600182015481600101556002820154816002015560038201548160030155600482015481600401559050505b600480548091906001900361253e9190612985565b506125dd565b6004858154811061255157fe5b906000526020600020906005020160000160009054906101000a900473ffffffffffffffffffffffffffffffffffffffff169350859150816004868154811061259657fe5b90600052602060002090600502016004015403600486815481106125b657fe5b90600052602060002090600502016004018190555081876080015102905060009550600192505b5b821561272c5760056040518060c001604052808673ffffffffffffffffffffffffffffffffffffffff1681526020013373ffffffffffffffffffffffffffffffffffffffff168152602001848152602001838152602001896040015181526020018960a001518152509080600181540180825580915050906001820390600052602060002090600602016000909192909190915060008201518160000160006101000a81548173ffffffffffffffffffffffffffffffffffffffff021916908373ffffffffffffffffffffffffffffffffffffffff16021790555060208201518160010160006101000a81548173ffffffffffffffffffffffffffffffffffffffff021916908373ffffffffffffffffffffffffffffffffffffffff16021790555060408201518160020155606082015181600301556080820151816004015560a082015181600501555050505b600086141561283d576001600780549050111561281e5760076001600780549050038154811061275857fe5b90600052602060002090600602016007868154811061277357fe5b90600052602060002090600602016000820160009054906101000a900473ffffffffffffffffffffffffffffffffffffffff168160000160006101000a81548173ffffffffffffffffffffffffffffffffffffffff021916908373ffffffffffffffffffffffffffffffffffffffff16021790555060018201548160010155600282015481600201556003820154816003015560048201548160040155600582015481600501559050505b60078054809190600190036128339190612953565b505050505061284e565b5050505080806001019150506121a9565b505050565b828054600181600116156101000203166002900490600052602060002090601f016020900481019282601f1061289457805160ff19168380011785556128c2565b828001600101855582156128c2579182015b828111156128c15782518255916020019190600101906128a6565b5b5090506128cf91906129b7565b5090565b828054600181600116156101000203166002900490600052602060002090601f016020900481019282601f1061291457805160ff1916838001178555612942565b82800160010185558215612942579182015b82811115612941578251825591602001919060010190612926565b5b50905061294f91906129b7565b5090565b8154818355818111156129805760060281600602836000526020600020918201910161297f91906129dc565b5b505050565b8154818355818111156129b2576005028160050283600052602060002091820191016129b19190612a4a565b5b505050565b6129d991905b808211156129d55760008160009055506001016129bd565b5090565b90565b612a4791905b80821115612a4357600080820160006101000a81549073ffffffffffffffffffffffffffffffffffffffff021916905560018201600090556002820160009055600382016000905560048201600090556005820160009055506006016129e2565b5090565b90565b612aad91905b80821115612aa957600080820160006101000a81549073ffffffffffffffffffffffffffffffffffffffff0219169055600182016000905560028201600090556003820160009055600482016000905550600501612a50565b5090565b90565b600081359050612abf81613815565b92915050565b600082601f830112612ad657600080fd5b8135612ae9612ae482613632565b613605565b91508082526020830160208301858383011115612b0557600080fd5b612b108382846137c2565b50505092915050565b600081359050612b288161382c565b92915050565b600060208284031215612b4057600080fd5b6000612b4e84828501612ab0565b91505092915050565b60008060408385031215612b6a57600080fd5b6000612b7885828601612ab0565b925050602083013567ffffffffffffffff811115612b9557600080fd5b612ba185828601612ac5565b9150509250929050565b600080600060608486031215612bc057600080fd5b6000612bce86828701612ab0565b9350506020612bdf86828701612b19565b9250506040612bf086828701612b19565b9150509250925092565b60008060408385031215612c0d57600080fd5b600083013567ffffffffffffffff811115612c2757600080fd5b612c3385828601612ac5565b9250506020612c4485828601612b19565b9150509250929050565b600060208284031215612c6057600080fd5b6000612c6e84828501612b19565b91505092915050565b60008060408385031215612c8a57600080fd5b6000612c9885828601612b19565b9250506020612ca985828601612b19565b9150509250929050565b600080600060608486031215612cc857600080fd5b6000612cd686828701612b19565b9350506020612ce786828701612b19565b9250506040612cf886828701612b19565b9150509250925092565b6000612d0e8383613198565b60a08301905092915050565b6000612d268383613200565b905092915050565b6000612d3a8383613276565b60c08301905092915050565b6000612d5283836132f1565b60c08301905092915050565b612d678161377a565b82525050565b612d768161377a565b82525050565b6000612d878261369e565b612d918185613714565b9350612d9c8361365e565b8060005b83811015612dcd578151612db48882612d02565b9750612dbf836136e0565b925050600181019050612da0565b5085935050505092915050565b6000612de5826136a9565b612def8185613725565b935083602082028501612e018561366e565b8060005b85811015612e3d5784840389528151612e1e8582612d1a565b9450612e29836136ed565b925060208a01995050600181019050612e05565b50829750879550505050505092915050565b6000612e5a826136b4565b612e648185613736565b9350612e6f8361367e565b8060005b83811015612ea0578151612e878882612d2e565b9750612e92836136fa565b925050600181019050612e73565b5085935050505092915050565b6000612eb8826136bf565b612ec28185613747565b9350612ecd8361368e565b8060005b83811015612efe578151612ee58882612d46565b9750612ef083613707565b925050600181019050612ed1565b5085935050505092915050565b612f148161378c565b82525050565b6000612f25826136d5565b612f2f8185613769565b9350612f3f8185602086016137d1565b612f4881613804565b840191505092915050565b6000612f5e826136ca565b612f688185613758565b9350612f788185602086016137d1565b612f8181613804565b840191505092915050565b6000612f99601d83613769565b91507f5468657265206973206e6f206f66666572206f6e2074686973206461790000006000830152602082019050919050565b6000612fd9603383613769565b91507f57726f6e6720656e6572677920696e70757420726571756972652061206d696e60008301527f696d756d206f66666572206f662031206b5768000000000000000000000000006020830152604082019050919050565b600061303f601083613769565b91507f57726f6e672042617474657279204964000000000000000000000000000000006000830152602082019050919050565b600061307f600b83613769565b91507f57726f6e6720696e6465780000000000000000000000000000000000000000006000830152602082019050919050565b60006130bf602583613769565b91507f4f6e6c792072656769737465726564206261747465726965732068617665206160008301527f63636573730000000000000000000000000000000000000000000000000000006020830152604082019050919050565b6000613125600883613769565b91507f57726f6e672049440000000000000000000000000000000000000000000000006000830152602082019050919050565b6000613165601d83613769565b91507f426174746572792064657461696c7320616c72656164792061646465640000006000830152602082019050919050565b60a0820160008201516131ae6000850182612d5e565b5060208201516131c1602085018261336c565b5060408201516131d4604085018261336c565b5060608201516131e7606085018261336c565b5060808201516131fa608085018261336c565b50505050565b600060a0830160008301516132186000860182612d5e565b50602083015184820360208601526132308282612f53565b9150506040830151613245604086018261336c565b506060830151613258606086018261336c565b50608083015161326b6080860182612f0b565b508091505092915050565b60c08201600082015161328c6000850182612d5e565b50602082015161329f602085018261336c565b5060408201516132b2604085018261336c565b5060608201516132c5606085018261336c565b5060808201516132d8608085018261336c565b5060a08201516132eb60a085018261336c565b50505050565b60c0820160008201516133076000850182612d5e565b50602082015161331a6020850182612d5e565b50604082015161332d604085018261336c565b506060820151613340606085018261336c565b506080820151613353608085018261336c565b5060a082015161336660a085018261336c565b50505050565b613375816137b8565b82525050565b613384816137b8565b82525050565b600060608201905061339f6000830186612d6d565b81810360208301526133b18185612f1a565b90506133c0604083018461337b565b949350505050565b60006080820190506133dd6000830187612d6d565b81810360208301526133ef8186612f1a565b90506133fe604083018561337b565b61340b606083018461337b565b95945050505050565b60006060820190506134296000830186612d6d565b613436602083018561337b565b613443604083018461337b565b949350505050565b600060208201905081810360008301526134658184612d7c565b905092915050565b600060208201905081810360008301526134878184612dda565b905092915050565b600060208201905081810360008301526134a98184612e4f565b905092915050565b600060208201905081810360008301526134cb8184612ead565b905092915050565b600060208201905081810360008301526134ec81612f8c565b9050919050565b6000602082019050818103600083015261350c81612fcc565b9050919050565b6000602082019050818103600083015261352c81613032565b9050919050565b6000602082019050818103600083015261354c81613072565b9050919050565b6000602082019050818103600083015261356c816130b2565b9050919050565b6000602082019050818103600083015261358c81613118565b9050919050565b600060208201905081810360008301526135ac81613158565b9050919050565b60006020820190506135c8600083018461337b565b92915050565b60006060820190506135e3600083018661337b565b6135f0602083018561337b565b6135fd604083018461337b565b949350505050565b6000604051905081810181811067ffffffffffffffff8211171561362857600080fd5b8060405250919050565b600067ffffffffffffffff82111561364957600080fd5b601f19601f8301169050602081019050919050565b6000819050602082019050919050565b6000819050602082019050919050565b6000819050602082019050919050565b6000819050602082019050919050565b600081519050919050565b600081519050919050565b600081519050919050565b600081519050919050565b600081519050919050565b600081519050919050565b6000602082019050919050565b6000602082019050919050565b6000602082019050919050565b6000602082019050919050565b600082825260208201905092915050565b600082825260208201905092915050565b600082825260208201905092915050565b600082825260208201905092915050565b600082825260208201905092915050565b600082825260208201905092915050565b600061378582613798565b9050919050565b60008115159050919050565b600073ffffffffffffffffffffffffffffffffffffffff82169050919050565b6000819050919050565b82818337600083830152505050565b60005b838110156137ef5780820151818401526020810190506137d4565b838111156137fe576000848401525b50505050565b6000601f19601f8301169050919050565b61381e8161377a565b811461382957600080fd5b50565b613835816137b8565b811461384057600080fd5b5056fea365627a7a723158205d27e3ba9e50f0b419d35fa612660dda6063cd13e31a789d7633bbc173f766036c6578706572696d656e74616cf564736f6c63430005100040",
  "source": "pragma solidity >=0.4.21 <0.9.0;\r\npragma experimental ABIEncoderV2;\r\n\r\ncontract owned {\r\n    \r\n    address owner;\r\n    \r\n    constructor() public {\r\n        owner = msg.sender;\r\n    }\r\n    \r\n    modifier onlyOwner {\r\n        require(msg.sender == owner, \"Only owner can call this function.\");\r\n         _;\r\n    }\r\n}\r\n\r\n//Contract that allows battery address to be registered\r\ncontract batteryRegistry is owned {\r\n\r\n    struct battery {\r\n        address batteryID;            //battery wallet address\r\n        string uuID;                  //id of battery  \r\n        uint date;                    //Creation date\r\n        uint timestamp;\r\n        bool isExist;                 //Check if battery exist into addNewBattery function\r\n    }\r\n\r\n    //mapping address as key to struct battery with mapping name batteries\r\n    mapping (address => battery) batteries;\r\n    battery[] listOfBatteries;\r\n\r\n    modifier onlyRegisteredBattery{\r\n         require(batteries[msg.sender].isExist==true, \"Only registered batteries have access\");\r\n         _;\r\n     }\r\n\r\n    //add a battery by eth account address\r\n    function addNewBattery (string memory uuID, uint date) public {\r\n        require(batteries[msg.sender].isExist==false, \"Battery details already added\");\r\n        batteries[msg.sender] = battery(msg.sender, uuID, date, block.timestamp, true);\r\n\r\n        listOfBatteries.push(battery({\r\n            batteryID: msg.sender,\r\n            uuID: uuID,\r\n            date: date,\r\n            timestamp: block.timestamp,\r\n            isExist: true\r\n            }));\r\n    }\r\n\r\n    //to view all batteries\r\n    function viewAllBatteries () public view returns (battery[] memory) {\r\n        return listOfBatteries;\r\n    }\r\n\r\n    function getCountOfBatteries () public view returns (uint count) {\r\n        return listOfBatteries.length;\r\n    }\r\n\r\n    //change details of a battery\r\n    function updateBattery(address batteryID, string memory uuID) public onlyRegisteredBattery {\r\n        for(uint i = 0; i<listOfBatteries.length; i++){\r\n            if(listOfBatteries[i].batteryID == batteryID){\r\n                listOfBatteries[i].uuID = uuID;\r\n                batteries[batteryID].uuID = uuID;\r\n            }\r\n        }\r\n    }\r\n\r\n    //view single battery by battery id\r\n    function getBatteryByID(address batteryID) public view returns (address, string memory, uint, uint){\r\n        return (batteries[batteryID].batteryID, batteries[batteryID].uuID, batteries[batteryID].timestamp, batteries[batteryID].date);\r\n    }\r\n\r\n    //This function created in order to help us in unit test\r\n    function getBatteryByLength(uint _idbat) public view returns(address, string memory, uint){\r\n        battery storage _bat = listOfBatteries[_idbat];\r\n        return(_bat.batteryID, _bat.uuID, _bat.date);\r\n    }\r\n}\r\n\r\ncontract energyBid is owned, batteryRegistry {\r\n\r\n    //event offerEnergyMade(address indexed sellerBatteryID, uint32 indexed day, uint32 indexed price, uint64 energy);\r\n    //event buyEnergyMade(address indexed sellerBatteryID, uint32 indexed day, uint32 price, uint64 energy, address indexed batteryID);\r\n\r\n    uint64 constant kWh = 1;\r\n    uint64 constant MWh = 1000 * kWh;\r\n    uint64 constant GWh = 1000 * MWh;\r\n    uint64 constant TWh = 1000 * GWh;\r\n\r\n    //uint uinversalPrice = 2; //Energy market price per kWh (ex. 2euro/kWh, the price is trial)\r\n\r\n    struct bid {\r\n        address prosumerID;    \r\n        uint numberOfBid;    //A battery can create more than one energy offer\r\n        uint day;            //day for which the offer is valid\r\n        uint energy;         //energy to trade\r\n        uint eprice;         //Energy market price per kWh\r\n        uint timestamp;      //timestamp for when the bid was created\r\n    }\r\n    \r\n    struct ask {\r\n        address consumerID;    \r\n        uint energy;\r\n        uint timestamp;\r\n        uint day;\r\n        uint remainingEnergy;\r\n    }\r\n\r\n    //struct to store all energy purchases\r\n    struct buyedEnergy {\r\n        address consumerID;\r\n        address prosumerID;\r\n        uint energy;\r\n        uint price;\r\n        uint day;\r\n        uint timestamp;\r\n    }\r\n    \r\n    mapping(address => uint) asks; \r\n    ask[] listOfAsks;\r\n\r\n    buyedEnergy[] listOfBuyedEnergy;\r\n\r\n    mapping(address => mapping(uint => mapping(uint=> uint))) bids;\r\n    bid[] listOfBids;\r\n    uint nextNumberOfBid;                                    \r\n\r\n    //create energy offer \r\n    //There is a minimum energy requirement \r\n    //Only registered batteries can use this function\r\n    function energyOffer(uint _day, uint _energy, uint _eprice) public onlyRegisteredBattery {\r\n        require(_energy >= kWh, \"Wrong energy input require a minimum offer of 1 kWh\");\r\n\r\n        listOfBids.push(bid({\r\n            prosumerID: msg.sender,\r\n            numberOfBid: nextNumberOfBid,\r\n            day: _day,\r\n            energy: _energy,\r\n            eprice: _eprice,\r\n            timestamp: block.timestamp\r\n        }));\r\n        nextNumberOfBid++;\r\n        bidEnergyTrading(listOfBids[listOfBids.length-1]);\r\n    }\r\n\r\n    //make ask request and buy energy from available bids\r\n    function askEnergy(uint _day, uint _energy) public onlyRegisteredBattery {\r\n        require(_energy >= kWh, \"Wrong energy input require a minimum offer of 1 kWh\");\r\n\r\n        listOfAsks.push(ask({\r\n            consumerID: msg.sender,\r\n            energy: _energy,\r\n            timestamp: block.timestamp,\r\n            day: _day,\r\n            remainingEnergy: _energy\r\n        }));\r\n        askEnergyTrading(listOfAsks[listOfAsks.length-1]);\r\n    }\r\n\r\n    //core function for energy trading (ask case)\r\n    function askEnergyTrading(ask memory _ask) private onlyRegisteredBattery {\r\n        //require(listOfBids.length > 0, \"There is no energy offer\");\r\n\r\n        uint remainingEnergy = _ask.remainingEnergy;\r\n\r\n        for(uint i = 0; i<listOfBids.length; i++){\r\n\r\n            address _prosumerID;\r\n            bool isEnergyPurchased = false;\r\n            uint energyPurchased = 0;\r\n            uint _price = 0;\r\n\r\n            if(listOfBids[i].energy < remainingEnergy){\r\n                _prosumerID = listOfBids[i].prosumerID;\r\n                energyPurchased = listOfBids[i].energy; \r\n                remainingEnergy = remainingEnergy - listOfBids[i].energy;\r\n                listOfAsks[i].remainingEnergy = remainingEnergy;//-----\r\n                _price = listOfBids[i].eprice*energyPurchased; //price per kWh\r\n                listOfBids[i].energy = 0;\r\n\r\n                isEnergyPurchased = true;\r\n\r\n                //remove energy offer from the list if energy is zero\r\n                if (listOfBids.length > 1) {\r\n                    listOfBids[i] = listOfBids[listOfBids.length-1];\r\n                }\r\n                listOfBids.length--;\r\n                i--;//-----\r\n\r\n            }else if(listOfBids[i].energy == remainingEnergy){\r\n                _prosumerID = listOfBids[i].prosumerID;\r\n                energyPurchased = remainingEnergy;\r\n                _price = listOfBids[i].eprice*energyPurchased;\r\n                listOfBids[i].energy = 0;\r\n                remainingEnergy = 0;\r\n\r\n                isEnergyPurchased = true;\r\n\r\n                if (listOfBids.length > 1) {\r\n                    listOfBids[i] = listOfBids[listOfBids.length-1];\r\n                }\r\n                listOfBids.length--;\r\n\r\n            }else{\r\n                _prosumerID = listOfBids[i].prosumerID;\r\n                energyPurchased = remainingEnergy;\r\n                listOfBids[i].energy = listOfBids[i].energy - remainingEnergy;\r\n                _price = listOfBids[i].eprice*energyPurchased;\r\n                remainingEnergy = 0;\r\n\r\n                isEnergyPurchased = true;\r\n            }\r\n\r\n            //store purchase \r\n            if(isEnergyPurchased){\r\n                listOfBuyedEnergy.push(buyedEnergy({\r\n                    consumerID: msg.sender,\r\n                    prosumerID: _prosumerID,\r\n                    energy: energyPurchased,\r\n                    price: _price,\r\n                    day: _ask.day,\r\n                    timestamp: _ask.timestamp\r\n                }));\r\n            }\r\n\r\n            //remove ask request from list \r\n            if(remainingEnergy == 0){\r\n                if (listOfAsks.length > 1){\r\n                    listOfAsks[i] = listOfAsks[listOfAsks.length-1];\r\n                }\r\n                listOfAsks.length--;\r\n                break ;\r\n            }\r\n        }\r\n    }\r\n\r\n    /////Energy trading for bid case \r\n    function bidEnergyTrading(bid memory _bid) private onlyRegisteredBattery {\r\n        uint _remainingBidEnergy = _bid.energy;\r\n\r\n        for(uint i = 0; i<listOfAsks.length; i++){\r\n            \r\n            address _consumerID;\r\n            bool isEnergyPurchased = false;\r\n            uint energyPurchased = 0;\r\n            uint _price = 0;\r\n            if(listOfAsks[i].remainingEnergy < _remainingBidEnergy){\r\n                _consumerID = listOfAsks[i].consumerID;\r\n                energyPurchased = listOfAsks[i].remainingEnergy;\r\n                _remainingBidEnergy = _remainingBidEnergy - energyPurchased;\r\n                listOfBids[i].energy = _remainingBidEnergy;\r\n                _price = _bid.eprice*energyPurchased;\r\n                listOfAsks[i].remainingEnergy = 0;\r\n\r\n                isEnergyPurchased = true;\r\n\r\n                if(listOfAsks.length > 1){\r\n                    listOfAsks[i] = listOfAsks[listOfAsks.length-1];\r\n                }\r\n                listOfAsks.length--;\r\n                i--;\r\n\r\n            }else if(listOfAsks[i].remainingEnergy == _remainingBidEnergy){\r\n                _consumerID = listOfAsks[i].consumerID;\r\n                energyPurchased = _remainingBidEnergy;\r\n                _price = _bid.eprice*energyPurchased;\r\n                _remainingBidEnergy = 0;\r\n                listOfAsks[i].remainingEnergy = 0;\r\n\r\n                isEnergyPurchased = true;\r\n\r\n                if(listOfAsks.length > 1){\r\n                    listOfAsks[i] = listOfAsks[listOfAsks.length-1];\r\n                }\r\n                listOfAsks.length--;\r\n\r\n            }else{\r\n                _consumerID = listOfAsks[i].consumerID;\r\n                energyPurchased = _remainingBidEnergy;\r\n                listOfAsks[i].remainingEnergy = listOfAsks[i].remainingEnergy - energyPurchased;\r\n                _price = _bid.eprice*energyPurchased;\r\n                _remainingBidEnergy = 0;\r\n\r\n                isEnergyPurchased = true;\r\n            }\r\n\r\n            if(isEnergyPurchased){\r\n                listOfBuyedEnergy.push(buyedEnergy({\r\n                    consumerID: _consumerID,\r\n                    prosumerID: msg.sender,\r\n                    energy: energyPurchased,\r\n                    price: _price,\r\n                    day: _bid.day,\r\n                    timestamp: _bid.timestamp\r\n                }));\r\n            }\r\n\r\n            if(_remainingBidEnergy == 0){\r\n                if(listOfBids.length > 1){\r\n                    listOfBids[i] = listOfBids[listOfBids.length-1];\r\n                }\r\n                listOfBids.length--;\r\n                break;\r\n            }\r\n        }\r\n    }\r\n\r\n    //list of all ask energy requests\r\n    function viewAllAsks () public view returns (ask[] memory){\r\n        return listOfAsks;\r\n    }\r\n\r\n    function getCountOfAsks () public view returns (uint count){\r\n        return listOfAsks.length;\r\n    }\r\n\r\n    //view single ask energy request by batteryID\r\n    function getAskByBatteryId (address _consumerID) public view returns (address, uint, uint){\r\n        uint indexA = asks[_consumerID];\r\n        require(listOfAsks.length > indexA, \"Wrong index\");\r\n        require(listOfAsks[indexA].consumerID == _consumerID, \"Wrong Battery Id\");\r\n        return (listOfAsks[indexA].consumerID, listOfAsks[indexA].day, listOfAsks[indexA].energy);\r\n    }\r\n\r\n    //list of all energy purchases\r\n    function viewAllEnergyPurchases () public view returns (buyedEnergy[] memory){\r\n        return listOfBuyedEnergy;\r\n    }\r\n\r\n    //view all bids \r\n    function viewAllBids () public view returns (bid[] memory){\r\n      return listOfBids;\r\n    }\r\n\r\n    function getCountOfBids () public view returns (uint count){\r\n        return listOfBids.length;\r\n    }\r\n\r\n    //view single bid by batteryID\r\n    function getBidByBatteryID (address prosumerID, uint day, uint numberOfBid) public view returns (uint, uint, uint){\r\n        uint index = bids[prosumerID][day][numberOfBid];\r\n        require(listOfBids.length > index, \"Wrong index\");\r\n        require(listOfBids[index].day == day, \"There is no offer on this day\");\r\n        require(listOfBids[index].prosumerID == prosumerID, \"Wrong ID\");\r\n        return (listOfBids[index].numberOfBid, listOfBids[index].day, listOfBids[index].energy);\r\n    }\r\n\r\n    //Functions \"getBidsByLength\" and \"getAsksByLength\" are only for unit test\r\n    function getBidsByLength (uint _idbid) public view returns (address, uint, uint){\r\n        bid storage _bid = listOfBids[_idbid];\r\n        return(_bid.prosumerID, _bid.day, _bid.energy);\r\n    }\r\n\r\n    function getAsksByLength (uint _idask) public view returns (address, uint, uint){\r\n        ask storage _ask = listOfAsks[_idask];\r\n        return(_ask.consumerID, _ask.day, _ask.energy);\r\n    }\r\n}",
  "sourcePath": "C:/Users/Lenovo/projects/ethereum/protergia/blockchain-energy-trading-and-green-energy-certification-thesis-w-protergia/src/contracts/EnergyTrading.sol",
  "compiler": {
    "name": "solc",
    "version": "0.5.16+commit.9c3226ce.Emscripten.clang"
  },
  "schemaVersion": "3.4.1",
  "updatedAt": "2021-07-21T07:45:58.560Z",
  "devdoc": {
    "methods": {}
  },
  "userdoc": {
    "methods": {}
  }
}