{
  "contractName": "ERC1155",
  "abi": [
    {
      "anonymous": false,
      "inputs": [
        {
          "indexed": true,
          "internalType": "address",
          "name": "_owner",
          "type": "address"
        },
        {
          "indexed": true,
          "internalType": "address",
          "name": "_operator",
          "type": "address"
        },
        {
          "indexed": false,
          "internalType": "bool",
          "name": "_approved",
          "type": "bool"
        }
      ],
      "name": "ApprovalForAll",
      "type": "event"
    },
    {
      "anonymous": false,
      "inputs": [
        {
          "indexed": true,
          "internalType": "address",
          "name": "_operator",
          "type": "address"
        },
        {
          "indexed": true,
          "internalType": "address",
          "name": "_from",
          "type": "address"
        },
        {
          "indexed": true,
          "internalType": "address",
          "name": "_to",
          "type": "address"
        },
        {
          "indexed": false,
          "internalType": "uint256[]",
          "name": "_ids",
          "type": "uint256[]"
        },
        {
          "indexed": false,
          "internalType": "uint256[]",
          "name": "_values",
          "type": "uint256[]"
        }
      ],
      "name": "TransferBatch",
      "type": "event"
    },
    {
      "anonymous": false,
      "inputs": [
        {
          "indexed": true,
          "internalType": "address",
          "name": "_operator",
          "type": "address"
        },
        {
          "indexed": true,
          "internalType": "address",
          "name": "_from",
          "type": "address"
        },
        {
          "indexed": true,
          "internalType": "address",
          "name": "_to",
          "type": "address"
        },
        {
          "indexed": false,
          "internalType": "uint256",
          "name": "_id",
          "type": "uint256"
        },
        {
          "indexed": false,
          "internalType": "uint256",
          "name": "_value",
          "type": "uint256"
        }
      ],
      "name": "TransferSingle",
      "type": "event"
    },
    {
      "anonymous": false,
      "inputs": [
        {
          "indexed": false,
          "internalType": "string",
          "name": "_value",
          "type": "string"
        },
        {
          "indexed": true,
          "internalType": "uint256",
          "name": "_id",
          "type": "uint256"
        }
      ],
      "name": "URI",
      "type": "event"
    },
    {
      "constant": true,
      "inputs": [],
      "name": "ERC1155_BATCH_RECEIVED",
      "outputs": [
        {
          "internalType": "bytes4",
          "name": "",
          "type": "bytes4"
        }
      ],
      "payable": false,
      "stateMutability": "view",
      "type": "function"
    },
    {
      "constant": true,
      "inputs": [],
      "name": "ERC1155_RECEIVED",
      "outputs": [
        {
          "internalType": "bytes4",
          "name": "",
          "type": "bytes4"
        }
      ],
      "payable": false,
      "stateMutability": "view",
      "type": "function"
    },
    {
      "constant": true,
      "inputs": [
        {
          "internalType": "bytes4",
          "name": "_interfaceId",
          "type": "bytes4"
        }
      ],
      "name": "supportsInterface",
      "outputs": [
        {
          "internalType": "bool",
          "name": "",
          "type": "bool"
        }
      ],
      "payable": false,
      "stateMutability": "view",
      "type": "function"
    },
    {
      "constant": false,
      "inputs": [
        {
          "internalType": "address",
          "name": "_from",
          "type": "address"
        },
        {
          "internalType": "address",
          "name": "_to",
          "type": "address"
        },
        {
          "internalType": "uint256",
          "name": "_id",
          "type": "uint256"
        },
        {
          "internalType": "uint256",
          "name": "_value",
          "type": "uint256"
        },
        {
          "internalType": "bytes",
          "name": "_data",
          "type": "bytes"
        }
      ],
      "name": "safeTransferFrom",
      "outputs": [],
      "payable": false,
      "stateMutability": "nonpayable",
      "type": "function"
    },
    {
      "constant": false,
      "inputs": [
        {
          "internalType": "address",
          "name": "_from",
          "type": "address"
        },
        {
          "internalType": "address",
          "name": "_to",
          "type": "address"
        },
        {
          "internalType": "uint256[]",
          "name": "_ids",
          "type": "uint256[]"
        },
        {
          "internalType": "uint256[]",
          "name": "_values",
          "type": "uint256[]"
        },
        {
          "internalType": "bytes",
          "name": "_data",
          "type": "bytes"
        }
      ],
      "name": "safeBatchTransferFrom",
      "outputs": [],
      "payable": false,
      "stateMutability": "nonpayable",
      "type": "function"
    },
    {
      "constant": true,
      "inputs": [
        {
          "internalType": "address",
          "name": "_owner",
          "type": "address"
        },
        {
          "internalType": "uint256",
          "name": "_id",
          "type": "uint256"
        }
      ],
      "name": "balanceOf",
      "outputs": [
        {
          "internalType": "uint256",
          "name": "",
          "type": "uint256"
        }
      ],
      "payable": false,
      "stateMutability": "view",
      "type": "function"
    },
    {
      "constant": true,
      "inputs": [
        {
          "internalType": "address[]",
          "name": "_owners",
          "type": "address[]"
        },
        {
          "internalType": "uint256[]",
          "name": "_ids",
          "type": "uint256[]"
        }
      ],
      "name": "balanceOfBatch",
      "outputs": [
        {
          "internalType": "uint256[]",
          "name": "",
          "type": "uint256[]"
        }
      ],
      "payable": false,
      "stateMutability": "view",
      "type": "function"
    },
    {
      "constant": false,
      "inputs": [
        {
          "internalType": "address",
          "name": "_operator",
          "type": "address"
        },
        {
          "internalType": "bool",
          "name": "_approved",
          "type": "bool"
        }
      ],
      "name": "setApprovalForAll",
      "outputs": [],
      "payable": false,
      "stateMutability": "nonpayable",
      "type": "function"
    },
    {
      "constant": true,
      "inputs": [
        {
          "internalType": "address",
          "name": "_owner",
          "type": "address"
        },
        {
          "internalType": "address",
          "name": "_operator",
          "type": "address"
        }
      ],
      "name": "isApprovedForAll",
      "outputs": [
        {
          "internalType": "bool",
          "name": "",
          "type": "bool"
        }
      ],
      "payable": false,
      "stateMutability": "view",
      "type": "function"
    }
  ],
  "bytecode": "0x608060405234801561001057600080fd5b506117c1806100206000396000f3fe608060405234801561001057600080fd5b50600436106100925760003560e01c8063a22cb46511610066578063a22cb465146103e4578063e0a5c94914610434578063e985e9c514610490578063f242432a1461050c578063fc67bf1c146105d957610092565b8062fdd58e1461009757806301ffc9a7146100f95780632eb2c2d61461015e5780634e1273f4146102c1575b600080fd5b6100e3600480360360408110156100ad57600080fd5b81019080803573ffffffffffffffffffffffffffffffffffffffff16906020019092919080359060200190929190505050610635565b6040518082815260200191505060405180910390f35b6101446004803603602081101561010f57600080fd5b8101908080357bffffffffffffffffffffffffffffffffffffffffffffffffffffffff1916906020019092919050505061068f565b604051808215151515815260200191505060405180910390f35b6102bf600480360360a081101561017457600080fd5b81019080803573ffffffffffffffffffffffffffffffffffffffff169060200190929190803573ffffffffffffffffffffffffffffffffffffffff169060200190929190803590602001906401000000008111156101d157600080fd5b8201836020820111156101e357600080fd5b8035906020019184602083028401116401000000008311171561020557600080fd5b90919293919293908035906020019064010000000081111561022657600080fd5b82018360208201111561023857600080fd5b8035906020019184602083028401116401000000008311171561025a57600080fd5b90919293919293908035906020019064010000000081111561027b57600080fd5b82018360208201111561028d57600080fd5b803590602001918460018302840111640100000000831117156102af57600080fd5b9091929391929390505050610740565b005b61038d600480360360408110156102d757600080fd5b81019080803590602001906401000000008111156102f457600080fd5b82018360208201111561030657600080fd5b8035906020019184602083028401116401000000008311171561032857600080fd5b90919293919293908035906020019064010000000081111561034957600080fd5b82018360208201111561035b57600080fd5b8035906020019184602083028401116401000000008311171561037d57600080fd5b9091929391929390505050610e34565b6040518080602001828103825283818151815260200191508051906020019060200280838360005b838110156103d05780820151818401526020810190506103b5565b505050509050019250505060405180910390f35b610432600480360360408110156103fa57600080fd5b81019080803573ffffffffffffffffffffffffffffffffffffffff169060200190929190803515159060200190929190505050610f4a565b005b61043c61104b565b60405180827bffffffffffffffffffffffffffffffffffffffffffffffffffffffff19167bffffffffffffffffffffffffffffffffffffffffffffffffffffffff1916815260200191505060405180910390f35b6104f2600480360360408110156104a657600080fd5b81019080803573ffffffffffffffffffffffffffffffffffffffff169060200190929190803573ffffffffffffffffffffffffffffffffffffffff169060200190929190505050611056565b604051808215151515815260200191505060405180910390f35b6105d7600480360360a081101561052257600080fd5b81019080803573ffffffffffffffffffffffffffffffffffffffff169060200190929190803573ffffffffffffffffffffffffffffffffffffffff16906020019092919080359060200190929190803590602001909291908035906020019064010000000081111561059357600080fd5b8201836020820111156105a557600080fd5b803590602001918460018302840111640100000000831117156105c757600080fd5b90919293919293905050506110ea565b005b6105e1611692565b60405180827bffffffffffffffffffffffffffffffffffffffffffffffffffffffff19167bffffffffffffffffffffffffffffffffffffffffffffffffffffffff1916815260200191505060405180910390f35b600080600083815260200190815260200160002060008473ffffffffffffffffffffffffffffffffffffffff1673ffffffffffffffffffffffffffffffffffffffff16815260200190815260200160002054905092915050565b60006301ffc9a760e01b7bffffffffffffffffffffffffffffffffffffffffffffffffffffffff1916827bffffffffffffffffffffffffffffffffffffffffffffffffffffffff19161480610728575063d9b67a2660e01b7bffffffffffffffffffffffffffffffffffffffffffffffffffffffff1916827bffffffffffffffffffffffffffffffffffffffffffffffffffffffff1916145b15610736576001905061073b565b600090505b919050565b600073ffffffffffffffffffffffffffffffffffffffff168773ffffffffffffffffffffffffffffffffffffffff1614156107c6576040517f08c379a00000000000000000000000000000000000000000000000000000000081526004018080602001828103825260258152602001806116e26025913960400191505060405180910390fd5b838390508686905014610824576040517f08c379a00000000000000000000000000000000000000000000000000000000081526004018080602001828103825260298152602001806117646029913960400191505060405180910390fd5b3373ffffffffffffffffffffffffffffffffffffffff168873ffffffffffffffffffffffffffffffffffffffff1614806108eb575060011515600160008a73ffffffffffffffffffffffffffffffffffffffff1673ffffffffffffffffffffffffffffffffffffffff16815260200190815260200160002060003373ffffffffffffffffffffffffffffffffffffffff1673ffffffffffffffffffffffffffffffffffffffff16815260200190815260200160002060009054906101000a900460ff161515145b610940576040517f08c379a000000000000000000000000000000000000000000000000000000000815260040180806020018281038252602f815260200180611735602f913960400191505060405180910390fd5b60008090505b86869050811015610af657600087878381811061095f57fe5b905060200201359050600086868481811061097657fe5b9050602002013590506109e18160008085815260200190815260200160002060008e73ffffffffffffffffffffffffffffffffffffffff1673ffffffffffffffffffffffffffffffffffffffff1681526020019081526020016000205461169d90919063ffffffff16565b60008084815260200190815260200160002060008d73ffffffffffffffffffffffffffffffffffffffff1673ffffffffffffffffffffffffffffffffffffffff16815260200190815260200160002081905550610a9660008084815260200190815260200160002060008c73ffffffffffffffffffffffffffffffffffffffff1673ffffffffffffffffffffffffffffffffffffffff16815260200190815260200160002054826116b490919063ffffffff16565b60008084815260200190815260200160002060008c73ffffffffffffffffffffffffffffffffffffffff1673ffffffffffffffffffffffffffffffffffffffff168152602001908152602001600020819055505050806001019050610946565b508673ffffffffffffffffffffffffffffffffffffffff168873ffffffffffffffffffffffffffffffffffffffff163373ffffffffffffffffffffffffffffffffffffffff167f4a39dc06d4c0dbc64b70af90fd698a233a518aa5d07e595d983b8c0526c8f7fb898989896040518080602001806020018381038352878782818152602001925060200280828437600081840152601f19601f8201169050808301925050508381038252858582818152602001925060200280828437600081840152601f19601f820116905080830192505050965050505050505060405180910390a4610bf88773ffffffffffffffffffffffffffffffffffffffff166116ce565b15610e2a5763bc197c8160e01b7bffffffffffffffffffffffffffffffffffffffffffffffffffffffff19168773ffffffffffffffffffffffffffffffffffffffff1663bc197c81338b8a8a8a8a8a8a6040518963ffffffff1660e01b8152600401808973ffffffffffffffffffffffffffffffffffffffff1673ffffffffffffffffffffffffffffffffffffffff1681526020018873ffffffffffffffffffffffffffffffffffffffff1673ffffffffffffffffffffffffffffffffffffffff16815260200180602001806020018060200184810384528a8a82818152602001925060200280828437600081840152601f19601f8201169050808301925050508481038352888882818152602001925060200280828437600081840152601f19601f8201169050808301925050508481038252868682818152602001925080828437600081840152601f19601f8201169050808301925050509b505050505050505050505050602060405180830381600087803b158015610d7957600080fd5b505af1158015610d8d573d6000803e3d6000fd5b505050506040513d6020811015610da357600080fd5b81019080805190602001909291905050507bffffffffffffffffffffffffffffffffffffffffffffffffffffffff191614610e29576040517f08c379a000000000000000000000000000000000000000000000000000000000815260040180806020018281038252602e815260200180611707602e913960400191505060405180910390fd5b5b5050505050505050565b6060828290508585905014610e4857600080fd5b606085859050604051908082528060200260200182016040528015610e7c5781602001602082028038833980820191505090505b50905060008090505b86869050811015610f3d57600080868684818110610e9f57fe5b9050602002013581526020019081526020016000206000888884818110610ec257fe5b9050602002013573ffffffffffffffffffffffffffffffffffffffff1673ffffffffffffffffffffffffffffffffffffffff1673ffffffffffffffffffffffffffffffffffffffff16815260200190815260200160002054828281518110610f2657fe5b602002602001018181525050806001019050610e85565b5080915050949350505050565b80600160003373ffffffffffffffffffffffffffffffffffffffff1673ffffffffffffffffffffffffffffffffffffffff16815260200190815260200160002060008473ffffffffffffffffffffffffffffffffffffffff1673ffffffffffffffffffffffffffffffffffffffff16815260200190815260200160002060006101000a81548160ff0219169083151502179055508173ffffffffffffffffffffffffffffffffffffffff163373ffffffffffffffffffffffffffffffffffffffff167f17307eab39ab6107e8899845ad3d59bd9653f200f220920489ca2b5937696c3183604051808215151515815260200191505060405180910390a35050565b63f23a6e6160e01b81565b6000600160008473ffffffffffffffffffffffffffffffffffffffff1673ffffffffffffffffffffffffffffffffffffffff16815260200190815260200160002060008373ffffffffffffffffffffffffffffffffffffffff1673ffffffffffffffffffffffffffffffffffffffff16815260200190815260200160002060009054906101000a900460ff16905092915050565b600073ffffffffffffffffffffffffffffffffffffffff168573ffffffffffffffffffffffffffffffffffffffff16141561118d576040517f08c379a00000000000000000000000000000000000000000000000000000000081526004018080602001828103825260158152602001807f5f746f206d757374206265206e6f6e2d7a65726f2e000000000000000000000081525060200191505060405180910390fd5b3373ffffffffffffffffffffffffffffffffffffffff168673ffffffffffffffffffffffffffffffffffffffff161480611254575060011515600160008873ffffffffffffffffffffffffffffffffffffffff1673ffffffffffffffffffffffffffffffffffffffff16815260200190815260200160002060003373ffffffffffffffffffffffffffffffffffffffff1673ffffffffffffffffffffffffffffffffffffffff16815260200190815260200160002060009054906101000a900460ff161515145b6112a9576040517f08c379a000000000000000000000000000000000000000000000000000000000815260040180806020018281038252602f815260200180611735602f913960400191505060405180910390fd5b61130b8360008087815260200190815260200160002060008973ffffffffffffffffffffffffffffffffffffffff1673ffffffffffffffffffffffffffffffffffffffff1681526020019081526020016000205461169d90919063ffffffff16565b60008086815260200190815260200160002060008873ffffffffffffffffffffffffffffffffffffffff1673ffffffffffffffffffffffffffffffffffffffff168152602001908152602001600020819055506113c060008086815260200190815260200160002060008773ffffffffffffffffffffffffffffffffffffffff1673ffffffffffffffffffffffffffffffffffffffff16815260200190815260200160002054846116b490919063ffffffff16565b60008086815260200190815260200160002060008773ffffffffffffffffffffffffffffffffffffffff1673ffffffffffffffffffffffffffffffffffffffff168152602001908152602001600020819055508473ffffffffffffffffffffffffffffffffffffffff168673ffffffffffffffffffffffffffffffffffffffff163373ffffffffffffffffffffffffffffffffffffffff167fc3d58168c5ae7397731d063d5bbf3d657854427343f4c083240f7aacaa2d0f628787604051808381526020018281526020019250505060405180910390a46114b68573ffffffffffffffffffffffffffffffffffffffff166116ce565b1561168a5763f23a6e6160e01b7bffffffffffffffffffffffffffffffffffffffffffffffffffffffff19168573ffffffffffffffffffffffffffffffffffffffff1663f23a6e613389888888886040518763ffffffff1660e01b8152600401808773ffffffffffffffffffffffffffffffffffffffff1673ffffffffffffffffffffffffffffffffffffffff1681526020018673ffffffffffffffffffffffffffffffffffffffff1673ffffffffffffffffffffffffffffffffffffffff168152602001858152602001848152602001806020018281038252848482818152602001925080828437600081840152601f19601f820116905080830192505050975050505050505050602060405180830381600087803b1580156115d957600080fd5b505af11580156115ed573d6000803e3d6000fd5b505050506040513d602081101561160357600080fd5b81019080805190602001909291905050507bffffffffffffffffffffffffffffffffffffffffffffffffffffffff191614611689576040517f08c379a000000000000000000000000000000000000000000000000000000000815260040180806020018281038252602e815260200180611707602e913960400191505060405180910390fd5b5b505050505050565b63bc197c8160e01b81565b6000828211156116a957fe5b818303905092915050565b60008183019050828110156116c557fe5b80905092915050565b600080823b90506000811191505091905056fe64657374696e6174696f6e2061646472657373206d757374206265206e6f6e2d7a65726f2e526563656976657220636f6e747261637420646964206e6f742061636365707420746865207472616e736665722e4e656564206f70657261746f7220617070726f76616c20666f7220337264207061727479207472616e73666572732e5f69647320616e64205f76616c756573206172726179206c656e676874206d757374206d617463682ea265627a7a72315820f377e9614eda8dc34a486ada996b4bb894c6f22290fe95804f87298074cb560364736f6c63430005100032",
  "source": "pragma solidity >=0.4.21 <0.7.0;\r\n\r\nimport \"./ERC165.sol\";\r\nimport \"./SafeMath.sol\";\r\nimport \"./Address.sol\";\r\nimport \"./IERC1155TokenReceiver.sol\";\r\nimport \"./IERC1155.sol\";\r\n\r\n// A sample implementation of core ERC1155 function.\r\ncontract ERC1155 is IERC1155, ERC165\r\n{\r\n    using SafeMath for uint256;\r\n    using Address for address;\r\n\r\n    bytes4 constant public ERC1155_RECEIVED       = 0xf23a6e61;\r\n    bytes4 constant public ERC1155_BATCH_RECEIVED = 0xbc197c81;\r\n\r\n    // id => (owner => balance)\r\n    mapping (uint256 => mapping(address => uint256)) internal balances;\r\n\r\n    // owner => (operator => approved)\r\n    mapping (address => mapping(address => bool)) internal operatorApproval;\r\n\r\n/////////////////////////////////////////// ERC165 //////////////////////////////////////////////\r\n\r\n    /*\r\n        bytes4(keccak256('supportsInterface(bytes4)'));\r\n    */\r\n    bytes4 constant private INTERFACE_SIGNATURE_ERC165 = 0x01ffc9a7;\r\n\r\n    /*\r\n        bytes4(keccak256(\"safeTransferFrom(address,address,uint256,uint256,bytes)\")) ^\r\n        bytes4(keccak256(\"safeBatchTransferFrom(address,address,uint256[],uint256[],bytes)\")) ^\r\n        bytes4(keccak256(\"balanceOf(address,uint256)\")) ^\r\n        bytes4(keccak256(\"balanceOfBatch(address[],uint256[])\")) ^\r\n        bytes4(keccak256(\"setApprovalForAll(address,bool)\")) ^\r\n        bytes4(keccak256(\"isApprovedForAll(address,address)\"));\r\n    */\r\n    bytes4 constant private INTERFACE_SIGNATURE_ERC1155 = 0xd9b67a26;\r\n\r\n    function supportsInterface(bytes4 _interfaceId)\r\n    public\r\n    view\r\n    returns (bool) {\r\n         if (_interfaceId == INTERFACE_SIGNATURE_ERC165 ||\r\n             _interfaceId == INTERFACE_SIGNATURE_ERC1155) {\r\n            return true;\r\n         }\r\n\r\n         return false;\r\n    }\r\n\r\n/////////////////////////////////////////// ERC1155 //////////////////////////////////////////////\r\n\r\n    /**\r\n        @notice Transfers value amount of an _id from the _from address to the _to addresses specified. Each parameter array should be the same length, with each index correlating.\r\n        @dev MUST emit TransferSingle event on success.\r\n        Caller must be approved to manage the _from account's tokens (see isApprovedForAll).\r\n        MUST Throw if `_to` is the zero address.\r\n        MUST Throw if `_id` is not a valid token ID.\r\n        MUST Throw on any other error.\r\n        When transfer is complete, this function MUST check if `_to` is a smart contract (code size > 0). If so, it MUST call `onERC1155Received` on `_to` and revert if the return value is not `bytes4(keccak256(\"onERC1155Received(address,address,uint256,uint256,bytes)\"))`.\r\n        @param _from    Source addresses\r\n        @param _to      Target addresses\r\n        @param _id      ID of the token type\r\n        @param _value   Transfer amount\r\n        @param _data    Additional data with no specified format, sent in call to `_to`\r\n    */\r\n    function safeTransferFrom(address _from, address _to, uint256 _id, uint256 _value, bytes calldata _data) external {\r\n\r\n        require(_to != address(0x0), \"_to must be non-zero.\");\r\n        require(_from == msg.sender || operatorApproval[_from][msg.sender] == true, \"Need operator approval for 3rd party transfers.\");\r\n\r\n        // SafeMath will throw with insuficient funds _from\r\n        // or if _id is not valid (balance will be 0)\r\n        balances[_id][_from] = balances[_id][_from].sub(_value);\r\n        balances[_id][_to]   = _value.add(balances[_id][_to]);\r\n\r\n        emit TransferSingle(msg.sender, _from, _to, _id, _value);\r\n\r\n        if (_to.isContract()) {\r\n            require(ERC1155TokenReceiver(_to).onERC1155Received(msg.sender, _from, _id, _value, _data) == ERC1155_RECEIVED, \"Receiver contract did not accept the transfer.\");\r\n        }\r\n    }\r\n\r\n    /**\r\n        @notice Send multiple types of Tokens from a 3rd party in one transfer (with safety call).\r\n        @dev MUST emit TransferBatch event on success.\r\n        Caller must be approved to manage the _from account's tokens (see isApprovedForAll).\r\n        MUST Throw if `_to` is the zero address.\r\n        MUST Throw if any of the `_ids` is not a valid token ID.\r\n        MUST Throw on any other error.\r\n        When transfer is complete, this function MUST check if `_to` is a smart contract (code size > 0). If so, it MUST call `onERC1155BatchReceived` on `_to` and revert if the return value is not `bytes4(keccak256(\"onERC1155BatchReceived(address,address,uint256[],uint256[],bytes)\"))`.\r\n        @param _from    Source address\r\n        @param _to      Target address\r\n        @param _ids     IDs of each token type\r\n        @param _values  Transfer amounts per token type\r\n        @param _data    Additional data with no specified format, sent in call to `_to`\r\n    */\r\n    function safeBatchTransferFrom(address _from, address _to, uint256[] calldata _ids, uint256[] calldata _values, bytes calldata _data) external {\r\n\r\n        // MUST Throw on errors\r\n        require(_to != address(0x0), \"destination address must be non-zero.\");\r\n        require(_ids.length == _values.length, \"_ids and _values array lenght must match.\");\r\n        require(_from == msg.sender || operatorApproval[_from][msg.sender] == true, \"Need operator approval for 3rd party transfers.\");\r\n\r\n        for (uint256 i = 0; i < _ids.length; ++i) {\r\n            uint256 id = _ids[i];\r\n            uint256 value = _values[i];\r\n\r\n            // SafeMath will throw with insuficient funds _from\r\n            // or if _id is not valid (balance will be 0)\r\n            balances[id][_from] = balances[id][_from].sub(value);\r\n            balances[id][_to]   = value.add(balances[id][_to]);\r\n        }\r\n\r\n        // MUST emit event\r\n        emit TransferBatch(msg.sender, _from, _to, _ids, _values);\r\n\r\n        // Now that the balances are updated,\r\n        // call onERC1155BatchReceived if the destination is a contract\r\n        if (_to.isContract()) {\r\n            require(ERC1155TokenReceiver(_to).onERC1155BatchReceived(msg.sender, _from, _ids, _values, _data) == ERC1155_BATCH_RECEIVED, \"Receiver contract did not accept the transfer.\");\r\n        }\r\n    }\r\n\r\n    /**\r\n        @notice Get the balance of an account's Tokens.\r\n        @param _owner  The address of the token holder\r\n        @param _id     ID of the Token\r\n        @return        The _owner's balance of the Token type requested\r\n     */\r\n    function balanceOf(address _owner, uint256 _id) external view returns (uint256) {\r\n        // The balance of any account can be calculated from the Transfer events history.\r\n        // However, since we need to keep the balances to validate transfer request,\r\n        // there is no extra cost to also privide a querry function.\r\n        return balances[_id][_owner];\r\n    }\r\n\r\n\r\n    /**\r\n        @notice Get the balance of multiple account/token pairs\r\n        @param _owners The addresses of the token holders\r\n        @param _ids    ID of the Tokens\r\n        @return        The _owner's balance of the Token types requested\r\n     */\r\n    function balanceOfBatch(address[] calldata _owners, uint256[] calldata _ids) external view returns (uint256[] memory) {\r\n\r\n        require(_owners.length == _ids.length);\r\n\r\n        uint256[] memory balances_ = new uint256[](_owners.length);\r\n\r\n        for (uint256 i = 0; i < _owners.length; ++i) {\r\n            balances_[i] = balances[_ids[i]][_owners[i]];\r\n        }\r\n\r\n        return balances_;\r\n    }\r\n\r\n    /**\r\n        @notice Enable or disable approval for a third party (\"operator\") to manage all of the caller's tokens.\r\n        @dev MUST emit the ApprovalForAll event on success.\r\n        @param _operator  Address to add to the set of authorized operators\r\n        @param _approved  True if the operator is approved, false to revoke approval\r\n    */\r\n    function setApprovalForAll(address _operator, bool _approved) external {\r\n        operatorApproval[msg.sender][_operator] = _approved;\r\n        emit ApprovalForAll(msg.sender, _operator, _approved);\r\n    }\r\n\r\n    /**\r\n        @notice Queries the approval status of an operator for a given owner.\r\n        @param _owner     The owner of the Tokens\r\n        @param _operator  Address of authorized operator\r\n        @return           True if the operator is approved, false if not\r\n    */\r\n    function isApprovedForAll(address _owner, address _operator) external view returns (bool) {\r\n        return operatorApproval[_owner][_operator];\r\n    }\r\n}",
  "sourcePath": "C:\\Users\\Lenovo\\projects\\ethereum\\protergia\\blockchain-energy-trading-and-green-energy-certification-thesis-w-Protergia\\src\\contracts\\token\\ERC1155.sol",
  "compiler": {
    "name": "solc",
    "version": "0.5.16+commit.9c3226ce.Emscripten.clang"
  },
  "schemaVersion": "3.3.4",
  "updatedAt": "2021-06-19T00:57:08.429Z",
  "devdoc": {
    "methods": {
      "balanceOf(address,uint256)": {
        "params": {
          "_id": "ID of the Token",
          "_owner": "The address of the token holder"
        },
        "return": "The _owner's balance of the Token type requested"
      },
      "balanceOfBatch(address[],uint256[])": {
        "params": {
          "_ids": "ID of the Tokens",
          "_owners": "The addresses of the token holders"
        },
        "return": "The _owner's balance of the Token types requested"
      },
      "isApprovedForAll(address,address)": {
        "params": {
          "_operator": "Address of authorized operator",
          "_owner": "The owner of the Tokens"
        },
        "return": "True if the operator is approved, false if not"
      },
      "safeBatchTransferFrom(address,address,uint256[],uint256[],bytes)": {
        "details": "MUST emit TransferBatch event on success. Caller must be approved to manage the _from account's tokens (see isApprovedForAll). MUST Throw if `_to` is the zero address. MUST Throw if any of the `_ids` is not a valid token ID. MUST Throw on any other error. When transfer is complete, this function MUST check if `_to` is a smart contract (code size > 0). If so, it MUST call `onERC1155BatchReceived` on `_to` and revert if the return value is not `bytes4(keccak256(\"onERC1155BatchReceived(address,address,uint256[],uint256[],bytes)\"))`.",
        "params": {
          "_data": "Additional data with no specified format, sent in call to `_to`",
          "_from": "Source address",
          "_ids": "IDs of each token type",
          "_to": "Target address",
          "_values": "Transfer amounts per token type"
        }
      },
      "safeTransferFrom(address,address,uint256,uint256,bytes)": {
        "details": "MUST emit TransferSingle event on success. Caller must be approved to manage the _from account's tokens (see isApprovedForAll). MUST Throw if `_to` is the zero address. MUST Throw if `_id` is not a valid token ID. MUST Throw on any other error. When transfer is complete, this function MUST check if `_to` is a smart contract (code size > 0). If so, it MUST call `onERC1155Received` on `_to` and revert if the return value is not `bytes4(keccak256(\"onERC1155Received(address,address,uint256,uint256,bytes)\"))`.",
        "params": {
          "_data": "Additional data with no specified format, sent in call to `_to`",
          "_from": "Source addresses",
          "_id": "ID of the token type",
          "_to": "Target addresses",
          "_value": "Transfer amount"
        }
      },
      "setApprovalForAll(address,bool)": {
        "details": "MUST emit the ApprovalForAll event on success.",
        "params": {
          "_approved": "True if the operator is approved, false to revoke approval",
          "_operator": "Address to add to the set of authorized operators"
        }
      }
    }
  },
  "userdoc": {
    "methods": {
      "balanceOf(address,uint256)": {
        "notice": "Get the balance of an account's Tokens."
      },
      "balanceOfBatch(address[],uint256[])": {
        "notice": "Get the balance of multiple account/token pairs"
      },
      "isApprovedForAll(address,address)": {
        "notice": "Queries the approval status of an operator for a given owner."
      },
      "safeBatchTransferFrom(address,address,uint256[],uint256[],bytes)": {
        "notice": "Send multiple types of Tokens from a 3rd party in one transfer (with safety call)."
      },
      "safeTransferFrom(address,address,uint256,uint256,bytes)": {
        "notice": "Transfers value amount of an _id from the _from address to the _to addresses specified. Each parameter array should be the same length, with each index correlating."
      },
      "setApprovalForAll(address,bool)": {
        "notice": "Enable or disable approval for a third party (\"operator\") to manage all of the caller's tokens."
      }
    }
  }
}