{
  "contractName": "PPA",
  "abi": [
    {
      "anonymous": false,
      "inputs": [
        {
          "indexed": true,
          "internalType": "address",
          "name": "ppaBuyer",
          "type": "address"
        }
      ],
      "name": "buyerDeregistered",
      "type": "event"
    },
    {
      "anonymous": false,
      "inputs": [
        {
          "indexed": true,
          "internalType": "address",
          "name": "ppaBuyer",
          "type": "address"
        }
      ],
      "name": "buyerRegistered",
      "type": "event"
    },
    {
      "anonymous": false,
      "inputs": [
        {
          "indexed": true,
          "internalType": "address",
          "name": "producer",
          "type": "address"
        },
        {
          "indexed": false,
          "internalType": "uint256",
          "name": "price",
          "type": "uint256"
        }
      ],
      "name": "createdPPA",
      "type": "event"
    },
    {
      "anonymous": false,
      "inputs": [
        {
          "indexed": true,
          "internalType": "address",
          "name": "producer",
          "type": "address"
        },
        {
          "indexed": true,
          "internalType": "address",
          "name": "buyer",
          "type": "address"
        },
        {
          "indexed": false,
          "internalType": "uint256",
          "name": "startDay",
          "type": "uint256"
        },
        {
          "indexed": false,
          "internalType": "uint256",
          "name": "endDay",
          "type": "uint256"
        },
        {
          "indexed": false,
          "internalType": "enum PPA.Status",
          "name": "status",
          "type": "uint8"
        }
      ],
      "name": "expiredPPA",
      "type": "event"
    },
    {
      "anonymous": false,
      "inputs": [
        {
          "indexed": true,
          "internalType": "address",
          "name": "producer",
          "type": "address"
        }
      ],
      "name": "producerDeregistered",
      "type": "event"
    },
    {
      "anonymous": false,
      "inputs": [
        {
          "indexed": true,
          "internalType": "address",
          "name": "producer",
          "type": "address"
        }
      ],
      "name": "producerRegistered",
      "type": "event"
    },
    {
      "anonymous": false,
      "inputs": [
        {
          "indexed": false,
          "internalType": "uint256",
          "name": "itemID",
          "type": "uint256"
        },
        {
          "indexed": true,
          "internalType": "address",
          "name": "buyer",
          "type": "address"
        },
        {
          "indexed": true,
          "internalType": "address",
          "name": "producer",
          "type": "address"
        }
      ],
      "name": "purchasedPPA",
      "type": "event"
    },
    {
      "constant": false,
      "inputs": [
        {
          "internalType": "address",
          "name": "abuyer",
          "type": "address"
        }
      ],
      "name": "deregisterPPABuyer",
      "outputs": [],
      "payable": false,
      "stateMutability": "nonpayable",
      "type": "function"
    },
    {
      "constant": false,
      "inputs": [],
      "name": "deregisterProducer",
      "outputs": [],
      "payable": false,
      "stateMutability": "nonpayable",
      "type": "function"
    },
    {
      "constant": false,
      "inputs": [
        {
          "internalType": "address",
          "name": "abuyer",
          "type": "address"
        }
      ],
      "name": "registerPPABuyer",
      "outputs": [],
      "payable": false,
      "stateMutability": "nonpayable",
      "type": "function"
    },
    {
      "constant": false,
      "inputs": [],
      "name": "registerProducer",
      "outputs": [],
      "payable": false,
      "stateMutability": "nonpayable",
      "type": "function"
    },
    {
      "constant": false,
      "inputs": [
        {
          "internalType": "uint256",
          "name": "_kwhPrice",
          "type": "uint256"
        },
        {
          "internalType": "uint256",
          "name": "_startDay",
          "type": "uint256"
        },
        {
          "internalType": "uint256",
          "name": "_endDay",
          "type": "uint256"
        }
      ],
      "name": "createPPA",
      "outputs": [],
      "payable": false,
      "stateMutability": "nonpayable",
      "type": "function"
    },
    {
      "constant": false,
      "inputs": [],
      "name": "claimPPA",
      "outputs": [],
      "payable": false,
      "stateMutability": "nonpayable",
      "type": "function"
    },
    {
      "constant": false,
      "inputs": [
        {
          "internalType": "uint256",
          "name": "_energy",
          "type": "uint256"
        },
        {
          "internalType": "uint256",
          "name": "_idOfMatchPPA",
          "type": "uint256"
        }
      ],
      "name": "availableKwhs",
      "outputs": [],
      "payable": false,
      "stateMutability": "nonpayable",
      "type": "function"
    },
    {
      "constant": false,
      "inputs": [
        {
          "internalType": "uint256",
          "name": "_idOfPPA",
          "type": "uint256"
        }
      ],
      "name": "buyPPAKwhs",
      "outputs": [],
      "payable": false,
      "stateMutability": "nonpayable",
      "type": "function"
    },
    {
      "constant": false,
      "inputs": [
        {
          "internalType": "uint256",
          "name": "_id",
          "type": "uint256"
        }
      ],
      "name": "killPPA",
      "outputs": [],
      "payable": false,
      "stateMutability": "nonpayable",
      "type": "function"
    },
    {
      "constant": true,
      "inputs": [],
      "name": "viewAllPPAs",
      "outputs": [
        {
          "components": [
            {
              "internalType": "address",
              "name": "buyerID",
              "type": "address"
            },
            {
              "internalType": "address",
              "name": "producerID",
              "type": "address"
            },
            {
              "internalType": "uint256",
              "name": "kwhPrice",
              "type": "uint256"
            },
            {
              "internalType": "uint256",
              "name": "startDay",
              "type": "uint256"
            },
            {
              "internalType": "uint256",
              "name": "endDay",
              "type": "uint256"
            },
            {
              "internalType": "uint256",
              "name": "id",
              "type": "uint256"
            },
            {
              "internalType": "enum PPA.Status",
              "name": "status",
              "type": "uint8"
            }
          ],
          "internalType": "struct PPA.ppa[]",
          "name": "",
          "type": "tuple[]"
        }
      ],
      "payable": false,
      "stateMutability": "view",
      "type": "function"
    },
    {
      "constant": true,
      "inputs": [],
      "name": "viewAllpurchases",
      "outputs": [
        {
          "components": [
            {
              "internalType": "address",
              "name": "buyerID",
              "type": "address"
            },
            {
              "internalType": "address",
              "name": "producerID",
              "type": "address"
            },
            {
              "internalType": "uint256",
              "name": "timestamp",
              "type": "uint256"
            },
            {
              "internalType": "uint256",
              "name": "idOfPPA",
              "type": "uint256"
            },
            {
              "internalType": "uint256",
              "name": "purchasedEnergy",
              "type": "uint256"
            }
          ],
          "internalType": "struct PPA.purchasesPPA[]",
          "name": "",
          "type": "tuple[]"
        }
      ],
      "payable": false,
      "stateMutability": "view",
      "type": "function"
    },
    {
      "constant": true,
      "inputs": [],
      "name": "viewAllApprovedPPAs",
      "outputs": [
        {
          "components": [
            {
              "internalType": "address",
              "name": "buyerID",
              "type": "address"
            },
            {
              "internalType": "address",
              "name": "producerID",
              "type": "address"
            },
            {
              "internalType": "uint256",
              "name": "kwhPrice",
              "type": "uint256"
            },
            {
              "internalType": "uint256",
              "name": "startDay",
              "type": "uint256"
            },
            {
              "internalType": "uint256",
              "name": "endDay",
              "type": "uint256"
            },
            {
              "internalType": "uint256",
              "name": "id",
              "type": "uint256"
            },
            {
              "internalType": "uint256",
              "name": "totalKwh",
              "type": "uint256"
            },
            {
              "internalType": "enum PPA.Status",
              "name": "status",
              "type": "uint8"
            }
          ],
          "internalType": "struct PPA.approvedPPA[]",
          "name": "",
          "type": "tuple[]"
        }
      ],
      "payable": false,
      "stateMutability": "view",
      "type": "function"
    },
    {
      "constant": true,
      "inputs": [
        {
          "internalType": "uint256",
          "name": "_id",
          "type": "uint256"
        }
      ],
      "name": "getApprovedPPAByID",
      "outputs": [
        {
          "internalType": "address",
          "name": "",
          "type": "address"
        },
        {
          "internalType": "address",
          "name": "",
          "type": "address"
        },
        {
          "internalType": "uint256",
          "name": "",
          "type": "uint256"
        },
        {
          "internalType": "uint256",
          "name": "",
          "type": "uint256"
        },
        {
          "internalType": "uint256",
          "name": "",
          "type": "uint256"
        }
      ],
      "payable": false,
      "stateMutability": "view",
      "type": "function"
    },
    {
      "constant": true,
      "inputs": [
        {
          "internalType": "uint256",
          "name": "_id",
          "type": "uint256"
        }
      ],
      "name": "getPPAByID",
      "outputs": [
        {
          "internalType": "address",
          "name": "",
          "type": "address"
        },
        {
          "internalType": "address",
          "name": "",
          "type": "address"
        },
        {
          "internalType": "uint256",
          "name": "",
          "type": "uint256"
        },
        {
          "internalType": "uint256",
          "name": "",
          "type": "uint256"
        },
        {
          "internalType": "uint256",
          "name": "",
          "type": "uint256"
        },
        {
          "internalType": "uint256",
          "name": "",
          "type": "uint256"
        },
        {
          "internalType": "uint256",
          "name": "",
          "type": "uint256"
        }
      ],
      "payable": false,
      "stateMutability": "view",
      "type": "function"
    },
    {
      "constant": true,
      "inputs": [],
      "name": "viewAvailableKwhs",
      "outputs": [
        {
          "components": [
            {
              "internalType": "address",
              "name": "producerID",
              "type": "address"
            },
            {
              "internalType": "uint256",
              "name": "timestamp",
              "type": "uint256"
            },
            {
              "internalType": "uint256",
              "name": "energy",
              "type": "uint256"
            },
            {
              "internalType": "uint256",
              "name": "idOfmatchContract",
              "type": "uint256"
            }
          ],
          "internalType": "struct PPA.producerEnergy[]",
          "name": "",
          "type": "tuple[]"
        }
      ],
      "payable": false,
      "stateMutability": "view",
      "type": "function"
    },
    {
      "constant": true,
      "inputs": [],
      "name": "getAvKwhs",
      "outputs": [
        {
          "internalType": "uint256",
          "name": "count",
          "type": "uint256"
        }
      ],
      "payable": false,
      "stateMutability": "view",
      "type": "function"
    }
  ],
  "bytecode": "0x608060405234801561001057600080fd5b5061304c806100206000396000f3fe608060405234801561001057600080fd5b50600436106101005760003560e01c8063ac5afa4e11610097578063e436db7811610066578063e436db781461027f578063ea1d381f14610289578063ee56659214610293578063f791560c146102af57610100565b8063ac5afa4e1461021d578063b5b5dcc114610239578063dbdf0c2114610257578063e1b0d3c01461026157610100565b80636d36a6b1116100d35780636d36a6b1146101a9578063877b0fde146101c75780638a28410b146101e55780639d88df621461020157610100565b806322e5ef3d1461010557806325163d5d146101395780633933311d1461016f5780635a6041651461018b575b600080fd5b61011f600480360361011a9190810190612542565b6102cb565b604051610130959493929190612bfc565b60405180910390f35b610153600480360361014e9190810190612542565b61035e565b6040516101669796959493929190612c4f565b60405180910390f35b6101896004803603610184919081019061256b565b61041c565b005b61019361057d565b6040516101a09190612cbe565b60405180910390f35b6101b16106e8565b6040516101be9190612e26565b60405180910390f35b6101cf6106f5565b6040516101dc9190612d02565b60405180910390f35b6101ff60048036036101fa91908101906125a7565b6107c8565b005b61021b60048036036102169190810190612519565b610a82565b005b61023760048036036102329190810190612542565b610b43565b005b61024161119d565b60405161024e9190612d24565b60405180910390f35b61025f6112c6565b005b610269611368565b6040516102769190612ce0565b60405180910390f35b6102876114c8565b005b610291611b53565b005b6102ad60048036036102a89190810190612542565b611bf5565b005b6102c960048036036102c49190810190612519565b6121d4565b005b600080600080600080600887815481106102e157fe5b906000526020600020906008020190508060010160009054906101000a900473ffffffffffffffffffffffffffffffffffffffff168160000160009054906101000a900473ffffffffffffffffffffffffffffffffffffffff16826002015483600301548460040154955095509550955095505091939590929450565b6000806000806000806000806006898154811061037757fe5b906000526020600020906007020190508060010160009054906101000a900473ffffffffffffffffffffffffffffffffffffffff168160000160009054906101000a900473ffffffffffffffffffffffffffffffffffffffff168260020154836003015484600401548560060160009054906101000a900460ff1660038111156103fd57fe5b8660050154975097509750975097509750975050919395979092949650565b6000803373ffffffffffffffffffffffffffffffffffffffff1673ffffffffffffffffffffffffffffffffffffffff16815260200190815260200160002060009054906101000a900460ff166104a7576040517f08c379a000000000000000000000000000000000000000000000000000000000815260040161049e90612dc6565b60405180910390fd5b6000339050600a60405180608001604052808373ffffffffffffffffffffffffffffffffffffffff168152602001428152602001858152602001848152509080600181540180825580915050906001820390600052602060002090600402016000909192909190915060008201518160000160006101000a81548173ffffffffffffffffffffffffffffffffffffffff021916908373ffffffffffffffffffffffffffffffffffffffff160217905550602082015181600101556040820151816002015560608201518160030155505050505050565b60606008805480602002602001604051908101604052809291908181526020016000905b828210156106df5783829060005260206000209060080201604051806101000160405290816000820160009054906101000a900473ffffffffffffffffffffffffffffffffffffffff1673ffffffffffffffffffffffffffffffffffffffff1673ffffffffffffffffffffffffffffffffffffffff1681526020016001820160009054906101000a900473ffffffffffffffffffffffffffffffffffffffff1673ffffffffffffffffffffffffffffffffffffffff1673ffffffffffffffffffffffffffffffffffffffff16815260200160028201548152602001600382015481526020016004820154815260200160058201548152602001600682015481526020016007820160009054906101000a900460ff1660038111156106c157fe5b60038111156106cc57fe5b81525050815260200190600101906105a1565b50505050905090565b6000600a80549050905090565b6060600a805480602002602001604051908101604052809291908181526020016000905b828210156107bf57838290600052602060002090600402016040518060800160405290816000820160009054906101000a900473ffffffffffffffffffffffffffffffffffffffff1673ffffffffffffffffffffffffffffffffffffffff1673ffffffffffffffffffffffffffffffffffffffff168152602001600182015481526020016002820154815260200160038201548152505081526020019060010190610719565b50505050905090565b6000803373ffffffffffffffffffffffffffffffffffffffff1673ffffffffffffffffffffffffffffffffffffffff16815260200190815260200160002060009054906101000a900460ff16610853576040517f08c379a000000000000000000000000000000000000000000000000000000000815260040161084a90612dc6565b60405180910390fd5b6000339050610862600361228d565b600061086e60036122a3565b90508383116108b2576040517f08c379a00000000000000000000000000000000000000000000000000000000081526004016108a990612e06565b60405180910390fd5b60066040518060e00160405280600073ffffffffffffffffffffffffffffffffffffffff1681526020018473ffffffffffffffffffffffffffffffffffffffff1681526020018781526020018681526020018581526020018381526020016000600381111561091d57fe5b8152509080600181540180825580915050906001820390600052602060002090600702016000909192909190915060008201518160000160006101000a81548173ffffffffffffffffffffffffffffffffffffffff021916908373ffffffffffffffffffffffffffffffffffffffff16021790555060208201518160010160006101000a81548173ffffffffffffffffffffffffffffffffffffffff021916908373ffffffffffffffffffffffffffffffffffffffff16021790555060408201518160020155606082015181600301556080820151816004015560a0820151816005015560c08201518160060160006101000a81548160ff02191690836003811115610a2557fe5b02179055505050508173ffffffffffffffffffffffffffffffffffffffff167fde0e5567d8d6d630907264bdac08cd46c86e8d6a570e0321de2ca45c49f1a2a586604051610a739190612e26565b60405180910390a25050505050565b6000809050808060010191505060008163ffffffff1614610ae1578173ffffffffffffffffffffffffffffffffffffffff167f7420b8b978434d1ce66c980ff580761f988dfca7b96378123d4717285774382c60405160405180910390a25b80600160008473ffffffffffffffffffffffffffffffffffffffff1673ffffffffffffffffffffffffffffffffffffffff16815260200190815260200160002060006101000a81548163ffffffff021916908363ffffffff1602179055505050565b600042905060008090505b600880549050811015611198578260088281548110610b6957fe5b906000526020600020906008020160050154148015610ba557508160088281548110610b9157fe5b906000526020600020906008020160040154105b1561118b57600360088281548110610bb957fe5b906000526020600020906008020160070160006101000a81548160ff02191690836003811115610be557fe5b021790555060066040518060e0016040528060088481548110610c0457fe5b906000526020600020906008020160000160009054906101000a900473ffffffffffffffffffffffffffffffffffffffff1673ffffffffffffffffffffffffffffffffffffffff16815260200160088481548110610c5e57fe5b906000526020600020906008020160010160009054906101000a900473ffffffffffffffffffffffffffffffffffffffff1673ffffffffffffffffffffffffffffffffffffffff16815260200160088481548110610cb857fe5b906000526020600020906008020160020154815260200160088481548110610cdc57fe5b906000526020600020906008020160030154815260200160088481548110610d0057fe5b906000526020600020906008020160040154815260200160088481548110610d2457fe5b9060005260206000209060080201600501548152602001600380811115610d4757fe5b8152509080600181540180825580915050906001820390600052602060002090600702016000909192909190915060008201518160000160006101000a81548173ffffffffffffffffffffffffffffffffffffffff021916908373ffffffffffffffffffffffffffffffffffffffff16021790555060208201518160010160006101000a81548173ffffffffffffffffffffffffffffffffffffffff021916908373ffffffffffffffffffffffffffffffffffffffff16021790555060408201518160020155606082015181600301556080820151816004015560a0820151816005015560c08201518160060160006101000a81548160ff02191690836003811115610e4f57fe5b0217905550505050610e9e60088281548110610e6757fe5b906000526020600020906008020160000160009054906101000a900473ffffffffffffffffffffffffffffffffffffffff166121d4565b60088181548110610eab57fe5b906000526020600020906008020160000160009054906101000a900473ffffffffffffffffffffffffffffffffffffffff1673ffffffffffffffffffffffffffffffffffffffff1660088281548110610f0057fe5b906000526020600020906008020160010160009054906101000a900473ffffffffffffffffffffffffffffffffffffffff1673ffffffffffffffffffffffffffffffffffffffff167fc3384a2daef78f9743d45a2f054a32d11ee7ef405de6fd4724ec6f77ba049f7860088481548110610f7657fe5b90600052602060002090600802016003015460088581548110610f9557fe5b90600052602060002090600802016004015460088681548110610fb457fe5b906000526020600020906008020160070160009054906101000a900460ff16604051610fe293929190612e41565b60405180910390a3600160088054905011156111705760086001600880549050038154811061100d57fe5b90600052602060002090600802016008828154811061102857fe5b90600052602060002090600802016000820160009054906101000a900473ffffffffffffffffffffffffffffffffffffffff168160000160006101000a81548173ffffffffffffffffffffffffffffffffffffffff021916908373ffffffffffffffffffffffffffffffffffffffff1602179055506001820160009054906101000a900473ffffffffffffffffffffffffffffffffffffffff168160010160006101000a81548173ffffffffffffffffffffffffffffffffffffffff021916908373ffffffffffffffffffffffffffffffffffffffff16021790555060028201548160020155600382015481600301556004820154816004015560058201548160050155600682015481600601556007820160009054906101000a900460ff168160070160006101000a81548160ff0219169083600381111561116757fe5b02179055509050505b600880548091906001900361118591906122b1565b50611198565b8080600101915050610b4e565b505050565b6060600b805480602002602001604051908101604052809291908181526020016000905b828210156112bd57838290600052602060002090600502016040518060a00160405290816000820160009054906101000a900473ffffffffffffffffffffffffffffffffffffffff1673ffffffffffffffffffffffffffffffffffffffff1673ffffffffffffffffffffffffffffffffffffffff1681526020016001820160009054906101000a900473ffffffffffffffffffffffffffffffffffffffff1673ffffffffffffffffffffffffffffffffffffffff1673ffffffffffffffffffffffffffffffffffffffff1681526020016002820154815260200160038201548152602001600482015481525050815260200190600101906111c1565b50505050905090565b60003390508073ffffffffffffffffffffffffffffffffffffffff167f769268709e630d5b24d4c651adeae2d7a75c3dd7c3876275233e21570be22fd460405160405180910390a260016000808373ffffffffffffffffffffffffffffffffffffffff1673ffffffffffffffffffffffffffffffffffffffff16815260200190815260200160002060006101000a81548160ff02191690831515021790555050565b60606006805480602002602001604051908101604052809291908181526020016000905b828210156114bf57838290600052602060002090600702016040518060e00160405290816000820160009054906101000a900473ffffffffffffffffffffffffffffffffffffffff1673ffffffffffffffffffffffffffffffffffffffff1673ffffffffffffffffffffffffffffffffffffffff1681526020016001820160009054906101000a900473ffffffffffffffffffffffffffffffffffffffff1673ffffffffffffffffffffffffffffffffffffffff1673ffffffffffffffffffffffffffffffffffffffff168152602001600282015481526020016003820154815260200160048201548152602001600582015481526020016006820160009054906101000a900460ff1660038111156114a157fe5b60038111156114ac57fe5b815250508152602001906001019061138c565b50505050905090565b6000809050600033905060008090505b600680549050811015611b4e578173ffffffffffffffffffffffffffffffffffffffff166006828154811061150957fe5b906000526020600020906007020160010160009054906101000a900473ffffffffffffffffffffffffffffffffffffffff1673ffffffffffffffffffffffffffffffffffffffff161415611592576040517f08c379a000000000000000000000000000000000000000000000000000000000815260040161158990612de6565b60405180910390fd5b6002600381111561159f57fe5b600682815481106115ac57fe5b906000526020600020906007020160060160009054906101000a900460ff1660038111156115d657fe5b1415611617576040517f08c379a000000000000000000000000000000000000000000000000000000000815260040161160e90612d66565b60405180910390fd5b6000600381111561162457fe5b6006828154811061163157fe5b906000526020600020906007020160060160009054906101000a900460ff16600381111561165b57fe5b1415611b415760086040518061010001604052808473ffffffffffffffffffffffffffffffffffffffff1681526020016006848154811061169857fe5b906000526020600020906007020160010160009054906101000a900473ffffffffffffffffffffffffffffffffffffffff1673ffffffffffffffffffffffffffffffffffffffff168152602001600684815481106116f257fe5b90600052602060002090600702016002015481526020016006848154811061171657fe5b90600052602060002090600702016003015481526020016006848154811061173a57fe5b90600052602060002090600702016004015481526020016006848154811061175e57fe5b90600052602060002090600702016005015481526020018581526020016001600381111561178857fe5b8152509080600181540180825580915050906001820390600052602060002090600802016000909192909190915060008201518160000160006101000a81548173ffffffffffffffffffffffffffffffffffffffff021916908373ffffffffffffffffffffffffffffffffffffffff16021790555060208201518160010160006101000a81548173ffffffffffffffffffffffffffffffffffffffff021916908373ffffffffffffffffffffffffffffffffffffffff16021790555060408201518160020155606082015181600301556080820151816004015560a0820151816005015560c0820151816006015560e08201518160070160006101000a81548160ff0219169083600381111561189a57fe5b02179055505050506118ab82610a82565b600681815481106118b857fe5b906000526020600020906007020160010160009054906101000a900473ffffffffffffffffffffffffffffffffffffffff1673ffffffffffffffffffffffffffffffffffffffff166006828154811061190d57fe5b906000526020600020906007020160000160009054906101000a900473ffffffffffffffffffffffffffffffffffffffff1673ffffffffffffffffffffffffffffffffffffffff167f5e51fbd7f7e38ee6927fb25d7e32916c08f102ece1d3d65df27ec76e3a43c3a76006848154811061198357fe5b9060005260206000209060070201600501546040516119a29190612e26565b60405180910390a360016006805490501115611b26576006600160068054905003815481106119cd57fe5b9060005260206000209060070201600682815481106119e857fe5b90600052602060002090600702016000820160009054906101000a900473ffffffffffffffffffffffffffffffffffffffff168160000160006101000a81548173ffffffffffffffffffffffffffffffffffffffff021916908373ffffffffffffffffffffffffffffffffffffffff1602179055506001820160009054906101000a900473ffffffffffffffffffffffffffffffffffffffff168160010160006101000a81548173ffffffffffffffffffffffffffffffffffffffff021916908373ffffffffffffffffffffffffffffffffffffffff160217905550600282015481600201556003820154816003015560048201548160040155600582015481600501556006820160009054906101000a900460ff168160060160006101000a81548160ff02191690836003811115611b1d57fe5b02179055509050505b6006805480919060019003611b3b91906122e3565b50611b4e565b80806001019150506114d8565b505050565b60003390508073ffffffffffffffffffffffffffffffffffffffff167f0bb6d68f109745f7ae353e3b90fff6fb8245c34cca44f18d9dfa00e4d705fa6460405160405180910390a260008060008373ffffffffffffffffffffffffffffffffffffffff1673ffffffffffffffffffffffffffffffffffffffff16815260200190815260200160002060006101000a81548160ff02191690831515021790555050565b6000600160003373ffffffffffffffffffffffffffffffffffffffff1673ffffffffffffffffffffffffffffffffffffffff16815260200190815260200160002060009054906101000a900463ffffffff1663ffffffff1611611c8d576040517f08c379a0000000000000000000000000000000000000000000000000000000008152600401611c8490612d86565b60405180910390fd5b6000429050600033905060008090505b6008805490508110156121ce5760008090505b600a805490508110156121c0576000809050600a8281548110611ccf57fe5b906000526020600020906004020160000160009054906101000a900473ffffffffffffffffffffffffffffffffffffffff1673ffffffffffffffffffffffffffffffffffffffff1660088481548110611d2457fe5b906000526020600020906008020160010160009054906101000a900473ffffffffffffffffffffffffffffffffffffffff1673ffffffffffffffffffffffffffffffffffffffff16148015611d9657508560088481548110611d8257fe5b906000526020600020906008020160050154145b8015611ddd5750600a8281548110611daa57fe5b90600052602060002090600402016003015460088481548110611dc957fe5b906000526020600020906008020160050154145b1561209a578460088481548110611df057fe5b9060005260206000209060080201600301541115611e43576040517f08c379a0000000000000000000000000000000000000000000000000000000008152600401611e3a90612d46565b60405180910390fd5b8460088481548110611e5157fe5b9060005260206000209060080201600401541015611ea4576040517f08c379a0000000000000000000000000000000000000000000000000000000008152600401611e9b90612da6565b60405180910390fd5b600a8281548110611eb157fe5b90600052602060002090600402016002015490508060088481548110611ed357fe5b9060005260206000209060080201600601540160088481548110611ef357fe5b9060005260206000209060080201600601819055506000600a8381548110611f1757fe5b906000526020600020906004020160020181905550600b6040518060a001604052808673ffffffffffffffffffffffffffffffffffffffff168152602001600a8581548110611f6257fe5b906000526020600020906004020160000160009054906101000a900473ffffffffffffffffffffffffffffffffffffffff1673ffffffffffffffffffffffffffffffffffffffff168152602001878152602001888152602001838152509080600181540180825580915050906001820390600052602060002090600502016000909192909190915060008201518160000160006101000a81548173ffffffffffffffffffffffffffffffffffffffff021916908373ffffffffffffffffffffffffffffffffffffffff16021790555060208201518160010160006101000a81548173ffffffffffffffffffffffffffffffffffffffff021916908373ffffffffffffffffffffffffffffffffffffffff1602179055506040820151816002015560608201518160030155608082015181600401555050505b6000600a83815481106120a957fe5b90600052602060002090600402016002015414156121b2576001600a80549050111561219657600a6001600a8054905003815481106120e457fe5b9060005260206000209060040201600a83815481106120ff57fe5b90600052602060002090600402016000820160009054906101000a900473ffffffffffffffffffffffffffffffffffffffff168160000160006101000a81548173ffffffffffffffffffffffffffffffffffffffff021916908373ffffffffffffffffffffffffffffffffffffffff1602179055506001820154816001015560028201548160020155600382015481600301559050505b600a8054809190600190036121ab9190612315565b50506121c0565b508080600101915050611cb0565b508080600101915050611c9d565b50505050565b600080905060008163ffffffff161461222b578173ffffffffffffffffffffffffffffffffffffffff167fac6737d5d897955c9efa7aa0f05d006183e2529acaba2d32b6152acbff7aff9f60405160405180910390a25b80600160008473ffffffffffffffffffffffffffffffffffffffff1673ffffffffffffffffffffffffffffffffffffffff16815260200190815260200160002060006101000a81548163ffffffff021916908363ffffffff1602179055505050565b6001816000016000828254019250508190555050565b600081600001549050919050565b8154818355818111156122de576008028160080283600052602060002091820191016122dd9190612347565b5b505050565b8154818355818111156123105760070281600702836000526020600020918201910161230f91906123f0565b5b505050565b815481835581811115612342576004028160040283600052602060002091820191016123419190612491565b5b505050565b6123ed91905b808211156123e957600080820160006101000a81549073ffffffffffffffffffffffffffffffffffffffff02191690556001820160006101000a81549073ffffffffffffffffffffffffffffffffffffffff0219169055600282016000905560038201600090556004820160009055600582016000905560068201600090556007820160006101000a81549060ff02191690555060080161234d565b5090565b90565b61248e91905b8082111561248a57600080820160006101000a81549073ffffffffffffffffffffffffffffffffffffffff02191690556001820160006101000a81549073ffffffffffffffffffffffffffffffffffffffff021916905560028201600090556003820160009055600482016000905560058201600090556006820160006101000a81549060ff0219169055506007016123f6565b5090565b90565b6124ec91905b808211156124e857600080820160006101000a81549073ffffffffffffffffffffffffffffffffffffffff021916905560018201600090556002820160009055600382016000905550600401612497565b5090565b90565b6000813590506124fe81612fdb565b92915050565b60008135905061251381612ff2565b92915050565b60006020828403121561252b57600080fd5b6000612539848285016124ef565b91505092915050565b60006020828403121561255457600080fd5b600061256284828501612504565b91505092915050565b6000806040838503121561257e57600080fd5b600061258c85828601612504565b925050602061259d85828601612504565b9150509250929050565b6000806000606084860312156125bc57600080fd5b60006125ca86828701612504565b93505060206125db86828701612504565b92505060406125ec86828701612504565b9150509250925092565b600061260283836129f1565b6101008301905092915050565b600061261b8383612a93565b60e08301905092915050565b60006126338383612b21565b60808301905092915050565b600061264b8383612b76565b60a08301905092915050565b61266081612f6d565b82525050565b61266f81612f6d565b82525050565b600061268082612eb8565b61268a8185612f18565b935061269583612e78565b8060005b838110156126c65781516126ad88826125f6565b97506126b883612ee4565b925050600181019050612699565b5085935050505092915050565b60006126de82612ec3565b6126e88185612f29565b93506126f383612e88565b8060005b8381101561272457815161270b888261260f565b975061271683612ef1565b9250506001810190506126f7565b5085935050505092915050565b600061273c82612ece565b6127468185612f3a565b935061275183612e98565b8060005b838110156127825781516127698882612627565b975061277483612efe565b925050600181019050612755565b5085935050505092915050565b600061279a82612ed9565b6127a48185612f4b565b93506127af83612ea8565b8060005b838110156127e05781516127c7888261263f565b97506127d283612f0b565b9250506001810190506127b3565b5085935050505092915050565b6127f681612fbc565b82525050565b61280581612fbc565b82525050565b6000612818601583612f5c565b91507f505041206973206e6f74206163746976652079657400000000000000000000006000830152602082019050919050565b6000612858600583612f5c565b91507f6572726f720000000000000000000000000000000000000000000000000000006000830152602082019050919050565b6000612898600f83612f5c565b91507f4f6e6c7920505041206f776e65727300000000000000000000000000000000006000830152602082019050919050565b60006128d8600f83612f5c565b91507f50504120686173206578706972656400000000000000000000000000000000006000830152602082019050919050565b6000612918601e83612f5c565b91507f596f75206d75737420626520612063757272656e742050726f647563657200006000830152602082019050919050565b6000612958601383612f5c565b91507f57726f6e672061646472657373206275796572000000000000000000000000006000830152602082019050919050565b6000612998602183612f5c565b91507f4974277320696d706f737369626c6520656e64446179203c207374617274446160008301527f79000000000000000000000000000000000000000000000000000000000000006020830152604082019050919050565b61010082016000820151612a086000850182612657565b506020820151612a1b6020850182612657565b506040820151612a2e6040850182612bde565b506060820151612a416060850182612bde565b506080820151612a546080850182612bde565b5060a0820151612a6760a0850182612bde565b5060c0820151612a7a60c0850182612bde565b5060e0820151612a8d60e08501826127ed565b50505050565b60e082016000820151612aa96000850182612657565b506020820151612abc6020850182612657565b506040820151612acf6040850182612bde565b506060820151612ae26060850182612bde565b506080820151612af56080850182612bde565b5060a0820151612b0860a0850182612bde565b5060c0820151612b1b60c08501826127ed565b50505050565b608082016000820151612b376000850182612657565b506020820151612b4a6020850182612bde565b506040820151612b5d6040850182612bde565b506060820151612b706060850182612bde565b50505050565b60a082016000820151612b8c6000850182612657565b506020820151612b9f6020850182612657565b506040820151612bb26040850182612bde565b506060820151612bc56060850182612bde565b506080820151612bd86080850182612bde565b50505050565b612be781612fb2565b82525050565b612bf681612fb2565b82525050565b600060a082019050612c116000830188612666565b612c1e6020830187612666565b612c2b6040830186612bed565b612c386060830185612bed565b612c456080830184612bed565b9695505050505050565b600060e082019050612c64600083018a612666565b612c716020830189612666565b612c7e6040830188612bed565b612c8b6060830187612bed565b612c986080830186612bed565b612ca560a0830185612bed565b612cb260c0830184612bed565b98975050505050505050565b60006020820190508181036000830152612cd88184612675565b905092915050565b60006020820190508181036000830152612cfa81846126d3565b905092915050565b60006020820190508181036000830152612d1c8184612731565b905092915050565b60006020820190508181036000830152612d3e818461278f565b905092915050565b60006020820190508181036000830152612d5f8161280b565b9050919050565b60006020820190508181036000830152612d7f8161284b565b9050919050565b60006020820190508181036000830152612d9f8161288b565b9050919050565b60006020820190508181036000830152612dbf816128cb565b9050919050565b60006020820190508181036000830152612ddf8161290b565b9050919050565b60006020820190508181036000830152612dff8161294b565b9050919050565b60006020820190508181036000830152612e1f8161298b565b9050919050565b6000602082019050612e3b6000830184612bed565b92915050565b6000606082019050612e566000830186612bed565b612e636020830185612bed565b612e7060408301846127fc565b949350505050565b6000819050602082019050919050565b6000819050602082019050919050565b6000819050602082019050919050565b6000819050602082019050919050565b600081519050919050565b600081519050919050565b600081519050919050565b600081519050919050565b6000602082019050919050565b6000602082019050919050565b6000602082019050919050565b6000602082019050919050565b600082825260208201905092915050565b600082825260208201905092915050565b600082825260208201905092915050565b600082825260208201905092915050565b600082825260208201905092915050565b6000612f7882612f92565b9050919050565b6000819050612f8d82612fce565b919050565b600073ffffffffffffffffffffffffffffffffffffffff82169050919050565b6000819050919050565b6000612fc782612f7f565b9050919050565b60048110612fd857fe5b50565b612fe481612f6d565b8114612fef57600080fd5b50565b612ffb81612fb2565b811461300657600080fd5b5056fea365627a7a72315820dc491228bf93f800d91e8603a4eb21d4cf135ef2056ba07977a2d70e926726b96c6578706572696d656e74616cf564736f6c63430005100040",
  "source": "pragma solidity >=0.4.21 <0.9.0;\r\npragma experimental ABIEncoderV2;\r\n\r\nimport \"src/contracts/SafeMath.sol\";\r\nimport \"src/contracts/Counters.sol\";\r\n\r\ncontract producerRegistry {\r\n    event producerRegistered(address indexed producer);\r\n    event producerDeregistered(address indexed producer);\r\n    \r\n    // map address to bool \"is a registered producer\"\r\n    mapping(address => bool) producers;\r\n    \r\n    modifier onlyRegisteredProducers {\r\n        require(producers[msg.sender], \"You must be a current Producer\");\r\n        _;\r\n    }\r\n    \r\n    function registerProducer() public {\r\n        address aproducer = msg.sender;\r\n        emit producerRegistered(aproducer);\r\n        producers[aproducer] = true;\r\n    }\r\n\r\n    function deregisterProducer() public {\r\n        address aproducer = msg.sender;\r\n        emit producerDeregistered(aproducer);\r\n        producers[aproducer] = false;\r\n    }\r\n}\r\n\r\ncontract ppaBuyerRegistry {\r\n    event buyerRegistered(address indexed ppaBuyer);\r\n    event buyerDeregistered(address indexed ppaBuyer);\r\n\r\n    mapping(address => uint32) ppaBuyers;\r\n    address[] listOfPPABuyers;\r\n\r\n    modifier onlyPPABuyers {\r\n      require(ppaBuyers[msg.sender] > 0, \"Only PPA owners\");\r\n      _;\r\n    }\r\n    \r\n    function deregisterPPABuyer(address abuyer) public {\r\n        uint32 abuyerID = 0;\r\n        if(abuyerID != 0) {\r\n            emit buyerDeregistered(abuyer);\r\n        }\r\n        ppaBuyers[abuyer] = abuyerID;\r\n    }\r\n\r\n    function registerPPABuyer(address abuyer) public {\r\n        uint32 abuyerID = 0;\r\n        abuyerID++;\r\n        if(abuyerID != 0) {\r\n            emit buyerRegistered(abuyer);\r\n        }\r\n        ppaBuyers[abuyer] = abuyerID;\r\n    }\r\n}\r\n\r\n//Corporate PPAs\r\ncontract PPA is producerRegistry, ppaBuyerRegistry {\r\n\r\n    //using SafeMath for uint256;\r\n    using Counters for Counters.Counter;\r\n    Counters.Counter private contractID;\r\n\r\n    mapping (uint => uint) price;\r\n\r\n    enum Status {Pending, Approved, Rejected, Expired}\r\n    event createdPPA(address indexed producer, uint price);\r\n    event purchasedPPA(uint itemID, address indexed buyer, address indexed producer);\r\n    event expiredPPA(address indexed producer, address indexed buyer, uint startDay, uint endDay, Status status);\r\n\r\n    struct ppa {               //Struct with all PPA contracts\r\n        address buyerID;\r\n        address producerID;\r\n        uint kwhPrice;         //price per energy(kwh)\r\n        uint startDay;\r\n        uint endDay;           //It must be timestamp (ex. uint endDay = 1833746400; // 2028-02-10 00:00:00)\r\n        uint id;               //id number of each ppa contract\r\n        Status status;\r\n    }\r\n\r\n    mapping(address => ppa) ppas;\r\n    ppa[] listOfPPAs;\r\n    //uint contractID = 0;\r\n\r\n    struct approvedPPA{       //Struct only for approved PPAs\r\n        address buyerID;\r\n        address producerID;\r\n        uint kwhPrice;        //price per energy(kwh)\r\n        uint startDay;\r\n        uint endDay;          //It must be timestamp (ex. uint endDay = 1833746400; // 2028-02-10 00:00:00)\r\n        uint id;              //id number of each ppa contract\r\n        uint totalKwh;        //total amount of purchased kwh\r\n        Status status;\r\n    }\r\n\r\n    mapping(address => mapping(uint => approvedPPA)) approvedPPAs;\r\n    approvedPPA[] Appas;\r\n\r\n    struct producerEnergy{      //Trial struct for available producer' s energy in order to sale \r\n        address producerID;\r\n        uint timestamp;\r\n        uint energy;\r\n        uint idOfmatchContract; //id of ppa contract that refers to\r\n    }\r\n\r\n    mapping(address => mapping(uint => uint)) pEnergy;\r\n    producerEnergy[] listOfkwhs;\r\n\r\n    struct purchasesPPA{\r\n        address buyerID;\r\n        address producerID;\r\n        uint timestamp;\r\n        uint idOfPPA;\r\n        uint purchasedEnergy;\r\n    }\r\n\r\n    purchasesPPA[] listOfprchs;\r\n\r\n    function createPPA(uint _kwhPrice,uint _startDay, uint _endDay) public onlyRegisteredProducers { //onlyRegisteredProducers\r\n        address _producerID = msg.sender;\r\n        //uint currentTime = block.timestamp;\r\n        //uint idOfContract = _endDay-currentTime;\r\n        contractID.increment();\r\n        uint currentID = contractID.current();\r\n        require(_endDay > _startDay, \"It's impossible endDay < startDay\");\r\n        listOfPPAs.push(ppa({\r\n            buyerID: address(0x0),\r\n            producerID: _producerID,\r\n            kwhPrice: _kwhPrice,\r\n            startDay: _startDay,\r\n            endDay: _endDay,\r\n            id: currentID,\r\n            status: Status.Pending\r\n        }));\r\n        //nextID++;\r\n        emit createdPPA(_producerID, _kwhPrice);\r\n    }\r\n\r\n    function claimPPA() public {\r\n        uint _totalKwh = 0;\r\n        address buyerId = msg.sender;\r\n        for(uint i = 0; i<listOfPPAs.length; i++){\r\n            require(listOfPPAs[i].producerID != buyerId, \"Wrong address buyer\");\r\n            require(listOfPPAs[i].status != Status.Rejected, \"error\");\r\n            if(listOfPPAs[i].status == Status.Pending){\r\n                Appas.push(approvedPPA({\r\n                    buyerID: buyerId,\r\n                    producerID: listOfPPAs[i].producerID,\r\n                    kwhPrice: listOfPPAs[i].kwhPrice,\r\n                    startDay: listOfPPAs[i].startDay,\r\n                    endDay: listOfPPAs[i].endDay,\r\n                    id: listOfPPAs[i].id,\r\n                    totalKwh: _totalKwh,\r\n                    status: Status.Approved\r\n                }));\r\n            ppaBuyerRegistry.registerPPABuyer(buyerId);\r\n            emit purchasedPPA(listOfPPAs[i].id, listOfPPAs[i].buyerID, listOfPPAs[i].producerID);\r\n            if(listOfPPAs.length > 1){\r\n                listOfPPAs[i] = listOfPPAs[listOfPPAs.length-1];\r\n            }\r\n            listOfPPAs.length--;\r\n            break;\r\n            }\r\n        }\r\n    }\r\n\r\n    //this is a trial function just for PPA_energy_trading part\r\n    function availableKwhs(uint _energy, uint _idOfMatchPPA) public onlyRegisteredProducers{\r\n        address _producer = msg.sender;\r\n        listOfkwhs.push(producerEnergy({\r\n            producerID: _producer,\r\n            timestamp: block.timestamp,\r\n            energy: _energy,\r\n            idOfmatchContract: _idOfMatchPPA\r\n        }));\r\n    }\r\n\r\n    function buyPPAKwhs(uint _idOfPPA) public onlyPPABuyers{\r\n        uint currentTime = block.timestamp;\r\n        address aBuyerId = msg.sender; \r\n        for(uint j = 0; j<Appas.length; j++){ //uint j = 0; j<Appas.length; j++\r\n            //search on Approved PPAs to match the id - producer with kwhs\r\n            for(uint i = 0; i<listOfkwhs.length; i++){ //uint i = 0; i<listOfkwhs.length; i++\r\n                uint totalEnergyPurchased = 0;\r\n                //find the correct available kwhs based on id of ppa\r\n                if((Appas[j].producerID == listOfkwhs[i].producerID) && (Appas[j].id == _idOfPPA) && (Appas[j].id == listOfkwhs[i].idOfmatchContract)){\r\n                    require(Appas[j].startDay <= currentTime, \"PPA is not active yet\");\r\n                    //if endDay < now then PPA has expired \r\n                    if(Appas[j].endDay < currentTime){\r\n                        revert(\"PPA has expired\");\r\n                    }\r\n                    totalEnergyPurchased = listOfkwhs[i].energy;\r\n                    Appas[j].totalKwh = Appas[j].totalKwh + totalEnergyPurchased;\r\n                    listOfkwhs[i].energy = 0;\r\n                    listOfprchs.push(purchasesPPA({\r\n                        buyerID: aBuyerId,\r\n                        producerID: listOfkwhs[i].producerID,\r\n                        timestamp: currentTime,\r\n                        idOfPPA: _idOfPPA,\r\n                        purchasedEnergy: totalEnergyPurchased\r\n                    }));\r\n                }\r\n                if(listOfkwhs[i].energy == 0){\r\n                    if(listOfkwhs.length > 1){\r\n                        listOfkwhs[i] = listOfkwhs[listOfkwhs.length-1];\r\n                    }\r\n                    listOfkwhs.length--;\r\n                    break;\r\n                }\r\n            }\r\n        }\r\n    }\r\n\r\n    function killPPA(uint _id) public {\r\n        uint currentTime = block.timestamp;\r\n        for(uint i = 0; i<Appas.length; i++){\r\n            if((Appas[i].id == _id) && (Appas[i].endDay < currentTime)){\r\n                Appas[i].status = Status.Expired;\r\n                listOfPPAs.push(ppa({\r\n                    buyerID: Appas[i].buyerID,\r\n                    producerID: Appas[i].producerID,\r\n                    kwhPrice: Appas[i].kwhPrice,\r\n                    startDay: Appas[i].startDay,\r\n                    endDay: Appas[i].endDay,\r\n                    id: Appas[i].id,\r\n                    status: Status.Expired\r\n                }));\r\n                ppaBuyerRegistry.deregisterPPABuyer(Appas[i].buyerID);\r\n                emit expiredPPA(Appas[i].producerID, Appas[i].buyerID, Appas[i].startDay, Appas[i].endDay, Appas[i].status);\r\n                if(Appas.length > 1){\r\n                    Appas[i] = Appas[Appas.length-1];\r\n                }\r\n                Appas.length--;\r\n                break;\r\n            }\r\n        }\r\n    }\r\n\r\n    function viewAllPPAs () public view returns (ppa[] memory){\r\n        return listOfPPAs;\r\n    }\r\n\r\n    function viewAllpurchases() public view returns (purchasesPPA[] memory){\r\n        return listOfprchs;\r\n    }\r\n\r\n    function viewAllApprovedPPAs() public view returns(approvedPPA[] memory){\r\n        return Appas;\r\n    }\r\n\r\n    function getApprovedPPAByID(uint _id) public view returns (address, address, uint, uint, uint){\r\n        approvedPPA storage _Appa = Appas[_id];\r\n        return(_Appa.producerID, _Appa.buyerID, _Appa.kwhPrice, _Appa.startDay, _Appa.endDay);\r\n    }\r\n\r\n    function getPPAByID(uint _id) public view returns (address, address, uint, uint, uint, uint, uint){\r\n        ppa storage _ppa = listOfPPAs[_id];\r\n        return(_ppa.producerID, _ppa.buyerID, _ppa.kwhPrice, _ppa.startDay, _ppa.endDay, uint(_ppa.status), _ppa.id);\r\n    }\r\n\r\n    function viewAvailableKwhs() public view returns(producerEnergy[] memory){\r\n        return listOfkwhs;\r\n    }\r\n\r\n    function getAvKwhs() public view returns(uint count){\r\n        return listOfkwhs.length;\r\n    }\r\n}",
  "sourcePath": "src/contracts/PPA.sol",
  "compiler": {
    "name": "solc",
    "version": "0.5.16+commit.9c3226ce.Emscripten.clang"
  },
  "schemaVersion": "3.4.1",
  "updatedAt": "2021-07-17T19:11:51.919Z",
  "devdoc": {
    "methods": {}
  },
  "userdoc": {
    "methods": {}
  }
}