{
  "contractName": "PPA",
  "abi": [
    {
      "anonymous": false,
      "inputs": [
        {
          "indexed": true,
          "internalType": "address",
          "name": "ppaBuyer",
          "type": "address"
        }
      ],
      "name": "buyerDeregistered",
      "type": "event"
    },
    {
      "anonymous": false,
      "inputs": [
        {
          "indexed": true,
          "internalType": "address",
          "name": "ppaBuyer",
          "type": "address"
        }
      ],
      "name": "buyerRegistered",
      "type": "event"
    },
    {
      "anonymous": false,
      "inputs": [
        {
          "indexed": true,
          "internalType": "address",
          "name": "producer",
          "type": "address"
        },
        {
          "indexed": false,
          "internalType": "uint256",
          "name": "energy",
          "type": "uint256"
        },
        {
          "indexed": false,
          "internalType": "uint256",
          "name": "price",
          "type": "uint256"
        }
      ],
      "name": "createdPPA",
      "type": "event"
    },
    {
      "anonymous": false,
      "inputs": [
        {
          "indexed": true,
          "internalType": "address",
          "name": "producer",
          "type": "address"
        },
        {
          "indexed": true,
          "internalType": "address",
          "name": "buyer",
          "type": "address"
        },
        {
          "indexed": false,
          "internalType": "uint256",
          "name": "startDay",
          "type": "uint256"
        },
        {
          "indexed": false,
          "internalType": "uint256",
          "name": "endDay",
          "type": "uint256"
        },
        {
          "indexed": false,
          "internalType": "enum PPA.Status",
          "name": "status",
          "type": "uint8"
        }
      ],
      "name": "expiredPPA",
      "type": "event"
    },
    {
      "anonymous": false,
      "inputs": [
        {
          "indexed": true,
          "internalType": "address",
          "name": "producer",
          "type": "address"
        }
      ],
      "name": "producerDeregistered",
      "type": "event"
    },
    {
      "anonymous": false,
      "inputs": [
        {
          "indexed": true,
          "internalType": "address",
          "name": "producer",
          "type": "address"
        }
      ],
      "name": "producerRegistered",
      "type": "event"
    },
    {
      "anonymous": false,
      "inputs": [
        {
          "indexed": false,
          "internalType": "uint256",
          "name": "itemID",
          "type": "uint256"
        },
        {
          "indexed": true,
          "internalType": "address",
          "name": "buyer",
          "type": "address"
        },
        {
          "indexed": true,
          "internalType": "address",
          "name": "producer",
          "type": "address"
        }
      ],
      "name": "purchasedPPA",
      "type": "event"
    },
    {
      "constant": false,
      "inputs": [
        {
          "internalType": "address",
          "name": "abuyer",
          "type": "address"
        }
      ],
      "name": "deregisterPPABuyer",
      "outputs": [],
      "payable": false,
      "stateMutability": "nonpayable",
      "type": "function"
    },
    {
      "constant": false,
      "inputs": [],
      "name": "deregisterProducer",
      "outputs": [],
      "payable": false,
      "stateMutability": "nonpayable",
      "type": "function"
    },
    {
      "constant": false,
      "inputs": [
        {
          "internalType": "address",
          "name": "abuyer",
          "type": "address"
        }
      ],
      "name": "registerPPABuyer",
      "outputs": [],
      "payable": false,
      "stateMutability": "nonpayable",
      "type": "function"
    },
    {
      "constant": false,
      "inputs": [],
      "name": "registerProducer",
      "outputs": [],
      "payable": false,
      "stateMutability": "nonpayable",
      "type": "function"
    },
    {
      "constant": false,
      "inputs": [
        {
          "internalType": "uint256",
          "name": "_energy",
          "type": "uint256"
        },
        {
          "internalType": "uint256",
          "name": "_price",
          "type": "uint256"
        },
        {
          "internalType": "uint256",
          "name": "_endDay",
          "type": "uint256"
        }
      ],
      "name": "createPPA",
      "outputs": [],
      "payable": false,
      "stateMutability": "nonpayable",
      "type": "function"
    },
    {
      "constant": false,
      "inputs": [],
      "name": "claimPPA",
      "outputs": [],
      "payable": false,
      "stateMutability": "nonpayable",
      "type": "function"
    },
    {
      "constant": false,
      "inputs": [
        {
          "internalType": "uint256",
          "name": "_energy",
          "type": "uint256"
        },
        {
          "internalType": "uint256",
          "name": "_idOfMatchPPA",
          "type": "uint256"
        }
      ],
      "name": "availableKwhs",
      "outputs": [],
      "payable": false,
      "stateMutability": "nonpayable",
      "type": "function"
    },
    {
      "constant": false,
      "inputs": [
        {
          "internalType": "uint256",
          "name": "_idOfPPA",
          "type": "uint256"
        }
      ],
      "name": "buy_PPA_Kwhs",
      "outputs": [],
      "payable": false,
      "stateMutability": "nonpayable",
      "type": "function"
    },
    {
      "constant": false,
      "inputs": [
        {
          "internalType": "uint256",
          "name": "_id",
          "type": "uint256"
        }
      ],
      "name": "killPPA",
      "outputs": [],
      "payable": false,
      "stateMutability": "nonpayable",
      "type": "function"
    },
    {
      "constant": true,
      "inputs": [],
      "name": "viewAllPPAs",
      "outputs": [
        {
          "components": [
            {
              "internalType": "address",
              "name": "buyerID",
              "type": "address"
            },
            {
              "internalType": "address",
              "name": "producerID",
              "type": "address"
            },
            {
              "internalType": "uint256",
              "name": "energy",
              "type": "uint256"
            },
            {
              "internalType": "uint256",
              "name": "price",
              "type": "uint256"
            },
            {
              "internalType": "uint256",
              "name": "startDay",
              "type": "uint256"
            },
            {
              "internalType": "uint256",
              "name": "endDay",
              "type": "uint256"
            },
            {
              "internalType": "uint256",
              "name": "id",
              "type": "uint256"
            },
            {
              "internalType": "enum PPA.Status",
              "name": "status",
              "type": "uint8"
            }
          ],
          "internalType": "struct PPA.ppa[]",
          "name": "",
          "type": "tuple[]"
        }
      ],
      "payable": false,
      "stateMutability": "view",
      "type": "function"
    },
    {
      "constant": true,
      "inputs": [],
      "name": "viewAllpurchases",
      "outputs": [
        {
          "components": [
            {
              "internalType": "address",
              "name": "buyerID",
              "type": "address"
            },
            {
              "internalType": "address",
              "name": "producerID",
              "type": "address"
            },
            {
              "internalType": "uint256",
              "name": "timestamp",
              "type": "uint256"
            },
            {
              "internalType": "uint256",
              "name": "idOfPPA",
              "type": "uint256"
            },
            {
              "internalType": "uint256",
              "name": "purchasedEnergy",
              "type": "uint256"
            }
          ],
          "internalType": "struct PPA.purchasesPPA[]",
          "name": "",
          "type": "tuple[]"
        }
      ],
      "payable": false,
      "stateMutability": "view",
      "type": "function"
    },
    {
      "constant": true,
      "inputs": [],
      "name": "viewAllApprovedPPAs",
      "outputs": [
        {
          "components": [
            {
              "internalType": "address",
              "name": "buyerID",
              "type": "address"
            },
            {
              "internalType": "address",
              "name": "producerID",
              "type": "address"
            },
            {
              "internalType": "uint256",
              "name": "energy",
              "type": "uint256"
            },
            {
              "internalType": "uint256",
              "name": "price",
              "type": "uint256"
            },
            {
              "internalType": "uint256",
              "name": "startDay",
              "type": "uint256"
            },
            {
              "internalType": "uint256",
              "name": "endDay",
              "type": "uint256"
            },
            {
              "internalType": "uint256",
              "name": "id",
              "type": "uint256"
            },
            {
              "internalType": "uint256",
              "name": "totalKwh",
              "type": "uint256"
            },
            {
              "internalType": "enum PPA.Status",
              "name": "status",
              "type": "uint8"
            }
          ],
          "internalType": "struct PPA.approvedPPA[]",
          "name": "",
          "type": "tuple[]"
        }
      ],
      "payable": false,
      "stateMutability": "view",
      "type": "function"
    },
    {
      "constant": true,
      "inputs": [
        {
          "internalType": "uint256",
          "name": "_id",
          "type": "uint256"
        }
      ],
      "name": "getPPAbyID",
      "outputs": [
        {
          "internalType": "address",
          "name": "",
          "type": "address"
        },
        {
          "internalType": "address",
          "name": "",
          "type": "address"
        },
        {
          "internalType": "uint256",
          "name": "",
          "type": "uint256"
        },
        {
          "internalType": "uint256",
          "name": "",
          "type": "uint256"
        },
        {
          "internalType": "uint256",
          "name": "",
          "type": "uint256"
        },
        {
          "internalType": "uint256",
          "name": "",
          "type": "uint256"
        },
        {
          "internalType": "uint256",
          "name": "",
          "type": "uint256"
        },
        {
          "internalType": "uint256",
          "name": "",
          "type": "uint256"
        }
      ],
      "payable": false,
      "stateMutability": "view",
      "type": "function"
    },
    {
      "constant": true,
      "inputs": [],
      "name": "viewAvailableKwhs",
      "outputs": [
        {
          "components": [
            {
              "internalType": "address",
              "name": "producerID",
              "type": "address"
            },
            {
              "internalType": "uint256",
              "name": "timestamp",
              "type": "uint256"
            },
            {
              "internalType": "uint256",
              "name": "energy",
              "type": "uint256"
            },
            {
              "internalType": "uint256",
              "name": "idOfmatchContract",
              "type": "uint256"
            }
          ],
          "internalType": "struct PPA.producerEnergy[]",
          "name": "",
          "type": "tuple[]"
        }
      ],
      "payable": false,
      "stateMutability": "view",
      "type": "function"
    },
    {
      "constant": true,
      "inputs": [],
      "name": "getAvKwhs",
      "outputs": [
        {
          "internalType": "uint256",
          "name": "count",
          "type": "uint256"
        }
      ],
      "payable": false,
      "stateMutability": "view",
      "type": "function"
    }
  ],
  "bytecode": "0x608060405234801561001057600080fd5b50612f2f806100206000396000f3fe608060405234801561001057600080fd5b50600436106100f55760003560e01c8063ac5afa4e11610097578063e1b0d3c011610066578063e1b0d3c01461023f578063e436db781461025d578063ea1d381f14610267578063f791560c14610271576100f5565b8063ac5afa4e146101c4578063b5b5dcc1146101e0578063dbdf0c21146101fe578063dfd6697214610208576100f5565b80636d36a6b1116100d35780636d36a6b114610150578063877b0fde1461016e5780638a28410b1461018c5780639d88df62146101a8576100f5565b80633933311d146100fa5780635a604165146101165780635cc1b73614610134575b600080fd5b610114600480360361010f919081019061249f565b61028d565b005b61011e6103ee565b60405161012b9190612b98565b60405180910390f35b61014e60048036036101499190810190612476565b610563565b005b610158610ae1565b6040516101659190612ce0565b60405180910390f35b610176610aee565b6040516101839190612bdc565b60405180910390f35b6101a660048036036101a191908101906124db565b610bc1565b005b6101c260048036036101bd919081019061244d565b610e83565b005b6101de60048036036101d99190810190612476565b610f44565b005b6101e86115d7565b6040516101f59190612bfe565b60405180910390f35b610206611700565b005b610222600480360361021d9190810190612476565b6117a2565b604051610236989796959493929190612b1a565b60405180910390f35b610247611869565b6040516102549190612bba565b60405180910390f35b6102656119d4565b005b61026f61207a565b005b61028b6004803603610286919081019061244d565b61211c565b005b6000803373ffffffffffffffffffffffffffffffffffffffff1673ffffffffffffffffffffffffffffffffffffffff16815260200190815260200160002060009054906101000a900460ff16610318576040517f08c379a000000000000000000000000000000000000000000000000000000000815260040161030f90612c80565b60405180910390fd5b6000339050600960405180608001604052808373ffffffffffffffffffffffffffffffffffffffff168152602001428152602001858152602001848152509080600181540180825580915050906001820390600052602060002090600402016000909192909190915060008201518160000160006101000a81548173ffffffffffffffffffffffffffffffffffffffff021916908373ffffffffffffffffffffffffffffffffffffffff160217905550602082015181600101556040820151816002015560608201518160030155505050505050565b60606007805480602002602001604051908101604052809291908181526020016000905b8282101561055a5783829060005260206000209060090201604051806101200160405290816000820160009054906101000a900473ffffffffffffffffffffffffffffffffffffffff1673ffffffffffffffffffffffffffffffffffffffff1673ffffffffffffffffffffffffffffffffffffffff1681526020016001820160009054906101000a900473ffffffffffffffffffffffffffffffffffffffff1673ffffffffffffffffffffffffffffffffffffffff1673ffffffffffffffffffffffffffffffffffffffff1681526020016002820154815260200160038201548152602001600482015481526020016005820154815260200160068201548152602001600782015481526020016008820160009054906101000a900460ff16600381111561053c57fe5b600381111561054757fe5b8152505081526020019060010190610412565b50505050905090565b6000600160003373ffffffffffffffffffffffffffffffffffffffff1673ffffffffffffffffffffffffffffffffffffffff16815260200190815260200160002060009054906101000a900463ffffffff1663ffffffff16116105fb576040517f08c379a00000000000000000000000000000000000000000000000000000000081526004016105f290612c40565b60405180910390fd5b6000429050600033905060008090505b600780549050811015610adb5760008090505b600980549050811015610acd5760008090506009828154811061063d57fe5b906000526020600020906004020160000160009054906101000a900473ffffffffffffffffffffffffffffffffffffffff1673ffffffffffffffffffffffffffffffffffffffff166007848154811061069257fe5b906000526020600020906009020160010160009054906101000a900473ffffffffffffffffffffffffffffffffffffffff1673ffffffffffffffffffffffffffffffffffffffff16148015610704575085600784815481106106f057fe5b906000526020600020906009020160060154145b801561074b57506009828154811061071857fe5b9060005260206000209060040201600301546007848154811061073757fe5b906000526020600020906009020160060154145b156109a757846007848154811061075e57fe5b90600052602060002090600902016005015410156107b1576040517f08c379a00000000000000000000000000000000000000000000000000000000081526004016107a890612c60565b60405180910390fd5b600982815481106107be57fe5b906000526020600020906004020160020154905080600784815481106107e057fe5b906000526020600020906009020160070154016007848154811061080057fe5b90600052602060002090600902016007018190555060006009838154811061082457fe5b906000526020600020906004020160020181905550600a6040518060a001604052808673ffffffffffffffffffffffffffffffffffffffff1681526020016009858154811061086f57fe5b906000526020600020906004020160000160009054906101000a900473ffffffffffffffffffffffffffffffffffffffff1673ffffffffffffffffffffffffffffffffffffffff168152602001878152602001888152602001838152509080600181540180825580915050906001820390600052602060002090600502016000909192909190915060008201518160000160006101000a81548173ffffffffffffffffffffffffffffffffffffffff021916908373ffffffffffffffffffffffffffffffffffffffff16021790555060208201518160010160006101000a81548173ffffffffffffffffffffffffffffffffffffffff021916908373ffffffffffffffffffffffffffffffffffffffff1602179055506040820151816002015560608201518160030155608082015181600401555050505b6000600983815481106109b657fe5b9060005260206000209060040201600201541415610abf5760016009805490501115610aa3576009600160098054905003815481106109f157fe5b906000526020600020906004020160098381548110610a0c57fe5b90600052602060002090600402016000820160009054906101000a900473ffffffffffffffffffffffffffffffffffffffff168160000160006101000a81548173ffffffffffffffffffffffffffffffffffffffff021916908373ffffffffffffffffffffffffffffffffffffffff1602179055506001820154816001015560028201548160020155600382015481600301559050505b6009805480919060019003610ab891906121d5565b5050610acd565b50808060010191505061061e565b50808060010191505061060b565b50505050565b6000600980549050905090565b60606009805480602002602001604051908101604052809291908181526020016000905b82821015610bb857838290600052602060002090600402016040518060800160405290816000820160009054906101000a900473ffffffffffffffffffffffffffffffffffffffff1673ffffffffffffffffffffffffffffffffffffffff1673ffffffffffffffffffffffffffffffffffffffff168152602001600182015481526020016002820154815260200160038201548152505081526020019060010190610b12565b50505050905090565b6000803373ffffffffffffffffffffffffffffffffffffffff1673ffffffffffffffffffffffffffffffffffffffff16815260200190815260200160002060009054906101000a900460ff16610c4c576040517f08c379a0000000000000000000000000000000000000000000000000000000008152600401610c4390612c80565b60405180910390fd5b6000339050600042905060008184039050428411610c9f576040517f08c379a0000000000000000000000000000000000000000000000000000000008152600401610c9690612cc0565b60405180910390fd5b6005604051806101000160405280600073ffffffffffffffffffffffffffffffffffffffff1681526020018573ffffffffffffffffffffffffffffffffffffffff16815260200188815260200187815260200142815260200186815260200183815260200160006003811115610d1157fe5b8152509080600181540180825580915050906001820390600052602060002090600802016000909192909190915060008201518160000160006101000a81548173ffffffffffffffffffffffffffffffffffffffff021916908373ffffffffffffffffffffffffffffffffffffffff16021790555060208201518160010160006101000a81548173ffffffffffffffffffffffffffffffffffffffff021916908373ffffffffffffffffffffffffffffffffffffffff16021790555060408201518160020155606082015181600301556080820151816004015560a0820151816005015560c0820151816006015560e08201518160070160006101000a81548160ff02191690836003811115610e2357fe5b02179055505050508273ffffffffffffffffffffffffffffffffffffffff167f76ae6ae5f1c98998b205ee409ba7f055c87080b0063ab12cc9e2b248f758c2ef8787604051610e73929190612cfb565b60405180910390a2505050505050565b6000809050808060010191505060008163ffffffff1614610ee2578173ffffffffffffffffffffffffffffffffffffffff167f7420b8b978434d1ce66c980ff580761f988dfca7b96378123d4717285774382c60405160405180910390a25b80600160008473ffffffffffffffffffffffffffffffffffffffff1673ffffffffffffffffffffffffffffffffffffffff16815260200190815260200160002060006101000a81548163ffffffff021916908363ffffffff1602179055505050565b600042905060008090505b6007805490508110156115d2578260078281548110610f6a57fe5b906000526020600020906009020160060154148015610fa657508160078281548110610f9257fe5b906000526020600020906009020160050154105b156115c557600360078281548110610fba57fe5b906000526020600020906009020160080160006101000a81548160ff02191690836003811115610fe657fe5b021790555060056040518061010001604052806007848154811061100657fe5b906000526020600020906009020160000160009054906101000a900473ffffffffffffffffffffffffffffffffffffffff1673ffffffffffffffffffffffffffffffffffffffff1681526020016007848154811061106057fe5b906000526020600020906009020160010160009054906101000a900473ffffffffffffffffffffffffffffffffffffffff1673ffffffffffffffffffffffffffffffffffffffff168152602001600784815481106110ba57fe5b9060005260206000209060090201600201548152602001600784815481106110de57fe5b90600052602060002090600902016003015481526020016007848154811061110257fe5b90600052602060002090600902016004015481526020016007848154811061112657fe5b90600052602060002090600902016005015481526020016007848154811061114a57fe5b906000526020600020906009020160060154815260200160038081111561116d57fe5b8152509080600181540180825580915050906001820390600052602060002090600802016000909192909190915060008201518160000160006101000a81548173ffffffffffffffffffffffffffffffffffffffff021916908373ffffffffffffffffffffffffffffffffffffffff16021790555060208201518160010160006101000a81548173ffffffffffffffffffffffffffffffffffffffff021916908373ffffffffffffffffffffffffffffffffffffffff16021790555060408201518160020155606082015181600301556080820151816004015560a0820151816005015560c0820151816006015560e08201518160070160006101000a81548160ff0219169083600381111561127f57fe5b02179055505050506112ce6007828154811061129757fe5b906000526020600020906009020160000160009054906101000a900473ffffffffffffffffffffffffffffffffffffffff1661211c565b600781815481106112db57fe5b906000526020600020906009020160000160009054906101000a900473ffffffffffffffffffffffffffffffffffffffff1673ffffffffffffffffffffffffffffffffffffffff166007828154811061133057fe5b906000526020600020906009020160010160009054906101000a900473ffffffffffffffffffffffffffffffffffffffff1673ffffffffffffffffffffffffffffffffffffffff167fc3384a2daef78f9743d45a2f054a32d11ee7ef405de6fd4724ec6f77ba049f78600784815481106113a657fe5b906000526020600020906009020160040154600785815481106113c557fe5b906000526020600020906009020160050154600786815481106113e457fe5b906000526020600020906009020160080160009054906101000a900460ff1660405161141293929190612d24565b60405180910390a3600160078054905011156115aa5760076001600780549050038154811061143d57fe5b90600052602060002090600902016007828154811061145857fe5b90600052602060002090600902016000820160009054906101000a900473ffffffffffffffffffffffffffffffffffffffff168160000160006101000a81548173ffffffffffffffffffffffffffffffffffffffff021916908373ffffffffffffffffffffffffffffffffffffffff1602179055506001820160009054906101000a900473ffffffffffffffffffffffffffffffffffffffff168160010160006101000a81548173ffffffffffffffffffffffffffffffffffffffff021916908373ffffffffffffffffffffffffffffffffffffffff1602179055506002820154816002015560038201548160030155600482015481600401556005820154816005015560068201548160060155600782015481600701556008820160009054906101000a900460ff168160080160006101000a81548160ff021916908360038111156115a157fe5b02179055509050505b60078054809190600190036115bf9190612207565b506115d2565b8080600101915050610f4f565b505050565b6060600a805480602002602001604051908101604052809291908181526020016000905b828210156116f757838290600052602060002090600502016040518060a00160405290816000820160009054906101000a900473ffffffffffffffffffffffffffffffffffffffff1673ffffffffffffffffffffffffffffffffffffffff1673ffffffffffffffffffffffffffffffffffffffff1681526020016001820160009054906101000a900473ffffffffffffffffffffffffffffffffffffffff1673ffffffffffffffffffffffffffffffffffffffff1673ffffffffffffffffffffffffffffffffffffffff1681526020016002820154815260200160038201548152602001600482015481525050815260200190600101906115fb565b50505050905090565b60003390508073ffffffffffffffffffffffffffffffffffffffff167f769268709e630d5b24d4c651adeae2d7a75c3dd7c3876275233e21570be22fd460405160405180910390a260016000808373ffffffffffffffffffffffffffffffffffffffff1673ffffffffffffffffffffffffffffffffffffffff16815260200190815260200160002060006101000a81548160ff02191690831515021790555050565b600080600080600080600080600060058a815481106117bd57fe5b906000526020600020906008020190508060010160009054906101000a900473ffffffffffffffffffffffffffffffffffffffff168160000160009054906101000a900473ffffffffffffffffffffffffffffffffffffffff1682600201548360030154846004015485600501548660070160009054906101000a900460ff16600381111561184857fe5b87600601549850985098509850985098509850985050919395975091939597565b60606005805480602002602001604051908101604052809291908181526020016000905b828210156119cb5783829060005260206000209060080201604051806101000160405290816000820160009054906101000a900473ffffffffffffffffffffffffffffffffffffffff1673ffffffffffffffffffffffffffffffffffffffff1673ffffffffffffffffffffffffffffffffffffffff1681526020016001820160009054906101000a900473ffffffffffffffffffffffffffffffffffffffff1673ffffffffffffffffffffffffffffffffffffffff1673ffffffffffffffffffffffffffffffffffffffff16815260200160028201548152602001600382015481526020016004820154815260200160058201548152602001600682015481526020016007820160009054906101000a900460ff1660038111156119ad57fe5b60038111156119b857fe5b815250508152602001906001019061188d565b50505050905090565b6000809050600033905060008090505b600580549050811015612075578173ffffffffffffffffffffffffffffffffffffffff1660058281548110611a1557fe5b906000526020600020906008020160010160009054906101000a900473ffffffffffffffffffffffffffffffffffffffff1673ffffffffffffffffffffffffffffffffffffffff161415611a9e576040517f08c379a0000000000000000000000000000000000000000000000000000000008152600401611a9590612ca0565b60405180910390fd5b60026003811115611aab57fe5b60058281548110611ab857fe5b906000526020600020906008020160070160009054906101000a900460ff166003811115611ae257fe5b1415611b23576040517f08c379a0000000000000000000000000000000000000000000000000000000008152600401611b1a90612c20565b60405180910390fd5b60006003811115611b3057fe5b60058281548110611b3d57fe5b906000526020600020906008020160070160009054906101000a900460ff166003811115611b6757fe5b14156120685760076040518061012001604052808473ffffffffffffffffffffffffffffffffffffffff16815260200160058481548110611ba457fe5b906000526020600020906008020160010160009054906101000a900473ffffffffffffffffffffffffffffffffffffffff1673ffffffffffffffffffffffffffffffffffffffff16815260200160058481548110611bfe57fe5b906000526020600020906008020160020154815260200160058481548110611c2257fe5b906000526020600020906008020160030154815260200142815260200160058481548110611c4c57fe5b906000526020600020906008020160050154815260200160058481548110611c7057fe5b906000526020600020906008020160060154815260200185815260200160016003811115611c9a57fe5b8152509080600181540180825580915050906001820390600052602060002090600902016000909192909190915060008201518160000160006101000a81548173ffffffffffffffffffffffffffffffffffffffff021916908373ffffffffffffffffffffffffffffffffffffffff16021790555060208201518160010160006101000a81548173ffffffffffffffffffffffffffffffffffffffff021916908373ffffffffffffffffffffffffffffffffffffffff16021790555060408201518160020155606082015181600301556080820151816004015560a0820151816005015560c0820151816006015560e082015181600701556101008201518160080160006101000a81548160ff02191690836003811115611db757fe5b0217905550505050611dc882610e83565b60058181548110611dd557fe5b906000526020600020906008020160010160009054906101000a900473ffffffffffffffffffffffffffffffffffffffff1673ffffffffffffffffffffffffffffffffffffffff1660058281548110611e2a57fe5b906000526020600020906008020160000160009054906101000a900473ffffffffffffffffffffffffffffffffffffffff1673ffffffffffffffffffffffffffffffffffffffff167f5e51fbd7f7e38ee6927fb25d7e32916c08f102ece1d3d65df27ec76e3a43c3a760058481548110611ea057fe5b906000526020600020906008020160060154604051611ebf9190612ce0565b60405180910390a36001600580549050111561204d57600560016005805490500381548110611eea57fe5b906000526020600020906008020160058281548110611f0557fe5b90600052602060002090600802016000820160009054906101000a900473ffffffffffffffffffffffffffffffffffffffff168160000160006101000a81548173ffffffffffffffffffffffffffffffffffffffff021916908373ffffffffffffffffffffffffffffffffffffffff1602179055506001820160009054906101000a900473ffffffffffffffffffffffffffffffffffffffff168160010160006101000a81548173ffffffffffffffffffffffffffffffffffffffff021916908373ffffffffffffffffffffffffffffffffffffffff16021790555060028201548160020155600382015481600301556004820154816004015560058201548160050155600682015481600601556007820160009054906101000a900460ff168160070160006101000a81548160ff0219169083600381111561204457fe5b02179055509050505b60058054809190600190036120629190612239565b50612075565b80806001019150506119e4565b505050565b60003390508073ffffffffffffffffffffffffffffffffffffffff167f0bb6d68f109745f7ae353e3b90fff6fb8245c34cca44f18d9dfa00e4d705fa6460405160405180910390a260008060008373ffffffffffffffffffffffffffffffffffffffff1673ffffffffffffffffffffffffffffffffffffffff16815260200190815260200160002060006101000a81548160ff02191690831515021790555050565b600080905060008163ffffffff1614612173578173ffffffffffffffffffffffffffffffffffffffff167fac6737d5d897955c9efa7aa0f05d006183e2529acaba2d32b6152acbff7aff9f60405160405180910390a25b80600160008473ffffffffffffffffffffffffffffffffffffffff1673ffffffffffffffffffffffffffffffffffffffff16815260200190815260200160002060006101000a81548163ffffffff021916908363ffffffff1602179055505050565b81548183558181111561220257600402816004028360005260206000209182019101612201919061226b565b5b505050565b8154818355818111156122345760090281600902836000526020600020918201910161223391906122c9565b5b505050565b81548183558181111561226657600802816008028360005260206000209182019101612265919061237a565b5b505050565b6122c691905b808211156122c257600080820160006101000a81549073ffffffffffffffffffffffffffffffffffffffff021916905560018201600090556002820160009055600382016000905550600401612271565b5090565b90565b61237791905b8082111561237357600080820160006101000a81549073ffffffffffffffffffffffffffffffffffffffff02191690556001820160006101000a81549073ffffffffffffffffffffffffffffffffffffffff02191690556002820160009055600382016000905560048201600090556005820160009055600682016000905560078201600090556008820160006101000a81549060ff0219169055506009016122cf565b5090565b90565b61242091905b8082111561241c57600080820160006101000a81549073ffffffffffffffffffffffffffffffffffffffff02191690556001820160006101000a81549073ffffffffffffffffffffffffffffffffffffffff0219169055600282016000905560038201600090556004820160009055600582016000905560068201600090556007820160006101000a81549060ff021916905550600801612380565b5090565b90565b60008135905061243281612ebe565b92915050565b60008135905061244781612ed5565b92915050565b60006020828403121561245f57600080fd5b600061246d84828501612423565b91505092915050565b60006020828403121561248857600080fd5b600061249684828501612438565b91505092915050565b600080604083850312156124b257600080fd5b60006124c085828601612438565b92505060206124d185828601612438565b9150509250929050565b6000806000606084860312156124f057600080fd5b60006124fe86828701612438565b935050602061250f86828701612438565b925050604061252086828701612438565b9150509250925092565b600061253683836128e6565b6101208301905092915050565b600061254f838361299d565b6101008301905092915050565b60006125688383612a3f565b60808301905092915050565b60006125808383612a94565b60a08301905092915050565b61259581612e50565b82525050565b6125a481612e50565b82525050565b60006125b582612d9b565b6125bf8185612dfb565b93506125ca83612d5b565b8060005b838110156125fb5781516125e2888261252a565b97506125ed83612dc7565b9250506001810190506125ce565b5085935050505092915050565b600061261382612da6565b61261d8185612e0c565b935061262883612d6b565b8060005b838110156126595781516126408882612543565b975061264b83612dd4565b92505060018101905061262c565b5085935050505092915050565b600061267182612db1565b61267b8185612e1d565b935061268683612d7b565b8060005b838110156126b757815161269e888261255c565b97506126a983612de1565b92505060018101905061268a565b5085935050505092915050565b60006126cf82612dbc565b6126d98185612e2e565b93506126e483612d8b565b8060005b838110156127155781516126fc8882612574565b975061270783612dee565b9250506001810190506126e8565b5085935050505092915050565b61272b81612e9f565b82525050565b61273a81612e9f565b82525050565b600061274d600583612e3f565b91507f6572726f720000000000000000000000000000000000000000000000000000006000830152602082019050919050565b600061278d600f83612e3f565b91507f4f6e6c7920505041206f776e65727300000000000000000000000000000000006000830152602082019050919050565b60006127cd600f83612e3f565b91507f50504120686173206578706972656400000000000000000000000000000000006000830152602082019050919050565b600061280d601e83612e3f565b91507f596f75206d75737420626520612063757272656e742050726f647563657200006000830152602082019050919050565b600061284d601383612e3f565b91507f57726f6e672061646472657373206275796572000000000000000000000000006000830152602082019050919050565b600061288d602183612e3f565b91507f4974277320696d706f737369626c6520656e64446179203c207374617274446160008301527f79000000000000000000000000000000000000000000000000000000000000006020830152604082019050919050565b610120820160008201516128fd600085018261258c565b506020820151612910602085018261258c565b5060408201516129236040850182612afc565b5060608201516129366060850182612afc565b5060808201516129496080850182612afc565b5060a082015161295c60a0850182612afc565b5060c082015161296f60c0850182612afc565b5060e082015161298260e0850182612afc565b50610100820151612997610100850182612722565b50505050565b610100820160008201516129b4600085018261258c565b5060208201516129c7602085018261258c565b5060408201516129da6040850182612afc565b5060608201516129ed6060850182612afc565b506080820151612a006080850182612afc565b5060a0820151612a1360a0850182612afc565b5060c0820151612a2660c0850182612afc565b5060e0820151612a3960e0850182612722565b50505050565b608082016000820151612a55600085018261258c565b506020820151612a686020850182612afc565b506040820151612a7b6040850182612afc565b506060820151612a8e6060850182612afc565b50505050565b60a082016000820151612aaa600085018261258c565b506020820151612abd602085018261258c565b506040820151612ad06040850182612afc565b506060820151612ae36060850182612afc565b506080820151612af66080850182612afc565b50505050565b612b0581612e95565b82525050565b612b1481612e95565b82525050565b600061010082019050612b30600083018b61259b565b612b3d602083018a61259b565b612b4a6040830189612b0b565b612b576060830188612b0b565b612b646080830187612b0b565b612b7160a0830186612b0b565b612b7e60c0830185612b0b565b612b8b60e0830184612b0b565b9998505050505050505050565b60006020820190508181036000830152612bb281846125aa565b905092915050565b60006020820190508181036000830152612bd48184612608565b905092915050565b60006020820190508181036000830152612bf68184612666565b905092915050565b60006020820190508181036000830152612c1881846126c4565b905092915050565b60006020820190508181036000830152612c3981612740565b9050919050565b60006020820190508181036000830152612c5981612780565b9050919050565b60006020820190508181036000830152612c79816127c0565b9050919050565b60006020820190508181036000830152612c9981612800565b9050919050565b60006020820190508181036000830152612cb981612840565b9050919050565b60006020820190508181036000830152612cd981612880565b9050919050565b6000602082019050612cf56000830184612b0b565b92915050565b6000604082019050612d106000830185612b0b565b612d1d6020830184612b0b565b9392505050565b6000606082019050612d396000830186612b0b565b612d466020830185612b0b565b612d536040830184612731565b949350505050565b6000819050602082019050919050565b6000819050602082019050919050565b6000819050602082019050919050565b6000819050602082019050919050565b600081519050919050565b600081519050919050565b600081519050919050565b600081519050919050565b6000602082019050919050565b6000602082019050919050565b6000602082019050919050565b6000602082019050919050565b600082825260208201905092915050565b600082825260208201905092915050565b600082825260208201905092915050565b600082825260208201905092915050565b600082825260208201905092915050565b6000612e5b82612e75565b9050919050565b6000819050612e7082612eb1565b919050565b600073ffffffffffffffffffffffffffffffffffffffff82169050919050565b6000819050919050565b6000612eaa82612e62565b9050919050565b60048110612ebb57fe5b50565b612ec781612e50565b8114612ed257600080fd5b50565b612ede81612e95565b8114612ee957600080fd5b5056fea365627a7a723158207e2a3e80ddabdd6f905d53012172b7f0a1b137523a92cb43cb0af72624e50de76c6578706572696d656e74616cf564736f6c63430005100040",
  "source": "pragma solidity >=0.4.21 <0.9.0;\r\npragma experimental ABIEncoderV2;\r\n\r\n//import \"src/contracts/token/ERC1155.sol\";\r\n//import \"src/contracts/token/ERC1155Mintable.sol\";\r\n//import \"src/contracts/token/IERC1155.sol\";\r\n\r\n//import \"@openzeppelin/contracts/token/ERC1155/ERC1155.sol\";\r\n/*\r\n*Installed open zeppelin version 3.1.0\r\n*https://github.com/OpenZeppelin/openzeppelin-contracts/tree/v3.1.0\r\n*with \"npm i @openzeppelin/contracts@3.1.0\"\r\n*/\r\ncontract producerRegistry {\r\n    event producerRegistered(address indexed producer);\r\n    event producerDeregistered(address indexed producer);\r\n    \r\n    // map address to bool \"is a registered producer\"\r\n    mapping(address => bool) producers;\r\n    \r\n    modifier onlyRegisteredProducers {\r\n        require(producers[msg.sender], \"You must be a current Producer\");\r\n        _;\r\n    }\r\n    \r\n    function registerProducer() public {\r\n        address aproducer = msg.sender;\r\n        emit producerRegistered(aproducer);\r\n        producers[aproducer] = true;\r\n    }\r\n\r\n    function deregisterProducer() public {\r\n        address aproducer = msg.sender;\r\n        emit producerDeregistered(aproducer);\r\n        producers[aproducer] = false;\r\n    }\r\n}\r\n\r\ncontract ppaBuyerRegistry {\r\n    event buyerRegistered(address indexed ppaBuyer);\r\n    event buyerDeregistered(address indexed ppaBuyer);\r\n\r\n    mapping(address => uint32) ppaBuyers;\r\n    address[] listOfPPABuyers;\r\n\r\n    modifier onlyPPABuyers {\r\n      require(ppaBuyers[msg.sender] > 0, \"Only PPA owners\");\r\n      _;\r\n    }\r\n    \r\n    function deregisterPPABuyer(address abuyer) public {\r\n        uint32 abuyerID = 0;\r\n        if(abuyerID != 0) {\r\n            emit buyerDeregistered(abuyer);\r\n        }\r\n        ppaBuyers[abuyer] = abuyerID;\r\n    }\r\n\r\n    function registerPPABuyer(address abuyer) public {\r\n        uint32 abuyerID = 0;\r\n        abuyerID++;\r\n        if(abuyerID != 0) {\r\n            emit buyerRegistered(abuyer);\r\n        }\r\n        ppaBuyers[abuyer] = abuyerID;\r\n    }\r\n}\r\n\r\ncontract PPA is producerRegistry, ppaBuyerRegistry {\r\n\r\n    mapping (uint => uint) price;\r\n\r\n    enum Status {Pending, Approved, Rejected, Expired}\r\n    event createdPPA(address indexed producer, uint energy, uint price);\r\n    event purchasedPPA(uint itemID, address indexed buyer, address indexed producer);\r\n    event expiredPPA(address indexed producer, address indexed buyer, uint startDay, uint endDay, Status status);\r\n\r\n    struct ppa {              //Struct with all PPA contracts\r\n        address buyerID;\r\n        address producerID;\r\n        uint energy;\r\n        uint price;           //price per energy(kwh)\r\n        uint startDay;\r\n        uint endDay;          //It must be timestamp (ex. uint endDay = 1518220800; // 2018-02-10 00:00:00)\r\n        uint id;              //id number of each ppa contract\r\n        Status status;\r\n    }\r\n\r\n    mapping(address => ppa) ppas;\r\n    ppa[] listOfPPAs;\r\n    //uint nextID = 0;\r\n\r\n    struct approvedPPA{       //Struct only for approved PPAs\r\n        address buyerID;\r\n        address producerID;\r\n        uint energy;\r\n        uint price;           //price per energy(kwh)\r\n        uint startDay;\r\n        uint endDay;          //It must be timestamp (ex. uint endDay = 1518220800; // 2018-02-10 00:00:00)\r\n        uint id;              //id number of each ppa contract\r\n        uint totalKwh;        //total amount of purchased kwh\r\n        Status status;\r\n    }\r\n\r\n    mapping(address => mapping(uint => approvedPPA)) approvedPPAs;\r\n    approvedPPA[] Appas;\r\n\r\n    struct producerEnergy{      //Trial struct for available producer' s energy in order to sale \r\n        address producerID;\r\n        uint timestamp;\r\n        uint energy;\r\n        uint idOfmatchContract; //id oc ppa contract that refers to\r\n    }\r\n\r\n    mapping(address => mapping(uint => uint)) pEnergy;\r\n    producerEnergy[] listOfkwhs;\r\n\r\n    struct purchasesPPA{\r\n        address buyerID;\r\n        address producerID;\r\n        uint timestamp;\r\n        uint idOfPPA;\r\n        uint purchasedEnergy;\r\n    }\r\n\r\n    purchasesPPA[] listOfprchs;\r\n\r\n    function createPPA(uint _energy, uint _price, uint _endDay) public onlyRegisteredProducers {\r\n        address _producerID = msg.sender;\r\n        uint currentTime = block.timestamp;\r\n        uint idOfContract = _endDay - currentTime;\r\n        require(_endDay > block.timestamp, \"It's impossible endDay < startDay\");\r\n        listOfPPAs.push(ppa({\r\n            buyerID: address(0x0),\r\n            producerID: _producerID,\r\n            energy: _energy,\r\n            price: _price,\r\n            startDay: block.timestamp,\r\n            endDay: _endDay,\r\n            id: idOfContract,\r\n            status: Status.Pending\r\n        }));\r\n        //nextID++;\r\n        emit createdPPA(_producerID, _energy, _price);\r\n    }\r\n\r\n    function claimPPA() public {\r\n        uint _totalKwh = 0;\r\n        address buyerId = msg.sender;\r\n        for(uint i = 0; i<listOfPPAs.length; i++){\r\n            require(listOfPPAs[i].producerID != buyerId, \"Wrong address buyer\");\r\n            require(listOfPPAs[i].status != Status.Rejected, \"error\");\r\n            if(listOfPPAs[i].status == Status.Pending){\r\n                //listOfPPAs[i].status = Status.Approved;\r\n                Appas.push(approvedPPA({\r\n                    buyerID: buyerId,\r\n                    producerID: listOfPPAs[i].producerID,\r\n                    energy: listOfPPAs[i].energy,\r\n                    price: listOfPPAs[i].price,\r\n                    startDay: block.timestamp,\r\n                    endDay: listOfPPAs[i].endDay,\r\n                    id: listOfPPAs[i].id,\r\n                    totalKwh: _totalKwh,\r\n                    status: Status.Approved\r\n                }));\r\n            ppaBuyerRegistry.registerPPABuyer(buyerId);\r\n            emit purchasedPPA(listOfPPAs[i].id, listOfPPAs[i].buyerID, listOfPPAs[i].producerID);\r\n            if(listOfPPAs.length > 1){\r\n                listOfPPAs[i] = listOfPPAs[listOfPPAs.length-1];\r\n            }\r\n            listOfPPAs.length--;\r\n            break;\r\n            }\r\n        }\r\n    }\r\n\r\n    //this is a trial function just for PPA_energy_trading part\r\n    function availableKwhs(uint _energy, uint _idOfMatchPPA) public onlyRegisteredProducers{\r\n        address _producer = msg.sender;\r\n        listOfkwhs.push(producerEnergy({\r\n            producerID: _producer,\r\n            timestamp: block.timestamp,\r\n            energy: _energy,\r\n            idOfmatchContract: _idOfMatchPPA\r\n        }));\r\n    }\r\n\r\n    function buy_PPA_Kwhs(uint _idOfPPA) public onlyPPABuyers{\r\n        uint currentTime = block.timestamp;\r\n        address aBuyerId = msg.sender; \r\n        for(uint j = 0; j<Appas.length; j++){ //uint j = 0; j<Appas.length; j++\r\n            //search on Approved PPAs to match the id - producer with kwhs\r\n            for(uint i = 0; i<listOfkwhs.length; i++){ //uint i = 0; i<listOfkwhs.length; i++\r\n                uint totalEnergyPurchased = 0;\r\n                //find the correct available kwhs based on id of ppa\r\n                if((Appas[j].producerID == listOfkwhs[i].producerID) && (Appas[j].id == _idOfPPA) && (Appas[j].id == listOfkwhs[i].idOfmatchContract)){\r\n                    //if endDay < now then PPA has expired \r\n                    if(Appas[j].endDay < currentTime){\r\n                        revert(\"PPA has expired\");\r\n                    }\r\n                    totalEnergyPurchased = listOfkwhs[i].energy;\r\n                    Appas[j].totalKwh = Appas[j].totalKwh + totalEnergyPurchased;\r\n                    listOfkwhs[i].energy = 0;\r\n                    listOfprchs.push(purchasesPPA({\r\n                        buyerID: aBuyerId,\r\n                        producerID: listOfkwhs[i].producerID,\r\n                        timestamp: currentTime,\r\n                        idOfPPA: _idOfPPA,\r\n                        purchasedEnergy: totalEnergyPurchased\r\n                    }));\r\n                }\r\n                if(listOfkwhs[i].energy == 0){\r\n                    if(listOfkwhs.length > 1){\r\n                        listOfkwhs[i] = listOfkwhs[listOfkwhs.length-1];\r\n                    }\r\n                    listOfkwhs.length--;\r\n                    break;\r\n                }\r\n            }\r\n        }\r\n    }\r\n\r\n    function killPPA(uint _id) public {\r\n        uint currentTime = block.timestamp;\r\n        for(uint i = 0; i<Appas.length; i++){\r\n            if((Appas[i].id == _id) && (Appas[i].endDay < currentTime)){\r\n                Appas[i].status = Status.Expired;\r\n                listOfPPAs.push(ppa({\r\n                    buyerID: Appas[i].buyerID,\r\n                    producerID: Appas[i].producerID,\r\n                    energy: Appas[i].energy,\r\n                    price: Appas[i].price,\r\n                    startDay: Appas[i].startDay,\r\n                    endDay: Appas[i].endDay,\r\n                    id: Appas[i].id,\r\n                    status: Status.Expired\r\n                }));\r\n                ppaBuyerRegistry.deregisterPPABuyer(Appas[i].buyerID);\r\n                emit expiredPPA(Appas[i].producerID, Appas[i].buyerID, Appas[i].startDay, Appas[i].endDay, Appas[i].status);\r\n                if(Appas.length > 1){\r\n                    Appas[i] = Appas[Appas.length-1];\r\n                }\r\n                Appas.length--;\r\n                break;\r\n            }\r\n        }\r\n    }\r\n\r\n    function viewAllPPAs () public view returns (ppa[] memory){\r\n        return listOfPPAs;\r\n    }\r\n\r\n    function viewAllpurchases() public view returns (purchasesPPA[] memory){\r\n        return listOfprchs;\r\n    }\r\n\r\n    function viewAllApprovedPPAs() public view returns(approvedPPA[] memory){\r\n        return Appas;\r\n    }\r\n\r\n    function getPPAbyID(uint _id) public view returns (address, address, uint, uint, uint, uint, uint, uint){\r\n        ppa storage _ppa = listOfPPAs[_id];\r\n        return (_ppa.producerID, _ppa.buyerID, _ppa.energy, _ppa.price, _ppa.startDay, _ppa.endDay, uint(_ppa.status), _ppa.id);\r\n    }\r\n\r\n    function viewAvailableKwhs() public view returns(producerEnergy[] memory){\r\n        return listOfkwhs;\r\n    }\r\n\r\n    function getAvKwhs() public view returns(uint count){\r\n        return listOfkwhs.length;\r\n    }\r\n}",
  "sourcePath": "C:/Users/Lenovo/projects/ethereum/protergia/blockchain-energy-trading-and-green-energy-certification-thesis-w-protergia/src/contracts/PPA.sol",
  "compiler": {
    "name": "solc",
    "version": "0.5.16+commit.9c3226ce.Emscripten.clang"
  },
  "schemaVersion": "3.3.4",
  "updatedAt": "2021-06-30T04:05:11.348Z",
  "devdoc": {
    "methods": {}
  },
  "userdoc": {
    "methods": {}
  }
}