{
  "contractName": "PPA",
  "abi": [
    {
      "anonymous": false,
      "inputs": [
        {
          "indexed": false,
          "internalType": "address",
          "name": "_buyer",
          "type": "address"
        },
        {
          "indexed": false,
          "internalType": "uint256",
          "name": "_amount",
          "type": "uint256"
        }
      ],
      "name": "Claim",
      "type": "event"
    },
    {
      "constant": false,
      "inputs": [
        {
          "internalType": "address",
          "name": "_buyerID",
          "type": "address"
        },
        {
          "internalType": "uint256",
          "name": "_energy",
          "type": "uint256"
        },
        {
          "internalType": "uint256",
          "name": "_price",
          "type": "uint256"
        },
        {
          "internalType": "uint256",
          "name": "_startDay",
          "type": "uint256"
        },
        {
          "internalType": "uint256",
          "name": "_endDay",
          "type": "uint256"
        },
        {
          "internalType": "contract IERC1155",
          "name": "token",
          "type": "address"
        }
      ],
      "name": "createPPA",
      "outputs": [],
      "payable": true,
      "stateMutability": "payable",
      "type": "function"
    },
    {
      "constant": false,
      "inputs": [
        {
          "internalType": "address",
          "name": "_buyerID",
          "type": "address"
        },
        {
          "internalType": "uint256",
          "name": "_energy",
          "type": "uint256"
        },
        {
          "internalType": "uint256",
          "name": "_price",
          "type": "uint256"
        },
        {
          "internalType": "uint256",
          "name": "_startDay",
          "type": "uint256"
        },
        {
          "internalType": "uint256",
          "name": "_endDay",
          "type": "uint256"
        }
      ],
      "name": "changePPATerms",
      "outputs": [],
      "payable": false,
      "stateMutability": "nonpayable",
      "type": "function"
    },
    {
      "constant": false,
      "inputs": [],
      "name": "claimPPA",
      "outputs": [],
      "payable": true,
      "stateMutability": "payable",
      "type": "function"
    },
    {
      "constant": false,
      "inputs": [],
      "name": "denyPPA",
      "outputs": [],
      "payable": false,
      "stateMutability": "nonpayable",
      "type": "function"
    },
    {
      "constant": false,
      "inputs": [
        {
          "internalType": "uint256",
          "name": "tokenID",
          "type": "uint256"
        }
      ],
      "name": "claimToken",
      "outputs": [],
      "payable": true,
      "stateMutability": "payable",
      "type": "function"
    },
    {
      "constant": false,
      "inputs": [
        {
          "internalType": "address",
          "name": "_operator",
          "type": "address"
        },
        {
          "internalType": "address",
          "name": "_from",
          "type": "address"
        },
        {
          "internalType": "uint256",
          "name": "_id",
          "type": "uint256"
        },
        {
          "internalType": "uint256",
          "name": "_value",
          "type": "uint256"
        },
        {
          "internalType": "bytes",
          "name": "_data",
          "type": "bytes"
        }
      ],
      "name": "onERC1155Received",
      "outputs": [
        {
          "internalType": "bytes4",
          "name": "",
          "type": "bytes4"
        }
      ],
      "payable": false,
      "stateMutability": "nonpayable",
      "type": "function"
    },
    {
      "constant": false,
      "inputs": [],
      "name": "buyEnergy",
      "outputs": [],
      "payable": false,
      "stateMutability": "nonpayable",
      "type": "function"
    },
    {
      "constant": true,
      "inputs": [],
      "name": "viewAllPPAs",
      "outputs": [
        {
          "components": [
            {
              "internalType": "address",
              "name": "buyerID",
              "type": "address"
            },
            {
              "internalType": "address payable",
              "name": "producerID",
              "type": "address"
            },
            {
              "internalType": "uint256",
              "name": "energy",
              "type": "uint256"
            },
            {
              "internalType": "uint256",
              "name": "price",
              "type": "uint256"
            },
            {
              "internalType": "uint256",
              "name": "startDay",
              "type": "uint256"
            },
            {
              "internalType": "uint256",
              "name": "endDay",
              "type": "uint256"
            },
            {
              "internalType": "uint256",
              "name": "collectID",
              "type": "uint256"
            },
            {
              "internalType": "enum PPA.Status",
              "name": "status",
              "type": "uint8"
            }
          ],
          "internalType": "struct PPA.ppa[]",
          "name": "",
          "type": "tuple[]"
        }
      ],
      "payable": false,
      "stateMutability": "view",
      "type": "function"
    }
  ],
  "bytecode": "0x6080604052600060045534801561001557600080fd5b50611560806100256000396000f3fe60806040526004361061007b5760003560e01c8063e1b0d3c01161004e578063e1b0d3c0146100f3578063e35963331461011e578063e436db781461013a578063f23a6e61146101445761007b565b806339e765a11461008057806368a4be2514610097578063a9e7c2e5146100c0578063cb133807146100dc575b600080fd5b34801561008c57600080fd5b50610095610181565b005b3480156100a357600080fd5b506100be60048036036100b99190810190610d27565b610183565b005b6100da60048036036100d59190810190610e27565b61036f565b005b3480156100e857600080fd5b506100f1610481565b005b3480156100ff57600080fd5b5061010861060a565b604051610115919061128f565b60405180910390f35b61013860048036036101339190810190610d9e565b610775565b005b6101426109b6565b005b34801561015057600080fd5b5061016b60048036036101669190810190610c95565b610bea565b60405161017891906112b1565b60405180910390f35b565b60008090505b600380549050811015610367578573ffffffffffffffffffffffffffffffffffffffff16600382815481106101ba57fe5b906000526020600020906008020160000160009054906101000a900473ffffffffffffffffffffffffffffffffffffffff1673ffffffffffffffffffffffffffffffffffffffff16141561035a576001600281111561021557fe5b6003828154811061022257fe5b906000526020600020906008020160070160009054906101000a900460ff16600281111561024c57fe5b141561028d576040517f08c379a00000000000000000000000000000000000000000000000000000000081526004016102849061134c565b60405180910390fd5b846003828154811061029b57fe5b90600052602060002090600802016002018190555083600382815481106102be57fe5b90600052602060002090600802016003018190555082600382815481106102e157fe5b906000526020600020906008020160040181905550816003828154811061030457fe5b90600052602060002090600802016005018190555060006003828154811061032857fe5b906000526020600020906008020160070160006101000a81548160ff0219169083600281111561035457fe5b02179055505b8080600101915050610189565b505050505050565b6000349050600160008381526020019081526020016000205481101580156103ab57506000600160008481526020019081526020016000205414155b6103ea576040517f08c379a00000000000000000000000000000000000000000000000000000000081526004016103e1906112cc565b60405180910390fd5b6000809054906101000a900473ffffffffffffffffffffffffffffffffffffffff1673ffffffffffffffffffffffffffffffffffffffff1663f242432a30338560016040518563ffffffff1660e01b815260040161044b9493929190611237565b600060405180830381600087803b15801561046557600080fd5b505af1158015610479573d6000803e3d6000fd5b505050505050565b600033905060008090505b600380549050811015610606573373ffffffffffffffffffffffffffffffffffffffff16600382815481106104bd57fe5b906000526020600020906008020160010160009054906101000a900473ffffffffffffffffffffffffffffffffffffffff1673ffffffffffffffffffffffffffffffffffffffff161415610546576040517f08c379a000000000000000000000000000000000000000000000000000000000815260040161053d9061132c565b60405180910390fd5b8173ffffffffffffffffffffffffffffffffffffffff166003828154811061056a57fe5b906000526020600020906008020160000160009054906101000a900473ffffffffffffffffffffffffffffffffffffffff1673ffffffffffffffffffffffffffffffffffffffff1614156105f9576002600382815481106105c757fe5b906000526020600020906008020160070160006101000a81548160ff021916908360028111156105f357fe5b02179055505b808060010191505061048c565b5050565b60606003805480602002602001604051908101604052809291908181526020016000905b8282101561076c5783829060005260206000209060080201604051806101000160405290816000820160009054906101000a900473ffffffffffffffffffffffffffffffffffffffff1673ffffffffffffffffffffffffffffffffffffffff1673ffffffffffffffffffffffffffffffffffffffff1681526020016001820160009054906101000a900473ffffffffffffffffffffffffffffffffffffffff1673ffffffffffffffffffffffffffffffffffffffff1673ffffffffffffffffffffffffffffffffffffffff16815260200160028201548152602001600382015481526020016004820154815260200160058201548152602001600682015481526020016007820160009054906101000a900460ff16600281111561074e57fe5b600281111561075957fe5b815250508152602001906001019061062e565b50505050905090565b600073ffffffffffffffffffffffffffffffffffffffff168173ffffffffffffffffffffffffffffffffffffffff1614156107af57600080fd5b806000806101000a81548173ffffffffffffffffffffffffffffffffffffffff021916908373ffffffffffffffffffffffffffffffffffffffff1602179055506001806000600454815260200190815260200160002081905550600033905060036040518061010001604052808973ffffffffffffffffffffffffffffffffffffffff1681526020018373ffffffffffffffffffffffffffffffffffffffff16815260200188815260200187815260200186815260200185815260200160045481526020016000600281111561088157fe5b8152509080600181540180825580915050906001820390600052602060002090600802016000909192909190915060008201518160000160006101000a81548173ffffffffffffffffffffffffffffffffffffffff021916908373ffffffffffffffffffffffffffffffffffffffff16021790555060208201518160010160006101000a81548173ffffffffffffffffffffffffffffffffffffffff021916908373ffffffffffffffffffffffffffffffffffffffff16021790555060408201518160020155606082015181600301556080820151816004015560a0820151816005015560c0820151816006015560e08201518160070160006101000a81548160ff0219169083600281111561099357fe5b021790555050505060046000815480929190600101919050555050505050505050565b600033905060008090505b600380549050811015610be6578173ffffffffffffffffffffffffffffffffffffffff16600382815481106109f257fe5b906000526020600020906008020160010160009054906101000a900473ffffffffffffffffffffffffffffffffffffffff1673ffffffffffffffffffffffffffffffffffffffff161415610a7b576040517f08c379a0000000000000000000000000000000000000000000000000000000008152600401610a729061130c565b60405180910390fd5b8173ffffffffffffffffffffffffffffffffffffffff1660038281548110610a9f57fe5b906000526020600020906008020160000160009054906101000a900473ffffffffffffffffffffffffffffffffffffffff1673ffffffffffffffffffffffffffffffffffffffff161415610bd957600280811115610af957fe5b60038281548110610b0657fe5b906000526020600020906008020160070160009054906101000a900460ff166002811115610b3057fe5b1415610b71576040517f08c379a0000000000000000000000000000000000000000000000000000000008152600401610b68906112ec565b60405180910390fd5b600160038281548110610b8057fe5b906000526020600020906008020160070160006101000a81548160ff02191690836002811115610bac57fe5b0217905550610bd860038281548110610bc157fe5b90600052602060002090600802016006015461036f565b5b80806001019150506109c1565b5050565b6000604051610bf890611222565b604051809103902090509695505050505050565b600081359050610c1b816114d8565b92915050565b60008083601f840112610c3357600080fd5b8235905067ffffffffffffffff811115610c4c57600080fd5b602083019150836001820283011115610c6457600080fd5b9250929050565b600081359050610c7a816114ef565b92915050565b600081359050610c8f81611506565b92915050565b60008060008060008060a08789031215610cae57600080fd5b6000610cbc89828a01610c0c565b9650506020610ccd89828a01610c0c565b9550506040610cde89828a01610c80565b9450506060610cef89828a01610c80565b935050608087013567ffffffffffffffff811115610d0c57600080fd5b610d1889828a01610c21565b92509250509295509295509295565b600080600080600060a08688031215610d3f57600080fd5b6000610d4d88828901610c0c565b9550506020610d5e88828901610c80565b9450506040610d6f88828901610c80565b9350506060610d8088828901610c80565b9250506080610d9188828901610c80565b9150509295509295909350565b60008060008060008060c08789031215610db757600080fd5b6000610dc589828a01610c0c565b9650506020610dd689828a01610c80565b9550506040610de789828a01610c80565b9450506060610df889828a01610c80565b9350506080610e0989828a01610c80565b92505060a0610e1a89828a01610c6b565b9150509295509295509295565b600060208284031215610e3957600080fd5b6000610e4784828501610c80565b91505092915050565b6000610e5c8383611162565b6101008301905092915050565b610e7281611471565b82525050565b610e81816113e4565b82525050565b610e90816113d2565b82525050565b610e9f816113d2565b82525050565b6000610eb08261137c565b610eba8185611394565b9350610ec58361136c565b8060005b83811015610ef6578151610edd8882610e50565b9750610ee883611387565b925050600181019050610ec9565b5085935050505092915050565b610f0c816113f6565b82525050565b610f1b81611483565b82525050565b610f2a81611495565b82525050565b6000610f3d6005836113b6565b91507f6572726f720000000000000000000000000000000000000000000000000000006000830152602082019050919050565b6000610f7d6021836113b6565b91507f596f752063616e206e6f742061636365707420612072656a656374656420505060008301527f41000000000000000000000000000000000000000000000000000000000000006020830152604082019050919050565b6000610fe36006836113b6565b91507f57726f6e673200000000000000000000000000000000000000000000000000006000830152602082019050919050565b60006110236006836113b6565b91507f57726f6e673300000000000000000000000000000000000000000000000000006000830152602082019050919050565b60006110636038836113c7565b91507f6f6e45524331313535526563656976656428616464726573732c61646472657360008301527f732c75696e743235362c75696e743235362c62797465732900000000000000006020830152603882019050919050565b60006110c96003836113a5565b91507f50504100000000000000000000000000000000000000000000000000000000006000830152602082019050919050565b60006111096022836113b6565b91507f596f752063616e206e6f74206368616e676520616e20617070726f766564205060008301527f50410000000000000000000000000000000000000000000000000000000000006020830152604082019050919050565b610100820160008201516111796000850182610e87565b50602082015161118c6020850182610e78565b50604082015161119f6040850182611204565b5060608201516111b26060850182611204565b5060808201516111c56080850182611204565b5060a08201516111d860a0850182611204565b5060c08201516111eb60c0850182611204565b5060e08201516111fe60e0850182610f12565b50505050565b61120d81611467565b82525050565b61121c81611467565b82525050565b600061122d82611056565b9150819050919050565b600060a08201905061124c6000830187610e96565b6112596020830186610e69565b6112666040830185611213565b6112736060830184610f21565b8181036080830152611284816110bc565b905095945050505050565b600060208201905081810360008301526112a98184610ea5565b905092915050565b60006020820190506112c66000830184610f03565b92915050565b600060208201905081810360008301526112e581610f30565b9050919050565b6000602082019050818103600083015261130581610f70565b9050919050565b6000602082019050818103600083015261132581610fd6565b9050919050565b6000602082019050818103600083015261134581611016565b9050919050565b60006020820190508181036000830152611365816110fc565b9050919050565b6000819050602082019050919050565b600081519050919050565b6000602082019050919050565b600082825260208201905092915050565b600082825260208201905092915050565b600082825260208201905092915050565b600081905092915050565b60006113dd82611447565b9050919050565b60006113ef82611447565b9050919050565b60007fffffffff0000000000000000000000000000000000000000000000000000000082169050919050565b600061142d826113d2565b9050919050565b6000819050611442826114cb565b919050565b600073ffffffffffffffffffffffffffffffffffffffff82169050919050565b6000819050919050565b600061147c826114a7565b9050919050565b600061148e82611434565b9050919050565b60006114a082611467565b9050919050565b60006114b2826114b9565b9050919050565b60006114c482611447565b9050919050565b600381106114d557fe5b50565b6114e1816113d2565b81146114ec57600080fd5b50565b6114f881611422565b811461150357600080fd5b50565b61150f81611467565b811461151a57600080fd5b5056fea365627a7a72315820f8801b303da0a3afdb74645273c897d1526cc54640c5660f41d0dd685c2133896c6578706572696d656e74616cf564736f6c63430005100040",
  "source": "pragma solidity >=0.4.21 <0.7.0;\r\npragma experimental ABIEncoderV2;\r\n\r\nimport \"src/contracts/token/ERC1155.sol\";\r\nimport \"src/contracts/token/ERC1155Mintable.sol\";\r\nimport \"src/contracts/token/IERC1155.sol\";\r\n\r\ncontract PPAToken is ERC1155, ERC1155Mintable {\r\n  constructor() public {\r\n  }\r\n}\r\n\r\ncontract PPA {\r\n\r\n    IERC1155 private _token;\r\n\r\n    mapping (uint => uint) price;\r\n\r\n    enum Status {Pending, Approved, Rejected}\r\n    event Claim(address _buyer, uint256 _amount);\r\n\r\n    struct ppa {\r\n        address buyerID;\r\n        address payable producerID;\r\n        uint energy;\r\n        uint price;\r\n        uint startDay;\r\n        uint endDay;\r\n        uint collectID;\r\n        Status status;\r\n    }\r\n\r\n    /////////////////////////////////////Implematation of ERC1155 Token Tomorrow/////////////////////////////////////\r\n    mapping(uint => ppa) ppas;\r\n    ppa[] listOfPPAs;\r\n    uint nextCollectID = 0;\r\n\r\n    function createPPA(address _buyerID, uint _energy, uint _price, uint _startDay, uint _endDay, IERC1155 token) public payable {\r\n        \r\n        require(address(token) != address(0));\r\n        _token = token;\r\n        price[nextCollectID] = 1;\r\n        address payable _producerID = msg.sender;\r\n\r\n        listOfPPAs.push(ppa({\r\n            buyerID: _buyerID,\r\n            producerID: _producerID,\r\n            energy: _energy,\r\n            price: _price,\r\n            startDay: _startDay,\r\n            endDay: _endDay,\r\n            collectID: nextCollectID,\r\n            status: Status.Pending\r\n        }));\r\n        nextCollectID++;\r\n    }\r\n\r\n    function changePPATerms(address _buyerID, uint _energy, uint _price, uint _startDay, uint _endDay) public {\r\n        for(uint i = 0; i<listOfPPAs.length; i++){\r\n            if(listOfPPAs[i].buyerID == _buyerID){\r\n                require(listOfPPAs[i].status != Status.Approved, \"You can not change an approved PPA\");\r\n                listOfPPAs[i].energy = _energy;\r\n                listOfPPAs[i].price = _price;\r\n                listOfPPAs[i].startDay = _startDay;\r\n                listOfPPAs[i].endDay = _endDay;\r\n                listOfPPAs[i].status = Status.Pending;\r\n            }\r\n        }\r\n    }\r\n\r\n    function claimPPA() external payable {\r\n        address buyerId = msg.sender;\r\n        //uint tokenId = 1;\r\n\r\n        for(uint i = 0; i<listOfPPAs.length; i++){\r\n            require(listOfPPAs[i].producerID != buyerId, \"Wrong2\");\r\n            if((listOfPPAs[i].buyerID == buyerId)){\r\n                require(listOfPPAs[i].status != Status.Rejected, \"You can not accept a rejected PPA\");\r\n                listOfPPAs[i].status = Status.Approved;\r\n                claimToken(listOfPPAs[i].collectID);\r\n            }\r\n        }\r\n    }\r\n\r\n    function denyPPA() public {\r\n        address buyerId = msg.sender;\r\n        for(uint i = 0; i<listOfPPAs.length; i++){\r\n            require(listOfPPAs[i].producerID != msg.sender, \"Wrong3\");\r\n            if((listOfPPAs[i].buyerID == buyerId)){\r\n                listOfPPAs[i].status = Status.Rejected;\r\n            }\r\n        }\r\n    }\r\n\r\n    function claimToken(uint tokenID) public payable{\r\n        uint256 weiAmount = msg.value;\r\n        require(weiAmount >= price[tokenID] && price[tokenID] != 0, \"error\");\r\n\r\n        _token.safeTransferFrom(address(this), msg.sender, tokenID, 1, \"PPA\");\r\n    }\r\n\r\n    function onERC1155Received(address _operator, address _from, uint256 _id, uint256 _value, bytes calldata _data) external returns(bytes4){\r\n        return bytes4(keccak256(\"onERC1155Received(address,address,uint256,uint256,bytes)\"));\r\n    }\r\n\r\n    function buyEnergy() public{\r\n\r\n    }\r\n\r\n    function viewAllPPAs () public view returns (ppa[] memory){\r\n        return listOfPPAs;\r\n    }\r\n}",
  "sourcePath": "C:/Users/Lenovo/projects/ethereum/protergia/blockchain-energy-trading-and-green-energy-certification-thesis-w-protergia/src/contracts/PPA.sol",
  "compiler": {
    "name": "solc",
    "version": "0.5.16+commit.9c3226ce.Emscripten.clang"
  },
  "schemaVersion": "3.3.4",
  "updatedAt": "2021-06-20T15:12:04.853Z",
  "devdoc": {
    "methods": {}
  },
  "userdoc": {
    "methods": {}
  }
}