{
  "contractName": "PPA",
  "abi": [
    {
      "anonymous": false,
      "inputs": [
        {
          "indexed": false,
          "internalType": "address",
          "name": "_buyer",
          "type": "address"
        },
        {
          "indexed": false,
          "internalType": "uint256",
          "name": "_amount",
          "type": "uint256"
        }
      ],
      "name": "Claim",
      "type": "event"
    },
    {
      "constant": false,
      "inputs": [
        {
          "internalType": "address",
          "name": "_buyerID",
          "type": "address"
        },
        {
          "internalType": "uint256",
          "name": "_energy",
          "type": "uint256"
        },
        {
          "internalType": "uint256",
          "name": "_price",
          "type": "uint256"
        },
        {
          "internalType": "uint256",
          "name": "_startDay",
          "type": "uint256"
        },
        {
          "internalType": "uint256",
          "name": "_endDay",
          "type": "uint256"
        }
      ],
      "name": "createPPA",
      "outputs": [],
      "payable": true,
      "stateMutability": "payable",
      "type": "function"
    },
    {
      "constant": false,
      "inputs": [
        {
          "internalType": "address",
          "name": "_buyerID",
          "type": "address"
        },
        {
          "internalType": "uint256",
          "name": "_energy",
          "type": "uint256"
        },
        {
          "internalType": "uint256",
          "name": "_price",
          "type": "uint256"
        },
        {
          "internalType": "uint256",
          "name": "_startDay",
          "type": "uint256"
        },
        {
          "internalType": "uint256",
          "name": "_endDay",
          "type": "uint256"
        }
      ],
      "name": "changePPATerms",
      "outputs": [],
      "payable": false,
      "stateMutability": "nonpayable",
      "type": "function"
    },
    {
      "constant": false,
      "inputs": [],
      "name": "claimPPA",
      "outputs": [],
      "payable": true,
      "stateMutability": "payable",
      "type": "function"
    },
    {
      "constant": false,
      "inputs": [],
      "name": "denyPPA",
      "outputs": [],
      "payable": false,
      "stateMutability": "nonpayable",
      "type": "function"
    },
    {
      "constant": false,
      "inputs": [],
      "name": "buyEnergy",
      "outputs": [],
      "payable": false,
      "stateMutability": "nonpayable",
      "type": "function"
    },
    {
      "constant": true,
      "inputs": [],
      "name": "viewAllPPAs",
      "outputs": [
        {
          "components": [
            {
              "internalType": "address",
              "name": "buyerID",
              "type": "address"
            },
            {
              "internalType": "address payable",
              "name": "producerID",
              "type": "address"
            },
            {
              "internalType": "uint256",
              "name": "energy",
              "type": "uint256"
            },
            {
              "internalType": "uint256",
              "name": "price",
              "type": "uint256"
            },
            {
              "internalType": "uint256",
              "name": "startDay",
              "type": "uint256"
            },
            {
              "internalType": "uint256",
              "name": "endDay",
              "type": "uint256"
            },
            {
              "internalType": "enum PPA.Status",
              "name": "status",
              "type": "uint8"
            }
          ],
          "internalType": "struct PPA.ppa[]",
          "name": "",
          "type": "tuple[]"
        }
      ],
      "payable": false,
      "stateMutability": "view",
      "type": "function"
    }
  ],
  "bytecode": "0x608060405234801561001057600080fd5b50610e76806100206000396000f3fe6080604052600436106100555760003560e01c806339e765a11461005a57806368a4be2514610071578063818e2edf1461009a578063cb133807146100b6578063e1b0d3c0146100cd578063e436db78146100f8575b600080fd5b34801561006657600080fd5b5061006f610102565b005b34801561007d57600080fd5b5061009860048036036100939190810190610996565b610104565b005b6100b460048036036100af9190810190610996565b6102f0565b005b3480156100c257600080fd5b506100cb610477565b005b3480156100d957600080fd5b506100e2610600565b6040516100ef9190610c99565b60405180910390f35b610100610760565b005b565b60008090505b6001805490508110156102e8578573ffffffffffffffffffffffffffffffffffffffff166001828154811061013b57fe5b906000526020600020906007020160000160009054906101000a900473ffffffffffffffffffffffffffffffffffffffff1673ffffffffffffffffffffffffffffffffffffffff1614156102db576001600281111561019657fe5b600182815481106101a357fe5b906000526020600020906007020160060160009054906101000a900460ff1660028111156101cd57fe5b141561020e576040517f08c379a000000000000000000000000000000000000000000000000000000000815260040161020590610d1b565b60405180910390fd5b846001828154811061021c57fe5b906000526020600020906007020160020181905550836001828154811061023f57fe5b906000526020600020906007020160030181905550826001828154811061026257fe5b906000526020600020906007020160040181905550816001828154811061028557fe5b9060005260206000209060070201600501819055506000600182815481106102a957fe5b906000526020600020906007020160060160006101000a81548160ff021916908360028111156102d557fe5b02179055505b808060010191505061010a565b505050505050565b600033905060016040518060e001604052808873ffffffffffffffffffffffffffffffffffffffff1681526020018373ffffffffffffffffffffffffffffffffffffffff1681526020018781526020018681526020018581526020018481526020016000600281111561035f57fe5b8152509080600181540180825580915050906001820390600052602060002090600702016000909192909190915060008201518160000160006101000a81548173ffffffffffffffffffffffffffffffffffffffff021916908373ffffffffffffffffffffffffffffffffffffffff16021790555060208201518160010160006101000a81548173ffffffffffffffffffffffffffffffffffffffff021916908373ffffffffffffffffffffffffffffffffffffffff16021790555060408201518160020155606082015181600301556080820151816004015560a0820151816005015560c08201518160060160006101000a81548160ff0219169083600281111561046757fe5b0217905550505050505050505050565b600033905060008090505b6001805490508110156105fc573373ffffffffffffffffffffffffffffffffffffffff16600182815481106104b357fe5b906000526020600020906007020160010160009054906101000a900473ffffffffffffffffffffffffffffffffffffffff1673ffffffffffffffffffffffffffffffffffffffff16141561053c576040517f08c379a000000000000000000000000000000000000000000000000000000000815260040161053390610cfb565b60405180910390fd5b8173ffffffffffffffffffffffffffffffffffffffff166001828154811061056057fe5b906000526020600020906007020160000160009054906101000a900473ffffffffffffffffffffffffffffffffffffffff1673ffffffffffffffffffffffffffffffffffffffff1614156105ef576002600182815481106105bd57fe5b906000526020600020906007020160060160006101000a81548160ff021916908360028111156105e957fe5b02179055505b8080600101915050610482565b5050565b60606001805480602002602001604051908101604052809291908181526020016000905b8282101561075757838290600052602060002090600702016040518060e00160405290816000820160009054906101000a900473ffffffffffffffffffffffffffffffffffffffff1673ffffffffffffffffffffffffffffffffffffffff1673ffffffffffffffffffffffffffffffffffffffff1681526020016001820160009054906101000a900473ffffffffffffffffffffffffffffffffffffffff1673ffffffffffffffffffffffffffffffffffffffff1673ffffffffffffffffffffffffffffffffffffffff168152602001600282015481526020016003820154815260200160048201548152602001600582015481526020016006820160009054906101000a900460ff16600281111561073957fe5b600281111561074457fe5b8152505081526020019060010190610624565b50505050905090565b600033905060008090505b600180549050811015610968578173ffffffffffffffffffffffffffffffffffffffff166001828154811061079c57fe5b906000526020600020906007020160010160009054906101000a900473ffffffffffffffffffffffffffffffffffffffff1673ffffffffffffffffffffffffffffffffffffffff161415610825576040517f08c379a000000000000000000000000000000000000000000000000000000000815260040161081c90610cdb565b60405180910390fd5b8173ffffffffffffffffffffffffffffffffffffffff166001828154811061084957fe5b906000526020600020906007020160000160009054906101000a900473ffffffffffffffffffffffffffffffffffffffff1673ffffffffffffffffffffffffffffffffffffffff16141561095b576002808111156108a357fe5b600182815481106108b057fe5b906000526020600020906007020160060160009054906101000a900460ff1660028111156108da57fe5b141561091b576040517f08c379a000000000000000000000000000000000000000000000000000000000815260040161091290610cbb565b60405180910390fd5b600180828154811061092957fe5b906000526020600020906007020160060160006101000a81548160ff0219169083600281111561095557fe5b02179055505b808060010191505061076b565b5050565b60008135905061097b81610e05565b92915050565b60008135905061099081610e1c565b92915050565b600080600080600060a086880312156109ae57600080fd5b60006109bc8882890161096c565b95505060206109cd88828901610981565b94505060406109de88828901610981565b93505060606109ef88828901610981565b9250506080610a0088828901610981565b9150509295509295909350565b6000610a198383610bfc565b60e08301905092915050565b610a2e81610d97565b82525050565b610a3d81610d85565b82525050565b6000610a4e82610d4b565b610a588185610d63565b9350610a6383610d3b565b8060005b83811015610a94578151610a7b8882610a0d565b9750610a8683610d56565b925050600181019050610a67565b5085935050505092915050565b610aaa81610de6565b82525050565b6000610abd602183610d74565b91507f596f752063616e206e6f742061636365707420612072656a656374656420505060008301527f41000000000000000000000000000000000000000000000000000000000000006020830152604082019050919050565b6000610b23600683610d74565b91507f57726f6e673200000000000000000000000000000000000000000000000000006000830152602082019050919050565b6000610b63600683610d74565b91507f57726f6e673300000000000000000000000000000000000000000000000000006000830152602082019050919050565b6000610ba3602283610d74565b91507f596f752063616e206e6f74206368616e676520616e20617070726f766564205060008301527f50410000000000000000000000000000000000000000000000000000000000006020830152604082019050919050565b60e082016000820151610c126000850182610a34565b506020820151610c256020850182610a25565b506040820151610c386040850182610c8a565b506060820151610c4b6060850182610c8a565b506080820151610c5e6080850182610c8a565b5060a0820151610c7160a0850182610c8a565b5060c0820151610c8460c0850182610aa1565b50505050565b610c9381610ddc565b82525050565b60006020820190508181036000830152610cb38184610a43565b905092915050565b60006020820190508181036000830152610cd481610ab0565b9050919050565b60006020820190508181036000830152610cf481610b16565b9050919050565b60006020820190508181036000830152610d1481610b56565b9050919050565b60006020820190508181036000830152610d3481610b96565b9050919050565b6000819050602082019050919050565b600081519050919050565b6000602082019050919050565b600082825260208201905092915050565b600082825260208201905092915050565b6000610d9082610dbc565b9050919050565b6000610da282610dbc565b9050919050565b6000819050610db782610df8565b919050565b600073ffffffffffffffffffffffffffffffffffffffff82169050919050565b6000819050919050565b6000610df182610da9565b9050919050565b60038110610e0257fe5b50565b610e0e81610d85565b8114610e1957600080fd5b50565b610e2581610ddc565b8114610e3057600080fd5b5056fea365627a7a72315820bb06869739b6c729b5303bc34fe771909284ddfc31d204dafdf431be9a3c55106c6578706572696d656e74616cf564736f6c63430005100040",
  "source": "pragma solidity >=0.4.21 <0.7.0;\r\npragma experimental ABIEncoderV2;\r\n\r\nimport \"src/contracts/token/Common.sol\";\r\nimport \"src/contracts/token/IERC1155TokenReceiver.sol\";\r\n\r\ncontract PPA {\r\n\r\n    enum Status {Pending, Approved, Rejected}\r\n\r\n    event Claim(address _buyer, uint256 _amount);\r\n\r\n    struct ppa {\r\n        address buyerID;\r\n        address payable producerID;\r\n        uint energy;\r\n        uint price;\r\n        uint startDay;\r\n        uint endDay;\r\n        Status status;\r\n    }\r\n\r\n    mapping(uint => ppa) ppas;\r\n    ppa[] listOfPPAs;\r\n\r\n    function createPPA(address _buyerID, uint _energy, uint _price, uint _startDay, uint _endDay) public payable {\r\n        address payable _producerID = msg.sender;\r\n\r\n        listOfPPAs.push(ppa({\r\n            buyerID: _buyerID,\r\n            producerID: _producerID,\r\n            energy: _energy,\r\n            price: _price,\r\n            startDay: _startDay,\r\n            endDay: _endDay,\r\n            status: Status.Pending\r\n        }));\r\n    }\r\n\r\n    function changePPATerms(address _buyerID, uint _energy, uint _price, uint _startDay, uint _endDay) public {\r\n        for(uint i = 0; i<listOfPPAs.length; i++){\r\n            if(listOfPPAs[i].buyerID == _buyerID){\r\n                require(listOfPPAs[i].status != Status.Approved, \"You can not change an approved PPA\");\r\n                listOfPPAs[i].energy = _energy;\r\n                listOfPPAs[i].price = _price;\r\n                listOfPPAs[i].startDay = _startDay;\r\n                listOfPPAs[i].endDay = _endDay;\r\n                listOfPPAs[i].status = Status.Pending;\r\n            }\r\n        }\r\n    }\r\n\r\n    function claimPPA() public payable {\r\n        address buyerId = msg.sender;\r\n\r\n        for(uint i = 0; i<listOfPPAs.length; i++){\r\n            require(listOfPPAs[i].producerID != buyerId, \"Wrong2\");\r\n            if((listOfPPAs[i].buyerID == buyerId)){\r\n                require(listOfPPAs[i].status != Status.Rejected, \"You can not accept a rejected PPA\");\r\n                listOfPPAs[i].status = Status.Approved;\r\n            }\r\n        }\r\n    }\r\n\r\n    function denyPPA() public {\r\n        address buyerId = msg.sender;\r\n        for(uint i = 0; i<listOfPPAs.length; i++){\r\n            require(listOfPPAs[i].producerID != msg.sender, \"Wrong3\");\r\n            if((listOfPPAs[i].buyerID == buyerId)){\r\n                listOfPPAs[i].status = Status.Rejected;\r\n            }\r\n        }\r\n    }\r\n\r\n    function buyEnergy() public{\r\n\r\n    }\r\n\r\n    function viewAllPPAs () public view returns (ppa[] memory){\r\n        return listOfPPAs;\r\n    }\r\n}",
  "sourcePath": "C:/Users/Lenovo/projects/ethereum/protergia/blockchain-energy-trading-and-green-energy-certification-thesis-w-Protergia/src/contracts/PPA.sol",
  "compiler": {
    "name": "solc",
    "version": "0.5.16+commit.9c3226ce.Emscripten.clang"
  },
  "schemaVersion": "3.3.4",
  "updatedAt": "2021-06-19T00:57:08.408Z",
  "devdoc": {
    "methods": {}
  },
  "userdoc": {
    "methods": {}
  }
}