{
  "contractName": "PPA",
  "abi": [
    {
      "anonymous": false,
      "inputs": [
        {
          "indexed": true,
          "internalType": "address",
          "name": "ppaBuyer",
          "type": "address"
        }
      ],
      "name": "buyerDeregistered",
      "type": "event"
    },
    {
      "anonymous": false,
      "inputs": [
        {
          "indexed": true,
          "internalType": "address",
          "name": "ppaBuyer",
          "type": "address"
        }
      ],
      "name": "buyerRegistered",
      "type": "event"
    },
    {
      "anonymous": false,
      "inputs": [
        {
          "indexed": true,
          "internalType": "address",
          "name": "producer",
          "type": "address"
        },
        {
          "indexed": false,
          "internalType": "uint256",
          "name": "price",
          "type": "uint256"
        }
      ],
      "name": "createdPPA",
      "type": "event"
    },
    {
      "anonymous": false,
      "inputs": [
        {
          "indexed": true,
          "internalType": "address",
          "name": "producer",
          "type": "address"
        },
        {
          "indexed": true,
          "internalType": "address",
          "name": "buyer",
          "type": "address"
        },
        {
          "indexed": false,
          "internalType": "uint256",
          "name": "startDay",
          "type": "uint256"
        },
        {
          "indexed": false,
          "internalType": "uint256",
          "name": "endDay",
          "type": "uint256"
        },
        {
          "indexed": false,
          "internalType": "enum PPA.Status",
          "name": "status",
          "type": "uint8"
        }
      ],
      "name": "expiredPPA",
      "type": "event"
    },
    {
      "anonymous": false,
      "inputs": [
        {
          "indexed": true,
          "internalType": "address",
          "name": "producer",
          "type": "address"
        }
      ],
      "name": "producerDeregistered",
      "type": "event"
    },
    {
      "anonymous": false,
      "inputs": [
        {
          "indexed": true,
          "internalType": "address",
          "name": "producer",
          "type": "address"
        }
      ],
      "name": "producerRegistered",
      "type": "event"
    },
    {
      "anonymous": false,
      "inputs": [
        {
          "indexed": false,
          "internalType": "uint256",
          "name": "itemID",
          "type": "uint256"
        },
        {
          "indexed": true,
          "internalType": "address",
          "name": "buyer",
          "type": "address"
        },
        {
          "indexed": true,
          "internalType": "address",
          "name": "producer",
          "type": "address"
        }
      ],
      "name": "purchasedPPA",
      "type": "event"
    },
    {
      "constant": false,
      "inputs": [
        {
          "internalType": "address",
          "name": "abuyer",
          "type": "address"
        }
      ],
      "name": "deregisterPPABuyer",
      "outputs": [],
      "payable": false,
      "stateMutability": "nonpayable",
      "type": "function"
    },
    {
      "constant": false,
      "inputs": [],
      "name": "deregisterProducer",
      "outputs": [],
      "payable": false,
      "stateMutability": "nonpayable",
      "type": "function"
    },
    {
      "constant": false,
      "inputs": [
        {
          "internalType": "address",
          "name": "abuyer",
          "type": "address"
        }
      ],
      "name": "registerPPABuyer",
      "outputs": [],
      "payable": false,
      "stateMutability": "nonpayable",
      "type": "function"
    },
    {
      "constant": false,
      "inputs": [],
      "name": "registerProducer",
      "outputs": [],
      "payable": false,
      "stateMutability": "nonpayable",
      "type": "function"
    },
    {
      "constant": false,
      "inputs": [
        {
          "internalType": "uint256",
          "name": "_kwhPrice",
          "type": "uint256"
        },
        {
          "internalType": "uint256",
          "name": "_startDay",
          "type": "uint256"
        },
        {
          "internalType": "uint256",
          "name": "_endDay",
          "type": "uint256"
        }
      ],
      "name": "createPPA",
      "outputs": [],
      "payable": false,
      "stateMutability": "nonpayable",
      "type": "function"
    },
    {
      "constant": false,
      "inputs": [],
      "name": "claimPPA",
      "outputs": [],
      "payable": false,
      "stateMutability": "nonpayable",
      "type": "function"
    },
    {
      "constant": false,
      "inputs": [
        {
          "internalType": "uint256",
          "name": "_energy",
          "type": "uint256"
        },
        {
          "internalType": "uint256",
          "name": "_idOfMatchPPA",
          "type": "uint256"
        }
      ],
      "name": "availableKwhs",
      "outputs": [],
      "payable": false,
      "stateMutability": "nonpayable",
      "type": "function"
    },
    {
      "constant": false,
      "inputs": [
        {
          "internalType": "uint256",
          "name": "_idOfPPA",
          "type": "uint256"
        }
      ],
      "name": "buyPPAKwhs",
      "outputs": [],
      "payable": false,
      "stateMutability": "nonpayable",
      "type": "function"
    },
    {
      "constant": false,
      "inputs": [
        {
          "internalType": "uint256",
          "name": "_id",
          "type": "uint256"
        }
      ],
      "name": "killPPA",
      "outputs": [],
      "payable": false,
      "stateMutability": "nonpayable",
      "type": "function"
    },
    {
      "constant": true,
      "inputs": [],
      "name": "viewAllPPAs",
      "outputs": [
        {
          "components": [
            {
              "internalType": "address",
              "name": "buyerID",
              "type": "address"
            },
            {
              "internalType": "address",
              "name": "producerID",
              "type": "address"
            },
            {
              "internalType": "uint256",
              "name": "kwhPrice",
              "type": "uint256"
            },
            {
              "internalType": "uint256",
              "name": "startDay",
              "type": "uint256"
            },
            {
              "internalType": "uint256",
              "name": "endDay",
              "type": "uint256"
            },
            {
              "internalType": "uint256",
              "name": "id",
              "type": "uint256"
            },
            {
              "internalType": "enum PPA.Status",
              "name": "status",
              "type": "uint8"
            }
          ],
          "internalType": "struct PPA.ppa[]",
          "name": "",
          "type": "tuple[]"
        }
      ],
      "payable": false,
      "stateMutability": "view",
      "type": "function"
    },
    {
      "constant": true,
      "inputs": [],
      "name": "viewAllpurchases",
      "outputs": [
        {
          "components": [
            {
              "internalType": "address",
              "name": "buyerID",
              "type": "address"
            },
            {
              "internalType": "address",
              "name": "producerID",
              "type": "address"
            },
            {
              "internalType": "uint256",
              "name": "timestamp",
              "type": "uint256"
            },
            {
              "internalType": "uint256",
              "name": "idOfPPA",
              "type": "uint256"
            },
            {
              "internalType": "uint256",
              "name": "purchasedEnergy",
              "type": "uint256"
            }
          ],
          "internalType": "struct PPA.purchasesPPA[]",
          "name": "",
          "type": "tuple[]"
        }
      ],
      "payable": false,
      "stateMutability": "view",
      "type": "function"
    },
    {
      "constant": true,
      "inputs": [],
      "name": "viewAllApprovedPPAs",
      "outputs": [
        {
          "components": [
            {
              "internalType": "address",
              "name": "buyerID",
              "type": "address"
            },
            {
              "internalType": "address",
              "name": "producerID",
              "type": "address"
            },
            {
              "internalType": "uint256",
              "name": "kwhPrice",
              "type": "uint256"
            },
            {
              "internalType": "uint256",
              "name": "startDay",
              "type": "uint256"
            },
            {
              "internalType": "uint256",
              "name": "endDay",
              "type": "uint256"
            },
            {
              "internalType": "uint256",
              "name": "id",
              "type": "uint256"
            },
            {
              "internalType": "uint256",
              "name": "totalKwh",
              "type": "uint256"
            },
            {
              "internalType": "enum PPA.Status",
              "name": "status",
              "type": "uint8"
            }
          ],
          "internalType": "struct PPA.approvedPPA[]",
          "name": "",
          "type": "tuple[]"
        }
      ],
      "payable": false,
      "stateMutability": "view",
      "type": "function"
    },
    {
      "constant": true,
      "inputs": [
        {
          "internalType": "uint256",
          "name": "_id",
          "type": "uint256"
        }
      ],
      "name": "getPPAbyID",
      "outputs": [
        {
          "internalType": "address",
          "name": "",
          "type": "address"
        },
        {
          "internalType": "address",
          "name": "",
          "type": "address"
        },
        {
          "internalType": "uint256",
          "name": "",
          "type": "uint256"
        },
        {
          "internalType": "uint256",
          "name": "",
          "type": "uint256"
        },
        {
          "internalType": "uint256",
          "name": "",
          "type": "uint256"
        },
        {
          "internalType": "uint256",
          "name": "",
          "type": "uint256"
        },
        {
          "internalType": "uint256",
          "name": "",
          "type": "uint256"
        }
      ],
      "payable": false,
      "stateMutability": "view",
      "type": "function"
    },
    {
      "constant": true,
      "inputs": [],
      "name": "viewAvailableKwhs",
      "outputs": [
        {
          "components": [
            {
              "internalType": "address",
              "name": "producerID",
              "type": "address"
            },
            {
              "internalType": "uint256",
              "name": "timestamp",
              "type": "uint256"
            },
            {
              "internalType": "uint256",
              "name": "energy",
              "type": "uint256"
            },
            {
              "internalType": "uint256",
              "name": "idOfmatchContract",
              "type": "uint256"
            }
          ],
          "internalType": "struct PPA.producerEnergy[]",
          "name": "",
          "type": "tuple[]"
        }
      ],
      "payable": false,
      "stateMutability": "view",
      "type": "function"
    },
    {
      "constant": true,
      "inputs": [],
      "name": "getAvKwhs",
      "outputs": [
        {
          "internalType": "uint256",
          "name": "count",
          "type": "uint256"
        }
      ],
      "payable": false,
      "stateMutability": "view",
      "type": "function"
    }
  ],
  "bytecode": "0x608060405234801561001057600080fd5b50612ef8806100206000396000f3fe608060405234801561001057600080fd5b50600436106100f55760003560e01c8063b5b5dcc111610097578063e436db7811610066578063e436db7814610240578063ea1d381f1461024a578063ee56659214610254578063f791560c14610270576100f5565b8063b5b5dcc1146101c4578063dbdf0c21146101e2578063dfd66972146101ec578063e1b0d3c014610222576100f5565b8063877b0fde116100d3578063877b0fde146101525780638a28410b146101705780639d88df621461018c578063ac5afa4e146101a8576100f5565b80633933311d146100fa5780635a604165146101165780636d36a6b114610134575b600080fd5b610114600480360361010f919081019061246a565b61028c565b005b61011e6103ed565b60405161012b9190612b6a565b60405180910390f35b61013c610558565b6040516101499190612cd2565b60405180910390f35b61015a610565565b6040516101679190612bae565b60405180910390f35b61018a600480360361018591908101906124a6565b610638565b005b6101a660048036036101a19190810190612418565b6108e7565b005b6101c260048036036101bd9190810190612441565b6109a8565b005b6101cc611002565b6040516101d99190612bd0565b60405180910390f35b6101ea61112b565b005b61020660048036036102019190810190612441565b6111cd565b6040516102199796959493929190612afb565b60405180910390f35b61022a61128b565b6040516102379190612b8c565b60405180910390f35b6102486113eb565b005b610252611a76565b005b61026e60048036036102699190810190612441565b611b18565b005b61028a60048036036102859190810190612418565b6120f7565b005b6000803373ffffffffffffffffffffffffffffffffffffffff1673ffffffffffffffffffffffffffffffffffffffff16815260200190815260200160002060009054906101000a900460ff16610317576040517f08c379a000000000000000000000000000000000000000000000000000000000815260040161030e90612c72565b60405180910390fd5b6000339050600960405180608001604052808373ffffffffffffffffffffffffffffffffffffffff168152602001428152602001858152602001848152509080600181540180825580915050906001820390600052602060002090600402016000909192909190915060008201518160000160006101000a81548173ffffffffffffffffffffffffffffffffffffffff021916908373ffffffffffffffffffffffffffffffffffffffff160217905550602082015181600101556040820151816002015560608201518160030155505050505050565b60606007805480602002602001604051908101604052809291908181526020016000905b8282101561054f5783829060005260206000209060080201604051806101000160405290816000820160009054906101000a900473ffffffffffffffffffffffffffffffffffffffff1673ffffffffffffffffffffffffffffffffffffffff1673ffffffffffffffffffffffffffffffffffffffff1681526020016001820160009054906101000a900473ffffffffffffffffffffffffffffffffffffffff1673ffffffffffffffffffffffffffffffffffffffff1673ffffffffffffffffffffffffffffffffffffffff16815260200160028201548152602001600382015481526020016004820154815260200160058201548152602001600682015481526020016007820160009054906101000a900460ff16600381111561053157fe5b600381111561053c57fe5b8152505081526020019060010190610411565b50505050905090565b6000600980549050905090565b60606009805480602002602001604051908101604052809291908181526020016000905b8282101561062f57838290600052602060002090600402016040518060800160405290816000820160009054906101000a900473ffffffffffffffffffffffffffffffffffffffff1673ffffffffffffffffffffffffffffffffffffffff1673ffffffffffffffffffffffffffffffffffffffff168152602001600182015481526020016002820154815260200160038201548152505081526020019060010190610589565b50505050905090565b6000803373ffffffffffffffffffffffffffffffffffffffff1673ffffffffffffffffffffffffffffffffffffffff16815260200190815260200160002060009054906101000a900460ff166106c3576040517f08c379a00000000000000000000000000000000000000000000000000000000081526004016106ba90612c72565b60405180910390fd5b6000339050600042905060008184039050848411610716576040517f08c379a000000000000000000000000000000000000000000000000000000000815260040161070d90612cb2565b60405180910390fd5b60056040518060e00160405280600073ffffffffffffffffffffffffffffffffffffffff1681526020018573ffffffffffffffffffffffffffffffffffffffff1681526020018881526020018781526020018681526020018381526020016000600381111561078157fe5b8152509080600181540180825580915050906001820390600052602060002090600702016000909192909190915060008201518160000160006101000a81548173ffffffffffffffffffffffffffffffffffffffff021916908373ffffffffffffffffffffffffffffffffffffffff16021790555060208201518160010160006101000a81548173ffffffffffffffffffffffffffffffffffffffff021916908373ffffffffffffffffffffffffffffffffffffffff16021790555060408201518160020155606082015181600301556080820151816004015560a0820151816005015560c08201518160060160006101000a81548160ff0219169083600381111561088957fe5b02179055505050508273ffffffffffffffffffffffffffffffffffffffff167fde0e5567d8d6d630907264bdac08cd46c86e8d6a570e0321de2ca45c49f1a2a5876040516108d79190612cd2565b60405180910390a2505050505050565b6000809050808060010191505060008163ffffffff1614610946578173ffffffffffffffffffffffffffffffffffffffff167f7420b8b978434d1ce66c980ff580761f988dfca7b96378123d4717285774382c60405160405180910390a25b80600160008473ffffffffffffffffffffffffffffffffffffffff1673ffffffffffffffffffffffffffffffffffffffff16815260200190815260200160002060006101000a81548163ffffffff021916908363ffffffff1602179055505050565b600042905060008090505b600780549050811015610ffd5782600782815481106109ce57fe5b906000526020600020906008020160050154148015610a0a575081600782815481106109f657fe5b906000526020600020906008020160040154105b15610ff057600360078281548110610a1e57fe5b906000526020600020906008020160070160006101000a81548160ff02191690836003811115610a4a57fe5b021790555060056040518060e0016040528060078481548110610a6957fe5b906000526020600020906008020160000160009054906101000a900473ffffffffffffffffffffffffffffffffffffffff1673ffffffffffffffffffffffffffffffffffffffff16815260200160078481548110610ac357fe5b906000526020600020906008020160010160009054906101000a900473ffffffffffffffffffffffffffffffffffffffff1673ffffffffffffffffffffffffffffffffffffffff16815260200160078481548110610b1d57fe5b906000526020600020906008020160020154815260200160078481548110610b4157fe5b906000526020600020906008020160030154815260200160078481548110610b6557fe5b906000526020600020906008020160040154815260200160078481548110610b8957fe5b9060005260206000209060080201600501548152602001600380811115610bac57fe5b8152509080600181540180825580915050906001820390600052602060002090600702016000909192909190915060008201518160000160006101000a81548173ffffffffffffffffffffffffffffffffffffffff021916908373ffffffffffffffffffffffffffffffffffffffff16021790555060208201518160010160006101000a81548173ffffffffffffffffffffffffffffffffffffffff021916908373ffffffffffffffffffffffffffffffffffffffff16021790555060408201518160020155606082015181600301556080820151816004015560a0820151816005015560c08201518160060160006101000a81548160ff02191690836003811115610cb457fe5b0217905550505050610d0360078281548110610ccc57fe5b906000526020600020906008020160000160009054906101000a900473ffffffffffffffffffffffffffffffffffffffff166120f7565b60078181548110610d1057fe5b906000526020600020906008020160000160009054906101000a900473ffffffffffffffffffffffffffffffffffffffff1673ffffffffffffffffffffffffffffffffffffffff1660078281548110610d6557fe5b906000526020600020906008020160010160009054906101000a900473ffffffffffffffffffffffffffffffffffffffff1673ffffffffffffffffffffffffffffffffffffffff167fc3384a2daef78f9743d45a2f054a32d11ee7ef405de6fd4724ec6f77ba049f7860078481548110610ddb57fe5b90600052602060002090600802016003015460078581548110610dfa57fe5b90600052602060002090600802016004015460078681548110610e1957fe5b906000526020600020906008020160070160009054906101000a900460ff16604051610e4793929190612ced565b60405180910390a360016007805490501115610fd557600760016007805490500381548110610e7257fe5b906000526020600020906008020160078281548110610e8d57fe5b90600052602060002090600802016000820160009054906101000a900473ffffffffffffffffffffffffffffffffffffffff168160000160006101000a81548173ffffffffffffffffffffffffffffffffffffffff021916908373ffffffffffffffffffffffffffffffffffffffff1602179055506001820160009054906101000a900473ffffffffffffffffffffffffffffffffffffffff168160010160006101000a81548173ffffffffffffffffffffffffffffffffffffffff021916908373ffffffffffffffffffffffffffffffffffffffff16021790555060028201548160020155600382015481600301556004820154816004015560058201548160050155600682015481600601556007820160009054906101000a900460ff168160070160006101000a81548160ff02191690836003811115610fcc57fe5b02179055509050505b6007805480919060019003610fea91906121b0565b50610ffd565b80806001019150506109b3565b505050565b6060600a805480602002602001604051908101604052809291908181526020016000905b8282101561112257838290600052602060002090600502016040518060a00160405290816000820160009054906101000a900473ffffffffffffffffffffffffffffffffffffffff1673ffffffffffffffffffffffffffffffffffffffff1673ffffffffffffffffffffffffffffffffffffffff1681526020016001820160009054906101000a900473ffffffffffffffffffffffffffffffffffffffff1673ffffffffffffffffffffffffffffffffffffffff1673ffffffffffffffffffffffffffffffffffffffff168152602001600282015481526020016003820154815260200160048201548152505081526020019060010190611026565b50505050905090565b60003390508073ffffffffffffffffffffffffffffffffffffffff167f769268709e630d5b24d4c651adeae2d7a75c3dd7c3876275233e21570be22fd460405160405180910390a260016000808373ffffffffffffffffffffffffffffffffffffffff1673ffffffffffffffffffffffffffffffffffffffff16815260200190815260200160002060006101000a81548160ff02191690831515021790555050565b600080600080600080600080600589815481106111e657fe5b906000526020600020906007020190508060010160009054906101000a900473ffffffffffffffffffffffffffffffffffffffff168160000160009054906101000a900473ffffffffffffffffffffffffffffffffffffffff168260020154836003015484600401548560060160009054906101000a900460ff16600381111561126c57fe5b8660050154975097509750975097509750975050919395979092949650565b60606005805480602002602001604051908101604052809291908181526020016000905b828210156113e257838290600052602060002090600702016040518060e00160405290816000820160009054906101000a900473ffffffffffffffffffffffffffffffffffffffff1673ffffffffffffffffffffffffffffffffffffffff1673ffffffffffffffffffffffffffffffffffffffff1681526020016001820160009054906101000a900473ffffffffffffffffffffffffffffffffffffffff1673ffffffffffffffffffffffffffffffffffffffff1673ffffffffffffffffffffffffffffffffffffffff168152602001600282015481526020016003820154815260200160048201548152602001600582015481526020016006820160009054906101000a900460ff1660038111156113c457fe5b60038111156113cf57fe5b81525050815260200190600101906112af565b50505050905090565b6000809050600033905060008090505b600580549050811015611a71578173ffffffffffffffffffffffffffffffffffffffff166005828154811061142c57fe5b906000526020600020906007020160010160009054906101000a900473ffffffffffffffffffffffffffffffffffffffff1673ffffffffffffffffffffffffffffffffffffffff1614156114b5576040517f08c379a00000000000000000000000000000000000000000000000000000000081526004016114ac90612c92565b60405180910390fd5b600260038111156114c257fe5b600582815481106114cf57fe5b906000526020600020906007020160060160009054906101000a900460ff1660038111156114f957fe5b141561153a576040517f08c379a000000000000000000000000000000000000000000000000000000000815260040161153190612c12565b60405180910390fd5b6000600381111561154757fe5b6005828154811061155457fe5b906000526020600020906007020160060160009054906101000a900460ff16600381111561157e57fe5b1415611a645760076040518061010001604052808473ffffffffffffffffffffffffffffffffffffffff168152602001600584815481106115bb57fe5b906000526020600020906007020160010160009054906101000a900473ffffffffffffffffffffffffffffffffffffffff1673ffffffffffffffffffffffffffffffffffffffff1681526020016005848154811061161557fe5b90600052602060002090600702016002015481526020016005848154811061163957fe5b90600052602060002090600702016003015481526020016005848154811061165d57fe5b90600052602060002090600702016004015481526020016005848154811061168157fe5b9060005260206000209060070201600501548152602001858152602001600160038111156116ab57fe5b8152509080600181540180825580915050906001820390600052602060002090600802016000909192909190915060008201518160000160006101000a81548173ffffffffffffffffffffffffffffffffffffffff021916908373ffffffffffffffffffffffffffffffffffffffff16021790555060208201518160010160006101000a81548173ffffffffffffffffffffffffffffffffffffffff021916908373ffffffffffffffffffffffffffffffffffffffff16021790555060408201518160020155606082015181600301556080820151816004015560a0820151816005015560c0820151816006015560e08201518160070160006101000a81548160ff021916908360038111156117bd57fe5b02179055505050506117ce826108e7565b600581815481106117db57fe5b906000526020600020906007020160010160009054906101000a900473ffffffffffffffffffffffffffffffffffffffff1673ffffffffffffffffffffffffffffffffffffffff166005828154811061183057fe5b906000526020600020906007020160000160009054906101000a900473ffffffffffffffffffffffffffffffffffffffff1673ffffffffffffffffffffffffffffffffffffffff167f5e51fbd7f7e38ee6927fb25d7e32916c08f102ece1d3d65df27ec76e3a43c3a7600584815481106118a657fe5b9060005260206000209060070201600501546040516118c59190612cd2565b60405180910390a360016005805490501115611a49576005600160058054905003815481106118f057fe5b90600052602060002090600702016005828154811061190b57fe5b90600052602060002090600702016000820160009054906101000a900473ffffffffffffffffffffffffffffffffffffffff168160000160006101000a81548173ffffffffffffffffffffffffffffffffffffffff021916908373ffffffffffffffffffffffffffffffffffffffff1602179055506001820160009054906101000a900473ffffffffffffffffffffffffffffffffffffffff168160010160006101000a81548173ffffffffffffffffffffffffffffffffffffffff021916908373ffffffffffffffffffffffffffffffffffffffff160217905550600282015481600201556003820154816003015560048201548160040155600582015481600501556006820160009054906101000a900460ff168160060160006101000a81548160ff02191690836003811115611a4057fe5b02179055509050505b6005805480919060019003611a5e91906121e2565b50611a71565b80806001019150506113fb565b505050565b60003390508073ffffffffffffffffffffffffffffffffffffffff167f0bb6d68f109745f7ae353e3b90fff6fb8245c34cca44f18d9dfa00e4d705fa6460405160405180910390a260008060008373ffffffffffffffffffffffffffffffffffffffff1673ffffffffffffffffffffffffffffffffffffffff16815260200190815260200160002060006101000a81548160ff02191690831515021790555050565b6000600160003373ffffffffffffffffffffffffffffffffffffffff1673ffffffffffffffffffffffffffffffffffffffff16815260200190815260200160002060009054906101000a900463ffffffff1663ffffffff1611611bb0576040517f08c379a0000000000000000000000000000000000000000000000000000000008152600401611ba790612c32565b60405180910390fd5b6000429050600033905060008090505b6007805490508110156120f15760008090505b6009805490508110156120e357600080905060098281548110611bf257fe5b906000526020600020906004020160000160009054906101000a900473ffffffffffffffffffffffffffffffffffffffff1673ffffffffffffffffffffffffffffffffffffffff1660078481548110611c4757fe5b906000526020600020906008020160010160009054906101000a900473ffffffffffffffffffffffffffffffffffffffff1673ffffffffffffffffffffffffffffffffffffffff16148015611cb957508560078481548110611ca557fe5b906000526020600020906008020160050154145b8015611d00575060098281548110611ccd57fe5b90600052602060002090600402016003015460078481548110611cec57fe5b906000526020600020906008020160050154145b15611fbd578460078481548110611d1357fe5b9060005260206000209060080201600301541115611d66576040517f08c379a0000000000000000000000000000000000000000000000000000000008152600401611d5d90612bf2565b60405180910390fd5b8460078481548110611d7457fe5b9060005260206000209060080201600401541015611dc7576040517f08c379a0000000000000000000000000000000000000000000000000000000008152600401611dbe90612c52565b60405180910390fd5b60098281548110611dd457fe5b90600052602060002090600402016002015490508060078481548110611df657fe5b9060005260206000209060080201600601540160078481548110611e1657fe5b906000526020600020906008020160060181905550600060098381548110611e3a57fe5b906000526020600020906004020160020181905550600a6040518060a001604052808673ffffffffffffffffffffffffffffffffffffffff16815260200160098581548110611e8557fe5b906000526020600020906004020160000160009054906101000a900473ffffffffffffffffffffffffffffffffffffffff1673ffffffffffffffffffffffffffffffffffffffff168152602001878152602001888152602001838152509080600181540180825580915050906001820390600052602060002090600502016000909192909190915060008201518160000160006101000a81548173ffffffffffffffffffffffffffffffffffffffff021916908373ffffffffffffffffffffffffffffffffffffffff16021790555060208201518160010160006101000a81548173ffffffffffffffffffffffffffffffffffffffff021916908373ffffffffffffffffffffffffffffffffffffffff1602179055506040820151816002015560608201518160030155608082015181600401555050505b600060098381548110611fcc57fe5b90600052602060002090600402016002015414156120d557600160098054905011156120b95760096001600980549050038154811061200757fe5b90600052602060002090600402016009838154811061202257fe5b90600052602060002090600402016000820160009054906101000a900473ffffffffffffffffffffffffffffffffffffffff168160000160006101000a81548173ffffffffffffffffffffffffffffffffffffffff021916908373ffffffffffffffffffffffffffffffffffffffff1602179055506001820154816001015560028201548160020155600382015481600301559050505b60098054809190600190036120ce9190612214565b50506120e3565b508080600101915050611bd3565b508080600101915050611bc0565b50505050565b600080905060008163ffffffff161461214e578173ffffffffffffffffffffffffffffffffffffffff167fac6737d5d897955c9efa7aa0f05d006183e2529acaba2d32b6152acbff7aff9f60405160405180910390a25b80600160008473ffffffffffffffffffffffffffffffffffffffff1673ffffffffffffffffffffffffffffffffffffffff16815260200190815260200160002060006101000a81548163ffffffff021916908363ffffffff1602179055505050565b8154818355818111156121dd576008028160080283600052602060002091820191016121dc9190612246565b5b505050565b81548183558181111561220f5760070281600702836000526020600020918201910161220e91906122ef565b5b505050565b815481835581811115612241576004028160040283600052602060002091820191016122409190612390565b5b505050565b6122ec91905b808211156122e857600080820160006101000a81549073ffffffffffffffffffffffffffffffffffffffff02191690556001820160006101000a81549073ffffffffffffffffffffffffffffffffffffffff0219169055600282016000905560038201600090556004820160009055600582016000905560068201600090556007820160006101000a81549060ff02191690555060080161224c565b5090565b90565b61238d91905b8082111561238957600080820160006101000a81549073ffffffffffffffffffffffffffffffffffffffff02191690556001820160006101000a81549073ffffffffffffffffffffffffffffffffffffffff021916905560028201600090556003820160009055600482016000905560058201600090556006820160006101000a81549060ff0219169055506007016122f5565b5090565b90565b6123eb91905b808211156123e757600080820160006101000a81549073ffffffffffffffffffffffffffffffffffffffff021916905560018201600090556002820160009055600382016000905550600401612396565b5090565b90565b6000813590506123fd81612e87565b92915050565b60008135905061241281612e9e565b92915050565b60006020828403121561242a57600080fd5b6000612438848285016123ee565b91505092915050565b60006020828403121561245357600080fd5b600061246184828501612403565b91505092915050565b6000806040838503121561247d57600080fd5b600061248b85828601612403565b925050602061249c85828601612403565b9150509250929050565b6000806000606084860312156124bb57600080fd5b60006124c986828701612403565b93505060206124da86828701612403565b92505060406124eb86828701612403565b9150509250925092565b600061250183836128f0565b6101008301905092915050565b600061251a8383612992565b60e08301905092915050565b60006125328383612a20565b60808301905092915050565b600061254a8383612a75565b60a08301905092915050565b61255f81612e19565b82525050565b61256e81612e19565b82525050565b600061257f82612d64565b6125898185612dc4565b935061259483612d24565b8060005b838110156125c55781516125ac88826124f5565b97506125b783612d90565b925050600181019050612598565b5085935050505092915050565b60006125dd82612d6f565b6125e78185612dd5565b93506125f283612d34565b8060005b8381101561262357815161260a888261250e565b975061261583612d9d565b9250506001810190506125f6565b5085935050505092915050565b600061263b82612d7a565b6126458185612de6565b935061265083612d44565b8060005b838110156126815781516126688882612526565b975061267383612daa565b925050600181019050612654565b5085935050505092915050565b600061269982612d85565b6126a38185612df7565b93506126ae83612d54565b8060005b838110156126df5781516126c6888261253e565b97506126d183612db7565b9250506001810190506126b2565b5085935050505092915050565b6126f581612e68565b82525050565b61270481612e68565b82525050565b6000612717601583612e08565b91507f505041206973206e6f74206163746976652079657400000000000000000000006000830152602082019050919050565b6000612757600583612e08565b91507f6572726f720000000000000000000000000000000000000000000000000000006000830152602082019050919050565b6000612797600f83612e08565b91507f4f6e6c7920505041206f776e65727300000000000000000000000000000000006000830152602082019050919050565b60006127d7600f83612e08565b91507f50504120686173206578706972656400000000000000000000000000000000006000830152602082019050919050565b6000612817601e83612e08565b91507f596f75206d75737420626520612063757272656e742050726f647563657200006000830152602082019050919050565b6000612857601383612e08565b91507f57726f6e672061646472657373206275796572000000000000000000000000006000830152602082019050919050565b6000612897602183612e08565b91507f4974277320696d706f737369626c6520656e64446179203c207374617274446160008301527f79000000000000000000000000000000000000000000000000000000000000006020830152604082019050919050565b610100820160008201516129076000850182612556565b50602082015161291a6020850182612556565b50604082015161292d6040850182612add565b5060608201516129406060850182612add565b5060808201516129536080850182612add565b5060a082015161296660a0850182612add565b5060c082015161297960c0850182612add565b5060e082015161298c60e08501826126ec565b50505050565b60e0820160008201516129a86000850182612556565b5060208201516129bb6020850182612556565b5060408201516129ce6040850182612add565b5060608201516129e16060850182612add565b5060808201516129f46080850182612add565b5060a0820151612a0760a0850182612add565b5060c0820151612a1a60c08501826126ec565b50505050565b608082016000820151612a366000850182612556565b506020820151612a496020850182612add565b506040820151612a5c6040850182612add565b506060820151612a6f6060850182612add565b50505050565b60a082016000820151612a8b6000850182612556565b506020820151612a9e6020850182612556565b506040820151612ab16040850182612add565b506060820151612ac46060850182612add565b506080820151612ad76080850182612add565b50505050565b612ae681612e5e565b82525050565b612af581612e5e565b82525050565b600060e082019050612b10600083018a612565565b612b1d6020830189612565565b612b2a6040830188612aec565b612b376060830187612aec565b612b446080830186612aec565b612b5160a0830185612aec565b612b5e60c0830184612aec565b98975050505050505050565b60006020820190508181036000830152612b848184612574565b905092915050565b60006020820190508181036000830152612ba681846125d2565b905092915050565b60006020820190508181036000830152612bc88184612630565b905092915050565b60006020820190508181036000830152612bea818461268e565b905092915050565b60006020820190508181036000830152612c0b8161270a565b9050919050565b60006020820190508181036000830152612c2b8161274a565b9050919050565b60006020820190508181036000830152612c4b8161278a565b9050919050565b60006020820190508181036000830152612c6b816127ca565b9050919050565b60006020820190508181036000830152612c8b8161280a565b9050919050565b60006020820190508181036000830152612cab8161284a565b9050919050565b60006020820190508181036000830152612ccb8161288a565b9050919050565b6000602082019050612ce76000830184612aec565b92915050565b6000606082019050612d026000830186612aec565b612d0f6020830185612aec565b612d1c60408301846126fb565b949350505050565b6000819050602082019050919050565b6000819050602082019050919050565b6000819050602082019050919050565b6000819050602082019050919050565b600081519050919050565b600081519050919050565b600081519050919050565b600081519050919050565b6000602082019050919050565b6000602082019050919050565b6000602082019050919050565b6000602082019050919050565b600082825260208201905092915050565b600082825260208201905092915050565b600082825260208201905092915050565b600082825260208201905092915050565b600082825260208201905092915050565b6000612e2482612e3e565b9050919050565b6000819050612e3982612e7a565b919050565b600073ffffffffffffffffffffffffffffffffffffffff82169050919050565b6000819050919050565b6000612e7382612e2b565b9050919050565b60048110612e8457fe5b50565b612e9081612e19565b8114612e9b57600080fd5b50565b612ea781612e5e565b8114612eb257600080fd5b5056fea365627a7a72315820aadfe7a44909bf8cb8367748684d9e76e910cdf2d2a570d7804345019967860d6c6578706572696d656e74616cf564736f6c63430005100040",
  "source": "pragma solidity >=0.4.21 <0.9.0;\r\npragma experimental ABIEncoderV2;\r\n\r\n//import \"src/contracts/token/ERC1155.sol\";\r\n//import \"src/contracts/token/ERC1155Mintable.sol\";\r\n//import \"src/contracts/token/IERC1155.sol\";\r\n\r\n//import \"@openzeppelin/contracts/token/ERC1155/ERC1155.sol\";\r\n/*\r\n*Installed open zeppelin version 3.1.0\r\n*https://github.com/OpenZeppelin/openzeppelin-contracts/tree/v3.1.0\r\n*with \"npm i @openzeppelin/contracts@3.1.0\"\r\n*/\r\ncontract producerRegistry {\r\n    event producerRegistered(address indexed producer);\r\n    event producerDeregistered(address indexed producer);\r\n    \r\n    // map address to bool \"is a registered producer\"\r\n    mapping(address => bool) producers;\r\n    \r\n    modifier onlyRegisteredProducers {\r\n        require(producers[msg.sender], \"You must be a current Producer\");\r\n        _;\r\n    }\r\n    \r\n    function registerProducer() public {\r\n        address aproducer = msg.sender;\r\n        emit producerRegistered(aproducer);\r\n        producers[aproducer] = true;\r\n    }\r\n\r\n    function deregisterProducer() public {\r\n        address aproducer = msg.sender;\r\n        emit producerDeregistered(aproducer);\r\n        producers[aproducer] = false;\r\n    }\r\n}\r\n\r\ncontract ppaBuyerRegistry {\r\n    event buyerRegistered(address indexed ppaBuyer);\r\n    event buyerDeregistered(address indexed ppaBuyer);\r\n\r\n    mapping(address => uint32) ppaBuyers;\r\n    address[] listOfPPABuyers;\r\n\r\n    modifier onlyPPABuyers {\r\n      require(ppaBuyers[msg.sender] > 0, \"Only PPA owners\");\r\n      _;\r\n    }\r\n    \r\n    function deregisterPPABuyer(address abuyer) public {\r\n        uint32 abuyerID = 0;\r\n        if(abuyerID != 0) {\r\n            emit buyerDeregistered(abuyer);\r\n        }\r\n        ppaBuyers[abuyer] = abuyerID;\r\n    }\r\n\r\n    function registerPPABuyer(address abuyer) public {\r\n        uint32 abuyerID = 0;\r\n        abuyerID++;\r\n        if(abuyerID != 0) {\r\n            emit buyerRegistered(abuyer);\r\n        }\r\n        ppaBuyers[abuyer] = abuyerID;\r\n    }\r\n}\r\n\r\ncontract PPA is producerRegistry, ppaBuyerRegistry {\r\n\r\n    mapping (uint => uint) price;\r\n\r\n    enum Status {Pending, Approved, Rejected, Expired}\r\n    event createdPPA(address indexed producer, uint price);\r\n    event purchasedPPA(uint itemID, address indexed buyer, address indexed producer);\r\n    event expiredPPA(address indexed producer, address indexed buyer, uint startDay, uint endDay, Status status);\r\n\r\n    struct ppa {              //Struct with all PPA contracts\r\n        address buyerID;\r\n        address producerID;\r\n        uint kwhPrice;           //price per energy(kwh)\r\n        uint startDay;\r\n        uint endDay;          //It must be timestamp (ex. uint endDay = 1518220800; // 2018-02-10 00:00:00)\r\n        uint id;              //id number of each ppa contract\r\n        Status status;\r\n    }\r\n\r\n    mapping(address => ppa) ppas;\r\n    ppa[] listOfPPAs;\r\n    //uint nextID = 0;\r\n\r\n    struct approvedPPA{       //Struct only for approved PPAs\r\n        address buyerID;\r\n        address producerID;\r\n        uint kwhPrice;           //price per energy(kwh)\r\n        uint startDay;\r\n        uint endDay;          //It must be timestamp (ex. uint endDay = 1518220800; // 2018-02-10 00:00:00)\r\n        uint id;              //id number of each ppa contract\r\n        uint totalKwh;        //total amount of purchased kwh\r\n        Status status;\r\n    }\r\n\r\n    mapping(address => mapping(uint => approvedPPA)) approvedPPAs;\r\n    approvedPPA[] Appas;\r\n\r\n    struct producerEnergy{      //Trial struct for available producer' s energy in order to sale \r\n        address producerID;\r\n        uint timestamp;\r\n        uint energy;\r\n        uint idOfmatchContract; //id oc ppa contract that refers to\r\n    }\r\n\r\n    mapping(address => mapping(uint => uint)) pEnergy;\r\n    producerEnergy[] listOfkwhs;\r\n\r\n    struct purchasesPPA{\r\n        address buyerID;\r\n        address producerID;\r\n        uint timestamp;\r\n        uint idOfPPA;\r\n        uint purchasedEnergy;\r\n    }\r\n\r\n    purchasesPPA[] listOfprchs;\r\n\r\n    function createPPA(uint _kwhPrice,uint _startDay, uint _endDay) public onlyRegisteredProducers {\r\n        address _producerID = msg.sender;\r\n        uint currentTime = block.timestamp;\r\n        uint idOfContract = _endDay-currentTime;\r\n        require(_endDay > _startDay, \"It's impossible endDay < startDay\");\r\n        listOfPPAs.push(ppa({\r\n            buyerID: address(0x0),\r\n            producerID: _producerID,\r\n            kwhPrice: _kwhPrice,\r\n            startDay: _startDay,\r\n            endDay: _endDay,\r\n            id: idOfContract,\r\n            status: Status.Pending\r\n        }));\r\n        //nextID++;\r\n        emit createdPPA(_producerID, _kwhPrice);\r\n    }\r\n\r\n    function claimPPA() public {\r\n        uint _totalKwh = 0;\r\n        address buyerId = msg.sender;\r\n        for(uint i = 0; i<listOfPPAs.length; i++){\r\n            require(listOfPPAs[i].producerID != buyerId, \"Wrong address buyer\");\r\n            require(listOfPPAs[i].status != Status.Rejected, \"error\");\r\n            if(listOfPPAs[i].status == Status.Pending){\r\n                Appas.push(approvedPPA({\r\n                    buyerID: buyerId,\r\n                    producerID: listOfPPAs[i].producerID,\r\n                    kwhPrice: listOfPPAs[i].kwhPrice,\r\n                    startDay: listOfPPAs[i].startDay,\r\n                    endDay: listOfPPAs[i].endDay,\r\n                    id: listOfPPAs[i].id,\r\n                    totalKwh: _totalKwh,\r\n                    status: Status.Approved\r\n                }));\r\n            ppaBuyerRegistry.registerPPABuyer(buyerId);\r\n            emit purchasedPPA(listOfPPAs[i].id, listOfPPAs[i].buyerID, listOfPPAs[i].producerID);\r\n            if(listOfPPAs.length > 1){\r\n                listOfPPAs[i] = listOfPPAs[listOfPPAs.length-1];\r\n            }\r\n            listOfPPAs.length--;\r\n            break;\r\n            }\r\n        }\r\n    }\r\n\r\n    //this is a trial function just for PPA_energy_trading part\r\n    function availableKwhs(uint _energy, uint _idOfMatchPPA) public onlyRegisteredProducers{\r\n        address _producer = msg.sender;\r\n        listOfkwhs.push(producerEnergy({\r\n            producerID: _producer,\r\n            timestamp: block.timestamp,\r\n            energy: _energy,\r\n            idOfmatchContract: _idOfMatchPPA\r\n        }));\r\n    }\r\n\r\n    function buyPPAKwhs(uint _idOfPPA) public onlyPPABuyers{\r\n        uint currentTime = block.timestamp;\r\n        address aBuyerId = msg.sender; \r\n        for(uint j = 0; j<Appas.length; j++){ //uint j = 0; j<Appas.length; j++\r\n            //search on Approved PPAs to match the id - producer with kwhs\r\n            for(uint i = 0; i<listOfkwhs.length; i++){ //uint i = 0; i<listOfkwhs.length; i++\r\n                uint totalEnergyPurchased = 0;\r\n                //find the correct available kwhs based on id of ppa\r\n                if((Appas[j].producerID == listOfkwhs[i].producerID) && (Appas[j].id == _idOfPPA) && (Appas[j].id == listOfkwhs[i].idOfmatchContract)){\r\n                    require(Appas[j].startDay <= currentTime, \"PPA is not active yet\");\r\n                    //if endDay < now then PPA has expired \r\n                    if(Appas[j].endDay < currentTime){\r\n                        revert(\"PPA has expired\");\r\n                    }\r\n                    totalEnergyPurchased = listOfkwhs[i].energy;\r\n                    Appas[j].totalKwh = Appas[j].totalKwh + totalEnergyPurchased;\r\n                    listOfkwhs[i].energy = 0;\r\n                    listOfprchs.push(purchasesPPA({\r\n                        buyerID: aBuyerId,\r\n                        producerID: listOfkwhs[i].producerID,\r\n                        timestamp: currentTime,\r\n                        idOfPPA: _idOfPPA,\r\n                        purchasedEnergy: totalEnergyPurchased\r\n                    }));\r\n                }\r\n                if(listOfkwhs[i].energy == 0){\r\n                    if(listOfkwhs.length > 1){\r\n                        listOfkwhs[i] = listOfkwhs[listOfkwhs.length-1];\r\n                    }\r\n                    listOfkwhs.length--;\r\n                    break;\r\n                }\r\n            }\r\n        }\r\n    }\r\n\r\n    function killPPA(uint _id) public {\r\n        uint currentTime = block.timestamp;\r\n        for(uint i = 0; i<Appas.length; i++){\r\n            if((Appas[i].id == _id) && (Appas[i].endDay < currentTime)){\r\n                Appas[i].status = Status.Expired;\r\n                listOfPPAs.push(ppa({\r\n                    buyerID: Appas[i].buyerID,\r\n                    producerID: Appas[i].producerID,\r\n                    kwhPrice: Appas[i].kwhPrice,\r\n                    startDay: Appas[i].startDay,\r\n                    endDay: Appas[i].endDay,\r\n                    id: Appas[i].id,\r\n                    status: Status.Expired\r\n                }));\r\n                ppaBuyerRegistry.deregisterPPABuyer(Appas[i].buyerID);\r\n                emit expiredPPA(Appas[i].producerID, Appas[i].buyerID, Appas[i].startDay, Appas[i].endDay, Appas[i].status);\r\n                if(Appas.length > 1){\r\n                    Appas[i] = Appas[Appas.length-1];\r\n                }\r\n                Appas.length--;\r\n                break;\r\n            }\r\n        }\r\n    }\r\n\r\n    function viewAllPPAs () public view returns (ppa[] memory){\r\n        return listOfPPAs;\r\n    }\r\n\r\n    function viewAllpurchases() public view returns (purchasesPPA[] memory){\r\n        return listOfprchs;\r\n    }\r\n\r\n    function viewAllApprovedPPAs() public view returns(approvedPPA[] memory){\r\n        return Appas;\r\n    }\r\n\r\n    function getPPAbyID(uint _id) public view returns (address, address, uint, uint, uint, uint, uint){\r\n        ppa storage _ppa = listOfPPAs[_id];\r\n        return (_ppa.producerID, _ppa.buyerID, _ppa.kwhPrice, _ppa.startDay, _ppa.endDay, uint(_ppa.status), _ppa.id);\r\n    }\r\n\r\n    function viewAvailableKwhs() public view returns(producerEnergy[] memory){\r\n        return listOfkwhs;\r\n    }\r\n\r\n    function getAvKwhs() public view returns(uint count){\r\n        return listOfkwhs.length;\r\n    }\r\n}",
  "sourcePath": "C:/Users/Lenovo/projects/ethereum/protergia/blockchain-energy-trading-and-green-energy-certification-thesis-w-protergia/src/contracts/PPA.sol",
  "compiler": {
    "name": "solc",
    "version": "0.5.16+commit.9c3226ce.Emscripten.clang"
  },
  "schemaVersion": "3.4.1",
  "updatedAt": "2021-07-10T15:25:31.775Z",
  "devdoc": {
    "methods": {}
  },
  "userdoc": {
    "methods": {}
  }
}