{
  "contractName": "PPA",
  "abi": [
    {
      "constant": false,
      "inputs": [
        {
          "internalType": "string",
          "name": "uuID",
          "type": "string"
        },
        {
          "internalType": "uint32",
          "name": "date",
          "type": "uint32"
        }
      ],
      "name": "addNewBattery",
      "outputs": [],
      "payable": false,
      "stateMutability": "nonpayable",
      "type": "function"
    },
    {
      "constant": true,
      "inputs": [
        {
          "internalType": "address",
          "name": "batteryID",
          "type": "address"
        }
      ],
      "name": "getBatteryByID",
      "outputs": [
        {
          "internalType": "address",
          "name": "",
          "type": "address"
        },
        {
          "internalType": "string",
          "name": "",
          "type": "string"
        },
        {
          "internalType": "uint32",
          "name": "",
          "type": "uint32"
        }
      ],
      "payable": false,
      "stateMutability": "view",
      "type": "function"
    },
    {
      "constant": true,
      "inputs": [],
      "name": "getCountOfBatteries",
      "outputs": [
        {
          "internalType": "uint256",
          "name": "count",
          "type": "uint256"
        }
      ],
      "payable": false,
      "stateMutability": "view",
      "type": "function"
    },
    {
      "constant": false,
      "inputs": [
        {
          "internalType": "address",
          "name": "batteryID",
          "type": "address"
        },
        {
          "internalType": "string",
          "name": "uuID",
          "type": "string"
        }
      ],
      "name": "updateBattery",
      "outputs": [],
      "payable": false,
      "stateMutability": "nonpayable",
      "type": "function"
    },
    {
      "constant": true,
      "inputs": [],
      "name": "viewAllBatteries",
      "outputs": [
        {
          "components": [
            {
              "internalType": "address",
              "name": "batteryID",
              "type": "address"
            },
            {
              "internalType": "string",
              "name": "uuID",
              "type": "string"
            },
            {
              "internalType": "uint32",
              "name": "date",
              "type": "uint32"
            },
            {
              "internalType": "bool",
              "name": "isExist",
              "type": "bool"
            }
          ],
          "internalType": "struct batteryRegistry.battery[]",
          "name": "",
          "type": "tuple[]"
        }
      ],
      "payable": false,
      "stateMutability": "view",
      "type": "function"
    },
    {
      "constant": false,
      "inputs": [
        {
          "internalType": "address",
          "name": "_producerID",
          "type": "address"
        },
        {
          "internalType": "uint64",
          "name": "_energy",
          "type": "uint64"
        },
        {
          "internalType": "uint32",
          "name": "_price",
          "type": "uint32"
        },
        {
          "internalType": "uint32",
          "name": "_startDay",
          "type": "uint32"
        },
        {
          "internalType": "uint32",
          "name": "_endDay",
          "type": "uint32"
        }
      ],
      "name": "createPPA",
      "outputs": [],
      "payable": false,
      "stateMutability": "nonpayable",
      "type": "function"
    }
  ],
  "bytecode": "0x6080604052336000806101000a81548173ffffffffffffffffffffffffffffffffffffffff021916908373ffffffffffffffffffffffffffffffffffffffff160217905550611405806100536000396000f3fe608060405234801561001057600080fd5b50600436106100625760003560e01c806344da1a94146100675780634b9925e81461008557806386b6c85a146100a1578063b47c7741146100bd578063c9fb8578146100db578063eefa716b1461010d575b600080fd5b61006f610129565b60405161007c91906111d9565b60405180910390f35b61009f600480360361009a9190810190610e10565b610136565b005b6100bb60048036036100b69190810190610e87565b610402565b005b6100c56106e4565b6040516100d29190611177565b60405180910390f35b6100f560048036036100f09190810190610d93565b61087c565b60405161010493929190611139565b60405180910390f35b61012760048036036101229190810190610dbc565b610a23565b005b6000600280549050905090565b60011515600160003373ffffffffffffffffffffffffffffffffffffffff1673ffffffffffffffffffffffffffffffffffffffff16815260200190815260200160002060020160049054906101000a900460ff161515146101cc576040517f08c379a00000000000000000000000000000000000000000000000000000000081526004016101c390611199565b60405180910390fd5b60046040518060e001604052803373ffffffffffffffffffffffffffffffffffffffff1681526020018773ffffffffffffffffffffffffffffffffffffffff1681526020018667ffffffffffffffff1681526020018563ffffffff1681526020018463ffffffff1681526020018363ffffffff1681526020016040518060400160405280600781526020017f77616974696e67000000000000000000000000000000000000000000000000008152508152509080600181540180825580915050906001820390600052602060002090600402016000909192909190915060008201518160000160006101000a81548173ffffffffffffffffffffffffffffffffffffffff021916908373ffffffffffffffffffffffffffffffffffffffff16021790555060208201518160010160006101000a81548173ffffffffffffffffffffffffffffffffffffffff021916908373ffffffffffffffffffffffffffffffffffffffff16021790555060408201518160010160146101000a81548167ffffffffffffffff021916908367ffffffffffffffff160217905550606082015181600101601c6101000a81548163ffffffff021916908363ffffffff16021790555060808201518160020160006101000a81548163ffffffff021916908363ffffffff16021790555060a08201518160020160046101000a81548163ffffffff021916908363ffffffff16021790555060c08201518160030190805190602001906103f7929190610bdb565b505050505050505050565b60001515600160003373ffffffffffffffffffffffffffffffffffffffff1673ffffffffffffffffffffffffffffffffffffffff16815260200190815260200160002060020160049054906101000a900460ff16151514610498576040517f08c379a000000000000000000000000000000000000000000000000000000000815260040161048f906111b9565b60405180910390fd5b60405180608001604052803373ffffffffffffffffffffffffffffffffffffffff1681526020018381526020018263ffffffff16815260200160011515815250600160003373ffffffffffffffffffffffffffffffffffffffff1673ffffffffffffffffffffffffffffffffffffffff16815260200190815260200160002060008201518160000160006101000a81548173ffffffffffffffffffffffffffffffffffffffff021916908373ffffffffffffffffffffffffffffffffffffffff160217905550602082015181600101908051906020019061057a929190610bdb565b5060408201518160020160006101000a81548163ffffffff021916908363ffffffff16021790555060608201518160020160046101000a81548160ff021916908315150217905550905050600260405180608001604052803373ffffffffffffffffffffffffffffffffffffffff1681526020018481526020018363ffffffff168152602001600115158152509080600181540180825580915050906001820390600052602060002090600302016000909192909190915060008201518160000160006101000a81548173ffffffffffffffffffffffffffffffffffffffff021916908373ffffffffffffffffffffffffffffffffffffffff1602179055506020820151816001019080519060200190610695929190610bdb565b5060408201518160020160006101000a81548163ffffffff021916908363ffffffff16021790555060608201518160020160046101000a81548160ff0219169083151502179055505050505050565b60606002805480602002602001604051908101604052809291908181526020016000905b8282101561087357838290600052602060002090600302016040518060800160405290816000820160009054906101000a900473ffffffffffffffffffffffffffffffffffffffff1673ffffffffffffffffffffffffffffffffffffffff1673ffffffffffffffffffffffffffffffffffffffff168152602001600182018054600181600116156101000203166002900480601f01602080910402602001604051908101604052809291908181526020018280546001816001161561010002031660029004801561081a5780601f106107ef5761010080835404028352916020019161081a565b820191906000526020600020905b8154815290600101906020018083116107fd57829003601f168201915b505050505081526020016002820160009054906101000a900463ffffffff1663ffffffff1663ffffffff1681526020016002820160049054906101000a900460ff16151515158152505081526020019060010190610708565b50505050905090565b600060606000600160008573ffffffffffffffffffffffffffffffffffffffff1673ffffffffffffffffffffffffffffffffffffffff16815260200190815260200160002060000160009054906101000a900473ffffffffffffffffffffffffffffffffffffffff16600160008673ffffffffffffffffffffffffffffffffffffffff1673ffffffffffffffffffffffffffffffffffffffff168152602001908152602001600020600101600160008773ffffffffffffffffffffffffffffffffffffffff1673ffffffffffffffffffffffffffffffffffffffff16815260200190815260200160002060020160009054906101000a900463ffffffff16818054600181600116156101000203166002900480601f016020809104026020016040519081016040528092919081815260200182805460018160011615610100020316600290048015610a0f5780601f106109e457610100808354040283529160200191610a0f565b820191906000526020600020905b8154815290600101906020018083116109f257829003601f168201915b505050505091509250925092509193909250565b60011515600160003373ffffffffffffffffffffffffffffffffffffffff1673ffffffffffffffffffffffffffffffffffffffff16815260200190815260200160002060020160049054906101000a900460ff16151514610ab9576040517f08c379a0000000000000000000000000000000000000000000000000000000008152600401610ab090611199565b60405180910390fd5b60008090505b600280549050811015610bd6578273ffffffffffffffffffffffffffffffffffffffff1660028281548110610af057fe5b906000526020600020906003020160000160009054906101000a900473ffffffffffffffffffffffffffffffffffffffff1673ffffffffffffffffffffffffffffffffffffffff161415610bc9578160028281548110610b4c57fe5b90600052602060002090600302016001019080519060200190610b70929190610c5b565b5081600160008573ffffffffffffffffffffffffffffffffffffffff1673ffffffffffffffffffffffffffffffffffffffff1681526020019081526020016000206001019080519060200190610bc7929190610c5b565b505b8080600101915050610abf565b505050565b828054600181600116156101000203166002900490600052602060002090601f016020900481019282601f10610c1c57805160ff1916838001178555610c4a565b82800160010185558215610c4a579182015b82811115610c49578251825591602001919060010190610c2e565b5b509050610c579190610cdb565b5090565b828054600181600116156101000203166002900490600052602060002090601f016020900481019282601f10610c9c57805160ff1916838001178555610cca565b82800160010185558215610cca579182015b82811115610cc9578251825591602001919060010190610cae565b5b509050610cd79190610cdb565b5090565b610cfd91905b80821115610cf9576000816000905550600101610ce1565b5090565b90565b600081359050610d0f8161137d565b92915050565b600082601f830112610d2657600080fd5b8135610d39610d3482611221565b6111f4565b91508082526020830160208301858383011115610d5557600080fd5b610d6083828461132a565b50505092915050565b600081359050610d7881611394565b92915050565b600081359050610d8d816113ab565b92915050565b600060208284031215610da557600080fd5b6000610db384828501610d00565b91505092915050565b60008060408385031215610dcf57600080fd5b6000610ddd85828601610d00565b925050602083013567ffffffffffffffff811115610dfa57600080fd5b610e0685828601610d15565b9150509250929050565b600080600080600060a08688031215610e2857600080fd5b6000610e3688828901610d00565b9550506020610e4788828901610d7e565b9450506040610e5888828901610d69565b9350506060610e6988828901610d69565b9250506080610e7a88828901610d69565b9150509295509295909350565b60008060408385031215610e9a57600080fd5b600083013567ffffffffffffffff811115610eb457600080fd5b610ec085828601610d15565b9250506020610ed185828601610d69565b9150509250929050565b6000610ee783836110a9565b905092915050565b610ef8816112be565b82525050565b610f07816112be565b82525050565b6000610f188261125d565b610f22818561128b565b935083602082028501610f348561124d565b8060005b85811015610f705784840389528151610f518582610edb565b9450610f5c8361127e565b925060208a01995050600181019050610f38565b50829750879550505050505092915050565b610f8b816112d0565b82525050565b6000610f9c82611273565b610fa681856112ad565b9350610fb6818560208601611339565b610fbf8161136c565b840191505092915050565b6000610fd582611268565b610fdf818561129c565b9350610fef818560208601611339565b610ff88161136c565b840191505092915050565b60006110106025836112ad565b91507f4f6e6c792072656769737465726564206261747465726965732068617665206160008301527f63636573730000000000000000000000000000000000000000000000000000006020830152604082019050919050565b6000611076601d836112ad565b91507f426174746572792064657461696c7320616c72656164792061646465640000006000830152602082019050919050565b60006080830160008301516110c16000860182610eef565b50602083015184820360208601526110d98282610fca565b91505060408301516110ee604086018261111b565b5060608301516111016060860182610f82565b508091505092915050565b611115816112fc565b82525050565b61112481611306565b82525050565b61113381611306565b82525050565b600060608201905061114e6000830186610efe565b81810360208301526111608185610f91565b905061116f604083018461112a565b949350505050565b600060208201905081810360008301526111918184610f0d565b905092915050565b600060208201905081810360008301526111b281611003565b9050919050565b600060208201905081810360008301526111d281611069565b9050919050565b60006020820190506111ee600083018461110c565b92915050565b6000604051905081810181811067ffffffffffffffff8211171561121757600080fd5b8060405250919050565b600067ffffffffffffffff82111561123857600080fd5b601f19601f8301169050602081019050919050565b6000819050602082019050919050565b600081519050919050565b600081519050919050565b600081519050919050565b6000602082019050919050565b600082825260208201905092915050565b600082825260208201905092915050565b600082825260208201905092915050565b60006112c9826112dc565b9050919050565b60008115159050919050565b600073ffffffffffffffffffffffffffffffffffffffff82169050919050565b6000819050919050565b600063ffffffff82169050919050565b600067ffffffffffffffff82169050919050565b82818337600083830152505050565b60005b8381101561135757808201518184015260208101905061133c565b83811115611366576000848401525b50505050565b6000601f19601f8301169050919050565b611386816112be565b811461139157600080fd5b50565b61139d81611306565b81146113a857600080fd5b50565b6113b481611316565b81146113bf57600080fd5b5056fea365627a7a7231582079b8b3abba6489e32b34336c5b1554ea80fb50a2eb53bea20e120fa56fde17c46c6578706572696d656e74616cf564736f6c63430005100040",
  "source": "pragma solidity >=0.4.21 <0.7.0;\r\npragma experimental ABIEncoderV2;\r\n\r\nimport \"src/contracts/Battery.sol\";\r\n\r\ncontract PPA is batteryRegistry{\r\n\r\n    struct ppa {\r\n        address batteryID;\r\n        address producerID;\r\n        uint64 energy;\r\n        uint32 price;\r\n        uint32 startDay;\r\n        uint32 endDay;\r\n        string status;\r\n    }\r\n\r\n    mapping(string => ppa) ppas;\r\n    ppa[] listOfppas;\r\n\r\n    function createPPA(address _producerID, uint64 _energy, uint32 _price, uint32 _startDay, uint32 _endDay) public onlyRegisteredBattery {\r\n\r\n        listOfppas.push(ppa({\r\n            batteryID: msg.sender,\r\n            producerID: _producerID,\r\n            energy: _energy,\r\n            price: _price,\r\n            startDay: _startDay,\r\n            endDay: _endDay,\r\n            status: \"waiting\"\r\n        }));\r\n    }\r\n}",
  "sourcePath": "C:/Users/Lenovo/projects/ethereum/protergia/blockchain-energy-trading-and-green-energy-certification-thesis-w-protergia/src/contracts/PPA.sol",
  "compiler": {
    "name": "solc",
    "version": "0.5.16+commit.9c3226ce.Emscripten.clang"
  },
  "schemaVersion": "3.3.4",
  "updatedAt": "2021-06-15T19:04:45.069Z",
  "devdoc": {
    "methods": {}
  },
  "userdoc": {
    "methods": {}
  }
}