{
  "contractName": "PPA",
  "abi": [
    {
      "anonymous": false,
      "inputs": [
        {
          "indexed": true,
          "internalType": "address",
          "name": "ppaBuyer",
          "type": "address"
        }
      ],
      "name": "buyerDeregistered",
      "type": "event"
    },
    {
      "anonymous": false,
      "inputs": [
        {
          "indexed": true,
          "internalType": "address",
          "name": "ppaBuyer",
          "type": "address"
        }
      ],
      "name": "buyerRegistered",
      "type": "event"
    },
    {
      "anonymous": false,
      "inputs": [
        {
          "indexed": true,
          "internalType": "address",
          "name": "producer",
          "type": "address"
        },
        {
          "indexed": false,
          "internalType": "uint256",
          "name": "price",
          "type": "uint256"
        }
      ],
      "name": "createdPPA",
      "type": "event"
    },
    {
      "anonymous": false,
      "inputs": [
        {
          "indexed": true,
          "internalType": "address",
          "name": "producer",
          "type": "address"
        },
        {
          "indexed": true,
          "internalType": "address",
          "name": "buyer",
          "type": "address"
        },
        {
          "indexed": false,
          "internalType": "uint256",
          "name": "startDay",
          "type": "uint256"
        },
        {
          "indexed": false,
          "internalType": "uint256",
          "name": "endDay",
          "type": "uint256"
        },
        {
          "indexed": false,
          "internalType": "enum PPA.Status",
          "name": "status",
          "type": "uint8"
        }
      ],
      "name": "expiredPPA",
      "type": "event"
    },
    {
      "anonymous": false,
      "inputs": [
        {
          "indexed": true,
          "internalType": "address",
          "name": "producer",
          "type": "address"
        }
      ],
      "name": "producerDeregistered",
      "type": "event"
    },
    {
      "anonymous": false,
      "inputs": [
        {
          "indexed": true,
          "internalType": "address",
          "name": "producer",
          "type": "address"
        }
      ],
      "name": "producerRegistered",
      "type": "event"
    },
    {
      "anonymous": false,
      "inputs": [
        {
          "indexed": false,
          "internalType": "uint256",
          "name": "itemID",
          "type": "uint256"
        },
        {
          "indexed": true,
          "internalType": "address",
          "name": "buyer",
          "type": "address"
        },
        {
          "indexed": true,
          "internalType": "address",
          "name": "producer",
          "type": "address"
        }
      ],
      "name": "purchasedPPA",
      "type": "event"
    },
    {
      "constant": false,
      "inputs": [
        {
          "internalType": "address",
          "name": "abuyer",
          "type": "address"
        }
      ],
      "name": "deregisterPPABuyer",
      "outputs": [],
      "payable": false,
      "stateMutability": "nonpayable",
      "type": "function"
    },
    {
      "constant": false,
      "inputs": [],
      "name": "deregisterProducer",
      "outputs": [],
      "payable": false,
      "stateMutability": "nonpayable",
      "type": "function"
    },
    {
      "constant": false,
      "inputs": [
        {
          "internalType": "address",
          "name": "abuyer",
          "type": "address"
        }
      ],
      "name": "registerPPABuyer",
      "outputs": [],
      "payable": false,
      "stateMutability": "nonpayable",
      "type": "function"
    },
    {
      "constant": false,
      "inputs": [],
      "name": "registerProducer",
      "outputs": [],
      "payable": false,
      "stateMutability": "nonpayable",
      "type": "function"
    },
    {
      "constant": false,
      "inputs": [
        {
          "internalType": "uint256",
          "name": "_kwhPrice",
          "type": "uint256"
        },
        {
          "internalType": "uint256",
          "name": "_startDay",
          "type": "uint256"
        },
        {
          "internalType": "uint256",
          "name": "_endDay",
          "type": "uint256"
        }
      ],
      "name": "createPPA",
      "outputs": [],
      "payable": false,
      "stateMutability": "nonpayable",
      "type": "function"
    },
    {
      "constant": false,
      "inputs": [],
      "name": "claimPPA",
      "outputs": [],
      "payable": false,
      "stateMutability": "nonpayable",
      "type": "function"
    },
    {
      "constant": false,
      "inputs": [
        {
          "internalType": "uint256",
          "name": "_energy",
          "type": "uint256"
        },
        {
          "internalType": "uint256",
          "name": "_idOfMatchPPA",
          "type": "uint256"
        }
      ],
      "name": "availableKwhs",
      "outputs": [],
      "payable": false,
      "stateMutability": "nonpayable",
      "type": "function"
    },
    {
      "constant": false,
      "inputs": [
        {
          "internalType": "uint256",
          "name": "_idOfPPA",
          "type": "uint256"
        }
      ],
      "name": "buyPPAKwhs",
      "outputs": [],
      "payable": false,
      "stateMutability": "nonpayable",
      "type": "function"
    },
    {
      "constant": false,
      "inputs": [
        {
          "internalType": "uint256",
          "name": "_id",
          "type": "uint256"
        }
      ],
      "name": "killPPA",
      "outputs": [],
      "payable": false,
      "stateMutability": "nonpayable",
      "type": "function"
    },
    {
      "constant": true,
      "inputs": [],
      "name": "viewAllPPAs",
      "outputs": [
        {
          "components": [
            {
              "internalType": "address",
              "name": "buyerID",
              "type": "address"
            },
            {
              "internalType": "address",
              "name": "producerID",
              "type": "address"
            },
            {
              "internalType": "uint256",
              "name": "kwhPrice",
              "type": "uint256"
            },
            {
              "internalType": "uint256",
              "name": "startDay",
              "type": "uint256"
            },
            {
              "internalType": "uint256",
              "name": "endDay",
              "type": "uint256"
            },
            {
              "internalType": "uint256",
              "name": "id",
              "type": "uint256"
            },
            {
              "internalType": "enum PPA.Status",
              "name": "status",
              "type": "uint8"
            }
          ],
          "internalType": "struct PPA.ppa[]",
          "name": "",
          "type": "tuple[]"
        }
      ],
      "payable": false,
      "stateMutability": "view",
      "type": "function"
    },
    {
      "constant": true,
      "inputs": [],
      "name": "viewAllpurchases",
      "outputs": [
        {
          "components": [
            {
              "internalType": "address",
              "name": "buyerID",
              "type": "address"
            },
            {
              "internalType": "address",
              "name": "producerID",
              "type": "address"
            },
            {
              "internalType": "uint256",
              "name": "timestamp",
              "type": "uint256"
            },
            {
              "internalType": "uint256",
              "name": "idOfPPA",
              "type": "uint256"
            },
            {
              "internalType": "uint256",
              "name": "purchasedEnergy",
              "type": "uint256"
            }
          ],
          "internalType": "struct PPA.purchasesPPA[]",
          "name": "",
          "type": "tuple[]"
        }
      ],
      "payable": false,
      "stateMutability": "view",
      "type": "function"
    },
    {
      "constant": true,
      "inputs": [],
      "name": "viewAllApprovedPPAs",
      "outputs": [
        {
          "components": [
            {
              "internalType": "address",
              "name": "buyerID",
              "type": "address"
            },
            {
              "internalType": "address",
              "name": "producerID",
              "type": "address"
            },
            {
              "internalType": "uint256",
              "name": "kwhPrice",
              "type": "uint256"
            },
            {
              "internalType": "uint256",
              "name": "startDay",
              "type": "uint256"
            },
            {
              "internalType": "uint256",
              "name": "endDay",
              "type": "uint256"
            },
            {
              "internalType": "uint256",
              "name": "id",
              "type": "uint256"
            },
            {
              "internalType": "uint256",
              "name": "totalKwh",
              "type": "uint256"
            },
            {
              "internalType": "enum PPA.Status",
              "name": "status",
              "type": "uint8"
            }
          ],
          "internalType": "struct PPA.approvedPPA[]",
          "name": "",
          "type": "tuple[]"
        }
      ],
      "payable": false,
      "stateMutability": "view",
      "type": "function"
    },
    {
      "constant": true,
      "inputs": [
        {
          "internalType": "uint256",
          "name": "_id",
          "type": "uint256"
        }
      ],
      "name": "getApprovedPPAByID",
      "outputs": [
        {
          "internalType": "address",
          "name": "",
          "type": "address"
        },
        {
          "internalType": "address",
          "name": "",
          "type": "address"
        },
        {
          "internalType": "uint256",
          "name": "",
          "type": "uint256"
        },
        {
          "internalType": "uint256",
          "name": "",
          "type": "uint256"
        },
        {
          "internalType": "uint256",
          "name": "",
          "type": "uint256"
        }
      ],
      "payable": false,
      "stateMutability": "view",
      "type": "function"
    },
    {
      "constant": true,
      "inputs": [
        {
          "internalType": "uint256",
          "name": "_id",
          "type": "uint256"
        }
      ],
      "name": "getPPAByID",
      "outputs": [
        {
          "internalType": "address",
          "name": "",
          "type": "address"
        },
        {
          "internalType": "address",
          "name": "",
          "type": "address"
        },
        {
          "internalType": "uint256",
          "name": "",
          "type": "uint256"
        },
        {
          "internalType": "uint256",
          "name": "",
          "type": "uint256"
        },
        {
          "internalType": "uint256",
          "name": "",
          "type": "uint256"
        },
        {
          "internalType": "uint256",
          "name": "",
          "type": "uint256"
        },
        {
          "internalType": "uint256",
          "name": "",
          "type": "uint256"
        }
      ],
      "payable": false,
      "stateMutability": "view",
      "type": "function"
    },
    {
      "constant": true,
      "inputs": [],
      "name": "viewAvailableKwhs",
      "outputs": [
        {
          "components": [
            {
              "internalType": "address",
              "name": "producerID",
              "type": "address"
            },
            {
              "internalType": "uint256",
              "name": "timestamp",
              "type": "uint256"
            },
            {
              "internalType": "uint256",
              "name": "energy",
              "type": "uint256"
            },
            {
              "internalType": "uint256",
              "name": "idOfmatchContract",
              "type": "uint256"
            }
          ],
          "internalType": "struct PPA.producerEnergy[]",
          "name": "",
          "type": "tuple[]"
        }
      ],
      "payable": false,
      "stateMutability": "view",
      "type": "function"
    },
    {
      "constant": true,
      "inputs": [],
      "name": "getAvKwhs",
      "outputs": [
        {
          "internalType": "uint256",
          "name": "count",
          "type": "uint256"
        }
      ],
      "payable": false,
      "stateMutability": "view",
      "type": "function"
    }
  ],
  "bytecode": "0x608060405234801561001057600080fd5b5061301d806100206000396000f3fe608060405234801561001057600080fd5b50600436106101005760003560e01c8063ac5afa4e11610097578063e436db7811610066578063e436db781461027f578063ea1d381f14610289578063ee56659214610293578063f791560c146102af57610100565b8063ac5afa4e1461021d578063b5b5dcc114610239578063dbdf0c2114610257578063e1b0d3c01461026157610100565b80636d36a6b1116100d35780636d36a6b1146101a9578063877b0fde146101c75780638a28410b146101e55780639d88df621461020157610100565b806322e5ef3d1461010557806325163d5d146101395780633933311d1461016f5780635a6041651461018b575b600080fd5b61011f600480360361011a9190810190612513565b6102cb565b604051610130959493929190612bcd565b60405180910390f35b610153600480360361014e9190810190612513565b61035e565b6040516101669796959493929190612c20565b60405180910390f35b6101896004803603610184919081019061253c565b61041c565b005b61019361057d565b6040516101a09190612c8f565b60405180910390f35b6101b16106e8565b6040516101be9190612df7565b60405180910390f35b6101cf6106f5565b6040516101dc9190612cd3565b60405180910390f35b6101ff60048036036101fa9190810190612578565b6107c8565b005b61021b600480360361021691908101906124ea565b610a77565b005b61023760048036036102329190810190612513565b610b38565b005b610241611192565b60405161024e9190612cf5565b60405180910390f35b61025f6112bb565b005b61026961135d565b6040516102769190612cb1565b60405180910390f35b6102876114bd565b005b610291611b48565b005b6102ad60048036036102a89190810190612513565b611bea565b005b6102c960048036036102c491908101906124ea565b6121c9565b005b600080600080600080600787815481106102e157fe5b906000526020600020906008020190508060010160009054906101000a900473ffffffffffffffffffffffffffffffffffffffff168160000160009054906101000a900473ffffffffffffffffffffffffffffffffffffffff16826002015483600301548460040154955095509550955095505091939590929450565b6000806000806000806000806005898154811061037757fe5b906000526020600020906007020190508060010160009054906101000a900473ffffffffffffffffffffffffffffffffffffffff168160000160009054906101000a900473ffffffffffffffffffffffffffffffffffffffff168260020154836003015484600401548560060160009054906101000a900460ff1660038111156103fd57fe5b8660050154975097509750975097509750975050919395979092949650565b6000803373ffffffffffffffffffffffffffffffffffffffff1673ffffffffffffffffffffffffffffffffffffffff16815260200190815260200160002060009054906101000a900460ff166104a7576040517f08c379a000000000000000000000000000000000000000000000000000000000815260040161049e90612d97565b60405180910390fd5b6000339050600960405180608001604052808373ffffffffffffffffffffffffffffffffffffffff168152602001428152602001858152602001848152509080600181540180825580915050906001820390600052602060002090600402016000909192909190915060008201518160000160006101000a81548173ffffffffffffffffffffffffffffffffffffffff021916908373ffffffffffffffffffffffffffffffffffffffff160217905550602082015181600101556040820151816002015560608201518160030155505050505050565b60606007805480602002602001604051908101604052809291908181526020016000905b828210156106df5783829060005260206000209060080201604051806101000160405290816000820160009054906101000a900473ffffffffffffffffffffffffffffffffffffffff1673ffffffffffffffffffffffffffffffffffffffff1673ffffffffffffffffffffffffffffffffffffffff1681526020016001820160009054906101000a900473ffffffffffffffffffffffffffffffffffffffff1673ffffffffffffffffffffffffffffffffffffffff1673ffffffffffffffffffffffffffffffffffffffff16815260200160028201548152602001600382015481526020016004820154815260200160058201548152602001600682015481526020016007820160009054906101000a900460ff1660038111156106c157fe5b60038111156106cc57fe5b81525050815260200190600101906105a1565b50505050905090565b6000600980549050905090565b60606009805480602002602001604051908101604052809291908181526020016000905b828210156107bf57838290600052602060002090600402016040518060800160405290816000820160009054906101000a900473ffffffffffffffffffffffffffffffffffffffff1673ffffffffffffffffffffffffffffffffffffffff1673ffffffffffffffffffffffffffffffffffffffff168152602001600182015481526020016002820154815260200160038201548152505081526020019060010190610719565b50505050905090565b6000803373ffffffffffffffffffffffffffffffffffffffff1673ffffffffffffffffffffffffffffffffffffffff16815260200190815260200160002060009054906101000a900460ff16610853576040517f08c379a000000000000000000000000000000000000000000000000000000000815260040161084a90612d97565b60405180910390fd5b60003390506000429050600081840390508484116108a6576040517f08c379a000000000000000000000000000000000000000000000000000000000815260040161089d90612dd7565b60405180910390fd5b60056040518060e00160405280600073ffffffffffffffffffffffffffffffffffffffff1681526020018573ffffffffffffffffffffffffffffffffffffffff1681526020018881526020018781526020018681526020018381526020016000600381111561091157fe5b8152509080600181540180825580915050906001820390600052602060002090600702016000909192909190915060008201518160000160006101000a81548173ffffffffffffffffffffffffffffffffffffffff021916908373ffffffffffffffffffffffffffffffffffffffff16021790555060208201518160010160006101000a81548173ffffffffffffffffffffffffffffffffffffffff021916908373ffffffffffffffffffffffffffffffffffffffff16021790555060408201518160020155606082015181600301556080820151816004015560a0820151816005015560c08201518160060160006101000a81548160ff02191690836003811115610a1957fe5b02179055505050508273ffffffffffffffffffffffffffffffffffffffff167fde0e5567d8d6d630907264bdac08cd46c86e8d6a570e0321de2ca45c49f1a2a587604051610a679190612df7565b60405180910390a2505050505050565b6000809050808060010191505060008163ffffffff1614610ad6578173ffffffffffffffffffffffffffffffffffffffff167f7420b8b978434d1ce66c980ff580761f988dfca7b96378123d4717285774382c60405160405180910390a25b80600160008473ffffffffffffffffffffffffffffffffffffffff1673ffffffffffffffffffffffffffffffffffffffff16815260200190815260200160002060006101000a81548163ffffffff021916908363ffffffff1602179055505050565b600042905060008090505b60078054905081101561118d578260078281548110610b5e57fe5b906000526020600020906008020160050154148015610b9a57508160078281548110610b8657fe5b906000526020600020906008020160040154105b1561118057600360078281548110610bae57fe5b906000526020600020906008020160070160006101000a81548160ff02191690836003811115610bda57fe5b021790555060056040518060e0016040528060078481548110610bf957fe5b906000526020600020906008020160000160009054906101000a900473ffffffffffffffffffffffffffffffffffffffff1673ffffffffffffffffffffffffffffffffffffffff16815260200160078481548110610c5357fe5b906000526020600020906008020160010160009054906101000a900473ffffffffffffffffffffffffffffffffffffffff1673ffffffffffffffffffffffffffffffffffffffff16815260200160078481548110610cad57fe5b906000526020600020906008020160020154815260200160078481548110610cd157fe5b906000526020600020906008020160030154815260200160078481548110610cf557fe5b906000526020600020906008020160040154815260200160078481548110610d1957fe5b9060005260206000209060080201600501548152602001600380811115610d3c57fe5b8152509080600181540180825580915050906001820390600052602060002090600702016000909192909190915060008201518160000160006101000a81548173ffffffffffffffffffffffffffffffffffffffff021916908373ffffffffffffffffffffffffffffffffffffffff16021790555060208201518160010160006101000a81548173ffffffffffffffffffffffffffffffffffffffff021916908373ffffffffffffffffffffffffffffffffffffffff16021790555060408201518160020155606082015181600301556080820151816004015560a0820151816005015560c08201518160060160006101000a81548160ff02191690836003811115610e4457fe5b0217905550505050610e9360078281548110610e5c57fe5b906000526020600020906008020160000160009054906101000a900473ffffffffffffffffffffffffffffffffffffffff166121c9565b60078181548110610ea057fe5b906000526020600020906008020160000160009054906101000a900473ffffffffffffffffffffffffffffffffffffffff1673ffffffffffffffffffffffffffffffffffffffff1660078281548110610ef557fe5b906000526020600020906008020160010160009054906101000a900473ffffffffffffffffffffffffffffffffffffffff1673ffffffffffffffffffffffffffffffffffffffff167fc3384a2daef78f9743d45a2f054a32d11ee7ef405de6fd4724ec6f77ba049f7860078481548110610f6b57fe5b90600052602060002090600802016003015460078581548110610f8a57fe5b90600052602060002090600802016004015460078681548110610fa957fe5b906000526020600020906008020160070160009054906101000a900460ff16604051610fd793929190612e12565b60405180910390a3600160078054905011156111655760076001600780549050038154811061100257fe5b90600052602060002090600802016007828154811061101d57fe5b90600052602060002090600802016000820160009054906101000a900473ffffffffffffffffffffffffffffffffffffffff168160000160006101000a81548173ffffffffffffffffffffffffffffffffffffffff021916908373ffffffffffffffffffffffffffffffffffffffff1602179055506001820160009054906101000a900473ffffffffffffffffffffffffffffffffffffffff168160010160006101000a81548173ffffffffffffffffffffffffffffffffffffffff021916908373ffffffffffffffffffffffffffffffffffffffff16021790555060028201548160020155600382015481600301556004820154816004015560058201548160050155600682015481600601556007820160009054906101000a900460ff168160070160006101000a81548160ff0219169083600381111561115c57fe5b02179055509050505b600780548091906001900361117a9190612282565b5061118d565b8080600101915050610b43565b505050565b6060600a805480602002602001604051908101604052809291908181526020016000905b828210156112b257838290600052602060002090600502016040518060a00160405290816000820160009054906101000a900473ffffffffffffffffffffffffffffffffffffffff1673ffffffffffffffffffffffffffffffffffffffff1673ffffffffffffffffffffffffffffffffffffffff1681526020016001820160009054906101000a900473ffffffffffffffffffffffffffffffffffffffff1673ffffffffffffffffffffffffffffffffffffffff1673ffffffffffffffffffffffffffffffffffffffff1681526020016002820154815260200160038201548152602001600482015481525050815260200190600101906111b6565b50505050905090565b60003390508073ffffffffffffffffffffffffffffffffffffffff167f769268709e630d5b24d4c651adeae2d7a75c3dd7c3876275233e21570be22fd460405160405180910390a260016000808373ffffffffffffffffffffffffffffffffffffffff1673ffffffffffffffffffffffffffffffffffffffff16815260200190815260200160002060006101000a81548160ff02191690831515021790555050565b60606005805480602002602001604051908101604052809291908181526020016000905b828210156114b457838290600052602060002090600702016040518060e00160405290816000820160009054906101000a900473ffffffffffffffffffffffffffffffffffffffff1673ffffffffffffffffffffffffffffffffffffffff1673ffffffffffffffffffffffffffffffffffffffff1681526020016001820160009054906101000a900473ffffffffffffffffffffffffffffffffffffffff1673ffffffffffffffffffffffffffffffffffffffff1673ffffffffffffffffffffffffffffffffffffffff168152602001600282015481526020016003820154815260200160048201548152602001600582015481526020016006820160009054906101000a900460ff16600381111561149657fe5b60038111156114a157fe5b8152505081526020019060010190611381565b50505050905090565b6000809050600033905060008090505b600580549050811015611b43578173ffffffffffffffffffffffffffffffffffffffff16600582815481106114fe57fe5b906000526020600020906007020160010160009054906101000a900473ffffffffffffffffffffffffffffffffffffffff1673ffffffffffffffffffffffffffffffffffffffff161415611587576040517f08c379a000000000000000000000000000000000000000000000000000000000815260040161157e90612db7565b60405180910390fd5b6002600381111561159457fe5b600582815481106115a157fe5b906000526020600020906007020160060160009054906101000a900460ff1660038111156115cb57fe5b141561160c576040517f08c379a000000000000000000000000000000000000000000000000000000000815260040161160390612d37565b60405180910390fd5b6000600381111561161957fe5b6005828154811061162657fe5b906000526020600020906007020160060160009054906101000a900460ff16600381111561165057fe5b1415611b365760076040518061010001604052808473ffffffffffffffffffffffffffffffffffffffff1681526020016005848154811061168d57fe5b906000526020600020906007020160010160009054906101000a900473ffffffffffffffffffffffffffffffffffffffff1673ffffffffffffffffffffffffffffffffffffffff168152602001600584815481106116e757fe5b90600052602060002090600702016002015481526020016005848154811061170b57fe5b90600052602060002090600702016003015481526020016005848154811061172f57fe5b90600052602060002090600702016004015481526020016005848154811061175357fe5b90600052602060002090600702016005015481526020018581526020016001600381111561177d57fe5b8152509080600181540180825580915050906001820390600052602060002090600802016000909192909190915060008201518160000160006101000a81548173ffffffffffffffffffffffffffffffffffffffff021916908373ffffffffffffffffffffffffffffffffffffffff16021790555060208201518160010160006101000a81548173ffffffffffffffffffffffffffffffffffffffff021916908373ffffffffffffffffffffffffffffffffffffffff16021790555060408201518160020155606082015181600301556080820151816004015560a0820151816005015560c0820151816006015560e08201518160070160006101000a81548160ff0219169083600381111561188f57fe5b02179055505050506118a082610a77565b600581815481106118ad57fe5b906000526020600020906007020160010160009054906101000a900473ffffffffffffffffffffffffffffffffffffffff1673ffffffffffffffffffffffffffffffffffffffff166005828154811061190257fe5b906000526020600020906007020160000160009054906101000a900473ffffffffffffffffffffffffffffffffffffffff1673ffffffffffffffffffffffffffffffffffffffff167f5e51fbd7f7e38ee6927fb25d7e32916c08f102ece1d3d65df27ec76e3a43c3a76005848154811061197857fe5b9060005260206000209060070201600501546040516119979190612df7565b60405180910390a360016005805490501115611b1b576005600160058054905003815481106119c257fe5b9060005260206000209060070201600582815481106119dd57fe5b90600052602060002090600702016000820160009054906101000a900473ffffffffffffffffffffffffffffffffffffffff168160000160006101000a81548173ffffffffffffffffffffffffffffffffffffffff021916908373ffffffffffffffffffffffffffffffffffffffff1602179055506001820160009054906101000a900473ffffffffffffffffffffffffffffffffffffffff168160010160006101000a81548173ffffffffffffffffffffffffffffffffffffffff021916908373ffffffffffffffffffffffffffffffffffffffff160217905550600282015481600201556003820154816003015560048201548160040155600582015481600501556006820160009054906101000a900460ff168160060160006101000a81548160ff02191690836003811115611b1257fe5b02179055509050505b6005805480919060019003611b3091906122b4565b50611b43565b80806001019150506114cd565b505050565b60003390508073ffffffffffffffffffffffffffffffffffffffff167f0bb6d68f109745f7ae353e3b90fff6fb8245c34cca44f18d9dfa00e4d705fa6460405160405180910390a260008060008373ffffffffffffffffffffffffffffffffffffffff1673ffffffffffffffffffffffffffffffffffffffff16815260200190815260200160002060006101000a81548160ff02191690831515021790555050565b6000600160003373ffffffffffffffffffffffffffffffffffffffff1673ffffffffffffffffffffffffffffffffffffffff16815260200190815260200160002060009054906101000a900463ffffffff1663ffffffff1611611c82576040517f08c379a0000000000000000000000000000000000000000000000000000000008152600401611c7990612d57565b60405180910390fd5b6000429050600033905060008090505b6007805490508110156121c35760008090505b6009805490508110156121b557600080905060098281548110611cc457fe5b906000526020600020906004020160000160009054906101000a900473ffffffffffffffffffffffffffffffffffffffff1673ffffffffffffffffffffffffffffffffffffffff1660078481548110611d1957fe5b906000526020600020906008020160010160009054906101000a900473ffffffffffffffffffffffffffffffffffffffff1673ffffffffffffffffffffffffffffffffffffffff16148015611d8b57508560078481548110611d7757fe5b906000526020600020906008020160050154145b8015611dd2575060098281548110611d9f57fe5b90600052602060002090600402016003015460078481548110611dbe57fe5b906000526020600020906008020160050154145b1561208f578460078481548110611de557fe5b9060005260206000209060080201600301541115611e38576040517f08c379a0000000000000000000000000000000000000000000000000000000008152600401611e2f90612d17565b60405180910390fd5b8460078481548110611e4657fe5b9060005260206000209060080201600401541015611e99576040517f08c379a0000000000000000000000000000000000000000000000000000000008152600401611e9090612d77565b60405180910390fd5b60098281548110611ea657fe5b90600052602060002090600402016002015490508060078481548110611ec857fe5b9060005260206000209060080201600601540160078481548110611ee857fe5b906000526020600020906008020160060181905550600060098381548110611f0c57fe5b906000526020600020906004020160020181905550600a6040518060a001604052808673ffffffffffffffffffffffffffffffffffffffff16815260200160098581548110611f5757fe5b906000526020600020906004020160000160009054906101000a900473ffffffffffffffffffffffffffffffffffffffff1673ffffffffffffffffffffffffffffffffffffffff168152602001878152602001888152602001838152509080600181540180825580915050906001820390600052602060002090600502016000909192909190915060008201518160000160006101000a81548173ffffffffffffffffffffffffffffffffffffffff021916908373ffffffffffffffffffffffffffffffffffffffff16021790555060208201518160010160006101000a81548173ffffffffffffffffffffffffffffffffffffffff021916908373ffffffffffffffffffffffffffffffffffffffff1602179055506040820151816002015560608201518160030155608082015181600401555050505b60006009838154811061209e57fe5b90600052602060002090600402016002015414156121a7576001600980549050111561218b576009600160098054905003815481106120d957fe5b9060005260206000209060040201600983815481106120f457fe5b90600052602060002090600402016000820160009054906101000a900473ffffffffffffffffffffffffffffffffffffffff168160000160006101000a81548173ffffffffffffffffffffffffffffffffffffffff021916908373ffffffffffffffffffffffffffffffffffffffff1602179055506001820154816001015560028201548160020155600382015481600301559050505b60098054809190600190036121a091906122e6565b50506121b5565b508080600101915050611ca5565b508080600101915050611c92565b50505050565b600080905060008163ffffffff1614612220578173ffffffffffffffffffffffffffffffffffffffff167fac6737d5d897955c9efa7aa0f05d006183e2529acaba2d32b6152acbff7aff9f60405160405180910390a25b80600160008473ffffffffffffffffffffffffffffffffffffffff1673ffffffffffffffffffffffffffffffffffffffff16815260200190815260200160002060006101000a81548163ffffffff021916908363ffffffff1602179055505050565b8154818355818111156122af576008028160080283600052602060002091820191016122ae9190612318565b5b505050565b8154818355818111156122e1576007028160070283600052602060002091820191016122e091906123c1565b5b505050565b815481835581811115612313576004028160040283600052602060002091820191016123129190612462565b5b505050565b6123be91905b808211156123ba57600080820160006101000a81549073ffffffffffffffffffffffffffffffffffffffff02191690556001820160006101000a81549073ffffffffffffffffffffffffffffffffffffffff0219169055600282016000905560038201600090556004820160009055600582016000905560068201600090556007820160006101000a81549060ff02191690555060080161231e565b5090565b90565b61245f91905b8082111561245b57600080820160006101000a81549073ffffffffffffffffffffffffffffffffffffffff02191690556001820160006101000a81549073ffffffffffffffffffffffffffffffffffffffff021916905560028201600090556003820160009055600482016000905560058201600090556006820160006101000a81549060ff0219169055506007016123c7565b5090565b90565b6124bd91905b808211156124b957600080820160006101000a81549073ffffffffffffffffffffffffffffffffffffffff021916905560018201600090556002820160009055600382016000905550600401612468565b5090565b90565b6000813590506124cf81612fac565b92915050565b6000813590506124e481612fc3565b92915050565b6000602082840312156124fc57600080fd5b600061250a848285016124c0565b91505092915050565b60006020828403121561252557600080fd5b6000612533848285016124d5565b91505092915050565b6000806040838503121561254f57600080fd5b600061255d858286016124d5565b925050602061256e858286016124d5565b9150509250929050565b60008060006060848603121561258d57600080fd5b600061259b868287016124d5565b93505060206125ac868287016124d5565b92505060406125bd868287016124d5565b9150509250925092565b60006125d383836129c2565b6101008301905092915050565b60006125ec8383612a64565b60e08301905092915050565b60006126048383612af2565b60808301905092915050565b600061261c8383612b47565b60a08301905092915050565b61263181612f3e565b82525050565b61264081612f3e565b82525050565b600061265182612e89565b61265b8185612ee9565b935061266683612e49565b8060005b8381101561269757815161267e88826125c7565b975061268983612eb5565b92505060018101905061266a565b5085935050505092915050565b60006126af82612e94565b6126b98185612efa565b93506126c483612e59565b8060005b838110156126f55781516126dc88826125e0565b97506126e783612ec2565b9250506001810190506126c8565b5085935050505092915050565b600061270d82612e9f565b6127178185612f0b565b935061272283612e69565b8060005b8381101561275357815161273a88826125f8565b975061274583612ecf565b925050600181019050612726565b5085935050505092915050565b600061276b82612eaa565b6127758185612f1c565b935061278083612e79565b8060005b838110156127b15781516127988882612610565b97506127a383612edc565b925050600181019050612784565b5085935050505092915050565b6127c781612f8d565b82525050565b6127d681612f8d565b82525050565b60006127e9601583612f2d565b91507f505041206973206e6f74206163746976652079657400000000000000000000006000830152602082019050919050565b6000612829600583612f2d565b91507f6572726f720000000000000000000000000000000000000000000000000000006000830152602082019050919050565b6000612869600f83612f2d565b91507f4f6e6c7920505041206f776e65727300000000000000000000000000000000006000830152602082019050919050565b60006128a9600f83612f2d565b91507f50504120686173206578706972656400000000000000000000000000000000006000830152602082019050919050565b60006128e9601e83612f2d565b91507f596f75206d75737420626520612063757272656e742050726f647563657200006000830152602082019050919050565b6000612929601383612f2d565b91507f57726f6e672061646472657373206275796572000000000000000000000000006000830152602082019050919050565b6000612969602183612f2d565b91507f4974277320696d706f737369626c6520656e64446179203c207374617274446160008301527f79000000000000000000000000000000000000000000000000000000000000006020830152604082019050919050565b610100820160008201516129d96000850182612628565b5060208201516129ec6020850182612628565b5060408201516129ff6040850182612baf565b506060820151612a126060850182612baf565b506080820151612a256080850182612baf565b5060a0820151612a3860a0850182612baf565b5060c0820151612a4b60c0850182612baf565b5060e0820151612a5e60e08501826127be565b50505050565b60e082016000820151612a7a6000850182612628565b506020820151612a8d6020850182612628565b506040820151612aa06040850182612baf565b506060820151612ab36060850182612baf565b506080820151612ac66080850182612baf565b5060a0820151612ad960a0850182612baf565b5060c0820151612aec60c08501826127be565b50505050565b608082016000820151612b086000850182612628565b506020820151612b1b6020850182612baf565b506040820151612b2e6040850182612baf565b506060820151612b416060850182612baf565b50505050565b60a082016000820151612b5d6000850182612628565b506020820151612b706020850182612628565b506040820151612b836040850182612baf565b506060820151612b966060850182612baf565b506080820151612ba96080850182612baf565b50505050565b612bb881612f83565b82525050565b612bc781612f83565b82525050565b600060a082019050612be26000830188612637565b612bef6020830187612637565b612bfc6040830186612bbe565b612c096060830185612bbe565b612c166080830184612bbe565b9695505050505050565b600060e082019050612c35600083018a612637565b612c426020830189612637565b612c4f6040830188612bbe565b612c5c6060830187612bbe565b612c696080830186612bbe565b612c7660a0830185612bbe565b612c8360c0830184612bbe565b98975050505050505050565b60006020820190508181036000830152612ca98184612646565b905092915050565b60006020820190508181036000830152612ccb81846126a4565b905092915050565b60006020820190508181036000830152612ced8184612702565b905092915050565b60006020820190508181036000830152612d0f8184612760565b905092915050565b60006020820190508181036000830152612d30816127dc565b9050919050565b60006020820190508181036000830152612d508161281c565b9050919050565b60006020820190508181036000830152612d708161285c565b9050919050565b60006020820190508181036000830152612d908161289c565b9050919050565b60006020820190508181036000830152612db0816128dc565b9050919050565b60006020820190508181036000830152612dd08161291c565b9050919050565b60006020820190508181036000830152612df08161295c565b9050919050565b6000602082019050612e0c6000830184612bbe565b92915050565b6000606082019050612e276000830186612bbe565b612e346020830185612bbe565b612e4160408301846127cd565b949350505050565b6000819050602082019050919050565b6000819050602082019050919050565b6000819050602082019050919050565b6000819050602082019050919050565b600081519050919050565b600081519050919050565b600081519050919050565b600081519050919050565b6000602082019050919050565b6000602082019050919050565b6000602082019050919050565b6000602082019050919050565b600082825260208201905092915050565b600082825260208201905092915050565b600082825260208201905092915050565b600082825260208201905092915050565b600082825260208201905092915050565b6000612f4982612f63565b9050919050565b6000819050612f5e82612f9f565b919050565b600073ffffffffffffffffffffffffffffffffffffffff82169050919050565b6000819050919050565b6000612f9882612f50565b9050919050565b60048110612fa957fe5b50565b612fb581612f3e565b8114612fc057600080fd5b50565b612fcc81612f83565b8114612fd757600080fd5b5056fea365627a7a7231582058176218c688e140a8b66a8bdbca00ffc65d3920935875fa76489e737f24a9046c6578706572696d656e74616cf564736f6c63430005100040",
  "source": "pragma solidity >=0.4.21 <0.9.0;\r\npragma experimental ABIEncoderV2;\r\n\r\n//import \"src/contracts/token/ERC1155.sol\";\r\n//import \"src/contracts/token/ERC1155Mintable.sol\";\r\n//import \"src/contracts/token/IERC1155.sol\";\r\n\r\n//import \"@openzeppelin/contracts/token/ERC1155/ERC1155.sol\";\r\n/*\r\n*Installed open zeppelin version 3.1.0\r\n*https://github.com/OpenZeppelin/openzeppelin-contracts/tree/v3.1.0\r\n*with \"npm i @openzeppelin/contracts@3.1.0\"\r\n*/\r\ncontract producerRegistry {\r\n    event producerRegistered(address indexed producer);\r\n    event producerDeregistered(address indexed producer);\r\n    \r\n    // map address to bool \"is a registered producer\"\r\n    mapping(address => bool) producers;\r\n    \r\n    modifier onlyRegisteredProducers {\r\n        require(producers[msg.sender], \"You must be a current Producer\");\r\n        _;\r\n    }\r\n    \r\n    function registerProducer() public {\r\n        address aproducer = msg.sender;\r\n        emit producerRegistered(aproducer);\r\n        producers[aproducer] = true;\r\n    }\r\n\r\n    function deregisterProducer() public {\r\n        address aproducer = msg.sender;\r\n        emit producerDeregistered(aproducer);\r\n        producers[aproducer] = false;\r\n    }\r\n}\r\n\r\ncontract ppaBuyerRegistry {\r\n    event buyerRegistered(address indexed ppaBuyer);\r\n    event buyerDeregistered(address indexed ppaBuyer);\r\n\r\n    mapping(address => uint32) ppaBuyers;\r\n    address[] listOfPPABuyers;\r\n\r\n    modifier onlyPPABuyers {\r\n      require(ppaBuyers[msg.sender] > 0, \"Only PPA owners\");\r\n      _;\r\n    }\r\n    \r\n    function deregisterPPABuyer(address abuyer) public {\r\n        uint32 abuyerID = 0;\r\n        if(abuyerID != 0) {\r\n            emit buyerDeregistered(abuyer);\r\n        }\r\n        ppaBuyers[abuyer] = abuyerID;\r\n    }\r\n\r\n    function registerPPABuyer(address abuyer) public {\r\n        uint32 abuyerID = 0;\r\n        abuyerID++;\r\n        if(abuyerID != 0) {\r\n            emit buyerRegistered(abuyer);\r\n        }\r\n        ppaBuyers[abuyer] = abuyerID;\r\n    }\r\n}\r\n\r\ncontract PPA is producerRegistry, ppaBuyerRegistry {\r\n\r\n    mapping (uint => uint) price;\r\n\r\n    enum Status {Pending, Approved, Rejected, Expired}\r\n    event createdPPA(address indexed producer, uint price);\r\n    event purchasedPPA(uint itemID, address indexed buyer, address indexed producer);\r\n    event expiredPPA(address indexed producer, address indexed buyer, uint startDay, uint endDay, Status status);\r\n\r\n    struct ppa {              //Struct with all PPA contracts\r\n        address buyerID;\r\n        address producerID;\r\n        uint kwhPrice;           //price per energy(kwh)\r\n        uint startDay;\r\n        uint endDay;          //It must be timestamp (ex. uint endDay = 1518220800; // 2018-02-10 00:00:00)\r\n        uint id;              //id number of each ppa contract\r\n        Status status;\r\n    }\r\n\r\n    mapping(address => ppa) ppas;\r\n    ppa[] listOfPPAs;\r\n    //uint nextID = 0;\r\n\r\n    struct approvedPPA{       //Struct only for approved PPAs\r\n        address buyerID;\r\n        address producerID;\r\n        uint kwhPrice;           //price per energy(kwh)\r\n        uint startDay;\r\n        uint endDay;          //It must be timestamp (ex. uint endDay = 1518220800; // 2018-02-10 00:00:00)\r\n        uint id;              //id number of each ppa contract\r\n        uint totalKwh;        //total amount of purchased kwh\r\n        Status status;\r\n    }\r\n\r\n    mapping(address => mapping(uint => approvedPPA)) approvedPPAs;\r\n    approvedPPA[] Appas;\r\n\r\n    struct producerEnergy{      //Trial struct for available producer' s energy in order to sale \r\n        address producerID;\r\n        uint timestamp;\r\n        uint energy;\r\n        uint idOfmatchContract; //id oc ppa contract that refers to\r\n    }\r\n\r\n    mapping(address => mapping(uint => uint)) pEnergy;\r\n    producerEnergy[] listOfkwhs;\r\n\r\n    struct purchasesPPA{\r\n        address buyerID;\r\n        address producerID;\r\n        uint timestamp;\r\n        uint idOfPPA;\r\n        uint purchasedEnergy;\r\n    }\r\n\r\n    purchasesPPA[] listOfprchs;\r\n\r\n    function createPPA(uint _kwhPrice,uint _startDay, uint _endDay) public onlyRegisteredProducers { //onlyRegisteredProducers\r\n        address _producerID = msg.sender;\r\n        uint currentTime = block.timestamp;\r\n        uint idOfContract = _endDay-currentTime;\r\n        require(_endDay > _startDay, \"It's impossible endDay < startDay\");\r\n        listOfPPAs.push(ppa({\r\n            buyerID: address(0x0),\r\n            producerID: _producerID,\r\n            kwhPrice: _kwhPrice,\r\n            startDay: _startDay,\r\n            endDay: _endDay,\r\n            id: idOfContract,\r\n            status: Status.Pending\r\n        }));\r\n        //nextID++;\r\n        emit createdPPA(_producerID, _kwhPrice);\r\n    }\r\n\r\n    function claimPPA() public {\r\n        uint _totalKwh = 0;\r\n        address buyerId = msg.sender;\r\n        for(uint i = 0; i<listOfPPAs.length; i++){\r\n            require(listOfPPAs[i].producerID != buyerId, \"Wrong address buyer\");\r\n            require(listOfPPAs[i].status != Status.Rejected, \"error\");\r\n            if(listOfPPAs[i].status == Status.Pending){\r\n                Appas.push(approvedPPA({\r\n                    buyerID: buyerId,\r\n                    producerID: listOfPPAs[i].producerID,\r\n                    kwhPrice: listOfPPAs[i].kwhPrice,\r\n                    startDay: listOfPPAs[i].startDay,\r\n                    endDay: listOfPPAs[i].endDay,\r\n                    id: listOfPPAs[i].id,\r\n                    totalKwh: _totalKwh,\r\n                    status: Status.Approved\r\n                }));\r\n            ppaBuyerRegistry.registerPPABuyer(buyerId);\r\n            emit purchasedPPA(listOfPPAs[i].id, listOfPPAs[i].buyerID, listOfPPAs[i].producerID);\r\n            if(listOfPPAs.length > 1){\r\n                listOfPPAs[i] = listOfPPAs[listOfPPAs.length-1];\r\n            }\r\n            listOfPPAs.length--;\r\n            break;\r\n            }\r\n        }\r\n    }\r\n\r\n    //this is a trial function just for PPA_energy_trading part\r\n    function availableKwhs(uint _energy, uint _idOfMatchPPA) public onlyRegisteredProducers{\r\n        address _producer = msg.sender;\r\n        listOfkwhs.push(producerEnergy({\r\n            producerID: _producer,\r\n            timestamp: block.timestamp,\r\n            energy: _energy,\r\n            idOfmatchContract: _idOfMatchPPA\r\n        }));\r\n    }\r\n\r\n    function buyPPAKwhs(uint _idOfPPA) public onlyPPABuyers{\r\n        uint currentTime = block.timestamp;\r\n        address aBuyerId = msg.sender; \r\n        for(uint j = 0; j<Appas.length; j++){ //uint j = 0; j<Appas.length; j++\r\n            //search on Approved PPAs to match the id - producer with kwhs\r\n            for(uint i = 0; i<listOfkwhs.length; i++){ //uint i = 0; i<listOfkwhs.length; i++\r\n                uint totalEnergyPurchased = 0;\r\n                //find the correct available kwhs based on id of ppa\r\n                if((Appas[j].producerID == listOfkwhs[i].producerID) && (Appas[j].id == _idOfPPA) && (Appas[j].id == listOfkwhs[i].idOfmatchContract)){\r\n                    require(Appas[j].startDay <= currentTime, \"PPA is not active yet\");\r\n                    //if endDay < now then PPA has expired \r\n                    if(Appas[j].endDay < currentTime){\r\n                        revert(\"PPA has expired\");\r\n                    }\r\n                    totalEnergyPurchased = listOfkwhs[i].energy;\r\n                    Appas[j].totalKwh = Appas[j].totalKwh + totalEnergyPurchased;\r\n                    listOfkwhs[i].energy = 0;\r\n                    listOfprchs.push(purchasesPPA({\r\n                        buyerID: aBuyerId,\r\n                        producerID: listOfkwhs[i].producerID,\r\n                        timestamp: currentTime,\r\n                        idOfPPA: _idOfPPA,\r\n                        purchasedEnergy: totalEnergyPurchased\r\n                    }));\r\n                }\r\n                if(listOfkwhs[i].energy == 0){\r\n                    if(listOfkwhs.length > 1){\r\n                        listOfkwhs[i] = listOfkwhs[listOfkwhs.length-1];\r\n                    }\r\n                    listOfkwhs.length--;\r\n                    break;\r\n                }\r\n            }\r\n        }\r\n    }\r\n\r\n    function killPPA(uint _id) public {\r\n        uint currentTime = block.timestamp;\r\n        for(uint i = 0; i<Appas.length; i++){\r\n            if((Appas[i].id == _id) && (Appas[i].endDay < currentTime)){\r\n                Appas[i].status = Status.Expired;\r\n                listOfPPAs.push(ppa({\r\n                    buyerID: Appas[i].buyerID,\r\n                    producerID: Appas[i].producerID,\r\n                    kwhPrice: Appas[i].kwhPrice,\r\n                    startDay: Appas[i].startDay,\r\n                    endDay: Appas[i].endDay,\r\n                    id: Appas[i].id,\r\n                    status: Status.Expired\r\n                }));\r\n                ppaBuyerRegistry.deregisterPPABuyer(Appas[i].buyerID);\r\n                emit expiredPPA(Appas[i].producerID, Appas[i].buyerID, Appas[i].startDay, Appas[i].endDay, Appas[i].status);\r\n                if(Appas.length > 1){\r\n                    Appas[i] = Appas[Appas.length-1];\r\n                }\r\n                Appas.length--;\r\n                break;\r\n            }\r\n        }\r\n    }\r\n\r\n    function viewAllPPAs () public view returns (ppa[] memory){\r\n        return listOfPPAs;\r\n    }\r\n\r\n    function viewAllpurchases() public view returns (purchasesPPA[] memory){\r\n        return listOfprchs;\r\n    }\r\n\r\n    function viewAllApprovedPPAs() public view returns(approvedPPA[] memory){\r\n        return Appas;\r\n    }\r\n\r\n    function getApprovedPPAByID(uint _id) public view returns (address, address, uint, uint, uint){\r\n        approvedPPA storage _Appa = Appas[_id];\r\n        return(_Appa.producerID, _Appa.buyerID, _Appa.kwhPrice, _Appa.startDay, _Appa.endDay);\r\n    }\r\n\r\n    function getPPAByID(uint _id) public view returns (address, address, uint, uint, uint, uint, uint){\r\n        ppa storage _ppa = listOfPPAs[_id];\r\n        return(_ppa.producerID, _ppa.buyerID, _ppa.kwhPrice, _ppa.startDay, _ppa.endDay, uint(_ppa.status), _ppa.id);\r\n    }\r\n\r\n    function viewAvailableKwhs() public view returns(producerEnergy[] memory){\r\n        return listOfkwhs;\r\n    }\r\n\r\n    function getAvKwhs() public view returns(uint count){\r\n        return listOfkwhs.length;\r\n    }\r\n}",
  "sourcePath": "C:/Users/Lenovo/projects/ethereum/protergia/blockchain-energy-trading-and-green-energy-certification-thesis-w-protergia/src/contracts/PPA.sol",
  "compiler": {
    "name": "solc",
    "version": "0.5.16+commit.9c3226ce.Emscripten.clang"
  },
  "schemaVersion": "3.4.1",
  "updatedAt": "2021-07-11T13:08:32.215Z",
  "devdoc": {
    "methods": {}
  },
  "userdoc": {
    "methods": {}
  }
}