{
  "contractName": "PPAToken",
  "abi": [
    {
      "inputs": [],
      "payable": false,
      "stateMutability": "nonpayable",
      "type": "constructor"
    },
    {
      "anonymous": false,
      "inputs": [
        {
          "indexed": true,
          "internalType": "address",
          "name": "_owner",
          "type": "address"
        },
        {
          "indexed": true,
          "internalType": "address",
          "name": "_operator",
          "type": "address"
        },
        {
          "indexed": false,
          "internalType": "bool",
          "name": "_approved",
          "type": "bool"
        }
      ],
      "name": "ApprovalForAll",
      "type": "event"
    },
    {
      "anonymous": false,
      "inputs": [
        {
          "indexed": true,
          "internalType": "address",
          "name": "_operator",
          "type": "address"
        },
        {
          "indexed": true,
          "internalType": "address",
          "name": "_from",
          "type": "address"
        },
        {
          "indexed": true,
          "internalType": "address",
          "name": "_to",
          "type": "address"
        },
        {
          "indexed": false,
          "internalType": "uint256[]",
          "name": "_ids",
          "type": "uint256[]"
        },
        {
          "indexed": false,
          "internalType": "uint256[]",
          "name": "_values",
          "type": "uint256[]"
        }
      ],
      "name": "TransferBatch",
      "type": "event"
    },
    {
      "anonymous": false,
      "inputs": [
        {
          "indexed": true,
          "internalType": "address",
          "name": "_operator",
          "type": "address"
        },
        {
          "indexed": true,
          "internalType": "address",
          "name": "_from",
          "type": "address"
        },
        {
          "indexed": true,
          "internalType": "address",
          "name": "_to",
          "type": "address"
        },
        {
          "indexed": false,
          "internalType": "uint256",
          "name": "_id",
          "type": "uint256"
        },
        {
          "indexed": false,
          "internalType": "uint256",
          "name": "_value",
          "type": "uint256"
        }
      ],
      "name": "TransferSingle",
      "type": "event"
    },
    {
      "anonymous": false,
      "inputs": [
        {
          "indexed": false,
          "internalType": "string",
          "name": "_value",
          "type": "string"
        },
        {
          "indexed": true,
          "internalType": "uint256",
          "name": "_id",
          "type": "uint256"
        }
      ],
      "name": "URI",
      "type": "event"
    },
    {
      "constant": true,
      "inputs": [],
      "name": "ERC1155_BATCH_RECEIVED",
      "outputs": [
        {
          "internalType": "bytes4",
          "name": "",
          "type": "bytes4"
        }
      ],
      "payable": false,
      "stateMutability": "view",
      "type": "function"
    },
    {
      "constant": true,
      "inputs": [],
      "name": "ERC1155_RECEIVED",
      "outputs": [
        {
          "internalType": "bytes4",
          "name": "",
          "type": "bytes4"
        }
      ],
      "payable": false,
      "stateMutability": "view",
      "type": "function"
    },
    {
      "constant": true,
      "inputs": [
        {
          "internalType": "address",
          "name": "_owner",
          "type": "address"
        },
        {
          "internalType": "uint256",
          "name": "_id",
          "type": "uint256"
        }
      ],
      "name": "balanceOf",
      "outputs": [
        {
          "internalType": "uint256",
          "name": "",
          "type": "uint256"
        }
      ],
      "payable": false,
      "stateMutability": "view",
      "type": "function"
    },
    {
      "constant": true,
      "inputs": [
        {
          "internalType": "address[]",
          "name": "_owners",
          "type": "address[]"
        },
        {
          "internalType": "uint256[]",
          "name": "_ids",
          "type": "uint256[]"
        }
      ],
      "name": "balanceOfBatch",
      "outputs": [
        {
          "internalType": "uint256[]",
          "name": "",
          "type": "uint256[]"
        }
      ],
      "payable": false,
      "stateMutability": "view",
      "type": "function"
    },
    {
      "constant": false,
      "inputs": [
        {
          "internalType": "uint256",
          "name": "_initialSupply",
          "type": "uint256"
        },
        {
          "internalType": "string",
          "name": "_uri",
          "type": "string"
        }
      ],
      "name": "create",
      "outputs": [
        {
          "internalType": "uint256",
          "name": "_id",
          "type": "uint256"
        }
      ],
      "payable": false,
      "stateMutability": "nonpayable",
      "type": "function"
    },
    {
      "constant": true,
      "inputs": [
        {
          "internalType": "uint256",
          "name": "",
          "type": "uint256"
        }
      ],
      "name": "creators",
      "outputs": [
        {
          "internalType": "address",
          "name": "",
          "type": "address"
        }
      ],
      "payable": false,
      "stateMutability": "view",
      "type": "function"
    },
    {
      "constant": true,
      "inputs": [
        {
          "internalType": "address",
          "name": "_owner",
          "type": "address"
        },
        {
          "internalType": "address",
          "name": "_operator",
          "type": "address"
        }
      ],
      "name": "isApprovedForAll",
      "outputs": [
        {
          "internalType": "bool",
          "name": "",
          "type": "bool"
        }
      ],
      "payable": false,
      "stateMutability": "view",
      "type": "function"
    },
    {
      "constant": false,
      "inputs": [
        {
          "internalType": "uint256",
          "name": "_id",
          "type": "uint256"
        },
        {
          "internalType": "address[]",
          "name": "_to",
          "type": "address[]"
        },
        {
          "internalType": "uint256[]",
          "name": "_quantities",
          "type": "uint256[]"
        }
      ],
      "name": "mint",
      "outputs": [],
      "payable": false,
      "stateMutability": "nonpayable",
      "type": "function"
    },
    {
      "constant": true,
      "inputs": [],
      "name": "nonce",
      "outputs": [
        {
          "internalType": "uint256",
          "name": "",
          "type": "uint256"
        }
      ],
      "payable": false,
      "stateMutability": "view",
      "type": "function"
    },
    {
      "constant": false,
      "inputs": [
        {
          "internalType": "address",
          "name": "_from",
          "type": "address"
        },
        {
          "internalType": "address",
          "name": "_to",
          "type": "address"
        },
        {
          "internalType": "uint256[]",
          "name": "_ids",
          "type": "uint256[]"
        },
        {
          "internalType": "uint256[]",
          "name": "_values",
          "type": "uint256[]"
        },
        {
          "internalType": "bytes",
          "name": "_data",
          "type": "bytes"
        }
      ],
      "name": "safeBatchTransferFrom",
      "outputs": [],
      "payable": false,
      "stateMutability": "nonpayable",
      "type": "function"
    },
    {
      "constant": false,
      "inputs": [
        {
          "internalType": "address",
          "name": "_from",
          "type": "address"
        },
        {
          "internalType": "address",
          "name": "_to",
          "type": "address"
        },
        {
          "internalType": "uint256",
          "name": "_id",
          "type": "uint256"
        },
        {
          "internalType": "uint256",
          "name": "_value",
          "type": "uint256"
        },
        {
          "internalType": "bytes",
          "name": "_data",
          "type": "bytes"
        }
      ],
      "name": "safeTransferFrom",
      "outputs": [],
      "payable": false,
      "stateMutability": "nonpayable",
      "type": "function"
    },
    {
      "constant": false,
      "inputs": [
        {
          "internalType": "address",
          "name": "_operator",
          "type": "address"
        },
        {
          "internalType": "bool",
          "name": "_approved",
          "type": "bool"
        }
      ],
      "name": "setApprovalForAll",
      "outputs": [],
      "payable": false,
      "stateMutability": "nonpayable",
      "type": "function"
    },
    {
      "constant": false,
      "inputs": [
        {
          "internalType": "string",
          "name": "_uri",
          "type": "string"
        },
        {
          "internalType": "uint256",
          "name": "_id",
          "type": "uint256"
        }
      ],
      "name": "setURI",
      "outputs": [],
      "payable": false,
      "stateMutability": "nonpayable",
      "type": "function"
    },
    {
      "constant": true,
      "inputs": [
        {
          "internalType": "bytes4",
          "name": "_interfaceId",
          "type": "bytes4"
        }
      ],
      "name": "supportsInterface",
      "outputs": [
        {
          "internalType": "bool",
          "name": "",
          "type": "bool"
        }
      ],
      "payable": false,
      "stateMutability": "view",
      "type": "function"
    }
  ],
  "bytecode": "0x608060405234801561001057600080fd5b506124fb806100206000396000f3fe608060405234801561001057600080fd5b50600436106100e95760003560e01c8063affed0e01161008c578063e0a5c94911610066578063e0a5c9491461026c578063e985e9c51461028a578063f242432a146102ba578063fc67bf1c146102d6576100e9565b8063affed0e014610202578063cd53d08e14610220578063cfa84fc114610250576100e9565b80632eb2c2d6116100c85780632eb2c2d61461017e5780634e1273f41461019a57806367db3b8f146101ca578063a22cb465146101e6576100e9565b8062fdd58e146100ee5780630118fa491461011e57806301ffc9a71461014e575b600080fd5b61010860048036036101039190810190611a86565b6102f4565b60405161011591906122f3565b60405180910390f35b61013860048036036101339190810190611c93565b61034e565b60405161014591906122f3565b60405180910390f35b61016860048036036101639190810190611b37565b6104d4565b60405161017591906121f9565b60405180910390f35b610198600480360361019391908101906118ec565b61053d565b005b6101b460048036036101af9190810190611ac2565b610a82565b6040516101c191906121d7565b60405180910390f35b6101e460048036036101df9190810190611b89565b610b90565b005b61020060048036036101fb9190810190611a4a565b610c3c565b005b61020a610d39565b60405161021791906122f3565b60405180910390f35b61023a60048036036102359190810190611be1565b610d3f565b604051610247919061205f565b60405180910390f35b61026a60048036036102659190810190611c0a565b610d72565b005b6102746110b1565b6040516102819190612214565b60405180910390f35b6102a4600480360361029f91908101906118b0565b6110bc565b6040516102b191906121f9565b60405180910390f35b6102d460048036036102cf91908101906119b8565b611150565b005b6102de6115f6565b6040516102eb9190612214565b60405180910390f35b600080600083815260200190815260200160002060008473ffffffffffffffffffffffffffffffffffffffff1673ffffffffffffffffffffffffffffffffffffffff16815260200190815260200160002054905092915050565b60006003600081546001019190508190559050336002600083815260200190815260200160002060006101000a81548173ffffffffffffffffffffffffffffffffffffffff021916908373ffffffffffffffffffffffffffffffffffffffff1602179055508360008083815260200190815260200160002060003373ffffffffffffffffffffffffffffffffffffffff1673ffffffffffffffffffffffffffffffffffffffff168152602001908152602001600020819055503373ffffffffffffffffffffffffffffffffffffffff16600073ffffffffffffffffffffffffffffffffffffffff163373ffffffffffffffffffffffffffffffffffffffff167fc3d58168c5ae7397731d063d5bbf3d657854427343f4c083240f7aacaa2d0f62848860405161047e92919061230e565b60405180910390a460008383905011156104cd57807f6bb7ff708619ba0610cba295a58592e0451dee2622938c8755667688daf3529b84846040516104c492919061222f565b60405180910390a25b9392505050565b6000630e89341c60e01b7bffffffffffffffffffffffffffffffffffffffffffffffffffffffff1916827bffffffffffffffffffffffffffffffffffffffffffffffffffffffff1916141561052c5760019050610538565b61053582611601565b90505b919050565b600073ffffffffffffffffffffffffffffffffffffffff168773ffffffffffffffffffffffffffffffffffffffff1614156105ad576040517f08c379a00000000000000000000000000000000000000000000000000000000081526004016105a490612253565b60405180910390fd5b8383905086869050146105f5576040517f08c379a00000000000000000000000000000000000000000000000000000000081526004016105ec906122b3565b60405180910390fd5b3373ffffffffffffffffffffffffffffffffffffffff168873ffffffffffffffffffffffffffffffffffffffff1614806106bc575060011515600160008a73ffffffffffffffffffffffffffffffffffffffff1673ffffffffffffffffffffffffffffffffffffffff16815260200190815260200160002060003373ffffffffffffffffffffffffffffffffffffffff1673ffffffffffffffffffffffffffffffffffffffff16815260200190815260200160002060009054906101000a900460ff161515145b6106fb576040517f08c379a00000000000000000000000000000000000000000000000000000000081526004016106f290612293565b60405180910390fd5b60008090505b868690508110156108b157600087878381811061071a57fe5b905060200201359050600086868481811061073157fe5b90506020020135905061079c8160008085815260200190815260200160002060008e73ffffffffffffffffffffffffffffffffffffffff1673ffffffffffffffffffffffffffffffffffffffff168152602001908152602001600020546116b290919063ffffffff16565b60008084815260200190815260200160002060008d73ffffffffffffffffffffffffffffffffffffffff1673ffffffffffffffffffffffffffffffffffffffff1681526020019081526020016000208190555061085160008084815260200190815260200160002060008c73ffffffffffffffffffffffffffffffffffffffff1673ffffffffffffffffffffffffffffffffffffffff16815260200190815260200160002054826116c990919063ffffffff16565b60008084815260200190815260200160002060008c73ffffffffffffffffffffffffffffffffffffffff1673ffffffffffffffffffffffffffffffffffffffff168152602001908152602001600020819055505050806001019050610701565b508673ffffffffffffffffffffffffffffffffffffffff168873ffffffffffffffffffffffffffffffffffffffff163373ffffffffffffffffffffffffffffffffffffffff167f4a39dc06d4c0dbc64b70af90fd698a233a518aa5d07e595d983b8c0526c8f7fb8989898960405161092c949392919061219c565b60405180910390a46109538773ffffffffffffffffffffffffffffffffffffffff166116e3565b15610a785763bc197c8160e01b7bffffffffffffffffffffffffffffffffffffffffffffffffffffffff19168773ffffffffffffffffffffffffffffffffffffffff1663bc197c81338b8a8a8a8a8a8a6040518963ffffffff1660e01b81526004016109c69897969594939291906120d2565b602060405180830381600087803b1580156109e057600080fd5b505af11580156109f4573d6000803e3d6000fd5b505050506040513d601f19601f82011682018060405250610a189190810190611b60565b7bffffffffffffffffffffffffffffffffffffffffffffffffffffffff191614610a77576040517f08c379a0000000000000000000000000000000000000000000000000000000008152600401610a6e90612273565b60405180910390fd5b5b5050505050505050565b6060828290508585905014610a9657600080fd5b606085859050604051908082528060200260200182016040528015610aca5781602001602082028038833980820191505090505b50905060008090505b86869050811015610b8357600080868684818110610aed57fe5b9050602002013581526020019081526020016000206000888884818110610b1057fe5b9050602002016020610b259190810190611887565b73ffffffffffffffffffffffffffffffffffffffff1673ffffffffffffffffffffffffffffffffffffffff16815260200190815260200160002054828281518110610b6c57fe5b602002602001018181525050806001019050610ad3565b5080915050949350505050565b803373ffffffffffffffffffffffffffffffffffffffff166002600083815260200190815260200160002060009054906101000a900473ffffffffffffffffffffffffffffffffffffffff1673ffffffffffffffffffffffffffffffffffffffff1614610bfc57600080fd5b817f6bb7ff708619ba0610cba295a58592e0451dee2622938c8755667688daf3529b8585604051610c2e92919061222f565b60405180910390a250505050565b80600160003373ffffffffffffffffffffffffffffffffffffffff1673ffffffffffffffffffffffffffffffffffffffff16815260200190815260200160002060008473ffffffffffffffffffffffffffffffffffffffff1673ffffffffffffffffffffffffffffffffffffffff16815260200190815260200160002060006101000a81548160ff0219169083151502179055508173ffffffffffffffffffffffffffffffffffffffff163373ffffffffffffffffffffffffffffffffffffffff167f17307eab39ab6107e8899845ad3d59bd9653f200f220920489ca2b5937696c3183604051610d2d91906121f9565b60405180910390a35050565b60035481565b60026020528060005260406000206000915054906101000a900473ffffffffffffffffffffffffffffffffffffffff1681565b843373ffffffffffffffffffffffffffffffffffffffff166002600083815260200190815260200160002060009054906101000a900473ffffffffffffffffffffffffffffffffffffffff1673ffffffffffffffffffffffffffffffffffffffff1614610dde57600080fd5b60008090505b858590508110156110a8576000868683818110610dfd57fe5b9050602002016020610e129190810190611887565b90506000858584818110610e2257fe5b905060200201359050610e8d6000808b815260200190815260200160002060008473ffffffffffffffffffffffffffffffffffffffff1673ffffffffffffffffffffffffffffffffffffffff16815260200190815260200160002054826116c990919063ffffffff16565b6000808b815260200190815260200160002060008473ffffffffffffffffffffffffffffffffffffffff1673ffffffffffffffffffffffffffffffffffffffff168152602001908152602001600020819055508173ffffffffffffffffffffffffffffffffffffffff16600073ffffffffffffffffffffffffffffffffffffffff163373ffffffffffffffffffffffffffffffffffffffff167fc3d58168c5ae7397731d063d5bbf3d657854427343f4c083240f7aacaa2d0f628c85604051610f5792919061230e565b60405180910390a4610f7e8273ffffffffffffffffffffffffffffffffffffffff166116e3565b1561109b5763f23a6e6160e01b7bffffffffffffffffffffffffffffffffffffffffffffffffffffffff19168273ffffffffffffffffffffffffffffffffffffffff1663f23a6e6133338d866040518563ffffffff1660e01b8152600401610fe9949392919061207a565b602060405180830381600087803b15801561100357600080fd5b505af1158015611017573d6000803e3d6000fd5b505050506040513d601f19601f8201168201806040525061103b9190810190611b60565b7bffffffffffffffffffffffffffffffffffffffffffffffffffffffff19161461109a576040517f08c379a000000000000000000000000000000000000000000000000000000000815260040161109190612273565b60405180910390fd5b5b5050806001019050610de4565b50505050505050565b63f23a6e6160e01b81565b6000600160008473ffffffffffffffffffffffffffffffffffffffff1673ffffffffffffffffffffffffffffffffffffffff16815260200190815260200160002060008373ffffffffffffffffffffffffffffffffffffffff1673ffffffffffffffffffffffffffffffffffffffff16815260200190815260200160002060009054906101000a900460ff16905092915050565b600073ffffffffffffffffffffffffffffffffffffffff168573ffffffffffffffffffffffffffffffffffffffff1614156111c0576040517f08c379a00000000000000000000000000000000000000000000000000000000081526004016111b7906122d3565b60405180910390fd5b3373ffffffffffffffffffffffffffffffffffffffff168673ffffffffffffffffffffffffffffffffffffffff161480611287575060011515600160008873ffffffffffffffffffffffffffffffffffffffff1673ffffffffffffffffffffffffffffffffffffffff16815260200190815260200160002060003373ffffffffffffffffffffffffffffffffffffffff1673ffffffffffffffffffffffffffffffffffffffff16815260200190815260200160002060009054906101000a900460ff161515145b6112c6576040517f08c379a00000000000000000000000000000000000000000000000000000000081526004016112bd90612293565b60405180910390fd5b6113288360008087815260200190815260200160002060008973ffffffffffffffffffffffffffffffffffffffff1673ffffffffffffffffffffffffffffffffffffffff168152602001908152602001600020546116b290919063ffffffff16565b60008086815260200190815260200160002060008873ffffffffffffffffffffffffffffffffffffffff1673ffffffffffffffffffffffffffffffffffffffff168152602001908152602001600020819055506113dd60008086815260200190815260200160002060008773ffffffffffffffffffffffffffffffffffffffff1673ffffffffffffffffffffffffffffffffffffffff16815260200190815260200160002054846116c990919063ffffffff16565b60008086815260200190815260200160002060008773ffffffffffffffffffffffffffffffffffffffff1673ffffffffffffffffffffffffffffffffffffffff168152602001908152602001600020819055508473ffffffffffffffffffffffffffffffffffffffff168673ffffffffffffffffffffffffffffffffffffffff163373ffffffffffffffffffffffffffffffffffffffff167fc3d58168c5ae7397731d063d5bbf3d657854427343f4c083240f7aacaa2d0f6287876040516114a692919061230e565b60405180910390a46114cd8573ffffffffffffffffffffffffffffffffffffffff166116e3565b156115ee5763f23a6e6160e01b7bffffffffffffffffffffffffffffffffffffffffffffffffffffffff19168573ffffffffffffffffffffffffffffffffffffffff1663f23a6e613389888888886040518763ffffffff1660e01b815260040161153c96959493929190612140565b602060405180830381600087803b15801561155657600080fd5b505af115801561156a573d6000803e3d6000fd5b505050506040513d601f19601f8201168201806040525061158e9190810190611b60565b7bffffffffffffffffffffffffffffffffffffffffffffffffffffffff1916146115ed576040517f08c379a00000000000000000000000000000000000000000000000000000000081526004016115e490612273565b60405180910390fd5b5b505050505050565b63bc197c8160e01b81565b60006301ffc9a760e01b7bffffffffffffffffffffffffffffffffffffffffffffffffffffffff1916827bffffffffffffffffffffffffffffffffffffffffffffffffffffffff1916148061169a575063d9b67a2660e01b7bffffffffffffffffffffffffffffffffffffffffffffffffffffffff1916827bffffffffffffffffffffffffffffffffffffffffffffffffffffffff1916145b156116a857600190506116ad565b600090505b919050565b6000828211156116be57fe5b818303905092915050565b60008183019050828110156116da57fe5b80905092915050565b600080823b905060008111915050919050565b6000813590506117058161245c565b92915050565b60008083601f84011261171d57600080fd5b8235905067ffffffffffffffff81111561173657600080fd5b60208301915083602082028301111561174e57600080fd5b9250929050565b60008083601f84011261176757600080fd5b8235905067ffffffffffffffff81111561178057600080fd5b60208301915083602082028301111561179857600080fd5b9250929050565b6000813590506117ae81612473565b92915050565b6000813590506117c38161248a565b92915050565b6000815190506117d88161248a565b92915050565b60008083601f8401126117f057600080fd5b8235905067ffffffffffffffff81111561180957600080fd5b60208301915083600182028301111561182157600080fd5b9250929050565b60008083601f84011261183a57600080fd5b8235905067ffffffffffffffff81111561185357600080fd5b60208301915083600182028301111561186b57600080fd5b9250929050565b600081359050611881816124a1565b92915050565b60006020828403121561189957600080fd5b60006118a7848285016116f6565b91505092915050565b600080604083850312156118c357600080fd5b60006118d1858286016116f6565b92505060206118e2858286016116f6565b9150509250929050565b60008060008060008060008060a0898b03121561190857600080fd5b60006119168b828c016116f6565b98505060206119278b828c016116f6565b975050604089013567ffffffffffffffff81111561194457600080fd5b6119508b828c01611755565b9650965050606089013567ffffffffffffffff81111561196f57600080fd5b61197b8b828c01611755565b9450945050608089013567ffffffffffffffff81111561199a57600080fd5b6119a68b828c016117de565b92509250509295985092959890939650565b60008060008060008060a087890312156119d157600080fd5b60006119df89828a016116f6565b96505060206119f089828a016116f6565b9550506040611a0189828a01611872565b9450506060611a1289828a01611872565b935050608087013567ffffffffffffffff811115611a2f57600080fd5b611a3b89828a016117de565b92509250509295509295509295565b60008060408385031215611a5d57600080fd5b6000611a6b858286016116f6565b9250506020611a7c8582860161179f565b9150509250929050565b60008060408385031215611a9957600080fd5b6000611aa7858286016116f6565b9250506020611ab885828601611872565b9150509250929050565b60008060008060408587031215611ad857600080fd5b600085013567ffffffffffffffff811115611af257600080fd5b611afe8782880161170b565b9450945050602085013567ffffffffffffffff811115611b1d57600080fd5b611b2987828801611755565b925092505092959194509250565b600060208284031215611b4957600080fd5b6000611b57848285016117b4565b91505092915050565b600060208284031215611b7257600080fd5b6000611b80848285016117c9565b91505092915050565b600080600060408486031215611b9e57600080fd5b600084013567ffffffffffffffff811115611bb857600080fd5b611bc486828701611828565b93509350506020611bd786828701611872565b9150509250925092565b600060208284031215611bf357600080fd5b6000611c0184828501611872565b91505092915050565b600080600080600060608688031215611c2257600080fd5b6000611c3088828901611872565b955050602086013567ffffffffffffffff811115611c4d57600080fd5b611c598882890161170b565b9450945050604086013567ffffffffffffffff811115611c7857600080fd5b611c8488828901611755565b92509250509295509295909350565b600080600060408486031215611ca857600080fd5b6000611cb686828701611872565b935050602084013567ffffffffffffffff811115611cd357600080fd5b611cdf86828701611828565b92509250509250925092565b6000611cf78383612041565b60208301905092915050565b611d0c81612406565b82525050565b611d1b81612392565b82525050565b6000611d2d838561235f565b93507f07ffffffffffffffffffffffffffffffffffffffffffffffffffffffffffffff831115611d5c57600080fd5b602083029250611d6d83858461243c565b82840190509392505050565b6000611d8482612347565b611d8e818561235f565b9350611d9983612337565b8060005b83811015611dca578151611db18882611ceb565b9750611dbc83612352565b925050600181019050611d9d565b5085935050505092915050565b611de0816123a4565b82525050565b611def816123b0565b82525050565b6000611e018385612370565b9350611e0e83858461243c565b611e178361244b565b840190509392505050565b6000611e2e8385612381565b9350611e3b83858461243c565b611e448361244b565b840190509392505050565b6000611e5c602583612381565b91507f64657374696e6174696f6e2061646472657373206d757374206265206e6f6e2d60008301527f7a65726f2e0000000000000000000000000000000000000000000000000000006020830152604082019050919050565b6000611ec2602e83612381565b91507f526563656976657220636f6e747261637420646964206e6f742061636365707460008301527f20746865207472616e736665722e0000000000000000000000000000000000006020830152604082019050919050565b6000611f28602f83612381565b91507f4e656564206f70657261746f7220617070726f76616c20666f7220337264207060008301527f61727479207472616e73666572732e00000000000000000000000000000000006020830152604082019050919050565b6000611f8e600083612370565b9150600082019050919050565b6000611fa8602983612381565b91507f5f69647320616e64205f76616c756573206172726179206c656e676874206d7560008301527f7374206d617463682e00000000000000000000000000000000000000000000006020830152604082019050919050565b600061200e601583612381565b91507f5f746f206d757374206265206e6f6e2d7a65726f2e00000000000000000000006000830152602082019050919050565b61204a816123fc565b82525050565b612059816123fc565b82525050565b60006020820190506120746000830184611d12565b92915050565b600060a08201905061208f6000830187611d03565b61209c6020830186611d03565b6120a96040830185612050565b6120b66060830184612050565b81810360808301526120c781611f81565b905095945050505050565b600060a0820190506120e7600083018b611d03565b6120f4602083018a611d12565b818103604083015261210781888a611d21565b9050818103606083015261211c818688611d21565b90508181036080830152612131818486611df5565b90509998505050505050505050565b600060a0820190506121556000830189611d03565b6121626020830188611d12565b61216f6040830187612050565b61217c6060830186612050565b818103608083015261218f818486611df5565b9050979650505050505050565b600060408201905081810360008301526121b7818688611d21565b905081810360208301526121cc818486611d21565b905095945050505050565b600060208201905081810360008301526121f18184611d79565b905092915050565b600060208201905061220e6000830184611dd7565b92915050565b60006020820190506122296000830184611de6565b92915050565b6000602082019050818103600083015261224a818486611e22565b90509392505050565b6000602082019050818103600083015261226c81611e4f565b9050919050565b6000602082019050818103600083015261228c81611eb5565b9050919050565b600060208201905081810360008301526122ac81611f1b565b9050919050565b600060208201905081810360008301526122cc81611f9b565b9050919050565b600060208201905081810360008301526122ec81612001565b9050919050565b60006020820190506123086000830184612050565b92915050565b60006040820190506123236000830185612050565b6123306020830184612050565b9392505050565b6000819050602082019050919050565b600081519050919050565b6000602082019050919050565b600082825260208201905092915050565b600082825260208201905092915050565b600082825260208201905092915050565b600061239d826123dc565b9050919050565b60008115159050919050565b60007fffffffff0000000000000000000000000000000000000000000000000000000082169050919050565b600073ffffffffffffffffffffffffffffffffffffffff82169050919050565b6000819050919050565b600061241182612418565b9050919050565b60006124238261242a565b9050919050565b6000612435826123dc565b9050919050565b82818337600083830152505050565b6000601f19601f8301169050919050565b61246581612392565b811461247057600080fd5b50565b61247c816123a4565b811461248757600080fd5b50565b612493816123b0565b811461249e57600080fd5b50565b6124aa816123fc565b81146124b557600080fd5b5056fea365627a7a72315820cf5b6783618d702cf5a71043892fbc68ec9d109e59a3f8993ce5ee3416a73bcc6c6578706572696d656e74616cf564736f6c63430005100040",
  "source": "pragma solidity >=0.4.21 <0.7.0;\r\npragma experimental ABIEncoderV2;\r\n\r\nimport \"src/contracts/token/ERC1155.sol\";\r\nimport \"src/contracts/token/ERC1155Mintable.sol\";\r\nimport \"src/contracts/token/IERC1155.sol\";\r\n\r\ncontract PPAToken is ERC1155, ERC1155Mintable {\r\n  constructor() public {\r\n  }\r\n}\r\n\r\ncontract PPA {\r\n\r\n    IERC1155 private _token;\r\n\r\n    mapping (uint => uint) price;\r\n\r\n    enum Status {Pending, Approved, Rejected}\r\n    event Claim(address _buyer, uint256 _amount);\r\n\r\n    struct ppa {\r\n        address buyerID;\r\n        address payable producerID;\r\n        uint energy;\r\n        uint price;\r\n        uint startDay;\r\n        uint endDay;\r\n        uint collectID;\r\n        Status status;\r\n    }\r\n\r\n    /////////////////////////////////////Implematation of ERC1155 Token Tomorrow/////////////////////////////////////\r\n    mapping(uint => ppa) ppas;\r\n    ppa[] listOfPPAs;\r\n    uint nextCollectID = 0;\r\n\r\n    function createPPA(address _buyerID, uint _energy, uint _price, uint _startDay, uint _endDay, IERC1155 token) public payable {\r\n        \r\n        require(address(token) != address(0));\r\n        _token = token;\r\n        price[nextCollectID] = 1;\r\n        address payable _producerID = msg.sender;\r\n\r\n        listOfPPAs.push(ppa({\r\n            buyerID: _buyerID,\r\n            producerID: _producerID,\r\n            energy: _energy,\r\n            price: _price,\r\n            startDay: _startDay,\r\n            endDay: _endDay,\r\n            collectID: nextCollectID,\r\n            status: Status.Pending\r\n        }));\r\n        nextCollectID++;\r\n    }\r\n\r\n    function changePPATerms(address _buyerID, uint _energy, uint _price, uint _startDay, uint _endDay) public {\r\n        for(uint i = 0; i<listOfPPAs.length; i++){\r\n            if(listOfPPAs[i].buyerID == _buyerID){\r\n                require(listOfPPAs[i].status != Status.Approved, \"You can not change an approved PPA\");\r\n                listOfPPAs[i].energy = _energy;\r\n                listOfPPAs[i].price = _price;\r\n                listOfPPAs[i].startDay = _startDay;\r\n                listOfPPAs[i].endDay = _endDay;\r\n                listOfPPAs[i].status = Status.Pending;\r\n            }\r\n        }\r\n    }\r\n\r\n    function claimPPA() external payable {\r\n        address buyerId = msg.sender;\r\n        //uint tokenId = 1;\r\n\r\n        for(uint i = 0; i<listOfPPAs.length; i++){\r\n            require(listOfPPAs[i].producerID != buyerId, \"Wrong2\");\r\n            if((listOfPPAs[i].buyerID == buyerId)){\r\n                require(listOfPPAs[i].status != Status.Rejected, \"You can not accept a rejected PPA\");\r\n                listOfPPAs[i].status = Status.Approved;\r\n                claimToken(listOfPPAs[i].collectID);\r\n            }\r\n        }\r\n    }\r\n\r\n    function denyPPA() public {\r\n        address buyerId = msg.sender;\r\n        for(uint i = 0; i<listOfPPAs.length; i++){\r\n            require(listOfPPAs[i].producerID != msg.sender, \"Wrong3\");\r\n            if((listOfPPAs[i].buyerID == buyerId)){\r\n                listOfPPAs[i].status = Status.Rejected;\r\n            }\r\n        }\r\n    }\r\n\r\n    function claimToken(uint tokenID) public payable{\r\n        uint256 weiAmount = msg.value;\r\n        require(weiAmount >= price[tokenID] && price[tokenID] != 0, \"error\");\r\n\r\n        _token.safeTransferFrom(address(this), msg.sender, tokenID, 1, \"PPA\");\r\n    }\r\n\r\n    function onERC1155Received(address _operator, address _from, uint256 _id, uint256 _value, bytes calldata _data) external returns(bytes4){\r\n        return bytes4(keccak256(\"onERC1155Received(address,address,uint256,uint256,bytes)\"));\r\n    }\r\n\r\n    function buyEnergy() public{\r\n\r\n    }\r\n\r\n    function viewAllPPAs () public view returns (ppa[] memory){\r\n        return listOfPPAs;\r\n    }\r\n}",
  "sourcePath": "C:/Users/Lenovo/projects/ethereum/protergia/blockchain-energy-trading-and-green-energy-certification-thesis-w-protergia/src/contracts/PPA.sol",
  "compiler": {
    "name": "solc",
    "version": "0.5.16+commit.9c3226ce.Emscripten.clang"
  },
  "schemaVersion": "3.3.4",
  "updatedAt": "2021-06-20T15:12:04.874Z",
  "devdoc": {
    "methods": {
      "balanceOf(address,uint256)": {
        "params": {
          "_id": "ID of the Token",
          "_owner": "The address of the token holder"
        },
        "return": "The _owner's balance of the Token type requested"
      },
      "balanceOfBatch(address[],uint256[])": {
        "params": {
          "_ids": "ID of the Tokens",
          "_owners": "The addresses of the token holders"
        },
        "return": "The _owner's balance of the Token types requested"
      },
      "isApprovedForAll(address,address)": {
        "params": {
          "_operator": "Address of authorized operator",
          "_owner": "The owner of the Tokens"
        },
        "return": "True if the operator is approved, false if not"
      },
      "safeBatchTransferFrom(address,address,uint256[],uint256[],bytes)": {
        "details": "MUST emit TransferBatch event on success. Caller must be approved to manage the _from account's tokens (see isApprovedForAll). MUST Throw if `_to` is the zero address. MUST Throw if any of the `_ids` is not a valid token ID. MUST Throw on any other error. When transfer is complete, this function MUST check if `_to` is a smart contract (code size > 0). If so, it MUST call `onERC1155BatchReceived` on `_to` and revert if the return value is not `bytes4(keccak256(\"onERC1155BatchReceived(address,address,uint256[],uint256[],bytes)\"))`.",
        "params": {
          "_data": "Additional data with no specified format, sent in call to `_to`",
          "_from": "Source address",
          "_ids": "IDs of each token type",
          "_to": "Target address",
          "_values": "Transfer amounts per token type"
        }
      },
      "safeTransferFrom(address,address,uint256,uint256,bytes)": {
        "details": "MUST emit TransferSingle event on success. Caller must be approved to manage the _from account's tokens (see isApprovedForAll). MUST Throw if `_to` is the zero address. MUST Throw if `_id` is not a valid token ID. MUST Throw on any other error. When transfer is complete, this function MUST check if `_to` is a smart contract (code size > 0). If so, it MUST call `onERC1155Received` on `_to` and revert if the return value is not `bytes4(keccak256(\"onERC1155Received(address,address,uint256,uint256,bytes)\"))`.",
        "params": {
          "_data": "Additional data with no specified format, sent in call to `_to`",
          "_from": "Source addresses",
          "_id": "ID of the token type",
          "_to": "Target addresses",
          "_value": "Transfer amount"
        }
      },
      "setApprovalForAll(address,bool)": {
        "details": "MUST emit the ApprovalForAll event on success.",
        "params": {
          "_approved": "True if the operator is approved, false to revoke approval",
          "_operator": "Address to add to the set of authorized operators"
        }
      }
    }
  },
  "userdoc": {
    "methods": {
      "balanceOf(address,uint256)": {
        "notice": "Get the balance of an account's Tokens."
      },
      "balanceOfBatch(address[],uint256[])": {
        "notice": "Get the balance of multiple account/token pairs"
      },
      "isApprovedForAll(address,address)": {
        "notice": "Queries the approval status of an operator for a given owner."
      },
      "safeBatchTransferFrom(address,address,uint256[],uint256[],bytes)": {
        "notice": "Send multiple types of Tokens from a 3rd party in one transfer (with safety call)."
      },
      "safeTransferFrom(address,address,uint256,uint256,bytes)": {
        "notice": "Transfers value amount of an _id from the _from address to the _to addresses specified. Each parameter array should be the same length, with each index correlating."
      },
      "setApprovalForAll(address,bool)": {
        "notice": "Enable or disable approval for a third party (\"operator\") to manage all of the caller's tokens."
      }
    }
  }
}