{
  "contractName": "PPAToken",
  "abi": [
    {
      "anonymous": false,
      "inputs": [
        {
          "indexed": true,
          "internalType": "address",
          "name": "_owner",
          "type": "address"
        },
        {
          "indexed": true,
          "internalType": "address",
          "name": "_spender",
          "type": "address"
        },
        {
          "indexed": false,
          "internalType": "uint256",
          "name": "_value",
          "type": "uint256"
        }
      ],
      "name": "Approval",
      "type": "event"
    },
    {
      "anonymous": false,
      "inputs": [
        {
          "indexed": true,
          "internalType": "address",
          "name": "_from",
          "type": "address"
        },
        {
          "indexed": true,
          "internalType": "address",
          "name": "_to",
          "type": "address"
        },
        {
          "indexed": false,
          "internalType": "uint256",
          "name": "_value",
          "type": "uint256"
        }
      ],
      "name": "Transfer",
      "type": "event"
    },
    {
      "constant": true,
      "inputs": [
        {
          "internalType": "address",
          "name": "",
          "type": "address"
        },
        {
          "internalType": "address",
          "name": "",
          "type": "address"
        }
      ],
      "name": "allowance",
      "outputs": [
        {
          "internalType": "uint256",
          "name": "",
          "type": "uint256"
        }
      ],
      "payable": false,
      "stateMutability": "view",
      "type": "function"
    },
    {
      "constant": true,
      "inputs": [
        {
          "internalType": "address",
          "name": "",
          "type": "address"
        }
      ],
      "name": "balanceOf",
      "outputs": [
        {
          "internalType": "uint256",
          "name": "",
          "type": "uint256"
        }
      ],
      "payable": false,
      "stateMutability": "view",
      "type": "function"
    },
    {
      "constant": true,
      "inputs": [],
      "name": "name",
      "outputs": [
        {
          "internalType": "string",
          "name": "",
          "type": "string"
        }
      ],
      "payable": false,
      "stateMutability": "view",
      "type": "function"
    },
    {
      "constant": true,
      "inputs": [],
      "name": "standard",
      "outputs": [
        {
          "internalType": "string",
          "name": "",
          "type": "string"
        }
      ],
      "payable": false,
      "stateMutability": "view",
      "type": "function"
    },
    {
      "constant": true,
      "inputs": [],
      "name": "symbol",
      "outputs": [
        {
          "internalType": "string",
          "name": "",
          "type": "string"
        }
      ],
      "payable": false,
      "stateMutability": "view",
      "type": "function"
    },
    {
      "constant": true,
      "inputs": [],
      "name": "tokenPrice",
      "outputs": [
        {
          "internalType": "uint256",
          "name": "",
          "type": "uint256"
        }
      ],
      "payable": false,
      "stateMutability": "view",
      "type": "function"
    },
    {
      "constant": true,
      "inputs": [],
      "name": "tokensSold",
      "outputs": [
        {
          "internalType": "uint256",
          "name": "",
          "type": "uint256"
        }
      ],
      "payable": false,
      "stateMutability": "view",
      "type": "function"
    },
    {
      "constant": true,
      "inputs": [],
      "name": "totalSupply",
      "outputs": [
        {
          "internalType": "uint256",
          "name": "",
          "type": "uint256"
        }
      ],
      "payable": false,
      "stateMutability": "view",
      "type": "function"
    },
    {
      "constant": false,
      "inputs": [
        {
          "internalType": "address",
          "name": "_to",
          "type": "address"
        },
        {
          "internalType": "uint256",
          "name": "_value",
          "type": "uint256"
        }
      ],
      "name": "transfer",
      "outputs": [
        {
          "internalType": "bool",
          "name": "success",
          "type": "bool"
        }
      ],
      "payable": false,
      "stateMutability": "nonpayable",
      "type": "function"
    },
    {
      "constant": false,
      "inputs": [
        {
          "internalType": "address",
          "name": "_spender",
          "type": "address"
        },
        {
          "internalType": "uint256",
          "name": "_value",
          "type": "uint256"
        }
      ],
      "name": "approve",
      "outputs": [
        {
          "internalType": "bool",
          "name": "success",
          "type": "bool"
        }
      ],
      "payable": false,
      "stateMutability": "nonpayable",
      "type": "function"
    },
    {
      "constant": false,
      "inputs": [
        {
          "internalType": "address",
          "name": "_from",
          "type": "address"
        },
        {
          "internalType": "address",
          "name": "_to",
          "type": "address"
        },
        {
          "internalType": "uint256",
          "name": "_value",
          "type": "uint256"
        }
      ],
      "name": "transferFrom",
      "outputs": [
        {
          "internalType": "bool",
          "name": "success",
          "type": "bool"
        }
      ],
      "payable": false,
      "stateMutability": "nonpayable",
      "type": "function"
    }
  ],
  "bytecode": "0x60806040526040518060400160405280600981526020017f50504120546f6b656e0000000000000000000000000000000000000000000000815250600090805190602001906200005192919062000107565b506040518060400160405280600381526020017f5050410000000000000000000000000000000000000000000000000000000000815250600190805190602001906200009f92919062000107565b506040518060400160405280600881526020017f5050412076312e3000000000000000000000000000000000000000000000000081525060029080519060200190620000ed92919062000107565b5060016004553480156200010057600080fd5b50620001b6565b828054600181600116156101000203166002900490600052602060002090601f016020900481019282601f106200014a57805160ff19168380011785556200017b565b828001600101855582156200017b579182015b828111156200017a5782518255916020019190600101906200015d565b5b5090506200018a91906200018e565b5090565b620001b391905b80821115620001af57600081600090555060010162000195565b5090565b90565b610df980620001c66000396000f3fe608060405234801561001057600080fd5b50600436106100a95760003560e01c80635a3b7e42116100715780635a3b7e421461016857806370a08231146101865780637ff9b596146101b657806395d89b41146101d4578063a9059cbb146101f2578063dd62ed3e14610222576100a9565b806306fdde03146100ae578063095ea7b3146100cc57806318160ddd146100fc57806323b872dd1461011a578063518ab2a81461014a575b600080fd5b6100b6610252565b6040516100c39190610c43565b60405180910390f35b6100e660048036036100e19190810190610aaf565b6102f0565b6040516100f39190610c28565b60405180910390f35b6101046103e2565b6040516101119190610cc5565b60405180910390f35b610134600480360361012f9190810190610a60565b6103e8565b6040516101419190610c28565b60405180910390f35b6101526106bf565b60405161015f9190610cc5565b60405180910390f35b6101706106c5565b60405161017d9190610c43565b60405180910390f35b6101a0600480360361019b91908101906109fb565b610763565b6040516101ad9190610cc5565b60405180910390f35b6101be61077b565b6040516101cb9190610cc5565b60405180910390f35b6101dc610781565b6040516101e99190610c43565b60405180910390f35b61020c60048036036102079190810190610aaf565b61081f565b6040516102199190610c28565b60405180910390f35b61023c60048036036102379190810190610a24565b6109ac565b6040516102499190610cc5565b60405180910390f35b60008054600181600116156101000203166002900480601f0160208091040260200160405190810160405280929190818152602001828054600181600116156101000203166002900480156102e85780601f106102bd576101008083540402835291602001916102e8565b820191906000526020600020905b8154815290600101906020018083116102cb57829003601f168201915b505050505081565b600081600760003373ffffffffffffffffffffffffffffffffffffffff1673ffffffffffffffffffffffffffffffffffffffff16815260200190815260200160002060008573ffffffffffffffffffffffffffffffffffffffff1673ffffffffffffffffffffffffffffffffffffffff168152602001908152602001600020819055508273ffffffffffffffffffffffffffffffffffffffff163373ffffffffffffffffffffffffffffffffffffffff167f8c5be1e5ebec7d5bd14f71427d1e84f3dd0314c0f7b2291e5b200ac8c7c3b925846040516103d09190610cc5565b60405180910390a36001905092915050565b60035481565b600081600660008673ffffffffffffffffffffffffffffffffffffffff1673ffffffffffffffffffffffffffffffffffffffff16815260200190815260200160002054101561046c576040517f08c379a000000000000000000000000000000000000000000000000000000000815260040161046390610c85565b60405180910390fd5b81600760008673ffffffffffffffffffffffffffffffffffffffff1673ffffffffffffffffffffffffffffffffffffffff16815260200190815260200160002060003373ffffffffffffffffffffffffffffffffffffffff1673ffffffffffffffffffffffffffffffffffffffff16815260200190815260200160002054101561052b576040517f08c379a000000000000000000000000000000000000000000000000000000000815260040161052290610ca5565b60405180910390fd5b81600660008673ffffffffffffffffffffffffffffffffffffffff1673ffffffffffffffffffffffffffffffffffffffff1681526020019081526020016000206000828254039250508190555081600660008573ffffffffffffffffffffffffffffffffffffffff1673ffffffffffffffffffffffffffffffffffffffff1681526020019081526020016000206000828254019250508190555081600760008673ffffffffffffffffffffffffffffffffffffffff1673ffffffffffffffffffffffffffffffffffffffff16815260200190815260200160002060003373ffffffffffffffffffffffffffffffffffffffff1673ffffffffffffffffffffffffffffffffffffffff168152602001908152602001600020600082825403925050819055508273ffffffffffffffffffffffffffffffffffffffff168473ffffffffffffffffffffffffffffffffffffffff167fddf252ad1be2c89b69c2b068fc378daa952ba7f163c4a11628f55a4df523b3ef846040516106ac9190610cc5565b60405180910390a3600190509392505050565b60055481565b60028054600181600116156101000203166002900480601f01602080910402602001604051908101604052809291908181526020018280546001816001161561010002031660029004801561075b5780601f106107305761010080835404028352916020019161075b565b820191906000526020600020905b81548152906001019060200180831161073e57829003601f168201915b505050505081565b60066020528060005260406000206000915090505481565b60045481565b60018054600181600116156101000203166002900480601f0160208091040260200160405190810160405280929190818152602001828054600181600116156101000203166002900480156108175780601f106107ec57610100808354040283529160200191610817565b820191906000526020600020905b8154815290600101906020018083116107fa57829003601f168201915b505050505081565b600081600660003373ffffffffffffffffffffffffffffffffffffffff1673ffffffffffffffffffffffffffffffffffffffff1681526020019081526020016000205410156108a3576040517f08c379a000000000000000000000000000000000000000000000000000000000815260040161089a90610c65565b60405180910390fd5b81600660003373ffffffffffffffffffffffffffffffffffffffff1673ffffffffffffffffffffffffffffffffffffffff1681526020019081526020016000206000828254039250508190555081600660008573ffffffffffffffffffffffffffffffffffffffff1673ffffffffffffffffffffffffffffffffffffffff168152602001908152602001600020600082825401925050819055508273ffffffffffffffffffffffffffffffffffffffff163373ffffffffffffffffffffffffffffffffffffffff167fddf252ad1be2c89b69c2b068fc378daa952ba7f163c4a11628f55a4df523b3ef8460405161099a9190610cc5565b60405180910390a36001905092915050565b6007602052816000526040600020602052806000526040600020600091509150505481565b6000813590506109e081610d88565b92915050565b6000813590506109f581610d9f565b92915050565b600060208284031215610a0d57600080fd5b6000610a1b848285016109d1565b91505092915050565b60008060408385031215610a3757600080fd5b6000610a45858286016109d1565b9250506020610a56858286016109d1565b9150509250929050565b600080600060608486031215610a7557600080fd5b6000610a83868287016109d1565b9350506020610a94868287016109d1565b9250506040610aa5868287016109e6565b9150509250925092565b60008060408385031215610ac257600080fd5b6000610ad0858286016109d1565b9250506020610ae1858286016109e6565b9150509250929050565b610af481610d0e565b82525050565b6000610b0582610ce0565b610b0f8185610ceb565b9350610b1f818560208601610d44565b610b2881610d77565b840191505092915050565b6000610b40601283610ceb565b91507f4e6f7420656e6f7567682062616c616e636500000000000000000000000000006000830152602082019050919050565b6000610b80602183610ceb565b91507f5f66726f6d20646f6573206e6f74206861766520656e6f75676820746f6b656e60008301527f73000000000000000000000000000000000000000000000000000000000000006020830152604082019050919050565b6000610be6601683610ceb565b91507f5370656e646572206c696d6974206578636565646564000000000000000000006000830152602082019050919050565b610c2281610d3a565b82525050565b6000602082019050610c3d6000830184610aeb565b92915050565b60006020820190508181036000830152610c5d8184610afa565b905092915050565b60006020820190508181036000830152610c7e81610b33565b9050919050565b60006020820190508181036000830152610c9e81610b73565b9050919050565b60006020820190508181036000830152610cbe81610bd9565b9050919050565b6000602082019050610cda6000830184610c19565b92915050565b600081519050919050565b600082825260208201905092915050565b6000610d0782610d1a565b9050919050565b60008115159050919050565b600073ffffffffffffffffffffffffffffffffffffffff82169050919050565b6000819050919050565b60005b83811015610d62578082015181840152602081019050610d47565b83811115610d71576000848401525b50505050565b6000601f19601f8301169050919050565b610d9181610cfc565b8114610d9c57600080fd5b50565b610da881610d3a565b8114610db357600080fd5b5056fea365627a7a72315820e85763b8f8f7f13ea06fbefedf104110e2b9d15b9f5197d0fc8674d67c5a8b456c6578706572696d656e74616cf564736f6c63430005100040",
  "source": "pragma solidity >=0.4.21 <0.7.0;\r\npragma experimental ABIEncoderV2;\r\n\r\ncontract PPAToken {\r\n\r\n    string public name = \"PPA Token\"; \r\n    string public symbol = \"PPA\";\r\n    string public standard = \"PPA v1.0\";\r\n    uint256 public totalSupply;\r\n    uint256 public tokenPrice = 1;\r\n    uint256 public tokensSold;\r\n\r\n    event Transfer(address indexed _from, address indexed _to, uint256 _value);\r\n    event Approval(address indexed _owner, address indexed _spender, uint256 _value);\r\n\r\n    mapping(address => uint256) public balanceOf;\r\n    mapping(address => mapping(address => uint256)) public allowance;\r\n\r\n    function transfer(address _to, uint256 _value) public returns (bool success) {\r\n        require(balanceOf[msg.sender] >= _value, \"Not enough balance\");\r\n        balanceOf[msg.sender] -= _value;\r\n        balanceOf[_to] += _value;\r\n        emit Transfer(msg.sender, _to, _value);\r\n        return true;\r\n    }\r\n\r\n    function approve(address _spender, uint256 _value) public returns (bool success) {\r\n        allowance[msg.sender][_spender] = _value;\r\n        emit Approval(msg.sender, _spender, _value);\r\n        return true;\r\n    }\r\n\r\n    function transferFrom(address _from, address _to, uint256 _value) public returns (bool success) {\r\n        require(\r\n            balanceOf[_from] >= _value,\r\n            \"_from does not have enough tokens\"\r\n        );\r\n        require(\r\n            allowance[_from][msg.sender] >= _value,\r\n            \"Spender limit exceeded\"\r\n        );\r\n        balanceOf[_from] -= _value;\r\n        balanceOf[_to] += _value;\r\n        allowance[_from][msg.sender] -= _value;\r\n        emit Transfer(_from, _to, _value);\r\n        return true;\r\n    }\r\n}\r\n\r\ncontract PPA is PPAToken{\r\n\r\n    PPAToken public tokenContract;\r\n\r\n    enum Status {Pending, Approved, Rejected}\r\n\r\n    event Claim(address _buyer, uint256 _amount);\r\n\r\n    struct ppa {\r\n        address buyerID;\r\n        address payable producerID;\r\n        uint energy;\r\n        uint price;\r\n        uint startDay;\r\n        uint endDay;\r\n        Status status;\r\n    }\r\n\r\n    mapping(uint => ppa) ppas;\r\n    ppa[] listOfPPAs;\r\n\r\n    function createPPA(address _buyerID, uint _energy, uint _price, uint _startDay, uint _endDay, PPAToken _tokenContract) public payable {\r\n        address payable _producerID = msg.sender;\r\n        //PPAToken _tokenContract = _producerID;\r\n        tokenContract = _tokenContract;\r\n        uint256 _tokenSupply = 1;\r\n        require(_buyerID != msg.sender, \"Wrong\");\r\n        balanceOf[msg.sender] = _tokenSupply;\r\n        totalSupply = _tokenSupply;\r\n\r\n        listOfPPAs.push(ppa({\r\n            buyerID: _buyerID,\r\n            producerID: _producerID,\r\n            energy: _energy,\r\n            price: _price,\r\n            startDay: _startDay,\r\n            endDay: _endDay,\r\n            status: Status.Pending\r\n        }));\r\n    }\r\n\r\n    function changePPATerms(address _buyerID, uint _energy, uint _price, uint _startDay, uint _endDay) public {\r\n        for(uint i = 0; i<listOfPPAs.length; i++){\r\n            if(listOfPPAs[i].buyerID == _buyerID){\r\n                require(listOfPPAs[i].status != Status.Approved, \"You can not change an approved PPA\");\r\n                listOfPPAs[i].energy = _energy;\r\n                listOfPPAs[i].price = _price;\r\n                listOfPPAs[i].startDay = _startDay;\r\n                listOfPPAs[i].endDay = _endDay;\r\n                listOfPPAs[i].status = Status.Pending;\r\n            }\r\n        }\r\n    }\r\n\r\n    function claimPPA() public payable {\r\n\r\n        //uint256 numberOfToken\r\n        uint256 _numberOfPPA = 1;\r\n        address buyerId = msg.sender;\r\n\r\n        require(\r\n            msg.value == _numberOfPPA * tokenPrice,\r\n            \"Number of tokens does not match with the value\"\r\n        );\r\n        require(\r\n            tokenContract.balanceOf(address(this)) >= _numberOfPPA,\r\n            \"Contact does not have enough tokens\"\r\n        );\r\n        require(\r\n            tokenContract.transfer(buyerId, _numberOfPPA),\r\n            \"Some problem with token transfer\"\r\n        );\r\n\r\n        for(uint i = 0; i<listOfPPAs.length; i++){\r\n            require(listOfPPAs[i].producerID != buyerId, \"Wrong2\");\r\n            if((listOfPPAs[i].buyerID == buyerId)){\r\n                require(listOfPPAs[i].status != Status.Rejected, \"You can not accept a rejected PPA\");\r\n                listOfPPAs[i].status = Status.Approved;\r\n                emit Claim(buyerId, _numberOfPPA);\r\n            }\r\n        }\r\n    }\r\n\r\n    function denyPPA() public {\r\n        address buyerId = msg.sender;\r\n        for(uint i = 0; i<listOfPPAs.length; i++){\r\n            require(listOfPPAs[i].producerID != msg.sender, \"Wrong3\");\r\n            if((listOfPPAs[i].buyerID == buyerId)){\r\n                listOfPPAs[i].status = Status.Rejected;\r\n            }\r\n        }\r\n    }\r\n\r\n    function buyEnergy() public{\r\n\r\n    }\r\n\r\n    function viewAllPPAs () public view returns (ppa[] memory){\r\n        return listOfPPAs;\r\n    }\r\n}",
  "sourcePath": "C:/Users/Lenovo/projects/ethereum/protergia/blockchain-energy-trading-and-green-energy-certification-thesis-w-Protergia/src/contracts/PPA.sol",
  "compiler": {
    "name": "solc",
    "version": "0.5.16+commit.9c3226ce.Emscripten.clang"
  },
  "schemaVersion": "3.3.4",
  "updatedAt": "2021-06-18T23:17:45.030Z",
  "devdoc": {
    "methods": {}
  },
  "userdoc": {
    "methods": {}
  }
}