{
  "contractName": "producerRegistry",
  "abi": [
    {
      "anonymous": false,
      "inputs": [
        {
          "indexed": true,
          "internalType": "address",
          "name": "producer",
          "type": "address"
        }
      ],
      "name": "producerDeregistered",
      "type": "event"
    },
    {
      "anonymous": false,
      "inputs": [
        {
          "indexed": true,
          "internalType": "address",
          "name": "producer",
          "type": "address"
        }
      ],
      "name": "producerRegistered",
      "type": "event"
    },
    {
      "constant": false,
      "inputs": [],
      "name": "registerProducer",
      "outputs": [],
      "payable": false,
      "stateMutability": "nonpayable",
      "type": "function"
    },
    {
      "constant": false,
      "inputs": [],
      "name": "deregisterProducer",
      "outputs": [],
      "payable": false,
      "stateMutability": "nonpayable",
      "type": "function"
    }
  ],
  "bytecode": "0x608060405234801561001057600080fd5b506101d6806100206000396000f3fe608060405234801561001057600080fd5b50600436106100365760003560e01c8063dbdf0c211461003b578063ea1d381f14610045575b600080fd5b61004361004f565b005b61004d6100f1565b005b60003390508073ffffffffffffffffffffffffffffffffffffffff167f769268709e630d5b24d4c651adeae2d7a75c3dd7c3876275233e21570be22fd460405160405180910390a260016000808373ffffffffffffffffffffffffffffffffffffffff1673ffffffffffffffffffffffffffffffffffffffff16815260200190815260200160002060006101000a81548160ff02191690831515021790555050565b60003390508073ffffffffffffffffffffffffffffffffffffffff167f0bb6d68f109745f7ae353e3b90fff6fb8245c34cca44f18d9dfa00e4d705fa6460405160405180910390a260008060008373ffffffffffffffffffffffffffffffffffffffff1673ffffffffffffffffffffffffffffffffffffffff16815260200190815260200160002060006101000a81548160ff0219169083151502179055505056fea365627a7a723158207323301493553c1f8b84144616df7a09de632acaf21f68491637112cbea7e6636c6578706572696d656e74616cf564736f6c63430005100040",
  "source": "pragma solidity >=0.4.21 <0.9.0;\r\npragma experimental ABIEncoderV2;\r\n\r\n//import \"src/contracts/token/ERC1155.sol\";\r\n//import \"src/contracts/token/ERC1155Mintable.sol\";\r\n//import \"src/contracts/token/IERC1155.sol\";\r\n\r\n//import \"@openzeppelin/contracts/token/ERC1155/ERC1155.sol\";\r\n/*\r\n*Installed open zeppelin version 3.1.0\r\n*https://github.com/OpenZeppelin/openzeppelin-contracts/tree/v3.1.0\r\n*with \"npm i @openzeppelin/contracts@3.1.0\"\r\n*/\r\ncontract producerRegistry {\r\n    event producerRegistered(address indexed producer);\r\n    event producerDeregistered(address indexed producer);\r\n    \r\n    // map address to bool \"is a registered producer\"\r\n    mapping(address => bool) producers;\r\n    \r\n    modifier onlyRegisteredProducers {\r\n        require(producers[msg.sender], \"You must be a current Producer\");\r\n        _;\r\n    }\r\n    \r\n    function registerProducer() public {\r\n        address aproducer = msg.sender;\r\n        emit producerRegistered(aproducer);\r\n        producers[aproducer] = true;\r\n    }\r\n\r\n    function deregisterProducer() public {\r\n        address aproducer = msg.sender;\r\n        emit producerDeregistered(aproducer);\r\n        producers[aproducer] = false;\r\n    }\r\n}\r\n\r\ncontract ppaBuyerRegistry {\r\n  event buyerRegistered(address indexed ppaBuyer);\r\n  event buyerDeregistered(address indexed ppaBuyer);\r\n\r\n  mapping(address => uint32) ppaBuyers;\r\n  address[] listOfPPABuyers;\r\n\r\n  modifier onlyPPABuyers {\r\n    require(ppaBuyers[msg.sender] > 0, \"Only PPA owners\");\r\n    _;\r\n  }\r\n\r\n  function deregisterPPABuyer(address abuyer) private {\r\n      emit buyerDeregistered(abuyer);\r\n      ppaBuyers[abuyer] = 0;\r\n  }\r\n\r\n  function registerPPABuyer(address abuyer) public {\r\n    uint32 abuyerID = 0;\r\n    abuyerID++;\r\n    if (abuyerID != 0) {\r\n      emit buyerRegistered(abuyer);\r\n    } else {\r\n      emit buyerDeregistered(abuyer);\r\n    }\r\n    ppaBuyers[abuyer] = abuyerID;\r\n  }\r\n}\r\n\r\ncontract PPA is producerRegistry, ppaBuyerRegistry {\r\n\r\n    mapping (uint => uint) price;\r\n\r\n    enum Status {Pending, Approved, Rejected, Expired}\r\n    event createdPPA(address indexed producer, uint energy, uint price);\r\n    event purchasedPPA(uint itemID, address indexed buyer, address indexed producer);\r\n    event expiredPPA(address indexed producer, address indexed buyer, uint startDay, uint endDay, Status status);\r\n    //event changedPPA(address indexed producer, address indexed buyer, uint energy, uint endDay);\r\n\r\n    struct ppa {              //Struct with all PPA contracts\r\n        address buyerID;\r\n        address producerID;\r\n        uint energy;\r\n        uint price;           //price per energy(kwh)\r\n        uint startDay;\r\n        uint endDay;          //It must be timestamp (ex. uint endDay = 1518220800; // 2018-02-10 00:00:00)\r\n        uint id;              //id number of each ppa contract\r\n        Status status;\r\n    }\r\n\r\n    mapping(address => uint) ppas;\r\n    ppa[] listOfPPAs;\r\n    uint nextID = 0;\r\n\r\n    struct approvedPPA{       //Struct only for approved PPAs\r\n        address buyerID;\r\n        address producerID;\r\n        uint energy;\r\n        uint price;           //price per energy(kwh)\r\n        uint startDay;\r\n        uint endDay;          //It must be timestamp (ex. uint endDay = 1518220800; // 2018-02-10 00:00:00)\r\n        uint id;              //id number of each ppa contract\r\n        uint totalKwh;        //total amount of purchased kwh\r\n        Status status;\r\n    }\r\n\r\n    mapping(uint => approvedPPA) approvedPPAs;\r\n    approvedPPA[] Appas;\r\n\r\n    struct producerEnergy{    //Trial struct for available producer' s energy in order to sale \r\n        address producerID;\r\n        uint timestamp;\r\n        uint energy;\r\n    }\r\n\r\n    mapping(address => producerEnergy) pEnergy;\r\n    producerEnergy[] listOfkwhs;\r\n\r\n    struct purchasesPPA{\r\n        address buyerID;\r\n        address producerID;\r\n        uint timestamp;\r\n        uint idOfPPA;\r\n        uint purchasedEnergy;\r\n    }\r\n\r\n    purchasesPPA[] listOfprchs;\r\n\r\n    function createPPA(uint _energy, uint _price, uint _endDay) public onlyRegisteredProducers {\r\n        address _producerID = msg.sender;\r\n        require(_endDay > block.timestamp, \"It's impossible endDay < startDay\");\r\n        listOfPPAs.push(ppa({\r\n            buyerID: address(0x0),\r\n            producerID: _producerID,\r\n            energy: _energy,\r\n            price: _price,\r\n            startDay: block.timestamp,\r\n            endDay: _endDay,\r\n            id: nextID,\r\n            status: Status.Pending\r\n        }));\r\n        nextID++;\r\n        emit createdPPA(_producerID, _energy, _price);\r\n    }\r\n\r\n    function claimPPA() public {\r\n        uint _totalKwh = 0;\r\n        address buyerId = msg.sender;\r\n        for(uint i = 0; i<listOfPPAs.length; i++){\r\n            require(listOfPPAs[i].startDay < listOfPPAs[i].endDay, \"end day error\");\r\n            require(listOfPPAs[i].producerID != buyerId, \"Wrong address buyer\");\r\n            require(listOfPPAs[i].status != Status.Rejected, \"You can not accept a rejected PPA\");\r\n            if(listOfPPAs[i].status == Status.Pending){\r\n                Appas.push(approvedPPA({\r\n                    buyerID: buyerId,\r\n                    producerID: listOfPPAs[i].producerID,\r\n                    energy: listOfPPAs[i].energy,\r\n                    price: listOfPPAs[i].price,\r\n                    startDay: block.timestamp,\r\n                    endDay: listOfPPAs[i].endDay,\r\n                    id: listOfPPAs[i].id,\r\n                    totalKwh: _totalKwh,\r\n                    status: Status.Approved\r\n                }));\r\n            ppaBuyerRegistry.registerPPABuyer(buyerId);\r\n            emit purchasedPPA(listOfPPAs[i].id, listOfPPAs[i].buyerID, listOfPPAs[i].producerID);\r\n            if(listOfPPAs.length > 1){\r\n                    listOfPPAs[listOfPPAs.length-1];\r\n                }\r\n                listOfPPAs.length--;\r\n                break;\r\n            }\r\n        }\r\n    }\r\n\r\n    //this is a trial function just for PPA_energy_trading part\r\n    function availableKwhs(uint _energy) public onlyRegisteredProducers{\r\n        address _producer = msg.sender;\r\n        listOfkwhs.push(producerEnergy({\r\n            producerID: _producer,\r\n            timestamp: block.timestamp,\r\n            energy: _energy\r\n        }));\r\n    }\r\n\r\n    function buy_PPA_Kwhs(uint _idOfPPA) public onlyPPABuyers{\r\n        uint currentTime = block.timestamp;\r\n        address aBuyerId = msg.sender;\r\n        for(uint i = 0; i<listOfkwhs.length; i++){\r\n            uint totalEnergyPurchased = 0;\r\n            bool isEnergyPurchased = false;\r\n            if((listOfkwhs[i].producerID == Appas[_idOfPPA].producerID) && (Appas[_idOfPPA].buyerID == aBuyerId)){\r\n                if(Appas[_idOfPPA].endDay < currentTime){\r\n                    killPPA(_idOfPPA);\r\n                }\r\n                totalEnergyPurchased = listOfkwhs[i].energy;\r\n                Appas[_idOfPPA].totalKwh = Appas[_idOfPPA].totalKwh + totalEnergyPurchased;\r\n                listOfkwhs[i].energy = 0;\r\n                isEnergyPurchased = true;\r\n                listOfprchs.push(purchasesPPA({\r\n                    buyerID: aBuyerId,\r\n                    producerID: listOfkwhs[i].producerID,\r\n                    timestamp: currentTime,\r\n                    idOfPPA: _idOfPPA,\r\n                    purchasedEnergy: totalEnergyPurchased\r\n                }));\r\n\r\n                if(listOfkwhs[i].energy == 0){\r\n                    if(listOfkwhs.length > 1){\r\n                        listOfkwhs[i] = listOfkwhs[listOfkwhs.length-1];\r\n                    }\r\n                    listOfkwhs.length--;\r\n                    break;\r\n                }\r\n            }\r\n        }\r\n    }\r\n\r\n    function killPPA(uint _id) public {\r\n        uint currentTime = block.timestamp;\r\n        for(uint i = 0; i<Appas.length; i++){\r\n            if(Appas[i].id == _id){\r\n                if(Appas[i].endDay < currentTime){\r\n                    Appas[i].status = Status.Expired;\r\n                    emit expiredPPA(Appas[i].producerID, Appas[i].buyerID, Appas[i].startDay, Appas[i].endDay, Appas[i].status);\r\n                    if(Appas.length > 1){\r\n                        Appas[i] = Appas[Appas.length-1];\r\n                    }\r\n                    Appas.length--;\r\n                }\r\n            }\r\n        }\r\n    }\r\n\r\n    function viewAllPPAs () public view returns (ppa[] memory){\r\n        return listOfPPAs;\r\n    }\r\n\r\n    function viewAllpurchases() public view returns (purchasesPPA[] memory){\r\n        return listOfprchs;\r\n    }\r\n\r\n    function viewAllApprovedPPAs() public view returns(approvedPPA[] memory){\r\n        return Appas;\r\n    }\r\n\r\n    function getPPAbyID(uint _id) public view returns (address, address, uint, uint, uint, uint, uint, uint){\r\n        ppa storage _ppa = listOfPPAs[_id];\r\n        return (_ppa.producerID, _ppa.buyerID, _ppa.energy, _ppa.price, _ppa.startDay, _ppa.endDay, uint(_ppa.status), _ppa.id);\r\n    }\r\n\r\n    function viewAvailableKwhs() public view returns(producerEnergy[] memory){\r\n        return listOfkwhs;\r\n    }\r\n\r\n    function getAvKwhs() public view returns(uint count){\r\n        return listOfkwhs.length;\r\n    }\r\n}",
  "sourcePath": "C:/Users/Lenovo/projects/ethereum/protergia/blockchain-energy-trading-and-green-energy-certification-thesis-w-protergia/src/contracts/PPA.sol",
  "compiler": {
    "name": "solc",
    "version": "0.5.16+commit.9c3226ce.Emscripten.clang"
  },
  "schemaVersion": "3.3.4",
  "updatedAt": "2021-06-28T03:17:36.260Z",
  "devdoc": {
    "methods": {}
  },
  "userdoc": {
    "methods": {}
  }
}