{
  "contractName": "producerRegistry",
  "abi": [
    {
      "anonymous": false,
      "inputs": [
        {
          "indexed": true,
          "internalType": "address",
          "name": "producer",
          "type": "address"
        }
      ],
      "name": "producerDeregistered",
      "type": "event"
    },
    {
      "anonymous": false,
      "inputs": [
        {
          "indexed": true,
          "internalType": "address",
          "name": "producer",
          "type": "address"
        }
      ],
      "name": "producerRegistered",
      "type": "event"
    },
    {
      "constant": false,
      "inputs": [],
      "name": "registerProducer",
      "outputs": [],
      "payable": false,
      "stateMutability": "nonpayable",
      "type": "function"
    },
    {
      "constant": false,
      "inputs": [],
      "name": "deregisterProducer",
      "outputs": [],
      "payable": false,
      "stateMutability": "nonpayable",
      "type": "function"
    }
  ],
  "bytecode": "0x608060405234801561001057600080fd5b506101d6806100206000396000f3fe608060405234801561001057600080fd5b50600436106100365760003560e01c8063dbdf0c211461003b578063ea1d381f14610045575b600080fd5b61004361004f565b005b61004d6100f1565b005b60003390508073ffffffffffffffffffffffffffffffffffffffff167f769268709e630d5b24d4c651adeae2d7a75c3dd7c3876275233e21570be22fd460405160405180910390a260016000808373ffffffffffffffffffffffffffffffffffffffff1673ffffffffffffffffffffffffffffffffffffffff16815260200190815260200160002060006101000a81548160ff02191690831515021790555050565b60003390508073ffffffffffffffffffffffffffffffffffffffff167f0bb6d68f109745f7ae353e3b90fff6fb8245c34cca44f18d9dfa00e4d705fa6460405160405180910390a260008060008373ffffffffffffffffffffffffffffffffffffffff1673ffffffffffffffffffffffffffffffffffffffff16815260200190815260200160002060006101000a81548160ff0219169083151502179055505056fea365627a7a72315820b910a3c93d7e1c820438e3cd89e524655fb6c4f8e5bb60ba8dedb981624c8a4a6c6578706572696d656e74616cf564736f6c63430005100040",
  "source": "pragma solidity >=0.4.21 <0.9.0;\r\npragma experimental ABIEncoderV2;\r\n\r\n//import \"src/contracts/token/ERC1155.sol\";\r\n//import \"src/contracts/token/ERC1155Mintable.sol\";\r\n//import \"src/contracts/token/IERC1155.sol\";\r\n\r\n//import \"@openzeppelin/contracts/token/ERC1155/ERC1155.sol\";\r\n/*\r\n*Installed open zeppelin version 3.1.0\r\n*https://github.com/OpenZeppelin/openzeppelin-contracts/tree/v3.1.0\r\n*with \"npm i @openzeppelin/contracts@3.1.0\"\r\n*/\r\ncontract producerRegistry {\r\n    event producerRegistered(address indexed producer);\r\n    event producerDeregistered(address indexed producer);\r\n    \r\n    // map address to bool \"is a registered producer\"\r\n    mapping(address => bool) producers;\r\n    \r\n    modifier onlyRegisteredProducers {\r\n        require(producers[msg.sender], \"You must be a current Producer\");\r\n        _;\r\n    }\r\n    \r\n    function registerProducer() public {\r\n        address aproducer = msg.sender;\r\n        emit producerRegistered(aproducer);\r\n        producers[aproducer] = true;\r\n    }\r\n\r\n    function deregisterProducer() public {\r\n        address aproducer = msg.sender;\r\n        emit producerDeregistered(aproducer);\r\n        producers[aproducer] = false;\r\n    }\r\n}\r\n\r\ncontract ppaBuyerRegistry {\r\n    event buyerRegistered(address indexed ppaBuyer);\r\n    event buyerDeregistered(address indexed ppaBuyer);\r\n\r\n    mapping(address => uint32) ppaBuyers;\r\n    address[] listOfPPABuyers;\r\n\r\n    modifier onlyPPABuyers {\r\n      require(ppaBuyers[msg.sender] > 0, \"Only PPA owners\");\r\n      _;\r\n    }\r\n    \r\n    function deregisterPPABuyer(address abuyer) public {\r\n        uint32 abuyerID = 0;\r\n        if(abuyerID != 0) {\r\n            emit buyerDeregistered(abuyer);\r\n        }\r\n        ppaBuyers[abuyer] = abuyerID;\r\n    }\r\n\r\n    function registerPPABuyer(address abuyer) public {\r\n        uint32 abuyerID = 0;\r\n        abuyerID++;\r\n        if(abuyerID != 0) {\r\n            emit buyerRegistered(abuyer);\r\n        }\r\n        ppaBuyers[abuyer] = abuyerID;\r\n    }\r\n}\r\n\r\ncontract PPA is producerRegistry, ppaBuyerRegistry {\r\n\r\n    mapping (uint => uint) price;\r\n\r\n    enum Status {Pending, Approved, Rejected, Expired}\r\n    event createdPPA(address indexed producer, uint price);\r\n    event purchasedPPA(uint itemID, address indexed buyer, address indexed producer);\r\n    event expiredPPA(address indexed producer, address indexed buyer, uint startDay, uint endDay, Status status);\r\n\r\n    struct ppa {              //Struct with all PPA contracts\r\n        address buyerID;\r\n        address producerID;\r\n        uint kwhPrice;           //price per energy(kwh)\r\n        uint startDay;\r\n        uint endDay;          //It must be timestamp (ex. uint endDay = 1518220800; // 2018-02-10 00:00:00)\r\n        uint id;              //id number of each ppa contract\r\n        Status status;\r\n    }\r\n\r\n    mapping(address => ppa) ppas;\r\n    ppa[] listOfPPAs;\r\n    //uint nextID = 0;\r\n\r\n    struct approvedPPA{       //Struct only for approved PPAs\r\n        address buyerID;\r\n        address producerID;\r\n        uint kwhPrice;           //price per energy(kwh)\r\n        uint startDay;\r\n        uint endDay;          //It must be timestamp (ex. uint endDay = 1518220800; // 2018-02-10 00:00:00)\r\n        uint id;              //id number of each ppa contract\r\n        uint totalKwh;        //total amount of purchased kwh\r\n        Status status;\r\n    }\r\n\r\n    mapping(address => mapping(uint => approvedPPA)) approvedPPAs;\r\n    approvedPPA[] Appas;\r\n\r\n    struct producerEnergy{      //Trial struct for available producer' s energy in order to sale \r\n        address producerID;\r\n        uint timestamp;\r\n        uint energy;\r\n        uint idOfmatchContract; //id oc ppa contract that refers to\r\n    }\r\n\r\n    mapping(address => mapping(uint => uint)) pEnergy;\r\n    producerEnergy[] listOfkwhs;\r\n\r\n    struct purchasesPPA{\r\n        address buyerID;\r\n        address producerID;\r\n        uint timestamp;\r\n        uint idOfPPA;\r\n        uint purchasedEnergy;\r\n    }\r\n\r\n    purchasesPPA[] listOfprchs;\r\n\r\n    function createPPA(uint _kwhPrice,uint _startDay, uint _endDay) public onlyRegisteredProducers { //onlyRegisteredProducers\r\n        address _producerID = msg.sender;\r\n        uint currentTime = block.timestamp;\r\n        uint idOfContract = _endDay-currentTime;\r\n        require(_endDay > _startDay, \"It's impossible endDay < startDay\");\r\n        listOfPPAs.push(ppa({\r\n            buyerID: address(0x0),\r\n            producerID: _producerID,\r\n            kwhPrice: _kwhPrice,\r\n            startDay: _startDay,\r\n            endDay: _endDay,\r\n            id: idOfContract,\r\n            status: Status.Pending\r\n        }));\r\n        //nextID++;\r\n        emit createdPPA(_producerID, _kwhPrice);\r\n    }\r\n\r\n    function claimPPA() public {\r\n        uint _totalKwh = 0;\r\n        address buyerId = msg.sender;\r\n        for(uint i = 0; i<listOfPPAs.length; i++){\r\n            require(listOfPPAs[i].producerID != buyerId, \"Wrong address buyer\");\r\n            require(listOfPPAs[i].status != Status.Rejected, \"error\");\r\n            if(listOfPPAs[i].status == Status.Pending){\r\n                Appas.push(approvedPPA({\r\n                    buyerID: buyerId,\r\n                    producerID: listOfPPAs[i].producerID,\r\n                    kwhPrice: listOfPPAs[i].kwhPrice,\r\n                    startDay: listOfPPAs[i].startDay,\r\n                    endDay: listOfPPAs[i].endDay,\r\n                    id: listOfPPAs[i].id,\r\n                    totalKwh: _totalKwh,\r\n                    status: Status.Approved\r\n                }));\r\n            ppaBuyerRegistry.registerPPABuyer(buyerId);\r\n            emit purchasedPPA(listOfPPAs[i].id, listOfPPAs[i].buyerID, listOfPPAs[i].producerID);\r\n            if(listOfPPAs.length > 1){\r\n                listOfPPAs[i] = listOfPPAs[listOfPPAs.length-1];\r\n            }\r\n            listOfPPAs.length--;\r\n            break;\r\n            }\r\n        }\r\n    }\r\n\r\n    //this is a trial function just for PPA_energy_trading part\r\n    function availableKwhs(uint _energy, uint _idOfMatchPPA) public onlyRegisteredProducers{\r\n        address _producer = msg.sender;\r\n        listOfkwhs.push(producerEnergy({\r\n            producerID: _producer,\r\n            timestamp: block.timestamp,\r\n            energy: _energy,\r\n            idOfmatchContract: _idOfMatchPPA\r\n        }));\r\n    }\r\n\r\n    function buyPPAKwhs(uint _idOfPPA) public onlyPPABuyers{\r\n        uint currentTime = block.timestamp;\r\n        address aBuyerId = msg.sender; \r\n        for(uint j = 0; j<Appas.length; j++){ //uint j = 0; j<Appas.length; j++\r\n            //search on Approved PPAs to match the id - producer with kwhs\r\n            for(uint i = 0; i<listOfkwhs.length; i++){ //uint i = 0; i<listOfkwhs.length; i++\r\n                uint totalEnergyPurchased = 0;\r\n                //find the correct available kwhs based on id of ppa\r\n                if((Appas[j].producerID == listOfkwhs[i].producerID) && (Appas[j].id == _idOfPPA) && (Appas[j].id == listOfkwhs[i].idOfmatchContract)){\r\n                    require(Appas[j].startDay <= currentTime, \"PPA is not active yet\");\r\n                    //if endDay < now then PPA has expired \r\n                    if(Appas[j].endDay < currentTime){\r\n                        revert(\"PPA has expired\");\r\n                    }\r\n                    totalEnergyPurchased = listOfkwhs[i].energy;\r\n                    Appas[j].totalKwh = Appas[j].totalKwh + totalEnergyPurchased;\r\n                    listOfkwhs[i].energy = 0;\r\n                    listOfprchs.push(purchasesPPA({\r\n                        buyerID: aBuyerId,\r\n                        producerID: listOfkwhs[i].producerID,\r\n                        timestamp: currentTime,\r\n                        idOfPPA: _idOfPPA,\r\n                        purchasedEnergy: totalEnergyPurchased\r\n                    }));\r\n                }\r\n                if(listOfkwhs[i].energy == 0){\r\n                    if(listOfkwhs.length > 1){\r\n                        listOfkwhs[i] = listOfkwhs[listOfkwhs.length-1];\r\n                    }\r\n                    listOfkwhs.length--;\r\n                    break;\r\n                }\r\n            }\r\n        }\r\n    }\r\n\r\n    function killPPA(uint _id) public {\r\n        uint currentTime = block.timestamp;\r\n        for(uint i = 0; i<Appas.length; i++){\r\n            if((Appas[i].id == _id) && (Appas[i].endDay < currentTime)){\r\n                Appas[i].status = Status.Expired;\r\n                listOfPPAs.push(ppa({\r\n                    buyerID: Appas[i].buyerID,\r\n                    producerID: Appas[i].producerID,\r\n                    kwhPrice: Appas[i].kwhPrice,\r\n                    startDay: Appas[i].startDay,\r\n                    endDay: Appas[i].endDay,\r\n                    id: Appas[i].id,\r\n                    status: Status.Expired\r\n                }));\r\n                ppaBuyerRegistry.deregisterPPABuyer(Appas[i].buyerID);\r\n                emit expiredPPA(Appas[i].producerID, Appas[i].buyerID, Appas[i].startDay, Appas[i].endDay, Appas[i].status);\r\n                if(Appas.length > 1){\r\n                    Appas[i] = Appas[Appas.length-1];\r\n                }\r\n                Appas.length--;\r\n                break;\r\n            }\r\n        }\r\n    }\r\n\r\n    function viewAllPPAs () public view returns (ppa[] memory){\r\n        return listOfPPAs;\r\n    }\r\n\r\n    function viewAllpurchases() public view returns (purchasesPPA[] memory){\r\n        return listOfprchs;\r\n    }\r\n\r\n    function viewAllApprovedPPAs() public view returns(approvedPPA[] memory){\r\n        return Appas;\r\n    }\r\n\r\n    function getApprovedPPAByID(uint _id) public view returns (address, address, uint, uint, uint){\r\n        approvedPPA storage _Appa = Appas[_id];\r\n        return(_Appa.producerID, _Appa.buyerID, _Appa.kwhPrice, _Appa.startDay, _Appa.endDay);\r\n    }\r\n\r\n    function getPPAByID(uint _id) public view returns (address, address, uint, uint, uint, uint, uint){\r\n        ppa storage _ppa = listOfPPAs[_id];\r\n        return(_ppa.producerID, _ppa.buyerID, _ppa.kwhPrice, _ppa.startDay, _ppa.endDay, uint(_ppa.status), _ppa.id);\r\n    }\r\n\r\n    function viewAvailableKwhs() public view returns(producerEnergy[] memory){\r\n        return listOfkwhs;\r\n    }\r\n\r\n    function getAvKwhs() public view returns(uint count){\r\n        return listOfkwhs.length;\r\n    }\r\n}",
  "sourcePath": "C:/Users/Lenovo/projects/ethereum/protergia/blockchain-energy-trading-and-green-energy-certification-thesis-w-protergia/src/contracts/PPA.sol",
  "compiler": {
    "name": "solc",
    "version": "0.5.16+commit.9c3226ce.Emscripten.clang"
  },
  "schemaVersion": "3.4.1",
  "updatedAt": "2021-07-11T13:08:32.297Z",
  "devdoc": {
    "methods": {}
  },
  "userdoc": {
    "methods": {}
  }
}