{
  "contractName": "producerRegistry",
  "abi": [
    {
      "anonymous": false,
      "inputs": [
        {
          "indexed": true,
          "internalType": "address",
          "name": "producer",
          "type": "address"
        }
      ],
      "name": "producerDeregistered",
      "type": "event"
    },
    {
      "anonymous": false,
      "inputs": [
        {
          "indexed": true,
          "internalType": "address",
          "name": "producer",
          "type": "address"
        }
      ],
      "name": "producerRegistered",
      "type": "event"
    },
    {
      "constant": false,
      "inputs": [],
      "name": "registerProducer",
      "outputs": [],
      "payable": false,
      "stateMutability": "nonpayable",
      "type": "function"
    },
    {
      "constant": false,
      "inputs": [],
      "name": "deregisterProducer",
      "outputs": [],
      "payable": false,
      "stateMutability": "nonpayable",
      "type": "function"
    }
  ],
  "bytecode": "0x608060405234801561001057600080fd5b506101d6806100206000396000f3fe608060405234801561001057600080fd5b50600436106100365760003560e01c8063dbdf0c211461003b578063ea1d381f14610045575b600080fd5b61004361004f565b005b61004d6100f1565b005b60003390508073ffffffffffffffffffffffffffffffffffffffff167f769268709e630d5b24d4c651adeae2d7a75c3dd7c3876275233e21570be22fd460405160405180910390a260016000808373ffffffffffffffffffffffffffffffffffffffff1673ffffffffffffffffffffffffffffffffffffffff16815260200190815260200160002060006101000a81548160ff02191690831515021790555050565b60003390508073ffffffffffffffffffffffffffffffffffffffff167f0bb6d68f109745f7ae353e3b90fff6fb8245c34cca44f18d9dfa00e4d705fa6460405160405180910390a260008060008373ffffffffffffffffffffffffffffffffffffffff1673ffffffffffffffffffffffffffffffffffffffff16815260200190815260200160002060006101000a81548160ff0219169083151502179055505056fea365627a7a723158207cd256fff5d728884cfe8bda2e5c572f7fc5ed94087238c5985992fc0718ff6e6c6578706572696d656e74616cf564736f6c63430005100040",
  "source": "pragma solidity >=0.4.21 <0.9.0;\r\npragma experimental ABIEncoderV2;\r\n\r\nimport \"src/contracts/SafeMath.sol\";\r\nimport \"src/contracts/Counters.sol\";\r\n\r\ncontract producerRegistry {\r\n    event producerRegistered(address indexed producer);\r\n    event producerDeregistered(address indexed producer);\r\n    \r\n    // map address to bool \"is a registered producer\"\r\n    mapping(address => bool) producers;\r\n    \r\n    modifier onlyRegisteredProducers {\r\n        require(producers[msg.sender], \"You must be a current Producer\");\r\n        _;\r\n    }\r\n    \r\n    function registerProducer() public {\r\n        address aproducer = msg.sender;\r\n        emit producerRegistered(aproducer);\r\n        producers[aproducer] = true;\r\n    }\r\n\r\n    function deregisterProducer() public {\r\n        address aproducer = msg.sender;\r\n        emit producerDeregistered(aproducer);\r\n        producers[aproducer] = false;\r\n    }\r\n}\r\n\r\ncontract ppaBuyerRegistry {\r\n    event buyerRegistered(address indexed ppaBuyer);\r\n    event buyerDeregistered(address indexed ppaBuyer);\r\n\r\n    mapping(address => uint32) ppaBuyers;\r\n    address[] listOfPPABuyers;\r\n\r\n    modifier onlyPPABuyers {\r\n      require(ppaBuyers[msg.sender] > 0, \"Only PPA owners\");\r\n      _;\r\n    }\r\n    \r\n    function deregisterPPABuyer(address abuyer) public {\r\n        uint32 abuyerID = 0;\r\n        if(abuyerID != 0) {\r\n            emit buyerDeregistered(abuyer);\r\n        }\r\n        ppaBuyers[abuyer] = abuyerID;\r\n    }\r\n\r\n    function registerPPABuyer(address abuyer) public {\r\n        uint32 abuyerID = 0;\r\n        abuyerID++;\r\n        if(abuyerID != 0) {\r\n            emit buyerRegistered(abuyer);\r\n        }\r\n        ppaBuyers[abuyer] = abuyerID;\r\n    }\r\n}\r\n\r\n//Corporate PPAs\r\ncontract PPA is producerRegistry, ppaBuyerRegistry {\r\n\r\n    //using SafeMath for uint256;\r\n    using Counters for Counters.Counter;\r\n    Counters.Counter private contractID;\r\n\r\n    mapping (uint => uint) price;\r\n\r\n    enum Status {Pending, Approved, Rejected, Expired}\r\n    event createdPPA(address indexed producer, uint price);\r\n    event createdCorpPPA(address indexed producer, address indexed buyer, uint price);\r\n    event acceptedCorpPPA(address indexed producer, address indexed buyer, uint id, uint agreedPrice);\r\n    event purchasedPPA(uint id, address indexed buyer, address indexed producer);\r\n    event expiredPPA(address indexed producer, address indexed buyer, uint startDay, uint endDay, Status status);\r\n\r\n    struct ppa {               //Struct with all PPA contracts\r\n        address buyer;\r\n        address producer;\r\n        uint kwhPrice;         //price per energy(kwh)\r\n        uint startDay;\r\n        uint endDay;           //It must be timestamp (ex. uint endDay = 1833746400; // 2028-02-10 00:00:00)\r\n        uint id;               //id number of each ppa contract\r\n        Status status;\r\n    }\r\n\r\n    mapping(address => ppa) ppas;\r\n    ppa[] listOfPPAs;\r\n    ppa[] corporatePPAList;\r\n    //uint contractID = 0;\r\n\r\n    struct approvedPPA{       //Struct only for approved PPAs\r\n        address buyer;\r\n        address producer;\r\n        uint kwhPrice;        //price per energy(kwh)\r\n        uint startDay;\r\n        uint endDay;          //It must be timestamp (ex. uint endDay = 1833746400; // 2028-02-10 00:00:00)\r\n        uint id;              //id number of each ppa contract\r\n        uint totalKwh;        //total amount of purchased kwh\r\n        Status status;\r\n    }\r\n\r\n    mapping(address => mapping(uint => approvedPPA)) approvedPPAs;\r\n    approvedPPA[] Appas;\r\n\r\n    struct producerEnergy{      //Trial struct for available producer' s energy in order to sale \r\n        address producer;\r\n        address buyer;          //Address of owner of each PPA conract\r\n        uint timestamp;\r\n        uint energy;\r\n        uint idOfmatchContract; //id of ppa contract that refers to\r\n    }\r\n\r\n    mapping(address => mapping(uint => uint)) pEnergy;\r\n    producerEnergy[] listOfkwhs;\r\n\r\n    struct purchasesPPA{\r\n        address buyer;\r\n        address producer;\r\n        uint timestamp;\r\n        uint idOfPPA;\r\n        uint purchasedEnergy;\r\n    }\r\n\r\n    purchasesPPA[] listOfprchs;\r\n\r\n    function corporatePPA(address _buyer, uint _agreedKwhPrice,uint _startDay, uint _endDay, uint _id) public onlyRegisteredProducers {\r\n        address _producer = msg.sender;\r\n        require(_endDay > _startDay, \"It's impossible endDay < startDay\");\r\n        corporatePPAList.push(ppa({\r\n            buyer: _buyer,\r\n            producer: _producer,\r\n            kwhPrice: _agreedKwhPrice,\r\n            startDay: _startDay,\r\n            endDay: _endDay,\r\n            id: _id,\r\n            status: Status.Pending\r\n        }));\r\n        emit createdCorpPPA(_producer, _buyer, _agreedKwhPrice);\r\n    }\r\n\r\n    //Corporate PPAs are based on an agreed price\r\n    //Both parties benefit from long-term price guarantees that protect them from market price volatility\r\n    function acceptCorporatePPA() public {\r\n        address _buyer = msg.sender;\r\n        uint _totalKwh = 0;\r\n        for(uint i = 0; i < corporatePPAList.length; i++){\r\n            if((corporatePPAList[i].buyer == _buyer) && (corporatePPAList[i].status == Status.Pending)){\r\n                Appas.push(approvedPPA({\r\n                    buyer: _buyer,\r\n                    producer: corporatePPAList[i].producer,\r\n                    kwhPrice: corporatePPAList[i].kwhPrice,\r\n                    startDay: corporatePPAList[i].startDay,\r\n                    endDay: corporatePPAList[i].endDay,\r\n                    id: corporatePPAList[i].id,\r\n                    totalKwh: _totalKwh,\r\n                    status: Status.Approved\r\n                }));\r\n                ppaBuyerRegistry.registerPPABuyer(_buyer);\r\n                emit acceptedCorpPPA(corporatePPAList[i].producer, _buyer, corporatePPAList[i].id, corporatePPAList[i].kwhPrice);\r\n                if(corporatePPAList.length > 1){\r\n                    corporatePPAList[i] = corporatePPAList[corporatePPAList.length-1];\r\n                }\r\n                corporatePPAList.length--;\r\n                break;\r\n            }\r\n        }\r\n    }\r\n\r\n    function createPPA(uint _kwhPrice,uint _startDay, uint _endDay) public onlyRegisteredProducers { //onlyRegisteredProducers\r\n        address _producer = msg.sender;\r\n        //uint currentTime = block.timestamp;\r\n        //uint idOfContract = _endDay-currentTime;\r\n        contractID.increment();\r\n        uint currentID = contractID.current();\r\n        require(_endDay > _startDay, \"It's impossible endDay < startDay\");\r\n        listOfPPAs.push(ppa({\r\n            buyer: address(0x0),\r\n            producer: _producer,\r\n            kwhPrice: _kwhPrice,\r\n            startDay: _startDay,\r\n            endDay: _endDay,\r\n            id: currentID,\r\n            status: Status.Pending\r\n        }));\r\n        //nextID++;\r\n        emit createdPPA(_producer, _kwhPrice);\r\n    }\r\n\r\n    function claimPPA() public {\r\n        uint _totalKwh = 0;\r\n        address buyer = msg.sender;\r\n        for(uint i = 0; i<listOfPPAs.length; i++){\r\n            require(listOfPPAs[i].producer != buyer, \"Wrong address buyer\");\r\n            require(listOfPPAs[i].status != Status.Rejected, \"error\");\r\n            if(listOfPPAs[i].status == Status.Pending){\r\n                Appas.push(approvedPPA({\r\n                    buyer: buyer,\r\n                    producer: listOfPPAs[i].producer,\r\n                    kwhPrice: listOfPPAs[i].kwhPrice,\r\n                    startDay: listOfPPAs[i].startDay,\r\n                    endDay: listOfPPAs[i].endDay,\r\n                    id: listOfPPAs[i].id,\r\n                    totalKwh: _totalKwh,\r\n                    status: Status.Approved\r\n                }));\r\n                ppaBuyerRegistry.registerPPABuyer(buyer);\r\n                emit purchasedPPA(listOfPPAs[i].id, listOfPPAs[i].buyer, listOfPPAs[i].producer);\r\n                if(listOfPPAs.length > 1){\r\n                    listOfPPAs[i] = listOfPPAs[listOfPPAs.length-1];\r\n                }\r\n                listOfPPAs.length--;\r\n                break;\r\n            }\r\n        }\r\n    }\r\n\r\n    //Claim an Auction type PPA with the lowest price\r\n    function claimAuctionPPA() public {\r\n        uint _totalkwh = 0;\r\n        bool isClaimed = false;\r\n        address buyerAddr = msg.sender;\r\n        //Check for the best price per kwh based on PPA terms\r\n        //Claim the PPA with lowest price and record this purchase\r\n        for(uint i = 0; i < listOfPPAs.length; i++){\r\n            for(uint j = 0; j < listOfPPAs.length; j++){\r\n                if(listOfPPAs[j].kwhPrice < listOfPPAs[i].kwhPrice){\r\n                    require(listOfPPAs[j].status == Status.Pending, \"PPA does not exists\");\r\n                    require(listOfPPAs[j].producer != buyerAddr, \"Wrong address buyer\");\r\n                    Appas.push(approvedPPA({\r\n                        buyer: buyerAddr,\r\n                        producer: listOfPPAs[j].producer,\r\n                        kwhPrice: listOfPPAs[j].kwhPrice,\r\n                        startDay: listOfPPAs[j].startDay,\r\n                        endDay: listOfPPAs[j].endDay,\r\n                        id: listOfPPAs[j].id,\r\n                        totalKwh: _totalkwh,\r\n                        status: Status.Approved\r\n                        }));\r\n                    ppaBuyerRegistry.registerPPABuyer(buyerAddr);\r\n                    isClaimed = true;\r\n                    emit purchasedPPA(listOfPPAs[j].id, listOfPPAs[j].buyer, listOfPPAs[j].producer);\r\n                }\r\n                if(isClaimed){\r\n                    if(listOfPPAs.length > 1){\r\n                        listOfPPAs[j] = listOfPPAs[listOfPPAs.length-1];\r\n                    }\r\n                    listOfPPAs.length--;\r\n                    break;\r\n                }\r\n            }\r\n            if(isClaimed){\r\n                break;\r\n            }else{\r\n                require(listOfPPAs[i].status == Status.Pending, \"PPA does not exists\");\r\n                require(listOfPPAs[i].producer != buyerAddr, \"Wrong address buyer\");\r\n                Appas.push(approvedPPA({\r\n                    buyer: buyerAddr,\r\n                    producer: listOfPPAs[i].producer,\r\n                    kwhPrice: listOfPPAs[i].kwhPrice,\r\n                    startDay: listOfPPAs[i].startDay,\r\n                    endDay: listOfPPAs[i].endDay,\r\n                    id: listOfPPAs[i].id,\r\n                    totalKwh: _totalkwh,\r\n                    status: Status.Approved\r\n                }));\r\n                ppaBuyerRegistry.registerPPABuyer(buyerAddr);\r\n                isClaimed = true;\r\n                emit purchasedPPA(listOfPPAs[i].id, listOfPPAs[i].buyer, listOfPPAs[i].producer);\r\n                if(isClaimed){\r\n                    if(listOfPPAs.length > 1){\r\n                        listOfPPAs[i] = listOfPPAs[listOfPPAs.length-1];\r\n                    }\r\n                    listOfPPAs.length--;\r\n                    break;\r\n                }\r\n            }\r\n        }\r\n    }\r\n\r\n    //this is a trial function just for PPA_energy_trading part\r\n    function availableKwhs(address _buyer, uint _energy, uint _idOfMatchPPA) public onlyRegisteredProducers{\r\n        address _producer = msg.sender;\r\n        listOfkwhs.push(producerEnergy({\r\n            producer: _producer,\r\n            buyer: _buyer,\r\n            timestamp: block.timestamp,\r\n            energy: _energy,\r\n            idOfmatchContract: _idOfMatchPPA\r\n        }));\r\n    }\r\n\r\n    function buyPPAKwhs(uint _idOfPPA) public onlyPPABuyers{\r\n        uint currentTime = block.timestamp;\r\n        address aBuyer = msg.sender; \r\n        for(uint j = 0; j<Appas.length; j++){ //uint j = 0; j<Appas.length; j++\r\n            //search on Approved PPAs to match the id - producer with kwhs\r\n            for(uint i = 0; i<listOfkwhs.length; i++){ //uint i = 0; i<listOfkwhs.length; i++\r\n                uint totalEnergyPurchased = 0;\r\n                //find the correct available kwhs based on id of ppa\r\n                if((Appas[j].producer == listOfkwhs[i].producer) && (Appas[j].id == _idOfPPA) && (Appas[j].id == listOfkwhs[i].idOfmatchContract)){\r\n                    require(Appas[j].startDay <= currentTime, \"PPA is not active yet\");\r\n                    //if endDay < now then PPA has expired \r\n                    if(Appas[j].endDay < currentTime){\r\n                        revert(\"PPA has expired\");\r\n                    }\r\n                    totalEnergyPurchased = listOfkwhs[i].energy;\r\n                    Appas[j].totalKwh = Appas[j].totalKwh + totalEnergyPurchased;\r\n                    listOfkwhs[i].energy = 0;\r\n                    listOfprchs.push(purchasesPPA({\r\n                        buyer: aBuyer,\r\n                        producer: listOfkwhs[i].producer,\r\n                        timestamp: currentTime,\r\n                        idOfPPA: _idOfPPA,\r\n                        purchasedEnergy: totalEnergyPurchased\r\n                    }));\r\n                }\r\n                if(listOfkwhs[i].energy == 0){\r\n                    if(listOfkwhs.length > 1){\r\n                        listOfkwhs[i] = listOfkwhs[listOfkwhs.length-1];\r\n                    }\r\n                    listOfkwhs.length--;\r\n                    break;\r\n                }\r\n            }\r\n        }\r\n    }\r\n\r\n    function energyTradingPPA(uint _idOfContract, uint _buyEnergy) public onlyPPABuyers{\r\n        uint currentTime = block.timestamp;\r\n        uint buyEnergy = _buyEnergy;\r\n        address aBuyer = msg.sender; \r\n        address _producer;\r\n        bool isEnergyPurchased = false;\r\n        for(uint j = 0; j < Appas.length; j++){\r\n            if((Appas[j].id == _idOfContract) && (Appas[j].buyer == aBuyer)){\r\n                //require(Appas[j].startDay <= currentTime, \"PPA is not active yet\");\r\n                //require(Appas[j].endDay > currentTime, \"PPA has expired\");\r\n                for(uint i = 0; i < listOfkwhs.length; i++){\r\n                    uint totalEnergyPurchased = 0;\r\n                    //if((Appas[j].producer == listOfkwhs[i].producer) && (listOfkwhs[i].buyer == aBuyer) && (Appas[j].id == listOfkwhs[i].idOfmatchContract)){\r\n                        if((listOfkwhs[i].idOfmatchContract == Appas[j].id) && (listOfkwhs[i].energy < buyEnergy)){\r\n                            _producer = listOfkwhs[i].producer;\r\n                            totalEnergyPurchased = listOfkwhs[i].energy;\r\n                            buyEnergy = buyEnergy-totalEnergyPurchased;\r\n                            Appas[j].totalKwh = Appas[j].totalKwh+totalEnergyPurchased;\r\n                            listOfkwhs[i].energy = 0;\r\n\r\n                            isEnergyPurchased = true;\r\n\r\n                            if(listOfkwhs.length > 1){\r\n                                listOfkwhs[i] = listOfkwhs[listOfkwhs.length-1];\r\n                            }\r\n                            listOfkwhs.length--;\r\n\r\n                        }else if((listOfkwhs[i].idOfmatchContract == Appas[j].id) && (listOfkwhs[i].energy == buyEnergy)){//(Appas[j].producer == listOfkwhs[i].producer) && (Appas[j].id == listOfkwhs[i].idOfmatchContract) && \r\n                            _producer = listOfkwhs[i].producer;\r\n                            totalEnergyPurchased = buyEnergy;\r\n                            Appas[j].totalKwh = Appas[j].totalKwh+totalEnergyPurchased;\r\n                            buyEnergy = 0;\r\n                            listOfkwhs[i].energy = 0;\r\n\r\n                            isEnergyPurchased = true;\r\n\r\n                            if(listOfkwhs.length > 1){\r\n                                listOfkwhs[i] = listOfkwhs[listOfkwhs.length-1];\r\n                            }\r\n                            listOfkwhs.length--;\r\n\r\n                        }else if((listOfkwhs[i].idOfmatchContract == Appas[j].id) && (listOfkwhs[i].energy > buyEnergy)){\r\n                            _producer = listOfkwhs[i].producer;\r\n                            totalEnergyPurchased = buyEnergy;\r\n                            Appas[j].totalKwh = Appas[j].totalKwh+totalEnergyPurchased;\r\n                            listOfkwhs[i].energy = listOfkwhs[i].energy-totalEnergyPurchased;\r\n                            buyEnergy = 0;\r\n\r\n                            isEnergyPurchased = true;\r\n                        }\r\n\r\n                        if(isEnergyPurchased){\r\n                            listOfprchs.push(purchasesPPA({\r\n                                buyer: aBuyer,\r\n                                producer: _producer,\r\n                                timestamp: currentTime,\r\n                                idOfPPA: _idOfContract,\r\n                                purchasedEnergy: totalEnergyPurchased\r\n                            }));\r\n                        }\r\n                    //}\r\n                    \r\n                    if(buyEnergy == 0){\r\n                        break;\r\n                    }else{\r\n                        i--;\r\n                    }\r\n                }\r\n            }\r\n        }\r\n    }\r\n\r\n    function buyEnergyByPPA(uint _idOfContract, uint _buyEnergy) public onlyPPABuyers{\r\n        uint currentTime = block.timestamp;\r\n        uint buyEnergy = _buyEnergy;\r\n        address aBuyer = msg.sender; \r\n        address _producer;\r\n        bool isEnergyPurchased = false;\r\n        for(uint j = 0; j < Appas.length; j++){\r\n            if((Appas[j].id == _idOfContract) && (Appas[j].buyer == aBuyer)){\r\n                //require(Appas[j].startDay <= currentTime, \"PPA is not active yet\");\r\n                //require(Appas[j].endDay > currentTime, \"PPA has expired\");\r\n                for(uint i = 0; i < listOfkwhs.length; i++){\r\n                    uint totalEnergyPurchased = 0;\r\n                    //if((Appas[j].producer == listOfkwhs[i].producer) && (listOfkwhs[i].buyer == aBuyer) && (Appas[j].id == listOfkwhs[i].idOfmatchContract)){\r\n                        if((listOfkwhs[i].idOfmatchContract == Appas[j].id) && (listOfkwhs[i].energy < buyEnergy)){\r\n                            _producer = listOfkwhs[i].producer;\r\n                            totalEnergyPurchased = listOfkwhs[i].energy;\r\n                            buyEnergy = buyEnergy-totalEnergyPurchased;\r\n                            Appas[j].totalKwh = Appas[j].totalKwh+totalEnergyPurchased;\r\n                            listOfkwhs[i].energy = 0;\r\n\r\n                            isEnergyPurchased = true;\r\n\r\n                            if(listOfkwhs.length > 1){\r\n                                listOfkwhs[i] = listOfkwhs[listOfkwhs.length-1];\r\n                            }\r\n                            listOfkwhs.length--;\r\n\r\n                        }else if((listOfkwhs[i].idOfmatchContract == Appas[j].id) && (listOfkwhs[i].energy == buyEnergy)){//(Appas[j].producer == listOfkwhs[i].producer) && (Appas[j].id == listOfkwhs[i].idOfmatchContract) && \r\n                            _producer = listOfkwhs[i].producer;\r\n                            totalEnergyPurchased = buyEnergy;\r\n                            Appas[j].totalKwh = Appas[j].totalKwh+totalEnergyPurchased;\r\n                            buyEnergy = 0;\r\n                            listOfkwhs[i].energy = 0;\r\n\r\n                            isEnergyPurchased = true;\r\n\r\n                            if(listOfkwhs.length > 1){\r\n                                listOfkwhs[i] = listOfkwhs[listOfkwhs.length-1];\r\n                            }\r\n                            listOfkwhs.length--;\r\n\r\n                        }else if((listOfkwhs[i].idOfmatchContract == Appas[j].id) && (listOfkwhs[i].energy > buyEnergy)){\r\n                            _producer = listOfkwhs[i].producer;\r\n                            totalEnergyPurchased = buyEnergy;\r\n                            Appas[j].totalKwh = Appas[j].totalKwh+totalEnergyPurchased;\r\n                            listOfkwhs[i].energy = listOfkwhs[i].energy-totalEnergyPurchased;\r\n                            buyEnergy = 0;\r\n\r\n                            isEnergyPurchased = true;\r\n                        }else{\r\n                            isEnergyPurchased = false;\r\n                        }\r\n\r\n                        if(isEnergyPurchased){\r\n                            listOfprchs.push(purchasesPPA({\r\n                                buyer: aBuyer,\r\n                                producer: _producer,\r\n                                timestamp: currentTime,\r\n                                idOfPPA: _idOfContract,\r\n                                purchasedEnergy: totalEnergyPurchased\r\n                            }));\r\n                        }\r\n                        /*if(buyEnergy == 0){\r\n                            break;\r\n                        }else{\r\n                            i--;\r\n                        }*/\r\n                    //}\r\n                    \r\n                    if(buyEnergy == 0){\r\n                        break;\r\n                    }else{\r\n                        i--;\r\n                    }\r\n                }\r\n            }\r\n        }\r\n    }\r\n\r\n    function killPPA(uint _id) public {\r\n        uint currentTime = block.timestamp;\r\n        for(uint i = 0; i<Appas.length; i++){\r\n            if((Appas[i].id == _id) && (Appas[i].endDay < currentTime)){\r\n                Appas[i].status = Status.Expired;\r\n                listOfPPAs.push(ppa({\r\n                    buyer: Appas[i].buyer,\r\n                    producer: Appas[i].producer,\r\n                    kwhPrice: Appas[i].kwhPrice,\r\n                    startDay: Appas[i].startDay,\r\n                    endDay: Appas[i].endDay,\r\n                    id: Appas[i].id,\r\n                    status: Status.Expired\r\n                }));\r\n                ppaBuyerRegistry.deregisterPPABuyer(Appas[i].buyer);\r\n                emit expiredPPA(Appas[i].producer, Appas[i].buyer, Appas[i].startDay, Appas[i].endDay, Appas[i].status);\r\n                if(Appas.length > 1){\r\n                    Appas[i] = Appas[Appas.length-1];\r\n                }\r\n                Appas.length--;\r\n                break;\r\n            }\r\n        }\r\n    }\r\n\r\n    function viewAllPPAs () public view returns (ppa[] memory){\r\n        return listOfPPAs;\r\n    }\r\n\r\n    function viewAllpurchases() public view returns (purchasesPPA[] memory){\r\n        return listOfprchs;\r\n    }\r\n\r\n    function viewAllApprovedPPAs() public view returns(approvedPPA[] memory){\r\n        return Appas;\r\n    }\r\n\r\n    function viewCorporatePPAlist() public view returns(ppa[] memory){\r\n        return corporatePPAList;\r\n    }\r\n\r\n    function getApprovedPPAByID(uint _id) public view returns (address, address, uint, uint, uint){\r\n        approvedPPA storage _Appa = Appas[_id];\r\n        return(_Appa.producer, _Appa.buyer, _Appa.kwhPrice, _Appa.startDay, _Appa.endDay);\r\n    }\r\n\r\n    function getPPAByID(uint _id) public view returns (address, address, uint, uint, uint, uint, uint){\r\n        ppa storage _ppa = listOfPPAs[_id];\r\n        return(_ppa.producer, _ppa.buyer, _ppa.kwhPrice, _ppa.startDay, _ppa.endDay, uint(_ppa.status), _ppa.id);\r\n    }\r\n\r\n    function viewAvailableKwhs() public view returns(producerEnergy[] memory){\r\n        return listOfkwhs;\r\n    }\r\n\r\n    function getAvKwhs() public view returns(uint count){\r\n        return listOfkwhs.length;\r\n    }\r\n}",
  "sourcePath": "C:/Users/Lenovo/projects/ethereum/protergia/blockchain-energy-trading-and-green-energy-certification-thesis-w-protergia/src/contracts/PPA.sol",
  "compiler": {
    "name": "solc",
    "version": "0.5.16+commit.9c3226ce.Emscripten.clang"
  },
  "schemaVersion": "3.4.1",
  "updatedAt": "2021-07-20T15:33:47.220Z",
  "devdoc": {
    "methods": {}
  },
  "userdoc": {
    "methods": {}
  }
}