{
	"data": {
		"bytecode": {
			"linkReferences": {},
			"object": "6080604052600080546001600160a01b0319163317905561277f806100256000396000f3fe608060405234801561001057600080fd5b506004361061010b5760003560e01c806387bdb206116100a2578063c26d4ce611610071578063c26d4ce61461021e578063c9fb857814610233578063d4eed50f14610256578063e204dacc14610269578063eefa716b1461027c5761010b565b806387bdb206146101e45780639521db24146101f9578063a426c76814610201578063b47c7741146102095761010b565b80635b4cf93c116100de5780635b4cf93c1461017857806362e9a4301461018d578063844cbc79146101a05780638617f9a9146101c25761010b565b806303b473ad146101105780631779e7fb1461013b57806318f74a601461015057806344da1a9414610163575b600080fd5b61012361011e366004611fa4565b61028f565b60405161013293929190612564565b60405180910390f35b61014e610149366004611f5d565b6102d6565b005b61014e61015e366004611fc2565b6104a0565b61016b610683565b6040516101329190612640565b61018061068a565b60405161013291906125ae565b61012361019b366004611e98565b610728565b6101b36101ae366004611fa4565b61082b565b604051610132939291906124f0565b6101d56101d0366004611f10565b610906565b6040516101329392919061264e565b6101ec610a4f565b604051610132919061258c565b61016b610ada565b61016b610ae0565b610211610ae6565b604051610132919061259d565b610226610c0e565b60405161013291906125bf565b610246610241366004611e98565b610ca8565b604051610132949392919061251f565b61014e610264366004611fe1565b610d7b565b610123610277366004611fa4565b610fa4565b61014e61028a366004611ebe565b610feb565b600080600080600485815481106102a257fe5b60009182526020909120600590910201805460038201546001909201546001600160a01b0390911697919650945092505050565b3360009081526001602052604090206004015460ff16156103125760405162461bcd60e51b815260040161030990612630565b60405180910390fd5b6040805160a081018252338082526020808301868152838501869052426060850152600160808501819052600093845280835294909220835181546001600160a01b0319166001600160a01b03909116178155915180519394929361037e938501929190910190611cb1565b5060408281015160028381019190915560608085015160038501556080948501516004909401805460ff191694151594909417909355815160a081018352338152602080820188815293820187905242948201949094526001948101859052815494850180835560009290925280517f405787fa12a823e0f2b7631cc41b3ba8828b3321ca811111fa75cd3aa3bb5ace600590960295860180546001600160a01b0319166001600160a01b03909216919091178155925180519295919461046c937f405787fa12a823e0f2b7631cc41b3ba8828b3321ca811111fa75cd3aa3bb5acf90930192910190611cb1565b5060408201516002820155606082015160038201556080909101516004909101805460ff1916911515919091179055505050565b3360009081526001602081905260409091206004015460ff161515146104d85760405162461bcd60e51b815260040161030990612610565b60018110156104f95760405162461bcd60e51b8152600401610309906125e0565b6040805160a0810182523381526020810183815242928201928352606082018581526080830185815260048054600181018255600082905294517f8a35acfbc15ff81a39ae7d344fd709f28e8600b4aa8c65c6b64bfe7fe36bd19b600590960295860180546001600160a01b0319166001600160a01b0390921691909117905592517f8a35acfbc15ff81a39ae7d344fd709f28e8600b4aa8c65c6b64bfe7fe36bd19c85015593517f8a35acfbc15ff81a39ae7d344fd709f28e8600b4aa8c65c6b64bfe7fe36bd19d840155517f8a35acfbc15ff81a39ae7d344fd709f28e8600b4aa8c65c6b64bfe7fe36bd19e83015591517f8a35acfbc15ff81a39ae7d344fd709f28e8600b4aa8c65c6b64bfe7fe36bd19f90910155805461067f9190600019810190811061062657fe5b60009182526020918290206040805160a081018252600590930290910180546001600160a01b031683526001810154938301939093526002830154908201526003820154606082015260049091015460808201526110d3565b5050565b6002545b90565b60606007805480602002602001604051908101604052809291908181526020016000905b8282101561071f5760008481526020908190206040805160c0810182526006860290920180546001600160a01b031683526001808201548486015260028201549284019290925260038101546060840152600481015460808401526005015460a083015290835290920191016106ae565b50505050905090565b6001600160a01b0381166000908152600360205260408120546004548291829181106107665760405162461bcd60e51b815260040161030990612600565b846001600160a01b03166004828154811061077d57fe5b60009182526020909120600590910201546001600160a01b0316146107b45760405162461bcd60e51b8152600401610309906125f0565b600481815481106107c157fe5b6000918252602090912060059091020154600480546001600160a01b0390921691839081106107ec57fe5b9060005260206000209060050201600301546004838154811061080b57fe5b906000526020600020906005020160010154935093509350509193909250565b600060606000806002858154811061083f57fe5b600091825260209182902060059091020180546002808301546001808501805460408051601f600019958416156101000295909501909216959095049283018890048802810188019094528184529496506001600160a01b0390931694909284918301828280156108f15780601f106108c6576101008083540402835291602001916108f1565b820191906000526020600020905b8154815290600101906020018083116108d457829003601f168201915b50505050509150935093509350509193909250565b6001600160a01b038316600090815260066020908152604080832085845282528083208484529091528120546007548291829181106109575760405162461bcd60e51b815260040161030990612600565b856007828154811061096557fe5b906000526020600020906006020160020154146109945760405162461bcd60e51b8152600401610309906125d0565b866001600160a01b0316600782815481106109ab57fe5b60009182526020909120600690910201546001600160a01b0316146109e25760405162461bcd60e51b815260040161030990612620565b600781815481106109ef57fe5b90600052602060002090600602016001015460078281548110610a0e57fe5b90600052602060002090600602016002015460078381548110610a2d57fe5b9060005260206000209060060201600301549350935093505093509350939050565b60606004805480602002602001604051908101604052809291908181526020016000905b8282101561071f5760008481526020908190206040805160a0810182526005860290920180546001600160a01b0316835260018082015484860152600282015492840192909252600381015460608401526004015460808301529083529092019101610a73565b60075490565b60045490565b60606002805480602002602001604051908101604052809291908181526020016000905b8282101561071f5760008481526020908190206040805160a0810182526005860290920180546001600160a01b03168352600180820180548451600261010094831615949094026000190190911692909204601f810187900487028301870190945283825293949193858301939192909190830182828015610bcd5780601f10610ba257610100808354040283529160200191610bcd565b820191906000526020600020905b815481529060010190602001808311610bb057829003601f168201915b505050918352505060028201546020808301919091526003830154604083015260049092015460ff1615156060909101529082526001929092019101610b0a565b60606005805480602002602001604051908101604052809291908181526020016000905b8282101561071f5760008481526020908190206040805160c0810182526006860290920180546001600160a01b0390811684526001808301549091168486015260028201549284019290925260038101546060840152600481015460808401526005015460a08301529083529092019101610c32565b6001600160a01b03818116600090815260016020818152604080842080546003820154600280840154938701805486516101009982161599909902600019011691909104601f8101879004870288018701909552848752969760609789978897949092169590949293859190830182828015610d655780601f10610d3a57610100808354040283529160200191610d65565b820191906000526020600020905b815481529060010190602001808311610d4857829003601f168201915b5050505050925093509350935093509193509193565b3360009081526001602081905260409091206004015460ff16151514610db35760405162461bcd60e51b815260040161030990612610565b6001821015610dd45760405162461bcd60e51b8152600401610309906125e0565b6040805160c081018252338152600880546020830190815292820186815260608301868152608084018681524260a086019081526007805460018082018355600083905297517fa66cc928b5edb82af9bd49922954155ab7b0942694bea4ce44661d9a8736c688600690920291820180546001600160a01b0319166001600160a01b0390921691909117905597517fa66cc928b5edb82af9bd49922954155ab7b0942694bea4ce44661d9a8736c68989015593517fa66cc928b5edb82af9bd49922954155ab7b0942694bea4ce44661d9a8736c68a88015591517fa66cc928b5edb82af9bd49922954155ab7b0942694bea4ce44661d9a8736c68b870155517fa66cc928b5edb82af9bd49922954155ab7b0942694bea4ce44661d9a8736c68c860155517fa66cc928b5edb82af9bd49922954155ab7b0942694bea4ce44661d9a8736c68d90940193909355805490910190558054610f9f91906000198101908110610f3c57fe5b60009182526020918290206040805160c081018252600690930290910180546001600160a01b03168352600181015493830193909352600283015490820152600382015460608201526004820154608082015260059091015460a0820152611702565b505050565b60008060008060078581548110610fb757fe5b60009182526020909120600690910201805460028201546003909201546001600160a01b0390911697919650945092505050565b3360009081526001602081905260409091206004015460ff161515146110235760405162461bcd60e51b815260040161030990612610565b60005b600254811015610f9f57826001600160a01b03166002828154811061104757fe5b60009182526020909120600590910201546001600160a01b031614156110cb57816002828154811061107557fe5b90600052602060002090600502016001019080519060200190611099929190611cb1565b506001600160a01b038316600090815260016020818152604090922084516110c993919092019190850190611cb1565b505b600101611026565b3360009081526001602081905260409091206004015460ff1615151461110b5760405162461bcd60e51b815260040161030990612610565b608081015160005b600754811015610f9f57600780546000918291829182918791908790811061113757fe5b90600052602060002090600602016003015410156112e5576007858154811061115c57fe5b6000918252602090912060069091020154600780546001600160a01b039092169550908690811061118957fe5b9060005260206000209060060201600301549150600785815481106111aa57fe5b9060005260206000209060060201600301548603955085600486815481106111ce57fe5b90600052602060002090600502016004018190555081600786815481106111f157fe5b90600052602060002090600602016004015402905060006007868154811061121557fe5b6000918252602090912060036006909202010155600754600193508310156112c55760078054600019810190811061124957fe5b90600052602060002090600602016007868154811061126457fe5b60009182526020909120825460069092020180546001600160a01b0319166001600160a01b03909216919091178155600180830154908201556002808301549082015560038083015490820155600480830154908201556005918201549101555b60078054906112d8906000198301611d2f565b50600019909401936114de565b85600786815481106112f357fe5b906000526020600020906006020160030154141561143f576007858154811061131857fe5b6000918252602090912060069091020154600780546001600160a01b03909216955087935083918790811061134957fe5b90600052602060002090600602016004015402905060006007868154811061136d57fe5b906000526020600020906006020160030181905550600095506001925060016007805490501115611426576007805460001981019081106113aa57fe5b9060005260206000209060060201600786815481106113c557fe5b60009182526020909120825460069092020180546001600160a01b0319166001600160a01b03909216919091178155600180830154908201556002808301549082015560038083015490820155600480830154908201556005918201549101555b6007805490611439906000198301611d2f565b506114de565b6007858154811061144c57fe5b6000918252602090912060069091020154600780546001600160a01b03909216955087935083918790811061147d57fe5b906000526020600020906006020160030154036007868154811061149d57fe5b90600052602060002090600602016003018190555081600786815481106114c057fe5b90600052602060002090600602016004015402905060009550600192505b8215611641576040805160c0810182523381526001600160a01b03868116602083019081528284018681526060808501878152908d015160808601908152958d015160a0860190815260058054600181018255600091909152955160069096027f036b6384b5eca791c62761152d0c79bb0604c104a5fb6f4eb0703f3154bb3db0810180549787166001600160a01b031998891617905593517f036b6384b5eca791c62761152d0c79bb0604c104a5fb6f4eb0703f3154bb3db18501805491909616961695909517909355517f036b6384b5eca791c62761152d0c79bb0604c104a5fb6f4eb0703f3154bb3db282015590517f036b6384b5eca791c62761152d0c79bb0604c104a5fb6f4eb0703f3154bb3db382015591517f036b6384b5eca791c62761152d0c79bb0604c104a5fb6f4eb0703f3154bb3db4830155517f036b6384b5eca791c62761152d0c79bb0604c104a5fb6f4eb0703f3154bb3db5909101555b856116f257600454600110156116d55760048054600019810190811061166357fe5b90600052602060002090600502016004868154811061167e57fe5b60009182526020909120825460059092020180546001600160a01b0319166001600160a01b039092169190911781556001808301549082015560028083015490820155600380830154908201556004918201549101555b60048054906116e8906000198301611d5b565b5050505050610f9f565b5050600190920191506111139050565b3360009081526001602081905260409091206004015460ff1615151461173a5760405162461bcd60e51b815260040161030990612610565b606081015160005b600454811015610f9f57600480546000918291829182918791908790811061176657fe5b90600052602060002090600502016004015410156118d7576004858154811061178b57fe5b6000918252602090912060059091020154600480546001600160a01b03909216955090869081106117b857fe5b9060005260206000209060050201600401549150818603955085600786815481106117df57fe5b90600052602060002090600602016003018190555081876080015102905060006004868154811061180c57fe5b90600052602060002090600502016004018190555060019250600160048054905011156118b75760048054600019810190811061184557fe5b90600052602060002090600502016004868154811061186057fe5b60009182526020909120825460059092020180546001600160a01b0319166001600160a01b039092169190911781556001808301549082015560028083015490820155600380830154908201556004918201549101555b60048054906118ca906000198301611d5b565b5060001990940193611a8e565b85600486815481106118e557fe5b9060005260206000209060050201600401541415611a09576004858154811061190a57fe5b6000918252602082206005909102015460808901516004805493996001600160a01b0390931697509194508402925087918790811061194557fe5b90600052602060002090600502016004018190555060019250600160048054905011156119f05760048054600019810190811061197e57fe5b90600052602060002090600502016004868154811061199957fe5b60009182526020909120825460059092020180546001600160a01b0319166001600160a01b039092169190911781556001808301549082015560028083015490820155600380830154908201556004918201549101555b6004805490611a03906000198301611d5b565b50611a8e565b60048581548110611a1657fe5b6000918252602090912060059091020154600480546001600160a01b039092169550879350839187908110611a4757fe5b9060005260206000209060050201600401540360048681548110611a6757fe5b90600052602060002090600502016004018190555081876080015102905060009550600192505b8215611bf0576040805160c0810182526001600160a01b038087168252336020830190815282840186815260608401868152948c01516080850190815260a0808e015190860190815260058054600181018255600091909152955160069096027f036b6384b5eca791c62761152d0c79bb0604c104a5fb6f4eb0703f3154bb3db0810180549787166001600160a01b031998891617905593517f036b6384b5eca791c62761152d0c79bb0604c104a5fb6f4eb0703f3154bb3db18501805491909616961695909517909355517f036b6384b5eca791c62761152d0c79bb0604c104a5fb6f4eb0703f3154bb3db282015592517f036b6384b5eca791c62761152d0c79bb0604c104a5fb6f4eb0703f3154bb3db3840155517f036b6384b5eca791c62761152d0c79bb0604c104a5fb6f4eb0703f3154bb3db4830155517f036b6384b5eca791c62761152d0c79bb0604c104a5fb6f4eb0703f3154bb3db5909101555b85611ca15760075460011015611c8e57600780546000198101908110611c1257fe5b906000526020600020906006020160078681548110611c2d57fe5b60009182526020909120825460069092020180546001600160a01b0319166001600160a01b03909216919091178155600180830154908201556002808301549082015560038083015490820155600480830154908201556005918201549101555b60078054906116e8906000198301611d2f565b5050600190920191506117429050565b828054600181600116156101000203166002900490600052602060002090601f016020900481019282601f10611cf257805160ff1916838001178555611d1f565b82800160010185558215611d1f579182015b82811115611d1f578251825591602001919060010190611d04565b50611d2b929150611d87565b5090565b815481835581811115610f9f57600602816006028360005260206000209182019101610f9f9190611da1565b815481835581811115610f9f57600502816005028360005260206000209182019101610f9f9190611de8565b61068791905b80821115611d2b5760008155600101611d8d565b61068791905b80821115611d2b5780546001600160a01b03191681556000600182018190556002820181905560038201819055600482018190556005820155600601611da7565b61068791905b80821115611d2b5780546001600160a01b031916815560006001820181905560028201819055600382018190556004820155600501611dee565b8035611e338161271c565b92915050565b600082601f830112611e4a57600080fd5b8135611e5d611e5882612683565b61265c565b91508082526020830160208301858383011115611e7957600080fd5b611e848382846126da565b50505092915050565b8035611e3381612733565b600060208284031215611eaa57600080fd5b6000611eb68484611e28565b949350505050565b60008060408385031215611ed157600080fd5b6000611edd8585611e28565b925050602083013567ffffffffffffffff811115611efa57600080fd5b611f0685828601611e39565b9150509250929050565b600080600060608486031215611f2557600080fd5b6000611f318686611e28565b9350506020611f4286828701611e8d565b9250506040611f5386828701611e8d565b9150509250925092565b60008060408385031215611f7057600080fd5b823567ffffffffffffffff811115611f8757600080fd5b611f9385828601611e39565b9250506020611f0685828601611e8d565b600060208284031215611fb657600080fd5b6000611eb68484611e8d565b60008060408385031215611fd557600080fd5b6000611f938585611e8d565b600080600060608486031215611ff657600080fd5b6000611f318686611e8d565b600061200e8383612381565b505060a00190565b600061202283836123e4565b9392505050565b60006120358383612453565b505060c00190565b600061203583836124c3565b612052816126be565b82525050565b6000612063826126b1565b61206d81856126b5565b9350612078836126ab565b8060005b838110156120a65781516120908882612002565b975061209b836126ab565b92505060010161207c565b509495945050505050565b60006120bc826126b1565b6120c681856126b5565b9350836020820285016120d8856126ab565b8060005b8581101561211257848403895281516120f58582612016565b9450612100836126ab565b60209a909a01999250506001016120dc565b5091979650505050505050565b600061212a826126b1565b61213481856126b5565b935061213f836126ab565b8060005b838110156120a65781516121578882612029565b9750612162836126ab565b925050600101612143565b6000612178826126b1565b61218281856126b5565b935061218d836126ab565b8060005b838110156120a65781516121a5888261203d565b97506121b0836126ab565b925050600101612191565b612052816126c9565b60006121cf826126b1565b6121d981856126b5565b93506121e98185602086016126e6565b6121f281612712565b9093019392505050565b6000612209601d836126b5565b7f5468657265206973206e6f206f66666572206f6e207468697320646179000000815260200192915050565b60006122426033836126b5565b7f57726f6e6720656e6572677920696e70757420726571756972652061206d696e8152720d2daeada40decccccae440decc406240d6aed606b1b602082015260400192915050565b60006122976010836126b5565b6f15dc9bdb99c810985d1d195c9e48125960821b815260200192915050565b60006122c3600b836126b5565b6a0aee4dedcce40d2dcc8caf60ab1b815260200192915050565b60006122ea6025836126b5565b7f4f6e6c7920726567697374657265642062617474657269657320686176652061815264636365737360d81b602082015260400192915050565b60006123316008836126b5565b6715dc9bdb99c8125160c21b815260200192915050565b6000612355601d836126b5565b7f426174746572792064657461696c7320616c7265616479206164646564000000815260200192915050565b805160a08301906123928482612049565b5060208201516123a560208501826124e7565b5060408201516123b860408501826124e7565b5060608201516123cb60608501826124e7565b5060808201516123de60808501826124e7565b50505050565b805160009060a08401906123f88582612049565b506020830151848203602086015261241082826121c4565b915050604083015161242560408601826124e7565b50606083015161243860608601826124e7565b50608083015161244b60808601826121bb565b509392505050565b805160c08301906124648482612049565b50602082015161247760208501826124e7565b50604082015161248a60408501826124e7565b50606082015161249d60608501826124e7565b5060808201516124b060808501826124e7565b5060a08201516123de60a08501826124e7565b805160c08301906124d48482612049565b5060208201516124776020850182612049565b61205281610687565b606081016124fe8286612049565b818103602083015261251081856121c4565b9050611eb660408301846124e7565b6080810161252d8287612049565b818103602083015261253f81866121c4565b905061254e60408301856124e7565b61255b60608301846124e7565b95945050505050565b606081016125728286612049565b61257f60208301856124e7565b611eb660408301846124e7565b602080825281016120228184612058565b6020808252810161202281846120b1565b60208082528101612022818461211f565b60208082528101612022818461216d565b60208082528101611e33816121fc565b60208082528101611e3381612235565b60208082528101611e338161228a565b60208082528101611e33816122b6565b60208082528101611e33816122dd565b60208082528101611e3381612324565b60208082528101611e3381612348565b60208101611e3382846124e7565b6060810161257282866124e7565b60405181810167ffffffffffffffff8111828210171561267b57600080fd5b604052919050565b600067ffffffffffffffff82111561269a57600080fd5b506020601f91909101601f19160190565b60200190565b5190565b90815260200190565b6000611e33826126ce565b151590565b6001600160a01b031690565b82818337506000910152565b60005b838110156127015781810151838201526020016126e9565b838111156123de5750506000910152565b601f01601f191690565b612725816126be565b811461273057600080fd5b50565b6127258161068756fea365627a7a7231582097dafdce09207a973e68fbc30abcbdc28ef851e3910f736a04a23536c0871e236c6578706572696d656e74616cf564736f6c63430005100040",
			"opcodes": "PUSH1 0x80 PUSH1 0x40 MSTORE PUSH1 0x0 DUP1 SLOAD PUSH1 0x1 PUSH1 0x1 PUSH1 0xA0 SHL SUB NOT AND CALLER OR SWAP1 SSTORE PUSH2 0x277F DUP1 PUSH2 0x25 PUSH1 0x0 CODECOPY PUSH1 0x0 RETURN INVALID PUSH1 0x80 PUSH1 0x40 MSTORE CALLVALUE DUP1 ISZERO PUSH2 0x10 JUMPI PUSH1 0x0 DUP1 REVERT JUMPDEST POP PUSH1 0x4 CALLDATASIZE LT PUSH2 0x10B JUMPI PUSH1 0x0 CALLDATALOAD PUSH1 0xE0 SHR DUP1 PUSH4 0x87BDB206 GT PUSH2 0xA2 JUMPI DUP1 PUSH4 0xC26D4CE6 GT PUSH2 0x71 JUMPI DUP1 PUSH4 0xC26D4CE6 EQ PUSH2 0x21E JUMPI DUP1 PUSH4 0xC9FB8578 EQ PUSH2 0x233 JUMPI DUP1 PUSH4 0xD4EED50F EQ PUSH2 0x256 JUMPI DUP1 PUSH4 0xE204DACC EQ PUSH2 0x269 JUMPI DUP1 PUSH4 0xEEFA716B EQ PUSH2 0x27C JUMPI PUSH2 0x10B JUMP JUMPDEST DUP1 PUSH4 0x87BDB206 EQ PUSH2 0x1E4 JUMPI DUP1 PUSH4 0x9521DB24 EQ PUSH2 0x1F9 JUMPI DUP1 PUSH4 0xA426C768 EQ PUSH2 0x201 JUMPI DUP1 PUSH4 0xB47C7741 EQ PUSH2 0x209 JUMPI PUSH2 0x10B JUMP JUMPDEST DUP1 PUSH4 0x5B4CF93C GT PUSH2 0xDE JUMPI DUP1 PUSH4 0x5B4CF93C EQ PUSH2 0x178 JUMPI DUP1 PUSH4 0x62E9A430 EQ PUSH2 0x18D JUMPI DUP1 PUSH4 0x844CBC79 EQ PUSH2 0x1A0 JUMPI DUP1 PUSH4 0x8617F9A9 EQ PUSH2 0x1C2 JUMPI PUSH2 0x10B JUMP JUMPDEST DUP1 PUSH4 0x3B473AD EQ PUSH2 0x110 JUMPI DUP1 PUSH4 0x1779E7FB EQ PUSH2 0x13B JUMPI DUP1 PUSH4 0x18F74A60 EQ PUSH2 0x150 JUMPI DUP1 PUSH4 0x44DA1A94 EQ PUSH2 0x163 JUMPI JUMPDEST PUSH1 0x0 DUP1 REVERT JUMPDEST PUSH2 0x123 PUSH2 0x11E CALLDATASIZE PUSH1 0x4 PUSH2 0x1FA4 JUMP JUMPDEST PUSH2 0x28F JUMP JUMPDEST PUSH1 0x40 MLOAD PUSH2 0x132 SWAP4 SWAP3 SWAP2 SWAP1 PUSH2 0x2564 JUMP JUMPDEST PUSH1 0x40 MLOAD DUP1 SWAP2 SUB SWAP1 RETURN JUMPDEST PUSH2 0x14E PUSH2 0x149 CALLDATASIZE PUSH1 0x4 PUSH2 0x1F5D JUMP JUMPDEST PUSH2 0x2D6 JUMP JUMPDEST STOP JUMPDEST PUSH2 0x14E PUSH2 0x15E CALLDATASIZE PUSH1 0x4 PUSH2 0x1FC2 JUMP JUMPDEST PUSH2 0x4A0 JUMP JUMPDEST PUSH2 0x16B PUSH2 0x683 JUMP JUMPDEST PUSH1 0x40 MLOAD PUSH2 0x132 SWAP2 SWAP1 PUSH2 0x2640 JUMP JUMPDEST PUSH2 0x180 PUSH2 0x68A JUMP JUMPDEST PUSH1 0x40 MLOAD PUSH2 0x132 SWAP2 SWAP1 PUSH2 0x25AE JUMP JUMPDEST PUSH2 0x123 PUSH2 0x19B CALLDATASIZE PUSH1 0x4 PUSH2 0x1E98 JUMP JUMPDEST PUSH2 0x728 JUMP JUMPDEST PUSH2 0x1B3 PUSH2 0x1AE CALLDATASIZE PUSH1 0x4 PUSH2 0x1FA4 JUMP JUMPDEST PUSH2 0x82B JUMP JUMPDEST PUSH1 0x40 MLOAD PUSH2 0x132 SWAP4 SWAP3 SWAP2 SWAP1 PUSH2 0x24F0 JUMP JUMPDEST PUSH2 0x1D5 PUSH2 0x1D0 CALLDATASIZE PUSH1 0x4 PUSH2 0x1F10 JUMP JUMPDEST PUSH2 0x906 JUMP JUMPDEST PUSH1 0x40 MLOAD PUSH2 0x132 SWAP4 SWAP3 SWAP2 SWAP1 PUSH2 0x264E JUMP JUMPDEST PUSH2 0x1EC PUSH2 0xA4F JUMP JUMPDEST PUSH1 0x40 MLOAD PUSH2 0x132 SWAP2 SWAP1 PUSH2 0x258C JUMP JUMPDEST PUSH2 0x16B PUSH2 0xADA JUMP JUMPDEST PUSH2 0x16B PUSH2 0xAE0 JUMP JUMPDEST PUSH2 0x211 PUSH2 0xAE6 JUMP JUMPDEST PUSH1 0x40 MLOAD PUSH2 0x132 SWAP2 SWAP1 PUSH2 0x259D JUMP JUMPDEST PUSH2 0x226 PUSH2 0xC0E JUMP JUMPDEST PUSH1 0x40 MLOAD PUSH2 0x132 SWAP2 SWAP1 PUSH2 0x25BF JUMP JUMPDEST PUSH2 0x246 PUSH2 0x241 CALLDATASIZE PUSH1 0x4 PUSH2 0x1E98 JUMP JUMPDEST PUSH2 0xCA8 JUMP JUMPDEST PUSH1 0x40 MLOAD PUSH2 0x132 SWAP5 SWAP4 SWAP3 SWAP2 SWAP1 PUSH2 0x251F JUMP JUMPDEST PUSH2 0x14E PUSH2 0x264 CALLDATASIZE PUSH1 0x4 PUSH2 0x1FE1 JUMP JUMPDEST PUSH2 0xD7B JUMP JUMPDEST PUSH2 0x123 PUSH2 0x277 CALLDATASIZE PUSH1 0x4 PUSH2 0x1FA4 JUMP JUMPDEST PUSH2 0xFA4 JUMP JUMPDEST PUSH2 0x14E PUSH2 0x28A CALLDATASIZE PUSH1 0x4 PUSH2 0x1EBE JUMP JUMPDEST PUSH2 0xFEB JUMP JUMPDEST PUSH1 0x0 DUP1 PUSH1 0x0 DUP1 PUSH1 0x4 DUP6 DUP2 SLOAD DUP2 LT PUSH2 0x2A2 JUMPI INVALID JUMPDEST PUSH1 0x0 SWAP2 DUP3 MSTORE PUSH1 0x20 SWAP1 SWAP2 KECCAK256 PUSH1 0x5 SWAP1 SWAP2 MUL ADD DUP1 SLOAD PUSH1 0x3 DUP3 ADD SLOAD PUSH1 0x1 SWAP1 SWAP3 ADD SLOAD PUSH1 0x1 PUSH1 0x1 PUSH1 0xA0 SHL SUB SWAP1 SWAP2 AND SWAP8 SWAP2 SWAP7 POP SWAP5 POP SWAP3 POP POP POP JUMP JUMPDEST CALLER PUSH1 0x0 SWAP1 DUP2 MSTORE PUSH1 0x1 PUSH1 0x20 MSTORE PUSH1 0x40 SWAP1 KECCAK256 PUSH1 0x4 ADD SLOAD PUSH1 0xFF AND ISZERO PUSH2 0x312 JUMPI PUSH1 0x40 MLOAD PUSH3 0x461BCD PUSH1 0xE5 SHL DUP2 MSTORE PUSH1 0x4 ADD PUSH2 0x309 SWAP1 PUSH2 0x2630 JUMP JUMPDEST PUSH1 0x40 MLOAD DUP1 SWAP2 SUB SWAP1 REVERT JUMPDEST PUSH1 0x40 DUP1 MLOAD PUSH1 0xA0 DUP2 ADD DUP3 MSTORE CALLER DUP1 DUP3 MSTORE PUSH1 0x20 DUP1 DUP4 ADD DUP7 DUP2 MSTORE DUP4 DUP6 ADD DUP7 SWAP1 MSTORE TIMESTAMP PUSH1 0x60 DUP6 ADD MSTORE PUSH1 0x1 PUSH1 0x80 DUP6 ADD DUP2 SWAP1 MSTORE PUSH1 0x0 SWAP4 DUP5 MSTORE DUP1 DUP4 MSTORE SWAP5 SWAP1 SWAP3 KECCAK256 DUP4 MLOAD DUP2 SLOAD PUSH1 0x1 PUSH1 0x1 PUSH1 0xA0 SHL SUB NOT AND PUSH1 0x1 PUSH1 0x1 PUSH1 0xA0 SHL SUB SWAP1 SWAP2 AND OR DUP2 SSTORE SWAP2 MLOAD DUP1 MLOAD SWAP4 SWAP5 SWAP3 SWAP4 PUSH2 0x37E SWAP4 DUP6 ADD SWAP3 SWAP2 SWAP1 SWAP2 ADD SWAP1 PUSH2 0x1CB1 JUMP JUMPDEST POP PUSH1 0x40 DUP3 DUP2 ADD MLOAD PUSH1 0x2 DUP4 DUP2 ADD SWAP2 SWAP1 SWAP2 SSTORE PUSH1 0x60 DUP1 DUP6 ADD MLOAD PUSH1 0x3 DUP6 ADD SSTORE PUSH1 0x80 SWAP5 DUP6 ADD MLOAD PUSH1 0x4 SWAP1 SWAP5 ADD DUP1 SLOAD PUSH1 0xFF NOT AND SWAP5 ISZERO ISZERO SWAP5 SWAP1 SWAP5 OR SWAP1 SWAP4 SSTORE DUP2 MLOAD PUSH1 0xA0 DUP2 ADD DUP4 MSTORE CALLER DUP2 MSTORE PUSH1 0x20 DUP1 DUP3 ADD DUP9 DUP2 MSTORE SWAP4 DUP3 ADD DUP8 SWAP1 MSTORE TIMESTAMP SWAP5 DUP3 ADD SWAP5 SWAP1 SWAP5 MSTORE PUSH1 0x1 SWAP5 DUP2 ADD DUP6 SWAP1 MSTORE DUP2 SLOAD SWAP5 DUP6 ADD DUP1 DUP4 SSTORE PUSH1 0x0 SWAP3 SWAP1 SWAP3 MSTORE DUP1 MLOAD PUSH32 0x405787FA12A823E0F2B7631CC41B3BA8828B3321CA811111FA75CD3AA3BB5ACE PUSH1 0x5 SWAP1 SWAP7 MUL SWAP6 DUP7 ADD DUP1 SLOAD PUSH1 0x1 PUSH1 0x1 PUSH1 0xA0 SHL SUB NOT AND PUSH1 0x1 PUSH1 0x1 PUSH1 0xA0 SHL SUB SWAP1 SWAP3 AND SWAP2 SWAP1 SWAP2 OR DUP2 SSTORE SWAP3 MLOAD DUP1 MLOAD SWAP3 SWAP6 SWAP2 SWAP5 PUSH2 0x46C SWAP4 PUSH32 0x405787FA12A823E0F2B7631CC41B3BA8828B3321CA811111FA75CD3AA3BB5ACF SWAP1 SWAP4 ADD SWAP3 SWAP2 ADD SWAP1 PUSH2 0x1CB1 JUMP JUMPDEST POP PUSH1 0x40 DUP3 ADD MLOAD PUSH1 0x2 DUP3 ADD SSTORE PUSH1 0x60 DUP3 ADD MLOAD PUSH1 0x3 DUP3 ADD SSTORE PUSH1 0x80 SWAP1 SWAP2 ADD MLOAD PUSH1 0x4 SWAP1 SWAP2 ADD DUP1 SLOAD PUSH1 0xFF NOT AND SWAP2 ISZERO ISZERO SWAP2 SWAP1 SWAP2 OR SWAP1 SSTORE POP POP POP JUMP JUMPDEST CALLER PUSH1 0x0 SWAP1 DUP2 MSTORE PUSH1 0x1 PUSH1 0x20 DUP2 SWAP1 MSTORE PUSH1 0x40 SWAP1 SWAP2 KECCAK256 PUSH1 0x4 ADD SLOAD PUSH1 0xFF AND ISZERO ISZERO EQ PUSH2 0x4D8 JUMPI PUSH1 0x40 MLOAD PUSH3 0x461BCD PUSH1 0xE5 SHL DUP2 MSTORE PUSH1 0x4 ADD PUSH2 0x309 SWAP1 PUSH2 0x2610 JUMP JUMPDEST PUSH1 0x1 DUP2 LT ISZERO PUSH2 0x4F9 JUMPI PUSH1 0x40 MLOAD PUSH3 0x461BCD PUSH1 0xE5 SHL DUP2 MSTORE PUSH1 0x4 ADD PUSH2 0x309 SWAP1 PUSH2 0x25E0 JUMP JUMPDEST PUSH1 0x40 DUP1 MLOAD PUSH1 0xA0 DUP2 ADD DUP3 MSTORE CALLER DUP2 MSTORE PUSH1 0x20 DUP2 ADD DUP4 DUP2 MSTORE TIMESTAMP SWAP3 DUP3 ADD SWAP3 DUP4 MSTORE PUSH1 0x60 DUP3 ADD DUP6 DUP2 MSTORE PUSH1 0x80 DUP4 ADD DUP6 DUP2 MSTORE PUSH1 0x4 DUP1 SLOAD PUSH1 0x1 DUP2 ADD DUP3 SSTORE PUSH1 0x0 DUP3 SWAP1 MSTORE SWAP5 MLOAD PUSH32 0x8A35ACFBC15FF81A39AE7D344FD709F28E8600B4AA8C65C6B64BFE7FE36BD19B PUSH1 0x5 SWAP1 SWAP7 MUL SWAP6 DUP7 ADD DUP1 SLOAD PUSH1 0x1 PUSH1 0x1 PUSH1 0xA0 SHL SUB NOT AND PUSH1 0x1 PUSH1 0x1 PUSH1 0xA0 SHL SUB SWAP1 SWAP3 AND SWAP2 SWAP1 SWAP2 OR SWAP1 SSTORE SWAP3 MLOAD PUSH32 0x8A35ACFBC15FF81A39AE7D344FD709F28E8600B4AA8C65C6B64BFE7FE36BD19C DUP6 ADD SSTORE SWAP4 MLOAD PUSH32 0x8A35ACFBC15FF81A39AE7D344FD709F28E8600B4AA8C65C6B64BFE7FE36BD19D DUP5 ADD SSTORE MLOAD PUSH32 0x8A35ACFBC15FF81A39AE7D344FD709F28E8600B4AA8C65C6B64BFE7FE36BD19E DUP4 ADD SSTORE SWAP2 MLOAD PUSH32 0x8A35ACFBC15FF81A39AE7D344FD709F28E8600B4AA8C65C6B64BFE7FE36BD19F SWAP1 SWAP2 ADD SSTORE DUP1 SLOAD PUSH2 0x67F SWAP2 SWAP1 PUSH1 0x0 NOT DUP2 ADD SWAP1 DUP2 LT PUSH2 0x626 JUMPI INVALID JUMPDEST PUSH1 0x0 SWAP2 DUP3 MSTORE PUSH1 0x20 SWAP2 DUP3 SWAP1 KECCAK256 PUSH1 0x40 DUP1 MLOAD PUSH1 0xA0 DUP2 ADD DUP3 MSTORE PUSH1 0x5 SWAP1 SWAP4 MUL SWAP1 SWAP2 ADD DUP1 SLOAD PUSH1 0x1 PUSH1 0x1 PUSH1 0xA0 SHL SUB AND DUP4 MSTORE PUSH1 0x1 DUP2 ADD SLOAD SWAP4 DUP4 ADD SWAP4 SWAP1 SWAP4 MSTORE PUSH1 0x2 DUP4 ADD SLOAD SWAP1 DUP3 ADD MSTORE PUSH1 0x3 DUP3 ADD SLOAD PUSH1 0x60 DUP3 ADD MSTORE PUSH1 0x4 SWAP1 SWAP2 ADD SLOAD PUSH1 0x80 DUP3 ADD MSTORE PUSH2 0x10D3 JUMP JUMPDEST POP POP JUMP JUMPDEST PUSH1 0x2 SLOAD JUMPDEST SWAP1 JUMP JUMPDEST PUSH1 0x60 PUSH1 0x7 DUP1 SLOAD DUP1 PUSH1 0x20 MUL PUSH1 0x20 ADD PUSH1 0x40 MLOAD SWAP1 DUP2 ADD PUSH1 0x40 MSTORE DUP1 SWAP3 SWAP2 SWAP1 DUP2 DUP2 MSTORE PUSH1 0x20 ADD PUSH1 0x0 SWAP1 JUMPDEST DUP3 DUP3 LT ISZERO PUSH2 0x71F JUMPI PUSH1 0x0 DUP5 DUP2 MSTORE PUSH1 0x20 SWAP1 DUP2 SWAP1 KECCAK256 PUSH1 0x40 DUP1 MLOAD PUSH1 0xC0 DUP2 ADD DUP3 MSTORE PUSH1 0x6 DUP7 MUL SWAP1 SWAP3 ADD DUP1 SLOAD PUSH1 0x1 PUSH1 0x1 PUSH1 0xA0 SHL SUB AND DUP4 MSTORE PUSH1 0x1 DUP1 DUP3 ADD SLOAD DUP5 DUP7 ADD MSTORE PUSH1 0x2 DUP3 ADD SLOAD SWAP3 DUP5 ADD SWAP3 SWAP1 SWAP3 MSTORE PUSH1 0x3 DUP2 ADD SLOAD PUSH1 0x60 DUP5 ADD MSTORE PUSH1 0x4 DUP2 ADD SLOAD PUSH1 0x80 DUP5 ADD MSTORE PUSH1 0x5 ADD SLOAD PUSH1 0xA0 DUP4 ADD MSTORE SWAP1 DUP4 MSTORE SWAP1 SWAP3 ADD SWAP2 ADD PUSH2 0x6AE JUMP JUMPDEST POP POP POP POP SWAP1 POP SWAP1 JUMP JUMPDEST PUSH1 0x1 PUSH1 0x1 PUSH1 0xA0 SHL SUB DUP2 AND PUSH1 0x0 SWAP1 DUP2 MSTORE PUSH1 0x3 PUSH1 0x20 MSTORE PUSH1 0x40 DUP2 KECCAK256 SLOAD PUSH1 0x4 SLOAD DUP3 SWAP2 DUP3 SWAP2 DUP2 LT PUSH2 0x766 JUMPI PUSH1 0x40 MLOAD PUSH3 0x461BCD PUSH1 0xE5 SHL DUP2 MSTORE PUSH1 0x4 ADD PUSH2 0x309 SWAP1 PUSH2 0x2600 JUMP JUMPDEST DUP5 PUSH1 0x1 PUSH1 0x1 PUSH1 0xA0 SHL SUB AND PUSH1 0x4 DUP3 DUP2 SLOAD DUP2 LT PUSH2 0x77D JUMPI INVALID JUMPDEST PUSH1 0x0 SWAP2 DUP3 MSTORE PUSH1 0x20 SWAP1 SWAP2 KECCAK256 PUSH1 0x5 SWAP1 SWAP2 MUL ADD SLOAD PUSH1 0x1 PUSH1 0x1 PUSH1 0xA0 SHL SUB AND EQ PUSH2 0x7B4 JUMPI PUSH1 0x40 MLOAD PUSH3 0x461BCD PUSH1 0xE5 SHL DUP2 MSTORE PUSH1 0x4 ADD PUSH2 0x309 SWAP1 PUSH2 0x25F0 JUMP JUMPDEST PUSH1 0x4 DUP2 DUP2 SLOAD DUP2 LT PUSH2 0x7C1 JUMPI INVALID JUMPDEST PUSH1 0x0 SWAP2 DUP3 MSTORE PUSH1 0x20 SWAP1 SWAP2 KECCAK256 PUSH1 0x5 SWAP1 SWAP2 MUL ADD SLOAD PUSH1 0x4 DUP1 SLOAD PUSH1 0x1 PUSH1 0x1 PUSH1 0xA0 SHL SUB SWAP1 SWAP3 AND SWAP2 DUP4 SWAP1 DUP2 LT PUSH2 0x7EC JUMPI INVALID JUMPDEST SWAP1 PUSH1 0x0 MSTORE PUSH1 0x20 PUSH1 0x0 KECCAK256 SWAP1 PUSH1 0x5 MUL ADD PUSH1 0x3 ADD SLOAD PUSH1 0x4 DUP4 DUP2 SLOAD DUP2 LT PUSH2 0x80B JUMPI INVALID JUMPDEST SWAP1 PUSH1 0x0 MSTORE PUSH1 0x20 PUSH1 0x0 KECCAK256 SWAP1 PUSH1 0x5 MUL ADD PUSH1 0x1 ADD SLOAD SWAP4 POP SWAP4 POP SWAP4 POP POP SWAP2 SWAP4 SWAP1 SWAP3 POP JUMP JUMPDEST PUSH1 0x0 PUSH1 0x60 PUSH1 0x0 DUP1 PUSH1 0x2 DUP6 DUP2 SLOAD DUP2 LT PUSH2 0x83F JUMPI INVALID JUMPDEST PUSH1 0x0 SWAP2 DUP3 MSTORE PUSH1 0x20 SWAP2 DUP3 SWAP1 KECCAK256 PUSH1 0x5 SWAP1 SWAP2 MUL ADD DUP1 SLOAD PUSH1 0x2 DUP1 DUP4 ADD SLOAD PUSH1 0x1 DUP1 DUP6 ADD DUP1 SLOAD PUSH1 0x40 DUP1 MLOAD PUSH1 0x1F PUSH1 0x0 NOT SWAP6 DUP5 AND ISZERO PUSH2 0x100 MUL SWAP6 SWAP1 SWAP6 ADD SWAP1 SWAP3 AND SWAP6 SWAP1 SWAP6 DIV SWAP3 DUP4 ADD DUP9 SWAP1 DIV DUP9 MUL DUP2 ADD DUP9 ADD SWAP1 SWAP5 MSTORE DUP2 DUP5 MSTORE SWAP5 SWAP7 POP PUSH1 0x1 PUSH1 0x1 PUSH1 0xA0 SHL SUB SWAP1 SWAP4 AND SWAP5 SWAP1 SWAP3 DUP5 SWAP2 DUP4 ADD DUP3 DUP3 DUP1 ISZERO PUSH2 0x8F1 JUMPI DUP1 PUSH1 0x1F LT PUSH2 0x8C6 JUMPI PUSH2 0x100 DUP1 DUP4 SLOAD DIV MUL DUP4 MSTORE SWAP2 PUSH1 0x20 ADD SWAP2 PUSH2 0x8F1 JUMP JUMPDEST DUP3 ADD SWAP2 SWAP1 PUSH1 0x0 MSTORE PUSH1 0x20 PUSH1 0x0 KECCAK256 SWAP1 JUMPDEST DUP2 SLOAD DUP2 MSTORE SWAP1 PUSH1 0x1 ADD SWAP1 PUSH1 0x20 ADD DUP1 DUP4 GT PUSH2 0x8D4 JUMPI DUP3 SWAP1 SUB PUSH1 0x1F AND DUP3 ADD SWAP2 JUMPDEST POP POP POP POP POP SWAP2 POP SWAP4 POP SWAP4 POP SWAP4 POP POP SWAP2 SWAP4 SWAP1 SWAP3 POP JUMP JUMPDEST PUSH1 0x1 PUSH1 0x1 PUSH1 0xA0 SHL SUB DUP4 AND PUSH1 0x0 SWAP1 DUP2 MSTORE PUSH1 0x6 PUSH1 0x20 SWAP1 DUP2 MSTORE PUSH1 0x40 DUP1 DUP4 KECCAK256 DUP6 DUP5 MSTORE DUP3 MSTORE DUP1 DUP4 KECCAK256 DUP5 DUP5 MSTORE SWAP1 SWAP2 MSTORE DUP2 KECCAK256 SLOAD PUSH1 0x7 SLOAD DUP3 SWAP2 DUP3 SWAP2 DUP2 LT PUSH2 0x957 JUMPI PUSH1 0x40 MLOAD PUSH3 0x461BCD PUSH1 0xE5 SHL DUP2 MSTORE PUSH1 0x4 ADD PUSH2 0x309 SWAP1 PUSH2 0x2600 JUMP JUMPDEST DUP6 PUSH1 0x7 DUP3 DUP2 SLOAD DUP2 LT PUSH2 0x965 JUMPI INVALID JUMPDEST SWAP1 PUSH1 0x0 MSTORE PUSH1 0x20 PUSH1 0x0 KECCAK256 SWAP1 PUSH1 0x6 MUL ADD PUSH1 0x2 ADD SLOAD EQ PUSH2 0x994 JUMPI PUSH1 0x40 MLOAD PUSH3 0x461BCD PUSH1 0xE5 SHL DUP2 MSTORE PUSH1 0x4 ADD PUSH2 0x309 SWAP1 PUSH2 0x25D0 JUMP JUMPDEST DUP7 PUSH1 0x1 PUSH1 0x1 PUSH1 0xA0 SHL SUB AND PUSH1 0x7 DUP3 DUP2 SLOAD DUP2 LT PUSH2 0x9AB JUMPI INVALID JUMPDEST PUSH1 0x0 SWAP2 DUP3 MSTORE PUSH1 0x20 SWAP1 SWAP2 KECCAK256 PUSH1 0x6 SWAP1 SWAP2 MUL ADD SLOAD PUSH1 0x1 PUSH1 0x1 PUSH1 0xA0 SHL SUB AND EQ PUSH2 0x9E2 JUMPI PUSH1 0x40 MLOAD PUSH3 0x461BCD PUSH1 0xE5 SHL DUP2 MSTORE PUSH1 0x4 ADD PUSH2 0x309 SWAP1 PUSH2 0x2620 JUMP JUMPDEST PUSH1 0x7 DUP2 DUP2 SLOAD DUP2 LT PUSH2 0x9EF JUMPI INVALID JUMPDEST SWAP1 PUSH1 0x0 MSTORE PUSH1 0x20 PUSH1 0x0 KECCAK256 SWAP1 PUSH1 0x6 MUL ADD PUSH1 0x1 ADD SLOAD PUSH1 0x7 DUP3 DUP2 SLOAD DUP2 LT PUSH2 0xA0E JUMPI INVALID JUMPDEST SWAP1 PUSH1 0x0 MSTORE PUSH1 0x20 PUSH1 0x0 KECCAK256 SWAP1 PUSH1 0x6 MUL ADD PUSH1 0x2 ADD SLOAD PUSH1 0x7 DUP4 DUP2 SLOAD DUP2 LT PUSH2 0xA2D JUMPI INVALID JUMPDEST SWAP1 PUSH1 0x0 MSTORE PUSH1 0x20 PUSH1 0x0 KECCAK256 SWAP1 PUSH1 0x6 MUL ADD PUSH1 0x3 ADD SLOAD SWAP4 POP SWAP4 POP SWAP4 POP POP SWAP4 POP SWAP4 POP SWAP4 SWAP1 POP JUMP JUMPDEST PUSH1 0x60 PUSH1 0x4 DUP1 SLOAD DUP1 PUSH1 0x20 MUL PUSH1 0x20 ADD PUSH1 0x40 MLOAD SWAP1 DUP2 ADD PUSH1 0x40 MSTORE DUP1 SWAP3 SWAP2 SWAP1 DUP2 DUP2 MSTORE PUSH1 0x20 ADD PUSH1 0x0 SWAP1 JUMPDEST DUP3 DUP3 LT ISZERO PUSH2 0x71F JUMPI PUSH1 0x0 DUP5 DUP2 MSTORE PUSH1 0x20 SWAP1 DUP2 SWAP1 KECCAK256 PUSH1 0x40 DUP1 MLOAD PUSH1 0xA0 DUP2 ADD DUP3 MSTORE PUSH1 0x5 DUP7 MUL SWAP1 SWAP3 ADD DUP1 SLOAD PUSH1 0x1 PUSH1 0x1 PUSH1 0xA0 SHL SUB AND DUP4 MSTORE PUSH1 0x1 DUP1 DUP3 ADD SLOAD DUP5 DUP7 ADD MSTORE PUSH1 0x2 DUP3 ADD SLOAD SWAP3 DUP5 ADD SWAP3 SWAP1 SWAP3 MSTORE PUSH1 0x3 DUP2 ADD SLOAD PUSH1 0x60 DUP5 ADD MSTORE PUSH1 0x4 ADD SLOAD PUSH1 0x80 DUP4 ADD MSTORE SWAP1 DUP4 MSTORE SWAP1 SWAP3 ADD SWAP2 ADD PUSH2 0xA73 JUMP JUMPDEST PUSH1 0x7 SLOAD SWAP1 JUMP JUMPDEST PUSH1 0x4 SLOAD SWAP1 JUMP JUMPDEST PUSH1 0x60 PUSH1 0x2 DUP1 SLOAD DUP1 PUSH1 0x20 MUL PUSH1 0x20 ADD PUSH1 0x40 MLOAD SWAP1 DUP2 ADD PUSH1 0x40 MSTORE DUP1 SWAP3 SWAP2 SWAP1 DUP2 DUP2 MSTORE PUSH1 0x20 ADD PUSH1 0x0 SWAP1 JUMPDEST DUP3 DUP3 LT ISZERO PUSH2 0x71F JUMPI PUSH1 0x0 DUP5 DUP2 MSTORE PUSH1 0x20 SWAP1 DUP2 SWAP1 KECCAK256 PUSH1 0x40 DUP1 MLOAD PUSH1 0xA0 DUP2 ADD DUP3 MSTORE PUSH1 0x5 DUP7 MUL SWAP1 SWAP3 ADD DUP1 SLOAD PUSH1 0x1 PUSH1 0x1 PUSH1 0xA0 SHL SUB AND DUP4 MSTORE PUSH1 0x1 DUP1 DUP3 ADD DUP1 SLOAD DUP5 MLOAD PUSH1 0x2 PUSH2 0x100 SWAP5 DUP4 AND ISZERO SWAP5 SWAP1 SWAP5 MUL PUSH1 0x0 NOT ADD SWAP1 SWAP2 AND SWAP3 SWAP1 SWAP3 DIV PUSH1 0x1F DUP2 ADD DUP8 SWAP1 DIV DUP8 MUL DUP4 ADD DUP8 ADD SWAP1 SWAP5 MSTORE DUP4 DUP3 MSTORE SWAP4 SWAP5 SWAP2 SWAP4 DUP6 DUP4 ADD SWAP4 SWAP2 SWAP3 SWAP1 SWAP2 SWAP1 DUP4 ADD DUP3 DUP3 DUP1 ISZERO PUSH2 0xBCD JUMPI DUP1 PUSH1 0x1F LT PUSH2 0xBA2 JUMPI PUSH2 0x100 DUP1 DUP4 SLOAD DIV MUL DUP4 MSTORE SWAP2 PUSH1 0x20 ADD SWAP2 PUSH2 0xBCD JUMP JUMPDEST DUP3 ADD SWAP2 SWAP1 PUSH1 0x0 MSTORE PUSH1 0x20 PUSH1 0x0 KECCAK256 SWAP1 JUMPDEST DUP2 SLOAD DUP2 MSTORE SWAP1 PUSH1 0x1 ADD SWAP1 PUSH1 0x20 ADD DUP1 DUP4 GT PUSH2 0xBB0 JUMPI DUP3 SWAP1 SUB PUSH1 0x1F AND DUP3 ADD SWAP2 JUMPDEST POP POP POP SWAP2 DUP4 MSTORE POP POP PUSH1 0x2 DUP3 ADD SLOAD PUSH1 0x20 DUP1 DUP4 ADD SWAP2 SWAP1 SWAP2 MSTORE PUSH1 0x3 DUP4 ADD SLOAD PUSH1 0x40 DUP4 ADD MSTORE PUSH1 0x4 SWAP1 SWAP3 ADD SLOAD PUSH1 0xFF AND ISZERO ISZERO PUSH1 0x60 SWAP1 SWAP2 ADD MSTORE SWAP1 DUP3 MSTORE PUSH1 0x1 SWAP3 SWAP1 SWAP3 ADD SWAP2 ADD PUSH2 0xB0A JUMP JUMPDEST PUSH1 0x60 PUSH1 0x5 DUP1 SLOAD DUP1 PUSH1 0x20 MUL PUSH1 0x20 ADD PUSH1 0x40 MLOAD SWAP1 DUP2 ADD PUSH1 0x40 MSTORE DUP1 SWAP3 SWAP2 SWAP1 DUP2 DUP2 MSTORE PUSH1 0x20 ADD PUSH1 0x0 SWAP1 JUMPDEST DUP3 DUP3 LT ISZERO PUSH2 0x71F JUMPI PUSH1 0x0 DUP5 DUP2 MSTORE PUSH1 0x20 SWAP1 DUP2 SWAP1 KECCAK256 PUSH1 0x40 DUP1 MLOAD PUSH1 0xC0 DUP2 ADD DUP3 MSTORE PUSH1 0x6 DUP7 MUL SWAP1 SWAP3 ADD DUP1 SLOAD PUSH1 0x1 PUSH1 0x1 PUSH1 0xA0 SHL SUB SWAP1 DUP2 AND DUP5 MSTORE PUSH1 0x1 DUP1 DUP4 ADD SLOAD SWAP1 SWAP2 AND DUP5 DUP7 ADD MSTORE PUSH1 0x2 DUP3 ADD SLOAD SWAP3 DUP5 ADD SWAP3 SWAP1 SWAP3 MSTORE PUSH1 0x3 DUP2 ADD SLOAD PUSH1 0x60 DUP5 ADD MSTORE PUSH1 0x4 DUP2 ADD SLOAD PUSH1 0x80 DUP5 ADD MSTORE PUSH1 0x5 ADD SLOAD PUSH1 0xA0 DUP4 ADD MSTORE SWAP1 DUP4 MSTORE SWAP1 SWAP3 ADD SWAP2 ADD PUSH2 0xC32 JUMP JUMPDEST PUSH1 0x1 PUSH1 0x1 PUSH1 0xA0 SHL SUB DUP2 DUP2 AND PUSH1 0x0 SWAP1 DUP2 MSTORE PUSH1 0x1 PUSH1 0x20 DUP2 DUP2 MSTORE PUSH1 0x40 DUP1 DUP5 KECCAK256 DUP1 SLOAD PUSH1 0x3 DUP3 ADD SLOAD PUSH1 0x2 DUP1 DUP5 ADD SLOAD SWAP4 DUP8 ADD DUP1 SLOAD DUP7 MLOAD PUSH2 0x100 SWAP10 DUP3 AND ISZERO SWAP10 SWAP1 SWAP10 MUL PUSH1 0x0 NOT ADD AND SWAP2 SWAP1 SWAP2 DIV PUSH1 0x1F DUP2 ADD DUP8 SWAP1 DIV DUP8 MUL DUP9 ADD DUP8 ADD SWAP1 SWAP6 MSTORE DUP5 DUP8 MSTORE SWAP7 SWAP8 PUSH1 0x60 SWAP8 DUP10 SWAP8 DUP9 SWAP8 SWAP5 SWAP1 SWAP3 AND SWAP6 SWAP1 SWAP5 SWAP3 SWAP4 DUP6 SWAP2 SWAP1 DUP4 ADD DUP3 DUP3 DUP1 ISZERO PUSH2 0xD65 JUMPI DUP1 PUSH1 0x1F LT PUSH2 0xD3A JUMPI PUSH2 0x100 DUP1 DUP4 SLOAD DIV MUL DUP4 MSTORE SWAP2 PUSH1 0x20 ADD SWAP2 PUSH2 0xD65 JUMP JUMPDEST DUP3 ADD SWAP2 SWAP1 PUSH1 0x0 MSTORE PUSH1 0x20 PUSH1 0x0 KECCAK256 SWAP1 JUMPDEST DUP2 SLOAD DUP2 MSTORE SWAP1 PUSH1 0x1 ADD SWAP1 PUSH1 0x20 ADD DUP1 DUP4 GT PUSH2 0xD48 JUMPI DUP3 SWAP1 SUB PUSH1 0x1F AND DUP3 ADD SWAP2 JUMPDEST POP POP POP POP POP SWAP3 POP SWAP4 POP SWAP4 POP SWAP4 POP SWAP4 POP SWAP2 SWAP4 POP SWAP2 SWAP4 JUMP JUMPDEST CALLER PUSH1 0x0 SWAP1 DUP2 MSTORE PUSH1 0x1 PUSH1 0x20 DUP2 SWAP1 MSTORE PUSH1 0x40 SWAP1 SWAP2 KECCAK256 PUSH1 0x4 ADD SLOAD PUSH1 0xFF AND ISZERO ISZERO EQ PUSH2 0xDB3 JUMPI PUSH1 0x40 MLOAD PUSH3 0x461BCD PUSH1 0xE5 SHL DUP2 MSTORE PUSH1 0x4 ADD PUSH2 0x309 SWAP1 PUSH2 0x2610 JUMP JUMPDEST PUSH1 0x1 DUP3 LT ISZERO PUSH2 0xDD4 JUMPI PUSH1 0x40 MLOAD PUSH3 0x461BCD PUSH1 0xE5 SHL DUP2 MSTORE PUSH1 0x4 ADD PUSH2 0x309 SWAP1 PUSH2 0x25E0 JUMP JUMPDEST PUSH1 0x40 DUP1 MLOAD PUSH1 0xC0 DUP2 ADD DUP3 MSTORE CALLER DUP2 MSTORE PUSH1 0x8 DUP1 SLOAD PUSH1 0x20 DUP4 ADD SWAP1 DUP2 MSTORE SWAP3 DUP3 ADD DUP7 DUP2 MSTORE PUSH1 0x60 DUP4 ADD DUP7 DUP2 MSTORE PUSH1 0x80 DUP5 ADD DUP7 DUP2 MSTORE TIMESTAMP PUSH1 0xA0 DUP7 ADD SWAP1 DUP2 MSTORE PUSH1 0x7 DUP1 SLOAD PUSH1 0x1 DUP1 DUP3 ADD DUP4 SSTORE PUSH1 0x0 DUP4 SWAP1 MSTORE SWAP8 MLOAD PUSH32 0xA66CC928B5EDB82AF9BD49922954155AB7B0942694BEA4CE44661D9A8736C688 PUSH1 0x6 SWAP1 SWAP3 MUL SWAP2 DUP3 ADD DUP1 SLOAD PUSH1 0x1 PUSH1 0x1 PUSH1 0xA0 SHL SUB NOT AND PUSH1 0x1 PUSH1 0x1 PUSH1 0xA0 SHL SUB SWAP1 SWAP3 AND SWAP2 SWAP1 SWAP2 OR SWAP1 SSTORE SWAP8 MLOAD PUSH32 0xA66CC928B5EDB82AF9BD49922954155AB7B0942694BEA4CE44661D9A8736C689 DUP10 ADD SSTORE SWAP4 MLOAD PUSH32 0xA66CC928B5EDB82AF9BD49922954155AB7B0942694BEA4CE44661D9A8736C68A DUP9 ADD SSTORE SWAP2 MLOAD PUSH32 0xA66CC928B5EDB82AF9BD49922954155AB7B0942694BEA4CE44661D9A8736C68B DUP8 ADD SSTORE MLOAD PUSH32 0xA66CC928B5EDB82AF9BD49922954155AB7B0942694BEA4CE44661D9A8736C68C DUP7 ADD SSTORE MLOAD PUSH32 0xA66CC928B5EDB82AF9BD49922954155AB7B0942694BEA4CE44661D9A8736C68D SWAP1 SWAP5 ADD SWAP4 SWAP1 SWAP4 SSTORE DUP1 SLOAD SWAP1 SWAP2 ADD SWAP1 SSTORE DUP1 SLOAD PUSH2 0xF9F SWAP2 SWAP1 PUSH1 0x0 NOT DUP2 ADD SWAP1 DUP2 LT PUSH2 0xF3C JUMPI INVALID JUMPDEST PUSH1 0x0 SWAP2 DUP3 MSTORE PUSH1 0x20 SWAP2 DUP3 SWAP1 KECCAK256 PUSH1 0x40 DUP1 MLOAD PUSH1 0xC0 DUP2 ADD DUP3 MSTORE PUSH1 0x6 SWAP1 SWAP4 MUL SWAP1 SWAP2 ADD DUP1 SLOAD PUSH1 0x1 PUSH1 0x1 PUSH1 0xA0 SHL SUB AND DUP4 MSTORE PUSH1 0x1 DUP2 ADD SLOAD SWAP4 DUP4 ADD SWAP4 SWAP1 SWAP4 MSTORE PUSH1 0x2 DUP4 ADD SLOAD SWAP1 DUP3 ADD MSTORE PUSH1 0x3 DUP3 ADD SLOAD PUSH1 0x60 DUP3 ADD MSTORE PUSH1 0x4 DUP3 ADD SLOAD PUSH1 0x80 DUP3 ADD MSTORE PUSH1 0x5 SWAP1 SWAP2 ADD SLOAD PUSH1 0xA0 DUP3 ADD MSTORE PUSH2 0x1702 JUMP JUMPDEST POP POP POP JUMP JUMPDEST PUSH1 0x0 DUP1 PUSH1 0x0 DUP1 PUSH1 0x7 DUP6 DUP2 SLOAD DUP2 LT PUSH2 0xFB7 JUMPI INVALID JUMPDEST PUSH1 0x0 SWAP2 DUP3 MSTORE PUSH1 0x20 SWAP1 SWAP2 KECCAK256 PUSH1 0x6 SWAP1 SWAP2 MUL ADD DUP1 SLOAD PUSH1 0x2 DUP3 ADD SLOAD PUSH1 0x3 SWAP1 SWAP3 ADD SLOAD PUSH1 0x1 PUSH1 0x1 PUSH1 0xA0 SHL SUB SWAP1 SWAP2 AND SWAP8 SWAP2 SWAP7 POP SWAP5 POP SWAP3 POP POP POP JUMP JUMPDEST CALLER PUSH1 0x0 SWAP1 DUP2 MSTORE PUSH1 0x1 PUSH1 0x20 DUP2 SWAP1 MSTORE PUSH1 0x40 SWAP1 SWAP2 KECCAK256 PUSH1 0x4 ADD SLOAD PUSH1 0xFF AND ISZERO ISZERO EQ PUSH2 0x1023 JUMPI PUSH1 0x40 MLOAD PUSH3 0x461BCD PUSH1 0xE5 SHL DUP2 MSTORE PUSH1 0x4 ADD PUSH2 0x309 SWAP1 PUSH2 0x2610 JUMP JUMPDEST PUSH1 0x0 JUMPDEST PUSH1 0x2 SLOAD DUP2 LT ISZERO PUSH2 0xF9F JUMPI DUP3 PUSH1 0x1 PUSH1 0x1 PUSH1 0xA0 SHL SUB AND PUSH1 0x2 DUP3 DUP2 SLOAD DUP2 LT PUSH2 0x1047 JUMPI INVALID JUMPDEST PUSH1 0x0 SWAP2 DUP3 MSTORE PUSH1 0x20 SWAP1 SWAP2 KECCAK256 PUSH1 0x5 SWAP1 SWAP2 MUL ADD SLOAD PUSH1 0x1 PUSH1 0x1 PUSH1 0xA0 SHL SUB AND EQ ISZERO PUSH2 0x10CB JUMPI DUP2 PUSH1 0x2 DUP3 DUP2 SLOAD DUP2 LT PUSH2 0x1075 JUMPI INVALID JUMPDEST SWAP1 PUSH1 0x0 MSTORE PUSH1 0x20 PUSH1 0x0 KECCAK256 SWAP1 PUSH1 0x5 MUL ADD PUSH1 0x1 ADD SWAP1 DUP1 MLOAD SWAP1 PUSH1 0x20 ADD SWAP1 PUSH2 0x1099 SWAP3 SWAP2 SWAP1 PUSH2 0x1CB1 JUMP JUMPDEST POP PUSH1 0x1 PUSH1 0x1 PUSH1 0xA0 SHL SUB DUP4 AND PUSH1 0x0 SWAP1 DUP2 MSTORE PUSH1 0x1 PUSH1 0x20 DUP2 DUP2 MSTORE PUSH1 0x40 SWAP1 SWAP3 KECCAK256 DUP5 MLOAD PUSH2 0x10C9 SWAP4 SWAP2 SWAP1 SWAP3 ADD SWAP2 SWAP1 DUP6 ADD SWAP1 PUSH2 0x1CB1 JUMP JUMPDEST POP JUMPDEST PUSH1 0x1 ADD PUSH2 0x1026 JUMP JUMPDEST CALLER PUSH1 0x0 SWAP1 DUP2 MSTORE PUSH1 0x1 PUSH1 0x20 DUP2 SWAP1 MSTORE PUSH1 0x40 SWAP1 SWAP2 KECCAK256 PUSH1 0x4 ADD SLOAD PUSH1 0xFF AND ISZERO ISZERO EQ PUSH2 0x110B JUMPI PUSH1 0x40 MLOAD PUSH3 0x461BCD PUSH1 0xE5 SHL DUP2 MSTORE PUSH1 0x4 ADD PUSH2 0x309 SWAP1 PUSH2 0x2610 JUMP JUMPDEST PUSH1 0x80 DUP2 ADD MLOAD PUSH1 0x0 JUMPDEST PUSH1 0x7 SLOAD DUP2 LT ISZERO PUSH2 0xF9F JUMPI PUSH1 0x7 DUP1 SLOAD PUSH1 0x0 SWAP2 DUP3 SWAP2 DUP3 SWAP2 DUP3 SWAP2 DUP8 SWAP2 SWAP1 DUP8 SWAP1 DUP2 LT PUSH2 0x1137 JUMPI INVALID JUMPDEST SWAP1 PUSH1 0x0 MSTORE PUSH1 0x20 PUSH1 0x0 KECCAK256 SWAP1 PUSH1 0x6 MUL ADD PUSH1 0x3 ADD SLOAD LT ISZERO PUSH2 0x12E5 JUMPI PUSH1 0x7 DUP6 DUP2 SLOAD DUP2 LT PUSH2 0x115C JUMPI INVALID JUMPDEST PUSH1 0x0 SWAP2 DUP3 MSTORE PUSH1 0x20 SWAP1 SWAP2 KECCAK256 PUSH1 0x6 SWAP1 SWAP2 MUL ADD SLOAD PUSH1 0x7 DUP1 SLOAD PUSH1 0x1 PUSH1 0x1 PUSH1 0xA0 SHL SUB SWAP1 SWAP3 AND SWAP6 POP SWAP1 DUP7 SWAP1 DUP2 LT PUSH2 0x1189 JUMPI INVALID JUMPDEST SWAP1 PUSH1 0x0 MSTORE PUSH1 0x20 PUSH1 0x0 KECCAK256 SWAP1 PUSH1 0x6 MUL ADD PUSH1 0x3 ADD SLOAD SWAP2 POP PUSH1 0x7 DUP6 DUP2 SLOAD DUP2 LT PUSH2 0x11AA JUMPI INVALID JUMPDEST SWAP1 PUSH1 0x0 MSTORE PUSH1 0x20 PUSH1 0x0 KECCAK256 SWAP1 PUSH1 0x6 MUL ADD PUSH1 0x3 ADD SLOAD DUP7 SUB SWAP6 POP DUP6 PUSH1 0x4 DUP7 DUP2 SLOAD DUP2 LT PUSH2 0x11CE JUMPI INVALID JUMPDEST SWAP1 PUSH1 0x0 MSTORE PUSH1 0x20 PUSH1 0x0 KECCAK256 SWAP1 PUSH1 0x5 MUL ADD PUSH1 0x4 ADD DUP2 SWAP1 SSTORE POP DUP2 PUSH1 0x7 DUP7 DUP2 SLOAD DUP2 LT PUSH2 0x11F1 JUMPI INVALID JUMPDEST SWAP1 PUSH1 0x0 MSTORE PUSH1 0x20 PUSH1 0x0 KECCAK256 SWAP1 PUSH1 0x6 MUL ADD PUSH1 0x4 ADD SLOAD MUL SWAP1 POP PUSH1 0x0 PUSH1 0x7 DUP7 DUP2 SLOAD DUP2 LT PUSH2 0x1215 JUMPI INVALID JUMPDEST PUSH1 0x0 SWAP2 DUP3 MSTORE PUSH1 0x20 SWAP1 SWAP2 KECCAK256 PUSH1 0x3 PUSH1 0x6 SWAP1 SWAP3 MUL ADD ADD SSTORE PUSH1 0x7 SLOAD PUSH1 0x1 SWAP4 POP DUP4 LT ISZERO PUSH2 0x12C5 JUMPI PUSH1 0x7 DUP1 SLOAD PUSH1 0x0 NOT DUP2 ADD SWAP1 DUP2 LT PUSH2 0x1249 JUMPI INVALID JUMPDEST SWAP1 PUSH1 0x0 MSTORE PUSH1 0x20 PUSH1 0x0 KECCAK256 SWAP1 PUSH1 0x6 MUL ADD PUSH1 0x7 DUP7 DUP2 SLOAD DUP2 LT PUSH2 0x1264 JUMPI INVALID JUMPDEST PUSH1 0x0 SWAP2 DUP3 MSTORE PUSH1 0x20 SWAP1 SWAP2 KECCAK256 DUP3 SLOAD PUSH1 0x6 SWAP1 SWAP3 MUL ADD DUP1 SLOAD PUSH1 0x1 PUSH1 0x1 PUSH1 0xA0 SHL SUB NOT AND PUSH1 0x1 PUSH1 0x1 PUSH1 0xA0 SHL SUB SWAP1 SWAP3 AND SWAP2 SWAP1 SWAP2 OR DUP2 SSTORE PUSH1 0x1 DUP1 DUP4 ADD SLOAD SWAP1 DUP3 ADD SSTORE PUSH1 0x2 DUP1 DUP4 ADD SLOAD SWAP1 DUP3 ADD SSTORE PUSH1 0x3 DUP1 DUP4 ADD SLOAD SWAP1 DUP3 ADD SSTORE PUSH1 0x4 DUP1 DUP4 ADD SLOAD SWAP1 DUP3 ADD SSTORE PUSH1 0x5 SWAP2 DUP3 ADD SLOAD SWAP2 ADD SSTORE JUMPDEST PUSH1 0x7 DUP1 SLOAD SWAP1 PUSH2 0x12D8 SWAP1 PUSH1 0x0 NOT DUP4 ADD PUSH2 0x1D2F JUMP JUMPDEST POP PUSH1 0x0 NOT SWAP1 SWAP5 ADD SWAP4 PUSH2 0x14DE JUMP JUMPDEST DUP6 PUSH1 0x7 DUP7 DUP2 SLOAD DUP2 LT PUSH2 0x12F3 JUMPI INVALID JUMPDEST SWAP1 PUSH1 0x0 MSTORE PUSH1 0x20 PUSH1 0x0 KECCAK256 SWAP1 PUSH1 0x6 MUL ADD PUSH1 0x3 ADD SLOAD EQ ISZERO PUSH2 0x143F JUMPI PUSH1 0x7 DUP6 DUP2 SLOAD DUP2 LT PUSH2 0x1318 JUMPI INVALID JUMPDEST PUSH1 0x0 SWAP2 DUP3 MSTORE PUSH1 0x20 SWAP1 SWAP2 KECCAK256 PUSH1 0x6 SWAP1 SWAP2 MUL ADD SLOAD PUSH1 0x7 DUP1 SLOAD PUSH1 0x1 PUSH1 0x1 PUSH1 0xA0 SHL SUB SWAP1 SWAP3 AND SWAP6 POP DUP8 SWAP4 POP DUP4 SWAP2 DUP8 SWAP1 DUP2 LT PUSH2 0x1349 JUMPI INVALID JUMPDEST SWAP1 PUSH1 0x0 MSTORE PUSH1 0x20 PUSH1 0x0 KECCAK256 SWAP1 PUSH1 0x6 MUL ADD PUSH1 0x4 ADD SLOAD MUL SWAP1 POP PUSH1 0x0 PUSH1 0x7 DUP7 DUP2 SLOAD DUP2 LT PUSH2 0x136D JUMPI INVALID JUMPDEST SWAP1 PUSH1 0x0 MSTORE PUSH1 0x20 PUSH1 0x0 KECCAK256 SWAP1 PUSH1 0x6 MUL ADD PUSH1 0x3 ADD DUP2 SWAP1 SSTORE POP PUSH1 0x0 SWAP6 POP PUSH1 0x1 SWAP3 POP PUSH1 0x1 PUSH1 0x7 DUP1 SLOAD SWAP1 POP GT ISZERO PUSH2 0x1426 JUMPI PUSH1 0x7 DUP1 SLOAD PUSH1 0x0 NOT DUP2 ADD SWAP1 DUP2 LT PUSH2 0x13AA JUMPI INVALID JUMPDEST SWAP1 PUSH1 0x0 MSTORE PUSH1 0x20 PUSH1 0x0 KECCAK256 SWAP1 PUSH1 0x6 MUL ADD PUSH1 0x7 DUP7 DUP2 SLOAD DUP2 LT PUSH2 0x13C5 JUMPI INVALID JUMPDEST PUSH1 0x0 SWAP2 DUP3 MSTORE PUSH1 0x20 SWAP1 SWAP2 KECCAK256 DUP3 SLOAD PUSH1 0x6 SWAP1 SWAP3 MUL ADD DUP1 SLOAD PUSH1 0x1 PUSH1 0x1 PUSH1 0xA0 SHL SUB NOT AND PUSH1 0x1 PUSH1 0x1 PUSH1 0xA0 SHL SUB SWAP1 SWAP3 AND SWAP2 SWAP1 SWAP2 OR DUP2 SSTORE PUSH1 0x1 DUP1 DUP4 ADD SLOAD SWAP1 DUP3 ADD SSTORE PUSH1 0x2 DUP1 DUP4 ADD SLOAD SWAP1 DUP3 ADD SSTORE PUSH1 0x3 DUP1 DUP4 ADD SLOAD SWAP1 DUP3 ADD SSTORE PUSH1 0x4 DUP1 DUP4 ADD SLOAD SWAP1 DUP3 ADD SSTORE PUSH1 0x5 SWAP2 DUP3 ADD SLOAD SWAP2 ADD SSTORE JUMPDEST PUSH1 0x7 DUP1 SLOAD SWAP1 PUSH2 0x1439 SWAP1 PUSH1 0x0 NOT DUP4 ADD PUSH2 0x1D2F JUMP JUMPDEST POP PUSH2 0x14DE JUMP JUMPDEST PUSH1 0x7 DUP6 DUP2 SLOAD DUP2 LT PUSH2 0x144C JUMPI INVALID JUMPDEST PUSH1 0x0 SWAP2 DUP3 MSTORE PUSH1 0x20 SWAP1 SWAP2 KECCAK256 PUSH1 0x6 SWAP1 SWAP2 MUL ADD SLOAD PUSH1 0x7 DUP1 SLOAD PUSH1 0x1 PUSH1 0x1 PUSH1 0xA0 SHL SUB SWAP1 SWAP3 AND SWAP6 POP DUP8 SWAP4 POP DUP4 SWAP2 DUP8 SWAP1 DUP2 LT PUSH2 0x147D JUMPI INVALID JUMPDEST SWAP1 PUSH1 0x0 MSTORE PUSH1 0x20 PUSH1 0x0 KECCAK256 SWAP1 PUSH1 0x6 MUL ADD PUSH1 0x3 ADD SLOAD SUB PUSH1 0x7 DUP7 DUP2 SLOAD DUP2 LT PUSH2 0x149D JUMPI INVALID JUMPDEST SWAP1 PUSH1 0x0 MSTORE PUSH1 0x20 PUSH1 0x0 KECCAK256 SWAP1 PUSH1 0x6 MUL ADD PUSH1 0x3 ADD DUP2 SWAP1 SSTORE POP DUP2 PUSH1 0x7 DUP7 DUP2 SLOAD DUP2 LT PUSH2 0x14C0 JUMPI INVALID JUMPDEST SWAP1 PUSH1 0x0 MSTORE PUSH1 0x20 PUSH1 0x0 KECCAK256 SWAP1 PUSH1 0x6 MUL ADD PUSH1 0x4 ADD SLOAD MUL SWAP1 POP PUSH1 0x0 SWAP6 POP PUSH1 0x1 SWAP3 POP JUMPDEST DUP3 ISZERO PUSH2 0x1641 JUMPI PUSH1 0x40 DUP1 MLOAD PUSH1 0xC0 DUP2 ADD DUP3 MSTORE CALLER DUP2 MSTORE PUSH1 0x1 PUSH1 0x1 PUSH1 0xA0 SHL SUB DUP7 DUP2 AND PUSH1 0x20 DUP4 ADD SWAP1 DUP2 MSTORE DUP3 DUP5 ADD DUP7 DUP2 MSTORE PUSH1 0x60 DUP1 DUP6 ADD DUP8 DUP2 MSTORE SWAP1 DUP14 ADD MLOAD PUSH1 0x80 DUP7 ADD SWAP1 DUP2 MSTORE SWAP6 DUP14 ADD MLOAD PUSH1 0xA0 DUP7 ADD SWAP1 DUP2 MSTORE PUSH1 0x5 DUP1 SLOAD PUSH1 0x1 DUP2 ADD DUP3 SSTORE PUSH1 0x0 SWAP2 SWAP1 SWAP2 MSTORE SWAP6 MLOAD PUSH1 0x6 SWAP1 SWAP7 MUL PUSH32 0x36B6384B5ECA791C62761152D0C79BB0604C104A5FB6F4EB0703F3154BB3DB0 DUP2 ADD DUP1 SLOAD SWAP8 DUP8 AND PUSH1 0x1 PUSH1 0x1 PUSH1 0xA0 SHL SUB NOT SWAP9 DUP10 AND OR SWAP1 SSTORE SWAP4 MLOAD PUSH32 0x36B6384B5ECA791C62761152D0C79BB0604C104A5FB6F4EB0703F3154BB3DB1 DUP6 ADD DUP1 SLOAD SWAP2 SWAP1 SWAP7 AND SWAP7 AND SWAP6 SWAP1 SWAP6 OR SWAP1 SWAP4 SSTORE MLOAD PUSH32 0x36B6384B5ECA791C62761152D0C79BB0604C104A5FB6F4EB0703F3154BB3DB2 DUP3 ADD SSTORE SWAP1 MLOAD PUSH32 0x36B6384B5ECA791C62761152D0C79BB0604C104A5FB6F4EB0703F3154BB3DB3 DUP3 ADD SSTORE SWAP2 MLOAD PUSH32 0x36B6384B5ECA791C62761152D0C79BB0604C104A5FB6F4EB0703F3154BB3DB4 DUP4 ADD SSTORE MLOAD PUSH32 0x36B6384B5ECA791C62761152D0C79BB0604C104A5FB6F4EB0703F3154BB3DB5 SWAP1 SWAP2 ADD SSTORE JUMPDEST DUP6 PUSH2 0x16F2 JUMPI PUSH1 0x4 SLOAD PUSH1 0x1 LT ISZERO PUSH2 0x16D5 JUMPI PUSH1 0x4 DUP1 SLOAD PUSH1 0x0 NOT DUP2 ADD SWAP1 DUP2 LT PUSH2 0x1663 JUMPI INVALID JUMPDEST SWAP1 PUSH1 0x0 MSTORE PUSH1 0x20 PUSH1 0x0 KECCAK256 SWAP1 PUSH1 0x5 MUL ADD PUSH1 0x4 DUP7 DUP2 SLOAD DUP2 LT PUSH2 0x167E JUMPI INVALID JUMPDEST PUSH1 0x0 SWAP2 DUP3 MSTORE PUSH1 0x20 SWAP1 SWAP2 KECCAK256 DUP3 SLOAD PUSH1 0x5 SWAP1 SWAP3 MUL ADD DUP1 SLOAD PUSH1 0x1 PUSH1 0x1 PUSH1 0xA0 SHL SUB NOT AND PUSH1 0x1 PUSH1 0x1 PUSH1 0xA0 SHL SUB SWAP1 SWAP3 AND SWAP2 SWAP1 SWAP2 OR DUP2 SSTORE PUSH1 0x1 DUP1 DUP4 ADD SLOAD SWAP1 DUP3 ADD SSTORE PUSH1 0x2 DUP1 DUP4 ADD SLOAD SWAP1 DUP3 ADD SSTORE PUSH1 0x3 DUP1 DUP4 ADD SLOAD SWAP1 DUP3 ADD SSTORE PUSH1 0x4 SWAP2 DUP3 ADD SLOAD SWAP2 ADD SSTORE JUMPDEST PUSH1 0x4 DUP1 SLOAD SWAP1 PUSH2 0x16E8 SWAP1 PUSH1 0x0 NOT DUP4 ADD PUSH2 0x1D5B JUMP JUMPDEST POP POP POP POP POP PUSH2 0xF9F JUMP JUMPDEST POP POP PUSH1 0x1 SWAP1 SWAP3 ADD SWAP2 POP PUSH2 0x1113 SWAP1 POP JUMP JUMPDEST CALLER PUSH1 0x0 SWAP1 DUP2 MSTORE PUSH1 0x1 PUSH1 0x20 DUP2 SWAP1 MSTORE PUSH1 0x40 SWAP1 SWAP2 KECCAK256 PUSH1 0x4 ADD SLOAD PUSH1 0xFF AND ISZERO ISZERO EQ PUSH2 0x173A JUMPI PUSH1 0x40 MLOAD PUSH3 0x461BCD PUSH1 0xE5 SHL DUP2 MSTORE PUSH1 0x4 ADD PUSH2 0x309 SWAP1 PUSH2 0x2610 JUMP JUMPDEST PUSH1 0x60 DUP2 ADD MLOAD PUSH1 0x0 JUMPDEST PUSH1 0x4 SLOAD DUP2 LT ISZERO PUSH2 0xF9F JUMPI PUSH1 0x4 DUP1 SLOAD PUSH1 0x0 SWAP2 DUP3 SWAP2 DUP3 SWAP2 DUP3 SWAP2 DUP8 SWAP2 SWAP1 DUP8 SWAP1 DUP2 LT PUSH2 0x1766 JUMPI INVALID JUMPDEST SWAP1 PUSH1 0x0 MSTORE PUSH1 0x20 PUSH1 0x0 KECCAK256 SWAP1 PUSH1 0x5 MUL ADD PUSH1 0x4 ADD SLOAD LT ISZERO PUSH2 0x18D7 JUMPI PUSH1 0x4 DUP6 DUP2 SLOAD DUP2 LT PUSH2 0x178B JUMPI INVALID JUMPDEST PUSH1 0x0 SWAP2 DUP3 MSTORE PUSH1 0x20 SWAP1 SWAP2 KECCAK256 PUSH1 0x5 SWAP1 SWAP2 MUL ADD SLOAD PUSH1 0x4 DUP1 SLOAD PUSH1 0x1 PUSH1 0x1 PUSH1 0xA0 SHL SUB SWAP1 SWAP3 AND SWAP6 POP SWAP1 DUP7 SWAP1 DUP2 LT PUSH2 0x17B8 JUMPI INVALID JUMPDEST SWAP1 PUSH1 0x0 MSTORE PUSH1 0x20 PUSH1 0x0 KECCAK256 SWAP1 PUSH1 0x5 MUL ADD PUSH1 0x4 ADD SLOAD SWAP2 POP DUP2 DUP7 SUB SWAP6 POP DUP6 PUSH1 0x7 DUP7 DUP2 SLOAD DUP2 LT PUSH2 0x17DF JUMPI INVALID JUMPDEST SWAP1 PUSH1 0x0 MSTORE PUSH1 0x20 PUSH1 0x0 KECCAK256 SWAP1 PUSH1 0x6 MUL ADD PUSH1 0x3 ADD DUP2 SWAP1 SSTORE POP DUP2 DUP8 PUSH1 0x80 ADD MLOAD MUL SWAP1 POP PUSH1 0x0 PUSH1 0x4 DUP7 DUP2 SLOAD DUP2 LT PUSH2 0x180C JUMPI INVALID JUMPDEST SWAP1 PUSH1 0x0 MSTORE PUSH1 0x20 PUSH1 0x0 KECCAK256 SWAP1 PUSH1 0x5 MUL ADD PUSH1 0x4 ADD DUP2 SWAP1 SSTORE POP PUSH1 0x1 SWAP3 POP PUSH1 0x1 PUSH1 0x4 DUP1 SLOAD SWAP1 POP GT ISZERO PUSH2 0x18B7 JUMPI PUSH1 0x4 DUP1 SLOAD PUSH1 0x0 NOT DUP2 ADD SWAP1 DUP2 LT PUSH2 0x1845 JUMPI INVALID JUMPDEST SWAP1 PUSH1 0x0 MSTORE PUSH1 0x20 PUSH1 0x0 KECCAK256 SWAP1 PUSH1 0x5 MUL ADD PUSH1 0x4 DUP7 DUP2 SLOAD DUP2 LT PUSH2 0x1860 JUMPI INVALID JUMPDEST PUSH1 0x0 SWAP2 DUP3 MSTORE PUSH1 0x20 SWAP1 SWAP2 KECCAK256 DUP3 SLOAD PUSH1 0x5 SWAP1 SWAP3 MUL ADD DUP1 SLOAD PUSH1 0x1 PUSH1 0x1 PUSH1 0xA0 SHL SUB NOT AND PUSH1 0x1 PUSH1 0x1 PUSH1 0xA0 SHL SUB SWAP1 SWAP3 AND SWAP2 SWAP1 SWAP2 OR DUP2 SSTORE PUSH1 0x1 DUP1 DUP4 ADD SLOAD SWAP1 DUP3 ADD SSTORE PUSH1 0x2 DUP1 DUP4 ADD SLOAD SWAP1 DUP3 ADD SSTORE PUSH1 0x3 DUP1 DUP4 ADD SLOAD SWAP1 DUP3 ADD SSTORE PUSH1 0x4 SWAP2 DUP3 ADD SLOAD SWAP2 ADD SSTORE JUMPDEST PUSH1 0x4 DUP1 SLOAD SWAP1 PUSH2 0x18CA SWAP1 PUSH1 0x0 NOT DUP4 ADD PUSH2 0x1D5B JUMP JUMPDEST POP PUSH1 0x0 NOT SWAP1 SWAP5 ADD SWAP4 PUSH2 0x1A8E JUMP JUMPDEST DUP6 PUSH1 0x4 DUP7 DUP2 SLOAD DUP2 LT PUSH2 0x18E5 JUMPI INVALID JUMPDEST SWAP1 PUSH1 0x0 MSTORE PUSH1 0x20 PUSH1 0x0 KECCAK256 SWAP1 PUSH1 0x5 MUL ADD PUSH1 0x4 ADD SLOAD EQ ISZERO PUSH2 0x1A09 JUMPI PUSH1 0x4 DUP6 DUP2 SLOAD DUP2 LT PUSH2 0x190A JUMPI INVALID JUMPDEST PUSH1 0x0 SWAP2 DUP3 MSTORE PUSH1 0x20 DUP3 KECCAK256 PUSH1 0x5 SWAP1 SWAP2 MUL ADD SLOAD PUSH1 0x80 DUP10 ADD MLOAD PUSH1 0x4 DUP1 SLOAD SWAP4 SWAP10 PUSH1 0x1 PUSH1 0x1 PUSH1 0xA0 SHL SUB SWAP1 SWAP4 AND SWAP8 POP SWAP2 SWAP5 POP DUP5 MUL SWAP3 POP DUP8 SWAP2 DUP8 SWAP1 DUP2 LT PUSH2 0x1945 JUMPI INVALID JUMPDEST SWAP1 PUSH1 0x0 MSTORE PUSH1 0x20 PUSH1 0x0 KECCAK256 SWAP1 PUSH1 0x5 MUL ADD PUSH1 0x4 ADD DUP2 SWAP1 SSTORE POP PUSH1 0x1 SWAP3 POP PUSH1 0x1 PUSH1 0x4 DUP1 SLOAD SWAP1 POP GT ISZERO PUSH2 0x19F0 JUMPI PUSH1 0x4 DUP1 SLOAD PUSH1 0x0 NOT DUP2 ADD SWAP1 DUP2 LT PUSH2 0x197E JUMPI INVALID JUMPDEST SWAP1 PUSH1 0x0 MSTORE PUSH1 0x20 PUSH1 0x0 KECCAK256 SWAP1 PUSH1 0x5 MUL ADD PUSH1 0x4 DUP7 DUP2 SLOAD DUP2 LT PUSH2 0x1999 JUMPI INVALID JUMPDEST PUSH1 0x0 SWAP2 DUP3 MSTORE PUSH1 0x20 SWAP1 SWAP2 KECCAK256 DUP3 SLOAD PUSH1 0x5 SWAP1 SWAP3 MUL ADD DUP1 SLOAD PUSH1 0x1 PUSH1 0x1 PUSH1 0xA0 SHL SUB NOT AND PUSH1 0x1 PUSH1 0x1 PUSH1 0xA0 SHL SUB SWAP1 SWAP3 AND SWAP2 SWAP1 SWAP2 OR DUP2 SSTORE PUSH1 0x1 DUP1 DUP4 ADD SLOAD SWAP1 DUP3 ADD SSTORE PUSH1 0x2 DUP1 DUP4 ADD SLOAD SWAP1 DUP3 ADD SSTORE PUSH1 0x3 DUP1 DUP4 ADD SLOAD SWAP1 DUP3 ADD SSTORE PUSH1 0x4 SWAP2 DUP3 ADD SLOAD SWAP2 ADD SSTORE JUMPDEST PUSH1 0x4 DUP1 SLOAD SWAP1 PUSH2 0x1A03 SWAP1 PUSH1 0x0 NOT DUP4 ADD PUSH2 0x1D5B JUMP JUMPDEST POP PUSH2 0x1A8E JUMP JUMPDEST PUSH1 0x4 DUP6 DUP2 SLOAD DUP2 LT PUSH2 0x1A16 JUMPI INVALID JUMPDEST PUSH1 0x0 SWAP2 DUP3 MSTORE PUSH1 0x20 SWAP1 SWAP2 KECCAK256 PUSH1 0x5 SWAP1 SWAP2 MUL ADD SLOAD PUSH1 0x4 DUP1 SLOAD PUSH1 0x1 PUSH1 0x1 PUSH1 0xA0 SHL SUB SWAP1 SWAP3 AND SWAP6 POP DUP8 SWAP4 POP DUP4 SWAP2 DUP8 SWAP1 DUP2 LT PUSH2 0x1A47 JUMPI INVALID JUMPDEST SWAP1 PUSH1 0x0 MSTORE PUSH1 0x20 PUSH1 0x0 KECCAK256 SWAP1 PUSH1 0x5 MUL ADD PUSH1 0x4 ADD SLOAD SUB PUSH1 0x4 DUP7 DUP2 SLOAD DUP2 LT PUSH2 0x1A67 JUMPI INVALID JUMPDEST SWAP1 PUSH1 0x0 MSTORE PUSH1 0x20 PUSH1 0x0 KECCAK256 SWAP1 PUSH1 0x5 MUL ADD PUSH1 0x4 ADD DUP2 SWAP1 SSTORE POP DUP2 DUP8 PUSH1 0x80 ADD MLOAD MUL SWAP1 POP PUSH1 0x0 SWAP6 POP PUSH1 0x1 SWAP3 POP JUMPDEST DUP3 ISZERO PUSH2 0x1BF0 JUMPI PUSH1 0x40 DUP1 MLOAD PUSH1 0xC0 DUP2 ADD DUP3 MSTORE PUSH1 0x1 PUSH1 0x1 PUSH1 0xA0 SHL SUB DUP1 DUP8 AND DUP3 MSTORE CALLER PUSH1 0x20 DUP4 ADD SWAP1 DUP2 MSTORE DUP3 DUP5 ADD DUP7 DUP2 MSTORE PUSH1 0x60 DUP5 ADD DUP7 DUP2 MSTORE SWAP5 DUP13 ADD MLOAD PUSH1 0x80 DUP6 ADD SWAP1 DUP2 MSTORE PUSH1 0xA0 DUP1 DUP15 ADD MLOAD SWAP1 DUP7 ADD SWAP1 DUP2 MSTORE PUSH1 0x5 DUP1 SLOAD PUSH1 0x1 DUP2 ADD DUP3 SSTORE PUSH1 0x0 SWAP2 SWAP1 SWAP2 MSTORE SWAP6 MLOAD PUSH1 0x6 SWAP1 SWAP7 MUL PUSH32 0x36B6384B5ECA791C62761152D0C79BB0604C104A5FB6F4EB0703F3154BB3DB0 DUP2 ADD DUP1 SLOAD SWAP8 DUP8 AND PUSH1 0x1 PUSH1 0x1 PUSH1 0xA0 SHL SUB NOT SWAP9 DUP10 AND OR SWAP1 SSTORE SWAP4 MLOAD PUSH32 0x36B6384B5ECA791C62761152D0C79BB0604C104A5FB6F4EB0703F3154BB3DB1 DUP6 ADD DUP1 SLOAD SWAP2 SWAP1 SWAP7 AND SWAP7 AND SWAP6 SWAP1 SWAP6 OR SWAP1 SWAP4 SSTORE MLOAD PUSH32 0x36B6384B5ECA791C62761152D0C79BB0604C104A5FB6F4EB0703F3154BB3DB2 DUP3 ADD SSTORE SWAP3 MLOAD PUSH32 0x36B6384B5ECA791C62761152D0C79BB0604C104A5FB6F4EB0703F3154BB3DB3 DUP5 ADD SSTORE MLOAD PUSH32 0x36B6384B5ECA791C62761152D0C79BB0604C104A5FB6F4EB0703F3154BB3DB4 DUP4 ADD SSTORE MLOAD PUSH32 0x36B6384B5ECA791C62761152D0C79BB0604C104A5FB6F4EB0703F3154BB3DB5 SWAP1 SWAP2 ADD SSTORE JUMPDEST DUP6 PUSH2 0x1CA1 JUMPI PUSH1 0x7 SLOAD PUSH1 0x1 LT ISZERO PUSH2 0x1C8E JUMPI PUSH1 0x7 DUP1 SLOAD PUSH1 0x0 NOT DUP2 ADD SWAP1 DUP2 LT PUSH2 0x1C12 JUMPI INVALID JUMPDEST SWAP1 PUSH1 0x0 MSTORE PUSH1 0x20 PUSH1 0x0 KECCAK256 SWAP1 PUSH1 0x6 MUL ADD PUSH1 0x7 DUP7 DUP2 SLOAD DUP2 LT PUSH2 0x1C2D JUMPI INVALID JUMPDEST PUSH1 0x0 SWAP2 DUP3 MSTORE PUSH1 0x20 SWAP1 SWAP2 KECCAK256 DUP3 SLOAD PUSH1 0x6 SWAP1 SWAP3 MUL ADD DUP1 SLOAD PUSH1 0x1 PUSH1 0x1 PUSH1 0xA0 SHL SUB NOT AND PUSH1 0x1 PUSH1 0x1 PUSH1 0xA0 SHL SUB SWAP1 SWAP3 AND SWAP2 SWAP1 SWAP2 OR DUP2 SSTORE PUSH1 0x1 DUP1 DUP4 ADD SLOAD SWAP1 DUP3 ADD SSTORE PUSH1 0x2 DUP1 DUP4 ADD SLOAD SWAP1 DUP3 ADD SSTORE PUSH1 0x3 DUP1 DUP4 ADD SLOAD SWAP1 DUP3 ADD SSTORE PUSH1 0x4 DUP1 DUP4 ADD SLOAD SWAP1 DUP3 ADD SSTORE PUSH1 0x5 SWAP2 DUP3 ADD SLOAD SWAP2 ADD SSTORE JUMPDEST PUSH1 0x7 DUP1 SLOAD SWAP1 PUSH2 0x16E8 SWAP1 PUSH1 0x0 NOT DUP4 ADD PUSH2 0x1D2F JUMP JUMPDEST POP POP PUSH1 0x1 SWAP1 SWAP3 ADD SWAP2 POP PUSH2 0x1742 SWAP1 POP JUMP JUMPDEST DUP3 DUP1 SLOAD PUSH1 0x1 DUP2 PUSH1 0x1 AND ISZERO PUSH2 0x100 MUL SUB AND PUSH1 0x2 SWAP1 DIV SWAP1 PUSH1 0x0 MSTORE PUSH1 0x20 PUSH1 0x0 KECCAK256 SWAP1 PUSH1 0x1F ADD PUSH1 0x20 SWAP1 DIV DUP2 ADD SWAP3 DUP3 PUSH1 0x1F LT PUSH2 0x1CF2 JUMPI DUP1 MLOAD PUSH1 0xFF NOT AND DUP4 DUP1 ADD OR DUP6 SSTORE PUSH2 0x1D1F JUMP JUMPDEST DUP3 DUP1 ADD PUSH1 0x1 ADD DUP6 SSTORE DUP3 ISZERO PUSH2 0x1D1F JUMPI SWAP2 DUP3 ADD JUMPDEST DUP3 DUP2 GT ISZERO PUSH2 0x1D1F JUMPI DUP3 MLOAD DUP3 SSTORE SWAP2 PUSH1 0x20 ADD SWAP2 SWAP1 PUSH1 0x1 ADD SWAP1 PUSH2 0x1D04 JUMP JUMPDEST POP PUSH2 0x1D2B SWAP3 SWAP2 POP PUSH2 0x1D87 JUMP JUMPDEST POP SWAP1 JUMP JUMPDEST DUP2 SLOAD DUP2 DUP4 SSTORE DUP2 DUP2 GT ISZERO PUSH2 0xF9F JUMPI PUSH1 0x6 MUL DUP2 PUSH1 0x6 MUL DUP4 PUSH1 0x0 MSTORE PUSH1 0x20 PUSH1 0x0 KECCAK256 SWAP2 DUP3 ADD SWAP2 ADD PUSH2 0xF9F SWAP2 SWAP1 PUSH2 0x1DA1 JUMP JUMPDEST DUP2 SLOAD DUP2 DUP4 SSTORE DUP2 DUP2 GT ISZERO PUSH2 0xF9F JUMPI PUSH1 0x5 MUL DUP2 PUSH1 0x5 MUL DUP4 PUSH1 0x0 MSTORE PUSH1 0x20 PUSH1 0x0 KECCAK256 SWAP2 DUP3 ADD SWAP2 ADD PUSH2 0xF9F SWAP2 SWAP1 PUSH2 0x1DE8 JUMP JUMPDEST PUSH2 0x687 SWAP2 SWAP1 JUMPDEST DUP1 DUP3 GT ISZERO PUSH2 0x1D2B JUMPI PUSH1 0x0 DUP2 SSTORE PUSH1 0x1 ADD PUSH2 0x1D8D JUMP JUMPDEST PUSH2 0x687 SWAP2 SWAP1 JUMPDEST DUP1 DUP3 GT ISZERO PUSH2 0x1D2B JUMPI DUP1 SLOAD PUSH1 0x1 PUSH1 0x1 PUSH1 0xA0 SHL SUB NOT AND DUP2 SSTORE PUSH1 0x0 PUSH1 0x1 DUP3 ADD DUP2 SWAP1 SSTORE PUSH1 0x2 DUP3 ADD DUP2 SWAP1 SSTORE PUSH1 0x3 DUP3 ADD DUP2 SWAP1 SSTORE PUSH1 0x4 DUP3 ADD DUP2 SWAP1 SSTORE PUSH1 0x5 DUP3 ADD SSTORE PUSH1 0x6 ADD PUSH2 0x1DA7 JUMP JUMPDEST PUSH2 0x687 SWAP2 SWAP1 JUMPDEST DUP1 DUP3 GT ISZERO PUSH2 0x1D2B JUMPI DUP1 SLOAD PUSH1 0x1 PUSH1 0x1 PUSH1 0xA0 SHL SUB NOT AND DUP2 SSTORE PUSH1 0x0 PUSH1 0x1 DUP3 ADD DUP2 SWAP1 SSTORE PUSH1 0x2 DUP3 ADD DUP2 SWAP1 SSTORE PUSH1 0x3 DUP3 ADD DUP2 SWAP1 SSTORE PUSH1 0x4 DUP3 ADD SSTORE PUSH1 0x5 ADD PUSH2 0x1DEE JUMP JUMPDEST DUP1 CALLDATALOAD PUSH2 0x1E33 DUP2 PUSH2 0x271C JUMP JUMPDEST SWAP3 SWAP2 POP POP JUMP JUMPDEST PUSH1 0x0 DUP3 PUSH1 0x1F DUP4 ADD SLT PUSH2 0x1E4A JUMPI PUSH1 0x0 DUP1 REVERT JUMPDEST DUP2 CALLDATALOAD PUSH2 0x1E5D PUSH2 0x1E58 DUP3 PUSH2 0x2683 JUMP JUMPDEST PUSH2 0x265C JUMP JUMPDEST SWAP2 POP DUP1 DUP3 MSTORE PUSH1 0x20 DUP4 ADD PUSH1 0x20 DUP4 ADD DUP6 DUP4 DUP4 ADD GT ISZERO PUSH2 0x1E79 JUMPI PUSH1 0x0 DUP1 REVERT JUMPDEST PUSH2 0x1E84 DUP4 DUP3 DUP5 PUSH2 0x26DA JUMP JUMPDEST POP POP POP SWAP3 SWAP2 POP POP JUMP JUMPDEST DUP1 CALLDATALOAD PUSH2 0x1E33 DUP2 PUSH2 0x2733 JUMP JUMPDEST PUSH1 0x0 PUSH1 0x20 DUP3 DUP5 SUB SLT ISZERO PUSH2 0x1EAA JUMPI PUSH1 0x0 DUP1 REVERT JUMPDEST PUSH1 0x0 PUSH2 0x1EB6 DUP5 DUP5 PUSH2 0x1E28 JUMP JUMPDEST SWAP5 SWAP4 POP POP POP POP JUMP JUMPDEST PUSH1 0x0 DUP1 PUSH1 0x40 DUP4 DUP6 SUB SLT ISZERO PUSH2 0x1ED1 JUMPI PUSH1 0x0 DUP1 REVERT JUMPDEST PUSH1 0x0 PUSH2 0x1EDD DUP6 DUP6 PUSH2 0x1E28 JUMP JUMPDEST SWAP3 POP POP PUSH1 0x20 DUP4 ADD CALLDATALOAD PUSH8 0xFFFFFFFFFFFFFFFF DUP2 GT ISZERO PUSH2 0x1EFA JUMPI PUSH1 0x0 DUP1 REVERT JUMPDEST PUSH2 0x1F06 DUP6 DUP3 DUP7 ADD PUSH2 0x1E39 JUMP JUMPDEST SWAP2 POP POP SWAP3 POP SWAP3 SWAP1 POP JUMP JUMPDEST PUSH1 0x0 DUP1 PUSH1 0x0 PUSH1 0x60 DUP5 DUP7 SUB SLT ISZERO PUSH2 0x1F25 JUMPI PUSH1 0x0 DUP1 REVERT JUMPDEST PUSH1 0x0 PUSH2 0x1F31 DUP7 DUP7 PUSH2 0x1E28 JUMP JUMPDEST SWAP4 POP POP PUSH1 0x20 PUSH2 0x1F42 DUP7 DUP3 DUP8 ADD PUSH2 0x1E8D JUMP JUMPDEST SWAP3 POP POP PUSH1 0x40 PUSH2 0x1F53 DUP7 DUP3 DUP8 ADD PUSH2 0x1E8D JUMP JUMPDEST SWAP2 POP POP SWAP3 POP SWAP3 POP SWAP3 JUMP JUMPDEST PUSH1 0x0 DUP1 PUSH1 0x40 DUP4 DUP6 SUB SLT ISZERO PUSH2 0x1F70 JUMPI PUSH1 0x0 DUP1 REVERT JUMPDEST DUP3 CALLDATALOAD PUSH8 0xFFFFFFFFFFFFFFFF DUP2 GT ISZERO PUSH2 0x1F87 JUMPI PUSH1 0x0 DUP1 REVERT JUMPDEST PUSH2 0x1F93 DUP6 DUP3 DUP7 ADD PUSH2 0x1E39 JUMP JUMPDEST SWAP3 POP POP PUSH1 0x20 PUSH2 0x1F06 DUP6 DUP3 DUP7 ADD PUSH2 0x1E8D JUMP JUMPDEST PUSH1 0x0 PUSH1 0x20 DUP3 DUP5 SUB SLT ISZERO PUSH2 0x1FB6 JUMPI PUSH1 0x0 DUP1 REVERT JUMPDEST PUSH1 0x0 PUSH2 0x1EB6 DUP5 DUP5 PUSH2 0x1E8D JUMP JUMPDEST PUSH1 0x0 DUP1 PUSH1 0x40 DUP4 DUP6 SUB SLT ISZERO PUSH2 0x1FD5 JUMPI PUSH1 0x0 DUP1 REVERT JUMPDEST PUSH1 0x0 PUSH2 0x1F93 DUP6 DUP6 PUSH2 0x1E8D JUMP JUMPDEST PUSH1 0x0 DUP1 PUSH1 0x0 PUSH1 0x60 DUP5 DUP7 SUB SLT ISZERO PUSH2 0x1FF6 JUMPI PUSH1 0x0 DUP1 REVERT JUMPDEST PUSH1 0x0 PUSH2 0x1F31 DUP7 DUP7 PUSH2 0x1E8D JUMP JUMPDEST PUSH1 0x0 PUSH2 0x200E DUP4 DUP4 PUSH2 0x2381 JUMP JUMPDEST POP POP PUSH1 0xA0 ADD SWAP1 JUMP JUMPDEST PUSH1 0x0 PUSH2 0x2022 DUP4 DUP4 PUSH2 0x23E4 JUMP JUMPDEST SWAP4 SWAP3 POP POP POP JUMP JUMPDEST PUSH1 0x0 PUSH2 0x2035 DUP4 DUP4 PUSH2 0x2453 JUMP JUMPDEST POP POP PUSH1 0xC0 ADD SWAP1 JUMP JUMPDEST PUSH1 0x0 PUSH2 0x2035 DUP4 DUP4 PUSH2 0x24C3 JUMP JUMPDEST PUSH2 0x2052 DUP2 PUSH2 0x26BE JUMP JUMPDEST DUP3 MSTORE POP POP JUMP JUMPDEST PUSH1 0x0 PUSH2 0x2063 DUP3 PUSH2 0x26B1 JUMP JUMPDEST PUSH2 0x206D DUP2 DUP6 PUSH2 0x26B5 JUMP JUMPDEST SWAP4 POP PUSH2 0x2078 DUP4 PUSH2 0x26AB JUMP JUMPDEST DUP1 PUSH1 0x0 JUMPDEST DUP4 DUP2 LT ISZERO PUSH2 0x20A6 JUMPI DUP2 MLOAD PUSH2 0x2090 DUP9 DUP3 PUSH2 0x2002 JUMP JUMPDEST SWAP8 POP PUSH2 0x209B DUP4 PUSH2 0x26AB JUMP JUMPDEST SWAP3 POP POP PUSH1 0x1 ADD PUSH2 0x207C JUMP JUMPDEST POP SWAP5 SWAP6 SWAP5 POP POP POP POP POP JUMP JUMPDEST PUSH1 0x0 PUSH2 0x20BC DUP3 PUSH2 0x26B1 JUMP JUMPDEST PUSH2 0x20C6 DUP2 DUP6 PUSH2 0x26B5 JUMP JUMPDEST SWAP4 POP DUP4 PUSH1 0x20 DUP3 MUL DUP6 ADD PUSH2 0x20D8 DUP6 PUSH2 0x26AB JUMP JUMPDEST DUP1 PUSH1 0x0 JUMPDEST DUP6 DUP2 LT ISZERO PUSH2 0x2112 JUMPI DUP5 DUP5 SUB DUP10 MSTORE DUP2 MLOAD PUSH2 0x20F5 DUP6 DUP3 PUSH2 0x2016 JUMP JUMPDEST SWAP5 POP PUSH2 0x2100 DUP4 PUSH2 0x26AB JUMP JUMPDEST PUSH1 0x20 SWAP11 SWAP1 SWAP11 ADD SWAP10 SWAP3 POP POP PUSH1 0x1 ADD PUSH2 0x20DC JUMP JUMPDEST POP SWAP2 SWAP8 SWAP7 POP POP POP POP POP POP POP JUMP JUMPDEST PUSH1 0x0 PUSH2 0x212A DUP3 PUSH2 0x26B1 JUMP JUMPDEST PUSH2 0x2134 DUP2 DUP6 PUSH2 0x26B5 JUMP JUMPDEST SWAP4 POP PUSH2 0x213F DUP4 PUSH2 0x26AB JUMP JUMPDEST DUP1 PUSH1 0x0 JUMPDEST DUP4 DUP2 LT ISZERO PUSH2 0x20A6 JUMPI DUP2 MLOAD PUSH2 0x2157 DUP9 DUP3 PUSH2 0x2029 JUMP JUMPDEST SWAP8 POP PUSH2 0x2162 DUP4 PUSH2 0x26AB JUMP JUMPDEST SWAP3 POP POP PUSH1 0x1 ADD PUSH2 0x2143 JUMP JUMPDEST PUSH1 0x0 PUSH2 0x2178 DUP3 PUSH2 0x26B1 JUMP JUMPDEST PUSH2 0x2182 DUP2 DUP6 PUSH2 0x26B5 JUMP JUMPDEST SWAP4 POP PUSH2 0x218D DUP4 PUSH2 0x26AB JUMP JUMPDEST DUP1 PUSH1 0x0 JUMPDEST DUP4 DUP2 LT ISZERO PUSH2 0x20A6 JUMPI DUP2 MLOAD PUSH2 0x21A5 DUP9 DUP3 PUSH2 0x203D JUMP JUMPDEST SWAP8 POP PUSH2 0x21B0 DUP4 PUSH2 0x26AB JUMP JUMPDEST SWAP3 POP POP PUSH1 0x1 ADD PUSH2 0x2191 JUMP JUMPDEST PUSH2 0x2052 DUP2 PUSH2 0x26C9 JUMP JUMPDEST PUSH1 0x0 PUSH2 0x21CF DUP3 PUSH2 0x26B1 JUMP JUMPDEST PUSH2 0x21D9 DUP2 DUP6 PUSH2 0x26B5 JUMP JUMPDEST SWAP4 POP PUSH2 0x21E9 DUP2 DUP6 PUSH1 0x20 DUP7 ADD PUSH2 0x26E6 JUMP JUMPDEST PUSH2 0x21F2 DUP2 PUSH2 0x2712 JUMP JUMPDEST SWAP1 SWAP4 ADD SWAP4 SWAP3 POP POP POP JUMP JUMPDEST PUSH1 0x0 PUSH2 0x2209 PUSH1 0x1D DUP4 PUSH2 0x26B5 JUMP JUMPDEST PUSH32 0x5468657265206973206E6F206F66666572206F6E207468697320646179000000 DUP2 MSTORE PUSH1 0x20 ADD SWAP3 SWAP2 POP POP JUMP JUMPDEST PUSH1 0x0 PUSH2 0x2242 PUSH1 0x33 DUP4 PUSH2 0x26B5 JUMP JUMPDEST PUSH32 0x57726F6E6720656E6572677920696E70757420726571756972652061206D696E DUP2 MSTORE PUSH19 0xD2DAEADA40DECCCCCAE440DECC406240D6AED PUSH1 0x6B SHL PUSH1 0x20 DUP3 ADD MSTORE PUSH1 0x40 ADD SWAP3 SWAP2 POP POP JUMP JUMPDEST PUSH1 0x0 PUSH2 0x2297 PUSH1 0x10 DUP4 PUSH2 0x26B5 JUMP JUMPDEST PUSH16 0x15DC9BDB99C810985D1D195C9E481259 PUSH1 0x82 SHL DUP2 MSTORE PUSH1 0x20 ADD SWAP3 SWAP2 POP POP JUMP JUMPDEST PUSH1 0x0 PUSH2 0x22C3 PUSH1 0xB DUP4 PUSH2 0x26B5 JUMP JUMPDEST PUSH11 0xAEE4DEDCCE40D2DCC8CAF PUSH1 0xAB SHL DUP2 MSTORE PUSH1 0x20 ADD SWAP3 SWAP2 POP POP JUMP JUMPDEST PUSH1 0x0 PUSH2 0x22EA PUSH1 0x25 DUP4 PUSH2 0x26B5 JUMP JUMPDEST PUSH32 0x4F6E6C7920726567697374657265642062617474657269657320686176652061 DUP2 MSTORE PUSH5 0x6363657373 PUSH1 0xD8 SHL PUSH1 0x20 DUP3 ADD MSTORE PUSH1 0x40 ADD SWAP3 SWAP2 POP POP JUMP JUMPDEST PUSH1 0x0 PUSH2 0x2331 PUSH1 0x8 DUP4 PUSH2 0x26B5 JUMP JUMPDEST PUSH8 0x15DC9BDB99C81251 PUSH1 0xC2 SHL DUP2 MSTORE PUSH1 0x20 ADD SWAP3 SWAP2 POP POP JUMP JUMPDEST PUSH1 0x0 PUSH2 0x2355 PUSH1 0x1D DUP4 PUSH2 0x26B5 JUMP JUMPDEST PUSH32 0x426174746572792064657461696C7320616C7265616479206164646564000000 DUP2 MSTORE PUSH1 0x20 ADD SWAP3 SWAP2 POP POP JUMP JUMPDEST DUP1 MLOAD PUSH1 0xA0 DUP4 ADD SWAP1 PUSH2 0x2392 DUP5 DUP3 PUSH2 0x2049 JUMP JUMPDEST POP PUSH1 0x20 DUP3 ADD MLOAD PUSH2 0x23A5 PUSH1 0x20 DUP6 ADD DUP3 PUSH2 0x24E7 JUMP JUMPDEST POP PUSH1 0x40 DUP3 ADD MLOAD PUSH2 0x23B8 PUSH1 0x40 DUP6 ADD DUP3 PUSH2 0x24E7 JUMP JUMPDEST POP PUSH1 0x60 DUP3 ADD MLOAD PUSH2 0x23CB PUSH1 0x60 DUP6 ADD DUP3 PUSH2 0x24E7 JUMP JUMPDEST POP PUSH1 0x80 DUP3 ADD MLOAD PUSH2 0x23DE PUSH1 0x80 DUP6 ADD DUP3 PUSH2 0x24E7 JUMP JUMPDEST POP POP POP POP JUMP JUMPDEST DUP1 MLOAD PUSH1 0x0 SWAP1 PUSH1 0xA0 DUP5 ADD SWAP1 PUSH2 0x23F8 DUP6 DUP3 PUSH2 0x2049 JUMP JUMPDEST POP PUSH1 0x20 DUP4 ADD MLOAD DUP5 DUP3 SUB PUSH1 0x20 DUP7 ADD MSTORE PUSH2 0x2410 DUP3 DUP3 PUSH2 0x21C4 JUMP JUMPDEST SWAP2 POP POP PUSH1 0x40 DUP4 ADD MLOAD PUSH2 0x2425 PUSH1 0x40 DUP7 ADD DUP3 PUSH2 0x24E7 JUMP JUMPDEST POP PUSH1 0x60 DUP4 ADD MLOAD PUSH2 0x2438 PUSH1 0x60 DUP7 ADD DUP3 PUSH2 0x24E7 JUMP JUMPDEST POP PUSH1 0x80 DUP4 ADD MLOAD PUSH2 0x244B PUSH1 0x80 DUP7 ADD DUP3 PUSH2 0x21BB JUMP JUMPDEST POP SWAP4 SWAP3 POP POP POP JUMP JUMPDEST DUP1 MLOAD PUSH1 0xC0 DUP4 ADD SWAP1 PUSH2 0x2464 DUP5 DUP3 PUSH2 0x2049 JUMP JUMPDEST POP PUSH1 0x20 DUP3 ADD MLOAD PUSH2 0x2477 PUSH1 0x20 DUP6 ADD DUP3 PUSH2 0x24E7 JUMP JUMPDEST POP PUSH1 0x40 DUP3 ADD MLOAD PUSH2 0x248A PUSH1 0x40 DUP6 ADD DUP3 PUSH2 0x24E7 JUMP JUMPDEST POP PUSH1 0x60 DUP3 ADD MLOAD PUSH2 0x249D PUSH1 0x60 DUP6 ADD DUP3 PUSH2 0x24E7 JUMP JUMPDEST POP PUSH1 0x80 DUP3 ADD MLOAD PUSH2 0x24B0 PUSH1 0x80 DUP6 ADD DUP3 PUSH2 0x24E7 JUMP JUMPDEST POP PUSH1 0xA0 DUP3 ADD MLOAD PUSH2 0x23DE PUSH1 0xA0 DUP6 ADD DUP3 PUSH2 0x24E7 JUMP JUMPDEST DUP1 MLOAD PUSH1 0xC0 DUP4 ADD SWAP1 PUSH2 0x24D4 DUP5 DUP3 PUSH2 0x2049 JUMP JUMPDEST POP PUSH1 0x20 DUP3 ADD MLOAD PUSH2 0x2477 PUSH1 0x20 DUP6 ADD DUP3 PUSH2 0x2049 JUMP JUMPDEST PUSH2 0x2052 DUP2 PUSH2 0x687 JUMP JUMPDEST PUSH1 0x60 DUP2 ADD PUSH2 0x24FE DUP3 DUP7 PUSH2 0x2049 JUMP JUMPDEST DUP2 DUP2 SUB PUSH1 0x20 DUP4 ADD MSTORE PUSH2 0x2510 DUP2 DUP6 PUSH2 0x21C4 JUMP JUMPDEST SWAP1 POP PUSH2 0x1EB6 PUSH1 0x40 DUP4 ADD DUP5 PUSH2 0x24E7 JUMP JUMPDEST PUSH1 0x80 DUP2 ADD PUSH2 0x252D DUP3 DUP8 PUSH2 0x2049 JUMP JUMPDEST DUP2 DUP2 SUB PUSH1 0x20 DUP4 ADD MSTORE PUSH2 0x253F DUP2 DUP7 PUSH2 0x21C4 JUMP JUMPDEST SWAP1 POP PUSH2 0x254E PUSH1 0x40 DUP4 ADD DUP6 PUSH2 0x24E7 JUMP JUMPDEST PUSH2 0x255B PUSH1 0x60 DUP4 ADD DUP5 PUSH2 0x24E7 JUMP JUMPDEST SWAP6 SWAP5 POP POP POP POP POP JUMP JUMPDEST PUSH1 0x60 DUP2 ADD PUSH2 0x2572 DUP3 DUP7 PUSH2 0x2049 JUMP JUMPDEST PUSH2 0x257F PUSH1 0x20 DUP4 ADD DUP6 PUSH2 0x24E7 JUMP JUMPDEST PUSH2 0x1EB6 PUSH1 0x40 DUP4 ADD DUP5 PUSH2 0x24E7 JUMP JUMPDEST PUSH1 0x20 DUP1 DUP3 MSTORE DUP2 ADD PUSH2 0x2022 DUP2 DUP5 PUSH2 0x2058 JUMP JUMPDEST PUSH1 0x20 DUP1 DUP3 MSTORE DUP2 ADD PUSH2 0x2022 DUP2 DUP5 PUSH2 0x20B1 JUMP JUMPDEST PUSH1 0x20 DUP1 DUP3 MSTORE DUP2 ADD PUSH2 0x2022 DUP2 DUP5 PUSH2 0x211F JUMP JUMPDEST PUSH1 0x20 DUP1 DUP3 MSTORE DUP2 ADD PUSH2 0x2022 DUP2 DUP5 PUSH2 0x216D JUMP JUMPDEST PUSH1 0x20 DUP1 DUP3 MSTORE DUP2 ADD PUSH2 0x1E33 DUP2 PUSH2 0x21FC JUMP JUMPDEST PUSH1 0x20 DUP1 DUP3 MSTORE DUP2 ADD PUSH2 0x1E33 DUP2 PUSH2 0x2235 JUMP JUMPDEST PUSH1 0x20 DUP1 DUP3 MSTORE DUP2 ADD PUSH2 0x1E33 DUP2 PUSH2 0x228A JUMP JUMPDEST PUSH1 0x20 DUP1 DUP3 MSTORE DUP2 ADD PUSH2 0x1E33 DUP2 PUSH2 0x22B6 JUMP JUMPDEST PUSH1 0x20 DUP1 DUP3 MSTORE DUP2 ADD PUSH2 0x1E33 DUP2 PUSH2 0x22DD JUMP JUMPDEST PUSH1 0x20 DUP1 DUP3 MSTORE DUP2 ADD PUSH2 0x1E33 DUP2 PUSH2 0x2324 JUMP JUMPDEST PUSH1 0x20 DUP1 DUP3 MSTORE DUP2 ADD PUSH2 0x1E33 DUP2 PUSH2 0x2348 JUMP JUMPDEST PUSH1 0x20 DUP2 ADD PUSH2 0x1E33 DUP3 DUP5 PUSH2 0x24E7 JUMP JUMPDEST PUSH1 0x60 DUP2 ADD PUSH2 0x2572 DUP3 DUP7 PUSH2 0x24E7 JUMP JUMPDEST PUSH1 0x40 MLOAD DUP2 DUP2 ADD PUSH8 0xFFFFFFFFFFFFFFFF DUP2 GT DUP3 DUP3 LT OR ISZERO PUSH2 0x267B JUMPI PUSH1 0x0 DUP1 REVERT JUMPDEST PUSH1 0x40 MSTORE SWAP2 SWAP1 POP JUMP JUMPDEST PUSH1 0x0 PUSH8 0xFFFFFFFFFFFFFFFF DUP3 GT ISZERO PUSH2 0x269A JUMPI PUSH1 0x0 DUP1 REVERT JUMPDEST POP PUSH1 0x20 PUSH1 0x1F SWAP2 SWAP1 SWAP2 ADD PUSH1 0x1F NOT AND ADD SWAP1 JUMP JUMPDEST PUSH1 0x20 ADD SWAP1 JUMP JUMPDEST MLOAD SWAP1 JUMP JUMPDEST SWAP1 DUP2 MSTORE PUSH1 0x20 ADD SWAP1 JUMP JUMPDEST PUSH1 0x0 PUSH2 0x1E33 DUP3 PUSH2 0x26CE JUMP JUMPDEST ISZERO ISZERO SWAP1 JUMP JUMPDEST PUSH1 0x1 PUSH1 0x1 PUSH1 0xA0 SHL SUB AND SWAP1 JUMP JUMPDEST DUP3 DUP2 DUP4 CALLDATACOPY POP PUSH1 0x0 SWAP2 ADD MSTORE JUMP JUMPDEST PUSH1 0x0 JUMPDEST DUP4 DUP2 LT ISZERO PUSH2 0x2701 JUMPI DUP2 DUP2 ADD MLOAD DUP4 DUP3 ADD MSTORE PUSH1 0x20 ADD PUSH2 0x26E9 JUMP JUMPDEST DUP4 DUP2 GT ISZERO PUSH2 0x23DE JUMPI POP POP PUSH1 0x0 SWAP2 ADD MSTORE JUMP JUMPDEST PUSH1 0x1F ADD PUSH1 0x1F NOT AND SWAP1 JUMP JUMPDEST PUSH2 0x2725 DUP2 PUSH2 0x26BE JUMP JUMPDEST DUP2 EQ PUSH2 0x2730 JUMPI PUSH1 0x0 DUP1 REVERT JUMPDEST POP JUMP JUMPDEST PUSH2 0x2725 DUP2 PUSH2 0x687 JUMP INVALID LOG3 PUSH6 0x627A7A723158 KECCAK256 SWAP8 0xDA REVERT 0xCE MULMOD KECCAK256 PUSH27 0x973E68FBC30ABCBDC28EF851E3910F736A04A23536C0871E236C65 PUSH25 0x706572696D656E74616CF564736F6C63430005100040000000 "
		},
		"gasEstimates": {
			"creation": {
				"codeDepositCost": "2022200",
				"executionCost": "22953",
				"totalCost": "2045153"
			},
			"external": {
				"addNewBattery(string,uint256)": "infinite",
				"askEnergy(uint256,uint256)": "infinite",
				"energyOffer(uint256,uint256,uint256)": "infinite",
				"getAskByBatteryId(address)": "infinite",
				"getAsksByLength(uint256)": "infinite",
				"getBatteryByID(address)": "infinite",
				"getBatteryByLength(uint256)": "infinite",
				"getBidByBatteryID(address,uint256,uint256)": "infinite",
				"getBidsByLength(uint256)": "infinite",
				"getCountOfAsks()": "1166",
				"getCountOfBatteries()": "infinite",
				"getCountOfBids()": "1144",
				"updateBattery(address,string)": "infinite",
				"viewAllAsks()": "infinite",
				"viewAllBatteries()": "infinite",
				"viewAllBids()": "infinite",
				"viewAllEnergyPurchases()": "infinite"
			},
			"internal": {
				"askEnergyTrading(struct energyBid.ask memory)": "infinite",
				"bidEnergyTrading(struct energyBid.bid memory)": "infinite"
			}
		},
		"methodIdentifiers": {
			"addNewBattery(string,uint256)": "1779e7fb",
			"askEnergy(uint256,uint256)": "18f74a60",
			"energyOffer(uint256,uint256,uint256)": "d4eed50f",
			"getAskByBatteryId(address)": "62e9a430",
			"getAsksByLength(uint256)": "03b473ad",
			"getBatteryByID(address)": "c9fb8578",
			"getBatteryByLength(uint256)": "844cbc79",
			"getBidByBatteryID(address,uint256,uint256)": "8617f9a9",
			"getBidsByLength(uint256)": "e204dacc",
			"getCountOfAsks()": "a426c768",
			"getCountOfBatteries()": "44da1a94",
			"getCountOfBids()": "9521db24",
			"updateBattery(address,string)": "eefa716b",
			"viewAllAsks()": "87bdb206",
			"viewAllBatteries()": "b47c7741",
			"viewAllBids()": "5b4cf93c",
			"viewAllEnergyPurchases()": "c26d4ce6"
		}
	},
	"abi": [
		{
			"constant": false,
			"inputs": [
				{
					"internalType": "string",
					"name": "uuID",
					"type": "string"
				},
				{
					"internalType": "uint256",
					"name": "date",
					"type": "uint256"
				}
			],
			"name": "addNewBattery",
			"outputs": [],
			"payable": false,
			"stateMutability": "nonpayable",
			"type": "function"
		},
		{
			"constant": false,
			"inputs": [
				{
					"internalType": "uint256",
					"name": "_day",
					"type": "uint256"
				},
				{
					"internalType": "uint256",
					"name": "_energy",
					"type": "uint256"
				}
			],
			"name": "askEnergy",
			"outputs": [],
			"payable": false,
			"stateMutability": "nonpayable",
			"type": "function"
		},
		{
			"constant": false,
			"inputs": [
				{
					"internalType": "uint256",
					"name": "_day",
					"type": "uint256"
				},
				{
					"internalType": "uint256",
					"name": "_energy",
					"type": "uint256"
				},
				{
					"internalType": "uint256",
					"name": "_eprice",
					"type": "uint256"
				}
			],
			"name": "energyOffer",
			"outputs": [],
			"payable": false,
			"stateMutability": "nonpayable",
			"type": "function"
		},
		{
			"constant": true,
			"inputs": [
				{
					"internalType": "address",
					"name": "_consumerID",
					"type": "address"
				}
			],
			"name": "getAskByBatteryId",
			"outputs": [
				{
					"internalType": "address",
					"name": "",
					"type": "address"
				},
				{
					"internalType": "uint256",
					"name": "",
					"type": "uint256"
				},
				{
					"internalType": "uint256",
					"name": "",
					"type": "uint256"
				}
			],
			"payable": false,
			"stateMutability": "view",
			"type": "function"
		},
		{
			"constant": true,
			"inputs": [
				{
					"internalType": "uint256",
					"name": "_idask",
					"type": "uint256"
				}
			],
			"name": "getAsksByLength",
			"outputs": [
				{
					"internalType": "address",
					"name": "",
					"type": "address"
				},
				{
					"internalType": "uint256",
					"name": "",
					"type": "uint256"
				},
				{
					"internalType": "uint256",
					"name": "",
					"type": "uint256"
				}
			],
			"payable": false,
			"stateMutability": "view",
			"type": "function"
		},
		{
			"constant": true,
			"inputs": [
				{
					"internalType": "address",
					"name": "batteryID",
					"type": "address"
				}
			],
			"name": "getBatteryByID",
			"outputs": [
				{
					"internalType": "address",
					"name": "",
					"type": "address"
				},
				{
					"internalType": "string",
					"name": "",
					"type": "string"
				},
				{
					"internalType": "uint256",
					"name": "",
					"type": "uint256"
				},
				{
					"internalType": "uint256",
					"name": "",
					"type": "uint256"
				}
			],
			"payable": false,
			"stateMutability": "view",
			"type": "function"
		},
		{
			"constant": true,
			"inputs": [
				{
					"internalType": "uint256",
					"name": "_idbat",
					"type": "uint256"
				}
			],
			"name": "getBatteryByLength",
			"outputs": [
				{
					"internalType": "address",
					"name": "",
					"type": "address"
				},
				{
					"internalType": "string",
					"name": "",
					"type": "string"
				},
				{
					"internalType": "uint256",
					"name": "",
					"type": "uint256"
				}
			],
			"payable": false,
			"stateMutability": "view",
			"type": "function"
		},
		{
			"constant": true,
			"inputs": [
				{
					"internalType": "address",
					"name": "prosumerID",
					"type": "address"
				},
				{
					"internalType": "uint256",
					"name": "day",
					"type": "uint256"
				},
				{
					"internalType": "uint256",
					"name": "numberOfBid",
					"type": "uint256"
				}
			],
			"name": "getBidByBatteryID",
			"outputs": [
				{
					"internalType": "uint256",
					"name": "",
					"type": "uint256"
				},
				{
					"internalType": "uint256",
					"name": "",
					"type": "uint256"
				},
				{
					"internalType": "uint256",
					"name": "",
					"type": "uint256"
				}
			],
			"payable": false,
			"stateMutability": "view",
			"type": "function"
		},
		{
			"constant": true,
			"inputs": [
				{
					"internalType": "uint256",
					"name": "_idbid",
					"type": "uint256"
				}
			],
			"name": "getBidsByLength",
			"outputs": [
				{
					"internalType": "address",
					"name": "",
					"type": "address"
				},
				{
					"internalType": "uint256",
					"name": "",
					"type": "uint256"
				},
				{
					"internalType": "uint256",
					"name": "",
					"type": "uint256"
				}
			],
			"payable": false,
			"stateMutability": "view",
			"type": "function"
		},
		{
			"constant": true,
			"inputs": [],
			"name": "getCountOfAsks",
			"outputs": [
				{
					"internalType": "uint256",
					"name": "count",
					"type": "uint256"
				}
			],
			"payable": false,
			"stateMutability": "view",
			"type": "function"
		},
		{
			"constant": true,
			"inputs": [],
			"name": "getCountOfBatteries",
			"outputs": [
				{
					"internalType": "uint256",
					"name": "count",
					"type": "uint256"
				}
			],
			"payable": false,
			"stateMutability": "view",
			"type": "function"
		},
		{
			"constant": true,
			"inputs": [],
			"name": "getCountOfBids",
			"outputs": [
				{
					"internalType": "uint256",
					"name": "count",
					"type": "uint256"
				}
			],
			"payable": false,
			"stateMutability": "view",
			"type": "function"
		},
		{
			"constant": false,
			"inputs": [
				{
					"internalType": "address",
					"name": "batteryID",
					"type": "address"
				},
				{
					"internalType": "string",
					"name": "uuID",
					"type": "string"
				}
			],
			"name": "updateBattery",
			"outputs": [],
			"payable": false,
			"stateMutability": "nonpayable",
			"type": "function"
		},
		{
			"constant": true,
			"inputs": [],
			"name": "viewAllAsks",
			"outputs": [
				{
					"components": [
						{
							"internalType": "address",
							"name": "consumerID",
							"type": "address"
						},
						{
							"internalType": "uint256",
							"name": "energy",
							"type": "uint256"
						},
						{
							"internalType": "uint256",
							"name": "timestamp",
							"type": "uint256"
						},
						{
							"internalType": "uint256",
							"name": "day",
							"type": "uint256"
						},
						{
							"internalType": "uint256",
							"name": "remainingEnergy",
							"type": "uint256"
						}
					],
					"internalType": "struct energyBid.ask[]",
					"name": "",
					"type": "tuple[]"
				}
			],
			"payable": false,
			"stateMutability": "view",
			"type": "function"
		},
		{
			"constant": true,
			"inputs": [],
			"name": "viewAllBatteries",
			"outputs": [
				{
					"components": [
						{
							"internalType": "address",
							"name": "batteryID",
							"type": "address"
						},
						{
							"internalType": "string",
							"name": "uuID",
							"type": "string"
						},
						{
							"internalType": "uint256",
							"name": "date",
							"type": "uint256"
						},
						{
							"internalType": "uint256",
							"name": "timestamp",
							"type": "uint256"
						},
						{
							"internalType": "bool",
							"name": "isExist",
							"type": "bool"
						}
					],
					"internalType": "struct batteryRegistry.battery[]",
					"name": "",
					"type": "tuple[]"
				}
			],
			"payable": false,
			"stateMutability": "view",
			"type": "function"
		},
		{
			"constant": true,
			"inputs": [],
			"name": "viewAllBids",
			"outputs": [
				{
					"components": [
						{
							"internalType": "address",
							"name": "prosumerID",
							"type": "address"
						},
						{
							"internalType": "uint256",
							"name": "numberOfBid",
							"type": "uint256"
						},
						{
							"internalType": "uint256",
							"name": "day",
							"type": "uint256"
						},
						{
							"internalType": "uint256",
							"name": "energy",
							"type": "uint256"
						},
						{
							"internalType": "uint256",
							"name": "eprice",
							"type": "uint256"
						},
						{
							"internalType": "uint256",
							"name": "timestamp",
							"type": "uint256"
						}
					],
					"internalType": "struct energyBid.bid[]",
					"name": "",
					"type": "tuple[]"
				}
			],
			"payable": false,
			"stateMutability": "view",
			"type": "function"
		},
		{
			"constant": true,
			"inputs": [],
			"name": "viewAllEnergyPurchases",
			"outputs": [
				{
					"components": [
						{
							"internalType": "address",
							"name": "consumerID",
							"type": "address"
						},
						{
							"internalType": "address",
							"name": "prosumerID",
							"type": "address"
						},
						{
							"internalType": "uint256",
							"name": "energy",
							"type": "uint256"
						},
						{
							"internalType": "uint256",
							"name": "price",
							"type": "uint256"
						},
						{
							"internalType": "uint256",
							"name": "day",
							"type": "uint256"
						},
						{
							"internalType": "uint256",
							"name": "timestamp",
							"type": "uint256"
						}
					],
					"internalType": "struct energyBid.buyedEnergy[]",
					"name": "",
					"type": "tuple[]"
				}
			],
			"payable": false,
			"stateMutability": "view",
			"type": "function"
		}
	]
}