{
	"data": {
		"bytecode": {
			"linkReferences": {},
			"object": "608060405234801561001057600080fd5b5061207b806100206000396000f3fe608060405234801561001057600080fd5b506004361061009e5760003560e01c8063bb295e5f11610066578063bb295e5f146102b5578063c47f0f90146102d8578063c8feb1fd1461048d578063dc838210146104aa578063eb2eb88f146104cd5761009e565b80631add971f146100a35780636011651f146100c857806388d4e8f6146100eb5780638927b7db1461025b5780638d0f6da3146102ad575b600080fd5b6100c6600480360360408110156100b957600080fd5b50803590602001356104e7565b005b6100c6600480360360408110156100de57600080fd5b50803590602001356106ed565b6100f36108a4565b60405180806020018060200180602001806020018060200186810386528b818151815260200191508051906020019060200280838360005b8381101561014357818101518382015260200161012b565b5050505090500186810385528a818151815260200191508051906020019060200280838360005b8381101561018257818101518382015260200161016a565b50505050905001868103845289818151815260200191508051906020019060200280838360005b838110156101c15781810151838201526020016101a9565b50505050905001868103835288818151815260200191508051906020019060200280838360005b838110156102005781810151838201526020016101e8565b50505050905001868103825287818151815260200191508051906020019060200280838360005b8381101561023f578181015183820152602001610227565b505050509050019a505050505050505050505060405180910390f35b6102786004803603602081101561027157600080fd5b5035610b09565b604080516001600160a01b03909616865260208601949094528484019290925260608401526080830152519081900360a00190f35b6100f3610c7c565b6100c6600480360360408110156102cb57600080fd5b5080359060200135610ecf565b6102e061145c565b6040518080602001806020018060200180602001806020018060200187810387528d818151815260200191508051906020019060200280838360005b8381101561033457818101518382015260200161031c565b5050505090500187810386528c818151815260200191508051906020019060200280838360005b8381101561037357818101518382015260200161035b565b5050505090500187810385528b818151815260200191508051906020019060200280838360005b838110156103b257818101518382015260200161039a565b5050505090500187810384528a818151815260200191508051906020019060200280838360005b838110156103f15781810151838201526020016103d9565b50505050905001878103835289818151815260200191508051906020019060200280838360005b83811015610430578181015183820152602001610418565b50505050905001878103825288818151815260200191508051906020019060200280838360005b8381101561046f578181015183820152602001610457565b505050509050019c5050505050505050505050505060405180910390f35b610278600480360360208110156104a357600080fd5b50356117c0565b6100c6600480360360408110156104c057600080fd5b508035906020013561190d565b6104d5611e95565b60408051918252519081900360200190f35b620f42408210156105295760405162461bcd60e51b815260040180806020018281038252605b815260200180611fec605b913960600191505060405180910390fd5b60018110156105695760405162461bcd60e51b815260040180806020018281038252603a815260200180611fb2603a913960400191505060405180910390fd5b336105746000611f2f565b60006105806000611f38565b60008181526001602081815260408084206002805491829055825160a0810184526001600160a01b038a81168083528287018a81528387018f8152606085018f815242608087018181529b8901885596909b5293517f405787fa12a823e0f2b7631cc41b3ba8828b3321ca811111fa75cd3aa3bb5ace6005880290810180546001600160a01b0319169290951691909117909355517f405787fa12a823e0f2b7631cc41b3ba8828b3321ca811111fa75cd3aa3bb5acf83015591517f405787fa12a823e0f2b7631cc41b3ba8828b3321ca811111fa75cd3aa3bb5ad082015596517f405787fa12a823e0f2b7631cc41b3ba8828b3321ca811111fa75cd3aa3bb5ad188015594517f405787fa12a823e0f2b7631cc41b3ba8828b3321ca811111fa75cd3aa3bb5ad29096019590955581518a8152915195965094889493927fa81c6b2ac28b86b504eda4580a6d57af0f1e32e394ef9d97d34e9a11f2f112ec928290030190a45050505050565b620f424082101561072f5760405162461bcd60e51b815260040180806020018281038252605b815260200180611fec605b913960600191505060405180910390fd5b3361073a6000611f2f565b60006107466000611f38565b6040805160a0810182526001600160a01b0385811680835260208084018681528486018b8152606086018b815242608088018181526004805460018101825560009190915298517f8a35acfbc15ff81a39ae7d344fd709f28e8600b4aa8c65c6b64bfe7fe36bd19b6005909a02998a0180546001600160a01b031916919099161790975592517f8a35acfbc15ff81a39ae7d344fd709f28e8600b4aa8c65c6b64bfe7fe36bd19c88015590517f8a35acfbc15ff81a39ae7d344fd709f28e8600b4aa8c65c6b64bfe7fe36bd19d870155517f8a35acfbc15ff81a39ae7d344fd709f28e8600b4aa8c65c6b64bfe7fe36bd19e86015592517f8a35acfbc15ff81a39ae7d344fd709f28e8600b4aa8c65c6b64bfe7fe36bd19f90940193909355835189815293519495508794919390927ff5dc7cb3c4665dfe7b89d3bb9aec5338f76497d0af55dc4e4922ee3071db97ab92918290030190a450505050565b6060806060806060806004805490506040519080825280602002602001820160405280156108dc578160200160208202803883390190505b5090506060600480549050604051908082528060200260200182016040528015610910578160200160208202803883390190505b5090506060600480549050604051908082528060200260200182016040528015610944578160200160208202803883390190505b5090506060600480549050604051908082528060200260200182016040528015610978578160200160208202803883390190505b50905060606004805490506040519080825280602002602001820160405280156109ac578160200160208202803883390190505b50905060005b600454811015610af757600481815481106109c957fe5b600091825260209091206005909102015486516001600160a01b03909116908790839081106109f457fe5b60200260200101906001600160a01b031690816001600160a01b03168152505060048181548110610a2157fe5b906000526020600020906005020160010154858281518110610a3f57fe5b60200260200101818152505060048181548110610a5857fe5b906000526020600020906005020160020154848281518110610a7657fe5b60200260200101818152505060048181548110610a8f57fe5b906000526020600020906005020160030154838281518110610aad57fe5b60200260200101818152505060048181548110610ac657fe5b906000526020600020906005020160040154828281518110610ae457fe5b60209081029190910101526001016109b2565b50939992985090965094509092509050565b60008181526001602052604081205460045482918291829182918110610b64576040805162461bcd60e51b815260206004820152600b60248201526a0aee4dedcce40d2dcc8caf60ab1b604482015290519081900360640190fd5b8660048281548110610b7257fe5b90600052602060002090600502016001015414610bc1576040805162461bcd60e51b815260206004820152600860248201526715dc9bdb99c8125160c21b604482015290519081900360640190fd5b60048181548110610bce57fe5b6000918252602090912060059091020154600480546001600160a01b039092169183908110610bf957fe5b90600052602060002090600502016001015460048381548110610c1857fe5b90600052602060002090600502016002015460048481548110610c3757fe5b90600052602060002090600502016003015460048581548110610c5657fe5b906000526020600020906005020160040154955095509550955095505091939590929450565b606080606080606080600280549050604051908082528060200260200182016040528015610cb4578160200160208202803883390190505b5090506060600280549050604051908082528060200260200182016040528015610ce8578160200160208202803883390190505b5090506060600280549050604051908082528060200260200182016040528015610d1c578160200160208202803883390190505b5090506060600280549050604051908082528060200260200182016040528015610d50578160200160208202803883390190505b5090506060600280549050604051908082528060200260200182016040528015610d84578160200160208202803883390190505b50905060005b600254811015610af75760028181548110610da157fe5b600091825260209091206005909102015486516001600160a01b0390911690879083908110610dcc57fe5b60200260200101906001600160a01b031690816001600160a01b03168152505060028181548110610df957fe5b906000526020600020906005020160010154858281518110610e1757fe5b60200260200101818152505060028181548110610e3057fe5b906000526020600020906005020160020154848281518110610e4e57fe5b60200260200101818152505060028181548110610e6757fe5b906000526020600020906005020160030154838281518110610e8557fe5b60200260200101818152505060028181548110610e9e57fe5b906000526020600020906005020160040154828281518110610ebc57fe5b6020908102919091010152600101610d8a565b6000828152600560205260408120543391908190818080805b600454811015611450578960048281548110610f0057fe5b9060005260206000209060050201600101541415611448578860048281548110610f2657fe5b906000526020600020906005020160020154101561114a5760048181548110610f4b57fe5b6000918252602090912060059091020154600480546001600160a01b0390921698509082908110610f7857fe5b906000526020600020906005020160020154915060048181548110610f9957fe5b906000526020600020906005020160030154820292508189039850610fbe6000611f2f565b6000610fca6000611f38565b60008181526003602090815260409182902060048054918b9055835160a0810185526001600160a01b038f1681529283018590529282018e90528254909a509293509091606082019083908690811061101f57fe5b60009182526020808320600592830201600390810154855242948201949094528554600180820188559684529281902085519390920290910180546001600160a01b0319166001600160a01b03909316929092178255830151818501556040830151600282015560608301519181019190915560809091015160049182015554909550851015611130576004600160028054905003815481106110be57fe5b9060005260206000209060050201600483815481106110d957fe5b60009182526020909120825460059092020180546001600160a01b0319166001600160a01b039092169190911781556001808301549082015560028083015490820155600380830154908201556004918201549101555b6004805490611143906000198301611f3c565b505061130d565b886004828154811061115857fe5b9060005260206000209060050201600201541415611272576004818154811061117d57fe5b6000918252602090912060059091020154600480546001600160a01b0390921698508a935090829081106111ad57fe5b906000526020600020906005020160030154820292506001935060016004805490501115611259576004805460001981019081106111e757fe5b90600052602060002090600502016004828154811061120257fe5b60009182526020909120825460059092020180546001600160a01b0319166001600160a01b039092169190911781556001808301549082015560028083015490820155600380830154908201556004918201549101555b600480549061126c906000198301611f3c565b5061130d565b6004818154811061127f57fe5b6000918252602090912060059091020154600480546001600160a01b0390921698508a935090829081106112af57fe5b9060005260206000209060050201600301548202925081600482815481106112d357fe5b90600052602060002090600502016002015403600482815481106112f357fe5b906000526020600020906005020160020181905550600193505b831561144857600680549050945084600560008c81526020019081526020016000208190555060066040518060c00160405280896001600160a01b031681526020018a6001600160a01b031681526020018481526020016004848154811061137157fe5b6000918252602080832060059283020160019081015485528482018a90524260409586018190528754808301895597855293829020865160069098020180546001600160a01b03199081166001600160a01b03998a1617825587840151928201805490911692891692909217909155858501516002820155606086015160038201556080860151600482015560a09095015194909101939093558151868152915190938b811693908d16927fbc69ab44abea835022ac03047511c97cec4735b9476ea16b962411c87fcb2239929081900390910190a45b600101610ee8565b50505050505050505050565b6060808080808060008061146e611e95565b905060608160405190808252806020026020018201604052801561149c578160200160208202803883390190505b5090506060826040519080825280602002602001820160405280156114cb578160200160208202803883390190505b5090506060836040519080825280602002602001820160405280156114fa578160200160208202803883390190505b509050606084604051908082528060200260200182016040528015611529578160200160208202803883390190505b509050606085604051908082528060200260200182016040528015611558578160200160208202803883390190505b509050606086604051908082528060200260200182016040528015611587578160200160208202803883390190505b50905060005b6006548110156117aa57336001600160a01b0316600682815481106115ae57fe5b60009182526020909120600690910201546001600160a01b031614806116055750336001600160a01b0316600682815481106115e657fe5b60009182526020909120600160069092020101546001600160a01b0316145b156117a2576006818154811061161757fe5b600091825260209091206006909102015487516001600160a01b039091169088908b90811061164257fe5b60200260200101906001600160a01b031690816001600160a01b0316815250506006818154811061166f57fe5b906000526020600020906006020160010160009054906101000a90046001600160a01b0316868a815181106116a057fe5b60200260200101906001600160a01b031690816001600160a01b031681525050600681815481106116cd57fe5b906000526020600020906006020160020154858a815181106116eb57fe5b6020026020010181815250506006818154811061170457fe5b906000526020600020906006020160030154848a8151811061172257fe5b6020026020010181815250506006818154811061173b57fe5b906000526020600020906006020160040154838a8151811061175957fe5b6020026020010181815250506006818154811061177257fe5b906000526020600020906006020160050154828a8151811061179057fe5b60209081029190910101526001909801975b60010161158d565b50949d939c50919a509850965090945092505050565b6000818152600160205260408120546002548291829182918291811061181b576040805162461bcd60e51b815260206004820152600b60248201526a0aee4dedcce40d2dcc8caf60ab1b604482015290519081900360640190fd5b866002828154811061182957fe5b90600052602060002090600502016001015414611878576040805162461bcd60e51b815260206004820152600860248201526715dc9bdb99c8125160c21b604482015290519081900360640190fd5b6002818154811061188557fe5b6000918252602090912060059091020154600280546001600160a01b0390921691839081106118b057fe5b906000526020600020906005020160010154600283815481106118cf57fe5b906000526020600020906005020160020154600284815481106118ee57fe5b90600052602060002090600502016003015460028581548110610c5657fe5b6000828152600560205260408120543391908190818080805b60025481101561145057896002828154811061193e57fe5b9060005260206000209060050201600101541415611e8d57886002828154811061196457fe5b9060005260206000209060050201600201541015611b8f576002818154811061198957fe5b6000918252602090912060059091020154600280546001600160a01b03909216985090829081106119b657fe5b9060005260206000209060050201600201549150600281815481106119d757fe5b9060005260206000209060050201600301548202925081890398506119fc6000611f2f565b6000611a086000611f38565b60008181526003602090815260409182902060048054918b9055835160a0810185526001600160a01b038f1681529283018590529282018e905260028054919b509394509192909160608301919086908110611a6057fe5b60009182526020808320600592830201600390810154855242948201949094528554600180820188559684529281902085519390920290910180546001600160a01b0319166001600160a01b0390931692909217825583015181850155604083015160028083019190915560608401519282019290925560809092015160049092019190915554909550851015611b7557600280546000198101908110611b0357fe5b906000526020600020906005020160028381548110611b1e57fe5b60009182526020909120825460059092020180546001600160a01b0319166001600160a01b039092169190911781556001808301549082015560028083015490820155600380830154908201556004918201549101555b6002805490611b88906000198301611f3c565b5050611d52565b8860028281548110611b9d57fe5b9060005260206000209060050201600201541415611cb75760028181548110611bc257fe5b6000918252602090912060059091020154600280546001600160a01b0390921698508a93509082908110611bf257fe5b906000526020600020906005020160030154820292506001935060016002805490501115611c9e57600280546000198101908110611c2c57fe5b906000526020600020906005020160028281548110611c4757fe5b60009182526020909120825460059092020180546001600160a01b0319166001600160a01b039092169190911781556001808301549082015560028083015490820155600380830154908201556004918201549101555b6002805490611cb1906000198301611f3c565b50611d52565b60028181548110611cc457fe5b6000918252602090912060059091020154600280546001600160a01b0390921698508a93509082908110611cf457fe5b906000526020600020906005020160030154820292508160028281548110611d1857fe5b9060005260206000209060050201600201540360028281548110611d3857fe5b906000526020600020906005020160020181905550600193505b8315611e8d57600680549050945084600560008c81526020019081526020016000208190555060066040518060c001604052808a6001600160a01b03168152602001896001600160a01b0316815260200184815260200160028481548110611db657fe5b6000918252602080832060059283020160019081015485528482018a90524260409586018190528754808301895597855293829020865160069098020180546001600160a01b03199081166001600160a01b03998a1617825587840151928201805490911692891692909217909155858501516002820155606086015160038201556080860151600482015560a09095015194909101939093558151868152915190938c811693908c16927fbc69ab44abea835022ac03047511c97cec4735b9476ea16b962411c87fcb2239929081900390910190a45b600101611926565b60003381805b600654811015611f2757826001600160a01b031660068281548110611ebc57fe5b60009182526020909120600690910201546001600160a01b03161480611f135750826001600160a01b031660068281548110611ef457fe5b60009182526020909120600160069092020101546001600160a01b0316145b15611f1f576001909101905b600101611e9b565b509150505b90565b80546001019055565b5490565b815481835581811115611f6857600502816005028360005260206000209182019101611f689190611f6d565b505050565b611f2c91905b80821115611fad5780546001600160a01b031916815560006001820181905560028201819055600382018190556004820155600501611f73565b509056fe507269636520696e202763656e74272c20666f72206578616d706c6520312e35646f6c6c6172732f6b7768203d2031353063656e74732f6b776857726f6e6720656e6572677920696e70757420726571756972652061206d696e696d756d206f66666572206f662031206b576828696e20776873292c20666f7220696e7374616e636520352e366b776873203d2035363030776873a265627a7a72315820ffa44977c758d20f299c8473562bcf002beaf94d067fe533aab40fb46df9ece864736f6c63430005100032",
			"opcodes": "PUSH1 0x80 PUSH1 0x40 MSTORE CALLVALUE DUP1 ISZERO PUSH2 0x10 JUMPI PUSH1 0x0 DUP1 REVERT JUMPDEST POP PUSH2 0x207B DUP1 PUSH2 0x20 PUSH1 0x0 CODECOPY PUSH1 0x0 RETURN INVALID PUSH1 0x80 PUSH1 0x40 MSTORE CALLVALUE DUP1 ISZERO PUSH2 0x10 JUMPI PUSH1 0x0 DUP1 REVERT JUMPDEST POP PUSH1 0x4 CALLDATASIZE LT PUSH2 0x9E JUMPI PUSH1 0x0 CALLDATALOAD PUSH1 0xE0 SHR DUP1 PUSH4 0xBB295E5F GT PUSH2 0x66 JUMPI DUP1 PUSH4 0xBB295E5F EQ PUSH2 0x2B5 JUMPI DUP1 PUSH4 0xC47F0F90 EQ PUSH2 0x2D8 JUMPI DUP1 PUSH4 0xC8FEB1FD EQ PUSH2 0x48D JUMPI DUP1 PUSH4 0xDC838210 EQ PUSH2 0x4AA JUMPI DUP1 PUSH4 0xEB2EB88F EQ PUSH2 0x4CD JUMPI PUSH2 0x9E JUMP JUMPDEST DUP1 PUSH4 0x1ADD971F EQ PUSH2 0xA3 JUMPI DUP1 PUSH4 0x6011651F EQ PUSH2 0xC8 JUMPI DUP1 PUSH4 0x88D4E8F6 EQ PUSH2 0xEB JUMPI DUP1 PUSH4 0x8927B7DB EQ PUSH2 0x25B JUMPI DUP1 PUSH4 0x8D0F6DA3 EQ PUSH2 0x2AD JUMPI JUMPDEST PUSH1 0x0 DUP1 REVERT JUMPDEST PUSH2 0xC6 PUSH1 0x4 DUP1 CALLDATASIZE SUB PUSH1 0x40 DUP2 LT ISZERO PUSH2 0xB9 JUMPI PUSH1 0x0 DUP1 REVERT JUMPDEST POP DUP1 CALLDATALOAD SWAP1 PUSH1 0x20 ADD CALLDATALOAD PUSH2 0x4E7 JUMP JUMPDEST STOP JUMPDEST PUSH2 0xC6 PUSH1 0x4 DUP1 CALLDATASIZE SUB PUSH1 0x40 DUP2 LT ISZERO PUSH2 0xDE JUMPI PUSH1 0x0 DUP1 REVERT JUMPDEST POP DUP1 CALLDATALOAD SWAP1 PUSH1 0x20 ADD CALLDATALOAD PUSH2 0x6ED JUMP JUMPDEST PUSH2 0xF3 PUSH2 0x8A4 JUMP JUMPDEST PUSH1 0x40 MLOAD DUP1 DUP1 PUSH1 0x20 ADD DUP1 PUSH1 0x20 ADD DUP1 PUSH1 0x20 ADD DUP1 PUSH1 0x20 ADD DUP1 PUSH1 0x20 ADD DUP7 DUP2 SUB DUP7 MSTORE DUP12 DUP2 DUP2 MLOAD DUP2 MSTORE PUSH1 0x20 ADD SWAP2 POP DUP1 MLOAD SWAP1 PUSH1 0x20 ADD SWAP1 PUSH1 0x20 MUL DUP1 DUP4 DUP4 PUSH1 0x0 JUMPDEST DUP4 DUP2 LT ISZERO PUSH2 0x143 JUMPI DUP2 DUP2 ADD MLOAD DUP4 DUP3 ADD MSTORE PUSH1 0x20 ADD PUSH2 0x12B JUMP JUMPDEST POP POP POP POP SWAP1 POP ADD DUP7 DUP2 SUB DUP6 MSTORE DUP11 DUP2 DUP2 MLOAD DUP2 MSTORE PUSH1 0x20 ADD SWAP2 POP DUP1 MLOAD SWAP1 PUSH1 0x20 ADD SWAP1 PUSH1 0x20 MUL DUP1 DUP4 DUP4 PUSH1 0x0 JUMPDEST DUP4 DUP2 LT ISZERO PUSH2 0x182 JUMPI DUP2 DUP2 ADD MLOAD DUP4 DUP3 ADD MSTORE PUSH1 0x20 ADD PUSH2 0x16A JUMP JUMPDEST POP POP POP POP SWAP1 POP ADD DUP7 DUP2 SUB DUP5 MSTORE DUP10 DUP2 DUP2 MLOAD DUP2 MSTORE PUSH1 0x20 ADD SWAP2 POP DUP1 MLOAD SWAP1 PUSH1 0x20 ADD SWAP1 PUSH1 0x20 MUL DUP1 DUP4 DUP4 PUSH1 0x0 JUMPDEST DUP4 DUP2 LT ISZERO PUSH2 0x1C1 JUMPI DUP2 DUP2 ADD MLOAD DUP4 DUP3 ADD MSTORE PUSH1 0x20 ADD PUSH2 0x1A9 JUMP JUMPDEST POP POP POP POP SWAP1 POP ADD DUP7 DUP2 SUB DUP4 MSTORE DUP9 DUP2 DUP2 MLOAD DUP2 MSTORE PUSH1 0x20 ADD SWAP2 POP DUP1 MLOAD SWAP1 PUSH1 0x20 ADD SWAP1 PUSH1 0x20 MUL DUP1 DUP4 DUP4 PUSH1 0x0 JUMPDEST DUP4 DUP2 LT ISZERO PUSH2 0x200 JUMPI DUP2 DUP2 ADD MLOAD DUP4 DUP3 ADD MSTORE PUSH1 0x20 ADD PUSH2 0x1E8 JUMP JUMPDEST POP POP POP POP SWAP1 POP ADD DUP7 DUP2 SUB DUP3 MSTORE DUP8 DUP2 DUP2 MLOAD DUP2 MSTORE PUSH1 0x20 ADD SWAP2 POP DUP1 MLOAD SWAP1 PUSH1 0x20 ADD SWAP1 PUSH1 0x20 MUL DUP1 DUP4 DUP4 PUSH1 0x0 JUMPDEST DUP4 DUP2 LT ISZERO PUSH2 0x23F JUMPI DUP2 DUP2 ADD MLOAD DUP4 DUP3 ADD MSTORE PUSH1 0x20 ADD PUSH2 0x227 JUMP JUMPDEST POP POP POP POP SWAP1 POP ADD SWAP11 POP POP POP POP POP POP POP POP POP POP POP PUSH1 0x40 MLOAD DUP1 SWAP2 SUB SWAP1 RETURN JUMPDEST PUSH2 0x278 PUSH1 0x4 DUP1 CALLDATASIZE SUB PUSH1 0x20 DUP2 LT ISZERO PUSH2 0x271 JUMPI PUSH1 0x0 DUP1 REVERT JUMPDEST POP CALLDATALOAD PUSH2 0xB09 JUMP JUMPDEST PUSH1 0x40 DUP1 MLOAD PUSH1 0x1 PUSH1 0x1 PUSH1 0xA0 SHL SUB SWAP1 SWAP7 AND DUP7 MSTORE PUSH1 0x20 DUP7 ADD SWAP5 SWAP1 SWAP5 MSTORE DUP5 DUP5 ADD SWAP3 SWAP1 SWAP3 MSTORE PUSH1 0x60 DUP5 ADD MSTORE PUSH1 0x80 DUP4 ADD MSTORE MLOAD SWAP1 DUP2 SWAP1 SUB PUSH1 0xA0 ADD SWAP1 RETURN JUMPDEST PUSH2 0xF3 PUSH2 0xC7C JUMP JUMPDEST PUSH2 0xC6 PUSH1 0x4 DUP1 CALLDATASIZE SUB PUSH1 0x40 DUP2 LT ISZERO PUSH2 0x2CB JUMPI PUSH1 0x0 DUP1 REVERT JUMPDEST POP DUP1 CALLDATALOAD SWAP1 PUSH1 0x20 ADD CALLDATALOAD PUSH2 0xECF JUMP JUMPDEST PUSH2 0x2E0 PUSH2 0x145C JUMP JUMPDEST PUSH1 0x40 MLOAD DUP1 DUP1 PUSH1 0x20 ADD DUP1 PUSH1 0x20 ADD DUP1 PUSH1 0x20 ADD DUP1 PUSH1 0x20 ADD DUP1 PUSH1 0x20 ADD DUP1 PUSH1 0x20 ADD DUP8 DUP2 SUB DUP8 MSTORE DUP14 DUP2 DUP2 MLOAD DUP2 MSTORE PUSH1 0x20 ADD SWAP2 POP DUP1 MLOAD SWAP1 PUSH1 0x20 ADD SWAP1 PUSH1 0x20 MUL DUP1 DUP4 DUP4 PUSH1 0x0 JUMPDEST DUP4 DUP2 LT ISZERO PUSH2 0x334 JUMPI DUP2 DUP2 ADD MLOAD DUP4 DUP3 ADD MSTORE PUSH1 0x20 ADD PUSH2 0x31C JUMP JUMPDEST POP POP POP POP SWAP1 POP ADD DUP8 DUP2 SUB DUP7 MSTORE DUP13 DUP2 DUP2 MLOAD DUP2 MSTORE PUSH1 0x20 ADD SWAP2 POP DUP1 MLOAD SWAP1 PUSH1 0x20 ADD SWAP1 PUSH1 0x20 MUL DUP1 DUP4 DUP4 PUSH1 0x0 JUMPDEST DUP4 DUP2 LT ISZERO PUSH2 0x373 JUMPI DUP2 DUP2 ADD MLOAD DUP4 DUP3 ADD MSTORE PUSH1 0x20 ADD PUSH2 0x35B JUMP JUMPDEST POP POP POP POP SWAP1 POP ADD DUP8 DUP2 SUB DUP6 MSTORE DUP12 DUP2 DUP2 MLOAD DUP2 MSTORE PUSH1 0x20 ADD SWAP2 POP DUP1 MLOAD SWAP1 PUSH1 0x20 ADD SWAP1 PUSH1 0x20 MUL DUP1 DUP4 DUP4 PUSH1 0x0 JUMPDEST DUP4 DUP2 LT ISZERO PUSH2 0x3B2 JUMPI DUP2 DUP2 ADD MLOAD DUP4 DUP3 ADD MSTORE PUSH1 0x20 ADD PUSH2 0x39A JUMP JUMPDEST POP POP POP POP SWAP1 POP ADD DUP8 DUP2 SUB DUP5 MSTORE DUP11 DUP2 DUP2 MLOAD DUP2 MSTORE PUSH1 0x20 ADD SWAP2 POP DUP1 MLOAD SWAP1 PUSH1 0x20 ADD SWAP1 PUSH1 0x20 MUL DUP1 DUP4 DUP4 PUSH1 0x0 JUMPDEST DUP4 DUP2 LT ISZERO PUSH2 0x3F1 JUMPI DUP2 DUP2 ADD MLOAD DUP4 DUP3 ADD MSTORE PUSH1 0x20 ADD PUSH2 0x3D9 JUMP JUMPDEST POP POP POP POP SWAP1 POP ADD DUP8 DUP2 SUB DUP4 MSTORE DUP10 DUP2 DUP2 MLOAD DUP2 MSTORE PUSH1 0x20 ADD SWAP2 POP DUP1 MLOAD SWAP1 PUSH1 0x20 ADD SWAP1 PUSH1 0x20 MUL DUP1 DUP4 DUP4 PUSH1 0x0 JUMPDEST DUP4 DUP2 LT ISZERO PUSH2 0x430 JUMPI DUP2 DUP2 ADD MLOAD DUP4 DUP3 ADD MSTORE PUSH1 0x20 ADD PUSH2 0x418 JUMP JUMPDEST POP POP POP POP SWAP1 POP ADD DUP8 DUP2 SUB DUP3 MSTORE DUP9 DUP2 DUP2 MLOAD DUP2 MSTORE PUSH1 0x20 ADD SWAP2 POP DUP1 MLOAD SWAP1 PUSH1 0x20 ADD SWAP1 PUSH1 0x20 MUL DUP1 DUP4 DUP4 PUSH1 0x0 JUMPDEST DUP4 DUP2 LT ISZERO PUSH2 0x46F JUMPI DUP2 DUP2 ADD MLOAD DUP4 DUP3 ADD MSTORE PUSH1 0x20 ADD PUSH2 0x457 JUMP JUMPDEST POP POP POP POP SWAP1 POP ADD SWAP13 POP POP POP POP POP POP POP POP POP POP POP POP POP PUSH1 0x40 MLOAD DUP1 SWAP2 SUB SWAP1 RETURN JUMPDEST PUSH2 0x278 PUSH1 0x4 DUP1 CALLDATASIZE SUB PUSH1 0x20 DUP2 LT ISZERO PUSH2 0x4A3 JUMPI PUSH1 0x0 DUP1 REVERT JUMPDEST POP CALLDATALOAD PUSH2 0x17C0 JUMP JUMPDEST PUSH2 0xC6 PUSH1 0x4 DUP1 CALLDATASIZE SUB PUSH1 0x40 DUP2 LT ISZERO PUSH2 0x4C0 JUMPI PUSH1 0x0 DUP1 REVERT JUMPDEST POP DUP1 CALLDATALOAD SWAP1 PUSH1 0x20 ADD CALLDATALOAD PUSH2 0x190D JUMP JUMPDEST PUSH2 0x4D5 PUSH2 0x1E95 JUMP JUMPDEST PUSH1 0x40 DUP1 MLOAD SWAP2 DUP3 MSTORE MLOAD SWAP1 DUP2 SWAP1 SUB PUSH1 0x20 ADD SWAP1 RETURN JUMPDEST PUSH3 0xF4240 DUP3 LT ISZERO PUSH2 0x529 JUMPI PUSH1 0x40 MLOAD PUSH3 0x461BCD PUSH1 0xE5 SHL DUP2 MSTORE PUSH1 0x4 ADD DUP1 DUP1 PUSH1 0x20 ADD DUP3 DUP2 SUB DUP3 MSTORE PUSH1 0x5B DUP2 MSTORE PUSH1 0x20 ADD DUP1 PUSH2 0x1FEC PUSH1 0x5B SWAP2 CODECOPY PUSH1 0x60 ADD SWAP2 POP POP PUSH1 0x40 MLOAD DUP1 SWAP2 SUB SWAP1 REVERT JUMPDEST PUSH1 0x1 DUP2 LT ISZERO PUSH2 0x569 JUMPI PUSH1 0x40 MLOAD PUSH3 0x461BCD PUSH1 0xE5 SHL DUP2 MSTORE PUSH1 0x4 ADD DUP1 DUP1 PUSH1 0x20 ADD DUP3 DUP2 SUB DUP3 MSTORE PUSH1 0x3A DUP2 MSTORE PUSH1 0x20 ADD DUP1 PUSH2 0x1FB2 PUSH1 0x3A SWAP2 CODECOPY PUSH1 0x40 ADD SWAP2 POP POP PUSH1 0x40 MLOAD DUP1 SWAP2 SUB SWAP1 REVERT JUMPDEST CALLER PUSH2 0x574 PUSH1 0x0 PUSH2 0x1F2F JUMP JUMPDEST PUSH1 0x0 PUSH2 0x580 PUSH1 0x0 PUSH2 0x1F38 JUMP JUMPDEST PUSH1 0x0 DUP2 DUP2 MSTORE PUSH1 0x1 PUSH1 0x20 DUP2 DUP2 MSTORE PUSH1 0x40 DUP1 DUP5 KECCAK256 PUSH1 0x2 DUP1 SLOAD SWAP2 DUP3 SWAP1 SSTORE DUP3 MLOAD PUSH1 0xA0 DUP2 ADD DUP5 MSTORE PUSH1 0x1 PUSH1 0x1 PUSH1 0xA0 SHL SUB DUP11 DUP2 AND DUP1 DUP4 MSTORE DUP3 DUP8 ADD DUP11 DUP2 MSTORE DUP4 DUP8 ADD DUP16 DUP2 MSTORE PUSH1 0x60 DUP6 ADD DUP16 DUP2 MSTORE TIMESTAMP PUSH1 0x80 DUP8 ADD DUP2 DUP2 MSTORE SWAP12 DUP10 ADD DUP9 SSTORE SWAP7 SWAP1 SWAP12 MSTORE SWAP4 MLOAD PUSH32 0x405787FA12A823E0F2B7631CC41B3BA8828B3321CA811111FA75CD3AA3BB5ACE PUSH1 0x5 DUP9 MUL SWAP1 DUP2 ADD DUP1 SLOAD PUSH1 0x1 PUSH1 0x1 PUSH1 0xA0 SHL SUB NOT AND SWAP3 SWAP1 SWAP6 AND SWAP2 SWAP1 SWAP2 OR SWAP1 SWAP4 SSTORE MLOAD PUSH32 0x405787FA12A823E0F2B7631CC41B3BA8828B3321CA811111FA75CD3AA3BB5ACF DUP4 ADD SSTORE SWAP2 MLOAD PUSH32 0x405787FA12A823E0F2B7631CC41B3BA8828B3321CA811111FA75CD3AA3BB5AD0 DUP3 ADD SSTORE SWAP7 MLOAD PUSH32 0x405787FA12A823E0F2B7631CC41B3BA8828B3321CA811111FA75CD3AA3BB5AD1 DUP9 ADD SSTORE SWAP5 MLOAD PUSH32 0x405787FA12A823E0F2B7631CC41B3BA8828B3321CA811111FA75CD3AA3BB5AD2 SWAP1 SWAP7 ADD SWAP6 SWAP1 SWAP6 SSTORE DUP2 MLOAD DUP11 DUP2 MSTORE SWAP2 MLOAD SWAP6 SWAP7 POP SWAP5 DUP9 SWAP5 SWAP4 SWAP3 PUSH32 0xA81C6B2AC28B86B504EDA4580A6D57AF0F1E32E394EF9D97D34E9A11F2F112EC SWAP3 DUP3 SWAP1 SUB ADD SWAP1 LOG4 POP POP POP POP POP JUMP JUMPDEST PUSH3 0xF4240 DUP3 LT ISZERO PUSH2 0x72F JUMPI PUSH1 0x40 MLOAD PUSH3 0x461BCD PUSH1 0xE5 SHL DUP2 MSTORE PUSH1 0x4 ADD DUP1 DUP1 PUSH1 0x20 ADD DUP3 DUP2 SUB DUP3 MSTORE PUSH1 0x5B DUP2 MSTORE PUSH1 0x20 ADD DUP1 PUSH2 0x1FEC PUSH1 0x5B SWAP2 CODECOPY PUSH1 0x60 ADD SWAP2 POP POP PUSH1 0x40 MLOAD DUP1 SWAP2 SUB SWAP1 REVERT JUMPDEST CALLER PUSH2 0x73A PUSH1 0x0 PUSH2 0x1F2F JUMP JUMPDEST PUSH1 0x0 PUSH2 0x746 PUSH1 0x0 PUSH2 0x1F38 JUMP JUMPDEST PUSH1 0x40 DUP1 MLOAD PUSH1 0xA0 DUP2 ADD DUP3 MSTORE PUSH1 0x1 PUSH1 0x1 PUSH1 0xA0 SHL SUB DUP6 DUP2 AND DUP1 DUP4 MSTORE PUSH1 0x20 DUP1 DUP5 ADD DUP7 DUP2 MSTORE DUP5 DUP7 ADD DUP12 DUP2 MSTORE PUSH1 0x60 DUP7 ADD DUP12 DUP2 MSTORE TIMESTAMP PUSH1 0x80 DUP9 ADD DUP2 DUP2 MSTORE PUSH1 0x4 DUP1 SLOAD PUSH1 0x1 DUP2 ADD DUP3 SSTORE PUSH1 0x0 SWAP2 SWAP1 SWAP2 MSTORE SWAP9 MLOAD PUSH32 0x8A35ACFBC15FF81A39AE7D344FD709F28E8600B4AA8C65C6B64BFE7FE36BD19B PUSH1 0x5 SWAP1 SWAP11 MUL SWAP10 DUP11 ADD DUP1 SLOAD PUSH1 0x1 PUSH1 0x1 PUSH1 0xA0 SHL SUB NOT AND SWAP2 SWAP1 SWAP10 AND OR SWAP1 SWAP8 SSTORE SWAP3 MLOAD PUSH32 0x8A35ACFBC15FF81A39AE7D344FD709F28E8600B4AA8C65C6B64BFE7FE36BD19C DUP9 ADD SSTORE SWAP1 MLOAD PUSH32 0x8A35ACFBC15FF81A39AE7D344FD709F28E8600B4AA8C65C6B64BFE7FE36BD19D DUP8 ADD SSTORE MLOAD PUSH32 0x8A35ACFBC15FF81A39AE7D344FD709F28E8600B4AA8C65C6B64BFE7FE36BD19E DUP7 ADD SSTORE SWAP3 MLOAD PUSH32 0x8A35ACFBC15FF81A39AE7D344FD709F28E8600B4AA8C65C6B64BFE7FE36BD19F SWAP1 SWAP5 ADD SWAP4 SWAP1 SWAP4 SSTORE DUP4 MLOAD DUP10 DUP2 MSTORE SWAP4 MLOAD SWAP5 SWAP6 POP DUP8 SWAP5 SWAP2 SWAP4 SWAP1 SWAP3 PUSH32 0xF5DC7CB3C4665DFE7B89D3BB9AEC5338F76497D0AF55DC4E4922EE3071DB97AB SWAP3 SWAP2 DUP3 SWAP1 SUB ADD SWAP1 LOG4 POP POP POP POP JUMP JUMPDEST PUSH1 0x60 DUP1 PUSH1 0x60 DUP1 PUSH1 0x60 DUP1 PUSH1 0x4 DUP1 SLOAD SWAP1 POP PUSH1 0x40 MLOAD SWAP1 DUP1 DUP3 MSTORE DUP1 PUSH1 0x20 MUL PUSH1 0x20 ADD DUP3 ADD PUSH1 0x40 MSTORE DUP1 ISZERO PUSH2 0x8DC JUMPI DUP2 PUSH1 0x20 ADD PUSH1 0x20 DUP3 MUL DUP1 CODESIZE DUP4 CODECOPY ADD SWAP1 POP JUMPDEST POP SWAP1 POP PUSH1 0x60 PUSH1 0x4 DUP1 SLOAD SWAP1 POP PUSH1 0x40 MLOAD SWAP1 DUP1 DUP3 MSTORE DUP1 PUSH1 0x20 MUL PUSH1 0x20 ADD DUP3 ADD PUSH1 0x40 MSTORE DUP1 ISZERO PUSH2 0x910 JUMPI DUP2 PUSH1 0x20 ADD PUSH1 0x20 DUP3 MUL DUP1 CODESIZE DUP4 CODECOPY ADD SWAP1 POP JUMPDEST POP SWAP1 POP PUSH1 0x60 PUSH1 0x4 DUP1 SLOAD SWAP1 POP PUSH1 0x40 MLOAD SWAP1 DUP1 DUP3 MSTORE DUP1 PUSH1 0x20 MUL PUSH1 0x20 ADD DUP3 ADD PUSH1 0x40 MSTORE DUP1 ISZERO PUSH2 0x944 JUMPI DUP2 PUSH1 0x20 ADD PUSH1 0x20 DUP3 MUL DUP1 CODESIZE DUP4 CODECOPY ADD SWAP1 POP JUMPDEST POP SWAP1 POP PUSH1 0x60 PUSH1 0x4 DUP1 SLOAD SWAP1 POP PUSH1 0x40 MLOAD SWAP1 DUP1 DUP3 MSTORE DUP1 PUSH1 0x20 MUL PUSH1 0x20 ADD DUP3 ADD PUSH1 0x40 MSTORE DUP1 ISZERO PUSH2 0x978 JUMPI DUP2 PUSH1 0x20 ADD PUSH1 0x20 DUP3 MUL DUP1 CODESIZE DUP4 CODECOPY ADD SWAP1 POP JUMPDEST POP SWAP1 POP PUSH1 0x60 PUSH1 0x4 DUP1 SLOAD SWAP1 POP PUSH1 0x40 MLOAD SWAP1 DUP1 DUP3 MSTORE DUP1 PUSH1 0x20 MUL PUSH1 0x20 ADD DUP3 ADD PUSH1 0x40 MSTORE DUP1 ISZERO PUSH2 0x9AC JUMPI DUP2 PUSH1 0x20 ADD PUSH1 0x20 DUP3 MUL DUP1 CODESIZE DUP4 CODECOPY ADD SWAP1 POP JUMPDEST POP SWAP1 POP PUSH1 0x0 JUMPDEST PUSH1 0x4 SLOAD DUP2 LT ISZERO PUSH2 0xAF7 JUMPI PUSH1 0x4 DUP2 DUP2 SLOAD DUP2 LT PUSH2 0x9C9 JUMPI INVALID JUMPDEST PUSH1 0x0 SWAP2 DUP3 MSTORE PUSH1 0x20 SWAP1 SWAP2 KECCAK256 PUSH1 0x5 SWAP1 SWAP2 MUL ADD SLOAD DUP7 MLOAD PUSH1 0x1 PUSH1 0x1 PUSH1 0xA0 SHL SUB SWAP1 SWAP2 AND SWAP1 DUP8 SWAP1 DUP4 SWAP1 DUP2 LT PUSH2 0x9F4 JUMPI INVALID JUMPDEST PUSH1 0x20 MUL PUSH1 0x20 ADD ADD SWAP1 PUSH1 0x1 PUSH1 0x1 PUSH1 0xA0 SHL SUB AND SWAP1 DUP2 PUSH1 0x1 PUSH1 0x1 PUSH1 0xA0 SHL SUB AND DUP2 MSTORE POP POP PUSH1 0x4 DUP2 DUP2 SLOAD DUP2 LT PUSH2 0xA21 JUMPI INVALID JUMPDEST SWAP1 PUSH1 0x0 MSTORE PUSH1 0x20 PUSH1 0x0 KECCAK256 SWAP1 PUSH1 0x5 MUL ADD PUSH1 0x1 ADD SLOAD DUP6 DUP3 DUP2 MLOAD DUP2 LT PUSH2 0xA3F JUMPI INVALID JUMPDEST PUSH1 0x20 MUL PUSH1 0x20 ADD ADD DUP2 DUP2 MSTORE POP POP PUSH1 0x4 DUP2 DUP2 SLOAD DUP2 LT PUSH2 0xA58 JUMPI INVALID JUMPDEST SWAP1 PUSH1 0x0 MSTORE PUSH1 0x20 PUSH1 0x0 KECCAK256 SWAP1 PUSH1 0x5 MUL ADD PUSH1 0x2 ADD SLOAD DUP5 DUP3 DUP2 MLOAD DUP2 LT PUSH2 0xA76 JUMPI INVALID JUMPDEST PUSH1 0x20 MUL PUSH1 0x20 ADD ADD DUP2 DUP2 MSTORE POP POP PUSH1 0x4 DUP2 DUP2 SLOAD DUP2 LT PUSH2 0xA8F JUMPI INVALID JUMPDEST SWAP1 PUSH1 0x0 MSTORE PUSH1 0x20 PUSH1 0x0 KECCAK256 SWAP1 PUSH1 0x5 MUL ADD PUSH1 0x3 ADD SLOAD DUP4 DUP3 DUP2 MLOAD DUP2 LT PUSH2 0xAAD JUMPI INVALID JUMPDEST PUSH1 0x20 MUL PUSH1 0x20 ADD ADD DUP2 DUP2 MSTORE POP POP PUSH1 0x4 DUP2 DUP2 SLOAD DUP2 LT PUSH2 0xAC6 JUMPI INVALID JUMPDEST SWAP1 PUSH1 0x0 MSTORE PUSH1 0x20 PUSH1 0x0 KECCAK256 SWAP1 PUSH1 0x5 MUL ADD PUSH1 0x4 ADD SLOAD DUP3 DUP3 DUP2 MLOAD DUP2 LT PUSH2 0xAE4 JUMPI INVALID JUMPDEST PUSH1 0x20 SWAP1 DUP2 MUL SWAP2 SWAP1 SWAP2 ADD ADD MSTORE PUSH1 0x1 ADD PUSH2 0x9B2 JUMP JUMPDEST POP SWAP4 SWAP10 SWAP3 SWAP9 POP SWAP1 SWAP7 POP SWAP5 POP SWAP1 SWAP3 POP SWAP1 POP JUMP JUMPDEST PUSH1 0x0 DUP2 DUP2 MSTORE PUSH1 0x1 PUSH1 0x20 MSTORE PUSH1 0x40 DUP2 KECCAK256 SLOAD PUSH1 0x4 SLOAD DUP3 SWAP2 DUP3 SWAP2 DUP3 SWAP2 DUP3 SWAP2 DUP2 LT PUSH2 0xB64 JUMPI PUSH1 0x40 DUP1 MLOAD PUSH3 0x461BCD PUSH1 0xE5 SHL DUP2 MSTORE PUSH1 0x20 PUSH1 0x4 DUP3 ADD MSTORE PUSH1 0xB PUSH1 0x24 DUP3 ADD MSTORE PUSH11 0xAEE4DEDCCE40D2DCC8CAF PUSH1 0xAB SHL PUSH1 0x44 DUP3 ADD MSTORE SWAP1 MLOAD SWAP1 DUP2 SWAP1 SUB PUSH1 0x64 ADD SWAP1 REVERT JUMPDEST DUP7 PUSH1 0x4 DUP3 DUP2 SLOAD DUP2 LT PUSH2 0xB72 JUMPI INVALID JUMPDEST SWAP1 PUSH1 0x0 MSTORE PUSH1 0x20 PUSH1 0x0 KECCAK256 SWAP1 PUSH1 0x5 MUL ADD PUSH1 0x1 ADD SLOAD EQ PUSH2 0xBC1 JUMPI PUSH1 0x40 DUP1 MLOAD PUSH3 0x461BCD PUSH1 0xE5 SHL DUP2 MSTORE PUSH1 0x20 PUSH1 0x4 DUP3 ADD MSTORE PUSH1 0x8 PUSH1 0x24 DUP3 ADD MSTORE PUSH8 0x15DC9BDB99C81251 PUSH1 0xC2 SHL PUSH1 0x44 DUP3 ADD MSTORE SWAP1 MLOAD SWAP1 DUP2 SWAP1 SUB PUSH1 0x64 ADD SWAP1 REVERT JUMPDEST PUSH1 0x4 DUP2 DUP2 SLOAD DUP2 LT PUSH2 0xBCE JUMPI INVALID JUMPDEST PUSH1 0x0 SWAP2 DUP3 MSTORE PUSH1 0x20 SWAP1 SWAP2 KECCAK256 PUSH1 0x5 SWAP1 SWAP2 MUL ADD SLOAD PUSH1 0x4 DUP1 SLOAD PUSH1 0x1 PUSH1 0x1 PUSH1 0xA0 SHL SUB SWAP1 SWAP3 AND SWAP2 DUP4 SWAP1 DUP2 LT PUSH2 0xBF9 JUMPI INVALID JUMPDEST SWAP1 PUSH1 0x0 MSTORE PUSH1 0x20 PUSH1 0x0 KECCAK256 SWAP1 PUSH1 0x5 MUL ADD PUSH1 0x1 ADD SLOAD PUSH1 0x4 DUP4 DUP2 SLOAD DUP2 LT PUSH2 0xC18 JUMPI INVALID JUMPDEST SWAP1 PUSH1 0x0 MSTORE PUSH1 0x20 PUSH1 0x0 KECCAK256 SWAP1 PUSH1 0x5 MUL ADD PUSH1 0x2 ADD SLOAD PUSH1 0x4 DUP5 DUP2 SLOAD DUP2 LT PUSH2 0xC37 JUMPI INVALID JUMPDEST SWAP1 PUSH1 0x0 MSTORE PUSH1 0x20 PUSH1 0x0 KECCAK256 SWAP1 PUSH1 0x5 MUL ADD PUSH1 0x3 ADD SLOAD PUSH1 0x4 DUP6 DUP2 SLOAD DUP2 LT PUSH2 0xC56 JUMPI INVALID JUMPDEST SWAP1 PUSH1 0x0 MSTORE PUSH1 0x20 PUSH1 0x0 KECCAK256 SWAP1 PUSH1 0x5 MUL ADD PUSH1 0x4 ADD SLOAD SWAP6 POP SWAP6 POP SWAP6 POP SWAP6 POP SWAP6 POP POP SWAP2 SWAP4 SWAP6 SWAP1 SWAP3 SWAP5 POP JUMP JUMPDEST PUSH1 0x60 DUP1 PUSH1 0x60 DUP1 PUSH1 0x60 DUP1 PUSH1 0x2 DUP1 SLOAD SWAP1 POP PUSH1 0x40 MLOAD SWAP1 DUP1 DUP3 MSTORE DUP1 PUSH1 0x20 MUL PUSH1 0x20 ADD DUP3 ADD PUSH1 0x40 MSTORE DUP1 ISZERO PUSH2 0xCB4 JUMPI DUP2 PUSH1 0x20 ADD PUSH1 0x20 DUP3 MUL DUP1 CODESIZE DUP4 CODECOPY ADD SWAP1 POP JUMPDEST POP SWAP1 POP PUSH1 0x60 PUSH1 0x2 DUP1 SLOAD SWAP1 POP PUSH1 0x40 MLOAD SWAP1 DUP1 DUP3 MSTORE DUP1 PUSH1 0x20 MUL PUSH1 0x20 ADD DUP3 ADD PUSH1 0x40 MSTORE DUP1 ISZERO PUSH2 0xCE8 JUMPI DUP2 PUSH1 0x20 ADD PUSH1 0x20 DUP3 MUL DUP1 CODESIZE DUP4 CODECOPY ADD SWAP1 POP JUMPDEST POP SWAP1 POP PUSH1 0x60 PUSH1 0x2 DUP1 SLOAD SWAP1 POP PUSH1 0x40 MLOAD SWAP1 DUP1 DUP3 MSTORE DUP1 PUSH1 0x20 MUL PUSH1 0x20 ADD DUP3 ADD PUSH1 0x40 MSTORE DUP1 ISZERO PUSH2 0xD1C JUMPI DUP2 PUSH1 0x20 ADD PUSH1 0x20 DUP3 MUL DUP1 CODESIZE DUP4 CODECOPY ADD SWAP1 POP JUMPDEST POP SWAP1 POP PUSH1 0x60 PUSH1 0x2 DUP1 SLOAD SWAP1 POP PUSH1 0x40 MLOAD SWAP1 DUP1 DUP3 MSTORE DUP1 PUSH1 0x20 MUL PUSH1 0x20 ADD DUP3 ADD PUSH1 0x40 MSTORE DUP1 ISZERO PUSH2 0xD50 JUMPI DUP2 PUSH1 0x20 ADD PUSH1 0x20 DUP3 MUL DUP1 CODESIZE DUP4 CODECOPY ADD SWAP1 POP JUMPDEST POP SWAP1 POP PUSH1 0x60 PUSH1 0x2 DUP1 SLOAD SWAP1 POP PUSH1 0x40 MLOAD SWAP1 DUP1 DUP3 MSTORE DUP1 PUSH1 0x20 MUL PUSH1 0x20 ADD DUP3 ADD PUSH1 0x40 MSTORE DUP1 ISZERO PUSH2 0xD84 JUMPI DUP2 PUSH1 0x20 ADD PUSH1 0x20 DUP3 MUL DUP1 CODESIZE DUP4 CODECOPY ADD SWAP1 POP JUMPDEST POP SWAP1 POP PUSH1 0x0 JUMPDEST PUSH1 0x2 SLOAD DUP2 LT ISZERO PUSH2 0xAF7 JUMPI PUSH1 0x2 DUP2 DUP2 SLOAD DUP2 LT PUSH2 0xDA1 JUMPI INVALID JUMPDEST PUSH1 0x0 SWAP2 DUP3 MSTORE PUSH1 0x20 SWAP1 SWAP2 KECCAK256 PUSH1 0x5 SWAP1 SWAP2 MUL ADD SLOAD DUP7 MLOAD PUSH1 0x1 PUSH1 0x1 PUSH1 0xA0 SHL SUB SWAP1 SWAP2 AND SWAP1 DUP8 SWAP1 DUP4 SWAP1 DUP2 LT PUSH2 0xDCC JUMPI INVALID JUMPDEST PUSH1 0x20 MUL PUSH1 0x20 ADD ADD SWAP1 PUSH1 0x1 PUSH1 0x1 PUSH1 0xA0 SHL SUB AND SWAP1 DUP2 PUSH1 0x1 PUSH1 0x1 PUSH1 0xA0 SHL SUB AND DUP2 MSTORE POP POP PUSH1 0x2 DUP2 DUP2 SLOAD DUP2 LT PUSH2 0xDF9 JUMPI INVALID JUMPDEST SWAP1 PUSH1 0x0 MSTORE PUSH1 0x20 PUSH1 0x0 KECCAK256 SWAP1 PUSH1 0x5 MUL ADD PUSH1 0x1 ADD SLOAD DUP6 DUP3 DUP2 MLOAD DUP2 LT PUSH2 0xE17 JUMPI INVALID JUMPDEST PUSH1 0x20 MUL PUSH1 0x20 ADD ADD DUP2 DUP2 MSTORE POP POP PUSH1 0x2 DUP2 DUP2 SLOAD DUP2 LT PUSH2 0xE30 JUMPI INVALID JUMPDEST SWAP1 PUSH1 0x0 MSTORE PUSH1 0x20 PUSH1 0x0 KECCAK256 SWAP1 PUSH1 0x5 MUL ADD PUSH1 0x2 ADD SLOAD DUP5 DUP3 DUP2 MLOAD DUP2 LT PUSH2 0xE4E JUMPI INVALID JUMPDEST PUSH1 0x20 MUL PUSH1 0x20 ADD ADD DUP2 DUP2 MSTORE POP POP PUSH1 0x2 DUP2 DUP2 SLOAD DUP2 LT PUSH2 0xE67 JUMPI INVALID JUMPDEST SWAP1 PUSH1 0x0 MSTORE PUSH1 0x20 PUSH1 0x0 KECCAK256 SWAP1 PUSH1 0x5 MUL ADD PUSH1 0x3 ADD SLOAD DUP4 DUP3 DUP2 MLOAD DUP2 LT PUSH2 0xE85 JUMPI INVALID JUMPDEST PUSH1 0x20 MUL PUSH1 0x20 ADD ADD DUP2 DUP2 MSTORE POP POP PUSH1 0x2 DUP2 DUP2 SLOAD DUP2 LT PUSH2 0xE9E JUMPI INVALID JUMPDEST SWAP1 PUSH1 0x0 MSTORE PUSH1 0x20 PUSH1 0x0 KECCAK256 SWAP1 PUSH1 0x5 MUL ADD PUSH1 0x4 ADD SLOAD DUP3 DUP3 DUP2 MLOAD DUP2 LT PUSH2 0xEBC JUMPI INVALID JUMPDEST PUSH1 0x20 SWAP1 DUP2 MUL SWAP2 SWAP1 SWAP2 ADD ADD MSTORE PUSH1 0x1 ADD PUSH2 0xD8A JUMP JUMPDEST PUSH1 0x0 DUP3 DUP2 MSTORE PUSH1 0x5 PUSH1 0x20 MSTORE PUSH1 0x40 DUP2 KECCAK256 SLOAD CALLER SWAP2 SWAP1 DUP2 SWAP1 DUP2 DUP1 DUP1 DUP1 JUMPDEST PUSH1 0x4 SLOAD DUP2 LT ISZERO PUSH2 0x1450 JUMPI DUP10 PUSH1 0x4 DUP3 DUP2 SLOAD DUP2 LT PUSH2 0xF00 JUMPI INVALID JUMPDEST SWAP1 PUSH1 0x0 MSTORE PUSH1 0x20 PUSH1 0x0 KECCAK256 SWAP1 PUSH1 0x5 MUL ADD PUSH1 0x1 ADD SLOAD EQ ISZERO PUSH2 0x1448 JUMPI DUP9 PUSH1 0x4 DUP3 DUP2 SLOAD DUP2 LT PUSH2 0xF26 JUMPI INVALID JUMPDEST SWAP1 PUSH1 0x0 MSTORE PUSH1 0x20 PUSH1 0x0 KECCAK256 SWAP1 PUSH1 0x5 MUL ADD PUSH1 0x2 ADD SLOAD LT ISZERO PUSH2 0x114A JUMPI PUSH1 0x4 DUP2 DUP2 SLOAD DUP2 LT PUSH2 0xF4B JUMPI INVALID JUMPDEST PUSH1 0x0 SWAP2 DUP3 MSTORE PUSH1 0x20 SWAP1 SWAP2 KECCAK256 PUSH1 0x5 SWAP1 SWAP2 MUL ADD SLOAD PUSH1 0x4 DUP1 SLOAD PUSH1 0x1 PUSH1 0x1 PUSH1 0xA0 SHL SUB SWAP1 SWAP3 AND SWAP9 POP SWAP1 DUP3 SWAP1 DUP2 LT PUSH2 0xF78 JUMPI INVALID JUMPDEST SWAP1 PUSH1 0x0 MSTORE PUSH1 0x20 PUSH1 0x0 KECCAK256 SWAP1 PUSH1 0x5 MUL ADD PUSH1 0x2 ADD SLOAD SWAP2 POP PUSH1 0x4 DUP2 DUP2 SLOAD DUP2 LT PUSH2 0xF99 JUMPI INVALID JUMPDEST SWAP1 PUSH1 0x0 MSTORE PUSH1 0x20 PUSH1 0x0 KECCAK256 SWAP1 PUSH1 0x5 MUL ADD PUSH1 0x3 ADD SLOAD DUP3 MUL SWAP3 POP DUP2 DUP10 SUB SWAP9 POP PUSH2 0xFBE PUSH1 0x0 PUSH2 0x1F2F JUMP JUMPDEST PUSH1 0x0 PUSH2 0xFCA PUSH1 0x0 PUSH2 0x1F38 JUMP JUMPDEST PUSH1 0x0 DUP2 DUP2 MSTORE PUSH1 0x3 PUSH1 0x20 SWAP1 DUP2 MSTORE PUSH1 0x40 SWAP2 DUP3 SWAP1 KECCAK256 PUSH1 0x4 DUP1 SLOAD SWAP2 DUP12 SWAP1 SSTORE DUP4 MLOAD PUSH1 0xA0 DUP2 ADD DUP6 MSTORE PUSH1 0x1 PUSH1 0x1 PUSH1 0xA0 SHL SUB DUP16 AND DUP2 MSTORE SWAP3 DUP4 ADD DUP6 SWAP1 MSTORE SWAP3 DUP3 ADD DUP15 SWAP1 MSTORE DUP3 SLOAD SWAP1 SWAP11 POP SWAP3 SWAP4 POP SWAP1 SWAP2 PUSH1 0x60 DUP3 ADD SWAP1 DUP4 SWAP1 DUP7 SWAP1 DUP2 LT PUSH2 0x101F JUMPI INVALID JUMPDEST PUSH1 0x0 SWAP2 DUP3 MSTORE PUSH1 0x20 DUP1 DUP4 KECCAK256 PUSH1 0x5 SWAP3 DUP4 MUL ADD PUSH1 0x3 SWAP1 DUP2 ADD SLOAD DUP6 MSTORE TIMESTAMP SWAP5 DUP3 ADD SWAP5 SWAP1 SWAP5 MSTORE DUP6 SLOAD PUSH1 0x1 DUP1 DUP3 ADD DUP9 SSTORE SWAP7 DUP5 MSTORE SWAP3 DUP2 SWAP1 KECCAK256 DUP6 MLOAD SWAP4 SWAP1 SWAP3 MUL SWAP1 SWAP2 ADD DUP1 SLOAD PUSH1 0x1 PUSH1 0x1 PUSH1 0xA0 SHL SUB NOT AND PUSH1 0x1 PUSH1 0x1 PUSH1 0xA0 SHL SUB SWAP1 SWAP4 AND SWAP3 SWAP1 SWAP3 OR DUP3 SSTORE DUP4 ADD MLOAD DUP2 DUP6 ADD SSTORE PUSH1 0x40 DUP4 ADD MLOAD PUSH1 0x2 DUP3 ADD SSTORE PUSH1 0x60 DUP4 ADD MLOAD SWAP2 DUP2 ADD SWAP2 SWAP1 SWAP2 SSTORE PUSH1 0x80 SWAP1 SWAP2 ADD MLOAD PUSH1 0x4 SWAP2 DUP3 ADD SSTORE SLOAD SWAP1 SWAP6 POP DUP6 LT ISZERO PUSH2 0x1130 JUMPI PUSH1 0x4 PUSH1 0x1 PUSH1 0x2 DUP1 SLOAD SWAP1 POP SUB DUP2 SLOAD DUP2 LT PUSH2 0x10BE JUMPI INVALID JUMPDEST SWAP1 PUSH1 0x0 MSTORE PUSH1 0x20 PUSH1 0x0 KECCAK256 SWAP1 PUSH1 0x5 MUL ADD PUSH1 0x4 DUP4 DUP2 SLOAD DUP2 LT PUSH2 0x10D9 JUMPI INVALID JUMPDEST PUSH1 0x0 SWAP2 DUP3 MSTORE PUSH1 0x20 SWAP1 SWAP2 KECCAK256 DUP3 SLOAD PUSH1 0x5 SWAP1 SWAP3 MUL ADD DUP1 SLOAD PUSH1 0x1 PUSH1 0x1 PUSH1 0xA0 SHL SUB NOT AND PUSH1 0x1 PUSH1 0x1 PUSH1 0xA0 SHL SUB SWAP1 SWAP3 AND SWAP2 SWAP1 SWAP2 OR DUP2 SSTORE PUSH1 0x1 DUP1 DUP4 ADD SLOAD SWAP1 DUP3 ADD SSTORE PUSH1 0x2 DUP1 DUP4 ADD SLOAD SWAP1 DUP3 ADD SSTORE PUSH1 0x3 DUP1 DUP4 ADD SLOAD SWAP1 DUP3 ADD SSTORE PUSH1 0x4 SWAP2 DUP3 ADD SLOAD SWAP2 ADD SSTORE JUMPDEST PUSH1 0x4 DUP1 SLOAD SWAP1 PUSH2 0x1143 SWAP1 PUSH1 0x0 NOT DUP4 ADD PUSH2 0x1F3C JUMP JUMPDEST POP POP PUSH2 0x130D JUMP JUMPDEST DUP9 PUSH1 0x4 DUP3 DUP2 SLOAD DUP2 LT PUSH2 0x1158 JUMPI INVALID JUMPDEST SWAP1 PUSH1 0x0 MSTORE PUSH1 0x20 PUSH1 0x0 KECCAK256 SWAP1 PUSH1 0x5 MUL ADD PUSH1 0x2 ADD SLOAD EQ ISZERO PUSH2 0x1272 JUMPI PUSH1 0x4 DUP2 DUP2 SLOAD DUP2 LT PUSH2 0x117D JUMPI INVALID JUMPDEST PUSH1 0x0 SWAP2 DUP3 MSTORE PUSH1 0x20 SWAP1 SWAP2 KECCAK256 PUSH1 0x5 SWAP1 SWAP2 MUL ADD SLOAD PUSH1 0x4 DUP1 SLOAD PUSH1 0x1 PUSH1 0x1 PUSH1 0xA0 SHL SUB SWAP1 SWAP3 AND SWAP9 POP DUP11 SWAP4 POP SWAP1 DUP3 SWAP1 DUP2 LT PUSH2 0x11AD JUMPI INVALID JUMPDEST SWAP1 PUSH1 0x0 MSTORE PUSH1 0x20 PUSH1 0x0 KECCAK256 SWAP1 PUSH1 0x5 MUL ADD PUSH1 0x3 ADD SLOAD DUP3 MUL SWAP3 POP PUSH1 0x1 SWAP4 POP PUSH1 0x1 PUSH1 0x4 DUP1 SLOAD SWAP1 POP GT ISZERO PUSH2 0x1259 JUMPI PUSH1 0x4 DUP1 SLOAD PUSH1 0x0 NOT DUP2 ADD SWAP1 DUP2 LT PUSH2 0x11E7 JUMPI INVALID JUMPDEST SWAP1 PUSH1 0x0 MSTORE PUSH1 0x20 PUSH1 0x0 KECCAK256 SWAP1 PUSH1 0x5 MUL ADD PUSH1 0x4 DUP3 DUP2 SLOAD DUP2 LT PUSH2 0x1202 JUMPI INVALID JUMPDEST PUSH1 0x0 SWAP2 DUP3 MSTORE PUSH1 0x20 SWAP1 SWAP2 KECCAK256 DUP3 SLOAD PUSH1 0x5 SWAP1 SWAP3 MUL ADD DUP1 SLOAD PUSH1 0x1 PUSH1 0x1 PUSH1 0xA0 SHL SUB NOT AND PUSH1 0x1 PUSH1 0x1 PUSH1 0xA0 SHL SUB SWAP1 SWAP3 AND SWAP2 SWAP1 SWAP2 OR DUP2 SSTORE PUSH1 0x1 DUP1 DUP4 ADD SLOAD SWAP1 DUP3 ADD SSTORE PUSH1 0x2 DUP1 DUP4 ADD SLOAD SWAP1 DUP3 ADD SSTORE PUSH1 0x3 DUP1 DUP4 ADD SLOAD SWAP1 DUP3 ADD SSTORE PUSH1 0x4 SWAP2 DUP3 ADD SLOAD SWAP2 ADD SSTORE JUMPDEST PUSH1 0x4 DUP1 SLOAD SWAP1 PUSH2 0x126C SWAP1 PUSH1 0x0 NOT DUP4 ADD PUSH2 0x1F3C JUMP JUMPDEST POP PUSH2 0x130D JUMP JUMPDEST PUSH1 0x4 DUP2 DUP2 SLOAD DUP2 LT PUSH2 0x127F JUMPI INVALID JUMPDEST PUSH1 0x0 SWAP2 DUP3 MSTORE PUSH1 0x20 SWAP1 SWAP2 KECCAK256 PUSH1 0x5 SWAP1 SWAP2 MUL ADD SLOAD PUSH1 0x4 DUP1 SLOAD PUSH1 0x1 PUSH1 0x1 PUSH1 0xA0 SHL SUB SWAP1 SWAP3 AND SWAP9 POP DUP11 SWAP4 POP SWAP1 DUP3 SWAP1 DUP2 LT PUSH2 0x12AF JUMPI INVALID JUMPDEST SWAP1 PUSH1 0x0 MSTORE PUSH1 0x20 PUSH1 0x0 KECCAK256 SWAP1 PUSH1 0x5 MUL ADD PUSH1 0x3 ADD SLOAD DUP3 MUL SWAP3 POP DUP2 PUSH1 0x4 DUP3 DUP2 SLOAD DUP2 LT PUSH2 0x12D3 JUMPI INVALID JUMPDEST SWAP1 PUSH1 0x0 MSTORE PUSH1 0x20 PUSH1 0x0 KECCAK256 SWAP1 PUSH1 0x5 MUL ADD PUSH1 0x2 ADD SLOAD SUB PUSH1 0x4 DUP3 DUP2 SLOAD DUP2 LT PUSH2 0x12F3 JUMPI INVALID JUMPDEST SWAP1 PUSH1 0x0 MSTORE PUSH1 0x20 PUSH1 0x0 KECCAK256 SWAP1 PUSH1 0x5 MUL ADD PUSH1 0x2 ADD DUP2 SWAP1 SSTORE POP PUSH1 0x1 SWAP4 POP JUMPDEST DUP4 ISZERO PUSH2 0x1448 JUMPI PUSH1 0x6 DUP1 SLOAD SWAP1 POP SWAP5 POP DUP5 PUSH1 0x5 PUSH1 0x0 DUP13 DUP2 MSTORE PUSH1 0x20 ADD SWAP1 DUP2 MSTORE PUSH1 0x20 ADD PUSH1 0x0 KECCAK256 DUP2 SWAP1 SSTORE POP PUSH1 0x6 PUSH1 0x40 MLOAD DUP1 PUSH1 0xC0 ADD PUSH1 0x40 MSTORE DUP1 DUP10 PUSH1 0x1 PUSH1 0x1 PUSH1 0xA0 SHL SUB AND DUP2 MSTORE PUSH1 0x20 ADD DUP11 PUSH1 0x1 PUSH1 0x1 PUSH1 0xA0 SHL SUB AND DUP2 MSTORE PUSH1 0x20 ADD DUP5 DUP2 MSTORE PUSH1 0x20 ADD PUSH1 0x4 DUP5 DUP2 SLOAD DUP2 LT PUSH2 0x1371 JUMPI INVALID JUMPDEST PUSH1 0x0 SWAP2 DUP3 MSTORE PUSH1 0x20 DUP1 DUP4 KECCAK256 PUSH1 0x5 SWAP3 DUP4 MUL ADD PUSH1 0x1 SWAP1 DUP2 ADD SLOAD DUP6 MSTORE DUP5 DUP3 ADD DUP11 SWAP1 MSTORE TIMESTAMP PUSH1 0x40 SWAP6 DUP7 ADD DUP2 SWAP1 MSTORE DUP8 SLOAD DUP1 DUP4 ADD DUP10 SSTORE SWAP8 DUP6 MSTORE SWAP4 DUP3 SWAP1 KECCAK256 DUP7 MLOAD PUSH1 0x6 SWAP1 SWAP9 MUL ADD DUP1 SLOAD PUSH1 0x1 PUSH1 0x1 PUSH1 0xA0 SHL SUB NOT SWAP1 DUP2 AND PUSH1 0x1 PUSH1 0x1 PUSH1 0xA0 SHL SUB SWAP10 DUP11 AND OR DUP3 SSTORE DUP8 DUP5 ADD MLOAD SWAP3 DUP3 ADD DUP1 SLOAD SWAP1 SWAP2 AND SWAP3 DUP10 AND SWAP3 SWAP1 SWAP3 OR SWAP1 SWAP2 SSTORE DUP6 DUP6 ADD MLOAD PUSH1 0x2 DUP3 ADD SSTORE PUSH1 0x60 DUP7 ADD MLOAD PUSH1 0x3 DUP3 ADD SSTORE PUSH1 0x80 DUP7 ADD MLOAD PUSH1 0x4 DUP3 ADD SSTORE PUSH1 0xA0 SWAP1 SWAP6 ADD MLOAD SWAP5 SWAP1 SWAP2 ADD SWAP4 SWAP1 SWAP4 SSTORE DUP2 MLOAD DUP7 DUP2 MSTORE SWAP2 MLOAD SWAP1 SWAP4 DUP12 DUP2 AND SWAP4 SWAP1 DUP14 AND SWAP3 PUSH32 0xBC69AB44ABEA835022AC03047511C97CEC4735B9476EA16B962411C87FCB2239 SWAP3 SWAP1 DUP2 SWAP1 SUB SWAP1 SWAP2 ADD SWAP1 LOG4 JUMPDEST PUSH1 0x1 ADD PUSH2 0xEE8 JUMP JUMPDEST POP POP POP POP POP POP POP POP POP POP JUMP JUMPDEST PUSH1 0x60 DUP1 DUP1 DUP1 DUP1 DUP1 PUSH1 0x0 DUP1 PUSH2 0x146E PUSH2 0x1E95 JUMP JUMPDEST SWAP1 POP PUSH1 0x60 DUP2 PUSH1 0x40 MLOAD SWAP1 DUP1 DUP3 MSTORE DUP1 PUSH1 0x20 MUL PUSH1 0x20 ADD DUP3 ADD PUSH1 0x40 MSTORE DUP1 ISZERO PUSH2 0x149C JUMPI DUP2 PUSH1 0x20 ADD PUSH1 0x20 DUP3 MUL DUP1 CODESIZE DUP4 CODECOPY ADD SWAP1 POP JUMPDEST POP SWAP1 POP PUSH1 0x60 DUP3 PUSH1 0x40 MLOAD SWAP1 DUP1 DUP3 MSTORE DUP1 PUSH1 0x20 MUL PUSH1 0x20 ADD DUP3 ADD PUSH1 0x40 MSTORE DUP1 ISZERO PUSH2 0x14CB JUMPI DUP2 PUSH1 0x20 ADD PUSH1 0x20 DUP3 MUL DUP1 CODESIZE DUP4 CODECOPY ADD SWAP1 POP JUMPDEST POP SWAP1 POP PUSH1 0x60 DUP4 PUSH1 0x40 MLOAD SWAP1 DUP1 DUP3 MSTORE DUP1 PUSH1 0x20 MUL PUSH1 0x20 ADD DUP3 ADD PUSH1 0x40 MSTORE DUP1 ISZERO PUSH2 0x14FA JUMPI DUP2 PUSH1 0x20 ADD PUSH1 0x20 DUP3 MUL DUP1 CODESIZE DUP4 CODECOPY ADD SWAP1 POP JUMPDEST POP SWAP1 POP PUSH1 0x60 DUP5 PUSH1 0x40 MLOAD SWAP1 DUP1 DUP3 MSTORE DUP1 PUSH1 0x20 MUL PUSH1 0x20 ADD DUP3 ADD PUSH1 0x40 MSTORE DUP1 ISZERO PUSH2 0x1529 JUMPI DUP2 PUSH1 0x20 ADD PUSH1 0x20 DUP3 MUL DUP1 CODESIZE DUP4 CODECOPY ADD SWAP1 POP JUMPDEST POP SWAP1 POP PUSH1 0x60 DUP6 PUSH1 0x40 MLOAD SWAP1 DUP1 DUP3 MSTORE DUP1 PUSH1 0x20 MUL PUSH1 0x20 ADD DUP3 ADD PUSH1 0x40 MSTORE DUP1 ISZERO PUSH2 0x1558 JUMPI DUP2 PUSH1 0x20 ADD PUSH1 0x20 DUP3 MUL DUP1 CODESIZE DUP4 CODECOPY ADD SWAP1 POP JUMPDEST POP SWAP1 POP PUSH1 0x60 DUP7 PUSH1 0x40 MLOAD SWAP1 DUP1 DUP3 MSTORE DUP1 PUSH1 0x20 MUL PUSH1 0x20 ADD DUP3 ADD PUSH1 0x40 MSTORE DUP1 ISZERO PUSH2 0x1587 JUMPI DUP2 PUSH1 0x20 ADD PUSH1 0x20 DUP3 MUL DUP1 CODESIZE DUP4 CODECOPY ADD SWAP1 POP JUMPDEST POP SWAP1 POP PUSH1 0x0 JUMPDEST PUSH1 0x6 SLOAD DUP2 LT ISZERO PUSH2 0x17AA JUMPI CALLER PUSH1 0x1 PUSH1 0x1 PUSH1 0xA0 SHL SUB AND PUSH1 0x6 DUP3 DUP2 SLOAD DUP2 LT PUSH2 0x15AE JUMPI INVALID JUMPDEST PUSH1 0x0 SWAP2 DUP3 MSTORE PUSH1 0x20 SWAP1 SWAP2 KECCAK256 PUSH1 0x6 SWAP1 SWAP2 MUL ADD SLOAD PUSH1 0x1 PUSH1 0x1 PUSH1 0xA0 SHL SUB AND EQ DUP1 PUSH2 0x1605 JUMPI POP CALLER PUSH1 0x1 PUSH1 0x1 PUSH1 0xA0 SHL SUB AND PUSH1 0x6 DUP3 DUP2 SLOAD DUP2 LT PUSH2 0x15E6 JUMPI INVALID JUMPDEST PUSH1 0x0 SWAP2 DUP3 MSTORE PUSH1 0x20 SWAP1 SWAP2 KECCAK256 PUSH1 0x1 PUSH1 0x6 SWAP1 SWAP3 MUL ADD ADD SLOAD PUSH1 0x1 PUSH1 0x1 PUSH1 0xA0 SHL SUB AND EQ JUMPDEST ISZERO PUSH2 0x17A2 JUMPI PUSH1 0x6 DUP2 DUP2 SLOAD DUP2 LT PUSH2 0x1617 JUMPI INVALID JUMPDEST PUSH1 0x0 SWAP2 DUP3 MSTORE PUSH1 0x20 SWAP1 SWAP2 KECCAK256 PUSH1 0x6 SWAP1 SWAP2 MUL ADD SLOAD DUP8 MLOAD PUSH1 0x1 PUSH1 0x1 PUSH1 0xA0 SHL SUB SWAP1 SWAP2 AND SWAP1 DUP9 SWAP1 DUP12 SWAP1 DUP2 LT PUSH2 0x1642 JUMPI INVALID JUMPDEST PUSH1 0x20 MUL PUSH1 0x20 ADD ADD SWAP1 PUSH1 0x1 PUSH1 0x1 PUSH1 0xA0 SHL SUB AND SWAP1 DUP2 PUSH1 0x1 PUSH1 0x1 PUSH1 0xA0 SHL SUB AND DUP2 MSTORE POP POP PUSH1 0x6 DUP2 DUP2 SLOAD DUP2 LT PUSH2 0x166F JUMPI INVALID JUMPDEST SWAP1 PUSH1 0x0 MSTORE PUSH1 0x20 PUSH1 0x0 KECCAK256 SWAP1 PUSH1 0x6 MUL ADD PUSH1 0x1 ADD PUSH1 0x0 SWAP1 SLOAD SWAP1 PUSH2 0x100 EXP SWAP1 DIV PUSH1 0x1 PUSH1 0x1 PUSH1 0xA0 SHL SUB AND DUP7 DUP11 DUP2 MLOAD DUP2 LT PUSH2 0x16A0 JUMPI INVALID JUMPDEST PUSH1 0x20 MUL PUSH1 0x20 ADD ADD SWAP1 PUSH1 0x1 PUSH1 0x1 PUSH1 0xA0 SHL SUB AND SWAP1 DUP2 PUSH1 0x1 PUSH1 0x1 PUSH1 0xA0 SHL SUB AND DUP2 MSTORE POP POP PUSH1 0x6 DUP2 DUP2 SLOAD DUP2 LT PUSH2 0x16CD JUMPI INVALID JUMPDEST SWAP1 PUSH1 0x0 MSTORE PUSH1 0x20 PUSH1 0x0 KECCAK256 SWAP1 PUSH1 0x6 MUL ADD PUSH1 0x2 ADD SLOAD DUP6 DUP11 DUP2 MLOAD DUP2 LT PUSH2 0x16EB JUMPI INVALID JUMPDEST PUSH1 0x20 MUL PUSH1 0x20 ADD ADD DUP2 DUP2 MSTORE POP POP PUSH1 0x6 DUP2 DUP2 SLOAD DUP2 LT PUSH2 0x1704 JUMPI INVALID JUMPDEST SWAP1 PUSH1 0x0 MSTORE PUSH1 0x20 PUSH1 0x0 KECCAK256 SWAP1 PUSH1 0x6 MUL ADD PUSH1 0x3 ADD SLOAD DUP5 DUP11 DUP2 MLOAD DUP2 LT PUSH2 0x1722 JUMPI INVALID JUMPDEST PUSH1 0x20 MUL PUSH1 0x20 ADD ADD DUP2 DUP2 MSTORE POP POP PUSH1 0x6 DUP2 DUP2 SLOAD DUP2 LT PUSH2 0x173B JUMPI INVALID JUMPDEST SWAP1 PUSH1 0x0 MSTORE PUSH1 0x20 PUSH1 0x0 KECCAK256 SWAP1 PUSH1 0x6 MUL ADD PUSH1 0x4 ADD SLOAD DUP4 DUP11 DUP2 MLOAD DUP2 LT PUSH2 0x1759 JUMPI INVALID JUMPDEST PUSH1 0x20 MUL PUSH1 0x20 ADD ADD DUP2 DUP2 MSTORE POP POP PUSH1 0x6 DUP2 DUP2 SLOAD DUP2 LT PUSH2 0x1772 JUMPI INVALID JUMPDEST SWAP1 PUSH1 0x0 MSTORE PUSH1 0x20 PUSH1 0x0 KECCAK256 SWAP1 PUSH1 0x6 MUL ADD PUSH1 0x5 ADD SLOAD DUP3 DUP11 DUP2 MLOAD DUP2 LT PUSH2 0x1790 JUMPI INVALID JUMPDEST PUSH1 0x20 SWAP1 DUP2 MUL SWAP2 SWAP1 SWAP2 ADD ADD MSTORE PUSH1 0x1 SWAP1 SWAP9 ADD SWAP8 JUMPDEST PUSH1 0x1 ADD PUSH2 0x158D JUMP JUMPDEST POP SWAP5 SWAP14 SWAP4 SWAP13 POP SWAP2 SWAP11 POP SWAP9 POP SWAP7 POP SWAP1 SWAP5 POP SWAP3 POP POP POP JUMP JUMPDEST PUSH1 0x0 DUP2 DUP2 MSTORE PUSH1 0x1 PUSH1 0x20 MSTORE PUSH1 0x40 DUP2 KECCAK256 SLOAD PUSH1 0x2 SLOAD DUP3 SWAP2 DUP3 SWAP2 DUP3 SWAP2 DUP3 SWAP2 DUP2 LT PUSH2 0x181B JUMPI PUSH1 0x40 DUP1 MLOAD PUSH3 0x461BCD PUSH1 0xE5 SHL DUP2 MSTORE PUSH1 0x20 PUSH1 0x4 DUP3 ADD MSTORE PUSH1 0xB PUSH1 0x24 DUP3 ADD MSTORE PUSH11 0xAEE4DEDCCE40D2DCC8CAF PUSH1 0xAB SHL PUSH1 0x44 DUP3 ADD MSTORE SWAP1 MLOAD SWAP1 DUP2 SWAP1 SUB PUSH1 0x64 ADD SWAP1 REVERT JUMPDEST DUP7 PUSH1 0x2 DUP3 DUP2 SLOAD DUP2 LT PUSH2 0x1829 JUMPI INVALID JUMPDEST SWAP1 PUSH1 0x0 MSTORE PUSH1 0x20 PUSH1 0x0 KECCAK256 SWAP1 PUSH1 0x5 MUL ADD PUSH1 0x1 ADD SLOAD EQ PUSH2 0x1878 JUMPI PUSH1 0x40 DUP1 MLOAD PUSH3 0x461BCD PUSH1 0xE5 SHL DUP2 MSTORE PUSH1 0x20 PUSH1 0x4 DUP3 ADD MSTORE PUSH1 0x8 PUSH1 0x24 DUP3 ADD MSTORE PUSH8 0x15DC9BDB99C81251 PUSH1 0xC2 SHL PUSH1 0x44 DUP3 ADD MSTORE SWAP1 MLOAD SWAP1 DUP2 SWAP1 SUB PUSH1 0x64 ADD SWAP1 REVERT JUMPDEST PUSH1 0x2 DUP2 DUP2 SLOAD DUP2 LT PUSH2 0x1885 JUMPI INVALID JUMPDEST PUSH1 0x0 SWAP2 DUP3 MSTORE PUSH1 0x20 SWAP1 SWAP2 KECCAK256 PUSH1 0x5 SWAP1 SWAP2 MUL ADD SLOAD PUSH1 0x2 DUP1 SLOAD PUSH1 0x1 PUSH1 0x1 PUSH1 0xA0 SHL SUB SWAP1 SWAP3 AND SWAP2 DUP4 SWAP1 DUP2 LT PUSH2 0x18B0 JUMPI INVALID JUMPDEST SWAP1 PUSH1 0x0 MSTORE PUSH1 0x20 PUSH1 0x0 KECCAK256 SWAP1 PUSH1 0x5 MUL ADD PUSH1 0x1 ADD SLOAD PUSH1 0x2 DUP4 DUP2 SLOAD DUP2 LT PUSH2 0x18CF JUMPI INVALID JUMPDEST SWAP1 PUSH1 0x0 MSTORE PUSH1 0x20 PUSH1 0x0 KECCAK256 SWAP1 PUSH1 0x5 MUL ADD PUSH1 0x2 ADD SLOAD PUSH1 0x2 DUP5 DUP2 SLOAD DUP2 LT PUSH2 0x18EE JUMPI INVALID JUMPDEST SWAP1 PUSH1 0x0 MSTORE PUSH1 0x20 PUSH1 0x0 KECCAK256 SWAP1 PUSH1 0x5 MUL ADD PUSH1 0x3 ADD SLOAD PUSH1 0x2 DUP6 DUP2 SLOAD DUP2 LT PUSH2 0xC56 JUMPI INVALID JUMPDEST PUSH1 0x0 DUP3 DUP2 MSTORE PUSH1 0x5 PUSH1 0x20 MSTORE PUSH1 0x40 DUP2 KECCAK256 SLOAD CALLER SWAP2 SWAP1 DUP2 SWAP1 DUP2 DUP1 DUP1 DUP1 JUMPDEST PUSH1 0x2 SLOAD DUP2 LT ISZERO PUSH2 0x1450 JUMPI DUP10 PUSH1 0x2 DUP3 DUP2 SLOAD DUP2 LT PUSH2 0x193E JUMPI INVALID JUMPDEST SWAP1 PUSH1 0x0 MSTORE PUSH1 0x20 PUSH1 0x0 KECCAK256 SWAP1 PUSH1 0x5 MUL ADD PUSH1 0x1 ADD SLOAD EQ ISZERO PUSH2 0x1E8D JUMPI DUP9 PUSH1 0x2 DUP3 DUP2 SLOAD DUP2 LT PUSH2 0x1964 JUMPI INVALID JUMPDEST SWAP1 PUSH1 0x0 MSTORE PUSH1 0x20 PUSH1 0x0 KECCAK256 SWAP1 PUSH1 0x5 MUL ADD PUSH1 0x2 ADD SLOAD LT ISZERO PUSH2 0x1B8F JUMPI PUSH1 0x2 DUP2 DUP2 SLOAD DUP2 LT PUSH2 0x1989 JUMPI INVALID JUMPDEST PUSH1 0x0 SWAP2 DUP3 MSTORE PUSH1 0x20 SWAP1 SWAP2 KECCAK256 PUSH1 0x5 SWAP1 SWAP2 MUL ADD SLOAD PUSH1 0x2 DUP1 SLOAD PUSH1 0x1 PUSH1 0x1 PUSH1 0xA0 SHL SUB SWAP1 SWAP3 AND SWAP9 POP SWAP1 DUP3 SWAP1 DUP2 LT PUSH2 0x19B6 JUMPI INVALID JUMPDEST SWAP1 PUSH1 0x0 MSTORE PUSH1 0x20 PUSH1 0x0 KECCAK256 SWAP1 PUSH1 0x5 MUL ADD PUSH1 0x2 ADD SLOAD SWAP2 POP PUSH1 0x2 DUP2 DUP2 SLOAD DUP2 LT PUSH2 0x19D7 JUMPI INVALID JUMPDEST SWAP1 PUSH1 0x0 MSTORE PUSH1 0x20 PUSH1 0x0 KECCAK256 SWAP1 PUSH1 0x5 MUL ADD PUSH1 0x3 ADD SLOAD DUP3 MUL SWAP3 POP DUP2 DUP10 SUB SWAP9 POP PUSH2 0x19FC PUSH1 0x0 PUSH2 0x1F2F JUMP JUMPDEST PUSH1 0x0 PUSH2 0x1A08 PUSH1 0x0 PUSH2 0x1F38 JUMP JUMPDEST PUSH1 0x0 DUP2 DUP2 MSTORE PUSH1 0x3 PUSH1 0x20 SWAP1 DUP2 MSTORE PUSH1 0x40 SWAP2 DUP3 SWAP1 KECCAK256 PUSH1 0x4 DUP1 SLOAD SWAP2 DUP12 SWAP1 SSTORE DUP4 MLOAD PUSH1 0xA0 DUP2 ADD DUP6 MSTORE PUSH1 0x1 PUSH1 0x1 PUSH1 0xA0 SHL SUB DUP16 AND DUP2 MSTORE SWAP3 DUP4 ADD DUP6 SWAP1 MSTORE SWAP3 DUP3 ADD DUP15 SWAP1 MSTORE PUSH1 0x2 DUP1 SLOAD SWAP2 SWAP12 POP SWAP4 SWAP5 POP SWAP2 SWAP3 SWAP1 SWAP2 PUSH1 0x60 DUP4 ADD SWAP2 SWAP1 DUP7 SWAP1 DUP2 LT PUSH2 0x1A60 JUMPI INVALID JUMPDEST PUSH1 0x0 SWAP2 DUP3 MSTORE PUSH1 0x20 DUP1 DUP4 KECCAK256 PUSH1 0x5 SWAP3 DUP4 MUL ADD PUSH1 0x3 SWAP1 DUP2 ADD SLOAD DUP6 MSTORE TIMESTAMP SWAP5 DUP3 ADD SWAP5 SWAP1 SWAP5 MSTORE DUP6 SLOAD PUSH1 0x1 DUP1 DUP3 ADD DUP9 SSTORE SWAP7 DUP5 MSTORE SWAP3 DUP2 SWAP1 KECCAK256 DUP6 MLOAD SWAP4 SWAP1 SWAP3 MUL SWAP1 SWAP2 ADD DUP1 SLOAD PUSH1 0x1 PUSH1 0x1 PUSH1 0xA0 SHL SUB NOT AND PUSH1 0x1 PUSH1 0x1 PUSH1 0xA0 SHL SUB SWAP1 SWAP4 AND SWAP3 SWAP1 SWAP3 OR DUP3 SSTORE DUP4 ADD MLOAD DUP2 DUP6 ADD SSTORE PUSH1 0x40 DUP4 ADD MLOAD PUSH1 0x2 DUP1 DUP4 ADD SWAP2 SWAP1 SWAP2 SSTORE PUSH1 0x60 DUP5 ADD MLOAD SWAP3 DUP3 ADD SWAP3 SWAP1 SWAP3 SSTORE PUSH1 0x80 SWAP1 SWAP3 ADD MLOAD PUSH1 0x4 SWAP1 SWAP3 ADD SWAP2 SWAP1 SWAP2 SSTORE SLOAD SWAP1 SWAP6 POP DUP6 LT ISZERO PUSH2 0x1B75 JUMPI PUSH1 0x2 DUP1 SLOAD PUSH1 0x0 NOT DUP2 ADD SWAP1 DUP2 LT PUSH2 0x1B03 JUMPI INVALID JUMPDEST SWAP1 PUSH1 0x0 MSTORE PUSH1 0x20 PUSH1 0x0 KECCAK256 SWAP1 PUSH1 0x5 MUL ADD PUSH1 0x2 DUP4 DUP2 SLOAD DUP2 LT PUSH2 0x1B1E JUMPI INVALID JUMPDEST PUSH1 0x0 SWAP2 DUP3 MSTORE PUSH1 0x20 SWAP1 SWAP2 KECCAK256 DUP3 SLOAD PUSH1 0x5 SWAP1 SWAP3 MUL ADD DUP1 SLOAD PUSH1 0x1 PUSH1 0x1 PUSH1 0xA0 SHL SUB NOT AND PUSH1 0x1 PUSH1 0x1 PUSH1 0xA0 SHL SUB SWAP1 SWAP3 AND SWAP2 SWAP1 SWAP2 OR DUP2 SSTORE PUSH1 0x1 DUP1 DUP4 ADD SLOAD SWAP1 DUP3 ADD SSTORE PUSH1 0x2 DUP1 DUP4 ADD SLOAD SWAP1 DUP3 ADD SSTORE PUSH1 0x3 DUP1 DUP4 ADD SLOAD SWAP1 DUP3 ADD SSTORE PUSH1 0x4 SWAP2 DUP3 ADD SLOAD SWAP2 ADD SSTORE JUMPDEST PUSH1 0x2 DUP1 SLOAD SWAP1 PUSH2 0x1B88 SWAP1 PUSH1 0x0 NOT DUP4 ADD PUSH2 0x1F3C JUMP JUMPDEST POP POP PUSH2 0x1D52 JUMP JUMPDEST DUP9 PUSH1 0x2 DUP3 DUP2 SLOAD DUP2 LT PUSH2 0x1B9D JUMPI INVALID JUMPDEST SWAP1 PUSH1 0x0 MSTORE PUSH1 0x20 PUSH1 0x0 KECCAK256 SWAP1 PUSH1 0x5 MUL ADD PUSH1 0x2 ADD SLOAD EQ ISZERO PUSH2 0x1CB7 JUMPI PUSH1 0x2 DUP2 DUP2 SLOAD DUP2 LT PUSH2 0x1BC2 JUMPI INVALID JUMPDEST PUSH1 0x0 SWAP2 DUP3 MSTORE PUSH1 0x20 SWAP1 SWAP2 KECCAK256 PUSH1 0x5 SWAP1 SWAP2 MUL ADD SLOAD PUSH1 0x2 DUP1 SLOAD PUSH1 0x1 PUSH1 0x1 PUSH1 0xA0 SHL SUB SWAP1 SWAP3 AND SWAP9 POP DUP11 SWAP4 POP SWAP1 DUP3 SWAP1 DUP2 LT PUSH2 0x1BF2 JUMPI INVALID JUMPDEST SWAP1 PUSH1 0x0 MSTORE PUSH1 0x20 PUSH1 0x0 KECCAK256 SWAP1 PUSH1 0x5 MUL ADD PUSH1 0x3 ADD SLOAD DUP3 MUL SWAP3 POP PUSH1 0x1 SWAP4 POP PUSH1 0x1 PUSH1 0x2 DUP1 SLOAD SWAP1 POP GT ISZERO PUSH2 0x1C9E JUMPI PUSH1 0x2 DUP1 SLOAD PUSH1 0x0 NOT DUP2 ADD SWAP1 DUP2 LT PUSH2 0x1C2C JUMPI INVALID JUMPDEST SWAP1 PUSH1 0x0 MSTORE PUSH1 0x20 PUSH1 0x0 KECCAK256 SWAP1 PUSH1 0x5 MUL ADD PUSH1 0x2 DUP3 DUP2 SLOAD DUP2 LT PUSH2 0x1C47 JUMPI INVALID JUMPDEST PUSH1 0x0 SWAP2 DUP3 MSTORE PUSH1 0x20 SWAP1 SWAP2 KECCAK256 DUP3 SLOAD PUSH1 0x5 SWAP1 SWAP3 MUL ADD DUP1 SLOAD PUSH1 0x1 PUSH1 0x1 PUSH1 0xA0 SHL SUB NOT AND PUSH1 0x1 PUSH1 0x1 PUSH1 0xA0 SHL SUB SWAP1 SWAP3 AND SWAP2 SWAP1 SWAP2 OR DUP2 SSTORE PUSH1 0x1 DUP1 DUP4 ADD SLOAD SWAP1 DUP3 ADD SSTORE PUSH1 0x2 DUP1 DUP4 ADD SLOAD SWAP1 DUP3 ADD SSTORE PUSH1 0x3 DUP1 DUP4 ADD SLOAD SWAP1 DUP3 ADD SSTORE PUSH1 0x4 SWAP2 DUP3 ADD SLOAD SWAP2 ADD SSTORE JUMPDEST PUSH1 0x2 DUP1 SLOAD SWAP1 PUSH2 0x1CB1 SWAP1 PUSH1 0x0 NOT DUP4 ADD PUSH2 0x1F3C JUMP JUMPDEST POP PUSH2 0x1D52 JUMP JUMPDEST PUSH1 0x2 DUP2 DUP2 SLOAD DUP2 LT PUSH2 0x1CC4 JUMPI INVALID JUMPDEST PUSH1 0x0 SWAP2 DUP3 MSTORE PUSH1 0x20 SWAP1 SWAP2 KECCAK256 PUSH1 0x5 SWAP1 SWAP2 MUL ADD SLOAD PUSH1 0x2 DUP1 SLOAD PUSH1 0x1 PUSH1 0x1 PUSH1 0xA0 SHL SUB SWAP1 SWAP3 AND SWAP9 POP DUP11 SWAP4 POP SWAP1 DUP3 SWAP1 DUP2 LT PUSH2 0x1CF4 JUMPI INVALID JUMPDEST SWAP1 PUSH1 0x0 MSTORE PUSH1 0x20 PUSH1 0x0 KECCAK256 SWAP1 PUSH1 0x5 MUL ADD PUSH1 0x3 ADD SLOAD DUP3 MUL SWAP3 POP DUP2 PUSH1 0x2 DUP3 DUP2 SLOAD DUP2 LT PUSH2 0x1D18 JUMPI INVALID JUMPDEST SWAP1 PUSH1 0x0 MSTORE PUSH1 0x20 PUSH1 0x0 KECCAK256 SWAP1 PUSH1 0x5 MUL ADD PUSH1 0x2 ADD SLOAD SUB PUSH1 0x2 DUP3 DUP2 SLOAD DUP2 LT PUSH2 0x1D38 JUMPI INVALID JUMPDEST SWAP1 PUSH1 0x0 MSTORE PUSH1 0x20 PUSH1 0x0 KECCAK256 SWAP1 PUSH1 0x5 MUL ADD PUSH1 0x2 ADD DUP2 SWAP1 SSTORE POP PUSH1 0x1 SWAP4 POP JUMPDEST DUP4 ISZERO PUSH2 0x1E8D JUMPI PUSH1 0x6 DUP1 SLOAD SWAP1 POP SWAP5 POP DUP5 PUSH1 0x5 PUSH1 0x0 DUP13 DUP2 MSTORE PUSH1 0x20 ADD SWAP1 DUP2 MSTORE PUSH1 0x20 ADD PUSH1 0x0 KECCAK256 DUP2 SWAP1 SSTORE POP PUSH1 0x6 PUSH1 0x40 MLOAD DUP1 PUSH1 0xC0 ADD PUSH1 0x40 MSTORE DUP1 DUP11 PUSH1 0x1 PUSH1 0x1 PUSH1 0xA0 SHL SUB AND DUP2 MSTORE PUSH1 0x20 ADD DUP10 PUSH1 0x1 PUSH1 0x1 PUSH1 0xA0 SHL SUB AND DUP2 MSTORE PUSH1 0x20 ADD DUP5 DUP2 MSTORE PUSH1 0x20 ADD PUSH1 0x2 DUP5 DUP2 SLOAD DUP2 LT PUSH2 0x1DB6 JUMPI INVALID JUMPDEST PUSH1 0x0 SWAP2 DUP3 MSTORE PUSH1 0x20 DUP1 DUP4 KECCAK256 PUSH1 0x5 SWAP3 DUP4 MUL ADD PUSH1 0x1 SWAP1 DUP2 ADD SLOAD DUP6 MSTORE DUP5 DUP3 ADD DUP11 SWAP1 MSTORE TIMESTAMP PUSH1 0x40 SWAP6 DUP7 ADD DUP2 SWAP1 MSTORE DUP8 SLOAD DUP1 DUP4 ADD DUP10 SSTORE SWAP8 DUP6 MSTORE SWAP4 DUP3 SWAP1 KECCAK256 DUP7 MLOAD PUSH1 0x6 SWAP1 SWAP9 MUL ADD DUP1 SLOAD PUSH1 0x1 PUSH1 0x1 PUSH1 0xA0 SHL SUB NOT SWAP1 DUP2 AND PUSH1 0x1 PUSH1 0x1 PUSH1 0xA0 SHL SUB SWAP10 DUP11 AND OR DUP3 SSTORE DUP8 DUP5 ADD MLOAD SWAP3 DUP3 ADD DUP1 SLOAD SWAP1 SWAP2 AND SWAP3 DUP10 AND SWAP3 SWAP1 SWAP3 OR SWAP1 SWAP2 SSTORE DUP6 DUP6 ADD MLOAD PUSH1 0x2 DUP3 ADD SSTORE PUSH1 0x60 DUP7 ADD MLOAD PUSH1 0x3 DUP3 ADD SSTORE PUSH1 0x80 DUP7 ADD MLOAD PUSH1 0x4 DUP3 ADD SSTORE PUSH1 0xA0 SWAP1 SWAP6 ADD MLOAD SWAP5 SWAP1 SWAP2 ADD SWAP4 SWAP1 SWAP4 SSTORE DUP2 MLOAD DUP7 DUP2 MSTORE SWAP2 MLOAD SWAP1 SWAP4 DUP13 DUP2 AND SWAP4 SWAP1 DUP13 AND SWAP3 PUSH32 0xBC69AB44ABEA835022AC03047511C97CEC4735B9476EA16B962411C87FCB2239 SWAP3 SWAP1 DUP2 SWAP1 SUB SWAP1 SWAP2 ADD SWAP1 LOG4 JUMPDEST PUSH1 0x1 ADD PUSH2 0x1926 JUMP JUMPDEST PUSH1 0x0 CALLER DUP2 DUP1 JUMPDEST PUSH1 0x6 SLOAD DUP2 LT ISZERO PUSH2 0x1F27 JUMPI DUP3 PUSH1 0x1 PUSH1 0x1 PUSH1 0xA0 SHL SUB AND PUSH1 0x6 DUP3 DUP2 SLOAD DUP2 LT PUSH2 0x1EBC JUMPI INVALID JUMPDEST PUSH1 0x0 SWAP2 DUP3 MSTORE PUSH1 0x20 SWAP1 SWAP2 KECCAK256 PUSH1 0x6 SWAP1 SWAP2 MUL ADD SLOAD PUSH1 0x1 PUSH1 0x1 PUSH1 0xA0 SHL SUB AND EQ DUP1 PUSH2 0x1F13 JUMPI POP DUP3 PUSH1 0x1 PUSH1 0x1 PUSH1 0xA0 SHL SUB AND PUSH1 0x6 DUP3 DUP2 SLOAD DUP2 LT PUSH2 0x1EF4 JUMPI INVALID JUMPDEST PUSH1 0x0 SWAP2 DUP3 MSTORE PUSH1 0x20 SWAP1 SWAP2 KECCAK256 PUSH1 0x1 PUSH1 0x6 SWAP1 SWAP3 MUL ADD ADD SLOAD PUSH1 0x1 PUSH1 0x1 PUSH1 0xA0 SHL SUB AND EQ JUMPDEST ISZERO PUSH2 0x1F1F JUMPI PUSH1 0x1 SWAP1 SWAP2 ADD SWAP1 JUMPDEST PUSH1 0x1 ADD PUSH2 0x1E9B JUMP JUMPDEST POP SWAP2 POP POP JUMPDEST SWAP1 JUMP JUMPDEST DUP1 SLOAD PUSH1 0x1 ADD SWAP1 SSTORE JUMP JUMPDEST SLOAD SWAP1 JUMP JUMPDEST DUP2 SLOAD DUP2 DUP4 SSTORE DUP2 DUP2 GT ISZERO PUSH2 0x1F68 JUMPI PUSH1 0x5 MUL DUP2 PUSH1 0x5 MUL DUP4 PUSH1 0x0 MSTORE PUSH1 0x20 PUSH1 0x0 KECCAK256 SWAP2 DUP3 ADD SWAP2 ADD PUSH2 0x1F68 SWAP2 SWAP1 PUSH2 0x1F6D JUMP JUMPDEST POP POP POP JUMP JUMPDEST PUSH2 0x1F2C SWAP2 SWAP1 JUMPDEST DUP1 DUP3 GT ISZERO PUSH2 0x1FAD JUMPI DUP1 SLOAD PUSH1 0x1 PUSH1 0x1 PUSH1 0xA0 SHL SUB NOT AND DUP2 SSTORE PUSH1 0x0 PUSH1 0x1 DUP3 ADD DUP2 SWAP1 SSTORE PUSH1 0x2 DUP3 ADD DUP2 SWAP1 SSTORE PUSH1 0x3 DUP3 ADD DUP2 SWAP1 SSTORE PUSH1 0x4 DUP3 ADD SSTORE PUSH1 0x5 ADD PUSH2 0x1F73 JUMP JUMPDEST POP SWAP1 JUMP INVALID POP PUSH19 0x69636520696E202763656E74272C20666F7220 PUSH6 0x78616D706C65 KECCAK256 BALANCE 0x2E CALLDATALOAD PUSH5 0x6F6C6C6172 PUSH20 0x2F6B7768203D2031353063656E74732F6B776857 PUSH19 0x6F6E6720656E6572677920696E707574207265 PUSH18 0x756972652061206D696E696D756D206F6666 PUSH6 0x72206F662031 KECCAK256 PUSH12 0x576828696E20776873292C20 PUSH7 0x6F7220696E7374 PUSH2 0x6E63 PUSH6 0x20352E366B77 PUSH9 0x73203D203536303077 PUSH9 0x73A265627A7A723158 KECCAK256 SELFDESTRUCT LOG4 0x49 PUSH24 0xC758D20F299C8473562BCF002BEAF94D067FE533AAB40FB4 PUSH14 0xF9ECE864736F6C63430005100032 "
		},
		"gasEstimates": {
			"creation": {
				"codeDepositCost": "1663000",
				"executionCost": "1743",
				"totalCost": "1664743"
			},
			"external": {
				"buyAsk(uint256,uint256)": "infinite",
				"buyBid(uint256,uint256)": "infinite",
				"energyAsk(uint256,uint256)": "infinite",
				"energyBid(uint256,uint256)": "infinite",
				"getAllAsks()": "infinite",
				"getAllBids()": "infinite",
				"getAskByID(uint256)": "12416",
				"getBidByID(uint256)": "12393",
				"getCountOfPurchases()": "infinite",
				"getPurchases()": "infinite"
			}
		},
		"methodIdentifiers": {
			"buyAsk(uint256,uint256)": "bb295e5f",
			"buyBid(uint256,uint256)": "dc838210",
			"energyAsk(uint256,uint256)": "6011651f",
			"energyBid(uint256,uint256)": "1add971f",
			"getAllAsks()": "88d4e8f6",
			"getAllBids()": "8d0f6da3",
			"getAskByID(uint256)": "8927b7db",
			"getBidByID(uint256)": "c8feb1fd",
			"getCountOfPurchases()": "eb2eb88f",
			"getPurchases()": "c47f0f90"
		}
	},
	"abi": [
		{
			"anonymous": false,
			"inputs": [
				{
					"indexed": true,
					"internalType": "address",
					"name": "buyer",
					"type": "address"
				},
				{
					"indexed": true,
					"internalType": "uint256",
					"name": "day",
					"type": "uint256"
				},
				{
					"indexed": true,
					"internalType": "uint256",
					"name": "price",
					"type": "uint256"
				},
				{
					"indexed": false,
					"internalType": "uint256",
					"name": "energy",
					"type": "uint256"
				}
			],
			"name": "onAskEnergy",
			"type": "event"
		},
		{
			"anonymous": false,
			"inputs": [
				{
					"indexed": true,
					"internalType": "address",
					"name": "seller",
					"type": "address"
				},
				{
					"indexed": true,
					"internalType": "uint256",
					"name": "day",
					"type": "uint256"
				},
				{
					"indexed": true,
					"internalType": "uint256",
					"name": "price",
					"type": "uint256"
				},
				{
					"indexed": false,
					"internalType": "uint256",
					"name": "energy",
					"type": "uint256"
				}
			],
			"name": "onBidEnergy",
			"type": "event"
		},
		{
			"anonymous": false,
			"inputs": [
				{
					"indexed": true,
					"internalType": "address",
					"name": "seller",
					"type": "address"
				},
				{
					"indexed": true,
					"internalType": "address",
					"name": "buyer",
					"type": "address"
				},
				{
					"indexed": true,
					"internalType": "uint256",
					"name": "day",
					"type": "uint256"
				},
				{
					"indexed": false,
					"internalType": "uint256",
					"name": "energy",
					"type": "uint256"
				}
			],
			"name": "onPurchased",
			"type": "event"
		},
		{
			"constant": false,
			"inputs": [
				{
					"internalType": "uint256",
					"name": "_id",
					"type": "uint256"
				},
				{
					"internalType": "uint256",
					"name": "amount",
					"type": "uint256"
				}
			],
			"name": "buyAsk",
			"outputs": [],
			"payable": false,
			"stateMutability": "nonpayable",
			"type": "function"
		},
		{
			"constant": false,
			"inputs": [
				{
					"internalType": "uint256",
					"name": "_id",
					"type": "uint256"
				},
				{
					"internalType": "uint256",
					"name": "amount",
					"type": "uint256"
				}
			],
			"name": "buyBid",
			"outputs": [],
			"payable": false,
			"stateMutability": "nonpayable",
			"type": "function"
		},
		{
			"constant": false,
			"inputs": [
				{
					"internalType": "uint256",
					"name": "_energy",
					"type": "uint256"
				},
				{
					"internalType": "uint256",
					"name": "_price",
					"type": "uint256"
				}
			],
			"name": "energyAsk",
			"outputs": [],
			"payable": false,
			"stateMutability": "nonpayable",
			"type": "function"
		},
		{
			"constant": false,
			"inputs": [
				{
					"internalType": "uint256",
					"name": "_energy",
					"type": "uint256"
				},
				{
					"internalType": "uint256",
					"name": "_eprice",
					"type": "uint256"
				}
			],
			"name": "energyBid",
			"outputs": [],
			"payable": false,
			"stateMutability": "nonpayable",
			"type": "function"
		},
		{
			"constant": true,
			"inputs": [],
			"name": "getAllAsks",
			"outputs": [
				{
					"internalType": "address[]",
					"name": "",
					"type": "address[]"
				},
				{
					"internalType": "uint256[]",
					"name": "",
					"type": "uint256[]"
				},
				{
					"internalType": "uint256[]",
					"name": "",
					"type": "uint256[]"
				},
				{
					"internalType": "uint256[]",
					"name": "",
					"type": "uint256[]"
				},
				{
					"internalType": "uint256[]",
					"name": "",
					"type": "uint256[]"
				}
			],
			"payable": false,
			"stateMutability": "view",
			"type": "function"
		},
		{
			"constant": true,
			"inputs": [],
			"name": "getAllBids",
			"outputs": [
				{
					"internalType": "address[]",
					"name": "",
					"type": "address[]"
				},
				{
					"internalType": "uint256[]",
					"name": "",
					"type": "uint256[]"
				},
				{
					"internalType": "uint256[]",
					"name": "",
					"type": "uint256[]"
				},
				{
					"internalType": "uint256[]",
					"name": "",
					"type": "uint256[]"
				},
				{
					"internalType": "uint256[]",
					"name": "",
					"type": "uint256[]"
				}
			],
			"payable": false,
			"stateMutability": "view",
			"type": "function"
		},
		{
			"constant": true,
			"inputs": [
				{
					"internalType": "uint256",
					"name": "_id",
					"type": "uint256"
				}
			],
			"name": "getAskByID",
			"outputs": [
				{
					"internalType": "address",
					"name": "",
					"type": "address"
				},
				{
					"internalType": "uint256",
					"name": "",
					"type": "uint256"
				},
				{
					"internalType": "uint256",
					"name": "",
					"type": "uint256"
				},
				{
					"internalType": "uint256",
					"name": "",
					"type": "uint256"
				},
				{
					"internalType": "uint256",
					"name": "",
					"type": "uint256"
				}
			],
			"payable": false,
			"stateMutability": "view",
			"type": "function"
		},
		{
			"constant": true,
			"inputs": [
				{
					"internalType": "uint256",
					"name": "_id",
					"type": "uint256"
				}
			],
			"name": "getBidByID",
			"outputs": [
				{
					"internalType": "address",
					"name": "",
					"type": "address"
				},
				{
					"internalType": "uint256",
					"name": "",
					"type": "uint256"
				},
				{
					"internalType": "uint256",
					"name": "",
					"type": "uint256"
				},
				{
					"internalType": "uint256",
					"name": "",
					"type": "uint256"
				},
				{
					"internalType": "uint256",
					"name": "",
					"type": "uint256"
				}
			],
			"payable": false,
			"stateMutability": "view",
			"type": "function"
		},
		{
			"constant": true,
			"inputs": [],
			"name": "getCountOfPurchases",
			"outputs": [
				{
					"internalType": "uint256",
					"name": "",
					"type": "uint256"
				}
			],
			"payable": false,
			"stateMutability": "view",
			"type": "function"
		},
		{
			"constant": true,
			"inputs": [],
			"name": "getPurchases",
			"outputs": [
				{
					"internalType": "address[]",
					"name": "",
					"type": "address[]"
				},
				{
					"internalType": "address[]",
					"name": "",
					"type": "address[]"
				},
				{
					"internalType": "uint256[]",
					"name": "",
					"type": "uint256[]"
				},
				{
					"internalType": "uint256[]",
					"name": "",
					"type": "uint256[]"
				},
				{
					"internalType": "uint256[]",
					"name": "",
					"type": "uint256[]"
				},
				{
					"internalType": "uint256[]",
					"name": "",
					"type": "uint256[]"
				}
			],
			"payable": false,
			"stateMutability": "view",
			"type": "function"
		}
	]
}