{
	"data": {
		"bytecode": {
			"linkReferences": {},
			"object": "608060405234801561001057600080fd5b50612e21806100206000396000f3fe608060405234801561001057600080fd5b50600436106101165760003560e01c8063ac5afa4e116100a2578063e436db7811610071578063e436db7814610240578063ea1d381f14610248578063ee56659214610250578063f7342a2214610263578063f791560c1461026b57610116565b8063ac5afa4e146101fb578063b5b5dcc11461020e578063dbdf0c2114610223578063e1b0d3c01461022b57610116565b80636aa375a1116100e95780636aa375a1146101985780636d36a6b1146101ab578063877b0fde146101c05780638a28410b146101d55780639d88df62146101e857610116565b80631383ecba1461011b57806322e5ef3d1461013057806325163d5d1461015d5780635a60416514610183575b600080fd5b61012e61012936600461269e565b61027e565b005b61014361013e3660046126eb565b6103df565b604051610154959493929190612bc0565b60405180910390f35b61017061016b3660046126eb565b61043c565b6040516101549796959493929190612c0c565b61018b6104c6565b6040516101549190612c74565b61012e6101a63660046126eb565b6105a1565b6101b3610b43565b6040516101549190612d3f565b6101c8610b49565b6040516101549190612c9d565b61012e6101e3366004612709565b610bd9565b61012e6101f6366004612678565b610d7e565b61012e6102093660046126eb565b610de8565b610216611265565b6040516101549190612cae565b61012e6112f4565b610233611345565b6040516101549190612c8c565b61012e61140b565b61012e61183c565b61012e61025e3660046126eb565b61188a565b61012e611c5b565b61012e610279366004612678565b6124bd565b3360009081526020819052604090205460ff166102b65760405162461bcd60e51b81526004016102ad90612d0f565b60405180910390fd5b6040805160a0810182523381526001600160a01b0394851660208201908152429282019283526060820194855260808201938452600a8054600181018255600091909152915160059092027fc65a7bb8d6351c1cf70c95a316cc6a92839c986682d98bc35f958f4883f9d2a8810180549388166001600160a01b031994851617905590517fc65a7bb8d6351c1cf70c95a316cc6a92839c986682d98bc35f958f4883f9d2a98201805491909716921691909117909455517fc65a7bb8d6351c1cf70c95a316cc6a92839c986682d98bc35f958f4883f9d2aa84015590517fc65a7bb8d6351c1cf70c95a316cc6a92839c986682d98bc35f958f4883f9d2ab830155517fc65a7bb8d6351c1cf70c95a316cc6a92839c986682d98bc35f958f4883f9d2ac90910155565b600080600080600080600887815481106103f557fe5b6000918252602090912060089091020160018101548154600283015460038401546004909401546001600160a01b039384169c939092169a50985091965090945092505050565b6000806000806000806000806006898154811061045557fe5b6000918252602090912060016007909202019081015481546002830154600380850154600486015460068701549697506001600160a01b03958616969490951694929390929160ff909116908111156104aa57fe5b600590960154949e939d50919b50995097509195509350915050565b60606008805480602002602001604051908101604052809291908181526020016000905b8282101561059757600084815260209081902060408051610100810182526008860290920180546001600160a01b03908116845260018201541693830193909352600283015490820152600380830154606083015260048301546080830152600583015460a0830152600683015460c0830152600783015491929160e084019160ff9091169081111561057957fe5b600381111561058457fe5b81525050815260200190600101906104ea565b5050505090505b90565b3360009081526001602052604090205463ffffffff166105d35760405162461bcd60e51b81526004016102ad90612cdf565b428133600080805b600854811015610b3a5760005b600a54811015610b31576000809050600a828154811061060457fe5b6000918252602090912060059091020154600880546001600160a01b03909216918590811061062f57fe5b60009182526020909120600160089092020101546001600160a01b031614801561068a5750856001600160a01b0316600a838154811061066b57fe5b60009182526020909120600160059092020101546001600160a01b0316145b80156106d15750600a828154811061069e57fe5b906000526020600020906005020160040154600884815481106106bd57fe5b906000526020600020906008020160050154145b15610b1d5787600884815481106106e457fe5b90600052602060002090600802016003015411156107145760405162461bcd60e51b81526004016102ad90612cbf565b876008848154811061072257fe5b90600052602060002090600802016004015410156107525760405162461bcd60e51b81526004016102ad90612cef565b86600a838154811061076057fe5b90600052602060002090600502016003015410156108e657600a828154811061078557fe5b6000918252602090912060059091020154600a80546001600160a01b03909216965090839081106107b257fe5b9060005260206000209060050201600301549050808703965080600884815481106107d957fe5b90600052602060002090600802016006015401600884815481106107f957fe5b9060005260206000209060080201600601819055506000600a838154811061081d57fe5b6000918252602090912060036005909202010155600a54600194508410156108cd57600a8054600019810190811061085157fe5b9060005260206000209060050201600a838154811061086c57fe5b60009182526020909120825460059092020180546001600160a01b039283166001600160a01b031991821617825560018085015490830180549190941691161790915560028083015490820155600380830154908201556004918201549101555b600a8054906108e09060001983016124d5565b50610a51565b86600a83815481106108f457fe5b906000526020600020906005020160030154141561099257600a828154811061091957fe5b6000918252602090912060059091020154600880546001600160a01b03909216965088925082918590811061094a57fe5b906000526020600020906008020160060154016008848154811061096a57fe5b906000526020600020906008020160060181905550600096506000600a838154811061081d57fe5b600a828154811061099f57fe5b6000918252602090912060059091020154600880546001600160a01b0390921696508892508291859081106109d057fe5b90600052602060002090600802016006015401600884815481106109f057fe5b90600052602060002090600802016006018190555086600a8381548110610a1357fe5b90600052602060002090600502016003015403600a8381548110610a3357fe5b90600052602060002090600502016003018190555060009650600193505b8315610b1d57600b6040518060a00160405280886001600160a01b03168152602001876001600160a01b031681526020018a8152602001600a8581548110610a9557fe5b6000918252602080832060059283020160049081015485529381018790528554600180820188559684529281902085519390920290910180546001600160a01b03199081166001600160a01b03948516178255918501519581018054909216959092169490941790935560408201516002840155606082015160038401556080909101519101555b86610b285750610b31565b506001016105e8565b506001016105db565b50505050505050565b600a5490565b6060600a805480602002602001604051908101604052809291908181526020016000905b828210156105975760008481526020908190206040805160a0810182526005860290920180546001600160a01b03908116845260018083015490911684860152600282015492840192909252600381015460608401526004015460808301529083529092019101610b6d565b3360009081526020819052604090205460ff16610c085760405162461bcd60e51b81526004016102ad90612d0f565b33610c1360036124c4565b6000610c1f60036124cd565b9050838311610c405760405162461bcd60e51b81526004016102ad90612d2f565b60066040518060e0016040528060006001600160a01b03168152602001846001600160a01b0316815260200187815260200186815260200185815260200183815260200160006003811115610c9157fe5b9052815460018082018085556000948552602094859020845160079094020180546001600160a01b03199081166001600160a01b039586161782559585015181840180549097169416939093179094556040830151600283015560608301516003808401919091556080840151600484015560a0840151600584015560c08401516006840180549193909260ff19909216918490811115610d2e57fe5b0217905550505050816001600160a01b03167fde0e5567d8d6d630907264bdac08cd46c86e8d6a570e0321de2ca45c49f1a2a586604051610d6f9190612d3f565b60405180910390a25050505050565b60016040516001600160a01b038316907f7420b8b978434d1ce66c980ff580761f988dfca7b96378123d4717285774382c90600090a25b6001600160a01b03919091166000908152600160205260409020805463ffffffff191663ffffffff909216919091179055565b4260005b600854811015611260578260088281548110610e0457fe5b906000526020600020906008020160050154148015610e4057508160088281548110610e2c57fe5b906000526020600020906008020160040154105b1561125857600360088281548110610e5457fe5b60009182526020909120600760089092020101805460ff19166001836003811115610e7b57fe5b021790555060066040518060e0016040528060088481548110610e9a57fe5b6000918252602091829020600891820201546001600160a01b031683528054929091019185908110610ec857fe5b906000526020600020906008020160010160009054906101000a90046001600160a01b03166001600160a01b0316815260200160088481548110610f0857fe5b906000526020600020906008020160020154815260200160088481548110610f2c57fe5b906000526020600020906008020160030154815260200160088481548110610f5057fe5b906000526020600020906008020160040154815260200160088481548110610f7457fe5b60009182526020918290206005600890920201015482520160039052815460018082018085556000948552602094859020845160079094020180546001600160a01b03199081166001600160a01b039586161782559585015181840180549097169416939093179094556040830151600283015560608301516003808401919091556080840151600484015560a0840151600584015560c08401516006840180549193909260ff1990921691849081111561102b57fe5b02179055505050506110626008828154811061104357fe5b60009182526020909120600890910201546001600160a01b03166124bd565b6008818154811061106f57fe5b600091825260209091206008918202015481546001600160a01b0390911691908390811061109957fe5b906000526020600020906008020160010160009054906101000a90046001600160a01b03166001600160a01b03167fc3384a2daef78f9743d45a2f054a32d11ee7ef405de6fd4724ec6f77ba049f78600884815481106110f557fe5b9060005260206000209060080201600301546008858154811061111457fe5b9060005260206000209060080201600401546008868154811061113357fe5b600091825260209091206007600890920201015460405161115993929160ff1690612d4d565b60405180910390a36008546001101561123f5760088054600019810190811061117e57fe5b90600052602060002090600802016008828154811061119957fe5b60009182526020909120825460089092020180546001600160a01b03199081166001600160a01b039384161782556001808501548184018054909316941693909317905560028084015490820155600380840154818301556004808501549083015560058085015490830155600680850154908301556007808501549083018054939460ff90921693909260ff199091169190849081111561123757fe5b021790555050505b6008805490611252906000198301612501565b50611260565b600101610dec565b505050565b6060600b80548060200260200160405190810160405280929190818152602001600090828210156105975760008481526020908190206040805160a0810182526005860290920180546001600160a01b03908116845260018083015490911684860152600282015492840192909252600381015460608401526004015460808301529083529092019101610b6d565b604051339081907f769268709e630d5b24d4c651adeae2d7a75c3dd7c3876275233e21570be22fd490600090a26001600160a01b03166000908152602081905260409020805460ff19166001179055565b60606006805480602002602001604051908101604052809291908181526020016000905b828210156105975760008481526020908190206040805160e0810182526007860290920180546001600160a01b03908116845260018201541693830193909352600283015490820152600380830154606083015260048301546080830152600583015460a0830152600683015491929160c084019160ff909116908111156113ed57fe5b60038111156113f857fe5b8152505081526020019060010190611369565b600033815b60065481101561126057816001600160a01b03166006828154811061143157fe5b60009182526020909120600160079092020101546001600160a01b0316141561146c5760405162461bcd60e51b81526004016102ad90612d1f565b60026006828154811061147b57fe5b600091825260209091206006600790920201015460ff16600381111561149d57fe5b14156114bb5760405162461bcd60e51b81526004016102ad90612ccf565b6000600682815481106114ca57fe5b600091825260209091206006600790920201015460ff1660038111156114ec57fe5b1415611834576008604051806101000160405280846001600160a01b031681526020016006848154811061151c57fe5b6000918252602091829020600160079092020101546001600160a01b031682526006805492909101918590811061154f57fe5b90600052602060002090600702016002015481526020016006848154811061157357fe5b90600052602060002090600702016003015481526020016006848154811061159757fe5b9060005260206000209060070201600401548152602001600684815481106115bb57fe5b9060005260206000209060070201600501548152602001858152602001600160038111156115e557fe5b9052815460018082018085556000948552602094859020845160089094020180546001600160a01b03199081166001600160a01b039586161782559585015181840180549097169416939093179094556040830151600283015560608301516003808401919091556080840151600484015560a0840151600584015560c0840151600684015560e08401516007840180549193909260ff1990921691849081111561168c57fe5b021790555050505061169d82610d7e565b600681815481106116aa57fe5b6000918252602090912060016007909202010154600680546001600160a01b0390921691839081106116d857fe5b6000918252602090912060079091020154600680546001600160a01b03909216917f5e51fbd7f7e38ee6927fb25d7e32916c08f102ece1d3d65df27ec76e3a43c3a791908590811061172657fe5b9060005260206000209060070201600501546040516117459190612d3f565b60405180910390a3600654600110156118215760068054600019810190811061176a57fe5b90600052602060002090600702016006828154811061178557fe5b60009182526020909120825460079092020180546001600160a01b03199081166001600160a01b0393841617825560018085015481840180549093169416939093179055600280840154908201556003808401548183015560048085015490830155600580850154908301556006808501549083018054939460ff90921693909260ff199091169190849081111561181957fe5b021790555050505b600680549061125290600019830161252d565b600101611410565b604051339081907f0bb6d68f109745f7ae353e3b90fff6fb8245c34cca44f18d9dfa00e4d705fa6490600090a26001600160a01b03166000908152602081905260409020805460ff19169055565b3360009081526001602052604090205463ffffffff166118bc5760405162461bcd60e51b81526004016102ad90612cdf565b423360005b600854811015611c555760005b600a54811015611c4c576000809050600a82815481106118ea57fe5b6000918252602090912060059091020154600880546001600160a01b03909216918590811061191557fe5b60009182526020909120600160089092020101546001600160a01b031614801561195c5750856008848154811061194857fe5b906000526020600020906008020160050154145b80156119a35750600a828154811061197057fe5b9060005260206000209060050201600401546008848154811061198f57fe5b906000526020600020906008020160050154145b15611b695784600884815481106119b657fe5b90600052602060002090600802016003015411156119e65760405162461bcd60e51b81526004016102ad90612cbf565b84600884815481106119f457fe5b9060005260206000209060080201600401541015611a245760405162461bcd60e51b81526004016102ad90612cef565b600a8281548110611a3157fe5b90600052602060002090600502016003015490508060088481548110611a5357fe5b9060005260206000209060080201600601540160088481548110611a7357fe5b9060005260206000209060080201600601819055506000600a8381548110611a9757fe5b906000526020600020906005020160030181905550600b6040518060a00160405280866001600160a01b03168152602001600a8581548110611ad557fe5b60009182526020808320600592830201546001600160a01b0390811685528482018c905260408086018e90526060958601899052875460018181018a559886529483902087519590940290930180549482166001600160a01b031995861617815591860151968201805497909116969093169590951790915582015160028401558101516003830155608001516004909101555b600a8281548110611b7657fe5b90600052602060002090600502016003015460001415611c4357600a5460011015611c2957600a80546000198101908110611bad57fe5b9060005260206000209060050201600a8381548110611bc857fe5b60009182526020909120825460059092020180546001600160a01b039283166001600160a01b031991821617825560018085015490830180549190941691161790915560028083015490820155600380830154908201556004918201549101555b600a805490611c3c9060001983016124d5565b5050611c4c565b506001016118ce565b506001016118c1565b50505050565b60008033815b600654811015611c555760005b6006548110156120b75760068281548110611c8557fe5b90600052602060002090600702016002015460068281548110611ca457fe5b9060005260206000209060070201600201541015611fbc57600060068281548110611ccb57fe5b600091825260209091206006600790920201015460ff166003811115611ced57fe5b14611d0a5760405162461bcd60e51b81526004016102ad90612cff565b826001600160a01b031660068281548110611d2157fe5b60009182526020909120600160079092020101546001600160a01b03161415611d5c5760405162461bcd60e51b81526004016102ad90612d1f565b6008604051806101000160405280856001600160a01b0316815260200160068481548110611d8657fe5b6000918252602091829020600160079092020101546001600160a01b0316825260068054929091019185908110611db957fe5b906000526020600020906007020160020154815260200160068481548110611ddd57fe5b906000526020600020906007020160030154815260200160068481548110611e0157fe5b906000526020600020906007020160040154815260200160068481548110611e2557fe5b906000526020600020906007020160050154815260200187815260200160016003811115611e4f57fe5b9052815460018082018085556000948552602094859020845160089094020180546001600160a01b03199081166001600160a01b039586161782559585015181840180549097169416939093179094556040830151600283015560608301516003808401919091556080840151600484015560a0840151600584015560c0840151600684015560e08401516007840180549193909260ff19909216918490811115611ef657fe5b0217905550505050611f0783610d7e565b6001935060068181548110611f1857fe5b6000918252602090912060016007909202010154600680546001600160a01b039092169183908110611f4657fe5b6000918252602090912060079091020154600680546001600160a01b03909216917f5e51fbd7f7e38ee6927fb25d7e32916c08f102ece1d3d65df27ec76e3a43c3a7919085908110611f9457fe5b906000526020600020906007020160050154604051611fb39190612d3f565b60405180910390a35b83156120af576006546001101561209657600680546000198101908110611fdf57fe5b906000526020600020906007020160068281548110611ffa57fe5b60009182526020909120825460079092020180546001600160a01b03199081166001600160a01b0393841617825560018085015481840180549093169416939093179055600280840154908201556003808401548183015560048085015490830155600580850154908301556006808501549083018054939460ff90921693909260ff199091169190849081111561208e57fe5b021790555050505b60068054906120a990600019830161252d565b506120b7565b600101611c6e565b5082156120c357611c55565b6000600682815481106120d257fe5b600091825260209091206006600790920201015460ff1660038111156120f457fe5b146121115760405162461bcd60e51b81526004016102ad90612cff565b816001600160a01b03166006828154811061212857fe5b60009182526020909120600160079092020101546001600160a01b031614156121635760405162461bcd60e51b81526004016102ad90612d1f565b6008604051806101000160405280846001600160a01b031681526020016006848154811061218d57fe5b6000918252602091829020600160079092020101546001600160a01b03168252600680549290910191859081106121c057fe5b9060005260206000209060070201600201548152602001600684815481106121e457fe5b90600052602060002090600702016003015481526020016006848154811061220857fe5b90600052602060002090600702016004015481526020016006848154811061222c57fe5b90600052602060002090600702016005015481526020018681526020016001600381111561225657fe5b9052815460018082018085556000948552602094859020845160089094020180546001600160a01b03199081166001600160a01b039586161782559585015181840180549097169416939093179094556040830151600283015560608301516003808401919091556080840151600484015560a0840151600584015560c0840151600684015560e08401516007840180549193909260ff199092169184908111156122fd57fe5b021790555050505061230e82610d7e565b600192506006818154811061231f57fe5b6000918252602090912060016007909202010154600680546001600160a01b03909216918390811061234d57fe5b6000918252602090912060079091020154600680546001600160a01b03909216917f5e51fbd7f7e38ee6927fb25d7e32916c08f102ece1d3d65df27ec76e3a43c3a791908590811061239b57fe5b9060005260206000209060070201600501546040516123ba9190612d3f565b60405180910390a382156124b5576006546001101561249c576006805460001981019081106123e557fe5b90600052602060002090600702016006828154811061240057fe5b60009182526020909120825460079092020180546001600160a01b03199081166001600160a01b0393841617825560018085015481840180549093169416939093179055600280840154908201556003808401548183015560048085015490830155600580850154908301556006808501549083018054939460ff90921693909260ff199091169190849081111561249457fe5b021790555050505b60068054906124af90600019830161252d565b50611c55565b600101611c61565b6000610db5565b80546001019055565b80545b919050565b815481835581811115611260576005028160050283600052602060002091820191016112609190612559565b8154818355818111156112605760080281600802836000526020600020918201910161126091906125a3565b815481835581811115611260576007028160070283600052602060002091820191016112609190612603565b61059e91905b8082111561259f5780546001600160a01b03199081168255600182018054909116905560006002820181905560038201819055600482015560050161255f565b5090565b61059e91905b8082111561259f5780546001600160a01b031990811682556001820180549091169055600060028201819055600382018190556004820181905560058201819055600682015560078101805460ff191690556008016125a9565b61059e91905b8082111561259f5780546001600160a01b0319908116825560018201805490911690556000600282018190556003820181905560048201819055600582015560068101805460ff19169055600701612609565b803561266781612dc1565b92915050565b803561266781612dd5565b60006020828403121561268a57600080fd5b6000612696848461265c565b949350505050565b6000806000606084860312156126b357600080fd5b60006126bf868661265c565b93505060206126d08682870161266d565b92505060406126e18682870161266d565b9150509250925092565b6000602082840312156126fd57600080fd5b6000612696848461266d565b60008060006060848603121561271e57600080fd5b60006126bf868661266d565b60006127368383612a44565b50506101000190565b600061274b8383612adb565b505060e00190565b600061275f8383612b5e565b505060a00190565b61277081612d88565b82525050565b600061278182612d7b565b61278b8185612d7f565b935061279683612d75565b8060005b838110156127c45781516127ae888261272a565b97506127b983612d75565b92505060010161279a565b509495945050505050565b60006127da82612d7b565b6127e48185612d7f565b93506127ef83612d75565b8060005b838110156127c4578151612807888261273f565b975061281283612d75565b9250506001016127f3565b600061282882612d7b565b6128328185612d7f565b935061283d83612d75565b8060005b838110156127c45781516128558882612753565b975061286083612d75565b925050600101612841565b600061287682612d7b565b6128808185612d7f565b935061288b83612d75565b8060005b838110156127c45781516128a38882612753565b97506128ae83612d75565b92505060010161288f565b61277081612da9565b60006128cf601583612d7f565b74141410481a5cc81b9bdd081858dd1a5d99481e595d605a1b815260200192915050565b6000612900600583612d7f565b6432b93937b960d91b815260200192915050565b6000612921600f83612d7f565b6e4f6e6c7920505041206f776e65727360881b815260200192915050565b600061294c600f83612d7f565b6e141410481a185cc8195e1c1a5c9959608a1b815260200192915050565b6000612977601383612d7f565b7250504120646f6573206e6f742065786973747360681b815260200192915050565b60006129a6601e83612d7f565b7f596f75206d75737420626520612063757272656e742050726f64756365720000815260200192915050565b60006129df601383612d7f565b722bb937b7339030b2323932b9b990313abcb2b960691b815260200192915050565b6000612a0e602183612d7f565b7f4974277320696d706f737369626c6520656e64446179203c20737461727444618152607960f81b602082015260400192915050565b8051610100830190612a568482612767565b506020820151612a696020850182612767565b506040820151612a7c6040850182612bb7565b506060820151612a8f6060850182612bb7565b506080820151612aa26080850182612bb7565b5060a0820151612ab560a0850182612bb7565b5060c0820151612ac860c0850182612bb7565b5060e0820151611c5560e08501826128b9565b805160e0830190612aec8482612767565b506020820151612aff6020850182612767565b506040820151612b126040850182612bb7565b506060820151612b256060850182612bb7565b506080820151612b386080850182612bb7565b5060a0820151612b4b60a0850182612bb7565b5060c0820151611c5560c08501826128b9565b805160a0830190612b6f8482612767565b506020820151612b826020850182612767565b506040820151612b956040850182612bb7565b506060820151612ba86060850182612bb7565b506080820151611c5560808501825b6127708161059e565b60a08101612bce8288612767565b612bdb6020830187612767565b612be86040830186612bb7565b612bf56060830185612bb7565b612c026080830184612bb7565b9695505050505050565b60e08101612c1a828a612767565b612c276020830189612767565b612c346040830188612bb7565b612c416060830187612bb7565b612c4e6080830186612bb7565b612c5b60a0830185612bb7565b612c6860c0830184612bb7565b98975050505050505050565b60208082528101612c858184612776565b9392505050565b60208082528101612c8581846127cf565b60208082528101612c85818461281d565b60208082528101612c85818461286b565b60208082528101612667816128c2565b60208082528101612667816128f3565b6020808252810161266781612914565b602080825281016126678161293f565b602080825281016126678161296a565b6020808252810161266781612999565b60208082528101612667816129d2565b6020808252810161266781612a01565b602081016126678284612bb7565b60608101612d5b8286612bb7565b612d686020830185612bb7565b61269660408301846128b9565b60200190565b5190565b90815260200190565b600061266782612d9d565b806124d081612db4565b6001600160a01b031690565b600061266782612d93565b60048110612dbe57fe5b50565b612dca81612d88565b8114612dbe57600080fd5b612dca8161059e56fea365627a7a72315820bf5e46c52a87d98be0d069c66f3496444e9d99edb052d09ed4dbf441df772cd76c6578706572696d656e74616cf564736f6c63430005100040",
			"opcodes": "PUSH1 0x80 PUSH1 0x40 MSTORE CALLVALUE DUP1 ISZERO PUSH2 0x10 JUMPI PUSH1 0x0 DUP1 REVERT JUMPDEST POP PUSH2 0x2E21 DUP1 PUSH2 0x20 PUSH1 0x0 CODECOPY PUSH1 0x0 RETURN INVALID PUSH1 0x80 PUSH1 0x40 MSTORE CALLVALUE DUP1 ISZERO PUSH2 0x10 JUMPI PUSH1 0x0 DUP1 REVERT JUMPDEST POP PUSH1 0x4 CALLDATASIZE LT PUSH2 0x116 JUMPI PUSH1 0x0 CALLDATALOAD PUSH1 0xE0 SHR DUP1 PUSH4 0xAC5AFA4E GT PUSH2 0xA2 JUMPI DUP1 PUSH4 0xE436DB78 GT PUSH2 0x71 JUMPI DUP1 PUSH4 0xE436DB78 EQ PUSH2 0x240 JUMPI DUP1 PUSH4 0xEA1D381F EQ PUSH2 0x248 JUMPI DUP1 PUSH4 0xEE566592 EQ PUSH2 0x250 JUMPI DUP1 PUSH4 0xF7342A22 EQ PUSH2 0x263 JUMPI DUP1 PUSH4 0xF791560C EQ PUSH2 0x26B JUMPI PUSH2 0x116 JUMP JUMPDEST DUP1 PUSH4 0xAC5AFA4E EQ PUSH2 0x1FB JUMPI DUP1 PUSH4 0xB5B5DCC1 EQ PUSH2 0x20E JUMPI DUP1 PUSH4 0xDBDF0C21 EQ PUSH2 0x223 JUMPI DUP1 PUSH4 0xE1B0D3C0 EQ PUSH2 0x22B JUMPI PUSH2 0x116 JUMP JUMPDEST DUP1 PUSH4 0x6AA375A1 GT PUSH2 0xE9 JUMPI DUP1 PUSH4 0x6AA375A1 EQ PUSH2 0x198 JUMPI DUP1 PUSH4 0x6D36A6B1 EQ PUSH2 0x1AB JUMPI DUP1 PUSH4 0x877B0FDE EQ PUSH2 0x1C0 JUMPI DUP1 PUSH4 0x8A28410B EQ PUSH2 0x1D5 JUMPI DUP1 PUSH4 0x9D88DF62 EQ PUSH2 0x1E8 JUMPI PUSH2 0x116 JUMP JUMPDEST DUP1 PUSH4 0x1383ECBA EQ PUSH2 0x11B JUMPI DUP1 PUSH4 0x22E5EF3D EQ PUSH2 0x130 JUMPI DUP1 PUSH4 0x25163D5D EQ PUSH2 0x15D JUMPI DUP1 PUSH4 0x5A604165 EQ PUSH2 0x183 JUMPI JUMPDEST PUSH1 0x0 DUP1 REVERT JUMPDEST PUSH2 0x12E PUSH2 0x129 CALLDATASIZE PUSH1 0x4 PUSH2 0x269E JUMP JUMPDEST PUSH2 0x27E JUMP JUMPDEST STOP JUMPDEST PUSH2 0x143 PUSH2 0x13E CALLDATASIZE PUSH1 0x4 PUSH2 0x26EB JUMP JUMPDEST PUSH2 0x3DF JUMP JUMPDEST PUSH1 0x40 MLOAD PUSH2 0x154 SWAP6 SWAP5 SWAP4 SWAP3 SWAP2 SWAP1 PUSH2 0x2BC0 JUMP JUMPDEST PUSH1 0x40 MLOAD DUP1 SWAP2 SUB SWAP1 RETURN JUMPDEST PUSH2 0x170 PUSH2 0x16B CALLDATASIZE PUSH1 0x4 PUSH2 0x26EB JUMP JUMPDEST PUSH2 0x43C JUMP JUMPDEST PUSH1 0x40 MLOAD PUSH2 0x154 SWAP8 SWAP7 SWAP6 SWAP5 SWAP4 SWAP3 SWAP2 SWAP1 PUSH2 0x2C0C JUMP JUMPDEST PUSH2 0x18B PUSH2 0x4C6 JUMP JUMPDEST PUSH1 0x40 MLOAD PUSH2 0x154 SWAP2 SWAP1 PUSH2 0x2C74 JUMP JUMPDEST PUSH2 0x12E PUSH2 0x1A6 CALLDATASIZE PUSH1 0x4 PUSH2 0x26EB JUMP JUMPDEST PUSH2 0x5A1 JUMP JUMPDEST PUSH2 0x1B3 PUSH2 0xB43 JUMP JUMPDEST PUSH1 0x40 MLOAD PUSH2 0x154 SWAP2 SWAP1 PUSH2 0x2D3F JUMP JUMPDEST PUSH2 0x1C8 PUSH2 0xB49 JUMP JUMPDEST PUSH1 0x40 MLOAD PUSH2 0x154 SWAP2 SWAP1 PUSH2 0x2C9D JUMP JUMPDEST PUSH2 0x12E PUSH2 0x1E3 CALLDATASIZE PUSH1 0x4 PUSH2 0x2709 JUMP JUMPDEST PUSH2 0xBD9 JUMP JUMPDEST PUSH2 0x12E PUSH2 0x1F6 CALLDATASIZE PUSH1 0x4 PUSH2 0x2678 JUMP JUMPDEST PUSH2 0xD7E JUMP JUMPDEST PUSH2 0x12E PUSH2 0x209 CALLDATASIZE PUSH1 0x4 PUSH2 0x26EB JUMP JUMPDEST PUSH2 0xDE8 JUMP JUMPDEST PUSH2 0x216 PUSH2 0x1265 JUMP JUMPDEST PUSH1 0x40 MLOAD PUSH2 0x154 SWAP2 SWAP1 PUSH2 0x2CAE JUMP JUMPDEST PUSH2 0x12E PUSH2 0x12F4 JUMP JUMPDEST PUSH2 0x233 PUSH2 0x1345 JUMP JUMPDEST PUSH1 0x40 MLOAD PUSH2 0x154 SWAP2 SWAP1 PUSH2 0x2C8C JUMP JUMPDEST PUSH2 0x12E PUSH2 0x140B JUMP JUMPDEST PUSH2 0x12E PUSH2 0x183C JUMP JUMPDEST PUSH2 0x12E PUSH2 0x25E CALLDATASIZE PUSH1 0x4 PUSH2 0x26EB JUMP JUMPDEST PUSH2 0x188A JUMP JUMPDEST PUSH2 0x12E PUSH2 0x1C5B JUMP JUMPDEST PUSH2 0x12E PUSH2 0x279 CALLDATASIZE PUSH1 0x4 PUSH2 0x2678 JUMP JUMPDEST PUSH2 0x24BD JUMP JUMPDEST CALLER PUSH1 0x0 SWAP1 DUP2 MSTORE PUSH1 0x20 DUP2 SWAP1 MSTORE PUSH1 0x40 SWAP1 KECCAK256 SLOAD PUSH1 0xFF AND PUSH2 0x2B6 JUMPI PUSH1 0x40 MLOAD PUSH3 0x461BCD PUSH1 0xE5 SHL DUP2 MSTORE PUSH1 0x4 ADD PUSH2 0x2AD SWAP1 PUSH2 0x2D0F JUMP JUMPDEST PUSH1 0x40 MLOAD DUP1 SWAP2 SUB SWAP1 REVERT JUMPDEST PUSH1 0x40 DUP1 MLOAD PUSH1 0xA0 DUP2 ADD DUP3 MSTORE CALLER DUP2 MSTORE PUSH1 0x1 PUSH1 0x1 PUSH1 0xA0 SHL SUB SWAP5 DUP6 AND PUSH1 0x20 DUP3 ADD SWAP1 DUP2 MSTORE TIMESTAMP SWAP3 DUP3 ADD SWAP3 DUP4 MSTORE PUSH1 0x60 DUP3 ADD SWAP5 DUP6 MSTORE PUSH1 0x80 DUP3 ADD SWAP4 DUP5 MSTORE PUSH1 0xA DUP1 SLOAD PUSH1 0x1 DUP2 ADD DUP3 SSTORE PUSH1 0x0 SWAP2 SWAP1 SWAP2 MSTORE SWAP2 MLOAD PUSH1 0x5 SWAP1 SWAP3 MUL PUSH32 0xC65A7BB8D6351C1CF70C95A316CC6A92839C986682D98BC35F958F4883F9D2A8 DUP2 ADD DUP1 SLOAD SWAP4 DUP9 AND PUSH1 0x1 PUSH1 0x1 PUSH1 0xA0 SHL SUB NOT SWAP5 DUP6 AND OR SWAP1 SSTORE SWAP1 MLOAD PUSH32 0xC65A7BB8D6351C1CF70C95A316CC6A92839C986682D98BC35F958F4883F9D2A9 DUP3 ADD DUP1 SLOAD SWAP2 SWAP1 SWAP8 AND SWAP3 AND SWAP2 SWAP1 SWAP2 OR SWAP1 SWAP5 SSTORE MLOAD PUSH32 0xC65A7BB8D6351C1CF70C95A316CC6A92839C986682D98BC35F958F4883F9D2AA DUP5 ADD SSTORE SWAP1 MLOAD PUSH32 0xC65A7BB8D6351C1CF70C95A316CC6A92839C986682D98BC35F958F4883F9D2AB DUP4 ADD SSTORE MLOAD PUSH32 0xC65A7BB8D6351C1CF70C95A316CC6A92839C986682D98BC35F958F4883F9D2AC SWAP1 SWAP2 ADD SSTORE JUMP JUMPDEST PUSH1 0x0 DUP1 PUSH1 0x0 DUP1 PUSH1 0x0 DUP1 PUSH1 0x8 DUP8 DUP2 SLOAD DUP2 LT PUSH2 0x3F5 JUMPI INVALID JUMPDEST PUSH1 0x0 SWAP2 DUP3 MSTORE PUSH1 0x20 SWAP1 SWAP2 KECCAK256 PUSH1 0x8 SWAP1 SWAP2 MUL ADD PUSH1 0x1 DUP2 ADD SLOAD DUP2 SLOAD PUSH1 0x2 DUP4 ADD SLOAD PUSH1 0x3 DUP5 ADD SLOAD PUSH1 0x4 SWAP1 SWAP5 ADD SLOAD PUSH1 0x1 PUSH1 0x1 PUSH1 0xA0 SHL SUB SWAP4 DUP5 AND SWAP13 SWAP4 SWAP1 SWAP3 AND SWAP11 POP SWAP9 POP SWAP2 SWAP7 POP SWAP1 SWAP5 POP SWAP3 POP POP POP JUMP JUMPDEST PUSH1 0x0 DUP1 PUSH1 0x0 DUP1 PUSH1 0x0 DUP1 PUSH1 0x0 DUP1 PUSH1 0x6 DUP10 DUP2 SLOAD DUP2 LT PUSH2 0x455 JUMPI INVALID JUMPDEST PUSH1 0x0 SWAP2 DUP3 MSTORE PUSH1 0x20 SWAP1 SWAP2 KECCAK256 PUSH1 0x1 PUSH1 0x7 SWAP1 SWAP3 MUL ADD SWAP1 DUP2 ADD SLOAD DUP2 SLOAD PUSH1 0x2 DUP4 ADD SLOAD PUSH1 0x3 DUP1 DUP6 ADD SLOAD PUSH1 0x4 DUP7 ADD SLOAD PUSH1 0x6 DUP8 ADD SLOAD SWAP7 SWAP8 POP PUSH1 0x1 PUSH1 0x1 PUSH1 0xA0 SHL SUB SWAP6 DUP7 AND SWAP7 SWAP5 SWAP1 SWAP6 AND SWAP5 SWAP3 SWAP4 SWAP1 SWAP3 SWAP2 PUSH1 0xFF SWAP1 SWAP2 AND SWAP1 DUP2 GT ISZERO PUSH2 0x4AA JUMPI INVALID JUMPDEST PUSH1 0x5 SWAP1 SWAP7 ADD SLOAD SWAP5 SWAP15 SWAP4 SWAP14 POP SWAP2 SWAP12 POP SWAP10 POP SWAP8 POP SWAP2 SWAP6 POP SWAP4 POP SWAP2 POP POP JUMP JUMPDEST PUSH1 0x60 PUSH1 0x8 DUP1 SLOAD DUP1 PUSH1 0x20 MUL PUSH1 0x20 ADD PUSH1 0x40 MLOAD SWAP1 DUP2 ADD PUSH1 0x40 MSTORE DUP1 SWAP3 SWAP2 SWAP1 DUP2 DUP2 MSTORE PUSH1 0x20 ADD PUSH1 0x0 SWAP1 JUMPDEST DUP3 DUP3 LT ISZERO PUSH2 0x597 JUMPI PUSH1 0x0 DUP5 DUP2 MSTORE PUSH1 0x20 SWAP1 DUP2 SWAP1 KECCAK256 PUSH1 0x40 DUP1 MLOAD PUSH2 0x100 DUP2 ADD DUP3 MSTORE PUSH1 0x8 DUP7 MUL SWAP1 SWAP3 ADD DUP1 SLOAD PUSH1 0x1 PUSH1 0x1 PUSH1 0xA0 SHL SUB SWAP1 DUP2 AND DUP5 MSTORE PUSH1 0x1 DUP3 ADD SLOAD AND SWAP4 DUP4 ADD SWAP4 SWAP1 SWAP4 MSTORE PUSH1 0x2 DUP4 ADD SLOAD SWAP1 DUP3 ADD MSTORE PUSH1 0x3 DUP1 DUP4 ADD SLOAD PUSH1 0x60 DUP4 ADD MSTORE PUSH1 0x4 DUP4 ADD SLOAD PUSH1 0x80 DUP4 ADD MSTORE PUSH1 0x5 DUP4 ADD SLOAD PUSH1 0xA0 DUP4 ADD MSTORE PUSH1 0x6 DUP4 ADD SLOAD PUSH1 0xC0 DUP4 ADD MSTORE PUSH1 0x7 DUP4 ADD SLOAD SWAP2 SWAP3 SWAP2 PUSH1 0xE0 DUP5 ADD SWAP2 PUSH1 0xFF SWAP1 SWAP2 AND SWAP1 DUP2 GT ISZERO PUSH2 0x579 JUMPI INVALID JUMPDEST PUSH1 0x3 DUP2 GT ISZERO PUSH2 0x584 JUMPI INVALID JUMPDEST DUP2 MSTORE POP POP DUP2 MSTORE PUSH1 0x20 ADD SWAP1 PUSH1 0x1 ADD SWAP1 PUSH2 0x4EA JUMP JUMPDEST POP POP POP POP SWAP1 POP JUMPDEST SWAP1 JUMP JUMPDEST CALLER PUSH1 0x0 SWAP1 DUP2 MSTORE PUSH1 0x1 PUSH1 0x20 MSTORE PUSH1 0x40 SWAP1 KECCAK256 SLOAD PUSH4 0xFFFFFFFF AND PUSH2 0x5D3 JUMPI PUSH1 0x40 MLOAD PUSH3 0x461BCD PUSH1 0xE5 SHL DUP2 MSTORE PUSH1 0x4 ADD PUSH2 0x2AD SWAP1 PUSH2 0x2CDF JUMP JUMPDEST TIMESTAMP DUP2 CALLER PUSH1 0x0 DUP1 DUP1 JUMPDEST PUSH1 0x8 SLOAD DUP2 LT ISZERO PUSH2 0xB3A JUMPI PUSH1 0x0 JUMPDEST PUSH1 0xA SLOAD DUP2 LT ISZERO PUSH2 0xB31 JUMPI PUSH1 0x0 DUP1 SWAP1 POP PUSH1 0xA DUP3 DUP2 SLOAD DUP2 LT PUSH2 0x604 JUMPI INVALID JUMPDEST PUSH1 0x0 SWAP2 DUP3 MSTORE PUSH1 0x20 SWAP1 SWAP2 KECCAK256 PUSH1 0x5 SWAP1 SWAP2 MUL ADD SLOAD PUSH1 0x8 DUP1 SLOAD PUSH1 0x1 PUSH1 0x1 PUSH1 0xA0 SHL SUB SWAP1 SWAP3 AND SWAP2 DUP6 SWAP1 DUP2 LT PUSH2 0x62F JUMPI INVALID JUMPDEST PUSH1 0x0 SWAP2 DUP3 MSTORE PUSH1 0x20 SWAP1 SWAP2 KECCAK256 PUSH1 0x1 PUSH1 0x8 SWAP1 SWAP3 MUL ADD ADD SLOAD PUSH1 0x1 PUSH1 0x1 PUSH1 0xA0 SHL SUB AND EQ DUP1 ISZERO PUSH2 0x68A JUMPI POP DUP6 PUSH1 0x1 PUSH1 0x1 PUSH1 0xA0 SHL SUB AND PUSH1 0xA DUP4 DUP2 SLOAD DUP2 LT PUSH2 0x66B JUMPI INVALID JUMPDEST PUSH1 0x0 SWAP2 DUP3 MSTORE PUSH1 0x20 SWAP1 SWAP2 KECCAK256 PUSH1 0x1 PUSH1 0x5 SWAP1 SWAP3 MUL ADD ADD SLOAD PUSH1 0x1 PUSH1 0x1 PUSH1 0xA0 SHL SUB AND EQ JUMPDEST DUP1 ISZERO PUSH2 0x6D1 JUMPI POP PUSH1 0xA DUP3 DUP2 SLOAD DUP2 LT PUSH2 0x69E JUMPI INVALID JUMPDEST SWAP1 PUSH1 0x0 MSTORE PUSH1 0x20 PUSH1 0x0 KECCAK256 SWAP1 PUSH1 0x5 MUL ADD PUSH1 0x4 ADD SLOAD PUSH1 0x8 DUP5 DUP2 SLOAD DUP2 LT PUSH2 0x6BD JUMPI INVALID JUMPDEST SWAP1 PUSH1 0x0 MSTORE PUSH1 0x20 PUSH1 0x0 KECCAK256 SWAP1 PUSH1 0x8 MUL ADD PUSH1 0x5 ADD SLOAD EQ JUMPDEST ISZERO PUSH2 0xB1D JUMPI DUP8 PUSH1 0x8 DUP5 DUP2 SLOAD DUP2 LT PUSH2 0x6E4 JUMPI INVALID JUMPDEST SWAP1 PUSH1 0x0 MSTORE PUSH1 0x20 PUSH1 0x0 KECCAK256 SWAP1 PUSH1 0x8 MUL ADD PUSH1 0x3 ADD SLOAD GT ISZERO PUSH2 0x714 JUMPI PUSH1 0x40 MLOAD PUSH3 0x461BCD PUSH1 0xE5 SHL DUP2 MSTORE PUSH1 0x4 ADD PUSH2 0x2AD SWAP1 PUSH2 0x2CBF JUMP JUMPDEST DUP8 PUSH1 0x8 DUP5 DUP2 SLOAD DUP2 LT PUSH2 0x722 JUMPI INVALID JUMPDEST SWAP1 PUSH1 0x0 MSTORE PUSH1 0x20 PUSH1 0x0 KECCAK256 SWAP1 PUSH1 0x8 MUL ADD PUSH1 0x4 ADD SLOAD LT ISZERO PUSH2 0x752 JUMPI PUSH1 0x40 MLOAD PUSH3 0x461BCD PUSH1 0xE5 SHL DUP2 MSTORE PUSH1 0x4 ADD PUSH2 0x2AD SWAP1 PUSH2 0x2CEF JUMP JUMPDEST DUP7 PUSH1 0xA DUP4 DUP2 SLOAD DUP2 LT PUSH2 0x760 JUMPI INVALID JUMPDEST SWAP1 PUSH1 0x0 MSTORE PUSH1 0x20 PUSH1 0x0 KECCAK256 SWAP1 PUSH1 0x5 MUL ADD PUSH1 0x3 ADD SLOAD LT ISZERO PUSH2 0x8E6 JUMPI PUSH1 0xA DUP3 DUP2 SLOAD DUP2 LT PUSH2 0x785 JUMPI INVALID JUMPDEST PUSH1 0x0 SWAP2 DUP3 MSTORE PUSH1 0x20 SWAP1 SWAP2 KECCAK256 PUSH1 0x5 SWAP1 SWAP2 MUL ADD SLOAD PUSH1 0xA DUP1 SLOAD PUSH1 0x1 PUSH1 0x1 PUSH1 0xA0 SHL SUB SWAP1 SWAP3 AND SWAP7 POP SWAP1 DUP4 SWAP1 DUP2 LT PUSH2 0x7B2 JUMPI INVALID JUMPDEST SWAP1 PUSH1 0x0 MSTORE PUSH1 0x20 PUSH1 0x0 KECCAK256 SWAP1 PUSH1 0x5 MUL ADD PUSH1 0x3 ADD SLOAD SWAP1 POP DUP1 DUP8 SUB SWAP7 POP DUP1 PUSH1 0x8 DUP5 DUP2 SLOAD DUP2 LT PUSH2 0x7D9 JUMPI INVALID JUMPDEST SWAP1 PUSH1 0x0 MSTORE PUSH1 0x20 PUSH1 0x0 KECCAK256 SWAP1 PUSH1 0x8 MUL ADD PUSH1 0x6 ADD SLOAD ADD PUSH1 0x8 DUP5 DUP2 SLOAD DUP2 LT PUSH2 0x7F9 JUMPI INVALID JUMPDEST SWAP1 PUSH1 0x0 MSTORE PUSH1 0x20 PUSH1 0x0 KECCAK256 SWAP1 PUSH1 0x8 MUL ADD PUSH1 0x6 ADD DUP2 SWAP1 SSTORE POP PUSH1 0x0 PUSH1 0xA DUP4 DUP2 SLOAD DUP2 LT PUSH2 0x81D JUMPI INVALID JUMPDEST PUSH1 0x0 SWAP2 DUP3 MSTORE PUSH1 0x20 SWAP1 SWAP2 KECCAK256 PUSH1 0x3 PUSH1 0x5 SWAP1 SWAP3 MUL ADD ADD SSTORE PUSH1 0xA SLOAD PUSH1 0x1 SWAP5 POP DUP5 LT ISZERO PUSH2 0x8CD JUMPI PUSH1 0xA DUP1 SLOAD PUSH1 0x0 NOT DUP2 ADD SWAP1 DUP2 LT PUSH2 0x851 JUMPI INVALID JUMPDEST SWAP1 PUSH1 0x0 MSTORE PUSH1 0x20 PUSH1 0x0 KECCAK256 SWAP1 PUSH1 0x5 MUL ADD PUSH1 0xA DUP4 DUP2 SLOAD DUP2 LT PUSH2 0x86C JUMPI INVALID JUMPDEST PUSH1 0x0 SWAP2 DUP3 MSTORE PUSH1 0x20 SWAP1 SWAP2 KECCAK256 DUP3 SLOAD PUSH1 0x5 SWAP1 SWAP3 MUL ADD DUP1 SLOAD PUSH1 0x1 PUSH1 0x1 PUSH1 0xA0 SHL SUB SWAP3 DUP4 AND PUSH1 0x1 PUSH1 0x1 PUSH1 0xA0 SHL SUB NOT SWAP2 DUP3 AND OR DUP3 SSTORE PUSH1 0x1 DUP1 DUP6 ADD SLOAD SWAP1 DUP4 ADD DUP1 SLOAD SWAP2 SWAP1 SWAP5 AND SWAP2 AND OR SWAP1 SWAP2 SSTORE PUSH1 0x2 DUP1 DUP4 ADD SLOAD SWAP1 DUP3 ADD SSTORE PUSH1 0x3 DUP1 DUP4 ADD SLOAD SWAP1 DUP3 ADD SSTORE PUSH1 0x4 SWAP2 DUP3 ADD SLOAD SWAP2 ADD SSTORE JUMPDEST PUSH1 0xA DUP1 SLOAD SWAP1 PUSH2 0x8E0 SWAP1 PUSH1 0x0 NOT DUP4 ADD PUSH2 0x24D5 JUMP JUMPDEST POP PUSH2 0xA51 JUMP JUMPDEST DUP7 PUSH1 0xA DUP4 DUP2 SLOAD DUP2 LT PUSH2 0x8F4 JUMPI INVALID JUMPDEST SWAP1 PUSH1 0x0 MSTORE PUSH1 0x20 PUSH1 0x0 KECCAK256 SWAP1 PUSH1 0x5 MUL ADD PUSH1 0x3 ADD SLOAD EQ ISZERO PUSH2 0x992 JUMPI PUSH1 0xA DUP3 DUP2 SLOAD DUP2 LT PUSH2 0x919 JUMPI INVALID JUMPDEST PUSH1 0x0 SWAP2 DUP3 MSTORE PUSH1 0x20 SWAP1 SWAP2 KECCAK256 PUSH1 0x5 SWAP1 SWAP2 MUL ADD SLOAD PUSH1 0x8 DUP1 SLOAD PUSH1 0x1 PUSH1 0x1 PUSH1 0xA0 SHL SUB SWAP1 SWAP3 AND SWAP7 POP DUP9 SWAP3 POP DUP3 SWAP2 DUP6 SWAP1 DUP2 LT PUSH2 0x94A JUMPI INVALID JUMPDEST SWAP1 PUSH1 0x0 MSTORE PUSH1 0x20 PUSH1 0x0 KECCAK256 SWAP1 PUSH1 0x8 MUL ADD PUSH1 0x6 ADD SLOAD ADD PUSH1 0x8 DUP5 DUP2 SLOAD DUP2 LT PUSH2 0x96A JUMPI INVALID JUMPDEST SWAP1 PUSH1 0x0 MSTORE PUSH1 0x20 PUSH1 0x0 KECCAK256 SWAP1 PUSH1 0x8 MUL ADD PUSH1 0x6 ADD DUP2 SWAP1 SSTORE POP PUSH1 0x0 SWAP7 POP PUSH1 0x0 PUSH1 0xA DUP4 DUP2 SLOAD DUP2 LT PUSH2 0x81D JUMPI INVALID JUMPDEST PUSH1 0xA DUP3 DUP2 SLOAD DUP2 LT PUSH2 0x99F JUMPI INVALID JUMPDEST PUSH1 0x0 SWAP2 DUP3 MSTORE PUSH1 0x20 SWAP1 SWAP2 KECCAK256 PUSH1 0x5 SWAP1 SWAP2 MUL ADD SLOAD PUSH1 0x8 DUP1 SLOAD PUSH1 0x1 PUSH1 0x1 PUSH1 0xA0 SHL SUB SWAP1 SWAP3 AND SWAP7 POP DUP9 SWAP3 POP DUP3 SWAP2 DUP6 SWAP1 DUP2 LT PUSH2 0x9D0 JUMPI INVALID JUMPDEST SWAP1 PUSH1 0x0 MSTORE PUSH1 0x20 PUSH1 0x0 KECCAK256 SWAP1 PUSH1 0x8 MUL ADD PUSH1 0x6 ADD SLOAD ADD PUSH1 0x8 DUP5 DUP2 SLOAD DUP2 LT PUSH2 0x9F0 JUMPI INVALID JUMPDEST SWAP1 PUSH1 0x0 MSTORE PUSH1 0x20 PUSH1 0x0 KECCAK256 SWAP1 PUSH1 0x8 MUL ADD PUSH1 0x6 ADD DUP2 SWAP1 SSTORE POP DUP7 PUSH1 0xA DUP4 DUP2 SLOAD DUP2 LT PUSH2 0xA13 JUMPI INVALID JUMPDEST SWAP1 PUSH1 0x0 MSTORE PUSH1 0x20 PUSH1 0x0 KECCAK256 SWAP1 PUSH1 0x5 MUL ADD PUSH1 0x3 ADD SLOAD SUB PUSH1 0xA DUP4 DUP2 SLOAD DUP2 LT PUSH2 0xA33 JUMPI INVALID JUMPDEST SWAP1 PUSH1 0x0 MSTORE PUSH1 0x20 PUSH1 0x0 KECCAK256 SWAP1 PUSH1 0x5 MUL ADD PUSH1 0x3 ADD DUP2 SWAP1 SSTORE POP PUSH1 0x0 SWAP7 POP PUSH1 0x1 SWAP4 POP JUMPDEST DUP4 ISZERO PUSH2 0xB1D JUMPI PUSH1 0xB PUSH1 0x40 MLOAD DUP1 PUSH1 0xA0 ADD PUSH1 0x40 MSTORE DUP1 DUP9 PUSH1 0x1 PUSH1 0x1 PUSH1 0xA0 SHL SUB AND DUP2 MSTORE PUSH1 0x20 ADD DUP8 PUSH1 0x1 PUSH1 0x1 PUSH1 0xA0 SHL SUB AND DUP2 MSTORE PUSH1 0x20 ADD DUP11 DUP2 MSTORE PUSH1 0x20 ADD PUSH1 0xA DUP6 DUP2 SLOAD DUP2 LT PUSH2 0xA95 JUMPI INVALID JUMPDEST PUSH1 0x0 SWAP2 DUP3 MSTORE PUSH1 0x20 DUP1 DUP4 KECCAK256 PUSH1 0x5 SWAP3 DUP4 MUL ADD PUSH1 0x4 SWAP1 DUP2 ADD SLOAD DUP6 MSTORE SWAP4 DUP2 ADD DUP8 SWAP1 MSTORE DUP6 SLOAD PUSH1 0x1 DUP1 DUP3 ADD DUP9 SSTORE SWAP7 DUP5 MSTORE SWAP3 DUP2 SWAP1 KECCAK256 DUP6 MLOAD SWAP4 SWAP1 SWAP3 MUL SWAP1 SWAP2 ADD DUP1 SLOAD PUSH1 0x1 PUSH1 0x1 PUSH1 0xA0 SHL SUB NOT SWAP1 DUP2 AND PUSH1 0x1 PUSH1 0x1 PUSH1 0xA0 SHL SUB SWAP5 DUP6 AND OR DUP3 SSTORE SWAP2 DUP6 ADD MLOAD SWAP6 DUP2 ADD DUP1 SLOAD SWAP1 SWAP3 AND SWAP6 SWAP1 SWAP3 AND SWAP5 SWAP1 SWAP5 OR SWAP1 SWAP4 SSTORE PUSH1 0x40 DUP3 ADD MLOAD PUSH1 0x2 DUP5 ADD SSTORE PUSH1 0x60 DUP3 ADD MLOAD PUSH1 0x3 DUP5 ADD SSTORE PUSH1 0x80 SWAP1 SWAP2 ADD MLOAD SWAP2 ADD SSTORE JUMPDEST DUP7 PUSH2 0xB28 JUMPI POP PUSH2 0xB31 JUMP JUMPDEST POP PUSH1 0x1 ADD PUSH2 0x5E8 JUMP JUMPDEST POP PUSH1 0x1 ADD PUSH2 0x5DB JUMP JUMPDEST POP POP POP POP POP POP POP JUMP JUMPDEST PUSH1 0xA SLOAD SWAP1 JUMP JUMPDEST PUSH1 0x60 PUSH1 0xA DUP1 SLOAD DUP1 PUSH1 0x20 MUL PUSH1 0x20 ADD PUSH1 0x40 MLOAD SWAP1 DUP2 ADD PUSH1 0x40 MSTORE DUP1 SWAP3 SWAP2 SWAP1 DUP2 DUP2 MSTORE PUSH1 0x20 ADD PUSH1 0x0 SWAP1 JUMPDEST DUP3 DUP3 LT ISZERO PUSH2 0x597 JUMPI PUSH1 0x0 DUP5 DUP2 MSTORE PUSH1 0x20 SWAP1 DUP2 SWAP1 KECCAK256 PUSH1 0x40 DUP1 MLOAD PUSH1 0xA0 DUP2 ADD DUP3 MSTORE PUSH1 0x5 DUP7 MUL SWAP1 SWAP3 ADD DUP1 SLOAD PUSH1 0x1 PUSH1 0x1 PUSH1 0xA0 SHL SUB SWAP1 DUP2 AND DUP5 MSTORE PUSH1 0x1 DUP1 DUP4 ADD SLOAD SWAP1 SWAP2 AND DUP5 DUP7 ADD MSTORE PUSH1 0x2 DUP3 ADD SLOAD SWAP3 DUP5 ADD SWAP3 SWAP1 SWAP3 MSTORE PUSH1 0x3 DUP2 ADD SLOAD PUSH1 0x60 DUP5 ADD MSTORE PUSH1 0x4 ADD SLOAD PUSH1 0x80 DUP4 ADD MSTORE SWAP1 DUP4 MSTORE SWAP1 SWAP3 ADD SWAP2 ADD PUSH2 0xB6D JUMP JUMPDEST CALLER PUSH1 0x0 SWAP1 DUP2 MSTORE PUSH1 0x20 DUP2 SWAP1 MSTORE PUSH1 0x40 SWAP1 KECCAK256 SLOAD PUSH1 0xFF AND PUSH2 0xC08 JUMPI PUSH1 0x40 MLOAD PUSH3 0x461BCD PUSH1 0xE5 SHL DUP2 MSTORE PUSH1 0x4 ADD PUSH2 0x2AD SWAP1 PUSH2 0x2D0F JUMP JUMPDEST CALLER PUSH2 0xC13 PUSH1 0x3 PUSH2 0x24C4 JUMP JUMPDEST PUSH1 0x0 PUSH2 0xC1F PUSH1 0x3 PUSH2 0x24CD JUMP JUMPDEST SWAP1 POP DUP4 DUP4 GT PUSH2 0xC40 JUMPI PUSH1 0x40 MLOAD PUSH3 0x461BCD PUSH1 0xE5 SHL DUP2 MSTORE PUSH1 0x4 ADD PUSH2 0x2AD SWAP1 PUSH2 0x2D2F JUMP JUMPDEST PUSH1 0x6 PUSH1 0x40 MLOAD DUP1 PUSH1 0xE0 ADD PUSH1 0x40 MSTORE DUP1 PUSH1 0x0 PUSH1 0x1 PUSH1 0x1 PUSH1 0xA0 SHL SUB AND DUP2 MSTORE PUSH1 0x20 ADD DUP5 PUSH1 0x1 PUSH1 0x1 PUSH1 0xA0 SHL SUB AND DUP2 MSTORE PUSH1 0x20 ADD DUP8 DUP2 MSTORE PUSH1 0x20 ADD DUP7 DUP2 MSTORE PUSH1 0x20 ADD DUP6 DUP2 MSTORE PUSH1 0x20 ADD DUP4 DUP2 MSTORE PUSH1 0x20 ADD PUSH1 0x0 PUSH1 0x3 DUP2 GT ISZERO PUSH2 0xC91 JUMPI INVALID JUMPDEST SWAP1 MSTORE DUP2 SLOAD PUSH1 0x1 DUP1 DUP3 ADD DUP1 DUP6 SSTORE PUSH1 0x0 SWAP5 DUP6 MSTORE PUSH1 0x20 SWAP5 DUP6 SWAP1 KECCAK256 DUP5 MLOAD PUSH1 0x7 SWAP1 SWAP5 MUL ADD DUP1 SLOAD PUSH1 0x1 PUSH1 0x1 PUSH1 0xA0 SHL SUB NOT SWAP1 DUP2 AND PUSH1 0x1 PUSH1 0x1 PUSH1 0xA0 SHL SUB SWAP6 DUP7 AND OR DUP3 SSTORE SWAP6 DUP6 ADD MLOAD DUP2 DUP5 ADD DUP1 SLOAD SWAP1 SWAP8 AND SWAP5 AND SWAP4 SWAP1 SWAP4 OR SWAP1 SWAP5 SSTORE PUSH1 0x40 DUP4 ADD MLOAD PUSH1 0x2 DUP4 ADD SSTORE PUSH1 0x60 DUP4 ADD MLOAD PUSH1 0x3 DUP1 DUP5 ADD SWAP2 SWAP1 SWAP2 SSTORE PUSH1 0x80 DUP5 ADD MLOAD PUSH1 0x4 DUP5 ADD SSTORE PUSH1 0xA0 DUP5 ADD MLOAD PUSH1 0x5 DUP5 ADD SSTORE PUSH1 0xC0 DUP5 ADD MLOAD PUSH1 0x6 DUP5 ADD DUP1 SLOAD SWAP2 SWAP4 SWAP1 SWAP3 PUSH1 0xFF NOT SWAP1 SWAP3 AND SWAP2 DUP5 SWAP1 DUP2 GT ISZERO PUSH2 0xD2E JUMPI INVALID JUMPDEST MUL OR SWAP1 SSTORE POP POP POP POP DUP2 PUSH1 0x1 PUSH1 0x1 PUSH1 0xA0 SHL SUB AND PUSH32 0xDE0E5567D8D6D630907264BDAC08CD46C86E8D6A570E0321DE2CA45C49F1A2A5 DUP7 PUSH1 0x40 MLOAD PUSH2 0xD6F SWAP2 SWAP1 PUSH2 0x2D3F JUMP JUMPDEST PUSH1 0x40 MLOAD DUP1 SWAP2 SUB SWAP1 LOG2 POP POP POP POP POP JUMP JUMPDEST PUSH1 0x1 PUSH1 0x40 MLOAD PUSH1 0x1 PUSH1 0x1 PUSH1 0xA0 SHL SUB DUP4 AND SWAP1 PUSH32 0x7420B8B978434D1CE66C980FF580761F988DFCA7B96378123D4717285774382C SWAP1 PUSH1 0x0 SWAP1 LOG2 JUMPDEST PUSH1 0x1 PUSH1 0x1 PUSH1 0xA0 SHL SUB SWAP2 SWAP1 SWAP2 AND PUSH1 0x0 SWAP1 DUP2 MSTORE PUSH1 0x1 PUSH1 0x20 MSTORE PUSH1 0x40 SWAP1 KECCAK256 DUP1 SLOAD PUSH4 0xFFFFFFFF NOT AND PUSH4 0xFFFFFFFF SWAP1 SWAP3 AND SWAP2 SWAP1 SWAP2 OR SWAP1 SSTORE JUMP JUMPDEST TIMESTAMP PUSH1 0x0 JUMPDEST PUSH1 0x8 SLOAD DUP2 LT ISZERO PUSH2 0x1260 JUMPI DUP3 PUSH1 0x8 DUP3 DUP2 SLOAD DUP2 LT PUSH2 0xE04 JUMPI INVALID JUMPDEST SWAP1 PUSH1 0x0 MSTORE PUSH1 0x20 PUSH1 0x0 KECCAK256 SWAP1 PUSH1 0x8 MUL ADD PUSH1 0x5 ADD SLOAD EQ DUP1 ISZERO PUSH2 0xE40 JUMPI POP DUP2 PUSH1 0x8 DUP3 DUP2 SLOAD DUP2 LT PUSH2 0xE2C JUMPI INVALID JUMPDEST SWAP1 PUSH1 0x0 MSTORE PUSH1 0x20 PUSH1 0x0 KECCAK256 SWAP1 PUSH1 0x8 MUL ADD PUSH1 0x4 ADD SLOAD LT JUMPDEST ISZERO PUSH2 0x1258 JUMPI PUSH1 0x3 PUSH1 0x8 DUP3 DUP2 SLOAD DUP2 LT PUSH2 0xE54 JUMPI INVALID JUMPDEST PUSH1 0x0 SWAP2 DUP3 MSTORE PUSH1 0x20 SWAP1 SWAP2 KECCAK256 PUSH1 0x7 PUSH1 0x8 SWAP1 SWAP3 MUL ADD ADD DUP1 SLOAD PUSH1 0xFF NOT AND PUSH1 0x1 DUP4 PUSH1 0x3 DUP2 GT ISZERO PUSH2 0xE7B JUMPI INVALID JUMPDEST MUL OR SWAP1 SSTORE POP PUSH1 0x6 PUSH1 0x40 MLOAD DUP1 PUSH1 0xE0 ADD PUSH1 0x40 MSTORE DUP1 PUSH1 0x8 DUP5 DUP2 SLOAD DUP2 LT PUSH2 0xE9A JUMPI INVALID JUMPDEST PUSH1 0x0 SWAP2 DUP3 MSTORE PUSH1 0x20 SWAP2 DUP3 SWAP1 KECCAK256 PUSH1 0x8 SWAP2 DUP3 MUL ADD SLOAD PUSH1 0x1 PUSH1 0x1 PUSH1 0xA0 SHL SUB AND DUP4 MSTORE DUP1 SLOAD SWAP3 SWAP1 SWAP2 ADD SWAP2 DUP6 SWAP1 DUP2 LT PUSH2 0xEC8 JUMPI INVALID JUMPDEST SWAP1 PUSH1 0x0 MSTORE PUSH1 0x20 PUSH1 0x0 KECCAK256 SWAP1 PUSH1 0x8 MUL ADD PUSH1 0x1 ADD PUSH1 0x0 SWAP1 SLOAD SWAP1 PUSH2 0x100 EXP SWAP1 DIV PUSH1 0x1 PUSH1 0x1 PUSH1 0xA0 SHL SUB AND PUSH1 0x1 PUSH1 0x1 PUSH1 0xA0 SHL SUB AND DUP2 MSTORE PUSH1 0x20 ADD PUSH1 0x8 DUP5 DUP2 SLOAD DUP2 LT PUSH2 0xF08 JUMPI INVALID JUMPDEST SWAP1 PUSH1 0x0 MSTORE PUSH1 0x20 PUSH1 0x0 KECCAK256 SWAP1 PUSH1 0x8 MUL ADD PUSH1 0x2 ADD SLOAD DUP2 MSTORE PUSH1 0x20 ADD PUSH1 0x8 DUP5 DUP2 SLOAD DUP2 LT PUSH2 0xF2C JUMPI INVALID JUMPDEST SWAP1 PUSH1 0x0 MSTORE PUSH1 0x20 PUSH1 0x0 KECCAK256 SWAP1 PUSH1 0x8 MUL ADD PUSH1 0x3 ADD SLOAD DUP2 MSTORE PUSH1 0x20 ADD PUSH1 0x8 DUP5 DUP2 SLOAD DUP2 LT PUSH2 0xF50 JUMPI INVALID JUMPDEST SWAP1 PUSH1 0x0 MSTORE PUSH1 0x20 PUSH1 0x0 KECCAK256 SWAP1 PUSH1 0x8 MUL ADD PUSH1 0x4 ADD SLOAD DUP2 MSTORE PUSH1 0x20 ADD PUSH1 0x8 DUP5 DUP2 SLOAD DUP2 LT PUSH2 0xF74 JUMPI INVALID JUMPDEST PUSH1 0x0 SWAP2 DUP3 MSTORE PUSH1 0x20 SWAP2 DUP3 SWAP1 KECCAK256 PUSH1 0x5 PUSH1 0x8 SWAP1 SWAP3 MUL ADD ADD SLOAD DUP3 MSTORE ADD PUSH1 0x3 SWAP1 MSTORE DUP2 SLOAD PUSH1 0x1 DUP1 DUP3 ADD DUP1 DUP6 SSTORE PUSH1 0x0 SWAP5 DUP6 MSTORE PUSH1 0x20 SWAP5 DUP6 SWAP1 KECCAK256 DUP5 MLOAD PUSH1 0x7 SWAP1 SWAP5 MUL ADD DUP1 SLOAD PUSH1 0x1 PUSH1 0x1 PUSH1 0xA0 SHL SUB NOT SWAP1 DUP2 AND PUSH1 0x1 PUSH1 0x1 PUSH1 0xA0 SHL SUB SWAP6 DUP7 AND OR DUP3 SSTORE SWAP6 DUP6 ADD MLOAD DUP2 DUP5 ADD DUP1 SLOAD SWAP1 SWAP8 AND SWAP5 AND SWAP4 SWAP1 SWAP4 OR SWAP1 SWAP5 SSTORE PUSH1 0x40 DUP4 ADD MLOAD PUSH1 0x2 DUP4 ADD SSTORE PUSH1 0x60 DUP4 ADD MLOAD PUSH1 0x3 DUP1 DUP5 ADD SWAP2 SWAP1 SWAP2 SSTORE PUSH1 0x80 DUP5 ADD MLOAD PUSH1 0x4 DUP5 ADD SSTORE PUSH1 0xA0 DUP5 ADD MLOAD PUSH1 0x5 DUP5 ADD SSTORE PUSH1 0xC0 DUP5 ADD MLOAD PUSH1 0x6 DUP5 ADD DUP1 SLOAD SWAP2 SWAP4 SWAP1 SWAP3 PUSH1 0xFF NOT SWAP1 SWAP3 AND SWAP2 DUP5 SWAP1 DUP2 GT ISZERO PUSH2 0x102B JUMPI INVALID JUMPDEST MUL OR SWAP1 SSTORE POP POP POP POP PUSH2 0x1062 PUSH1 0x8 DUP3 DUP2 SLOAD DUP2 LT PUSH2 0x1043 JUMPI INVALID JUMPDEST PUSH1 0x0 SWAP2 DUP3 MSTORE PUSH1 0x20 SWAP1 SWAP2 KECCAK256 PUSH1 0x8 SWAP1 SWAP2 MUL ADD SLOAD PUSH1 0x1 PUSH1 0x1 PUSH1 0xA0 SHL SUB AND PUSH2 0x24BD JUMP JUMPDEST PUSH1 0x8 DUP2 DUP2 SLOAD DUP2 LT PUSH2 0x106F JUMPI INVALID JUMPDEST PUSH1 0x0 SWAP2 DUP3 MSTORE PUSH1 0x20 SWAP1 SWAP2 KECCAK256 PUSH1 0x8 SWAP2 DUP3 MUL ADD SLOAD DUP2 SLOAD PUSH1 0x1 PUSH1 0x1 PUSH1 0xA0 SHL SUB SWAP1 SWAP2 AND SWAP2 SWAP1 DUP4 SWAP1 DUP2 LT PUSH2 0x1099 JUMPI INVALID JUMPDEST SWAP1 PUSH1 0x0 MSTORE PUSH1 0x20 PUSH1 0x0 KECCAK256 SWAP1 PUSH1 0x8 MUL ADD PUSH1 0x1 ADD PUSH1 0x0 SWAP1 SLOAD SWAP1 PUSH2 0x100 EXP SWAP1 DIV PUSH1 0x1 PUSH1 0x1 PUSH1 0xA0 SHL SUB AND PUSH1 0x1 PUSH1 0x1 PUSH1 0xA0 SHL SUB AND PUSH32 0xC3384A2DAEF78F9743D45A2F054A32D11EE7EF405DE6FD4724EC6F77BA049F78 PUSH1 0x8 DUP5 DUP2 SLOAD DUP2 LT PUSH2 0x10F5 JUMPI INVALID JUMPDEST SWAP1 PUSH1 0x0 MSTORE PUSH1 0x20 PUSH1 0x0 KECCAK256 SWAP1 PUSH1 0x8 MUL ADD PUSH1 0x3 ADD SLOAD PUSH1 0x8 DUP6 DUP2 SLOAD DUP2 LT PUSH2 0x1114 JUMPI INVALID JUMPDEST SWAP1 PUSH1 0x0 MSTORE PUSH1 0x20 PUSH1 0x0 KECCAK256 SWAP1 PUSH1 0x8 MUL ADD PUSH1 0x4 ADD SLOAD PUSH1 0x8 DUP7 DUP2 SLOAD DUP2 LT PUSH2 0x1133 JUMPI INVALID JUMPDEST PUSH1 0x0 SWAP2 DUP3 MSTORE PUSH1 0x20 SWAP1 SWAP2 KECCAK256 PUSH1 0x7 PUSH1 0x8 SWAP1 SWAP3 MUL ADD ADD SLOAD PUSH1 0x40 MLOAD PUSH2 0x1159 SWAP4 SWAP3 SWAP2 PUSH1 0xFF AND SWAP1 PUSH2 0x2D4D JUMP JUMPDEST PUSH1 0x40 MLOAD DUP1 SWAP2 SUB SWAP1 LOG3 PUSH1 0x8 SLOAD PUSH1 0x1 LT ISZERO PUSH2 0x123F JUMPI PUSH1 0x8 DUP1 SLOAD PUSH1 0x0 NOT DUP2 ADD SWAP1 DUP2 LT PUSH2 0x117E JUMPI INVALID JUMPDEST SWAP1 PUSH1 0x0 MSTORE PUSH1 0x20 PUSH1 0x0 KECCAK256 SWAP1 PUSH1 0x8 MUL ADD PUSH1 0x8 DUP3 DUP2 SLOAD DUP2 LT PUSH2 0x1199 JUMPI INVALID JUMPDEST PUSH1 0x0 SWAP2 DUP3 MSTORE PUSH1 0x20 SWAP1 SWAP2 KECCAK256 DUP3 SLOAD PUSH1 0x8 SWAP1 SWAP3 MUL ADD DUP1 SLOAD PUSH1 0x1 PUSH1 0x1 PUSH1 0xA0 SHL SUB NOT SWAP1 DUP2 AND PUSH1 0x1 PUSH1 0x1 PUSH1 0xA0 SHL SUB SWAP4 DUP5 AND OR DUP3 SSTORE PUSH1 0x1 DUP1 DUP6 ADD SLOAD DUP2 DUP5 ADD DUP1 SLOAD SWAP1 SWAP4 AND SWAP5 AND SWAP4 SWAP1 SWAP4 OR SWAP1 SSTORE PUSH1 0x2 DUP1 DUP5 ADD SLOAD SWAP1 DUP3 ADD SSTORE PUSH1 0x3 DUP1 DUP5 ADD SLOAD DUP2 DUP4 ADD SSTORE PUSH1 0x4 DUP1 DUP6 ADD SLOAD SWAP1 DUP4 ADD SSTORE PUSH1 0x5 DUP1 DUP6 ADD SLOAD SWAP1 DUP4 ADD SSTORE PUSH1 0x6 DUP1 DUP6 ADD SLOAD SWAP1 DUP4 ADD SSTORE PUSH1 0x7 DUP1 DUP6 ADD SLOAD SWAP1 DUP4 ADD DUP1 SLOAD SWAP4 SWAP5 PUSH1 0xFF SWAP1 SWAP3 AND SWAP4 SWAP1 SWAP3 PUSH1 0xFF NOT SWAP1 SWAP2 AND SWAP2 SWAP1 DUP5 SWAP1 DUP2 GT ISZERO PUSH2 0x1237 JUMPI INVALID JUMPDEST MUL OR SWAP1 SSTORE POP POP POP JUMPDEST PUSH1 0x8 DUP1 SLOAD SWAP1 PUSH2 0x1252 SWAP1 PUSH1 0x0 NOT DUP4 ADD PUSH2 0x2501 JUMP JUMPDEST POP PUSH2 0x1260 JUMP JUMPDEST PUSH1 0x1 ADD PUSH2 0xDEC JUMP JUMPDEST POP POP POP JUMP JUMPDEST PUSH1 0x60 PUSH1 0xB DUP1 SLOAD DUP1 PUSH1 0x20 MUL PUSH1 0x20 ADD PUSH1 0x40 MLOAD SWAP1 DUP2 ADD PUSH1 0x40 MSTORE DUP1 SWAP3 SWAP2 SWAP1 DUP2 DUP2 MSTORE PUSH1 0x20 ADD PUSH1 0x0 SWAP1 DUP3 DUP3 LT ISZERO PUSH2 0x597 JUMPI PUSH1 0x0 DUP5 DUP2 MSTORE PUSH1 0x20 SWAP1 DUP2 SWAP1 KECCAK256 PUSH1 0x40 DUP1 MLOAD PUSH1 0xA0 DUP2 ADD DUP3 MSTORE PUSH1 0x5 DUP7 MUL SWAP1 SWAP3 ADD DUP1 SLOAD PUSH1 0x1 PUSH1 0x1 PUSH1 0xA0 SHL SUB SWAP1 DUP2 AND DUP5 MSTORE PUSH1 0x1 DUP1 DUP4 ADD SLOAD SWAP1 SWAP2 AND DUP5 DUP7 ADD MSTORE PUSH1 0x2 DUP3 ADD SLOAD SWAP3 DUP5 ADD SWAP3 SWAP1 SWAP3 MSTORE PUSH1 0x3 DUP2 ADD SLOAD PUSH1 0x60 DUP5 ADD MSTORE PUSH1 0x4 ADD SLOAD PUSH1 0x80 DUP4 ADD MSTORE SWAP1 DUP4 MSTORE SWAP1 SWAP3 ADD SWAP2 ADD PUSH2 0xB6D JUMP JUMPDEST PUSH1 0x40 MLOAD CALLER SWAP1 DUP2 SWAP1 PUSH32 0x769268709E630D5B24D4C651ADEAE2D7A75C3DD7C3876275233E21570BE22FD4 SWAP1 PUSH1 0x0 SWAP1 LOG2 PUSH1 0x1 PUSH1 0x1 PUSH1 0xA0 SHL SUB AND PUSH1 0x0 SWAP1 DUP2 MSTORE PUSH1 0x20 DUP2 SWAP1 MSTORE PUSH1 0x40 SWAP1 KECCAK256 DUP1 SLOAD PUSH1 0xFF NOT AND PUSH1 0x1 OR SWAP1 SSTORE JUMP JUMPDEST PUSH1 0x60 PUSH1 0x6 DUP1 SLOAD DUP1 PUSH1 0x20 MUL PUSH1 0x20 ADD PUSH1 0x40 MLOAD SWAP1 DUP2 ADD PUSH1 0x40 MSTORE DUP1 SWAP3 SWAP2 SWAP1 DUP2 DUP2 MSTORE PUSH1 0x20 ADD PUSH1 0x0 SWAP1 JUMPDEST DUP3 DUP3 LT ISZERO PUSH2 0x597 JUMPI PUSH1 0x0 DUP5 DUP2 MSTORE PUSH1 0x20 SWAP1 DUP2 SWAP1 KECCAK256 PUSH1 0x40 DUP1 MLOAD PUSH1 0xE0 DUP2 ADD DUP3 MSTORE PUSH1 0x7 DUP7 MUL SWAP1 SWAP3 ADD DUP1 SLOAD PUSH1 0x1 PUSH1 0x1 PUSH1 0xA0 SHL SUB SWAP1 DUP2 AND DUP5 MSTORE PUSH1 0x1 DUP3 ADD SLOAD AND SWAP4 DUP4 ADD SWAP4 SWAP1 SWAP4 MSTORE PUSH1 0x2 DUP4 ADD SLOAD SWAP1 DUP3 ADD MSTORE PUSH1 0x3 DUP1 DUP4 ADD SLOAD PUSH1 0x60 DUP4 ADD MSTORE PUSH1 0x4 DUP4 ADD SLOAD PUSH1 0x80 DUP4 ADD MSTORE PUSH1 0x5 DUP4 ADD SLOAD PUSH1 0xA0 DUP4 ADD MSTORE PUSH1 0x6 DUP4 ADD SLOAD SWAP2 SWAP3 SWAP2 PUSH1 0xC0 DUP5 ADD SWAP2 PUSH1 0xFF SWAP1 SWAP2 AND SWAP1 DUP2 GT ISZERO PUSH2 0x13ED JUMPI INVALID JUMPDEST PUSH1 0x3 DUP2 GT ISZERO PUSH2 0x13F8 JUMPI INVALID JUMPDEST DUP2 MSTORE POP POP DUP2 MSTORE PUSH1 0x20 ADD SWAP1 PUSH1 0x1 ADD SWAP1 PUSH2 0x1369 JUMP JUMPDEST PUSH1 0x0 CALLER DUP2 JUMPDEST PUSH1 0x6 SLOAD DUP2 LT ISZERO PUSH2 0x1260 JUMPI DUP2 PUSH1 0x1 PUSH1 0x1 PUSH1 0xA0 SHL SUB AND PUSH1 0x6 DUP3 DUP2 SLOAD DUP2 LT PUSH2 0x1431 JUMPI INVALID JUMPDEST PUSH1 0x0 SWAP2 DUP3 MSTORE PUSH1 0x20 SWAP1 SWAP2 KECCAK256 PUSH1 0x1 PUSH1 0x7 SWAP1 SWAP3 MUL ADD ADD SLOAD PUSH1 0x1 PUSH1 0x1 PUSH1 0xA0 SHL SUB AND EQ ISZERO PUSH2 0x146C JUMPI PUSH1 0x40 MLOAD PUSH3 0x461BCD PUSH1 0xE5 SHL DUP2 MSTORE PUSH1 0x4 ADD PUSH2 0x2AD SWAP1 PUSH2 0x2D1F JUMP JUMPDEST PUSH1 0x2 PUSH1 0x6 DUP3 DUP2 SLOAD DUP2 LT PUSH2 0x147B JUMPI INVALID JUMPDEST PUSH1 0x0 SWAP2 DUP3 MSTORE PUSH1 0x20 SWAP1 SWAP2 KECCAK256 PUSH1 0x6 PUSH1 0x7 SWAP1 SWAP3 MUL ADD ADD SLOAD PUSH1 0xFF AND PUSH1 0x3 DUP2 GT ISZERO PUSH2 0x149D JUMPI INVALID JUMPDEST EQ ISZERO PUSH2 0x14BB JUMPI PUSH1 0x40 MLOAD PUSH3 0x461BCD PUSH1 0xE5 SHL DUP2 MSTORE PUSH1 0x4 ADD PUSH2 0x2AD SWAP1 PUSH2 0x2CCF JUMP JUMPDEST PUSH1 0x0 PUSH1 0x6 DUP3 DUP2 SLOAD DUP2 LT PUSH2 0x14CA JUMPI INVALID JUMPDEST PUSH1 0x0 SWAP2 DUP3 MSTORE PUSH1 0x20 SWAP1 SWAP2 KECCAK256 PUSH1 0x6 PUSH1 0x7 SWAP1 SWAP3 MUL ADD ADD SLOAD PUSH1 0xFF AND PUSH1 0x3 DUP2 GT ISZERO PUSH2 0x14EC JUMPI INVALID JUMPDEST EQ ISZERO PUSH2 0x1834 JUMPI PUSH1 0x8 PUSH1 0x40 MLOAD DUP1 PUSH2 0x100 ADD PUSH1 0x40 MSTORE DUP1 DUP5 PUSH1 0x1 PUSH1 0x1 PUSH1 0xA0 SHL SUB AND DUP2 MSTORE PUSH1 0x20 ADD PUSH1 0x6 DUP5 DUP2 SLOAD DUP2 LT PUSH2 0x151C JUMPI INVALID JUMPDEST PUSH1 0x0 SWAP2 DUP3 MSTORE PUSH1 0x20 SWAP2 DUP3 SWAP1 KECCAK256 PUSH1 0x1 PUSH1 0x7 SWAP1 SWAP3 MUL ADD ADD SLOAD PUSH1 0x1 PUSH1 0x1 PUSH1 0xA0 SHL SUB AND DUP3 MSTORE PUSH1 0x6 DUP1 SLOAD SWAP3 SWAP1 SWAP2 ADD SWAP2 DUP6 SWAP1 DUP2 LT PUSH2 0x154F JUMPI INVALID JUMPDEST SWAP1 PUSH1 0x0 MSTORE PUSH1 0x20 PUSH1 0x0 KECCAK256 SWAP1 PUSH1 0x7 MUL ADD PUSH1 0x2 ADD SLOAD DUP2 MSTORE PUSH1 0x20 ADD PUSH1 0x6 DUP5 DUP2 SLOAD DUP2 LT PUSH2 0x1573 JUMPI INVALID JUMPDEST SWAP1 PUSH1 0x0 MSTORE PUSH1 0x20 PUSH1 0x0 KECCAK256 SWAP1 PUSH1 0x7 MUL ADD PUSH1 0x3 ADD SLOAD DUP2 MSTORE PUSH1 0x20 ADD PUSH1 0x6 DUP5 DUP2 SLOAD DUP2 LT PUSH2 0x1597 JUMPI INVALID JUMPDEST SWAP1 PUSH1 0x0 MSTORE PUSH1 0x20 PUSH1 0x0 KECCAK256 SWAP1 PUSH1 0x7 MUL ADD PUSH1 0x4 ADD SLOAD DUP2 MSTORE PUSH1 0x20 ADD PUSH1 0x6 DUP5 DUP2 SLOAD DUP2 LT PUSH2 0x15BB JUMPI INVALID JUMPDEST SWAP1 PUSH1 0x0 MSTORE PUSH1 0x20 PUSH1 0x0 KECCAK256 SWAP1 PUSH1 0x7 MUL ADD PUSH1 0x5 ADD SLOAD DUP2 MSTORE PUSH1 0x20 ADD DUP6 DUP2 MSTORE PUSH1 0x20 ADD PUSH1 0x1 PUSH1 0x3 DUP2 GT ISZERO PUSH2 0x15E5 JUMPI INVALID JUMPDEST SWAP1 MSTORE DUP2 SLOAD PUSH1 0x1 DUP1 DUP3 ADD DUP1 DUP6 SSTORE PUSH1 0x0 SWAP5 DUP6 MSTORE PUSH1 0x20 SWAP5 DUP6 SWAP1 KECCAK256 DUP5 MLOAD PUSH1 0x8 SWAP1 SWAP5 MUL ADD DUP1 SLOAD PUSH1 0x1 PUSH1 0x1 PUSH1 0xA0 SHL SUB NOT SWAP1 DUP2 AND PUSH1 0x1 PUSH1 0x1 PUSH1 0xA0 SHL SUB SWAP6 DUP7 AND OR DUP3 SSTORE SWAP6 DUP6 ADD MLOAD DUP2 DUP5 ADD DUP1 SLOAD SWAP1 SWAP8 AND SWAP5 AND SWAP4 SWAP1 SWAP4 OR SWAP1 SWAP5 SSTORE PUSH1 0x40 DUP4 ADD MLOAD PUSH1 0x2 DUP4 ADD SSTORE PUSH1 0x60 DUP4 ADD MLOAD PUSH1 0x3 DUP1 DUP5 ADD SWAP2 SWAP1 SWAP2 SSTORE PUSH1 0x80 DUP5 ADD MLOAD PUSH1 0x4 DUP5 ADD SSTORE PUSH1 0xA0 DUP5 ADD MLOAD PUSH1 0x5 DUP5 ADD SSTORE PUSH1 0xC0 DUP5 ADD MLOAD PUSH1 0x6 DUP5 ADD SSTORE PUSH1 0xE0 DUP5 ADD MLOAD PUSH1 0x7 DUP5 ADD DUP1 SLOAD SWAP2 SWAP4 SWAP1 SWAP3 PUSH1 0xFF NOT SWAP1 SWAP3 AND SWAP2 DUP5 SWAP1 DUP2 GT ISZERO PUSH2 0x168C JUMPI INVALID JUMPDEST MUL OR SWAP1 SSTORE POP POP POP POP PUSH2 0x169D DUP3 PUSH2 0xD7E JUMP JUMPDEST PUSH1 0x6 DUP2 DUP2 SLOAD DUP2 LT PUSH2 0x16AA JUMPI INVALID JUMPDEST PUSH1 0x0 SWAP2 DUP3 MSTORE PUSH1 0x20 SWAP1 SWAP2 KECCAK256 PUSH1 0x1 PUSH1 0x7 SWAP1 SWAP3 MUL ADD ADD SLOAD PUSH1 0x6 DUP1 SLOAD PUSH1 0x1 PUSH1 0x1 PUSH1 0xA0 SHL SUB SWAP1 SWAP3 AND SWAP2 DUP4 SWAP1 DUP2 LT PUSH2 0x16D8 JUMPI INVALID JUMPDEST PUSH1 0x0 SWAP2 DUP3 MSTORE PUSH1 0x20 SWAP1 SWAP2 KECCAK256 PUSH1 0x7 SWAP1 SWAP2 MUL ADD SLOAD PUSH1 0x6 DUP1 SLOAD PUSH1 0x1 PUSH1 0x1 PUSH1 0xA0 SHL SUB SWAP1 SWAP3 AND SWAP2 PUSH32 0x5E51FBD7F7E38EE6927FB25D7E32916C08F102ECE1D3D65DF27EC76E3A43C3A7 SWAP2 SWAP1 DUP6 SWAP1 DUP2 LT PUSH2 0x1726 JUMPI INVALID JUMPDEST SWAP1 PUSH1 0x0 MSTORE PUSH1 0x20 PUSH1 0x0 KECCAK256 SWAP1 PUSH1 0x7 MUL ADD PUSH1 0x5 ADD SLOAD PUSH1 0x40 MLOAD PUSH2 0x1745 SWAP2 SWAP1 PUSH2 0x2D3F JUMP JUMPDEST PUSH1 0x40 MLOAD DUP1 SWAP2 SUB SWAP1 LOG3 PUSH1 0x6 SLOAD PUSH1 0x1 LT ISZERO PUSH2 0x1821 JUMPI PUSH1 0x6 DUP1 SLOAD PUSH1 0x0 NOT DUP2 ADD SWAP1 DUP2 LT PUSH2 0x176A JUMPI INVALID JUMPDEST SWAP1 PUSH1 0x0 MSTORE PUSH1 0x20 PUSH1 0x0 KECCAK256 SWAP1 PUSH1 0x7 MUL ADD PUSH1 0x6 DUP3 DUP2 SLOAD DUP2 LT PUSH2 0x1785 JUMPI INVALID JUMPDEST PUSH1 0x0 SWAP2 DUP3 MSTORE PUSH1 0x20 SWAP1 SWAP2 KECCAK256 DUP3 SLOAD PUSH1 0x7 SWAP1 SWAP3 MUL ADD DUP1 SLOAD PUSH1 0x1 PUSH1 0x1 PUSH1 0xA0 SHL SUB NOT SWAP1 DUP2 AND PUSH1 0x1 PUSH1 0x1 PUSH1 0xA0 SHL SUB SWAP4 DUP5 AND OR DUP3 SSTORE PUSH1 0x1 DUP1 DUP6 ADD SLOAD DUP2 DUP5 ADD DUP1 SLOAD SWAP1 SWAP4 AND SWAP5 AND SWAP4 SWAP1 SWAP4 OR SWAP1 SSTORE PUSH1 0x2 DUP1 DUP5 ADD SLOAD SWAP1 DUP3 ADD SSTORE PUSH1 0x3 DUP1 DUP5 ADD SLOAD DUP2 DUP4 ADD SSTORE PUSH1 0x4 DUP1 DUP6 ADD SLOAD SWAP1 DUP4 ADD SSTORE PUSH1 0x5 DUP1 DUP6 ADD SLOAD SWAP1 DUP4 ADD SSTORE PUSH1 0x6 DUP1 DUP6 ADD SLOAD SWAP1 DUP4 ADD DUP1 SLOAD SWAP4 SWAP5 PUSH1 0xFF SWAP1 SWAP3 AND SWAP4 SWAP1 SWAP3 PUSH1 0xFF NOT SWAP1 SWAP2 AND SWAP2 SWAP1 DUP5 SWAP1 DUP2 GT ISZERO PUSH2 0x1819 JUMPI INVALID JUMPDEST MUL OR SWAP1 SSTORE POP POP POP JUMPDEST PUSH1 0x6 DUP1 SLOAD SWAP1 PUSH2 0x1252 SWAP1 PUSH1 0x0 NOT DUP4 ADD PUSH2 0x252D JUMP JUMPDEST PUSH1 0x1 ADD PUSH2 0x1410 JUMP JUMPDEST PUSH1 0x40 MLOAD CALLER SWAP1 DUP2 SWAP1 PUSH32 0xBB6D68F109745F7AE353E3B90FFF6FB8245C34CCA44F18D9DFA00E4D705FA64 SWAP1 PUSH1 0x0 SWAP1 LOG2 PUSH1 0x1 PUSH1 0x1 PUSH1 0xA0 SHL SUB AND PUSH1 0x0 SWAP1 DUP2 MSTORE PUSH1 0x20 DUP2 SWAP1 MSTORE PUSH1 0x40 SWAP1 KECCAK256 DUP1 SLOAD PUSH1 0xFF NOT AND SWAP1 SSTORE JUMP JUMPDEST CALLER PUSH1 0x0 SWAP1 DUP2 MSTORE PUSH1 0x1 PUSH1 0x20 MSTORE PUSH1 0x40 SWAP1 KECCAK256 SLOAD PUSH4 0xFFFFFFFF AND PUSH2 0x18BC JUMPI PUSH1 0x40 MLOAD PUSH3 0x461BCD PUSH1 0xE5 SHL DUP2 MSTORE PUSH1 0x4 ADD PUSH2 0x2AD SWAP1 PUSH2 0x2CDF JUMP JUMPDEST TIMESTAMP CALLER PUSH1 0x0 JUMPDEST PUSH1 0x8 SLOAD DUP2 LT ISZERO PUSH2 0x1C55 JUMPI PUSH1 0x0 JUMPDEST PUSH1 0xA SLOAD DUP2 LT ISZERO PUSH2 0x1C4C JUMPI PUSH1 0x0 DUP1 SWAP1 POP PUSH1 0xA DUP3 DUP2 SLOAD DUP2 LT PUSH2 0x18EA JUMPI INVALID JUMPDEST PUSH1 0x0 SWAP2 DUP3 MSTORE PUSH1 0x20 SWAP1 SWAP2 KECCAK256 PUSH1 0x5 SWAP1 SWAP2 MUL ADD SLOAD PUSH1 0x8 DUP1 SLOAD PUSH1 0x1 PUSH1 0x1 PUSH1 0xA0 SHL SUB SWAP1 SWAP3 AND SWAP2 DUP6 SWAP1 DUP2 LT PUSH2 0x1915 JUMPI INVALID JUMPDEST PUSH1 0x0 SWAP2 DUP3 MSTORE PUSH1 0x20 SWAP1 SWAP2 KECCAK256 PUSH1 0x1 PUSH1 0x8 SWAP1 SWAP3 MUL ADD ADD SLOAD PUSH1 0x1 PUSH1 0x1 PUSH1 0xA0 SHL SUB AND EQ DUP1 ISZERO PUSH2 0x195C JUMPI POP DUP6 PUSH1 0x8 DUP5 DUP2 SLOAD DUP2 LT PUSH2 0x1948 JUMPI INVALID JUMPDEST SWAP1 PUSH1 0x0 MSTORE PUSH1 0x20 PUSH1 0x0 KECCAK256 SWAP1 PUSH1 0x8 MUL ADD PUSH1 0x5 ADD SLOAD EQ JUMPDEST DUP1 ISZERO PUSH2 0x19A3 JUMPI POP PUSH1 0xA DUP3 DUP2 SLOAD DUP2 LT PUSH2 0x1970 JUMPI INVALID JUMPDEST SWAP1 PUSH1 0x0 MSTORE PUSH1 0x20 PUSH1 0x0 KECCAK256 SWAP1 PUSH1 0x5 MUL ADD PUSH1 0x4 ADD SLOAD PUSH1 0x8 DUP5 DUP2 SLOAD DUP2 LT PUSH2 0x198F JUMPI INVALID JUMPDEST SWAP1 PUSH1 0x0 MSTORE PUSH1 0x20 PUSH1 0x0 KECCAK256 SWAP1 PUSH1 0x8 MUL ADD PUSH1 0x5 ADD SLOAD EQ JUMPDEST ISZERO PUSH2 0x1B69 JUMPI DUP5 PUSH1 0x8 DUP5 DUP2 SLOAD DUP2 LT PUSH2 0x19B6 JUMPI INVALID JUMPDEST SWAP1 PUSH1 0x0 MSTORE PUSH1 0x20 PUSH1 0x0 KECCAK256 SWAP1 PUSH1 0x8 MUL ADD PUSH1 0x3 ADD SLOAD GT ISZERO PUSH2 0x19E6 JUMPI PUSH1 0x40 MLOAD PUSH3 0x461BCD PUSH1 0xE5 SHL DUP2 MSTORE PUSH1 0x4 ADD PUSH2 0x2AD SWAP1 PUSH2 0x2CBF JUMP JUMPDEST DUP5 PUSH1 0x8 DUP5 DUP2 SLOAD DUP2 LT PUSH2 0x19F4 JUMPI INVALID JUMPDEST SWAP1 PUSH1 0x0 MSTORE PUSH1 0x20 PUSH1 0x0 KECCAK256 SWAP1 PUSH1 0x8 MUL ADD PUSH1 0x4 ADD SLOAD LT ISZERO PUSH2 0x1A24 JUMPI PUSH1 0x40 MLOAD PUSH3 0x461BCD PUSH1 0xE5 SHL DUP2 MSTORE PUSH1 0x4 ADD PUSH2 0x2AD SWAP1 PUSH2 0x2CEF JUMP JUMPDEST PUSH1 0xA DUP3 DUP2 SLOAD DUP2 LT PUSH2 0x1A31 JUMPI INVALID JUMPDEST SWAP1 PUSH1 0x0 MSTORE PUSH1 0x20 PUSH1 0x0 KECCAK256 SWAP1 PUSH1 0x5 MUL ADD PUSH1 0x3 ADD SLOAD SWAP1 POP DUP1 PUSH1 0x8 DUP5 DUP2 SLOAD DUP2 LT PUSH2 0x1A53 JUMPI INVALID JUMPDEST SWAP1 PUSH1 0x0 MSTORE PUSH1 0x20 PUSH1 0x0 KECCAK256 SWAP1 PUSH1 0x8 MUL ADD PUSH1 0x6 ADD SLOAD ADD PUSH1 0x8 DUP5 DUP2 SLOAD DUP2 LT PUSH2 0x1A73 JUMPI INVALID JUMPDEST SWAP1 PUSH1 0x0 MSTORE PUSH1 0x20 PUSH1 0x0 KECCAK256 SWAP1 PUSH1 0x8 MUL ADD PUSH1 0x6 ADD DUP2 SWAP1 SSTORE POP PUSH1 0x0 PUSH1 0xA DUP4 DUP2 SLOAD DUP2 LT PUSH2 0x1A97 JUMPI INVALID JUMPDEST SWAP1 PUSH1 0x0 MSTORE PUSH1 0x20 PUSH1 0x0 KECCAK256 SWAP1 PUSH1 0x5 MUL ADD PUSH1 0x3 ADD DUP2 SWAP1 SSTORE POP PUSH1 0xB PUSH1 0x40 MLOAD DUP1 PUSH1 0xA0 ADD PUSH1 0x40 MSTORE DUP1 DUP7 PUSH1 0x1 PUSH1 0x1 PUSH1 0xA0 SHL SUB AND DUP2 MSTORE PUSH1 0x20 ADD PUSH1 0xA DUP6 DUP2 SLOAD DUP2 LT PUSH2 0x1AD5 JUMPI INVALID JUMPDEST PUSH1 0x0 SWAP2 DUP3 MSTORE PUSH1 0x20 DUP1 DUP4 KECCAK256 PUSH1 0x5 SWAP3 DUP4 MUL ADD SLOAD PUSH1 0x1 PUSH1 0x1 PUSH1 0xA0 SHL SUB SWAP1 DUP2 AND DUP6 MSTORE DUP5 DUP3 ADD DUP13 SWAP1 MSTORE PUSH1 0x40 DUP1 DUP7 ADD DUP15 SWAP1 MSTORE PUSH1 0x60 SWAP6 DUP7 ADD DUP10 SWAP1 MSTORE DUP8 SLOAD PUSH1 0x1 DUP2 DUP2 ADD DUP11 SSTORE SWAP9 DUP7 MSTORE SWAP5 DUP4 SWAP1 KECCAK256 DUP8 MLOAD SWAP6 SWAP1 SWAP5 MUL SWAP1 SWAP4 ADD DUP1 SLOAD SWAP5 DUP3 AND PUSH1 0x1 PUSH1 0x1 PUSH1 0xA0 SHL SUB NOT SWAP6 DUP7 AND OR DUP2 SSTORE SWAP2 DUP7 ADD MLOAD SWAP7 DUP3 ADD DUP1 SLOAD SWAP8 SWAP1 SWAP2 AND SWAP7 SWAP1 SWAP4 AND SWAP6 SWAP1 SWAP6 OR SWAP1 SWAP2 SSTORE DUP3 ADD MLOAD PUSH1 0x2 DUP5 ADD SSTORE DUP2 ADD MLOAD PUSH1 0x3 DUP4 ADD SSTORE PUSH1 0x80 ADD MLOAD PUSH1 0x4 SWAP1 SWAP2 ADD SSTORE JUMPDEST PUSH1 0xA DUP3 DUP2 SLOAD DUP2 LT PUSH2 0x1B76 JUMPI INVALID JUMPDEST SWAP1 PUSH1 0x0 MSTORE PUSH1 0x20 PUSH1 0x0 KECCAK256 SWAP1 PUSH1 0x5 MUL ADD PUSH1 0x3 ADD SLOAD PUSH1 0x0 EQ ISZERO PUSH2 0x1C43 JUMPI PUSH1 0xA SLOAD PUSH1 0x1 LT ISZERO PUSH2 0x1C29 JUMPI PUSH1 0xA DUP1 SLOAD PUSH1 0x0 NOT DUP2 ADD SWAP1 DUP2 LT PUSH2 0x1BAD JUMPI INVALID JUMPDEST SWAP1 PUSH1 0x0 MSTORE PUSH1 0x20 PUSH1 0x0 KECCAK256 SWAP1 PUSH1 0x5 MUL ADD PUSH1 0xA DUP4 DUP2 SLOAD DUP2 LT PUSH2 0x1BC8 JUMPI INVALID JUMPDEST PUSH1 0x0 SWAP2 DUP3 MSTORE PUSH1 0x20 SWAP1 SWAP2 KECCAK256 DUP3 SLOAD PUSH1 0x5 SWAP1 SWAP3 MUL ADD DUP1 SLOAD PUSH1 0x1 PUSH1 0x1 PUSH1 0xA0 SHL SUB SWAP3 DUP4 AND PUSH1 0x1 PUSH1 0x1 PUSH1 0xA0 SHL SUB NOT SWAP2 DUP3 AND OR DUP3 SSTORE PUSH1 0x1 DUP1 DUP6 ADD SLOAD SWAP1 DUP4 ADD DUP1 SLOAD SWAP2 SWAP1 SWAP5 AND SWAP2 AND OR SWAP1 SWAP2 SSTORE PUSH1 0x2 DUP1 DUP4 ADD SLOAD SWAP1 DUP3 ADD SSTORE PUSH1 0x3 DUP1 DUP4 ADD SLOAD SWAP1 DUP3 ADD SSTORE PUSH1 0x4 SWAP2 DUP3 ADD SLOAD SWAP2 ADD SSTORE JUMPDEST PUSH1 0xA DUP1 SLOAD SWAP1 PUSH2 0x1C3C SWAP1 PUSH1 0x0 NOT DUP4 ADD PUSH2 0x24D5 JUMP JUMPDEST POP POP PUSH2 0x1C4C JUMP JUMPDEST POP PUSH1 0x1 ADD PUSH2 0x18CE JUMP JUMPDEST POP PUSH1 0x1 ADD PUSH2 0x18C1 JUMP JUMPDEST POP POP POP POP JUMP JUMPDEST PUSH1 0x0 DUP1 CALLER DUP2 JUMPDEST PUSH1 0x6 SLOAD DUP2 LT ISZERO PUSH2 0x1C55 JUMPI PUSH1 0x0 JUMPDEST PUSH1 0x6 SLOAD DUP2 LT ISZERO PUSH2 0x20B7 JUMPI PUSH1 0x6 DUP3 DUP2 SLOAD DUP2 LT PUSH2 0x1C85 JUMPI INVALID JUMPDEST SWAP1 PUSH1 0x0 MSTORE PUSH1 0x20 PUSH1 0x0 KECCAK256 SWAP1 PUSH1 0x7 MUL ADD PUSH1 0x2 ADD SLOAD PUSH1 0x6 DUP3 DUP2 SLOAD DUP2 LT PUSH2 0x1CA4 JUMPI INVALID JUMPDEST SWAP1 PUSH1 0x0 MSTORE PUSH1 0x20 PUSH1 0x0 KECCAK256 SWAP1 PUSH1 0x7 MUL ADD PUSH1 0x2 ADD SLOAD LT ISZERO PUSH2 0x1FBC JUMPI PUSH1 0x0 PUSH1 0x6 DUP3 DUP2 SLOAD DUP2 LT PUSH2 0x1CCB JUMPI INVALID JUMPDEST PUSH1 0x0 SWAP2 DUP3 MSTORE PUSH1 0x20 SWAP1 SWAP2 KECCAK256 PUSH1 0x6 PUSH1 0x7 SWAP1 SWAP3 MUL ADD ADD SLOAD PUSH1 0xFF AND PUSH1 0x3 DUP2 GT ISZERO PUSH2 0x1CED JUMPI INVALID JUMPDEST EQ PUSH2 0x1D0A JUMPI PUSH1 0x40 MLOAD PUSH3 0x461BCD PUSH1 0xE5 SHL DUP2 MSTORE PUSH1 0x4 ADD PUSH2 0x2AD SWAP1 PUSH2 0x2CFF JUMP JUMPDEST DUP3 PUSH1 0x1 PUSH1 0x1 PUSH1 0xA0 SHL SUB AND PUSH1 0x6 DUP3 DUP2 SLOAD DUP2 LT PUSH2 0x1D21 JUMPI INVALID JUMPDEST PUSH1 0x0 SWAP2 DUP3 MSTORE PUSH1 0x20 SWAP1 SWAP2 KECCAK256 PUSH1 0x1 PUSH1 0x7 SWAP1 SWAP3 MUL ADD ADD SLOAD PUSH1 0x1 PUSH1 0x1 PUSH1 0xA0 SHL SUB AND EQ ISZERO PUSH2 0x1D5C JUMPI PUSH1 0x40 MLOAD PUSH3 0x461BCD PUSH1 0xE5 SHL DUP2 MSTORE PUSH1 0x4 ADD PUSH2 0x2AD SWAP1 PUSH2 0x2D1F JUMP JUMPDEST PUSH1 0x8 PUSH1 0x40 MLOAD DUP1 PUSH2 0x100 ADD PUSH1 0x40 MSTORE DUP1 DUP6 PUSH1 0x1 PUSH1 0x1 PUSH1 0xA0 SHL SUB AND DUP2 MSTORE PUSH1 0x20 ADD PUSH1 0x6 DUP5 DUP2 SLOAD DUP2 LT PUSH2 0x1D86 JUMPI INVALID JUMPDEST PUSH1 0x0 SWAP2 DUP3 MSTORE PUSH1 0x20 SWAP2 DUP3 SWAP1 KECCAK256 PUSH1 0x1 PUSH1 0x7 SWAP1 SWAP3 MUL ADD ADD SLOAD PUSH1 0x1 PUSH1 0x1 PUSH1 0xA0 SHL SUB AND DUP3 MSTORE PUSH1 0x6 DUP1 SLOAD SWAP3 SWAP1 SWAP2 ADD SWAP2 DUP6 SWAP1 DUP2 LT PUSH2 0x1DB9 JUMPI INVALID JUMPDEST SWAP1 PUSH1 0x0 MSTORE PUSH1 0x20 PUSH1 0x0 KECCAK256 SWAP1 PUSH1 0x7 MUL ADD PUSH1 0x2 ADD SLOAD DUP2 MSTORE PUSH1 0x20 ADD PUSH1 0x6 DUP5 DUP2 SLOAD DUP2 LT PUSH2 0x1DDD JUMPI INVALID JUMPDEST SWAP1 PUSH1 0x0 MSTORE PUSH1 0x20 PUSH1 0x0 KECCAK256 SWAP1 PUSH1 0x7 MUL ADD PUSH1 0x3 ADD SLOAD DUP2 MSTORE PUSH1 0x20 ADD PUSH1 0x6 DUP5 DUP2 SLOAD DUP2 LT PUSH2 0x1E01 JUMPI INVALID JUMPDEST SWAP1 PUSH1 0x0 MSTORE PUSH1 0x20 PUSH1 0x0 KECCAK256 SWAP1 PUSH1 0x7 MUL ADD PUSH1 0x4 ADD SLOAD DUP2 MSTORE PUSH1 0x20 ADD PUSH1 0x6 DUP5 DUP2 SLOAD DUP2 LT PUSH2 0x1E25 JUMPI INVALID JUMPDEST SWAP1 PUSH1 0x0 MSTORE PUSH1 0x20 PUSH1 0x0 KECCAK256 SWAP1 PUSH1 0x7 MUL ADD PUSH1 0x5 ADD SLOAD DUP2 MSTORE PUSH1 0x20 ADD DUP8 DUP2 MSTORE PUSH1 0x20 ADD PUSH1 0x1 PUSH1 0x3 DUP2 GT ISZERO PUSH2 0x1E4F JUMPI INVALID JUMPDEST SWAP1 MSTORE DUP2 SLOAD PUSH1 0x1 DUP1 DUP3 ADD DUP1 DUP6 SSTORE PUSH1 0x0 SWAP5 DUP6 MSTORE PUSH1 0x20 SWAP5 DUP6 SWAP1 KECCAK256 DUP5 MLOAD PUSH1 0x8 SWAP1 SWAP5 MUL ADD DUP1 SLOAD PUSH1 0x1 PUSH1 0x1 PUSH1 0xA0 SHL SUB NOT SWAP1 DUP2 AND PUSH1 0x1 PUSH1 0x1 PUSH1 0xA0 SHL SUB SWAP6 DUP7 AND OR DUP3 SSTORE SWAP6 DUP6 ADD MLOAD DUP2 DUP5 ADD DUP1 SLOAD SWAP1 SWAP8 AND SWAP5 AND SWAP4 SWAP1 SWAP4 OR SWAP1 SWAP5 SSTORE PUSH1 0x40 DUP4 ADD MLOAD PUSH1 0x2 DUP4 ADD SSTORE PUSH1 0x60 DUP4 ADD MLOAD PUSH1 0x3 DUP1 DUP5 ADD SWAP2 SWAP1 SWAP2 SSTORE PUSH1 0x80 DUP5 ADD MLOAD PUSH1 0x4 DUP5 ADD SSTORE PUSH1 0xA0 DUP5 ADD MLOAD PUSH1 0x5 DUP5 ADD SSTORE PUSH1 0xC0 DUP5 ADD MLOAD PUSH1 0x6 DUP5 ADD SSTORE PUSH1 0xE0 DUP5 ADD MLOAD PUSH1 0x7 DUP5 ADD DUP1 SLOAD SWAP2 SWAP4 SWAP1 SWAP3 PUSH1 0xFF NOT SWAP1 SWAP3 AND SWAP2 DUP5 SWAP1 DUP2 GT ISZERO PUSH2 0x1EF6 JUMPI INVALID JUMPDEST MUL OR SWAP1 SSTORE POP POP POP POP PUSH2 0x1F07 DUP4 PUSH2 0xD7E JUMP JUMPDEST PUSH1 0x1 SWAP4 POP PUSH1 0x6 DUP2 DUP2 SLOAD DUP2 LT PUSH2 0x1F18 JUMPI INVALID JUMPDEST PUSH1 0x0 SWAP2 DUP3 MSTORE PUSH1 0x20 SWAP1 SWAP2 KECCAK256 PUSH1 0x1 PUSH1 0x7 SWAP1 SWAP3 MUL ADD ADD SLOAD PUSH1 0x6 DUP1 SLOAD PUSH1 0x1 PUSH1 0x1 PUSH1 0xA0 SHL SUB SWAP1 SWAP3 AND SWAP2 DUP4 SWAP1 DUP2 LT PUSH2 0x1F46 JUMPI INVALID JUMPDEST PUSH1 0x0 SWAP2 DUP3 MSTORE PUSH1 0x20 SWAP1 SWAP2 KECCAK256 PUSH1 0x7 SWAP1 SWAP2 MUL ADD SLOAD PUSH1 0x6 DUP1 SLOAD PUSH1 0x1 PUSH1 0x1 PUSH1 0xA0 SHL SUB SWAP1 SWAP3 AND SWAP2 PUSH32 0x5E51FBD7F7E38EE6927FB25D7E32916C08F102ECE1D3D65DF27EC76E3A43C3A7 SWAP2 SWAP1 DUP6 SWAP1 DUP2 LT PUSH2 0x1F94 JUMPI INVALID JUMPDEST SWAP1 PUSH1 0x0 MSTORE PUSH1 0x20 PUSH1 0x0 KECCAK256 SWAP1 PUSH1 0x7 MUL ADD PUSH1 0x5 ADD SLOAD PUSH1 0x40 MLOAD PUSH2 0x1FB3 SWAP2 SWAP1 PUSH2 0x2D3F JUMP JUMPDEST PUSH1 0x40 MLOAD DUP1 SWAP2 SUB SWAP1 LOG3 JUMPDEST DUP4 ISZERO PUSH2 0x20AF JUMPI PUSH1 0x6 SLOAD PUSH1 0x1 LT ISZERO PUSH2 0x2096 JUMPI PUSH1 0x6 DUP1 SLOAD PUSH1 0x0 NOT DUP2 ADD SWAP1 DUP2 LT PUSH2 0x1FDF JUMPI INVALID JUMPDEST SWAP1 PUSH1 0x0 MSTORE PUSH1 0x20 PUSH1 0x0 KECCAK256 SWAP1 PUSH1 0x7 MUL ADD PUSH1 0x6 DUP3 DUP2 SLOAD DUP2 LT PUSH2 0x1FFA JUMPI INVALID JUMPDEST PUSH1 0x0 SWAP2 DUP3 MSTORE PUSH1 0x20 SWAP1 SWAP2 KECCAK256 DUP3 SLOAD PUSH1 0x7 SWAP1 SWAP3 MUL ADD DUP1 SLOAD PUSH1 0x1 PUSH1 0x1 PUSH1 0xA0 SHL SUB NOT SWAP1 DUP2 AND PUSH1 0x1 PUSH1 0x1 PUSH1 0xA0 SHL SUB SWAP4 DUP5 AND OR DUP3 SSTORE PUSH1 0x1 DUP1 DUP6 ADD SLOAD DUP2 DUP5 ADD DUP1 SLOAD SWAP1 SWAP4 AND SWAP5 AND SWAP4 SWAP1 SWAP4 OR SWAP1 SSTORE PUSH1 0x2 DUP1 DUP5 ADD SLOAD SWAP1 DUP3 ADD SSTORE PUSH1 0x3 DUP1 DUP5 ADD SLOAD DUP2 DUP4 ADD SSTORE PUSH1 0x4 DUP1 DUP6 ADD SLOAD SWAP1 DUP4 ADD SSTORE PUSH1 0x5 DUP1 DUP6 ADD SLOAD SWAP1 DUP4 ADD SSTORE PUSH1 0x6 DUP1 DUP6 ADD SLOAD SWAP1 DUP4 ADD DUP1 SLOAD SWAP4 SWAP5 PUSH1 0xFF SWAP1 SWAP3 AND SWAP4 SWAP1 SWAP3 PUSH1 0xFF NOT SWAP1 SWAP2 AND SWAP2 SWAP1 DUP5 SWAP1 DUP2 GT ISZERO PUSH2 0x208E JUMPI INVALID JUMPDEST MUL OR SWAP1 SSTORE POP POP POP JUMPDEST PUSH1 0x6 DUP1 SLOAD SWAP1 PUSH2 0x20A9 SWAP1 PUSH1 0x0 NOT DUP4 ADD PUSH2 0x252D JUMP JUMPDEST POP PUSH2 0x20B7 JUMP JUMPDEST PUSH1 0x1 ADD PUSH2 0x1C6E JUMP JUMPDEST POP DUP3 ISZERO PUSH2 0x20C3 JUMPI PUSH2 0x1C55 JUMP JUMPDEST PUSH1 0x0 PUSH1 0x6 DUP3 DUP2 SLOAD DUP2 LT PUSH2 0x20D2 JUMPI INVALID JUMPDEST PUSH1 0x0 SWAP2 DUP3 MSTORE PUSH1 0x20 SWAP1 SWAP2 KECCAK256 PUSH1 0x6 PUSH1 0x7 SWAP1 SWAP3 MUL ADD ADD SLOAD PUSH1 0xFF AND PUSH1 0x3 DUP2 GT ISZERO PUSH2 0x20F4 JUMPI INVALID JUMPDEST EQ PUSH2 0x2111 JUMPI PUSH1 0x40 MLOAD PUSH3 0x461BCD PUSH1 0xE5 SHL DUP2 MSTORE PUSH1 0x4 ADD PUSH2 0x2AD SWAP1 PUSH2 0x2CFF JUMP JUMPDEST DUP2 PUSH1 0x1 PUSH1 0x1 PUSH1 0xA0 SHL SUB AND PUSH1 0x6 DUP3 DUP2 SLOAD DUP2 LT PUSH2 0x2128 JUMPI INVALID JUMPDEST PUSH1 0x0 SWAP2 DUP3 MSTORE PUSH1 0x20 SWAP1 SWAP2 KECCAK256 PUSH1 0x1 PUSH1 0x7 SWAP1 SWAP3 MUL ADD ADD SLOAD PUSH1 0x1 PUSH1 0x1 PUSH1 0xA0 SHL SUB AND EQ ISZERO PUSH2 0x2163 JUMPI PUSH1 0x40 MLOAD PUSH3 0x461BCD PUSH1 0xE5 SHL DUP2 MSTORE PUSH1 0x4 ADD PUSH2 0x2AD SWAP1 PUSH2 0x2D1F JUMP JUMPDEST PUSH1 0x8 PUSH1 0x40 MLOAD DUP1 PUSH2 0x100 ADD PUSH1 0x40 MSTORE DUP1 DUP5 PUSH1 0x1 PUSH1 0x1 PUSH1 0xA0 SHL SUB AND DUP2 MSTORE PUSH1 0x20 ADD PUSH1 0x6 DUP5 DUP2 SLOAD DUP2 LT PUSH2 0x218D JUMPI INVALID JUMPDEST PUSH1 0x0 SWAP2 DUP3 MSTORE PUSH1 0x20 SWAP2 DUP3 SWAP1 KECCAK256 PUSH1 0x1 PUSH1 0x7 SWAP1 SWAP3 MUL ADD ADD SLOAD PUSH1 0x1 PUSH1 0x1 PUSH1 0xA0 SHL SUB AND DUP3 MSTORE PUSH1 0x6 DUP1 SLOAD SWAP3 SWAP1 SWAP2 ADD SWAP2 DUP6 SWAP1 DUP2 LT PUSH2 0x21C0 JUMPI INVALID JUMPDEST SWAP1 PUSH1 0x0 MSTORE PUSH1 0x20 PUSH1 0x0 KECCAK256 SWAP1 PUSH1 0x7 MUL ADD PUSH1 0x2 ADD SLOAD DUP2 MSTORE PUSH1 0x20 ADD PUSH1 0x6 DUP5 DUP2 SLOAD DUP2 LT PUSH2 0x21E4 JUMPI INVALID JUMPDEST SWAP1 PUSH1 0x0 MSTORE PUSH1 0x20 PUSH1 0x0 KECCAK256 SWAP1 PUSH1 0x7 MUL ADD PUSH1 0x3 ADD SLOAD DUP2 MSTORE PUSH1 0x20 ADD PUSH1 0x6 DUP5 DUP2 SLOAD DUP2 LT PUSH2 0x2208 JUMPI INVALID JUMPDEST SWAP1 PUSH1 0x0 MSTORE PUSH1 0x20 PUSH1 0x0 KECCAK256 SWAP1 PUSH1 0x7 MUL ADD PUSH1 0x4 ADD SLOAD DUP2 MSTORE PUSH1 0x20 ADD PUSH1 0x6 DUP5 DUP2 SLOAD DUP2 LT PUSH2 0x222C JUMPI INVALID JUMPDEST SWAP1 PUSH1 0x0 MSTORE PUSH1 0x20 PUSH1 0x0 KECCAK256 SWAP1 PUSH1 0x7 MUL ADD PUSH1 0x5 ADD SLOAD DUP2 MSTORE PUSH1 0x20 ADD DUP7 DUP2 MSTORE PUSH1 0x20 ADD PUSH1 0x1 PUSH1 0x3 DUP2 GT ISZERO PUSH2 0x2256 JUMPI INVALID JUMPDEST SWAP1 MSTORE DUP2 SLOAD PUSH1 0x1 DUP1 DUP3 ADD DUP1 DUP6 SSTORE PUSH1 0x0 SWAP5 DUP6 MSTORE PUSH1 0x20 SWAP5 DUP6 SWAP1 KECCAK256 DUP5 MLOAD PUSH1 0x8 SWAP1 SWAP5 MUL ADD DUP1 SLOAD PUSH1 0x1 PUSH1 0x1 PUSH1 0xA0 SHL SUB NOT SWAP1 DUP2 AND PUSH1 0x1 PUSH1 0x1 PUSH1 0xA0 SHL SUB SWAP6 DUP7 AND OR DUP3 SSTORE SWAP6 DUP6 ADD MLOAD DUP2 DUP5 ADD DUP1 SLOAD SWAP1 SWAP8 AND SWAP5 AND SWAP4 SWAP1 SWAP4 OR SWAP1 SWAP5 SSTORE PUSH1 0x40 DUP4 ADD MLOAD PUSH1 0x2 DUP4 ADD SSTORE PUSH1 0x60 DUP4 ADD MLOAD PUSH1 0x3 DUP1 DUP5 ADD SWAP2 SWAP1 SWAP2 SSTORE PUSH1 0x80 DUP5 ADD MLOAD PUSH1 0x4 DUP5 ADD SSTORE PUSH1 0xA0 DUP5 ADD MLOAD PUSH1 0x5 DUP5 ADD SSTORE PUSH1 0xC0 DUP5 ADD MLOAD PUSH1 0x6 DUP5 ADD SSTORE PUSH1 0xE0 DUP5 ADD MLOAD PUSH1 0x7 DUP5 ADD DUP1 SLOAD SWAP2 SWAP4 SWAP1 SWAP3 PUSH1 0xFF NOT SWAP1 SWAP3 AND SWAP2 DUP5 SWAP1 DUP2 GT ISZERO PUSH2 0x22FD JUMPI INVALID JUMPDEST MUL OR SWAP1 SSTORE POP POP POP POP PUSH2 0x230E DUP3 PUSH2 0xD7E JUMP JUMPDEST PUSH1 0x1 SWAP3 POP PUSH1 0x6 DUP2 DUP2 SLOAD DUP2 LT PUSH2 0x231F JUMPI INVALID JUMPDEST PUSH1 0x0 SWAP2 DUP3 MSTORE PUSH1 0x20 SWAP1 SWAP2 KECCAK256 PUSH1 0x1 PUSH1 0x7 SWAP1 SWAP3 MUL ADD ADD SLOAD PUSH1 0x6 DUP1 SLOAD PUSH1 0x1 PUSH1 0x1 PUSH1 0xA0 SHL SUB SWAP1 SWAP3 AND SWAP2 DUP4 SWAP1 DUP2 LT PUSH2 0x234D JUMPI INVALID JUMPDEST PUSH1 0x0 SWAP2 DUP3 MSTORE PUSH1 0x20 SWAP1 SWAP2 KECCAK256 PUSH1 0x7 SWAP1 SWAP2 MUL ADD SLOAD PUSH1 0x6 DUP1 SLOAD PUSH1 0x1 PUSH1 0x1 PUSH1 0xA0 SHL SUB SWAP1 SWAP3 AND SWAP2 PUSH32 0x5E51FBD7F7E38EE6927FB25D7E32916C08F102ECE1D3D65DF27EC76E3A43C3A7 SWAP2 SWAP1 DUP6 SWAP1 DUP2 LT PUSH2 0x239B JUMPI INVALID JUMPDEST SWAP1 PUSH1 0x0 MSTORE PUSH1 0x20 PUSH1 0x0 KECCAK256 SWAP1 PUSH1 0x7 MUL ADD PUSH1 0x5 ADD SLOAD PUSH1 0x40 MLOAD PUSH2 0x23BA SWAP2 SWAP1 PUSH2 0x2D3F JUMP JUMPDEST PUSH1 0x40 MLOAD DUP1 SWAP2 SUB SWAP1 LOG3 DUP3 ISZERO PUSH2 0x24B5 JUMPI PUSH1 0x6 SLOAD PUSH1 0x1 LT ISZERO PUSH2 0x249C JUMPI PUSH1 0x6 DUP1 SLOAD PUSH1 0x0 NOT DUP2 ADD SWAP1 DUP2 LT PUSH2 0x23E5 JUMPI INVALID JUMPDEST SWAP1 PUSH1 0x0 MSTORE PUSH1 0x20 PUSH1 0x0 KECCAK256 SWAP1 PUSH1 0x7 MUL ADD PUSH1 0x6 DUP3 DUP2 SLOAD DUP2 LT PUSH2 0x2400 JUMPI INVALID JUMPDEST PUSH1 0x0 SWAP2 DUP3 MSTORE PUSH1 0x20 SWAP1 SWAP2 KECCAK256 DUP3 SLOAD PUSH1 0x7 SWAP1 SWAP3 MUL ADD DUP1 SLOAD PUSH1 0x1 PUSH1 0x1 PUSH1 0xA0 SHL SUB NOT SWAP1 DUP2 AND PUSH1 0x1 PUSH1 0x1 PUSH1 0xA0 SHL SUB SWAP4 DUP5 AND OR DUP3 SSTORE PUSH1 0x1 DUP1 DUP6 ADD SLOAD DUP2 DUP5 ADD DUP1 SLOAD SWAP1 SWAP4 AND SWAP5 AND SWAP4 SWAP1 SWAP4 OR SWAP1 SSTORE PUSH1 0x2 DUP1 DUP5 ADD SLOAD SWAP1 DUP3 ADD SSTORE PUSH1 0x3 DUP1 DUP5 ADD SLOAD DUP2 DUP4 ADD SSTORE PUSH1 0x4 DUP1 DUP6 ADD SLOAD SWAP1 DUP4 ADD SSTORE PUSH1 0x5 DUP1 DUP6 ADD SLOAD SWAP1 DUP4 ADD SSTORE PUSH1 0x6 DUP1 DUP6 ADD SLOAD SWAP1 DUP4 ADD DUP1 SLOAD SWAP4 SWAP5 PUSH1 0xFF SWAP1 SWAP3 AND SWAP4 SWAP1 SWAP3 PUSH1 0xFF NOT SWAP1 SWAP2 AND SWAP2 SWAP1 DUP5 SWAP1 DUP2 GT ISZERO PUSH2 0x2494 JUMPI INVALID JUMPDEST MUL OR SWAP1 SSTORE POP POP POP JUMPDEST PUSH1 0x6 DUP1 SLOAD SWAP1 PUSH2 0x24AF SWAP1 PUSH1 0x0 NOT DUP4 ADD PUSH2 0x252D JUMP JUMPDEST POP PUSH2 0x1C55 JUMP JUMPDEST PUSH1 0x1 ADD PUSH2 0x1C61 JUMP JUMPDEST PUSH1 0x0 PUSH2 0xDB5 JUMP JUMPDEST DUP1 SLOAD PUSH1 0x1 ADD SWAP1 SSTORE JUMP JUMPDEST DUP1 SLOAD JUMPDEST SWAP2 SWAP1 POP JUMP JUMPDEST DUP2 SLOAD DUP2 DUP4 SSTORE DUP2 DUP2 GT ISZERO PUSH2 0x1260 JUMPI PUSH1 0x5 MUL DUP2 PUSH1 0x5 MUL DUP4 PUSH1 0x0 MSTORE PUSH1 0x20 PUSH1 0x0 KECCAK256 SWAP2 DUP3 ADD SWAP2 ADD PUSH2 0x1260 SWAP2 SWAP1 PUSH2 0x2559 JUMP JUMPDEST DUP2 SLOAD DUP2 DUP4 SSTORE DUP2 DUP2 GT ISZERO PUSH2 0x1260 JUMPI PUSH1 0x8 MUL DUP2 PUSH1 0x8 MUL DUP4 PUSH1 0x0 MSTORE PUSH1 0x20 PUSH1 0x0 KECCAK256 SWAP2 DUP3 ADD SWAP2 ADD PUSH2 0x1260 SWAP2 SWAP1 PUSH2 0x25A3 JUMP JUMPDEST DUP2 SLOAD DUP2 DUP4 SSTORE DUP2 DUP2 GT ISZERO PUSH2 0x1260 JUMPI PUSH1 0x7 MUL DUP2 PUSH1 0x7 MUL DUP4 PUSH1 0x0 MSTORE PUSH1 0x20 PUSH1 0x0 KECCAK256 SWAP2 DUP3 ADD SWAP2 ADD PUSH2 0x1260 SWAP2 SWAP1 PUSH2 0x2603 JUMP JUMPDEST PUSH2 0x59E SWAP2 SWAP1 JUMPDEST DUP1 DUP3 GT ISZERO PUSH2 0x259F JUMPI DUP1 SLOAD PUSH1 0x1 PUSH1 0x1 PUSH1 0xA0 SHL SUB NOT SWAP1 DUP2 AND DUP3 SSTORE PUSH1 0x1 DUP3 ADD DUP1 SLOAD SWAP1 SWAP2 AND SWAP1 SSTORE PUSH1 0x0 PUSH1 0x2 DUP3 ADD DUP2 SWAP1 SSTORE PUSH1 0x3 DUP3 ADD DUP2 SWAP1 SSTORE PUSH1 0x4 DUP3 ADD SSTORE PUSH1 0x5 ADD PUSH2 0x255F JUMP JUMPDEST POP SWAP1 JUMP JUMPDEST PUSH2 0x59E SWAP2 SWAP1 JUMPDEST DUP1 DUP3 GT ISZERO PUSH2 0x259F JUMPI DUP1 SLOAD PUSH1 0x1 PUSH1 0x1 PUSH1 0xA0 SHL SUB NOT SWAP1 DUP2 AND DUP3 SSTORE PUSH1 0x1 DUP3 ADD DUP1 SLOAD SWAP1 SWAP2 AND SWAP1 SSTORE PUSH1 0x0 PUSH1 0x2 DUP3 ADD DUP2 SWAP1 SSTORE PUSH1 0x3 DUP3 ADD DUP2 SWAP1 SSTORE PUSH1 0x4 DUP3 ADD DUP2 SWAP1 SSTORE PUSH1 0x5 DUP3 ADD DUP2 SWAP1 SSTORE PUSH1 0x6 DUP3 ADD SSTORE PUSH1 0x7 DUP2 ADD DUP1 SLOAD PUSH1 0xFF NOT AND SWAP1 SSTORE PUSH1 0x8 ADD PUSH2 0x25A9 JUMP JUMPDEST PUSH2 0x59E SWAP2 SWAP1 JUMPDEST DUP1 DUP3 GT ISZERO PUSH2 0x259F JUMPI DUP1 SLOAD PUSH1 0x1 PUSH1 0x1 PUSH1 0xA0 SHL SUB NOT SWAP1 DUP2 AND DUP3 SSTORE PUSH1 0x1 DUP3 ADD DUP1 SLOAD SWAP1 SWAP2 AND SWAP1 SSTORE PUSH1 0x0 PUSH1 0x2 DUP3 ADD DUP2 SWAP1 SSTORE PUSH1 0x3 DUP3 ADD DUP2 SWAP1 SSTORE PUSH1 0x4 DUP3 ADD DUP2 SWAP1 SSTORE PUSH1 0x5 DUP3 ADD SSTORE PUSH1 0x6 DUP2 ADD DUP1 SLOAD PUSH1 0xFF NOT AND SWAP1 SSTORE PUSH1 0x7 ADD PUSH2 0x2609 JUMP JUMPDEST DUP1 CALLDATALOAD PUSH2 0x2667 DUP2 PUSH2 0x2DC1 JUMP JUMPDEST SWAP3 SWAP2 POP POP JUMP JUMPDEST DUP1 CALLDATALOAD PUSH2 0x2667 DUP2 PUSH2 0x2DD5 JUMP JUMPDEST PUSH1 0x0 PUSH1 0x20 DUP3 DUP5 SUB SLT ISZERO PUSH2 0x268A JUMPI PUSH1 0x0 DUP1 REVERT JUMPDEST PUSH1 0x0 PUSH2 0x2696 DUP5 DUP5 PUSH2 0x265C JUMP JUMPDEST SWAP5 SWAP4 POP POP POP POP JUMP JUMPDEST PUSH1 0x0 DUP1 PUSH1 0x0 PUSH1 0x60 DUP5 DUP7 SUB SLT ISZERO PUSH2 0x26B3 JUMPI PUSH1 0x0 DUP1 REVERT JUMPDEST PUSH1 0x0 PUSH2 0x26BF DUP7 DUP7 PUSH2 0x265C JUMP JUMPDEST SWAP4 POP POP PUSH1 0x20 PUSH2 0x26D0 DUP7 DUP3 DUP8 ADD PUSH2 0x266D JUMP JUMPDEST SWAP3 POP POP PUSH1 0x40 PUSH2 0x26E1 DUP7 DUP3 DUP8 ADD PUSH2 0x266D JUMP JUMPDEST SWAP2 POP POP SWAP3 POP SWAP3 POP SWAP3 JUMP JUMPDEST PUSH1 0x0 PUSH1 0x20 DUP3 DUP5 SUB SLT ISZERO PUSH2 0x26FD JUMPI PUSH1 0x0 DUP1 REVERT JUMPDEST PUSH1 0x0 PUSH2 0x2696 DUP5 DUP5 PUSH2 0x266D JUMP JUMPDEST PUSH1 0x0 DUP1 PUSH1 0x0 PUSH1 0x60 DUP5 DUP7 SUB SLT ISZERO PUSH2 0x271E JUMPI PUSH1 0x0 DUP1 REVERT JUMPDEST PUSH1 0x0 PUSH2 0x26BF DUP7 DUP7 PUSH2 0x266D JUMP JUMPDEST PUSH1 0x0 PUSH2 0x2736 DUP4 DUP4 PUSH2 0x2A44 JUMP JUMPDEST POP POP PUSH2 0x100 ADD SWAP1 JUMP JUMPDEST PUSH1 0x0 PUSH2 0x274B DUP4 DUP4 PUSH2 0x2ADB JUMP JUMPDEST POP POP PUSH1 0xE0 ADD SWAP1 JUMP JUMPDEST PUSH1 0x0 PUSH2 0x275F DUP4 DUP4 PUSH2 0x2B5E JUMP JUMPDEST POP POP PUSH1 0xA0 ADD SWAP1 JUMP JUMPDEST PUSH2 0x2770 DUP2 PUSH2 0x2D88 JUMP JUMPDEST DUP3 MSTORE POP POP JUMP JUMPDEST PUSH1 0x0 PUSH2 0x2781 DUP3 PUSH2 0x2D7B JUMP JUMPDEST PUSH2 0x278B DUP2 DUP6 PUSH2 0x2D7F JUMP JUMPDEST SWAP4 POP PUSH2 0x2796 DUP4 PUSH2 0x2D75 JUMP JUMPDEST DUP1 PUSH1 0x0 JUMPDEST DUP4 DUP2 LT ISZERO PUSH2 0x27C4 JUMPI DUP2 MLOAD PUSH2 0x27AE DUP9 DUP3 PUSH2 0x272A JUMP JUMPDEST SWAP8 POP PUSH2 0x27B9 DUP4 PUSH2 0x2D75 JUMP JUMPDEST SWAP3 POP POP PUSH1 0x1 ADD PUSH2 0x279A JUMP JUMPDEST POP SWAP5 SWAP6 SWAP5 POP POP POP POP POP JUMP JUMPDEST PUSH1 0x0 PUSH2 0x27DA DUP3 PUSH2 0x2D7B JUMP JUMPDEST PUSH2 0x27E4 DUP2 DUP6 PUSH2 0x2D7F JUMP JUMPDEST SWAP4 POP PUSH2 0x27EF DUP4 PUSH2 0x2D75 JUMP JUMPDEST DUP1 PUSH1 0x0 JUMPDEST DUP4 DUP2 LT ISZERO PUSH2 0x27C4 JUMPI DUP2 MLOAD PUSH2 0x2807 DUP9 DUP3 PUSH2 0x273F JUMP JUMPDEST SWAP8 POP PUSH2 0x2812 DUP4 PUSH2 0x2D75 JUMP JUMPDEST SWAP3 POP POP PUSH1 0x1 ADD PUSH2 0x27F3 JUMP JUMPDEST PUSH1 0x0 PUSH2 0x2828 DUP3 PUSH2 0x2D7B JUMP JUMPDEST PUSH2 0x2832 DUP2 DUP6 PUSH2 0x2D7F JUMP JUMPDEST SWAP4 POP PUSH2 0x283D DUP4 PUSH2 0x2D75 JUMP JUMPDEST DUP1 PUSH1 0x0 JUMPDEST DUP4 DUP2 LT ISZERO PUSH2 0x27C4 JUMPI DUP2 MLOAD PUSH2 0x2855 DUP9 DUP3 PUSH2 0x2753 JUMP JUMPDEST SWAP8 POP PUSH2 0x2860 DUP4 PUSH2 0x2D75 JUMP JUMPDEST SWAP3 POP POP PUSH1 0x1 ADD PUSH2 0x2841 JUMP JUMPDEST PUSH1 0x0 PUSH2 0x2876 DUP3 PUSH2 0x2D7B JUMP JUMPDEST PUSH2 0x2880 DUP2 DUP6 PUSH2 0x2D7F JUMP JUMPDEST SWAP4 POP PUSH2 0x288B DUP4 PUSH2 0x2D75 JUMP JUMPDEST DUP1 PUSH1 0x0 JUMPDEST DUP4 DUP2 LT ISZERO PUSH2 0x27C4 JUMPI DUP2 MLOAD PUSH2 0x28A3 DUP9 DUP3 PUSH2 0x2753 JUMP JUMPDEST SWAP8 POP PUSH2 0x28AE DUP4 PUSH2 0x2D75 JUMP JUMPDEST SWAP3 POP POP PUSH1 0x1 ADD PUSH2 0x288F JUMP JUMPDEST PUSH2 0x2770 DUP2 PUSH2 0x2DA9 JUMP JUMPDEST PUSH1 0x0 PUSH2 0x28CF PUSH1 0x15 DUP4 PUSH2 0x2D7F JUMP JUMPDEST PUSH21 0x141410481A5CC81B9BDD081858DD1A5D99481E595D PUSH1 0x5A SHL DUP2 MSTORE PUSH1 0x20 ADD SWAP3 SWAP2 POP POP JUMP JUMPDEST PUSH1 0x0 PUSH2 0x2900 PUSH1 0x5 DUP4 PUSH2 0x2D7F JUMP JUMPDEST PUSH5 0x32B93937B9 PUSH1 0xD9 SHL DUP2 MSTORE PUSH1 0x20 ADD SWAP3 SWAP2 POP POP JUMP JUMPDEST PUSH1 0x0 PUSH2 0x2921 PUSH1 0xF DUP4 PUSH2 0x2D7F JUMP JUMPDEST PUSH15 0x4F6E6C7920505041206F776E657273 PUSH1 0x88 SHL DUP2 MSTORE PUSH1 0x20 ADD SWAP3 SWAP2 POP POP JUMP JUMPDEST PUSH1 0x0 PUSH2 0x294C PUSH1 0xF DUP4 PUSH2 0x2D7F JUMP JUMPDEST PUSH15 0x141410481A185CC8195E1C1A5C9959 PUSH1 0x8A SHL DUP2 MSTORE PUSH1 0x20 ADD SWAP3 SWAP2 POP POP JUMP JUMPDEST PUSH1 0x0 PUSH2 0x2977 PUSH1 0x13 DUP4 PUSH2 0x2D7F JUMP JUMPDEST PUSH19 0x50504120646F6573206E6F7420657869737473 PUSH1 0x68 SHL DUP2 MSTORE PUSH1 0x20 ADD SWAP3 SWAP2 POP POP JUMP JUMPDEST PUSH1 0x0 PUSH2 0x29A6 PUSH1 0x1E DUP4 PUSH2 0x2D7F JUMP JUMPDEST PUSH32 0x596F75206D75737420626520612063757272656E742050726F64756365720000 DUP2 MSTORE PUSH1 0x20 ADD SWAP3 SWAP2 POP POP JUMP JUMPDEST PUSH1 0x0 PUSH2 0x29DF PUSH1 0x13 DUP4 PUSH2 0x2D7F JUMP JUMPDEST PUSH19 0x2BB937B7339030B2323932B9B990313ABCB2B9 PUSH1 0x69 SHL DUP2 MSTORE PUSH1 0x20 ADD SWAP3 SWAP2 POP POP JUMP JUMPDEST PUSH1 0x0 PUSH2 0x2A0E PUSH1 0x21 DUP4 PUSH2 0x2D7F JUMP JUMPDEST PUSH32 0x4974277320696D706F737369626C6520656E64446179203C2073746172744461 DUP2 MSTORE PUSH1 0x79 PUSH1 0xF8 SHL PUSH1 0x20 DUP3 ADD MSTORE PUSH1 0x40 ADD SWAP3 SWAP2 POP POP JUMP JUMPDEST DUP1 MLOAD PUSH2 0x100 DUP4 ADD SWAP1 PUSH2 0x2A56 DUP5 DUP3 PUSH2 0x2767 JUMP JUMPDEST POP PUSH1 0x20 DUP3 ADD MLOAD PUSH2 0x2A69 PUSH1 0x20 DUP6 ADD DUP3 PUSH2 0x2767 JUMP JUMPDEST POP PUSH1 0x40 DUP3 ADD MLOAD PUSH2 0x2A7C PUSH1 0x40 DUP6 ADD DUP3 PUSH2 0x2BB7 JUMP JUMPDEST POP PUSH1 0x60 DUP3 ADD MLOAD PUSH2 0x2A8F PUSH1 0x60 DUP6 ADD DUP3 PUSH2 0x2BB7 JUMP JUMPDEST POP PUSH1 0x80 DUP3 ADD MLOAD PUSH2 0x2AA2 PUSH1 0x80 DUP6 ADD DUP3 PUSH2 0x2BB7 JUMP JUMPDEST POP PUSH1 0xA0 DUP3 ADD MLOAD PUSH2 0x2AB5 PUSH1 0xA0 DUP6 ADD DUP3 PUSH2 0x2BB7 JUMP JUMPDEST POP PUSH1 0xC0 DUP3 ADD MLOAD PUSH2 0x2AC8 PUSH1 0xC0 DUP6 ADD DUP3 PUSH2 0x2BB7 JUMP JUMPDEST POP PUSH1 0xE0 DUP3 ADD MLOAD PUSH2 0x1C55 PUSH1 0xE0 DUP6 ADD DUP3 PUSH2 0x28B9 JUMP JUMPDEST DUP1 MLOAD PUSH1 0xE0 DUP4 ADD SWAP1 PUSH2 0x2AEC DUP5 DUP3 PUSH2 0x2767 JUMP JUMPDEST POP PUSH1 0x20 DUP3 ADD MLOAD PUSH2 0x2AFF PUSH1 0x20 DUP6 ADD DUP3 PUSH2 0x2767 JUMP JUMPDEST POP PUSH1 0x40 DUP3 ADD MLOAD PUSH2 0x2B12 PUSH1 0x40 DUP6 ADD DUP3 PUSH2 0x2BB7 JUMP JUMPDEST POP PUSH1 0x60 DUP3 ADD MLOAD PUSH2 0x2B25 PUSH1 0x60 DUP6 ADD DUP3 PUSH2 0x2BB7 JUMP JUMPDEST POP PUSH1 0x80 DUP3 ADD MLOAD PUSH2 0x2B38 PUSH1 0x80 DUP6 ADD DUP3 PUSH2 0x2BB7 JUMP JUMPDEST POP PUSH1 0xA0 DUP3 ADD MLOAD PUSH2 0x2B4B PUSH1 0xA0 DUP6 ADD DUP3 PUSH2 0x2BB7 JUMP JUMPDEST POP PUSH1 0xC0 DUP3 ADD MLOAD PUSH2 0x1C55 PUSH1 0xC0 DUP6 ADD DUP3 PUSH2 0x28B9 JUMP JUMPDEST DUP1 MLOAD PUSH1 0xA0 DUP4 ADD SWAP1 PUSH2 0x2B6F DUP5 DUP3 PUSH2 0x2767 JUMP JUMPDEST POP PUSH1 0x20 DUP3 ADD MLOAD PUSH2 0x2B82 PUSH1 0x20 DUP6 ADD DUP3 PUSH2 0x2767 JUMP JUMPDEST POP PUSH1 0x40 DUP3 ADD MLOAD PUSH2 0x2B95 PUSH1 0x40 DUP6 ADD DUP3 PUSH2 0x2BB7 JUMP JUMPDEST POP PUSH1 0x60 DUP3 ADD MLOAD PUSH2 0x2BA8 PUSH1 0x60 DUP6 ADD DUP3 PUSH2 0x2BB7 JUMP JUMPDEST POP PUSH1 0x80 DUP3 ADD MLOAD PUSH2 0x1C55 PUSH1 0x80 DUP6 ADD DUP3 JUMPDEST PUSH2 0x2770 DUP2 PUSH2 0x59E JUMP JUMPDEST PUSH1 0xA0 DUP2 ADD PUSH2 0x2BCE DUP3 DUP9 PUSH2 0x2767 JUMP JUMPDEST PUSH2 0x2BDB PUSH1 0x20 DUP4 ADD DUP8 PUSH2 0x2767 JUMP JUMPDEST PUSH2 0x2BE8 PUSH1 0x40 DUP4 ADD DUP7 PUSH2 0x2BB7 JUMP JUMPDEST PUSH2 0x2BF5 PUSH1 0x60 DUP4 ADD DUP6 PUSH2 0x2BB7 JUMP JUMPDEST PUSH2 0x2C02 PUSH1 0x80 DUP4 ADD DUP5 PUSH2 0x2BB7 JUMP JUMPDEST SWAP7 SWAP6 POP POP POP POP POP POP JUMP JUMPDEST PUSH1 0xE0 DUP2 ADD PUSH2 0x2C1A DUP3 DUP11 PUSH2 0x2767 JUMP JUMPDEST PUSH2 0x2C27 PUSH1 0x20 DUP4 ADD DUP10 PUSH2 0x2767 JUMP JUMPDEST PUSH2 0x2C34 PUSH1 0x40 DUP4 ADD DUP9 PUSH2 0x2BB7 JUMP JUMPDEST PUSH2 0x2C41 PUSH1 0x60 DUP4 ADD DUP8 PUSH2 0x2BB7 JUMP JUMPDEST PUSH2 0x2C4E PUSH1 0x80 DUP4 ADD DUP7 PUSH2 0x2BB7 JUMP JUMPDEST PUSH2 0x2C5B PUSH1 0xA0 DUP4 ADD DUP6 PUSH2 0x2BB7 JUMP JUMPDEST PUSH2 0x2C68 PUSH1 0xC0 DUP4 ADD DUP5 PUSH2 0x2BB7 JUMP JUMPDEST SWAP9 SWAP8 POP POP POP POP POP POP POP POP JUMP JUMPDEST PUSH1 0x20 DUP1 DUP3 MSTORE DUP2 ADD PUSH2 0x2C85 DUP2 DUP5 PUSH2 0x2776 JUMP JUMPDEST SWAP4 SWAP3 POP POP POP JUMP JUMPDEST PUSH1 0x20 DUP1 DUP3 MSTORE DUP2 ADD PUSH2 0x2C85 DUP2 DUP5 PUSH2 0x27CF JUMP JUMPDEST PUSH1 0x20 DUP1 DUP3 MSTORE DUP2 ADD PUSH2 0x2C85 DUP2 DUP5 PUSH2 0x281D JUMP JUMPDEST PUSH1 0x20 DUP1 DUP3 MSTORE DUP2 ADD PUSH2 0x2C85 DUP2 DUP5 PUSH2 0x286B JUMP JUMPDEST PUSH1 0x20 DUP1 DUP3 MSTORE DUP2 ADD PUSH2 0x2667 DUP2 PUSH2 0x28C2 JUMP JUMPDEST PUSH1 0x20 DUP1 DUP3 MSTORE DUP2 ADD PUSH2 0x2667 DUP2 PUSH2 0x28F3 JUMP JUMPDEST PUSH1 0x20 DUP1 DUP3 MSTORE DUP2 ADD PUSH2 0x2667 DUP2 PUSH2 0x2914 JUMP JUMPDEST PUSH1 0x20 DUP1 DUP3 MSTORE DUP2 ADD PUSH2 0x2667 DUP2 PUSH2 0x293F JUMP JUMPDEST PUSH1 0x20 DUP1 DUP3 MSTORE DUP2 ADD PUSH2 0x2667 DUP2 PUSH2 0x296A JUMP JUMPDEST PUSH1 0x20 DUP1 DUP3 MSTORE DUP2 ADD PUSH2 0x2667 DUP2 PUSH2 0x2999 JUMP JUMPDEST PUSH1 0x20 DUP1 DUP3 MSTORE DUP2 ADD PUSH2 0x2667 DUP2 PUSH2 0x29D2 JUMP JUMPDEST PUSH1 0x20 DUP1 DUP3 MSTORE DUP2 ADD PUSH2 0x2667 DUP2 PUSH2 0x2A01 JUMP JUMPDEST PUSH1 0x20 DUP2 ADD PUSH2 0x2667 DUP3 DUP5 PUSH2 0x2BB7 JUMP JUMPDEST PUSH1 0x60 DUP2 ADD PUSH2 0x2D5B DUP3 DUP7 PUSH2 0x2BB7 JUMP JUMPDEST PUSH2 0x2D68 PUSH1 0x20 DUP4 ADD DUP6 PUSH2 0x2BB7 JUMP JUMPDEST PUSH2 0x2696 PUSH1 0x40 DUP4 ADD DUP5 PUSH2 0x28B9 JUMP JUMPDEST PUSH1 0x20 ADD SWAP1 JUMP JUMPDEST MLOAD SWAP1 JUMP JUMPDEST SWAP1 DUP2 MSTORE PUSH1 0x20 ADD SWAP1 JUMP JUMPDEST PUSH1 0x0 PUSH2 0x2667 DUP3 PUSH2 0x2D9D JUMP JUMPDEST DUP1 PUSH2 0x24D0 DUP2 PUSH2 0x2DB4 JUMP JUMPDEST PUSH1 0x1 PUSH1 0x1 PUSH1 0xA0 SHL SUB AND SWAP1 JUMP JUMPDEST PUSH1 0x0 PUSH2 0x2667 DUP3 PUSH2 0x2D93 JUMP JUMPDEST PUSH1 0x4 DUP2 LT PUSH2 0x2DBE JUMPI INVALID JUMPDEST POP JUMP JUMPDEST PUSH2 0x2DCA DUP2 PUSH2 0x2D88 JUMP JUMPDEST DUP2 EQ PUSH2 0x2DBE JUMPI PUSH1 0x0 DUP1 REVERT JUMPDEST PUSH2 0x2DCA DUP2 PUSH2 0x59E JUMP INVALID LOG3 PUSH6 0x627A7A723158 KECCAK256 0xBF 0x5E CHAINID 0xC5 0x2A DUP8 0xD9 DUP12 0xE0 0xD0 PUSH10 0xC66F3496444E9D99EDB0 MSTORE 0xD0 SWAP15 0xD4 0xDB DELEGATECALL COINBASE 0xDF PUSH24 0x2CD76C6578706572696D656E74616CF564736F6C63430005 LT STOP BLOCKHASH "
		},
		"gasEstimates": {
			"creation": {
				"codeDepositCost": "2361800",
				"executionCost": "2538",
				"totalCost": "2364338"
			},
			"external": {
				"availableKwhs(address,uint256,uint256)": "infinite",
				"buyEnergyByPPA(uint256)": "infinite",
				"buyPPAKwhs(uint256)": "infinite",
				"claimAuctionPPA()": "infinite",
				"claimPPA()": "infinite",
				"createPPA(uint256,uint256,uint256)": "infinite",
				"deregisterPPABuyer(address)": "infinite",
				"deregisterProducer()": "22247",
				"getApprovedPPAByID(uint256)": "infinite",
				"getAvKwhs()": "1144",
				"getPPAByID(uint256)": "infinite",
				"killPPA(uint256)": "infinite",
				"registerPPABuyer(address)": "infinite",
				"registerProducer()": "22276",
				"viewAllApprovedPPAs()": "infinite",
				"viewAllPPAs()": "infinite",
				"viewAllpurchases()": "infinite",
				"viewAvailableKwhs()": "infinite"
			}
		},
		"methodIdentifiers": {
			"availableKwhs(address,uint256,uint256)": "1383ecba",
			"buyEnergyByPPA(uint256)": "6aa375a1",
			"buyPPAKwhs(uint256)": "ee566592",
			"claimAuctionPPA()": "f7342a22",
			"claimPPA()": "e436db78",
			"createPPA(uint256,uint256,uint256)": "8a28410b",
			"deregisterPPABuyer(address)": "f791560c",
			"deregisterProducer()": "ea1d381f",
			"getApprovedPPAByID(uint256)": "22e5ef3d",
			"getAvKwhs()": "6d36a6b1",
			"getPPAByID(uint256)": "25163d5d",
			"killPPA(uint256)": "ac5afa4e",
			"registerPPABuyer(address)": "9d88df62",
			"registerProducer()": "dbdf0c21",
			"viewAllApprovedPPAs()": "5a604165",
			"viewAllPPAs()": "e1b0d3c0",
			"viewAllpurchases()": "b5b5dcc1",
			"viewAvailableKwhs()": "877b0fde"
		}
	},
	"abi": [
		{
			"anonymous": false,
			"inputs": [
				{
					"indexed": true,
					"internalType": "address",
					"name": "ppaBuyer",
					"type": "address"
				}
			],
			"name": "buyerDeregistered",
			"type": "event"
		},
		{
			"anonymous": false,
			"inputs": [
				{
					"indexed": true,
					"internalType": "address",
					"name": "ppaBuyer",
					"type": "address"
				}
			],
			"name": "buyerRegistered",
			"type": "event"
		},
		{
			"anonymous": false,
			"inputs": [
				{
					"indexed": true,
					"internalType": "address",
					"name": "producer",
					"type": "address"
				},
				{
					"indexed": false,
					"internalType": "uint256",
					"name": "price",
					"type": "uint256"
				}
			],
			"name": "createdPPA",
			"type": "event"
		},
		{
			"anonymous": false,
			"inputs": [
				{
					"indexed": true,
					"internalType": "address",
					"name": "producer",
					"type": "address"
				},
				{
					"indexed": true,
					"internalType": "address",
					"name": "buyer",
					"type": "address"
				},
				{
					"indexed": false,
					"internalType": "uint256",
					"name": "startDay",
					"type": "uint256"
				},
				{
					"indexed": false,
					"internalType": "uint256",
					"name": "endDay",
					"type": "uint256"
				},
				{
					"indexed": false,
					"internalType": "enum PPA.Status",
					"name": "status",
					"type": "uint8"
				}
			],
			"name": "expiredPPA",
			"type": "event"
		},
		{
			"anonymous": false,
			"inputs": [
				{
					"indexed": true,
					"internalType": "address",
					"name": "producer",
					"type": "address"
				}
			],
			"name": "producerDeregistered",
			"type": "event"
		},
		{
			"anonymous": false,
			"inputs": [
				{
					"indexed": true,
					"internalType": "address",
					"name": "producer",
					"type": "address"
				}
			],
			"name": "producerRegistered",
			"type": "event"
		},
		{
			"anonymous": false,
			"inputs": [
				{
					"indexed": false,
					"internalType": "uint256",
					"name": "itemID",
					"type": "uint256"
				},
				{
					"indexed": true,
					"internalType": "address",
					"name": "buyer",
					"type": "address"
				},
				{
					"indexed": true,
					"internalType": "address",
					"name": "producer",
					"type": "address"
				}
			],
			"name": "purchasedPPA",
			"type": "event"
		},
		{
			"constant": false,
			"inputs": [
				{
					"internalType": "address",
					"name": "_buyer",
					"type": "address"
				},
				{
					"internalType": "uint256",
					"name": "_energy",
					"type": "uint256"
				},
				{
					"internalType": "uint256",
					"name": "_idOfMatchPPA",
					"type": "uint256"
				}
			],
			"name": "availableKwhs",
			"outputs": [],
			"payable": false,
			"stateMutability": "nonpayable",
			"type": "function"
		},
		{
			"constant": false,
			"inputs": [
				{
					"internalType": "uint256",
					"name": "_buyEnergy",
					"type": "uint256"
				}
			],
			"name": "buyEnergyByPPA",
			"outputs": [],
			"payable": false,
			"stateMutability": "nonpayable",
			"type": "function"
		},
		{
			"constant": false,
			"inputs": [
				{
					"internalType": "uint256",
					"name": "_idOfPPA",
					"type": "uint256"
				}
			],
			"name": "buyPPAKwhs",
			"outputs": [],
			"payable": false,
			"stateMutability": "nonpayable",
			"type": "function"
		},
		{
			"constant": false,
			"inputs": [],
			"name": "claimAuctionPPA",
			"outputs": [],
			"payable": false,
			"stateMutability": "nonpayable",
			"type": "function"
		},
		{
			"constant": false,
			"inputs": [],
			"name": "claimPPA",
			"outputs": [],
			"payable": false,
			"stateMutability": "nonpayable",
			"type": "function"
		},
		{
			"constant": false,
			"inputs": [
				{
					"internalType": "uint256",
					"name": "_kwhPrice",
					"type": "uint256"
				},
				{
					"internalType": "uint256",
					"name": "_startDay",
					"type": "uint256"
				},
				{
					"internalType": "uint256",
					"name": "_endDay",
					"type": "uint256"
				}
			],
			"name": "createPPA",
			"outputs": [],
			"payable": false,
			"stateMutability": "nonpayable",
			"type": "function"
		},
		{
			"constant": false,
			"inputs": [
				{
					"internalType": "address",
					"name": "abuyer",
					"type": "address"
				}
			],
			"name": "deregisterPPABuyer",
			"outputs": [],
			"payable": false,
			"stateMutability": "nonpayable",
			"type": "function"
		},
		{
			"constant": false,
			"inputs": [],
			"name": "deregisterProducer",
			"outputs": [],
			"payable": false,
			"stateMutability": "nonpayable",
			"type": "function"
		},
		{
			"constant": true,
			"inputs": [
				{
					"internalType": "uint256",
					"name": "_id",
					"type": "uint256"
				}
			],
			"name": "getApprovedPPAByID",
			"outputs": [
				{
					"internalType": "address",
					"name": "",
					"type": "address"
				},
				{
					"internalType": "address",
					"name": "",
					"type": "address"
				},
				{
					"internalType": "uint256",
					"name": "",
					"type": "uint256"
				},
				{
					"internalType": "uint256",
					"name": "",
					"type": "uint256"
				},
				{
					"internalType": "uint256",
					"name": "",
					"type": "uint256"
				}
			],
			"payable": false,
			"stateMutability": "view",
			"type": "function"
		},
		{
			"constant": true,
			"inputs": [],
			"name": "getAvKwhs",
			"outputs": [
				{
					"internalType": "uint256",
					"name": "count",
					"type": "uint256"
				}
			],
			"payable": false,
			"stateMutability": "view",
			"type": "function"
		},
		{
			"constant": true,
			"inputs": [
				{
					"internalType": "uint256",
					"name": "_id",
					"type": "uint256"
				}
			],
			"name": "getPPAByID",
			"outputs": [
				{
					"internalType": "address",
					"name": "",
					"type": "address"
				},
				{
					"internalType": "address",
					"name": "",
					"type": "address"
				},
				{
					"internalType": "uint256",
					"name": "",
					"type": "uint256"
				},
				{
					"internalType": "uint256",
					"name": "",
					"type": "uint256"
				},
				{
					"internalType": "uint256",
					"name": "",
					"type": "uint256"
				},
				{
					"internalType": "uint256",
					"name": "",
					"type": "uint256"
				},
				{
					"internalType": "uint256",
					"name": "",
					"type": "uint256"
				}
			],
			"payable": false,
			"stateMutability": "view",
			"type": "function"
		},
		{
			"constant": false,
			"inputs": [
				{
					"internalType": "uint256",
					"name": "_id",
					"type": "uint256"
				}
			],
			"name": "killPPA",
			"outputs": [],
			"payable": false,
			"stateMutability": "nonpayable",
			"type": "function"
		},
		{
			"constant": false,
			"inputs": [
				{
					"internalType": "address",
					"name": "abuyer",
					"type": "address"
				}
			],
			"name": "registerPPABuyer",
			"outputs": [],
			"payable": false,
			"stateMutability": "nonpayable",
			"type": "function"
		},
		{
			"constant": false,
			"inputs": [],
			"name": "registerProducer",
			"outputs": [],
			"payable": false,
			"stateMutability": "nonpayable",
			"type": "function"
		},
		{
			"constant": true,
			"inputs": [],
			"name": "viewAllApprovedPPAs",
			"outputs": [
				{
					"components": [
						{
							"internalType": "address",
							"name": "buyer",
							"type": "address"
						},
						{
							"internalType": "address",
							"name": "producer",
							"type": "address"
						},
						{
							"internalType": "uint256",
							"name": "kwhPrice",
							"type": "uint256"
						},
						{
							"internalType": "uint256",
							"name": "startDay",
							"type": "uint256"
						},
						{
							"internalType": "uint256",
							"name": "endDay",
							"type": "uint256"
						},
						{
							"internalType": "uint256",
							"name": "id",
							"type": "uint256"
						},
						{
							"internalType": "uint256",
							"name": "totalKwh",
							"type": "uint256"
						},
						{
							"internalType": "enum PPA.Status",
							"name": "status",
							"type": "uint8"
						}
					],
					"internalType": "struct PPA.approvedPPA[]",
					"name": "",
					"type": "tuple[]"
				}
			],
			"payable": false,
			"stateMutability": "view",
			"type": "function"
		},
		{
			"constant": true,
			"inputs": [],
			"name": "viewAllPPAs",
			"outputs": [
				{
					"components": [
						{
							"internalType": "address",
							"name": "buyer",
							"type": "address"
						},
						{
							"internalType": "address",
							"name": "producer",
							"type": "address"
						},
						{
							"internalType": "uint256",
							"name": "kwhPrice",
							"type": "uint256"
						},
						{
							"internalType": "uint256",
							"name": "startDay",
							"type": "uint256"
						},
						{
							"internalType": "uint256",
							"name": "endDay",
							"type": "uint256"
						},
						{
							"internalType": "uint256",
							"name": "id",
							"type": "uint256"
						},
						{
							"internalType": "enum PPA.Status",
							"name": "status",
							"type": "uint8"
						}
					],
					"internalType": "struct PPA.ppa[]",
					"name": "",
					"type": "tuple[]"
				}
			],
			"payable": false,
			"stateMutability": "view",
			"type": "function"
		},
		{
			"constant": true,
			"inputs": [],
			"name": "viewAllpurchases",
			"outputs": [
				{
					"components": [
						{
							"internalType": "address",
							"name": "buyer",
							"type": "address"
						},
						{
							"internalType": "address",
							"name": "producer",
							"type": "address"
						},
						{
							"internalType": "uint256",
							"name": "timestamp",
							"type": "uint256"
						},
						{
							"internalType": "uint256",
							"name": "idOfPPA",
							"type": "uint256"
						},
						{
							"internalType": "uint256",
							"name": "purchasedEnergy",
							"type": "uint256"
						}
					],
					"internalType": "struct PPA.purchasesPPA[]",
					"name": "",
					"type": "tuple[]"
				}
			],
			"payable": false,
			"stateMutability": "view",
			"type": "function"
		},
		{
			"constant": true,
			"inputs": [],
			"name": "viewAvailableKwhs",
			"outputs": [
				{
					"components": [
						{
							"internalType": "address",
							"name": "producer",
							"type": "address"
						},
						{
							"internalType": "address",
							"name": "buyer",
							"type": "address"
						},
						{
							"internalType": "uint256",
							"name": "timestamp",
							"type": "uint256"
						},
						{
							"internalType": "uint256",
							"name": "energy",
							"type": "uint256"
						},
						{
							"internalType": "uint256",
							"name": "idOfmatchContract",
							"type": "uint256"
						}
					],
					"internalType": "struct PPA.producerEnergy[]",
					"name": "",
					"type": "tuple[]"
				}
			],
			"payable": false,
			"stateMutability": "view",
			"type": "function"
		}
	]
}