{
	"data": {
		"bytecode": {
			"linkReferences": {},
			"object": "608060405234801561001057600080fd5b50613be0806100206000396000f3fe608060405234801561001057600080fd5b50600436106101425760003560e01c8063a910103a116100b8578063e1b0d3c01161007c578063e1b0d3c01461029a578063e436db78146102a2578063ea1d381f146102aa578063ee566592146102b2578063f7342a22146102c5578063f791560c146102cd57610142565b8063a910103a14610242578063ac5afa4e14610255578063b3c7720314610268578063b5b5dcc11461027d578063dbdf0c211461029257610142565b80635a6041651161010a5780635a604165146101ca5780636a138a4a146101df5780636d36a6b1146101f2578063877b0fde146102075780638a28410b1461021c5780639d88df621461022f57610142565b80631383ecba146101475780631f5e377f1461015c57806322e5ef3d1461016f57806325163d5d1461019c5780633d833914146101c2575b600080fd5b61015a610155366004613393565b6102e0565b005b61015a61016a366004613473565b610441565b61018261017d366004613455565b610a80565b604051610193959493929190613964565b60405180910390f35b6101af6101aa366004613455565b610add565b60405161019397969594939291906139b0565b61015a610b67565b6101d2610f53565b6040516101939190613a18565b61015a6101ed366004613473565b61102e565b6101fa6115f0565b6040516101939190613ae3565b61020f6115f6565b6040516101939190613a41565b61015a61022a3660046134ad565b611686565b61015a61023d36600461336d565b61182b565b61015a6102503660046133e0565b611895565b61015a610263366004613455565b611a2c565b610270611e94565b6040516101939190613a30565b610285611f5a565b6040516101939190613a52565b61015a611fe9565b61027061203a565b61015a612100565b61015a612531565b61015a6102c0366004613455565b61257f565b61015a612950565b61015a6102db36600461336d565b6131b2565b3360009081526020819052604090205460ff166103185760405162461bcd60e51b815260040161030f90613ab3565b60405180910390fd5b6040805160a0810182523381526001600160a01b0394851660208201908152429282019283526060820194855260808201938452600b8054600181018255600091909152915160059092027f0175b7a638427703f0dbe7bb9bbf987a2551717b34e79f33b5b1008d1fa01db9810180549388166001600160a01b031994851617905590517f0175b7a638427703f0dbe7bb9bbf987a2551717b34e79f33b5b1008d1fa01dba8201805491909716921691909117909455517f0175b7a638427703f0dbe7bb9bbf987a2551717b34e79f33b5b1008d1fa01dbb84015590517f0175b7a638427703f0dbe7bb9bbf987a2551717b34e79f33b5b1008d1fa01dbc830155517f0175b7a638427703f0dbe7bb9bbf987a2551717b34e79f33b5b1008d1fa01dbd90910155565b3360009081526001602052604090205463ffffffff166104735760405162461bcd60e51b815260040161030f90613a83565b428133600080805b600954811015610a7657876009828154811061049357fe5b9060005260206000209060080201600501541480156104e05750836001600160a01b0316600982815481106104c457fe5b60009182526020909120600890910201546001600160a01b0316145b15610a6e5785600982815481106104f357fe5b90600052602060002090600802016003015411156105235760405162461bcd60e51b815260040161030f90613a63565b856009828154811061053157fe5b906000526020600020906008020160040154116105605760405162461bcd60e51b815260040161030f90613a93565b60005b600b54811015610a6c576000809050600b828154811061057f57fe5b9060005260206000209060050201600401546009848154811061059e57fe5b9060005260206000209060080201600501541480156105da575086600b83815481106105c657fe5b906000526020600020906005020160030154105b156106a257600b82815481106105ec57fe5b6000918252602090912060059091020154600b80546001600160a01b039092169650908390811061061957fe5b90600052602060002090600502016003015490508087039650806009848154811061064057fe5b906000526020600020906008020160060154016009848154811061066057fe5b9060005260206000209060080201600601819055506000600b838154811061068457fe5b90600052602060002090600502016003018190555060019350610848565b600b82815481106106af57fe5b906000526020600020906005020160040154600984815481106106ce57fe5b90600052602060002090600802016005015414801561070a575086600b83815481106106f657fe5b906000526020600020906005020160030154145b1561079557600b828154811061071c57fe5b6000918252602090912060059091020154600980546001600160a01b03909216965088925082918590811061074d57fe5b906000526020600020906008020160060154016009848154811061076d57fe5b906000526020600020906008020160060181905550600096506000600b838154811061068457fe5b600b82815481106107a257fe5b6000918252602090912060059091020154600980546001600160a01b0390921696508892508291859081106107d357fe5b90600052602060002090600802016006015401600984815481106107f357fe5b906000526020600020906008020160060181905550600081600b848154811061081857fe5b906000526020600020906005020160030154039050600b838154811061083a57fe5b506000908152975060019450505b8315610976576040805160a0810182526001600160a01b038089168252878116602083019081529282018b8152606083018e815260808401868152600c8054600181018255600091909152945160059095027fdf6966c971051c3d54ec59162606531493a51404a002842f56009d7e5cf4a8c7810180549686166001600160a01b031997881617905595517fdf6966c971051c3d54ec59162606531493a51404a002842f56009d7e5cf4a8c88701805491909516951694909417909255517fdf6966c971051c3d54ec59162606531493a51404a002842f56009d7e5cf4a8c9840155517fdf6966c971051c3d54ec59162606531493a51404a002842f56009d7e5cf4a8ca830155517fdf6966c971051c3d54ec59162606531493a51404a002842f56009d7e5cf4a8cb909101555b600b828154811061098357fe5b90600052602060002090600502016003015460001415610a4b57600b5460011015610a3657600b805460001981019081106109ba57fe5b9060005260206000209060050201600b83815481106109d557fe5b60009182526020909120825460059092020180546001600160a01b039283166001600160a01b031991821617825560018085015490830180549190941691161790915560028083015490820155600380830154908201556004918201549101555b600b805490610a499060001983016131ca565b505b8615610a5d5760001990910190610a63565b50610a6c565b50600101610563565b505b60010161047b565b5050505050505050565b60008060008060008060098781548110610a9657fe5b6000918252602090912060089091020160018101548154600283015460038401546004909401546001600160a01b039384169c939092169a50985091965090945092505050565b60008060008060008060008060068981548110610af657fe5b6000918252602090912060016007909202019081015481546002830154600380850154600486015460068701549697506001600160a01b03958616969490951694929390929160ff90911690811115610b4b57fe5b600590960154949e939d50919b50995097509195509350915050565b336000805b600754811015610f4e57826001600160a01b031660078281548110610b8d57fe5b60009182526020909120600790910201546001600160a01b0316148015610be25750600060078281548110610bbe57fe5b600091825260209091206006600790920201015460ff166003811115610be057fe5b145b15610f46576009604051806101000160405280856001600160a01b0316815260200160078481548110610c1157fe5b906000526020600020906007020160010160009054906101000a90046001600160a01b03166001600160a01b0316815260200160078481548110610c5157fe5b906000526020600020906007020160020154815260200160078481548110610c7557fe5b906000526020600020906007020160030154815260200160078481548110610c9957fe5b906000526020600020906007020160040154815260200160078481548110610cbd57fe5b906000526020600020906007020160050154815260200184815260200160016003811115610ce757fe5b9052815460018082018085556000948552602094859020845160089094020180546001600160a01b03199081166001600160a01b039586161782559585015181840180549097169416939093179094556040830151600283015560608301516003808401919091556080840151600484015560a0840151600584015560c0840151600684015560e08401516007840180549193909260ff19909216918490811115610d8e57fe5b0217905550505050610d9f8361182b565b826001600160a01b031660078281548110610db657fe5b906000526020600020906007020160010160009054906101000a90046001600160a01b03166001600160a01b03167fcf8e6ea5ff413bcba8e42274893fa65641c49aad91af18f4b1720b90739cf92860078481548110610e1257fe5b90600052602060002090600702016005015460078581548110610e3157fe5b906000526020600020906007020160020154604051610e51929190613af1565b60405180910390a360075460011015610f2d57600780546000198101908110610e7657fe5b906000526020600020906007020160078281548110610e9157fe5b60009182526020909120825460079092020180546001600160a01b03199081166001600160a01b0393841617825560018085015481840180549093169416939093179055600280840154908201556003808401548183015560048085015490830155600580850154908301556006808501549083018054939460ff90921693909260ff1990911691908490811115610f2557fe5b021790555050505b6007805490610f409060001983016131f6565b50610f4e565b600101610b6c565b505050565b60606009805480602002602001604051908101604052809291908181526020016000905b8282101561102457600084815260209081902060408051610100810182526008860290920180546001600160a01b03908116845260018201541693830193909352600283015490820152600380830154606083015260048301546080830152600583015460a0830152600683015460c0830152600783015491929160e084019160ff9091169081111561100657fe5b600381111561101157fe5b8152505081526020019060010190610f77565b5050505090505b90565b3360009081526001602052604090205463ffffffff166110605760405162461bcd60e51b815260040161030f90613a83565b428133600080805b600954811015610a765760005b600b548110156115e7576000809050600b828154811061109157fe5b6000918252602090912060059091020154600980546001600160a01b0390921691859081106110bc57fe5b60009182526020909120600160089092020101546001600160a01b0316148015611103575089600984815481106110ef57fe5b906000526020600020906008020160050154145b80156111405750856001600160a01b0316600b838154811061112157fe5b60009182526020909120600160059092020101546001600160a01b0316145b80156111875750600b828154811061115457fe5b9060005260206000209060050201600401546009848154811061117357fe5b906000526020600020906008020160050154145b156115de57876009848154811061119a57fe5b90600052602060002090600802016003015411156111ca5760405162461bcd60e51b815260040161030f90613a63565b87600984815481106111d857fe5b90600052602060002090600802016004015410156112085760405162461bcd60e51b815260040161030f90613a93565b86600b838154811061121657fe5b906000526020600020906005020160030154101561139c57600b828154811061123b57fe5b6000918252602090912060059091020154600b80546001600160a01b039092169650908390811061126857fe5b90600052602060002090600502016003015490508087039650806009848154811061128f57fe5b90600052602060002090600802016006015401600984815481106112af57fe5b9060005260206000209060080201600601819055506000600b83815481106112d357fe5b6000918252602090912060036005909202010155600b546001945084101561138357600b8054600019810190811061130757fe5b9060005260206000209060050201600b838154811061132257fe5b60009182526020909120825460059092020180546001600160a01b039283166001600160a01b031991821617825560018085015490830180549190941691161790915560028083015490820155600380830154908201556004918201549101555b600b8054906113969060001983016131ca565b50611507565b86600b83815481106113aa57fe5b906000526020600020906005020160030154141561144857600b82815481106113cf57fe5b6000918252602090912060059091020154600980546001600160a01b03909216965088925082918590811061140057fe5b906000526020600020906008020160060154016009848154811061142057fe5b906000526020600020906008020160060181905550600096506000600b83815481106112d357fe5b600b828154811061145557fe5b6000918252602090912060059091020154600980546001600160a01b03909216965088925082918590811061148657fe5b90600052602060002090600802016006015401600984815481106114a657fe5b90600052602060002090600802016006018190555086600b83815481106114c957fe5b90600052602060002090600502016003015403600b83815481106114e957fe5b90600052602060002090600502016003018190555060009650600193505b83156115d357600c6040518060a00160405280886001600160a01b03168152602001876001600160a01b031681526020018a8152602001600b858154811061154b57fe5b6000918252602080832060059283020160049081015485529381018790528554600180820188559684529281902085519390920290910180546001600160a01b03199081166001600160a01b03948516178255918501519581018054909216959092169490941790935560408201516002840155606082015160038401556080909101519101555b866115de57506115e7565b50600101611075565b50600101611068565b600b5490565b6060600b805480602002602001604051908101604052809291908181526020016000905b828210156110245760008481526020908190206040805160a0810182526005860290920180546001600160a01b0390811684526001808301549091168486015260028201549284019290925260038101546060840152600401546080830152908352909201910161161a565b3360009081526020819052604090205460ff166116b55760405162461bcd60e51b815260040161030f90613ab3565b336116c060036131b9565b60006116cc60036131c2565b90508383116116ed5760405162461bcd60e51b815260040161030f90613ad3565b60066040518060e0016040528060006001600160a01b03168152602001846001600160a01b031681526020018781526020018681526020018581526020018381526020016000600381111561173e57fe5b9052815460018082018085556000948552602094859020845160079094020180546001600160a01b03199081166001600160a01b039586161782559585015181840180549097169416939093179094556040830151600283015560608301516003808401919091556080840151600484015560a0840151600584015560c08401516006840180549193909260ff199092169184908111156117db57fe5b0217905550505050816001600160a01b03167fde0e5567d8d6d630907264bdac08cd46c86e8d6a570e0321de2ca45c49f1a2a58660405161181c9190613ae3565b60405180910390a25050505050565b60016040516001600160a01b038316907f7420b8b978434d1ce66c980ff580761f988dfca7b96378123d4717285774382c90600090a25b6001600160a01b03919091166000908152600160205260409020805463ffffffff191663ffffffff909216919091179055565b3360009081526020819052604090205460ff166118c45760405162461bcd60e51b815260040161030f90613ab3565b338383116118e45760405162461bcd60e51b815260040161030f90613ad3565b60076040518060e00160405280886001600160a01b03168152602001836001600160a01b031681526020018781526020018681526020018581526020018481526020016000600381111561193457fe5b9052815460018082018085556000948552602094859020845160079094020180546001600160a01b03199081166001600160a01b039586161782559585015181840180549097169416939093179094556040830151600283015560608301516003808401919091556080840151600484015560a0840151600584015560c08401516006840180549193909260ff199092169184908111156119d157fe5b0217905550505050856001600160a01b0316816001600160a01b03167fe5f6de6be46b3d18e2732cec03e0f49a195edd700544c4f17a2ca9a55de691cd87604051611a1c9190613ae3565b60405180910390a3505050505050565b4260005b600954811015610f4e578260098281548110611a4857fe5b906000526020600020906008020160050154148015611a8457508160098281548110611a7057fe5b906000526020600020906008020160040154105b15611e8c57600360098281548110611a9857fe5b60009182526020909120600760089092020101805460ff19166001836003811115611abf57fe5b021790555060066040518060e0016040528060098481548110611ade57fe5b6000918252602091829020600890910201546001600160a01b0316825260098054929091019185908110611b0e57fe5b6000918252602091829020600160089092020101546001600160a01b0316825260098054929091019185908110611b4157fe5b906000526020600020906008020160020154815260200160098481548110611b6557fe5b906000526020600020906008020160030154815260200160098481548110611b8957fe5b906000526020600020906008020160040154815260200160098481548110611bad57fe5b60009182526020918290206005600890920201015482520160039052815460018082018085556000948552602094859020845160079094020180546001600160a01b03199081166001600160a01b039586161782559585015181840180549097169416939093179094556040830151600283015560608301516003808401919091556080840151600484015560a0840151600584015560c08401516006840180549193909260ff19909216918490811115611c6457fe5b0217905550505050611c9b60098281548110611c7c57fe5b60009182526020909120600890910201546001600160a01b03166131b2565b60098181548110611ca857fe5b6000918252602090912060089091020154600980546001600160a01b039092169183908110611cd357fe5b906000526020600020906008020160010160009054906101000a90046001600160a01b03166001600160a01b03167fc3384a2daef78f9743d45a2f054a32d11ee7ef405de6fd4724ec6f77ba049f7860098481548110611d2f57fe5b90600052602060002090600802016003015460098581548110611d4e57fe5b90600052602060002090600802016004015460098681548110611d6d57fe5b6000918252602090912060076008909202010154604051611d9393929160ff1690613b0c565b60405180910390a360095460011015611e7957600980546000198101908110611db857fe5b906000526020600020906008020160098281548110611dd357fe5b60009182526020909120825460089092020180546001600160a01b03199081166001600160a01b039384161782556001808501548184018054909316941693909317905560028084015490820155600380840154818301556004808501549083015560058085015490830155600680850154908301556007808501549083018054939460ff90921693909260ff1990911691908490811115611e7157fe5b021790555050505b6009805490610f40906000198301613222565b600101611a30565b60606007805480602002602001604051908101604052809291908181526020016000905b828210156110245760008481526020908190206040805160e0810182526007860290920180546001600160a01b03908116845260018201541693830193909352600283015490820152600380830154606083015260048301546080830152600583015460a0830152600683015491929160c084019160ff90911690811115611f3c57fe5b6003811115611f4757fe5b8152505081526020019060010190611eb8565b6060600c80548060200260200160405190810160405280929190818152602001600090828210156110245760008481526020908190206040805160a0810182526005860290920180546001600160a01b0390811684526001808301549091168486015260028201549284019290925260038101546060840152600401546080830152908352909201910161161a565b604051339081907f769268709e630d5b24d4c651adeae2d7a75c3dd7c3876275233e21570be22fd490600090a26001600160a01b03166000908152602081905260409020805460ff19166001179055565b60606006805480602002602001604051908101604052809291908181526020016000905b828210156110245760008481526020908190206040805160e0810182526007860290920180546001600160a01b03908116845260018201541693830193909352600283015490820152600380830154606083015260048301546080830152600583015460a0830152600683015491929160c084019160ff909116908111156120e257fe5b60038111156120ed57fe5b815250508152602001906001019061205e565b600033815b600654811015610f4e57816001600160a01b03166006828154811061212657fe5b60009182526020909120600160079092020101546001600160a01b031614156121615760405162461bcd60e51b815260040161030f90613ac3565b60026006828154811061217057fe5b600091825260209091206006600790920201015460ff16600381111561219257fe5b14156121b05760405162461bcd60e51b815260040161030f90613a73565b6000600682815481106121bf57fe5b600091825260209091206006600790920201015460ff1660038111156121e157fe5b1415612529576009604051806101000160405280846001600160a01b031681526020016006848154811061221157fe5b6000918252602091829020600160079092020101546001600160a01b031682526006805492909101918590811061224457fe5b90600052602060002090600702016002015481526020016006848154811061226857fe5b90600052602060002090600702016003015481526020016006848154811061228c57fe5b9060005260206000209060070201600401548152602001600684815481106122b057fe5b9060005260206000209060070201600501548152602001858152602001600160038111156122da57fe5b9052815460018082018085556000948552602094859020845160089094020180546001600160a01b03199081166001600160a01b039586161782559585015181840180549097169416939093179094556040830151600283015560608301516003808401919091556080840151600484015560a0840151600584015560c0840151600684015560e08401516007840180549193909260ff1990921691849081111561238157fe5b02179055505050506123928261182b565b6006818154811061239f57fe5b6000918252602090912060016007909202010154600680546001600160a01b0390921691839081106123cd57fe5b6000918252602090912060079091020154600680546001600160a01b03909216917f5e51fbd7f7e38ee6927fb25d7e32916c08f102ece1d3d65df27ec76e3a43c3a791908590811061241b57fe5b90600052602060002090600702016005015460405161243a9190613ae3565b60405180910390a3600654600110156125165760068054600019810190811061245f57fe5b90600052602060002090600702016006828154811061247a57fe5b60009182526020909120825460079092020180546001600160a01b03199081166001600160a01b0393841617825560018085015481840180549093169416939093179055600280840154908201556003808401548183015560048085015490830155600580850154908301556006808501549083018054939460ff90921693909260ff199091169190849081111561250e57fe5b021790555050505b6006805490610f409060001983016131f6565b600101612105565b604051339081907f0bb6d68f109745f7ae353e3b90fff6fb8245c34cca44f18d9dfa00e4d705fa6490600090a26001600160a01b03166000908152602081905260409020805460ff19169055565b3360009081526001602052604090205463ffffffff166125b15760405162461bcd60e51b815260040161030f90613a83565b423360005b60095481101561294a5760005b600b54811015612941576000809050600b82815481106125df57fe5b6000918252602090912060059091020154600980546001600160a01b03909216918590811061260a57fe5b60009182526020909120600160089092020101546001600160a01b03161480156126515750856009848154811061263d57fe5b906000526020600020906008020160050154145b80156126985750600b828154811061266557fe5b9060005260206000209060050201600401546009848154811061268457fe5b906000526020600020906008020160050154145b1561285e5784600984815481106126ab57fe5b90600052602060002090600802016003015411156126db5760405162461bcd60e51b815260040161030f90613a63565b84600984815481106126e957fe5b90600052602060002090600802016004015410156127195760405162461bcd60e51b815260040161030f90613a93565b600b828154811061272657fe5b9060005260206000209060050201600301549050806009848154811061274857fe5b906000526020600020906008020160060154016009848154811061276857fe5b9060005260206000209060080201600601819055506000600b838154811061278c57fe5b906000526020600020906005020160030181905550600c6040518060a00160405280866001600160a01b03168152602001600b85815481106127ca57fe5b60009182526020808320600592830201546001600160a01b0390811685528482018c905260408086018e90526060958601899052875460018181018a559886529483902087519590940290930180549482166001600160a01b031995861617815591860151968201805497909116969093169590951790915582015160028401558101516003830155608001516004909101555b600b828154811061286b57fe5b9060005260206000209060050201600301546000141561293857600b546001101561291e57600b805460001981019081106128a257fe5b9060005260206000209060050201600b83815481106128bd57fe5b60009182526020909120825460059092020180546001600160a01b039283166001600160a01b031991821617825560018085015490830180549190941691161790915560028083015490820155600380830154908201556004918201549101555b600b8054906129319060001983016131ca565b5050612941565b506001016125c3565b506001016125b6565b50505050565b60008033815b60065481101561294a5760005b600654811015612dac576006828154811061297a57fe5b9060005260206000209060070201600201546006828154811061299957fe5b9060005260206000209060070201600201541015612cb1576000600682815481106129c057fe5b600091825260209091206006600790920201015460ff1660038111156129e257fe5b146129ff5760405162461bcd60e51b815260040161030f90613aa3565b826001600160a01b031660068281548110612a1657fe5b60009182526020909120600160079092020101546001600160a01b03161415612a515760405162461bcd60e51b815260040161030f90613ac3565b6009604051806101000160405280856001600160a01b0316815260200160068481548110612a7b57fe5b6000918252602091829020600160079092020101546001600160a01b0316825260068054929091019185908110612aae57fe5b906000526020600020906007020160020154815260200160068481548110612ad257fe5b906000526020600020906007020160030154815260200160068481548110612af657fe5b906000526020600020906007020160040154815260200160068481548110612b1a57fe5b906000526020600020906007020160050154815260200187815260200160016003811115612b4457fe5b9052815460018082018085556000948552602094859020845160089094020180546001600160a01b03199081166001600160a01b039586161782559585015181840180549097169416939093179094556040830151600283015560608301516003808401919091556080840151600484015560a0840151600584015560c0840151600684015560e08401516007840180549193909260ff19909216918490811115612beb57fe5b0217905550505050612bfc8361182b565b6001935060068181548110612c0d57fe5b6000918252602090912060016007909202010154600680546001600160a01b039092169183908110612c3b57fe5b6000918252602090912060079091020154600680546001600160a01b03909216917f5e51fbd7f7e38ee6927fb25d7e32916c08f102ece1d3d65df27ec76e3a43c3a7919085908110612c8957fe5b906000526020600020906007020160050154604051612ca89190613ae3565b60405180910390a35b8315612da45760065460011015612d8b57600680546000198101908110612cd457fe5b906000526020600020906007020160068281548110612cef57fe5b60009182526020909120825460079092020180546001600160a01b03199081166001600160a01b0393841617825560018085015481840180549093169416939093179055600280840154908201556003808401548183015560048085015490830155600580850154908301556006808501549083018054939460ff90921693909260ff1990911691908490811115612d8357fe5b021790555050505b6006805490612d9e9060001983016131f6565b50612dac565b600101612963565b508215612db85761294a565b600060068281548110612dc757fe5b600091825260209091206006600790920201015460ff166003811115612de957fe5b14612e065760405162461bcd60e51b815260040161030f90613aa3565b816001600160a01b031660068281548110612e1d57fe5b60009182526020909120600160079092020101546001600160a01b03161415612e585760405162461bcd60e51b815260040161030f90613ac3565b6009604051806101000160405280846001600160a01b0316815260200160068481548110612e8257fe5b6000918252602091829020600160079092020101546001600160a01b0316825260068054929091019185908110612eb557fe5b906000526020600020906007020160020154815260200160068481548110612ed957fe5b906000526020600020906007020160030154815260200160068481548110612efd57fe5b906000526020600020906007020160040154815260200160068481548110612f2157fe5b906000526020600020906007020160050154815260200186815260200160016003811115612f4b57fe5b9052815460018082018085556000948552602094859020845160089094020180546001600160a01b03199081166001600160a01b039586161782559585015181840180549097169416939093179094556040830151600283015560608301516003808401919091556080840151600484015560a0840151600584015560c0840151600684015560e08401516007840180549193909260ff19909216918490811115612ff257fe5b02179055505050506130038261182b565b600192506006818154811061301457fe5b6000918252602090912060016007909202010154600680546001600160a01b03909216918390811061304257fe5b6000918252602090912060079091020154600680546001600160a01b03909216917f5e51fbd7f7e38ee6927fb25d7e32916c08f102ece1d3d65df27ec76e3a43c3a791908590811061309057fe5b9060005260206000209060070201600501546040516130af9190613ae3565b60405180910390a382156131aa5760065460011015613191576006805460001981019081106130da57fe5b9060005260206000209060070201600682815481106130f557fe5b60009182526020909120825460079092020180546001600160a01b03199081166001600160a01b0393841617825560018085015481840180549093169416939093179055600280840154908201556003808401548183015560048085015490830155600580850154908301556006808501549083018054939460ff90921693909260ff199091169190849081111561318957fe5b021790555050505b60068054906131a49060001983016131f6565b5061294a565b600101612956565b6000611862565b80546001019055565b80545b919050565b815481835581811115610f4e57600502816005028360005260206000209182019101610f4e919061324e565b815481835581811115610f4e57600702816007028360005260206000209182019101610f4e9190613298565b815481835581811115610f4e57600802816008028360005260206000209182019101610f4e91906132f1565b61102b91905b808211156132945780546001600160a01b031990811682556001820180549091169055600060028201819055600382018190556004820155600501613254565b5090565b61102b91905b808211156132945780546001600160a01b0319908116825560018201805490911690556000600282018190556003820181905560048201819055600582015560068101805460ff1916905560070161329e565b61102b91905b808211156132945780546001600160a01b031990811682556001820180549091169055600060028201819055600382018190556004820181905560058201819055600682015560078101805460ff191690556008016132f7565b803561335c81613b80565b92915050565b803561335c81613b94565b60006020828403121561337f57600080fd5b600061338b8484613351565b949350505050565b6000806000606084860312156133a857600080fd5b60006133b48686613351565b93505060206133c586828701613362565b92505060406133d686828701613362565b9150509250925092565b600080600080600060a086880312156133f857600080fd5b60006134048888613351565b955050602061341588828901613362565b945050604061342688828901613362565b935050606061343788828901613362565b925050608061344888828901613362565b9150509295509295909350565b60006020828403121561346757600080fd5b600061338b8484613362565b6000806040838503121561348657600080fd5b60006134928585613362565b92505060206134a385828601613362565b9150509250929050565b6000806000606084860312156134c257600080fd5b60006133b48686613362565b60006134da83836137e8565b50506101000190565b60006134ef838361387f565b505060e00190565b60006135038383613902565b505060a00190565b61351481613b47565b82525050565b600061352582613b3a565b61352f8185613b3e565b935061353a83613b34565b8060005b8381101561356857815161355288826134ce565b975061355d83613b34565b92505060010161353e565b509495945050505050565b600061357e82613b3a565b6135888185613b3e565b935061359383613b34565b8060005b838110156135685781516135ab88826134e3565b97506135b683613b34565b925050600101613597565b60006135cc82613b3a565b6135d68185613b3e565b93506135e183613b34565b8060005b838110156135685781516135f988826134f7565b975061360483613b34565b9250506001016135e5565b600061361a82613b3a565b6136248185613b3e565b935061362f83613b34565b8060005b8381101561356857815161364788826134f7565b975061365283613b34565b925050600101613633565b61351481613b68565b6000613673601583613b3e565b74141410481a5cc81b9bdd081858dd1a5d99481e595d605a1b815260200192915050565b60006136a4600583613b3e565b6432b93937b960d91b815260200192915050565b60006136c5600f83613b3e565b6e4f6e6c7920505041206f776e65727360881b815260200192915050565b60006136f0600f83613b3e565b6e141410481a185cc8195e1c1a5c9959608a1b815260200192915050565b600061371b601383613b3e565b7250504120646f6573206e6f742065786973747360681b815260200192915050565b600061374a601e83613b3e565b7f596f75206d75737420626520612063757272656e742050726f64756365720000815260200192915050565b6000613783601383613b3e565b722bb937b7339030b2323932b9b990313abcb2b960691b815260200192915050565b60006137b2602183613b3e565b7f4974277320696d706f737369626c6520656e64446179203c20737461727444618152607960f81b602082015260400192915050565b80516101008301906137fa848261350b565b50602082015161380d602085018261350b565b506040820151613820604085018261395b565b506060820151613833606085018261395b565b506080820151613846608085018261395b565b5060a082015161385960a085018261395b565b5060c082015161386c60c085018261395b565b5060e082015161294a60e085018261365d565b805160e0830190613890848261350b565b5060208201516138a3602085018261350b565b5060408201516138b6604085018261395b565b5060608201516138c9606085018261395b565b5060808201516138dc608085018261395b565b5060a08201516138ef60a085018261395b565b5060c082015161294a60c085018261365d565b805160a0830190613913848261350b565b506020820151613926602085018261350b565b506040820151613939604085018261395b565b50606082015161394c606085018261395b565b50608082015161294a60808501825b6135148161102b565b60a08101613972828861350b565b61397f602083018761350b565b61398c604083018661395b565b613999606083018561395b565b6139a6608083018461395b565b9695505050505050565b60e081016139be828a61350b565b6139cb602083018961350b565b6139d8604083018861395b565b6139e5606083018761395b565b6139f2608083018661395b565b6139ff60a083018561395b565b613a0c60c083018461395b565b98975050505050505050565b60208082528101613a29818461351a565b9392505050565b60208082528101613a298184613573565b60208082528101613a2981846135c1565b60208082528101613a29818461360f565b6020808252810161335c81613666565b6020808252810161335c81613697565b6020808252810161335c816136b8565b6020808252810161335c816136e3565b6020808252810161335c8161370e565b6020808252810161335c8161373d565b6020808252810161335c81613776565b6020808252810161335c816137a5565b6020810161335c828461395b565b60408101613aff828561395b565b613a29602083018461395b565b60608101613b1a828661395b565b613b27602083018561395b565b61338b604083018461365d565b60200190565b5190565b90815260200190565b600061335c82613b5c565b806131c581613b73565b6001600160a01b031690565b600061335c82613b52565b60048110613b7d57fe5b50565b613b8981613b47565b8114613b7d57600080fd5b613b898161102b56fea365627a7a723158203fd0f111a716dd4fa26d13f3eb1158d5006311a22d497eb6deed93116dcfc4ce6c6578706572696d656e74616cf564736f6c63430005100040",
			"opcodes": "PUSH1 0x80 PUSH1 0x40 MSTORE CALLVALUE DUP1 ISZERO PUSH2 0x10 JUMPI PUSH1 0x0 DUP1 REVERT JUMPDEST POP PUSH2 0x3BE0 DUP1 PUSH2 0x20 PUSH1 0x0 CODECOPY PUSH1 0x0 RETURN INVALID PUSH1 0x80 PUSH1 0x40 MSTORE CALLVALUE DUP1 ISZERO PUSH2 0x10 JUMPI PUSH1 0x0 DUP1 REVERT JUMPDEST POP PUSH1 0x4 CALLDATASIZE LT PUSH2 0x142 JUMPI PUSH1 0x0 CALLDATALOAD PUSH1 0xE0 SHR DUP1 PUSH4 0xA910103A GT PUSH2 0xB8 JUMPI DUP1 PUSH4 0xE1B0D3C0 GT PUSH2 0x7C JUMPI DUP1 PUSH4 0xE1B0D3C0 EQ PUSH2 0x29A JUMPI DUP1 PUSH4 0xE436DB78 EQ PUSH2 0x2A2 JUMPI DUP1 PUSH4 0xEA1D381F EQ PUSH2 0x2AA JUMPI DUP1 PUSH4 0xEE566592 EQ PUSH2 0x2B2 JUMPI DUP1 PUSH4 0xF7342A22 EQ PUSH2 0x2C5 JUMPI DUP1 PUSH4 0xF791560C EQ PUSH2 0x2CD JUMPI PUSH2 0x142 JUMP JUMPDEST DUP1 PUSH4 0xA910103A EQ PUSH2 0x242 JUMPI DUP1 PUSH4 0xAC5AFA4E EQ PUSH2 0x255 JUMPI DUP1 PUSH4 0xB3C77203 EQ PUSH2 0x268 JUMPI DUP1 PUSH4 0xB5B5DCC1 EQ PUSH2 0x27D JUMPI DUP1 PUSH4 0xDBDF0C21 EQ PUSH2 0x292 JUMPI PUSH2 0x142 JUMP JUMPDEST DUP1 PUSH4 0x5A604165 GT PUSH2 0x10A JUMPI DUP1 PUSH4 0x5A604165 EQ PUSH2 0x1CA JUMPI DUP1 PUSH4 0x6A138A4A EQ PUSH2 0x1DF JUMPI DUP1 PUSH4 0x6D36A6B1 EQ PUSH2 0x1F2 JUMPI DUP1 PUSH4 0x877B0FDE EQ PUSH2 0x207 JUMPI DUP1 PUSH4 0x8A28410B EQ PUSH2 0x21C JUMPI DUP1 PUSH4 0x9D88DF62 EQ PUSH2 0x22F JUMPI PUSH2 0x142 JUMP JUMPDEST DUP1 PUSH4 0x1383ECBA EQ PUSH2 0x147 JUMPI DUP1 PUSH4 0x1F5E377F EQ PUSH2 0x15C JUMPI DUP1 PUSH4 0x22E5EF3D EQ PUSH2 0x16F JUMPI DUP1 PUSH4 0x25163D5D EQ PUSH2 0x19C JUMPI DUP1 PUSH4 0x3D833914 EQ PUSH2 0x1C2 JUMPI JUMPDEST PUSH1 0x0 DUP1 REVERT JUMPDEST PUSH2 0x15A PUSH2 0x155 CALLDATASIZE PUSH1 0x4 PUSH2 0x3393 JUMP JUMPDEST PUSH2 0x2E0 JUMP JUMPDEST STOP JUMPDEST PUSH2 0x15A PUSH2 0x16A CALLDATASIZE PUSH1 0x4 PUSH2 0x3473 JUMP JUMPDEST PUSH2 0x441 JUMP JUMPDEST PUSH2 0x182 PUSH2 0x17D CALLDATASIZE PUSH1 0x4 PUSH2 0x3455 JUMP JUMPDEST PUSH2 0xA80 JUMP JUMPDEST PUSH1 0x40 MLOAD PUSH2 0x193 SWAP6 SWAP5 SWAP4 SWAP3 SWAP2 SWAP1 PUSH2 0x3964 JUMP JUMPDEST PUSH1 0x40 MLOAD DUP1 SWAP2 SUB SWAP1 RETURN JUMPDEST PUSH2 0x1AF PUSH2 0x1AA CALLDATASIZE PUSH1 0x4 PUSH2 0x3455 JUMP JUMPDEST PUSH2 0xADD JUMP JUMPDEST PUSH1 0x40 MLOAD PUSH2 0x193 SWAP8 SWAP7 SWAP6 SWAP5 SWAP4 SWAP3 SWAP2 SWAP1 PUSH2 0x39B0 JUMP JUMPDEST PUSH2 0x15A PUSH2 0xB67 JUMP JUMPDEST PUSH2 0x1D2 PUSH2 0xF53 JUMP JUMPDEST PUSH1 0x40 MLOAD PUSH2 0x193 SWAP2 SWAP1 PUSH2 0x3A18 JUMP JUMPDEST PUSH2 0x15A PUSH2 0x1ED CALLDATASIZE PUSH1 0x4 PUSH2 0x3473 JUMP JUMPDEST PUSH2 0x102E JUMP JUMPDEST PUSH2 0x1FA PUSH2 0x15F0 JUMP JUMPDEST PUSH1 0x40 MLOAD PUSH2 0x193 SWAP2 SWAP1 PUSH2 0x3AE3 JUMP JUMPDEST PUSH2 0x20F PUSH2 0x15F6 JUMP JUMPDEST PUSH1 0x40 MLOAD PUSH2 0x193 SWAP2 SWAP1 PUSH2 0x3A41 JUMP JUMPDEST PUSH2 0x15A PUSH2 0x22A CALLDATASIZE PUSH1 0x4 PUSH2 0x34AD JUMP JUMPDEST PUSH2 0x1686 JUMP JUMPDEST PUSH2 0x15A PUSH2 0x23D CALLDATASIZE PUSH1 0x4 PUSH2 0x336D JUMP JUMPDEST PUSH2 0x182B JUMP JUMPDEST PUSH2 0x15A PUSH2 0x250 CALLDATASIZE PUSH1 0x4 PUSH2 0x33E0 JUMP JUMPDEST PUSH2 0x1895 JUMP JUMPDEST PUSH2 0x15A PUSH2 0x263 CALLDATASIZE PUSH1 0x4 PUSH2 0x3455 JUMP JUMPDEST PUSH2 0x1A2C JUMP JUMPDEST PUSH2 0x270 PUSH2 0x1E94 JUMP JUMPDEST PUSH1 0x40 MLOAD PUSH2 0x193 SWAP2 SWAP1 PUSH2 0x3A30 JUMP JUMPDEST PUSH2 0x285 PUSH2 0x1F5A JUMP JUMPDEST PUSH1 0x40 MLOAD PUSH2 0x193 SWAP2 SWAP1 PUSH2 0x3A52 JUMP JUMPDEST PUSH2 0x15A PUSH2 0x1FE9 JUMP JUMPDEST PUSH2 0x270 PUSH2 0x203A JUMP JUMPDEST PUSH2 0x15A PUSH2 0x2100 JUMP JUMPDEST PUSH2 0x15A PUSH2 0x2531 JUMP JUMPDEST PUSH2 0x15A PUSH2 0x2C0 CALLDATASIZE PUSH1 0x4 PUSH2 0x3455 JUMP JUMPDEST PUSH2 0x257F JUMP JUMPDEST PUSH2 0x15A PUSH2 0x2950 JUMP JUMPDEST PUSH2 0x15A PUSH2 0x2DB CALLDATASIZE PUSH1 0x4 PUSH2 0x336D JUMP JUMPDEST PUSH2 0x31B2 JUMP JUMPDEST CALLER PUSH1 0x0 SWAP1 DUP2 MSTORE PUSH1 0x20 DUP2 SWAP1 MSTORE PUSH1 0x40 SWAP1 KECCAK256 SLOAD PUSH1 0xFF AND PUSH2 0x318 JUMPI PUSH1 0x40 MLOAD PUSH3 0x461BCD PUSH1 0xE5 SHL DUP2 MSTORE PUSH1 0x4 ADD PUSH2 0x30F SWAP1 PUSH2 0x3AB3 JUMP JUMPDEST PUSH1 0x40 MLOAD DUP1 SWAP2 SUB SWAP1 REVERT JUMPDEST PUSH1 0x40 DUP1 MLOAD PUSH1 0xA0 DUP2 ADD DUP3 MSTORE CALLER DUP2 MSTORE PUSH1 0x1 PUSH1 0x1 PUSH1 0xA0 SHL SUB SWAP5 DUP6 AND PUSH1 0x20 DUP3 ADD SWAP1 DUP2 MSTORE TIMESTAMP SWAP3 DUP3 ADD SWAP3 DUP4 MSTORE PUSH1 0x60 DUP3 ADD SWAP5 DUP6 MSTORE PUSH1 0x80 DUP3 ADD SWAP4 DUP5 MSTORE PUSH1 0xB DUP1 SLOAD PUSH1 0x1 DUP2 ADD DUP3 SSTORE PUSH1 0x0 SWAP2 SWAP1 SWAP2 MSTORE SWAP2 MLOAD PUSH1 0x5 SWAP1 SWAP3 MUL PUSH32 0x175B7A638427703F0DBE7BB9BBF987A2551717B34E79F33B5B1008D1FA01DB9 DUP2 ADD DUP1 SLOAD SWAP4 DUP9 AND PUSH1 0x1 PUSH1 0x1 PUSH1 0xA0 SHL SUB NOT SWAP5 DUP6 AND OR SWAP1 SSTORE SWAP1 MLOAD PUSH32 0x175B7A638427703F0DBE7BB9BBF987A2551717B34E79F33B5B1008D1FA01DBA DUP3 ADD DUP1 SLOAD SWAP2 SWAP1 SWAP8 AND SWAP3 AND SWAP2 SWAP1 SWAP2 OR SWAP1 SWAP5 SSTORE MLOAD PUSH32 0x175B7A638427703F0DBE7BB9BBF987A2551717B34E79F33B5B1008D1FA01DBB DUP5 ADD SSTORE SWAP1 MLOAD PUSH32 0x175B7A638427703F0DBE7BB9BBF987A2551717B34E79F33B5B1008D1FA01DBC DUP4 ADD SSTORE MLOAD PUSH32 0x175B7A638427703F0DBE7BB9BBF987A2551717B34E79F33B5B1008D1FA01DBD SWAP1 SWAP2 ADD SSTORE JUMP JUMPDEST CALLER PUSH1 0x0 SWAP1 DUP2 MSTORE PUSH1 0x1 PUSH1 0x20 MSTORE PUSH1 0x40 SWAP1 KECCAK256 SLOAD PUSH4 0xFFFFFFFF AND PUSH2 0x473 JUMPI PUSH1 0x40 MLOAD PUSH3 0x461BCD PUSH1 0xE5 SHL DUP2 MSTORE PUSH1 0x4 ADD PUSH2 0x30F SWAP1 PUSH2 0x3A83 JUMP JUMPDEST TIMESTAMP DUP2 CALLER PUSH1 0x0 DUP1 DUP1 JUMPDEST PUSH1 0x9 SLOAD DUP2 LT ISZERO PUSH2 0xA76 JUMPI DUP8 PUSH1 0x9 DUP3 DUP2 SLOAD DUP2 LT PUSH2 0x493 JUMPI INVALID JUMPDEST SWAP1 PUSH1 0x0 MSTORE PUSH1 0x20 PUSH1 0x0 KECCAK256 SWAP1 PUSH1 0x8 MUL ADD PUSH1 0x5 ADD SLOAD EQ DUP1 ISZERO PUSH2 0x4E0 JUMPI POP DUP4 PUSH1 0x1 PUSH1 0x1 PUSH1 0xA0 SHL SUB AND PUSH1 0x9 DUP3 DUP2 SLOAD DUP2 LT PUSH2 0x4C4 JUMPI INVALID JUMPDEST PUSH1 0x0 SWAP2 DUP3 MSTORE PUSH1 0x20 SWAP1 SWAP2 KECCAK256 PUSH1 0x8 SWAP1 SWAP2 MUL ADD SLOAD PUSH1 0x1 PUSH1 0x1 PUSH1 0xA0 SHL SUB AND EQ JUMPDEST ISZERO PUSH2 0xA6E JUMPI DUP6 PUSH1 0x9 DUP3 DUP2 SLOAD DUP2 LT PUSH2 0x4F3 JUMPI INVALID JUMPDEST SWAP1 PUSH1 0x0 MSTORE PUSH1 0x20 PUSH1 0x0 KECCAK256 SWAP1 PUSH1 0x8 MUL ADD PUSH1 0x3 ADD SLOAD GT ISZERO PUSH2 0x523 JUMPI PUSH1 0x40 MLOAD PUSH3 0x461BCD PUSH1 0xE5 SHL DUP2 MSTORE PUSH1 0x4 ADD PUSH2 0x30F SWAP1 PUSH2 0x3A63 JUMP JUMPDEST DUP6 PUSH1 0x9 DUP3 DUP2 SLOAD DUP2 LT PUSH2 0x531 JUMPI INVALID JUMPDEST SWAP1 PUSH1 0x0 MSTORE PUSH1 0x20 PUSH1 0x0 KECCAK256 SWAP1 PUSH1 0x8 MUL ADD PUSH1 0x4 ADD SLOAD GT PUSH2 0x560 JUMPI PUSH1 0x40 MLOAD PUSH3 0x461BCD PUSH1 0xE5 SHL DUP2 MSTORE PUSH1 0x4 ADD PUSH2 0x30F SWAP1 PUSH2 0x3A93 JUMP JUMPDEST PUSH1 0x0 JUMPDEST PUSH1 0xB SLOAD DUP2 LT ISZERO PUSH2 0xA6C JUMPI PUSH1 0x0 DUP1 SWAP1 POP PUSH1 0xB DUP3 DUP2 SLOAD DUP2 LT PUSH2 0x57F JUMPI INVALID JUMPDEST SWAP1 PUSH1 0x0 MSTORE PUSH1 0x20 PUSH1 0x0 KECCAK256 SWAP1 PUSH1 0x5 MUL ADD PUSH1 0x4 ADD SLOAD PUSH1 0x9 DUP5 DUP2 SLOAD DUP2 LT PUSH2 0x59E JUMPI INVALID JUMPDEST SWAP1 PUSH1 0x0 MSTORE PUSH1 0x20 PUSH1 0x0 KECCAK256 SWAP1 PUSH1 0x8 MUL ADD PUSH1 0x5 ADD SLOAD EQ DUP1 ISZERO PUSH2 0x5DA JUMPI POP DUP7 PUSH1 0xB DUP4 DUP2 SLOAD DUP2 LT PUSH2 0x5C6 JUMPI INVALID JUMPDEST SWAP1 PUSH1 0x0 MSTORE PUSH1 0x20 PUSH1 0x0 KECCAK256 SWAP1 PUSH1 0x5 MUL ADD PUSH1 0x3 ADD SLOAD LT JUMPDEST ISZERO PUSH2 0x6A2 JUMPI PUSH1 0xB DUP3 DUP2 SLOAD DUP2 LT PUSH2 0x5EC JUMPI INVALID JUMPDEST PUSH1 0x0 SWAP2 DUP3 MSTORE PUSH1 0x20 SWAP1 SWAP2 KECCAK256 PUSH1 0x5 SWAP1 SWAP2 MUL ADD SLOAD PUSH1 0xB DUP1 SLOAD PUSH1 0x1 PUSH1 0x1 PUSH1 0xA0 SHL SUB SWAP1 SWAP3 AND SWAP7 POP SWAP1 DUP4 SWAP1 DUP2 LT PUSH2 0x619 JUMPI INVALID JUMPDEST SWAP1 PUSH1 0x0 MSTORE PUSH1 0x20 PUSH1 0x0 KECCAK256 SWAP1 PUSH1 0x5 MUL ADD PUSH1 0x3 ADD SLOAD SWAP1 POP DUP1 DUP8 SUB SWAP7 POP DUP1 PUSH1 0x9 DUP5 DUP2 SLOAD DUP2 LT PUSH2 0x640 JUMPI INVALID JUMPDEST SWAP1 PUSH1 0x0 MSTORE PUSH1 0x20 PUSH1 0x0 KECCAK256 SWAP1 PUSH1 0x8 MUL ADD PUSH1 0x6 ADD SLOAD ADD PUSH1 0x9 DUP5 DUP2 SLOAD DUP2 LT PUSH2 0x660 JUMPI INVALID JUMPDEST SWAP1 PUSH1 0x0 MSTORE PUSH1 0x20 PUSH1 0x0 KECCAK256 SWAP1 PUSH1 0x8 MUL ADD PUSH1 0x6 ADD DUP2 SWAP1 SSTORE POP PUSH1 0x0 PUSH1 0xB DUP4 DUP2 SLOAD DUP2 LT PUSH2 0x684 JUMPI INVALID JUMPDEST SWAP1 PUSH1 0x0 MSTORE PUSH1 0x20 PUSH1 0x0 KECCAK256 SWAP1 PUSH1 0x5 MUL ADD PUSH1 0x3 ADD DUP2 SWAP1 SSTORE POP PUSH1 0x1 SWAP4 POP PUSH2 0x848 JUMP JUMPDEST PUSH1 0xB DUP3 DUP2 SLOAD DUP2 LT PUSH2 0x6AF JUMPI INVALID JUMPDEST SWAP1 PUSH1 0x0 MSTORE PUSH1 0x20 PUSH1 0x0 KECCAK256 SWAP1 PUSH1 0x5 MUL ADD PUSH1 0x4 ADD SLOAD PUSH1 0x9 DUP5 DUP2 SLOAD DUP2 LT PUSH2 0x6CE JUMPI INVALID JUMPDEST SWAP1 PUSH1 0x0 MSTORE PUSH1 0x20 PUSH1 0x0 KECCAK256 SWAP1 PUSH1 0x8 MUL ADD PUSH1 0x5 ADD SLOAD EQ DUP1 ISZERO PUSH2 0x70A JUMPI POP DUP7 PUSH1 0xB DUP4 DUP2 SLOAD DUP2 LT PUSH2 0x6F6 JUMPI INVALID JUMPDEST SWAP1 PUSH1 0x0 MSTORE PUSH1 0x20 PUSH1 0x0 KECCAK256 SWAP1 PUSH1 0x5 MUL ADD PUSH1 0x3 ADD SLOAD EQ JUMPDEST ISZERO PUSH2 0x795 JUMPI PUSH1 0xB DUP3 DUP2 SLOAD DUP2 LT PUSH2 0x71C JUMPI INVALID JUMPDEST PUSH1 0x0 SWAP2 DUP3 MSTORE PUSH1 0x20 SWAP1 SWAP2 KECCAK256 PUSH1 0x5 SWAP1 SWAP2 MUL ADD SLOAD PUSH1 0x9 DUP1 SLOAD PUSH1 0x1 PUSH1 0x1 PUSH1 0xA0 SHL SUB SWAP1 SWAP3 AND SWAP7 POP DUP9 SWAP3 POP DUP3 SWAP2 DUP6 SWAP1 DUP2 LT PUSH2 0x74D JUMPI INVALID JUMPDEST SWAP1 PUSH1 0x0 MSTORE PUSH1 0x20 PUSH1 0x0 KECCAK256 SWAP1 PUSH1 0x8 MUL ADD PUSH1 0x6 ADD SLOAD ADD PUSH1 0x9 DUP5 DUP2 SLOAD DUP2 LT PUSH2 0x76D JUMPI INVALID JUMPDEST SWAP1 PUSH1 0x0 MSTORE PUSH1 0x20 PUSH1 0x0 KECCAK256 SWAP1 PUSH1 0x8 MUL ADD PUSH1 0x6 ADD DUP2 SWAP1 SSTORE POP PUSH1 0x0 SWAP7 POP PUSH1 0x0 PUSH1 0xB DUP4 DUP2 SLOAD DUP2 LT PUSH2 0x684 JUMPI INVALID JUMPDEST PUSH1 0xB DUP3 DUP2 SLOAD DUP2 LT PUSH2 0x7A2 JUMPI INVALID JUMPDEST PUSH1 0x0 SWAP2 DUP3 MSTORE PUSH1 0x20 SWAP1 SWAP2 KECCAK256 PUSH1 0x5 SWAP1 SWAP2 MUL ADD SLOAD PUSH1 0x9 DUP1 SLOAD PUSH1 0x1 PUSH1 0x1 PUSH1 0xA0 SHL SUB SWAP1 SWAP3 AND SWAP7 POP DUP9 SWAP3 POP DUP3 SWAP2 DUP6 SWAP1 DUP2 LT PUSH2 0x7D3 JUMPI INVALID JUMPDEST SWAP1 PUSH1 0x0 MSTORE PUSH1 0x20 PUSH1 0x0 KECCAK256 SWAP1 PUSH1 0x8 MUL ADD PUSH1 0x6 ADD SLOAD ADD PUSH1 0x9 DUP5 DUP2 SLOAD DUP2 LT PUSH2 0x7F3 JUMPI INVALID JUMPDEST SWAP1 PUSH1 0x0 MSTORE PUSH1 0x20 PUSH1 0x0 KECCAK256 SWAP1 PUSH1 0x8 MUL ADD PUSH1 0x6 ADD DUP2 SWAP1 SSTORE POP PUSH1 0x0 DUP2 PUSH1 0xB DUP5 DUP2 SLOAD DUP2 LT PUSH2 0x818 JUMPI INVALID JUMPDEST SWAP1 PUSH1 0x0 MSTORE PUSH1 0x20 PUSH1 0x0 KECCAK256 SWAP1 PUSH1 0x5 MUL ADD PUSH1 0x3 ADD SLOAD SUB SWAP1 POP PUSH1 0xB DUP4 DUP2 SLOAD DUP2 LT PUSH2 0x83A JUMPI INVALID JUMPDEST POP PUSH1 0x0 SWAP1 DUP2 MSTORE SWAP8 POP PUSH1 0x1 SWAP5 POP POP JUMPDEST DUP4 ISZERO PUSH2 0x976 JUMPI PUSH1 0x40 DUP1 MLOAD PUSH1 0xA0 DUP2 ADD DUP3 MSTORE PUSH1 0x1 PUSH1 0x1 PUSH1 0xA0 SHL SUB DUP1 DUP10 AND DUP3 MSTORE DUP8 DUP2 AND PUSH1 0x20 DUP4 ADD SWAP1 DUP2 MSTORE SWAP3 DUP3 ADD DUP12 DUP2 MSTORE PUSH1 0x60 DUP4 ADD DUP15 DUP2 MSTORE PUSH1 0x80 DUP5 ADD DUP7 DUP2 MSTORE PUSH1 0xC DUP1 SLOAD PUSH1 0x1 DUP2 ADD DUP3 SSTORE PUSH1 0x0 SWAP2 SWAP1 SWAP2 MSTORE SWAP5 MLOAD PUSH1 0x5 SWAP1 SWAP6 MUL PUSH32 0xDF6966C971051C3D54EC59162606531493A51404A002842F56009D7E5CF4A8C7 DUP2 ADD DUP1 SLOAD SWAP7 DUP7 AND PUSH1 0x1 PUSH1 0x1 PUSH1 0xA0 SHL SUB NOT SWAP8 DUP9 AND OR SWAP1 SSTORE SWAP6 MLOAD PUSH32 0xDF6966C971051C3D54EC59162606531493A51404A002842F56009D7E5CF4A8C8 DUP8 ADD DUP1 SLOAD SWAP2 SWAP1 SWAP6 AND SWAP6 AND SWAP5 SWAP1 SWAP5 OR SWAP1 SWAP3 SSTORE MLOAD PUSH32 0xDF6966C971051C3D54EC59162606531493A51404A002842F56009D7E5CF4A8C9 DUP5 ADD SSTORE MLOAD PUSH32 0xDF6966C971051C3D54EC59162606531493A51404A002842F56009D7E5CF4A8CA DUP4 ADD SSTORE MLOAD PUSH32 0xDF6966C971051C3D54EC59162606531493A51404A002842F56009D7E5CF4A8CB SWAP1 SWAP2 ADD SSTORE JUMPDEST PUSH1 0xB DUP3 DUP2 SLOAD DUP2 LT PUSH2 0x983 JUMPI INVALID JUMPDEST SWAP1 PUSH1 0x0 MSTORE PUSH1 0x20 PUSH1 0x0 KECCAK256 SWAP1 PUSH1 0x5 MUL ADD PUSH1 0x3 ADD SLOAD PUSH1 0x0 EQ ISZERO PUSH2 0xA4B JUMPI PUSH1 0xB SLOAD PUSH1 0x1 LT ISZERO PUSH2 0xA36 JUMPI PUSH1 0xB DUP1 SLOAD PUSH1 0x0 NOT DUP2 ADD SWAP1 DUP2 LT PUSH2 0x9BA JUMPI INVALID JUMPDEST SWAP1 PUSH1 0x0 MSTORE PUSH1 0x20 PUSH1 0x0 KECCAK256 SWAP1 PUSH1 0x5 MUL ADD PUSH1 0xB DUP4 DUP2 SLOAD DUP2 LT PUSH2 0x9D5 JUMPI INVALID JUMPDEST PUSH1 0x0 SWAP2 DUP3 MSTORE PUSH1 0x20 SWAP1 SWAP2 KECCAK256 DUP3 SLOAD PUSH1 0x5 SWAP1 SWAP3 MUL ADD DUP1 SLOAD PUSH1 0x1 PUSH1 0x1 PUSH1 0xA0 SHL SUB SWAP3 DUP4 AND PUSH1 0x1 PUSH1 0x1 PUSH1 0xA0 SHL SUB NOT SWAP2 DUP3 AND OR DUP3 SSTORE PUSH1 0x1 DUP1 DUP6 ADD SLOAD SWAP1 DUP4 ADD DUP1 SLOAD SWAP2 SWAP1 SWAP5 AND SWAP2 AND OR SWAP1 SWAP2 SSTORE PUSH1 0x2 DUP1 DUP4 ADD SLOAD SWAP1 DUP3 ADD SSTORE PUSH1 0x3 DUP1 DUP4 ADD SLOAD SWAP1 DUP3 ADD SSTORE PUSH1 0x4 SWAP2 DUP3 ADD SLOAD SWAP2 ADD SSTORE JUMPDEST PUSH1 0xB DUP1 SLOAD SWAP1 PUSH2 0xA49 SWAP1 PUSH1 0x0 NOT DUP4 ADD PUSH2 0x31CA JUMP JUMPDEST POP JUMPDEST DUP7 ISZERO PUSH2 0xA5D JUMPI PUSH1 0x0 NOT SWAP1 SWAP2 ADD SWAP1 PUSH2 0xA63 JUMP JUMPDEST POP PUSH2 0xA6C JUMP JUMPDEST POP PUSH1 0x1 ADD PUSH2 0x563 JUMP JUMPDEST POP JUMPDEST PUSH1 0x1 ADD PUSH2 0x47B JUMP JUMPDEST POP POP POP POP POP POP POP POP JUMP JUMPDEST PUSH1 0x0 DUP1 PUSH1 0x0 DUP1 PUSH1 0x0 DUP1 PUSH1 0x9 DUP8 DUP2 SLOAD DUP2 LT PUSH2 0xA96 JUMPI INVALID JUMPDEST PUSH1 0x0 SWAP2 DUP3 MSTORE PUSH1 0x20 SWAP1 SWAP2 KECCAK256 PUSH1 0x8 SWAP1 SWAP2 MUL ADD PUSH1 0x1 DUP2 ADD SLOAD DUP2 SLOAD PUSH1 0x2 DUP4 ADD SLOAD PUSH1 0x3 DUP5 ADD SLOAD PUSH1 0x4 SWAP1 SWAP5 ADD SLOAD PUSH1 0x1 PUSH1 0x1 PUSH1 0xA0 SHL SUB SWAP4 DUP5 AND SWAP13 SWAP4 SWAP1 SWAP3 AND SWAP11 POP SWAP9 POP SWAP2 SWAP7 POP SWAP1 SWAP5 POP SWAP3 POP POP POP JUMP JUMPDEST PUSH1 0x0 DUP1 PUSH1 0x0 DUP1 PUSH1 0x0 DUP1 PUSH1 0x0 DUP1 PUSH1 0x6 DUP10 DUP2 SLOAD DUP2 LT PUSH2 0xAF6 JUMPI INVALID JUMPDEST PUSH1 0x0 SWAP2 DUP3 MSTORE PUSH1 0x20 SWAP1 SWAP2 KECCAK256 PUSH1 0x1 PUSH1 0x7 SWAP1 SWAP3 MUL ADD SWAP1 DUP2 ADD SLOAD DUP2 SLOAD PUSH1 0x2 DUP4 ADD SLOAD PUSH1 0x3 DUP1 DUP6 ADD SLOAD PUSH1 0x4 DUP7 ADD SLOAD PUSH1 0x6 DUP8 ADD SLOAD SWAP7 SWAP8 POP PUSH1 0x1 PUSH1 0x1 PUSH1 0xA0 SHL SUB SWAP6 DUP7 AND SWAP7 SWAP5 SWAP1 SWAP6 AND SWAP5 SWAP3 SWAP4 SWAP1 SWAP3 SWAP2 PUSH1 0xFF SWAP1 SWAP2 AND SWAP1 DUP2 GT ISZERO PUSH2 0xB4B JUMPI INVALID JUMPDEST PUSH1 0x5 SWAP1 SWAP7 ADD SLOAD SWAP5 SWAP15 SWAP4 SWAP14 POP SWAP2 SWAP12 POP SWAP10 POP SWAP8 POP SWAP2 SWAP6 POP SWAP4 POP SWAP2 POP POP JUMP JUMPDEST CALLER PUSH1 0x0 DUP1 JUMPDEST PUSH1 0x7 SLOAD DUP2 LT ISZERO PUSH2 0xF4E JUMPI DUP3 PUSH1 0x1 PUSH1 0x1 PUSH1 0xA0 SHL SUB AND PUSH1 0x7 DUP3 DUP2 SLOAD DUP2 LT PUSH2 0xB8D JUMPI INVALID JUMPDEST PUSH1 0x0 SWAP2 DUP3 MSTORE PUSH1 0x20 SWAP1 SWAP2 KECCAK256 PUSH1 0x7 SWAP1 SWAP2 MUL ADD SLOAD PUSH1 0x1 PUSH1 0x1 PUSH1 0xA0 SHL SUB AND EQ DUP1 ISZERO PUSH2 0xBE2 JUMPI POP PUSH1 0x0 PUSH1 0x7 DUP3 DUP2 SLOAD DUP2 LT PUSH2 0xBBE JUMPI INVALID JUMPDEST PUSH1 0x0 SWAP2 DUP3 MSTORE PUSH1 0x20 SWAP1 SWAP2 KECCAK256 PUSH1 0x6 PUSH1 0x7 SWAP1 SWAP3 MUL ADD ADD SLOAD PUSH1 0xFF AND PUSH1 0x3 DUP2 GT ISZERO PUSH2 0xBE0 JUMPI INVALID JUMPDEST EQ JUMPDEST ISZERO PUSH2 0xF46 JUMPI PUSH1 0x9 PUSH1 0x40 MLOAD DUP1 PUSH2 0x100 ADD PUSH1 0x40 MSTORE DUP1 DUP6 PUSH1 0x1 PUSH1 0x1 PUSH1 0xA0 SHL SUB AND DUP2 MSTORE PUSH1 0x20 ADD PUSH1 0x7 DUP5 DUP2 SLOAD DUP2 LT PUSH2 0xC11 JUMPI INVALID JUMPDEST SWAP1 PUSH1 0x0 MSTORE PUSH1 0x20 PUSH1 0x0 KECCAK256 SWAP1 PUSH1 0x7 MUL ADD PUSH1 0x1 ADD PUSH1 0x0 SWAP1 SLOAD SWAP1 PUSH2 0x100 EXP SWAP1 DIV PUSH1 0x1 PUSH1 0x1 PUSH1 0xA0 SHL SUB AND PUSH1 0x1 PUSH1 0x1 PUSH1 0xA0 SHL SUB AND DUP2 MSTORE PUSH1 0x20 ADD PUSH1 0x7 DUP5 DUP2 SLOAD DUP2 LT PUSH2 0xC51 JUMPI INVALID JUMPDEST SWAP1 PUSH1 0x0 MSTORE PUSH1 0x20 PUSH1 0x0 KECCAK256 SWAP1 PUSH1 0x7 MUL ADD PUSH1 0x2 ADD SLOAD DUP2 MSTORE PUSH1 0x20 ADD PUSH1 0x7 DUP5 DUP2 SLOAD DUP2 LT PUSH2 0xC75 JUMPI INVALID JUMPDEST SWAP1 PUSH1 0x0 MSTORE PUSH1 0x20 PUSH1 0x0 KECCAK256 SWAP1 PUSH1 0x7 MUL ADD PUSH1 0x3 ADD SLOAD DUP2 MSTORE PUSH1 0x20 ADD PUSH1 0x7 DUP5 DUP2 SLOAD DUP2 LT PUSH2 0xC99 JUMPI INVALID JUMPDEST SWAP1 PUSH1 0x0 MSTORE PUSH1 0x20 PUSH1 0x0 KECCAK256 SWAP1 PUSH1 0x7 MUL ADD PUSH1 0x4 ADD SLOAD DUP2 MSTORE PUSH1 0x20 ADD PUSH1 0x7 DUP5 DUP2 SLOAD DUP2 LT PUSH2 0xCBD JUMPI INVALID JUMPDEST SWAP1 PUSH1 0x0 MSTORE PUSH1 0x20 PUSH1 0x0 KECCAK256 SWAP1 PUSH1 0x7 MUL ADD PUSH1 0x5 ADD SLOAD DUP2 MSTORE PUSH1 0x20 ADD DUP5 DUP2 MSTORE PUSH1 0x20 ADD PUSH1 0x1 PUSH1 0x3 DUP2 GT ISZERO PUSH2 0xCE7 JUMPI INVALID JUMPDEST SWAP1 MSTORE DUP2 SLOAD PUSH1 0x1 DUP1 DUP3 ADD DUP1 DUP6 SSTORE PUSH1 0x0 SWAP5 DUP6 MSTORE PUSH1 0x20 SWAP5 DUP6 SWAP1 KECCAK256 DUP5 MLOAD PUSH1 0x8 SWAP1 SWAP5 MUL ADD DUP1 SLOAD PUSH1 0x1 PUSH1 0x1 PUSH1 0xA0 SHL SUB NOT SWAP1 DUP2 AND PUSH1 0x1 PUSH1 0x1 PUSH1 0xA0 SHL SUB SWAP6 DUP7 AND OR DUP3 SSTORE SWAP6 DUP6 ADD MLOAD DUP2 DUP5 ADD DUP1 SLOAD SWAP1 SWAP8 AND SWAP5 AND SWAP4 SWAP1 SWAP4 OR SWAP1 SWAP5 SSTORE PUSH1 0x40 DUP4 ADD MLOAD PUSH1 0x2 DUP4 ADD SSTORE PUSH1 0x60 DUP4 ADD MLOAD PUSH1 0x3 DUP1 DUP5 ADD SWAP2 SWAP1 SWAP2 SSTORE PUSH1 0x80 DUP5 ADD MLOAD PUSH1 0x4 DUP5 ADD SSTORE PUSH1 0xA0 DUP5 ADD MLOAD PUSH1 0x5 DUP5 ADD SSTORE PUSH1 0xC0 DUP5 ADD MLOAD PUSH1 0x6 DUP5 ADD SSTORE PUSH1 0xE0 DUP5 ADD MLOAD PUSH1 0x7 DUP5 ADD DUP1 SLOAD SWAP2 SWAP4 SWAP1 SWAP3 PUSH1 0xFF NOT SWAP1 SWAP3 AND SWAP2 DUP5 SWAP1 DUP2 GT ISZERO PUSH2 0xD8E JUMPI INVALID JUMPDEST MUL OR SWAP1 SSTORE POP POP POP POP PUSH2 0xD9F DUP4 PUSH2 0x182B JUMP JUMPDEST DUP3 PUSH1 0x1 PUSH1 0x1 PUSH1 0xA0 SHL SUB AND PUSH1 0x7 DUP3 DUP2 SLOAD DUP2 LT PUSH2 0xDB6 JUMPI INVALID JUMPDEST SWAP1 PUSH1 0x0 MSTORE PUSH1 0x20 PUSH1 0x0 KECCAK256 SWAP1 PUSH1 0x7 MUL ADD PUSH1 0x1 ADD PUSH1 0x0 SWAP1 SLOAD SWAP1 PUSH2 0x100 EXP SWAP1 DIV PUSH1 0x1 PUSH1 0x1 PUSH1 0xA0 SHL SUB AND PUSH1 0x1 PUSH1 0x1 PUSH1 0xA0 SHL SUB AND PUSH32 0xCF8E6EA5FF413BCBA8E42274893FA65641C49AAD91AF18F4B1720B90739CF928 PUSH1 0x7 DUP5 DUP2 SLOAD DUP2 LT PUSH2 0xE12 JUMPI INVALID JUMPDEST SWAP1 PUSH1 0x0 MSTORE PUSH1 0x20 PUSH1 0x0 KECCAK256 SWAP1 PUSH1 0x7 MUL ADD PUSH1 0x5 ADD SLOAD PUSH1 0x7 DUP6 DUP2 SLOAD DUP2 LT PUSH2 0xE31 JUMPI INVALID JUMPDEST SWAP1 PUSH1 0x0 MSTORE PUSH1 0x20 PUSH1 0x0 KECCAK256 SWAP1 PUSH1 0x7 MUL ADD PUSH1 0x2 ADD SLOAD PUSH1 0x40 MLOAD PUSH2 0xE51 SWAP3 SWAP2 SWAP1 PUSH2 0x3AF1 JUMP JUMPDEST PUSH1 0x40 MLOAD DUP1 SWAP2 SUB SWAP1 LOG3 PUSH1 0x7 SLOAD PUSH1 0x1 LT ISZERO PUSH2 0xF2D JUMPI PUSH1 0x7 DUP1 SLOAD PUSH1 0x0 NOT DUP2 ADD SWAP1 DUP2 LT PUSH2 0xE76 JUMPI INVALID JUMPDEST SWAP1 PUSH1 0x0 MSTORE PUSH1 0x20 PUSH1 0x0 KECCAK256 SWAP1 PUSH1 0x7 MUL ADD PUSH1 0x7 DUP3 DUP2 SLOAD DUP2 LT PUSH2 0xE91 JUMPI INVALID JUMPDEST PUSH1 0x0 SWAP2 DUP3 MSTORE PUSH1 0x20 SWAP1 SWAP2 KECCAK256 DUP3 SLOAD PUSH1 0x7 SWAP1 SWAP3 MUL ADD DUP1 SLOAD PUSH1 0x1 PUSH1 0x1 PUSH1 0xA0 SHL SUB NOT SWAP1 DUP2 AND PUSH1 0x1 PUSH1 0x1 PUSH1 0xA0 SHL SUB SWAP4 DUP5 AND OR DUP3 SSTORE PUSH1 0x1 DUP1 DUP6 ADD SLOAD DUP2 DUP5 ADD DUP1 SLOAD SWAP1 SWAP4 AND SWAP5 AND SWAP4 SWAP1 SWAP4 OR SWAP1 SSTORE PUSH1 0x2 DUP1 DUP5 ADD SLOAD SWAP1 DUP3 ADD SSTORE PUSH1 0x3 DUP1 DUP5 ADD SLOAD DUP2 DUP4 ADD SSTORE PUSH1 0x4 DUP1 DUP6 ADD SLOAD SWAP1 DUP4 ADD SSTORE PUSH1 0x5 DUP1 DUP6 ADD SLOAD SWAP1 DUP4 ADD SSTORE PUSH1 0x6 DUP1 DUP6 ADD SLOAD SWAP1 DUP4 ADD DUP1 SLOAD SWAP4 SWAP5 PUSH1 0xFF SWAP1 SWAP3 AND SWAP4 SWAP1 SWAP3 PUSH1 0xFF NOT SWAP1 SWAP2 AND SWAP2 SWAP1 DUP5 SWAP1 DUP2 GT ISZERO PUSH2 0xF25 JUMPI INVALID JUMPDEST MUL OR SWAP1 SSTORE POP POP POP JUMPDEST PUSH1 0x7 DUP1 SLOAD SWAP1 PUSH2 0xF40 SWAP1 PUSH1 0x0 NOT DUP4 ADD PUSH2 0x31F6 JUMP JUMPDEST POP PUSH2 0xF4E JUMP JUMPDEST PUSH1 0x1 ADD PUSH2 0xB6C JUMP JUMPDEST POP POP POP JUMP JUMPDEST PUSH1 0x60 PUSH1 0x9 DUP1 SLOAD DUP1 PUSH1 0x20 MUL PUSH1 0x20 ADD PUSH1 0x40 MLOAD SWAP1 DUP2 ADD PUSH1 0x40 MSTORE DUP1 SWAP3 SWAP2 SWAP1 DUP2 DUP2 MSTORE PUSH1 0x20 ADD PUSH1 0x0 SWAP1 JUMPDEST DUP3 DUP3 LT ISZERO PUSH2 0x1024 JUMPI PUSH1 0x0 DUP5 DUP2 MSTORE PUSH1 0x20 SWAP1 DUP2 SWAP1 KECCAK256 PUSH1 0x40 DUP1 MLOAD PUSH2 0x100 DUP2 ADD DUP3 MSTORE PUSH1 0x8 DUP7 MUL SWAP1 SWAP3 ADD DUP1 SLOAD PUSH1 0x1 PUSH1 0x1 PUSH1 0xA0 SHL SUB SWAP1 DUP2 AND DUP5 MSTORE PUSH1 0x1 DUP3 ADD SLOAD AND SWAP4 DUP4 ADD SWAP4 SWAP1 SWAP4 MSTORE PUSH1 0x2 DUP4 ADD SLOAD SWAP1 DUP3 ADD MSTORE PUSH1 0x3 DUP1 DUP4 ADD SLOAD PUSH1 0x60 DUP4 ADD MSTORE PUSH1 0x4 DUP4 ADD SLOAD PUSH1 0x80 DUP4 ADD MSTORE PUSH1 0x5 DUP4 ADD SLOAD PUSH1 0xA0 DUP4 ADD MSTORE PUSH1 0x6 DUP4 ADD SLOAD PUSH1 0xC0 DUP4 ADD MSTORE PUSH1 0x7 DUP4 ADD SLOAD SWAP2 SWAP3 SWAP2 PUSH1 0xE0 DUP5 ADD SWAP2 PUSH1 0xFF SWAP1 SWAP2 AND SWAP1 DUP2 GT ISZERO PUSH2 0x1006 JUMPI INVALID JUMPDEST PUSH1 0x3 DUP2 GT ISZERO PUSH2 0x1011 JUMPI INVALID JUMPDEST DUP2 MSTORE POP POP DUP2 MSTORE PUSH1 0x20 ADD SWAP1 PUSH1 0x1 ADD SWAP1 PUSH2 0xF77 JUMP JUMPDEST POP POP POP POP SWAP1 POP JUMPDEST SWAP1 JUMP JUMPDEST CALLER PUSH1 0x0 SWAP1 DUP2 MSTORE PUSH1 0x1 PUSH1 0x20 MSTORE PUSH1 0x40 SWAP1 KECCAK256 SLOAD PUSH4 0xFFFFFFFF AND PUSH2 0x1060 JUMPI PUSH1 0x40 MLOAD PUSH3 0x461BCD PUSH1 0xE5 SHL DUP2 MSTORE PUSH1 0x4 ADD PUSH2 0x30F SWAP1 PUSH2 0x3A83 JUMP JUMPDEST TIMESTAMP DUP2 CALLER PUSH1 0x0 DUP1 DUP1 JUMPDEST PUSH1 0x9 SLOAD DUP2 LT ISZERO PUSH2 0xA76 JUMPI PUSH1 0x0 JUMPDEST PUSH1 0xB SLOAD DUP2 LT ISZERO PUSH2 0x15E7 JUMPI PUSH1 0x0 DUP1 SWAP1 POP PUSH1 0xB DUP3 DUP2 SLOAD DUP2 LT PUSH2 0x1091 JUMPI INVALID JUMPDEST PUSH1 0x0 SWAP2 DUP3 MSTORE PUSH1 0x20 SWAP1 SWAP2 KECCAK256 PUSH1 0x5 SWAP1 SWAP2 MUL ADD SLOAD PUSH1 0x9 DUP1 SLOAD PUSH1 0x1 PUSH1 0x1 PUSH1 0xA0 SHL SUB SWAP1 SWAP3 AND SWAP2 DUP6 SWAP1 DUP2 LT PUSH2 0x10BC JUMPI INVALID JUMPDEST PUSH1 0x0 SWAP2 DUP3 MSTORE PUSH1 0x20 SWAP1 SWAP2 KECCAK256 PUSH1 0x1 PUSH1 0x8 SWAP1 SWAP3 MUL ADD ADD SLOAD PUSH1 0x1 PUSH1 0x1 PUSH1 0xA0 SHL SUB AND EQ DUP1 ISZERO PUSH2 0x1103 JUMPI POP DUP10 PUSH1 0x9 DUP5 DUP2 SLOAD DUP2 LT PUSH2 0x10EF JUMPI INVALID JUMPDEST SWAP1 PUSH1 0x0 MSTORE PUSH1 0x20 PUSH1 0x0 KECCAK256 SWAP1 PUSH1 0x8 MUL ADD PUSH1 0x5 ADD SLOAD EQ JUMPDEST DUP1 ISZERO PUSH2 0x1140 JUMPI POP DUP6 PUSH1 0x1 PUSH1 0x1 PUSH1 0xA0 SHL SUB AND PUSH1 0xB DUP4 DUP2 SLOAD DUP2 LT PUSH2 0x1121 JUMPI INVALID JUMPDEST PUSH1 0x0 SWAP2 DUP3 MSTORE PUSH1 0x20 SWAP1 SWAP2 KECCAK256 PUSH1 0x1 PUSH1 0x5 SWAP1 SWAP3 MUL ADD ADD SLOAD PUSH1 0x1 PUSH1 0x1 PUSH1 0xA0 SHL SUB AND EQ JUMPDEST DUP1 ISZERO PUSH2 0x1187 JUMPI POP PUSH1 0xB DUP3 DUP2 SLOAD DUP2 LT PUSH2 0x1154 JUMPI INVALID JUMPDEST SWAP1 PUSH1 0x0 MSTORE PUSH1 0x20 PUSH1 0x0 KECCAK256 SWAP1 PUSH1 0x5 MUL ADD PUSH1 0x4 ADD SLOAD PUSH1 0x9 DUP5 DUP2 SLOAD DUP2 LT PUSH2 0x1173 JUMPI INVALID JUMPDEST SWAP1 PUSH1 0x0 MSTORE PUSH1 0x20 PUSH1 0x0 KECCAK256 SWAP1 PUSH1 0x8 MUL ADD PUSH1 0x5 ADD SLOAD EQ JUMPDEST ISZERO PUSH2 0x15DE JUMPI DUP8 PUSH1 0x9 DUP5 DUP2 SLOAD DUP2 LT PUSH2 0x119A JUMPI INVALID JUMPDEST SWAP1 PUSH1 0x0 MSTORE PUSH1 0x20 PUSH1 0x0 KECCAK256 SWAP1 PUSH1 0x8 MUL ADD PUSH1 0x3 ADD SLOAD GT ISZERO PUSH2 0x11CA JUMPI PUSH1 0x40 MLOAD PUSH3 0x461BCD PUSH1 0xE5 SHL DUP2 MSTORE PUSH1 0x4 ADD PUSH2 0x30F SWAP1 PUSH2 0x3A63 JUMP JUMPDEST DUP8 PUSH1 0x9 DUP5 DUP2 SLOAD DUP2 LT PUSH2 0x11D8 JUMPI INVALID JUMPDEST SWAP1 PUSH1 0x0 MSTORE PUSH1 0x20 PUSH1 0x0 KECCAK256 SWAP1 PUSH1 0x8 MUL ADD PUSH1 0x4 ADD SLOAD LT ISZERO PUSH2 0x1208 JUMPI PUSH1 0x40 MLOAD PUSH3 0x461BCD PUSH1 0xE5 SHL DUP2 MSTORE PUSH1 0x4 ADD PUSH2 0x30F SWAP1 PUSH2 0x3A93 JUMP JUMPDEST DUP7 PUSH1 0xB DUP4 DUP2 SLOAD DUP2 LT PUSH2 0x1216 JUMPI INVALID JUMPDEST SWAP1 PUSH1 0x0 MSTORE PUSH1 0x20 PUSH1 0x0 KECCAK256 SWAP1 PUSH1 0x5 MUL ADD PUSH1 0x3 ADD SLOAD LT ISZERO PUSH2 0x139C JUMPI PUSH1 0xB DUP3 DUP2 SLOAD DUP2 LT PUSH2 0x123B JUMPI INVALID JUMPDEST PUSH1 0x0 SWAP2 DUP3 MSTORE PUSH1 0x20 SWAP1 SWAP2 KECCAK256 PUSH1 0x5 SWAP1 SWAP2 MUL ADD SLOAD PUSH1 0xB DUP1 SLOAD PUSH1 0x1 PUSH1 0x1 PUSH1 0xA0 SHL SUB SWAP1 SWAP3 AND SWAP7 POP SWAP1 DUP4 SWAP1 DUP2 LT PUSH2 0x1268 JUMPI INVALID JUMPDEST SWAP1 PUSH1 0x0 MSTORE PUSH1 0x20 PUSH1 0x0 KECCAK256 SWAP1 PUSH1 0x5 MUL ADD PUSH1 0x3 ADD SLOAD SWAP1 POP DUP1 DUP8 SUB SWAP7 POP DUP1 PUSH1 0x9 DUP5 DUP2 SLOAD DUP2 LT PUSH2 0x128F JUMPI INVALID JUMPDEST SWAP1 PUSH1 0x0 MSTORE PUSH1 0x20 PUSH1 0x0 KECCAK256 SWAP1 PUSH1 0x8 MUL ADD PUSH1 0x6 ADD SLOAD ADD PUSH1 0x9 DUP5 DUP2 SLOAD DUP2 LT PUSH2 0x12AF JUMPI INVALID JUMPDEST SWAP1 PUSH1 0x0 MSTORE PUSH1 0x20 PUSH1 0x0 KECCAK256 SWAP1 PUSH1 0x8 MUL ADD PUSH1 0x6 ADD DUP2 SWAP1 SSTORE POP PUSH1 0x0 PUSH1 0xB DUP4 DUP2 SLOAD DUP2 LT PUSH2 0x12D3 JUMPI INVALID JUMPDEST PUSH1 0x0 SWAP2 DUP3 MSTORE PUSH1 0x20 SWAP1 SWAP2 KECCAK256 PUSH1 0x3 PUSH1 0x5 SWAP1 SWAP3 MUL ADD ADD SSTORE PUSH1 0xB SLOAD PUSH1 0x1 SWAP5 POP DUP5 LT ISZERO PUSH2 0x1383 JUMPI PUSH1 0xB DUP1 SLOAD PUSH1 0x0 NOT DUP2 ADD SWAP1 DUP2 LT PUSH2 0x1307 JUMPI INVALID JUMPDEST SWAP1 PUSH1 0x0 MSTORE PUSH1 0x20 PUSH1 0x0 KECCAK256 SWAP1 PUSH1 0x5 MUL ADD PUSH1 0xB DUP4 DUP2 SLOAD DUP2 LT PUSH2 0x1322 JUMPI INVALID JUMPDEST PUSH1 0x0 SWAP2 DUP3 MSTORE PUSH1 0x20 SWAP1 SWAP2 KECCAK256 DUP3 SLOAD PUSH1 0x5 SWAP1 SWAP3 MUL ADD DUP1 SLOAD PUSH1 0x1 PUSH1 0x1 PUSH1 0xA0 SHL SUB SWAP3 DUP4 AND PUSH1 0x1 PUSH1 0x1 PUSH1 0xA0 SHL SUB NOT SWAP2 DUP3 AND OR DUP3 SSTORE PUSH1 0x1 DUP1 DUP6 ADD SLOAD SWAP1 DUP4 ADD DUP1 SLOAD SWAP2 SWAP1 SWAP5 AND SWAP2 AND OR SWAP1 SWAP2 SSTORE PUSH1 0x2 DUP1 DUP4 ADD SLOAD SWAP1 DUP3 ADD SSTORE PUSH1 0x3 DUP1 DUP4 ADD SLOAD SWAP1 DUP3 ADD SSTORE PUSH1 0x4 SWAP2 DUP3 ADD SLOAD SWAP2 ADD SSTORE JUMPDEST PUSH1 0xB DUP1 SLOAD SWAP1 PUSH2 0x1396 SWAP1 PUSH1 0x0 NOT DUP4 ADD PUSH2 0x31CA JUMP JUMPDEST POP PUSH2 0x1507 JUMP JUMPDEST DUP7 PUSH1 0xB DUP4 DUP2 SLOAD DUP2 LT PUSH2 0x13AA JUMPI INVALID JUMPDEST SWAP1 PUSH1 0x0 MSTORE PUSH1 0x20 PUSH1 0x0 KECCAK256 SWAP1 PUSH1 0x5 MUL ADD PUSH1 0x3 ADD SLOAD EQ ISZERO PUSH2 0x1448 JUMPI PUSH1 0xB DUP3 DUP2 SLOAD DUP2 LT PUSH2 0x13CF JUMPI INVALID JUMPDEST PUSH1 0x0 SWAP2 DUP3 MSTORE PUSH1 0x20 SWAP1 SWAP2 KECCAK256 PUSH1 0x5 SWAP1 SWAP2 MUL ADD SLOAD PUSH1 0x9 DUP1 SLOAD PUSH1 0x1 PUSH1 0x1 PUSH1 0xA0 SHL SUB SWAP1 SWAP3 AND SWAP7 POP DUP9 SWAP3 POP DUP3 SWAP2 DUP6 SWAP1 DUP2 LT PUSH2 0x1400 JUMPI INVALID JUMPDEST SWAP1 PUSH1 0x0 MSTORE PUSH1 0x20 PUSH1 0x0 KECCAK256 SWAP1 PUSH1 0x8 MUL ADD PUSH1 0x6 ADD SLOAD ADD PUSH1 0x9 DUP5 DUP2 SLOAD DUP2 LT PUSH2 0x1420 JUMPI INVALID JUMPDEST SWAP1 PUSH1 0x0 MSTORE PUSH1 0x20 PUSH1 0x0 KECCAK256 SWAP1 PUSH1 0x8 MUL ADD PUSH1 0x6 ADD DUP2 SWAP1 SSTORE POP PUSH1 0x0 SWAP7 POP PUSH1 0x0 PUSH1 0xB DUP4 DUP2 SLOAD DUP2 LT PUSH2 0x12D3 JUMPI INVALID JUMPDEST PUSH1 0xB DUP3 DUP2 SLOAD DUP2 LT PUSH2 0x1455 JUMPI INVALID JUMPDEST PUSH1 0x0 SWAP2 DUP3 MSTORE PUSH1 0x20 SWAP1 SWAP2 KECCAK256 PUSH1 0x5 SWAP1 SWAP2 MUL ADD SLOAD PUSH1 0x9 DUP1 SLOAD PUSH1 0x1 PUSH1 0x1 PUSH1 0xA0 SHL SUB SWAP1 SWAP3 AND SWAP7 POP DUP9 SWAP3 POP DUP3 SWAP2 DUP6 SWAP1 DUP2 LT PUSH2 0x1486 JUMPI INVALID JUMPDEST SWAP1 PUSH1 0x0 MSTORE PUSH1 0x20 PUSH1 0x0 KECCAK256 SWAP1 PUSH1 0x8 MUL ADD PUSH1 0x6 ADD SLOAD ADD PUSH1 0x9 DUP5 DUP2 SLOAD DUP2 LT PUSH2 0x14A6 JUMPI INVALID JUMPDEST SWAP1 PUSH1 0x0 MSTORE PUSH1 0x20 PUSH1 0x0 KECCAK256 SWAP1 PUSH1 0x8 MUL ADD PUSH1 0x6 ADD DUP2 SWAP1 SSTORE POP DUP7 PUSH1 0xB DUP4 DUP2 SLOAD DUP2 LT PUSH2 0x14C9 JUMPI INVALID JUMPDEST SWAP1 PUSH1 0x0 MSTORE PUSH1 0x20 PUSH1 0x0 KECCAK256 SWAP1 PUSH1 0x5 MUL ADD PUSH1 0x3 ADD SLOAD SUB PUSH1 0xB DUP4 DUP2 SLOAD DUP2 LT PUSH2 0x14E9 JUMPI INVALID JUMPDEST SWAP1 PUSH1 0x0 MSTORE PUSH1 0x20 PUSH1 0x0 KECCAK256 SWAP1 PUSH1 0x5 MUL ADD PUSH1 0x3 ADD DUP2 SWAP1 SSTORE POP PUSH1 0x0 SWAP7 POP PUSH1 0x1 SWAP4 POP JUMPDEST DUP4 ISZERO PUSH2 0x15D3 JUMPI PUSH1 0xC PUSH1 0x40 MLOAD DUP1 PUSH1 0xA0 ADD PUSH1 0x40 MSTORE DUP1 DUP9 PUSH1 0x1 PUSH1 0x1 PUSH1 0xA0 SHL SUB AND DUP2 MSTORE PUSH1 0x20 ADD DUP8 PUSH1 0x1 PUSH1 0x1 PUSH1 0xA0 SHL SUB AND DUP2 MSTORE PUSH1 0x20 ADD DUP11 DUP2 MSTORE PUSH1 0x20 ADD PUSH1 0xB DUP6 DUP2 SLOAD DUP2 LT PUSH2 0x154B JUMPI INVALID JUMPDEST PUSH1 0x0 SWAP2 DUP3 MSTORE PUSH1 0x20 DUP1 DUP4 KECCAK256 PUSH1 0x5 SWAP3 DUP4 MUL ADD PUSH1 0x4 SWAP1 DUP2 ADD SLOAD DUP6 MSTORE SWAP4 DUP2 ADD DUP8 SWAP1 MSTORE DUP6 SLOAD PUSH1 0x1 DUP1 DUP3 ADD DUP9 SSTORE SWAP7 DUP5 MSTORE SWAP3 DUP2 SWAP1 KECCAK256 DUP6 MLOAD SWAP4 SWAP1 SWAP3 MUL SWAP1 SWAP2 ADD DUP1 SLOAD PUSH1 0x1 PUSH1 0x1 PUSH1 0xA0 SHL SUB NOT SWAP1 DUP2 AND PUSH1 0x1 PUSH1 0x1 PUSH1 0xA0 SHL SUB SWAP5 DUP6 AND OR DUP3 SSTORE SWAP2 DUP6 ADD MLOAD SWAP6 DUP2 ADD DUP1 SLOAD SWAP1 SWAP3 AND SWAP6 SWAP1 SWAP3 AND SWAP5 SWAP1 SWAP5 OR SWAP1 SWAP4 SSTORE PUSH1 0x40 DUP3 ADD MLOAD PUSH1 0x2 DUP5 ADD SSTORE PUSH1 0x60 DUP3 ADD MLOAD PUSH1 0x3 DUP5 ADD SSTORE PUSH1 0x80 SWAP1 SWAP2 ADD MLOAD SWAP2 ADD SSTORE JUMPDEST DUP7 PUSH2 0x15DE JUMPI POP PUSH2 0x15E7 JUMP JUMPDEST POP PUSH1 0x1 ADD PUSH2 0x1075 JUMP JUMPDEST POP PUSH1 0x1 ADD PUSH2 0x1068 JUMP JUMPDEST PUSH1 0xB SLOAD SWAP1 JUMP JUMPDEST PUSH1 0x60 PUSH1 0xB DUP1 SLOAD DUP1 PUSH1 0x20 MUL PUSH1 0x20 ADD PUSH1 0x40 MLOAD SWAP1 DUP2 ADD PUSH1 0x40 MSTORE DUP1 SWAP3 SWAP2 SWAP1 DUP2 DUP2 MSTORE PUSH1 0x20 ADD PUSH1 0x0 SWAP1 JUMPDEST DUP3 DUP3 LT ISZERO PUSH2 0x1024 JUMPI PUSH1 0x0 DUP5 DUP2 MSTORE PUSH1 0x20 SWAP1 DUP2 SWAP1 KECCAK256 PUSH1 0x40 DUP1 MLOAD PUSH1 0xA0 DUP2 ADD DUP3 MSTORE PUSH1 0x5 DUP7 MUL SWAP1 SWAP3 ADD DUP1 SLOAD PUSH1 0x1 PUSH1 0x1 PUSH1 0xA0 SHL SUB SWAP1 DUP2 AND DUP5 MSTORE PUSH1 0x1 DUP1 DUP4 ADD SLOAD SWAP1 SWAP2 AND DUP5 DUP7 ADD MSTORE PUSH1 0x2 DUP3 ADD SLOAD SWAP3 DUP5 ADD SWAP3 SWAP1 SWAP3 MSTORE PUSH1 0x3 DUP2 ADD SLOAD PUSH1 0x60 DUP5 ADD MSTORE PUSH1 0x4 ADD SLOAD PUSH1 0x80 DUP4 ADD MSTORE SWAP1 DUP4 MSTORE SWAP1 SWAP3 ADD SWAP2 ADD PUSH2 0x161A JUMP JUMPDEST CALLER PUSH1 0x0 SWAP1 DUP2 MSTORE PUSH1 0x20 DUP2 SWAP1 MSTORE PUSH1 0x40 SWAP1 KECCAK256 SLOAD PUSH1 0xFF AND PUSH2 0x16B5 JUMPI PUSH1 0x40 MLOAD PUSH3 0x461BCD PUSH1 0xE5 SHL DUP2 MSTORE PUSH1 0x4 ADD PUSH2 0x30F SWAP1 PUSH2 0x3AB3 JUMP JUMPDEST CALLER PUSH2 0x16C0 PUSH1 0x3 PUSH2 0x31B9 JUMP JUMPDEST PUSH1 0x0 PUSH2 0x16CC PUSH1 0x3 PUSH2 0x31C2 JUMP JUMPDEST SWAP1 POP DUP4 DUP4 GT PUSH2 0x16ED JUMPI PUSH1 0x40 MLOAD PUSH3 0x461BCD PUSH1 0xE5 SHL DUP2 MSTORE PUSH1 0x4 ADD PUSH2 0x30F SWAP1 PUSH2 0x3AD3 JUMP JUMPDEST PUSH1 0x6 PUSH1 0x40 MLOAD DUP1 PUSH1 0xE0 ADD PUSH1 0x40 MSTORE DUP1 PUSH1 0x0 PUSH1 0x1 PUSH1 0x1 PUSH1 0xA0 SHL SUB AND DUP2 MSTORE PUSH1 0x20 ADD DUP5 PUSH1 0x1 PUSH1 0x1 PUSH1 0xA0 SHL SUB AND DUP2 MSTORE PUSH1 0x20 ADD DUP8 DUP2 MSTORE PUSH1 0x20 ADD DUP7 DUP2 MSTORE PUSH1 0x20 ADD DUP6 DUP2 MSTORE PUSH1 0x20 ADD DUP4 DUP2 MSTORE PUSH1 0x20 ADD PUSH1 0x0 PUSH1 0x3 DUP2 GT ISZERO PUSH2 0x173E JUMPI INVALID JUMPDEST SWAP1 MSTORE DUP2 SLOAD PUSH1 0x1 DUP1 DUP3 ADD DUP1 DUP6 SSTORE PUSH1 0x0 SWAP5 DUP6 MSTORE PUSH1 0x20 SWAP5 DUP6 SWAP1 KECCAK256 DUP5 MLOAD PUSH1 0x7 SWAP1 SWAP5 MUL ADD DUP1 SLOAD PUSH1 0x1 PUSH1 0x1 PUSH1 0xA0 SHL SUB NOT SWAP1 DUP2 AND PUSH1 0x1 PUSH1 0x1 PUSH1 0xA0 SHL SUB SWAP6 DUP7 AND OR DUP3 SSTORE SWAP6 DUP6 ADD MLOAD DUP2 DUP5 ADD DUP1 SLOAD SWAP1 SWAP8 AND SWAP5 AND SWAP4 SWAP1 SWAP4 OR SWAP1 SWAP5 SSTORE PUSH1 0x40 DUP4 ADD MLOAD PUSH1 0x2 DUP4 ADD SSTORE PUSH1 0x60 DUP4 ADD MLOAD PUSH1 0x3 DUP1 DUP5 ADD SWAP2 SWAP1 SWAP2 SSTORE PUSH1 0x80 DUP5 ADD MLOAD PUSH1 0x4 DUP5 ADD SSTORE PUSH1 0xA0 DUP5 ADD MLOAD PUSH1 0x5 DUP5 ADD SSTORE PUSH1 0xC0 DUP5 ADD MLOAD PUSH1 0x6 DUP5 ADD DUP1 SLOAD SWAP2 SWAP4 SWAP1 SWAP3 PUSH1 0xFF NOT SWAP1 SWAP3 AND SWAP2 DUP5 SWAP1 DUP2 GT ISZERO PUSH2 0x17DB JUMPI INVALID JUMPDEST MUL OR SWAP1 SSTORE POP POP POP POP DUP2 PUSH1 0x1 PUSH1 0x1 PUSH1 0xA0 SHL SUB AND PUSH32 0xDE0E5567D8D6D630907264BDAC08CD46C86E8D6A570E0321DE2CA45C49F1A2A5 DUP7 PUSH1 0x40 MLOAD PUSH2 0x181C SWAP2 SWAP1 PUSH2 0x3AE3 JUMP JUMPDEST PUSH1 0x40 MLOAD DUP1 SWAP2 SUB SWAP1 LOG2 POP POP POP POP POP JUMP JUMPDEST PUSH1 0x1 PUSH1 0x40 MLOAD PUSH1 0x1 PUSH1 0x1 PUSH1 0xA0 SHL SUB DUP4 AND SWAP1 PUSH32 0x7420B8B978434D1CE66C980FF580761F988DFCA7B96378123D4717285774382C SWAP1 PUSH1 0x0 SWAP1 LOG2 JUMPDEST PUSH1 0x1 PUSH1 0x1 PUSH1 0xA0 SHL SUB SWAP2 SWAP1 SWAP2 AND PUSH1 0x0 SWAP1 DUP2 MSTORE PUSH1 0x1 PUSH1 0x20 MSTORE PUSH1 0x40 SWAP1 KECCAK256 DUP1 SLOAD PUSH4 0xFFFFFFFF NOT AND PUSH4 0xFFFFFFFF SWAP1 SWAP3 AND SWAP2 SWAP1 SWAP2 OR SWAP1 SSTORE JUMP JUMPDEST CALLER PUSH1 0x0 SWAP1 DUP2 MSTORE PUSH1 0x20 DUP2 SWAP1 MSTORE PUSH1 0x40 SWAP1 KECCAK256 SLOAD PUSH1 0xFF AND PUSH2 0x18C4 JUMPI PUSH1 0x40 MLOAD PUSH3 0x461BCD PUSH1 0xE5 SHL DUP2 MSTORE PUSH1 0x4 ADD PUSH2 0x30F SWAP1 PUSH2 0x3AB3 JUMP JUMPDEST CALLER DUP4 DUP4 GT PUSH2 0x18E4 JUMPI PUSH1 0x40 MLOAD PUSH3 0x461BCD PUSH1 0xE5 SHL DUP2 MSTORE PUSH1 0x4 ADD PUSH2 0x30F SWAP1 PUSH2 0x3AD3 JUMP JUMPDEST PUSH1 0x7 PUSH1 0x40 MLOAD DUP1 PUSH1 0xE0 ADD PUSH1 0x40 MSTORE DUP1 DUP9 PUSH1 0x1 PUSH1 0x1 PUSH1 0xA0 SHL SUB AND DUP2 MSTORE PUSH1 0x20 ADD DUP4 PUSH1 0x1 PUSH1 0x1 PUSH1 0xA0 SHL SUB AND DUP2 MSTORE PUSH1 0x20 ADD DUP8 DUP2 MSTORE PUSH1 0x20 ADD DUP7 DUP2 MSTORE PUSH1 0x20 ADD DUP6 DUP2 MSTORE PUSH1 0x20 ADD DUP5 DUP2 MSTORE PUSH1 0x20 ADD PUSH1 0x0 PUSH1 0x3 DUP2 GT ISZERO PUSH2 0x1934 JUMPI INVALID JUMPDEST SWAP1 MSTORE DUP2 SLOAD PUSH1 0x1 DUP1 DUP3 ADD DUP1 DUP6 SSTORE PUSH1 0x0 SWAP5 DUP6 MSTORE PUSH1 0x20 SWAP5 DUP6 SWAP1 KECCAK256 DUP5 MLOAD PUSH1 0x7 SWAP1 SWAP5 MUL ADD DUP1 SLOAD PUSH1 0x1 PUSH1 0x1 PUSH1 0xA0 SHL SUB NOT SWAP1 DUP2 AND PUSH1 0x1 PUSH1 0x1 PUSH1 0xA0 SHL SUB SWAP6 DUP7 AND OR DUP3 SSTORE SWAP6 DUP6 ADD MLOAD DUP2 DUP5 ADD DUP1 SLOAD SWAP1 SWAP8 AND SWAP5 AND SWAP4 SWAP1 SWAP4 OR SWAP1 SWAP5 SSTORE PUSH1 0x40 DUP4 ADD MLOAD PUSH1 0x2 DUP4 ADD SSTORE PUSH1 0x60 DUP4 ADD MLOAD PUSH1 0x3 DUP1 DUP5 ADD SWAP2 SWAP1 SWAP2 SSTORE PUSH1 0x80 DUP5 ADD MLOAD PUSH1 0x4 DUP5 ADD SSTORE PUSH1 0xA0 DUP5 ADD MLOAD PUSH1 0x5 DUP5 ADD SSTORE PUSH1 0xC0 DUP5 ADD MLOAD PUSH1 0x6 DUP5 ADD DUP1 SLOAD SWAP2 SWAP4 SWAP1 SWAP3 PUSH1 0xFF NOT SWAP1 SWAP3 AND SWAP2 DUP5 SWAP1 DUP2 GT ISZERO PUSH2 0x19D1 JUMPI INVALID JUMPDEST MUL OR SWAP1 SSTORE POP POP POP POP DUP6 PUSH1 0x1 PUSH1 0x1 PUSH1 0xA0 SHL SUB AND DUP2 PUSH1 0x1 PUSH1 0x1 PUSH1 0xA0 SHL SUB AND PUSH32 0xE5F6DE6BE46B3D18E2732CEC03E0F49A195EDD700544C4F17A2CA9A55DE691CD DUP8 PUSH1 0x40 MLOAD PUSH2 0x1A1C SWAP2 SWAP1 PUSH2 0x3AE3 JUMP JUMPDEST PUSH1 0x40 MLOAD DUP1 SWAP2 SUB SWAP1 LOG3 POP POP POP POP POP POP JUMP JUMPDEST TIMESTAMP PUSH1 0x0 JUMPDEST PUSH1 0x9 SLOAD DUP2 LT ISZERO PUSH2 0xF4E JUMPI DUP3 PUSH1 0x9 DUP3 DUP2 SLOAD DUP2 LT PUSH2 0x1A48 JUMPI INVALID JUMPDEST SWAP1 PUSH1 0x0 MSTORE PUSH1 0x20 PUSH1 0x0 KECCAK256 SWAP1 PUSH1 0x8 MUL ADD PUSH1 0x5 ADD SLOAD EQ DUP1 ISZERO PUSH2 0x1A84 JUMPI POP DUP2 PUSH1 0x9 DUP3 DUP2 SLOAD DUP2 LT PUSH2 0x1A70 JUMPI INVALID JUMPDEST SWAP1 PUSH1 0x0 MSTORE PUSH1 0x20 PUSH1 0x0 KECCAK256 SWAP1 PUSH1 0x8 MUL ADD PUSH1 0x4 ADD SLOAD LT JUMPDEST ISZERO PUSH2 0x1E8C JUMPI PUSH1 0x3 PUSH1 0x9 DUP3 DUP2 SLOAD DUP2 LT PUSH2 0x1A98 JUMPI INVALID JUMPDEST PUSH1 0x0 SWAP2 DUP3 MSTORE PUSH1 0x20 SWAP1 SWAP2 KECCAK256 PUSH1 0x7 PUSH1 0x8 SWAP1 SWAP3 MUL ADD ADD DUP1 SLOAD PUSH1 0xFF NOT AND PUSH1 0x1 DUP4 PUSH1 0x3 DUP2 GT ISZERO PUSH2 0x1ABF JUMPI INVALID JUMPDEST MUL OR SWAP1 SSTORE POP PUSH1 0x6 PUSH1 0x40 MLOAD DUP1 PUSH1 0xE0 ADD PUSH1 0x40 MSTORE DUP1 PUSH1 0x9 DUP5 DUP2 SLOAD DUP2 LT PUSH2 0x1ADE JUMPI INVALID JUMPDEST PUSH1 0x0 SWAP2 DUP3 MSTORE PUSH1 0x20 SWAP2 DUP3 SWAP1 KECCAK256 PUSH1 0x8 SWAP1 SWAP2 MUL ADD SLOAD PUSH1 0x1 PUSH1 0x1 PUSH1 0xA0 SHL SUB AND DUP3 MSTORE PUSH1 0x9 DUP1 SLOAD SWAP3 SWAP1 SWAP2 ADD SWAP2 DUP6 SWAP1 DUP2 LT PUSH2 0x1B0E JUMPI INVALID JUMPDEST PUSH1 0x0 SWAP2 DUP3 MSTORE PUSH1 0x20 SWAP2 DUP3 SWAP1 KECCAK256 PUSH1 0x1 PUSH1 0x8 SWAP1 SWAP3 MUL ADD ADD SLOAD PUSH1 0x1 PUSH1 0x1 PUSH1 0xA0 SHL SUB AND DUP3 MSTORE PUSH1 0x9 DUP1 SLOAD SWAP3 SWAP1 SWAP2 ADD SWAP2 DUP6 SWAP1 DUP2 LT PUSH2 0x1B41 JUMPI INVALID JUMPDEST SWAP1 PUSH1 0x0 MSTORE PUSH1 0x20 PUSH1 0x0 KECCAK256 SWAP1 PUSH1 0x8 MUL ADD PUSH1 0x2 ADD SLOAD DUP2 MSTORE PUSH1 0x20 ADD PUSH1 0x9 DUP5 DUP2 SLOAD DUP2 LT PUSH2 0x1B65 JUMPI INVALID JUMPDEST SWAP1 PUSH1 0x0 MSTORE PUSH1 0x20 PUSH1 0x0 KECCAK256 SWAP1 PUSH1 0x8 MUL ADD PUSH1 0x3 ADD SLOAD DUP2 MSTORE PUSH1 0x20 ADD PUSH1 0x9 DUP5 DUP2 SLOAD DUP2 LT PUSH2 0x1B89 JUMPI INVALID JUMPDEST SWAP1 PUSH1 0x0 MSTORE PUSH1 0x20 PUSH1 0x0 KECCAK256 SWAP1 PUSH1 0x8 MUL ADD PUSH1 0x4 ADD SLOAD DUP2 MSTORE PUSH1 0x20 ADD PUSH1 0x9 DUP5 DUP2 SLOAD DUP2 LT PUSH2 0x1BAD JUMPI INVALID JUMPDEST PUSH1 0x0 SWAP2 DUP3 MSTORE PUSH1 0x20 SWAP2 DUP3 SWAP1 KECCAK256 PUSH1 0x5 PUSH1 0x8 SWAP1 SWAP3 MUL ADD ADD SLOAD DUP3 MSTORE ADD PUSH1 0x3 SWAP1 MSTORE DUP2 SLOAD PUSH1 0x1 DUP1 DUP3 ADD DUP1 DUP6 SSTORE PUSH1 0x0 SWAP5 DUP6 MSTORE PUSH1 0x20 SWAP5 DUP6 SWAP1 KECCAK256 DUP5 MLOAD PUSH1 0x7 SWAP1 SWAP5 MUL ADD DUP1 SLOAD PUSH1 0x1 PUSH1 0x1 PUSH1 0xA0 SHL SUB NOT SWAP1 DUP2 AND PUSH1 0x1 PUSH1 0x1 PUSH1 0xA0 SHL SUB SWAP6 DUP7 AND OR DUP3 SSTORE SWAP6 DUP6 ADD MLOAD DUP2 DUP5 ADD DUP1 SLOAD SWAP1 SWAP8 AND SWAP5 AND SWAP4 SWAP1 SWAP4 OR SWAP1 SWAP5 SSTORE PUSH1 0x40 DUP4 ADD MLOAD PUSH1 0x2 DUP4 ADD SSTORE PUSH1 0x60 DUP4 ADD MLOAD PUSH1 0x3 DUP1 DUP5 ADD SWAP2 SWAP1 SWAP2 SSTORE PUSH1 0x80 DUP5 ADD MLOAD PUSH1 0x4 DUP5 ADD SSTORE PUSH1 0xA0 DUP5 ADD MLOAD PUSH1 0x5 DUP5 ADD SSTORE PUSH1 0xC0 DUP5 ADD MLOAD PUSH1 0x6 DUP5 ADD DUP1 SLOAD SWAP2 SWAP4 SWAP1 SWAP3 PUSH1 0xFF NOT SWAP1 SWAP3 AND SWAP2 DUP5 SWAP1 DUP2 GT ISZERO PUSH2 0x1C64 JUMPI INVALID JUMPDEST MUL OR SWAP1 SSTORE POP POP POP POP PUSH2 0x1C9B PUSH1 0x9 DUP3 DUP2 SLOAD DUP2 LT PUSH2 0x1C7C JUMPI INVALID JUMPDEST PUSH1 0x0 SWAP2 DUP3 MSTORE PUSH1 0x20 SWAP1 SWAP2 KECCAK256 PUSH1 0x8 SWAP1 SWAP2 MUL ADD SLOAD PUSH1 0x1 PUSH1 0x1 PUSH1 0xA0 SHL SUB AND PUSH2 0x31B2 JUMP JUMPDEST PUSH1 0x9 DUP2 DUP2 SLOAD DUP2 LT PUSH2 0x1CA8 JUMPI INVALID JUMPDEST PUSH1 0x0 SWAP2 DUP3 MSTORE PUSH1 0x20 SWAP1 SWAP2 KECCAK256 PUSH1 0x8 SWAP1 SWAP2 MUL ADD SLOAD PUSH1 0x9 DUP1 SLOAD PUSH1 0x1 PUSH1 0x1 PUSH1 0xA0 SHL SUB SWAP1 SWAP3 AND SWAP2 DUP4 SWAP1 DUP2 LT PUSH2 0x1CD3 JUMPI INVALID JUMPDEST SWAP1 PUSH1 0x0 MSTORE PUSH1 0x20 PUSH1 0x0 KECCAK256 SWAP1 PUSH1 0x8 MUL ADD PUSH1 0x1 ADD PUSH1 0x0 SWAP1 SLOAD SWAP1 PUSH2 0x100 EXP SWAP1 DIV PUSH1 0x1 PUSH1 0x1 PUSH1 0xA0 SHL SUB AND PUSH1 0x1 PUSH1 0x1 PUSH1 0xA0 SHL SUB AND PUSH32 0xC3384A2DAEF78F9743D45A2F054A32D11EE7EF405DE6FD4724EC6F77BA049F78 PUSH1 0x9 DUP5 DUP2 SLOAD DUP2 LT PUSH2 0x1D2F JUMPI INVALID JUMPDEST SWAP1 PUSH1 0x0 MSTORE PUSH1 0x20 PUSH1 0x0 KECCAK256 SWAP1 PUSH1 0x8 MUL ADD PUSH1 0x3 ADD SLOAD PUSH1 0x9 DUP6 DUP2 SLOAD DUP2 LT PUSH2 0x1D4E JUMPI INVALID JUMPDEST SWAP1 PUSH1 0x0 MSTORE PUSH1 0x20 PUSH1 0x0 KECCAK256 SWAP1 PUSH1 0x8 MUL ADD PUSH1 0x4 ADD SLOAD PUSH1 0x9 DUP7 DUP2 SLOAD DUP2 LT PUSH2 0x1D6D JUMPI INVALID JUMPDEST PUSH1 0x0 SWAP2 DUP3 MSTORE PUSH1 0x20 SWAP1 SWAP2 KECCAK256 PUSH1 0x7 PUSH1 0x8 SWAP1 SWAP3 MUL ADD ADD SLOAD PUSH1 0x40 MLOAD PUSH2 0x1D93 SWAP4 SWAP3 SWAP2 PUSH1 0xFF AND SWAP1 PUSH2 0x3B0C JUMP JUMPDEST PUSH1 0x40 MLOAD DUP1 SWAP2 SUB SWAP1 LOG3 PUSH1 0x9 SLOAD PUSH1 0x1 LT ISZERO PUSH2 0x1E79 JUMPI PUSH1 0x9 DUP1 SLOAD PUSH1 0x0 NOT DUP2 ADD SWAP1 DUP2 LT PUSH2 0x1DB8 JUMPI INVALID JUMPDEST SWAP1 PUSH1 0x0 MSTORE PUSH1 0x20 PUSH1 0x0 KECCAK256 SWAP1 PUSH1 0x8 MUL ADD PUSH1 0x9 DUP3 DUP2 SLOAD DUP2 LT PUSH2 0x1DD3 JUMPI INVALID JUMPDEST PUSH1 0x0 SWAP2 DUP3 MSTORE PUSH1 0x20 SWAP1 SWAP2 KECCAK256 DUP3 SLOAD PUSH1 0x8 SWAP1 SWAP3 MUL ADD DUP1 SLOAD PUSH1 0x1 PUSH1 0x1 PUSH1 0xA0 SHL SUB NOT SWAP1 DUP2 AND PUSH1 0x1 PUSH1 0x1 PUSH1 0xA0 SHL SUB SWAP4 DUP5 AND OR DUP3 SSTORE PUSH1 0x1 DUP1 DUP6 ADD SLOAD DUP2 DUP5 ADD DUP1 SLOAD SWAP1 SWAP4 AND SWAP5 AND SWAP4 SWAP1 SWAP4 OR SWAP1 SSTORE PUSH1 0x2 DUP1 DUP5 ADD SLOAD SWAP1 DUP3 ADD SSTORE PUSH1 0x3 DUP1 DUP5 ADD SLOAD DUP2 DUP4 ADD SSTORE PUSH1 0x4 DUP1 DUP6 ADD SLOAD SWAP1 DUP4 ADD SSTORE PUSH1 0x5 DUP1 DUP6 ADD SLOAD SWAP1 DUP4 ADD SSTORE PUSH1 0x6 DUP1 DUP6 ADD SLOAD SWAP1 DUP4 ADD SSTORE PUSH1 0x7 DUP1 DUP6 ADD SLOAD SWAP1 DUP4 ADD DUP1 SLOAD SWAP4 SWAP5 PUSH1 0xFF SWAP1 SWAP3 AND SWAP4 SWAP1 SWAP3 PUSH1 0xFF NOT SWAP1 SWAP2 AND SWAP2 SWAP1 DUP5 SWAP1 DUP2 GT ISZERO PUSH2 0x1E71 JUMPI INVALID JUMPDEST MUL OR SWAP1 SSTORE POP POP POP JUMPDEST PUSH1 0x9 DUP1 SLOAD SWAP1 PUSH2 0xF40 SWAP1 PUSH1 0x0 NOT DUP4 ADD PUSH2 0x3222 JUMP JUMPDEST PUSH1 0x1 ADD PUSH2 0x1A30 JUMP JUMPDEST PUSH1 0x60 PUSH1 0x7 DUP1 SLOAD DUP1 PUSH1 0x20 MUL PUSH1 0x20 ADD PUSH1 0x40 MLOAD SWAP1 DUP2 ADD PUSH1 0x40 MSTORE DUP1 SWAP3 SWAP2 SWAP1 DUP2 DUP2 MSTORE PUSH1 0x20 ADD PUSH1 0x0 SWAP1 JUMPDEST DUP3 DUP3 LT ISZERO PUSH2 0x1024 JUMPI PUSH1 0x0 DUP5 DUP2 MSTORE PUSH1 0x20 SWAP1 DUP2 SWAP1 KECCAK256 PUSH1 0x40 DUP1 MLOAD PUSH1 0xE0 DUP2 ADD DUP3 MSTORE PUSH1 0x7 DUP7 MUL SWAP1 SWAP3 ADD DUP1 SLOAD PUSH1 0x1 PUSH1 0x1 PUSH1 0xA0 SHL SUB SWAP1 DUP2 AND DUP5 MSTORE PUSH1 0x1 DUP3 ADD SLOAD AND SWAP4 DUP4 ADD SWAP4 SWAP1 SWAP4 MSTORE PUSH1 0x2 DUP4 ADD SLOAD SWAP1 DUP3 ADD MSTORE PUSH1 0x3 DUP1 DUP4 ADD SLOAD PUSH1 0x60 DUP4 ADD MSTORE PUSH1 0x4 DUP4 ADD SLOAD PUSH1 0x80 DUP4 ADD MSTORE PUSH1 0x5 DUP4 ADD SLOAD PUSH1 0xA0 DUP4 ADD MSTORE PUSH1 0x6 DUP4 ADD SLOAD SWAP2 SWAP3 SWAP2 PUSH1 0xC0 DUP5 ADD SWAP2 PUSH1 0xFF SWAP1 SWAP2 AND SWAP1 DUP2 GT ISZERO PUSH2 0x1F3C JUMPI INVALID JUMPDEST PUSH1 0x3 DUP2 GT ISZERO PUSH2 0x1F47 JUMPI INVALID JUMPDEST DUP2 MSTORE POP POP DUP2 MSTORE PUSH1 0x20 ADD SWAP1 PUSH1 0x1 ADD SWAP1 PUSH2 0x1EB8 JUMP JUMPDEST PUSH1 0x60 PUSH1 0xC DUP1 SLOAD DUP1 PUSH1 0x20 MUL PUSH1 0x20 ADD PUSH1 0x40 MLOAD SWAP1 DUP2 ADD PUSH1 0x40 MSTORE DUP1 SWAP3 SWAP2 SWAP1 DUP2 DUP2 MSTORE PUSH1 0x20 ADD PUSH1 0x0 SWAP1 DUP3 DUP3 LT ISZERO PUSH2 0x1024 JUMPI PUSH1 0x0 DUP5 DUP2 MSTORE PUSH1 0x20 SWAP1 DUP2 SWAP1 KECCAK256 PUSH1 0x40 DUP1 MLOAD PUSH1 0xA0 DUP2 ADD DUP3 MSTORE PUSH1 0x5 DUP7 MUL SWAP1 SWAP3 ADD DUP1 SLOAD PUSH1 0x1 PUSH1 0x1 PUSH1 0xA0 SHL SUB SWAP1 DUP2 AND DUP5 MSTORE PUSH1 0x1 DUP1 DUP4 ADD SLOAD SWAP1 SWAP2 AND DUP5 DUP7 ADD MSTORE PUSH1 0x2 DUP3 ADD SLOAD SWAP3 DUP5 ADD SWAP3 SWAP1 SWAP3 MSTORE PUSH1 0x3 DUP2 ADD SLOAD PUSH1 0x60 DUP5 ADD MSTORE PUSH1 0x4 ADD SLOAD PUSH1 0x80 DUP4 ADD MSTORE SWAP1 DUP4 MSTORE SWAP1 SWAP3 ADD SWAP2 ADD PUSH2 0x161A JUMP JUMPDEST PUSH1 0x40 MLOAD CALLER SWAP1 DUP2 SWAP1 PUSH32 0x769268709E630D5B24D4C651ADEAE2D7A75C3DD7C3876275233E21570BE22FD4 SWAP1 PUSH1 0x0 SWAP1 LOG2 PUSH1 0x1 PUSH1 0x1 PUSH1 0xA0 SHL SUB AND PUSH1 0x0 SWAP1 DUP2 MSTORE PUSH1 0x20 DUP2 SWAP1 MSTORE PUSH1 0x40 SWAP1 KECCAK256 DUP1 SLOAD PUSH1 0xFF NOT AND PUSH1 0x1 OR SWAP1 SSTORE JUMP JUMPDEST PUSH1 0x60 PUSH1 0x6 DUP1 SLOAD DUP1 PUSH1 0x20 MUL PUSH1 0x20 ADD PUSH1 0x40 MLOAD SWAP1 DUP2 ADD PUSH1 0x40 MSTORE DUP1 SWAP3 SWAP2 SWAP1 DUP2 DUP2 MSTORE PUSH1 0x20 ADD PUSH1 0x0 SWAP1 JUMPDEST DUP3 DUP3 LT ISZERO PUSH2 0x1024 JUMPI PUSH1 0x0 DUP5 DUP2 MSTORE PUSH1 0x20 SWAP1 DUP2 SWAP1 KECCAK256 PUSH1 0x40 DUP1 MLOAD PUSH1 0xE0 DUP2 ADD DUP3 MSTORE PUSH1 0x7 DUP7 MUL SWAP1 SWAP3 ADD DUP1 SLOAD PUSH1 0x1 PUSH1 0x1 PUSH1 0xA0 SHL SUB SWAP1 DUP2 AND DUP5 MSTORE PUSH1 0x1 DUP3 ADD SLOAD AND SWAP4 DUP4 ADD SWAP4 SWAP1 SWAP4 MSTORE PUSH1 0x2 DUP4 ADD SLOAD SWAP1 DUP3 ADD MSTORE PUSH1 0x3 DUP1 DUP4 ADD SLOAD PUSH1 0x60 DUP4 ADD MSTORE PUSH1 0x4 DUP4 ADD SLOAD PUSH1 0x80 DUP4 ADD MSTORE PUSH1 0x5 DUP4 ADD SLOAD PUSH1 0xA0 DUP4 ADD MSTORE PUSH1 0x6 DUP4 ADD SLOAD SWAP2 SWAP3 SWAP2 PUSH1 0xC0 DUP5 ADD SWAP2 PUSH1 0xFF SWAP1 SWAP2 AND SWAP1 DUP2 GT ISZERO PUSH2 0x20E2 JUMPI INVALID JUMPDEST PUSH1 0x3 DUP2 GT ISZERO PUSH2 0x20ED JUMPI INVALID JUMPDEST DUP2 MSTORE POP POP DUP2 MSTORE PUSH1 0x20 ADD SWAP1 PUSH1 0x1 ADD SWAP1 PUSH2 0x205E JUMP JUMPDEST PUSH1 0x0 CALLER DUP2 JUMPDEST PUSH1 0x6 SLOAD DUP2 LT ISZERO PUSH2 0xF4E JUMPI DUP2 PUSH1 0x1 PUSH1 0x1 PUSH1 0xA0 SHL SUB AND PUSH1 0x6 DUP3 DUP2 SLOAD DUP2 LT PUSH2 0x2126 JUMPI INVALID JUMPDEST PUSH1 0x0 SWAP2 DUP3 MSTORE PUSH1 0x20 SWAP1 SWAP2 KECCAK256 PUSH1 0x1 PUSH1 0x7 SWAP1 SWAP3 MUL ADD ADD SLOAD PUSH1 0x1 PUSH1 0x1 PUSH1 0xA0 SHL SUB AND EQ ISZERO PUSH2 0x2161 JUMPI PUSH1 0x40 MLOAD PUSH3 0x461BCD PUSH1 0xE5 SHL DUP2 MSTORE PUSH1 0x4 ADD PUSH2 0x30F SWAP1 PUSH2 0x3AC3 JUMP JUMPDEST PUSH1 0x2 PUSH1 0x6 DUP3 DUP2 SLOAD DUP2 LT PUSH2 0x2170 JUMPI INVALID JUMPDEST PUSH1 0x0 SWAP2 DUP3 MSTORE PUSH1 0x20 SWAP1 SWAP2 KECCAK256 PUSH1 0x6 PUSH1 0x7 SWAP1 SWAP3 MUL ADD ADD SLOAD PUSH1 0xFF AND PUSH1 0x3 DUP2 GT ISZERO PUSH2 0x2192 JUMPI INVALID JUMPDEST EQ ISZERO PUSH2 0x21B0 JUMPI PUSH1 0x40 MLOAD PUSH3 0x461BCD PUSH1 0xE5 SHL DUP2 MSTORE PUSH1 0x4 ADD PUSH2 0x30F SWAP1 PUSH2 0x3A73 JUMP JUMPDEST PUSH1 0x0 PUSH1 0x6 DUP3 DUP2 SLOAD DUP2 LT PUSH2 0x21BF JUMPI INVALID JUMPDEST PUSH1 0x0 SWAP2 DUP3 MSTORE PUSH1 0x20 SWAP1 SWAP2 KECCAK256 PUSH1 0x6 PUSH1 0x7 SWAP1 SWAP3 MUL ADD ADD SLOAD PUSH1 0xFF AND PUSH1 0x3 DUP2 GT ISZERO PUSH2 0x21E1 JUMPI INVALID JUMPDEST EQ ISZERO PUSH2 0x2529 JUMPI PUSH1 0x9 PUSH1 0x40 MLOAD DUP1 PUSH2 0x100 ADD PUSH1 0x40 MSTORE DUP1 DUP5 PUSH1 0x1 PUSH1 0x1 PUSH1 0xA0 SHL SUB AND DUP2 MSTORE PUSH1 0x20 ADD PUSH1 0x6 DUP5 DUP2 SLOAD DUP2 LT PUSH2 0x2211 JUMPI INVALID JUMPDEST PUSH1 0x0 SWAP2 DUP3 MSTORE PUSH1 0x20 SWAP2 DUP3 SWAP1 KECCAK256 PUSH1 0x1 PUSH1 0x7 SWAP1 SWAP3 MUL ADD ADD SLOAD PUSH1 0x1 PUSH1 0x1 PUSH1 0xA0 SHL SUB AND DUP3 MSTORE PUSH1 0x6 DUP1 SLOAD SWAP3 SWAP1 SWAP2 ADD SWAP2 DUP6 SWAP1 DUP2 LT PUSH2 0x2244 JUMPI INVALID JUMPDEST SWAP1 PUSH1 0x0 MSTORE PUSH1 0x20 PUSH1 0x0 KECCAK256 SWAP1 PUSH1 0x7 MUL ADD PUSH1 0x2 ADD SLOAD DUP2 MSTORE PUSH1 0x20 ADD PUSH1 0x6 DUP5 DUP2 SLOAD DUP2 LT PUSH2 0x2268 JUMPI INVALID JUMPDEST SWAP1 PUSH1 0x0 MSTORE PUSH1 0x20 PUSH1 0x0 KECCAK256 SWAP1 PUSH1 0x7 MUL ADD PUSH1 0x3 ADD SLOAD DUP2 MSTORE PUSH1 0x20 ADD PUSH1 0x6 DUP5 DUP2 SLOAD DUP2 LT PUSH2 0x228C JUMPI INVALID JUMPDEST SWAP1 PUSH1 0x0 MSTORE PUSH1 0x20 PUSH1 0x0 KECCAK256 SWAP1 PUSH1 0x7 MUL ADD PUSH1 0x4 ADD SLOAD DUP2 MSTORE PUSH1 0x20 ADD PUSH1 0x6 DUP5 DUP2 SLOAD DUP2 LT PUSH2 0x22B0 JUMPI INVALID JUMPDEST SWAP1 PUSH1 0x0 MSTORE PUSH1 0x20 PUSH1 0x0 KECCAK256 SWAP1 PUSH1 0x7 MUL ADD PUSH1 0x5 ADD SLOAD DUP2 MSTORE PUSH1 0x20 ADD DUP6 DUP2 MSTORE PUSH1 0x20 ADD PUSH1 0x1 PUSH1 0x3 DUP2 GT ISZERO PUSH2 0x22DA JUMPI INVALID JUMPDEST SWAP1 MSTORE DUP2 SLOAD PUSH1 0x1 DUP1 DUP3 ADD DUP1 DUP6 SSTORE PUSH1 0x0 SWAP5 DUP6 MSTORE PUSH1 0x20 SWAP5 DUP6 SWAP1 KECCAK256 DUP5 MLOAD PUSH1 0x8 SWAP1 SWAP5 MUL ADD DUP1 SLOAD PUSH1 0x1 PUSH1 0x1 PUSH1 0xA0 SHL SUB NOT SWAP1 DUP2 AND PUSH1 0x1 PUSH1 0x1 PUSH1 0xA0 SHL SUB SWAP6 DUP7 AND OR DUP3 SSTORE SWAP6 DUP6 ADD MLOAD DUP2 DUP5 ADD DUP1 SLOAD SWAP1 SWAP8 AND SWAP5 AND SWAP4 SWAP1 SWAP4 OR SWAP1 SWAP5 SSTORE PUSH1 0x40 DUP4 ADD MLOAD PUSH1 0x2 DUP4 ADD SSTORE PUSH1 0x60 DUP4 ADD MLOAD PUSH1 0x3 DUP1 DUP5 ADD SWAP2 SWAP1 SWAP2 SSTORE PUSH1 0x80 DUP5 ADD MLOAD PUSH1 0x4 DUP5 ADD SSTORE PUSH1 0xA0 DUP5 ADD MLOAD PUSH1 0x5 DUP5 ADD SSTORE PUSH1 0xC0 DUP5 ADD MLOAD PUSH1 0x6 DUP5 ADD SSTORE PUSH1 0xE0 DUP5 ADD MLOAD PUSH1 0x7 DUP5 ADD DUP1 SLOAD SWAP2 SWAP4 SWAP1 SWAP3 PUSH1 0xFF NOT SWAP1 SWAP3 AND SWAP2 DUP5 SWAP1 DUP2 GT ISZERO PUSH2 0x2381 JUMPI INVALID JUMPDEST MUL OR SWAP1 SSTORE POP POP POP POP PUSH2 0x2392 DUP3 PUSH2 0x182B JUMP JUMPDEST PUSH1 0x6 DUP2 DUP2 SLOAD DUP2 LT PUSH2 0x239F JUMPI INVALID JUMPDEST PUSH1 0x0 SWAP2 DUP3 MSTORE PUSH1 0x20 SWAP1 SWAP2 KECCAK256 PUSH1 0x1 PUSH1 0x7 SWAP1 SWAP3 MUL ADD ADD SLOAD PUSH1 0x6 DUP1 SLOAD PUSH1 0x1 PUSH1 0x1 PUSH1 0xA0 SHL SUB SWAP1 SWAP3 AND SWAP2 DUP4 SWAP1 DUP2 LT PUSH2 0x23CD JUMPI INVALID JUMPDEST PUSH1 0x0 SWAP2 DUP3 MSTORE PUSH1 0x20 SWAP1 SWAP2 KECCAK256 PUSH1 0x7 SWAP1 SWAP2 MUL ADD SLOAD PUSH1 0x6 DUP1 SLOAD PUSH1 0x1 PUSH1 0x1 PUSH1 0xA0 SHL SUB SWAP1 SWAP3 AND SWAP2 PUSH32 0x5E51FBD7F7E38EE6927FB25D7E32916C08F102ECE1D3D65DF27EC76E3A43C3A7 SWAP2 SWAP1 DUP6 SWAP1 DUP2 LT PUSH2 0x241B JUMPI INVALID JUMPDEST SWAP1 PUSH1 0x0 MSTORE PUSH1 0x20 PUSH1 0x0 KECCAK256 SWAP1 PUSH1 0x7 MUL ADD PUSH1 0x5 ADD SLOAD PUSH1 0x40 MLOAD PUSH2 0x243A SWAP2 SWAP1 PUSH2 0x3AE3 JUMP JUMPDEST PUSH1 0x40 MLOAD DUP1 SWAP2 SUB SWAP1 LOG3 PUSH1 0x6 SLOAD PUSH1 0x1 LT ISZERO PUSH2 0x2516 JUMPI PUSH1 0x6 DUP1 SLOAD PUSH1 0x0 NOT DUP2 ADD SWAP1 DUP2 LT PUSH2 0x245F JUMPI INVALID JUMPDEST SWAP1 PUSH1 0x0 MSTORE PUSH1 0x20 PUSH1 0x0 KECCAK256 SWAP1 PUSH1 0x7 MUL ADD PUSH1 0x6 DUP3 DUP2 SLOAD DUP2 LT PUSH2 0x247A JUMPI INVALID JUMPDEST PUSH1 0x0 SWAP2 DUP3 MSTORE PUSH1 0x20 SWAP1 SWAP2 KECCAK256 DUP3 SLOAD PUSH1 0x7 SWAP1 SWAP3 MUL ADD DUP1 SLOAD PUSH1 0x1 PUSH1 0x1 PUSH1 0xA0 SHL SUB NOT SWAP1 DUP2 AND PUSH1 0x1 PUSH1 0x1 PUSH1 0xA0 SHL SUB SWAP4 DUP5 AND OR DUP3 SSTORE PUSH1 0x1 DUP1 DUP6 ADD SLOAD DUP2 DUP5 ADD DUP1 SLOAD SWAP1 SWAP4 AND SWAP5 AND SWAP4 SWAP1 SWAP4 OR SWAP1 SSTORE PUSH1 0x2 DUP1 DUP5 ADD SLOAD SWAP1 DUP3 ADD SSTORE PUSH1 0x3 DUP1 DUP5 ADD SLOAD DUP2 DUP4 ADD SSTORE PUSH1 0x4 DUP1 DUP6 ADD SLOAD SWAP1 DUP4 ADD SSTORE PUSH1 0x5 DUP1 DUP6 ADD SLOAD SWAP1 DUP4 ADD SSTORE PUSH1 0x6 DUP1 DUP6 ADD SLOAD SWAP1 DUP4 ADD DUP1 SLOAD SWAP4 SWAP5 PUSH1 0xFF SWAP1 SWAP3 AND SWAP4 SWAP1 SWAP3 PUSH1 0xFF NOT SWAP1 SWAP2 AND SWAP2 SWAP1 DUP5 SWAP1 DUP2 GT ISZERO PUSH2 0x250E JUMPI INVALID JUMPDEST MUL OR SWAP1 SSTORE POP POP POP JUMPDEST PUSH1 0x6 DUP1 SLOAD SWAP1 PUSH2 0xF40 SWAP1 PUSH1 0x0 NOT DUP4 ADD PUSH2 0x31F6 JUMP JUMPDEST PUSH1 0x1 ADD PUSH2 0x2105 JUMP JUMPDEST PUSH1 0x40 MLOAD CALLER SWAP1 DUP2 SWAP1 PUSH32 0xBB6D68F109745F7AE353E3B90FFF6FB8245C34CCA44F18D9DFA00E4D705FA64 SWAP1 PUSH1 0x0 SWAP1 LOG2 PUSH1 0x1 PUSH1 0x1 PUSH1 0xA0 SHL SUB AND PUSH1 0x0 SWAP1 DUP2 MSTORE PUSH1 0x20 DUP2 SWAP1 MSTORE PUSH1 0x40 SWAP1 KECCAK256 DUP1 SLOAD PUSH1 0xFF NOT AND SWAP1 SSTORE JUMP JUMPDEST CALLER PUSH1 0x0 SWAP1 DUP2 MSTORE PUSH1 0x1 PUSH1 0x20 MSTORE PUSH1 0x40 SWAP1 KECCAK256 SLOAD PUSH4 0xFFFFFFFF AND PUSH2 0x25B1 JUMPI PUSH1 0x40 MLOAD PUSH3 0x461BCD PUSH1 0xE5 SHL DUP2 MSTORE PUSH1 0x4 ADD PUSH2 0x30F SWAP1 PUSH2 0x3A83 JUMP JUMPDEST TIMESTAMP CALLER PUSH1 0x0 JUMPDEST PUSH1 0x9 SLOAD DUP2 LT ISZERO PUSH2 0x294A JUMPI PUSH1 0x0 JUMPDEST PUSH1 0xB SLOAD DUP2 LT ISZERO PUSH2 0x2941 JUMPI PUSH1 0x0 DUP1 SWAP1 POP PUSH1 0xB DUP3 DUP2 SLOAD DUP2 LT PUSH2 0x25DF JUMPI INVALID JUMPDEST PUSH1 0x0 SWAP2 DUP3 MSTORE PUSH1 0x20 SWAP1 SWAP2 KECCAK256 PUSH1 0x5 SWAP1 SWAP2 MUL ADD SLOAD PUSH1 0x9 DUP1 SLOAD PUSH1 0x1 PUSH1 0x1 PUSH1 0xA0 SHL SUB SWAP1 SWAP3 AND SWAP2 DUP6 SWAP1 DUP2 LT PUSH2 0x260A JUMPI INVALID JUMPDEST PUSH1 0x0 SWAP2 DUP3 MSTORE PUSH1 0x20 SWAP1 SWAP2 KECCAK256 PUSH1 0x1 PUSH1 0x8 SWAP1 SWAP3 MUL ADD ADD SLOAD PUSH1 0x1 PUSH1 0x1 PUSH1 0xA0 SHL SUB AND EQ DUP1 ISZERO PUSH2 0x2651 JUMPI POP DUP6 PUSH1 0x9 DUP5 DUP2 SLOAD DUP2 LT PUSH2 0x263D JUMPI INVALID JUMPDEST SWAP1 PUSH1 0x0 MSTORE PUSH1 0x20 PUSH1 0x0 KECCAK256 SWAP1 PUSH1 0x8 MUL ADD PUSH1 0x5 ADD SLOAD EQ JUMPDEST DUP1 ISZERO PUSH2 0x2698 JUMPI POP PUSH1 0xB DUP3 DUP2 SLOAD DUP2 LT PUSH2 0x2665 JUMPI INVALID JUMPDEST SWAP1 PUSH1 0x0 MSTORE PUSH1 0x20 PUSH1 0x0 KECCAK256 SWAP1 PUSH1 0x5 MUL ADD PUSH1 0x4 ADD SLOAD PUSH1 0x9 DUP5 DUP2 SLOAD DUP2 LT PUSH2 0x2684 JUMPI INVALID JUMPDEST SWAP1 PUSH1 0x0 MSTORE PUSH1 0x20 PUSH1 0x0 KECCAK256 SWAP1 PUSH1 0x8 MUL ADD PUSH1 0x5 ADD SLOAD EQ JUMPDEST ISZERO PUSH2 0x285E JUMPI DUP5 PUSH1 0x9 DUP5 DUP2 SLOAD DUP2 LT PUSH2 0x26AB JUMPI INVALID JUMPDEST SWAP1 PUSH1 0x0 MSTORE PUSH1 0x20 PUSH1 0x0 KECCAK256 SWAP1 PUSH1 0x8 MUL ADD PUSH1 0x3 ADD SLOAD GT ISZERO PUSH2 0x26DB JUMPI PUSH1 0x40 MLOAD PUSH3 0x461BCD PUSH1 0xE5 SHL DUP2 MSTORE PUSH1 0x4 ADD PUSH2 0x30F SWAP1 PUSH2 0x3A63 JUMP JUMPDEST DUP5 PUSH1 0x9 DUP5 DUP2 SLOAD DUP2 LT PUSH2 0x26E9 JUMPI INVALID JUMPDEST SWAP1 PUSH1 0x0 MSTORE PUSH1 0x20 PUSH1 0x0 KECCAK256 SWAP1 PUSH1 0x8 MUL ADD PUSH1 0x4 ADD SLOAD LT ISZERO PUSH2 0x2719 JUMPI PUSH1 0x40 MLOAD PUSH3 0x461BCD PUSH1 0xE5 SHL DUP2 MSTORE PUSH1 0x4 ADD PUSH2 0x30F SWAP1 PUSH2 0x3A93 JUMP JUMPDEST PUSH1 0xB DUP3 DUP2 SLOAD DUP2 LT PUSH2 0x2726 JUMPI INVALID JUMPDEST SWAP1 PUSH1 0x0 MSTORE PUSH1 0x20 PUSH1 0x0 KECCAK256 SWAP1 PUSH1 0x5 MUL ADD PUSH1 0x3 ADD SLOAD SWAP1 POP DUP1 PUSH1 0x9 DUP5 DUP2 SLOAD DUP2 LT PUSH2 0x2748 JUMPI INVALID JUMPDEST SWAP1 PUSH1 0x0 MSTORE PUSH1 0x20 PUSH1 0x0 KECCAK256 SWAP1 PUSH1 0x8 MUL ADD PUSH1 0x6 ADD SLOAD ADD PUSH1 0x9 DUP5 DUP2 SLOAD DUP2 LT PUSH2 0x2768 JUMPI INVALID JUMPDEST SWAP1 PUSH1 0x0 MSTORE PUSH1 0x20 PUSH1 0x0 KECCAK256 SWAP1 PUSH1 0x8 MUL ADD PUSH1 0x6 ADD DUP2 SWAP1 SSTORE POP PUSH1 0x0 PUSH1 0xB DUP4 DUP2 SLOAD DUP2 LT PUSH2 0x278C JUMPI INVALID JUMPDEST SWAP1 PUSH1 0x0 MSTORE PUSH1 0x20 PUSH1 0x0 KECCAK256 SWAP1 PUSH1 0x5 MUL ADD PUSH1 0x3 ADD DUP2 SWAP1 SSTORE POP PUSH1 0xC PUSH1 0x40 MLOAD DUP1 PUSH1 0xA0 ADD PUSH1 0x40 MSTORE DUP1 DUP7 PUSH1 0x1 PUSH1 0x1 PUSH1 0xA0 SHL SUB AND DUP2 MSTORE PUSH1 0x20 ADD PUSH1 0xB DUP6 DUP2 SLOAD DUP2 LT PUSH2 0x27CA JUMPI INVALID JUMPDEST PUSH1 0x0 SWAP2 DUP3 MSTORE PUSH1 0x20 DUP1 DUP4 KECCAK256 PUSH1 0x5 SWAP3 DUP4 MUL ADD SLOAD PUSH1 0x1 PUSH1 0x1 PUSH1 0xA0 SHL SUB SWAP1 DUP2 AND DUP6 MSTORE DUP5 DUP3 ADD DUP13 SWAP1 MSTORE PUSH1 0x40 DUP1 DUP7 ADD DUP15 SWAP1 MSTORE PUSH1 0x60 SWAP6 DUP7 ADD DUP10 SWAP1 MSTORE DUP8 SLOAD PUSH1 0x1 DUP2 DUP2 ADD DUP11 SSTORE SWAP9 DUP7 MSTORE SWAP5 DUP4 SWAP1 KECCAK256 DUP8 MLOAD SWAP6 SWAP1 SWAP5 MUL SWAP1 SWAP4 ADD DUP1 SLOAD SWAP5 DUP3 AND PUSH1 0x1 PUSH1 0x1 PUSH1 0xA0 SHL SUB NOT SWAP6 DUP7 AND OR DUP2 SSTORE SWAP2 DUP7 ADD MLOAD SWAP7 DUP3 ADD DUP1 SLOAD SWAP8 SWAP1 SWAP2 AND SWAP7 SWAP1 SWAP4 AND SWAP6 SWAP1 SWAP6 OR SWAP1 SWAP2 SSTORE DUP3 ADD MLOAD PUSH1 0x2 DUP5 ADD SSTORE DUP2 ADD MLOAD PUSH1 0x3 DUP4 ADD SSTORE PUSH1 0x80 ADD MLOAD PUSH1 0x4 SWAP1 SWAP2 ADD SSTORE JUMPDEST PUSH1 0xB DUP3 DUP2 SLOAD DUP2 LT PUSH2 0x286B JUMPI INVALID JUMPDEST SWAP1 PUSH1 0x0 MSTORE PUSH1 0x20 PUSH1 0x0 KECCAK256 SWAP1 PUSH1 0x5 MUL ADD PUSH1 0x3 ADD SLOAD PUSH1 0x0 EQ ISZERO PUSH2 0x2938 JUMPI PUSH1 0xB SLOAD PUSH1 0x1 LT ISZERO PUSH2 0x291E JUMPI PUSH1 0xB DUP1 SLOAD PUSH1 0x0 NOT DUP2 ADD SWAP1 DUP2 LT PUSH2 0x28A2 JUMPI INVALID JUMPDEST SWAP1 PUSH1 0x0 MSTORE PUSH1 0x20 PUSH1 0x0 KECCAK256 SWAP1 PUSH1 0x5 MUL ADD PUSH1 0xB DUP4 DUP2 SLOAD DUP2 LT PUSH2 0x28BD JUMPI INVALID JUMPDEST PUSH1 0x0 SWAP2 DUP3 MSTORE PUSH1 0x20 SWAP1 SWAP2 KECCAK256 DUP3 SLOAD PUSH1 0x5 SWAP1 SWAP3 MUL ADD DUP1 SLOAD PUSH1 0x1 PUSH1 0x1 PUSH1 0xA0 SHL SUB SWAP3 DUP4 AND PUSH1 0x1 PUSH1 0x1 PUSH1 0xA0 SHL SUB NOT SWAP2 DUP3 AND OR DUP3 SSTORE PUSH1 0x1 DUP1 DUP6 ADD SLOAD SWAP1 DUP4 ADD DUP1 SLOAD SWAP2 SWAP1 SWAP5 AND SWAP2 AND OR SWAP1 SWAP2 SSTORE PUSH1 0x2 DUP1 DUP4 ADD SLOAD SWAP1 DUP3 ADD SSTORE PUSH1 0x3 DUP1 DUP4 ADD SLOAD SWAP1 DUP3 ADD SSTORE PUSH1 0x4 SWAP2 DUP3 ADD SLOAD SWAP2 ADD SSTORE JUMPDEST PUSH1 0xB DUP1 SLOAD SWAP1 PUSH2 0x2931 SWAP1 PUSH1 0x0 NOT DUP4 ADD PUSH2 0x31CA JUMP JUMPDEST POP POP PUSH2 0x2941 JUMP JUMPDEST POP PUSH1 0x1 ADD PUSH2 0x25C3 JUMP JUMPDEST POP PUSH1 0x1 ADD PUSH2 0x25B6 JUMP JUMPDEST POP POP POP POP JUMP JUMPDEST PUSH1 0x0 DUP1 CALLER DUP2 JUMPDEST PUSH1 0x6 SLOAD DUP2 LT ISZERO PUSH2 0x294A JUMPI PUSH1 0x0 JUMPDEST PUSH1 0x6 SLOAD DUP2 LT ISZERO PUSH2 0x2DAC JUMPI PUSH1 0x6 DUP3 DUP2 SLOAD DUP2 LT PUSH2 0x297A JUMPI INVALID JUMPDEST SWAP1 PUSH1 0x0 MSTORE PUSH1 0x20 PUSH1 0x0 KECCAK256 SWAP1 PUSH1 0x7 MUL ADD PUSH1 0x2 ADD SLOAD PUSH1 0x6 DUP3 DUP2 SLOAD DUP2 LT PUSH2 0x2999 JUMPI INVALID JUMPDEST SWAP1 PUSH1 0x0 MSTORE PUSH1 0x20 PUSH1 0x0 KECCAK256 SWAP1 PUSH1 0x7 MUL ADD PUSH1 0x2 ADD SLOAD LT ISZERO PUSH2 0x2CB1 JUMPI PUSH1 0x0 PUSH1 0x6 DUP3 DUP2 SLOAD DUP2 LT PUSH2 0x29C0 JUMPI INVALID JUMPDEST PUSH1 0x0 SWAP2 DUP3 MSTORE PUSH1 0x20 SWAP1 SWAP2 KECCAK256 PUSH1 0x6 PUSH1 0x7 SWAP1 SWAP3 MUL ADD ADD SLOAD PUSH1 0xFF AND PUSH1 0x3 DUP2 GT ISZERO PUSH2 0x29E2 JUMPI INVALID JUMPDEST EQ PUSH2 0x29FF JUMPI PUSH1 0x40 MLOAD PUSH3 0x461BCD PUSH1 0xE5 SHL DUP2 MSTORE PUSH1 0x4 ADD PUSH2 0x30F SWAP1 PUSH2 0x3AA3 JUMP JUMPDEST DUP3 PUSH1 0x1 PUSH1 0x1 PUSH1 0xA0 SHL SUB AND PUSH1 0x6 DUP3 DUP2 SLOAD DUP2 LT PUSH2 0x2A16 JUMPI INVALID JUMPDEST PUSH1 0x0 SWAP2 DUP3 MSTORE PUSH1 0x20 SWAP1 SWAP2 KECCAK256 PUSH1 0x1 PUSH1 0x7 SWAP1 SWAP3 MUL ADD ADD SLOAD PUSH1 0x1 PUSH1 0x1 PUSH1 0xA0 SHL SUB AND EQ ISZERO PUSH2 0x2A51 JUMPI PUSH1 0x40 MLOAD PUSH3 0x461BCD PUSH1 0xE5 SHL DUP2 MSTORE PUSH1 0x4 ADD PUSH2 0x30F SWAP1 PUSH2 0x3AC3 JUMP JUMPDEST PUSH1 0x9 PUSH1 0x40 MLOAD DUP1 PUSH2 0x100 ADD PUSH1 0x40 MSTORE DUP1 DUP6 PUSH1 0x1 PUSH1 0x1 PUSH1 0xA0 SHL SUB AND DUP2 MSTORE PUSH1 0x20 ADD PUSH1 0x6 DUP5 DUP2 SLOAD DUP2 LT PUSH2 0x2A7B JUMPI INVALID JUMPDEST PUSH1 0x0 SWAP2 DUP3 MSTORE PUSH1 0x20 SWAP2 DUP3 SWAP1 KECCAK256 PUSH1 0x1 PUSH1 0x7 SWAP1 SWAP3 MUL ADD ADD SLOAD PUSH1 0x1 PUSH1 0x1 PUSH1 0xA0 SHL SUB AND DUP3 MSTORE PUSH1 0x6 DUP1 SLOAD SWAP3 SWAP1 SWAP2 ADD SWAP2 DUP6 SWAP1 DUP2 LT PUSH2 0x2AAE JUMPI INVALID JUMPDEST SWAP1 PUSH1 0x0 MSTORE PUSH1 0x20 PUSH1 0x0 KECCAK256 SWAP1 PUSH1 0x7 MUL ADD PUSH1 0x2 ADD SLOAD DUP2 MSTORE PUSH1 0x20 ADD PUSH1 0x6 DUP5 DUP2 SLOAD DUP2 LT PUSH2 0x2AD2 JUMPI INVALID JUMPDEST SWAP1 PUSH1 0x0 MSTORE PUSH1 0x20 PUSH1 0x0 KECCAK256 SWAP1 PUSH1 0x7 MUL ADD PUSH1 0x3 ADD SLOAD DUP2 MSTORE PUSH1 0x20 ADD PUSH1 0x6 DUP5 DUP2 SLOAD DUP2 LT PUSH2 0x2AF6 JUMPI INVALID JUMPDEST SWAP1 PUSH1 0x0 MSTORE PUSH1 0x20 PUSH1 0x0 KECCAK256 SWAP1 PUSH1 0x7 MUL ADD PUSH1 0x4 ADD SLOAD DUP2 MSTORE PUSH1 0x20 ADD PUSH1 0x6 DUP5 DUP2 SLOAD DUP2 LT PUSH2 0x2B1A JUMPI INVALID JUMPDEST SWAP1 PUSH1 0x0 MSTORE PUSH1 0x20 PUSH1 0x0 KECCAK256 SWAP1 PUSH1 0x7 MUL ADD PUSH1 0x5 ADD SLOAD DUP2 MSTORE PUSH1 0x20 ADD DUP8 DUP2 MSTORE PUSH1 0x20 ADD PUSH1 0x1 PUSH1 0x3 DUP2 GT ISZERO PUSH2 0x2B44 JUMPI INVALID JUMPDEST SWAP1 MSTORE DUP2 SLOAD PUSH1 0x1 DUP1 DUP3 ADD DUP1 DUP6 SSTORE PUSH1 0x0 SWAP5 DUP6 MSTORE PUSH1 0x20 SWAP5 DUP6 SWAP1 KECCAK256 DUP5 MLOAD PUSH1 0x8 SWAP1 SWAP5 MUL ADD DUP1 SLOAD PUSH1 0x1 PUSH1 0x1 PUSH1 0xA0 SHL SUB NOT SWAP1 DUP2 AND PUSH1 0x1 PUSH1 0x1 PUSH1 0xA0 SHL SUB SWAP6 DUP7 AND OR DUP3 SSTORE SWAP6 DUP6 ADD MLOAD DUP2 DUP5 ADD DUP1 SLOAD SWAP1 SWAP8 AND SWAP5 AND SWAP4 SWAP1 SWAP4 OR SWAP1 SWAP5 SSTORE PUSH1 0x40 DUP4 ADD MLOAD PUSH1 0x2 DUP4 ADD SSTORE PUSH1 0x60 DUP4 ADD MLOAD PUSH1 0x3 DUP1 DUP5 ADD SWAP2 SWAP1 SWAP2 SSTORE PUSH1 0x80 DUP5 ADD MLOAD PUSH1 0x4 DUP5 ADD SSTORE PUSH1 0xA0 DUP5 ADD MLOAD PUSH1 0x5 DUP5 ADD SSTORE PUSH1 0xC0 DUP5 ADD MLOAD PUSH1 0x6 DUP5 ADD SSTORE PUSH1 0xE0 DUP5 ADD MLOAD PUSH1 0x7 DUP5 ADD DUP1 SLOAD SWAP2 SWAP4 SWAP1 SWAP3 PUSH1 0xFF NOT SWAP1 SWAP3 AND SWAP2 DUP5 SWAP1 DUP2 GT ISZERO PUSH2 0x2BEB JUMPI INVALID JUMPDEST MUL OR SWAP1 SSTORE POP POP POP POP PUSH2 0x2BFC DUP4 PUSH2 0x182B JUMP JUMPDEST PUSH1 0x1 SWAP4 POP PUSH1 0x6 DUP2 DUP2 SLOAD DUP2 LT PUSH2 0x2C0D JUMPI INVALID JUMPDEST PUSH1 0x0 SWAP2 DUP3 MSTORE PUSH1 0x20 SWAP1 SWAP2 KECCAK256 PUSH1 0x1 PUSH1 0x7 SWAP1 SWAP3 MUL ADD ADD SLOAD PUSH1 0x6 DUP1 SLOAD PUSH1 0x1 PUSH1 0x1 PUSH1 0xA0 SHL SUB SWAP1 SWAP3 AND SWAP2 DUP4 SWAP1 DUP2 LT PUSH2 0x2C3B JUMPI INVALID JUMPDEST PUSH1 0x0 SWAP2 DUP3 MSTORE PUSH1 0x20 SWAP1 SWAP2 KECCAK256 PUSH1 0x7 SWAP1 SWAP2 MUL ADD SLOAD PUSH1 0x6 DUP1 SLOAD PUSH1 0x1 PUSH1 0x1 PUSH1 0xA0 SHL SUB SWAP1 SWAP3 AND SWAP2 PUSH32 0x5E51FBD7F7E38EE6927FB25D7E32916C08F102ECE1D3D65DF27EC76E3A43C3A7 SWAP2 SWAP1 DUP6 SWAP1 DUP2 LT PUSH2 0x2C89 JUMPI INVALID JUMPDEST SWAP1 PUSH1 0x0 MSTORE PUSH1 0x20 PUSH1 0x0 KECCAK256 SWAP1 PUSH1 0x7 MUL ADD PUSH1 0x5 ADD SLOAD PUSH1 0x40 MLOAD PUSH2 0x2CA8 SWAP2 SWAP1 PUSH2 0x3AE3 JUMP JUMPDEST PUSH1 0x40 MLOAD DUP1 SWAP2 SUB SWAP1 LOG3 JUMPDEST DUP4 ISZERO PUSH2 0x2DA4 JUMPI PUSH1 0x6 SLOAD PUSH1 0x1 LT ISZERO PUSH2 0x2D8B JUMPI PUSH1 0x6 DUP1 SLOAD PUSH1 0x0 NOT DUP2 ADD SWAP1 DUP2 LT PUSH2 0x2CD4 JUMPI INVALID JUMPDEST SWAP1 PUSH1 0x0 MSTORE PUSH1 0x20 PUSH1 0x0 KECCAK256 SWAP1 PUSH1 0x7 MUL ADD PUSH1 0x6 DUP3 DUP2 SLOAD DUP2 LT PUSH2 0x2CEF JUMPI INVALID JUMPDEST PUSH1 0x0 SWAP2 DUP3 MSTORE PUSH1 0x20 SWAP1 SWAP2 KECCAK256 DUP3 SLOAD PUSH1 0x7 SWAP1 SWAP3 MUL ADD DUP1 SLOAD PUSH1 0x1 PUSH1 0x1 PUSH1 0xA0 SHL SUB NOT SWAP1 DUP2 AND PUSH1 0x1 PUSH1 0x1 PUSH1 0xA0 SHL SUB SWAP4 DUP5 AND OR DUP3 SSTORE PUSH1 0x1 DUP1 DUP6 ADD SLOAD DUP2 DUP5 ADD DUP1 SLOAD SWAP1 SWAP4 AND SWAP5 AND SWAP4 SWAP1 SWAP4 OR SWAP1 SSTORE PUSH1 0x2 DUP1 DUP5 ADD SLOAD SWAP1 DUP3 ADD SSTORE PUSH1 0x3 DUP1 DUP5 ADD SLOAD DUP2 DUP4 ADD SSTORE PUSH1 0x4 DUP1 DUP6 ADD SLOAD SWAP1 DUP4 ADD SSTORE PUSH1 0x5 DUP1 DUP6 ADD SLOAD SWAP1 DUP4 ADD SSTORE PUSH1 0x6 DUP1 DUP6 ADD SLOAD SWAP1 DUP4 ADD DUP1 SLOAD SWAP4 SWAP5 PUSH1 0xFF SWAP1 SWAP3 AND SWAP4 SWAP1 SWAP3 PUSH1 0xFF NOT SWAP1 SWAP2 AND SWAP2 SWAP1 DUP5 SWAP1 DUP2 GT ISZERO PUSH2 0x2D83 JUMPI INVALID JUMPDEST MUL OR SWAP1 SSTORE POP POP POP JUMPDEST PUSH1 0x6 DUP1 SLOAD SWAP1 PUSH2 0x2D9E SWAP1 PUSH1 0x0 NOT DUP4 ADD PUSH2 0x31F6 JUMP JUMPDEST POP PUSH2 0x2DAC JUMP JUMPDEST PUSH1 0x1 ADD PUSH2 0x2963 JUMP JUMPDEST POP DUP3 ISZERO PUSH2 0x2DB8 JUMPI PUSH2 0x294A JUMP JUMPDEST PUSH1 0x0 PUSH1 0x6 DUP3 DUP2 SLOAD DUP2 LT PUSH2 0x2DC7 JUMPI INVALID JUMPDEST PUSH1 0x0 SWAP2 DUP3 MSTORE PUSH1 0x20 SWAP1 SWAP2 KECCAK256 PUSH1 0x6 PUSH1 0x7 SWAP1 SWAP3 MUL ADD ADD SLOAD PUSH1 0xFF AND PUSH1 0x3 DUP2 GT ISZERO PUSH2 0x2DE9 JUMPI INVALID JUMPDEST EQ PUSH2 0x2E06 JUMPI PUSH1 0x40 MLOAD PUSH3 0x461BCD PUSH1 0xE5 SHL DUP2 MSTORE PUSH1 0x4 ADD PUSH2 0x30F SWAP1 PUSH2 0x3AA3 JUMP JUMPDEST DUP2 PUSH1 0x1 PUSH1 0x1 PUSH1 0xA0 SHL SUB AND PUSH1 0x6 DUP3 DUP2 SLOAD DUP2 LT PUSH2 0x2E1D JUMPI INVALID JUMPDEST PUSH1 0x0 SWAP2 DUP3 MSTORE PUSH1 0x20 SWAP1 SWAP2 KECCAK256 PUSH1 0x1 PUSH1 0x7 SWAP1 SWAP3 MUL ADD ADD SLOAD PUSH1 0x1 PUSH1 0x1 PUSH1 0xA0 SHL SUB AND EQ ISZERO PUSH2 0x2E58 JUMPI PUSH1 0x40 MLOAD PUSH3 0x461BCD PUSH1 0xE5 SHL DUP2 MSTORE PUSH1 0x4 ADD PUSH2 0x30F SWAP1 PUSH2 0x3AC3 JUMP JUMPDEST PUSH1 0x9 PUSH1 0x40 MLOAD DUP1 PUSH2 0x100 ADD PUSH1 0x40 MSTORE DUP1 DUP5 PUSH1 0x1 PUSH1 0x1 PUSH1 0xA0 SHL SUB AND DUP2 MSTORE PUSH1 0x20 ADD PUSH1 0x6 DUP5 DUP2 SLOAD DUP2 LT PUSH2 0x2E82 JUMPI INVALID JUMPDEST PUSH1 0x0 SWAP2 DUP3 MSTORE PUSH1 0x20 SWAP2 DUP3 SWAP1 KECCAK256 PUSH1 0x1 PUSH1 0x7 SWAP1 SWAP3 MUL ADD ADD SLOAD PUSH1 0x1 PUSH1 0x1 PUSH1 0xA0 SHL SUB AND DUP3 MSTORE PUSH1 0x6 DUP1 SLOAD SWAP3 SWAP1 SWAP2 ADD SWAP2 DUP6 SWAP1 DUP2 LT PUSH2 0x2EB5 JUMPI INVALID JUMPDEST SWAP1 PUSH1 0x0 MSTORE PUSH1 0x20 PUSH1 0x0 KECCAK256 SWAP1 PUSH1 0x7 MUL ADD PUSH1 0x2 ADD SLOAD DUP2 MSTORE PUSH1 0x20 ADD PUSH1 0x6 DUP5 DUP2 SLOAD DUP2 LT PUSH2 0x2ED9 JUMPI INVALID JUMPDEST SWAP1 PUSH1 0x0 MSTORE PUSH1 0x20 PUSH1 0x0 KECCAK256 SWAP1 PUSH1 0x7 MUL ADD PUSH1 0x3 ADD SLOAD DUP2 MSTORE PUSH1 0x20 ADD PUSH1 0x6 DUP5 DUP2 SLOAD DUP2 LT PUSH2 0x2EFD JUMPI INVALID JUMPDEST SWAP1 PUSH1 0x0 MSTORE PUSH1 0x20 PUSH1 0x0 KECCAK256 SWAP1 PUSH1 0x7 MUL ADD PUSH1 0x4 ADD SLOAD DUP2 MSTORE PUSH1 0x20 ADD PUSH1 0x6 DUP5 DUP2 SLOAD DUP2 LT PUSH2 0x2F21 JUMPI INVALID JUMPDEST SWAP1 PUSH1 0x0 MSTORE PUSH1 0x20 PUSH1 0x0 KECCAK256 SWAP1 PUSH1 0x7 MUL ADD PUSH1 0x5 ADD SLOAD DUP2 MSTORE PUSH1 0x20 ADD DUP7 DUP2 MSTORE PUSH1 0x20 ADD PUSH1 0x1 PUSH1 0x3 DUP2 GT ISZERO PUSH2 0x2F4B JUMPI INVALID JUMPDEST SWAP1 MSTORE DUP2 SLOAD PUSH1 0x1 DUP1 DUP3 ADD DUP1 DUP6 SSTORE PUSH1 0x0 SWAP5 DUP6 MSTORE PUSH1 0x20 SWAP5 DUP6 SWAP1 KECCAK256 DUP5 MLOAD PUSH1 0x8 SWAP1 SWAP5 MUL ADD DUP1 SLOAD PUSH1 0x1 PUSH1 0x1 PUSH1 0xA0 SHL SUB NOT SWAP1 DUP2 AND PUSH1 0x1 PUSH1 0x1 PUSH1 0xA0 SHL SUB SWAP6 DUP7 AND OR DUP3 SSTORE SWAP6 DUP6 ADD MLOAD DUP2 DUP5 ADD DUP1 SLOAD SWAP1 SWAP8 AND SWAP5 AND SWAP4 SWAP1 SWAP4 OR SWAP1 SWAP5 SSTORE PUSH1 0x40 DUP4 ADD MLOAD PUSH1 0x2 DUP4 ADD SSTORE PUSH1 0x60 DUP4 ADD MLOAD PUSH1 0x3 DUP1 DUP5 ADD SWAP2 SWAP1 SWAP2 SSTORE PUSH1 0x80 DUP5 ADD MLOAD PUSH1 0x4 DUP5 ADD SSTORE PUSH1 0xA0 DUP5 ADD MLOAD PUSH1 0x5 DUP5 ADD SSTORE PUSH1 0xC0 DUP5 ADD MLOAD PUSH1 0x6 DUP5 ADD SSTORE PUSH1 0xE0 DUP5 ADD MLOAD PUSH1 0x7 DUP5 ADD DUP1 SLOAD SWAP2 SWAP4 SWAP1 SWAP3 PUSH1 0xFF NOT SWAP1 SWAP3 AND SWAP2 DUP5 SWAP1 DUP2 GT ISZERO PUSH2 0x2FF2 JUMPI INVALID JUMPDEST MUL OR SWAP1 SSTORE POP POP POP POP PUSH2 0x3003 DUP3 PUSH2 0x182B JUMP JUMPDEST PUSH1 0x1 SWAP3 POP PUSH1 0x6 DUP2 DUP2 SLOAD DUP2 LT PUSH2 0x3014 JUMPI INVALID JUMPDEST PUSH1 0x0 SWAP2 DUP3 MSTORE PUSH1 0x20 SWAP1 SWAP2 KECCAK256 PUSH1 0x1 PUSH1 0x7 SWAP1 SWAP3 MUL ADD ADD SLOAD PUSH1 0x6 DUP1 SLOAD PUSH1 0x1 PUSH1 0x1 PUSH1 0xA0 SHL SUB SWAP1 SWAP3 AND SWAP2 DUP4 SWAP1 DUP2 LT PUSH2 0x3042 JUMPI INVALID JUMPDEST PUSH1 0x0 SWAP2 DUP3 MSTORE PUSH1 0x20 SWAP1 SWAP2 KECCAK256 PUSH1 0x7 SWAP1 SWAP2 MUL ADD SLOAD PUSH1 0x6 DUP1 SLOAD PUSH1 0x1 PUSH1 0x1 PUSH1 0xA0 SHL SUB SWAP1 SWAP3 AND SWAP2 PUSH32 0x5E51FBD7F7E38EE6927FB25D7E32916C08F102ECE1D3D65DF27EC76E3A43C3A7 SWAP2 SWAP1 DUP6 SWAP1 DUP2 LT PUSH2 0x3090 JUMPI INVALID JUMPDEST SWAP1 PUSH1 0x0 MSTORE PUSH1 0x20 PUSH1 0x0 KECCAK256 SWAP1 PUSH1 0x7 MUL ADD PUSH1 0x5 ADD SLOAD PUSH1 0x40 MLOAD PUSH2 0x30AF SWAP2 SWAP1 PUSH2 0x3AE3 JUMP JUMPDEST PUSH1 0x40 MLOAD DUP1 SWAP2 SUB SWAP1 LOG3 DUP3 ISZERO PUSH2 0x31AA JUMPI PUSH1 0x6 SLOAD PUSH1 0x1 LT ISZERO PUSH2 0x3191 JUMPI PUSH1 0x6 DUP1 SLOAD PUSH1 0x0 NOT DUP2 ADD SWAP1 DUP2 LT PUSH2 0x30DA JUMPI INVALID JUMPDEST SWAP1 PUSH1 0x0 MSTORE PUSH1 0x20 PUSH1 0x0 KECCAK256 SWAP1 PUSH1 0x7 MUL ADD PUSH1 0x6 DUP3 DUP2 SLOAD DUP2 LT PUSH2 0x30F5 JUMPI INVALID JUMPDEST PUSH1 0x0 SWAP2 DUP3 MSTORE PUSH1 0x20 SWAP1 SWAP2 KECCAK256 DUP3 SLOAD PUSH1 0x7 SWAP1 SWAP3 MUL ADD DUP1 SLOAD PUSH1 0x1 PUSH1 0x1 PUSH1 0xA0 SHL SUB NOT SWAP1 DUP2 AND PUSH1 0x1 PUSH1 0x1 PUSH1 0xA0 SHL SUB SWAP4 DUP5 AND OR DUP3 SSTORE PUSH1 0x1 DUP1 DUP6 ADD SLOAD DUP2 DUP5 ADD DUP1 SLOAD SWAP1 SWAP4 AND SWAP5 AND SWAP4 SWAP1 SWAP4 OR SWAP1 SSTORE PUSH1 0x2 DUP1 DUP5 ADD SLOAD SWAP1 DUP3 ADD SSTORE PUSH1 0x3 DUP1 DUP5 ADD SLOAD DUP2 DUP4 ADD SSTORE PUSH1 0x4 DUP1 DUP6 ADD SLOAD SWAP1 DUP4 ADD SSTORE PUSH1 0x5 DUP1 DUP6 ADD SLOAD SWAP1 DUP4 ADD SSTORE PUSH1 0x6 DUP1 DUP6 ADD SLOAD SWAP1 DUP4 ADD DUP1 SLOAD SWAP4 SWAP5 PUSH1 0xFF SWAP1 SWAP3 AND SWAP4 SWAP1 SWAP3 PUSH1 0xFF NOT SWAP1 SWAP2 AND SWAP2 SWAP1 DUP5 SWAP1 DUP2 GT ISZERO PUSH2 0x3189 JUMPI INVALID JUMPDEST MUL OR SWAP1 SSTORE POP POP POP JUMPDEST PUSH1 0x6 DUP1 SLOAD SWAP1 PUSH2 0x31A4 SWAP1 PUSH1 0x0 NOT DUP4 ADD PUSH2 0x31F6 JUMP JUMPDEST POP PUSH2 0x294A JUMP JUMPDEST PUSH1 0x1 ADD PUSH2 0x2956 JUMP JUMPDEST PUSH1 0x0 PUSH2 0x1862 JUMP JUMPDEST DUP1 SLOAD PUSH1 0x1 ADD SWAP1 SSTORE JUMP JUMPDEST DUP1 SLOAD JUMPDEST SWAP2 SWAP1 POP JUMP JUMPDEST DUP2 SLOAD DUP2 DUP4 SSTORE DUP2 DUP2 GT ISZERO PUSH2 0xF4E JUMPI PUSH1 0x5 MUL DUP2 PUSH1 0x5 MUL DUP4 PUSH1 0x0 MSTORE PUSH1 0x20 PUSH1 0x0 KECCAK256 SWAP2 DUP3 ADD SWAP2 ADD PUSH2 0xF4E SWAP2 SWAP1 PUSH2 0x324E JUMP JUMPDEST DUP2 SLOAD DUP2 DUP4 SSTORE DUP2 DUP2 GT ISZERO PUSH2 0xF4E JUMPI PUSH1 0x7 MUL DUP2 PUSH1 0x7 MUL DUP4 PUSH1 0x0 MSTORE PUSH1 0x20 PUSH1 0x0 KECCAK256 SWAP2 DUP3 ADD SWAP2 ADD PUSH2 0xF4E SWAP2 SWAP1 PUSH2 0x3298 JUMP JUMPDEST DUP2 SLOAD DUP2 DUP4 SSTORE DUP2 DUP2 GT ISZERO PUSH2 0xF4E JUMPI PUSH1 0x8 MUL DUP2 PUSH1 0x8 MUL DUP4 PUSH1 0x0 MSTORE PUSH1 0x20 PUSH1 0x0 KECCAK256 SWAP2 DUP3 ADD SWAP2 ADD PUSH2 0xF4E SWAP2 SWAP1 PUSH2 0x32F1 JUMP JUMPDEST PUSH2 0x102B SWAP2 SWAP1 JUMPDEST DUP1 DUP3 GT ISZERO PUSH2 0x3294 JUMPI DUP1 SLOAD PUSH1 0x1 PUSH1 0x1 PUSH1 0xA0 SHL SUB NOT SWAP1 DUP2 AND DUP3 SSTORE PUSH1 0x1 DUP3 ADD DUP1 SLOAD SWAP1 SWAP2 AND SWAP1 SSTORE PUSH1 0x0 PUSH1 0x2 DUP3 ADD DUP2 SWAP1 SSTORE PUSH1 0x3 DUP3 ADD DUP2 SWAP1 SSTORE PUSH1 0x4 DUP3 ADD SSTORE PUSH1 0x5 ADD PUSH2 0x3254 JUMP JUMPDEST POP SWAP1 JUMP JUMPDEST PUSH2 0x102B SWAP2 SWAP1 JUMPDEST DUP1 DUP3 GT ISZERO PUSH2 0x3294 JUMPI DUP1 SLOAD PUSH1 0x1 PUSH1 0x1 PUSH1 0xA0 SHL SUB NOT SWAP1 DUP2 AND DUP3 SSTORE PUSH1 0x1 DUP3 ADD DUP1 SLOAD SWAP1 SWAP2 AND SWAP1 SSTORE PUSH1 0x0 PUSH1 0x2 DUP3 ADD DUP2 SWAP1 SSTORE PUSH1 0x3 DUP3 ADD DUP2 SWAP1 SSTORE PUSH1 0x4 DUP3 ADD DUP2 SWAP1 SSTORE PUSH1 0x5 DUP3 ADD SSTORE PUSH1 0x6 DUP2 ADD DUP1 SLOAD PUSH1 0xFF NOT AND SWAP1 SSTORE PUSH1 0x7 ADD PUSH2 0x329E JUMP JUMPDEST PUSH2 0x102B SWAP2 SWAP1 JUMPDEST DUP1 DUP3 GT ISZERO PUSH2 0x3294 JUMPI DUP1 SLOAD PUSH1 0x1 PUSH1 0x1 PUSH1 0xA0 SHL SUB NOT SWAP1 DUP2 AND DUP3 SSTORE PUSH1 0x1 DUP3 ADD DUP1 SLOAD SWAP1 SWAP2 AND SWAP1 SSTORE PUSH1 0x0 PUSH1 0x2 DUP3 ADD DUP2 SWAP1 SSTORE PUSH1 0x3 DUP3 ADD DUP2 SWAP1 SSTORE PUSH1 0x4 DUP3 ADD DUP2 SWAP1 SSTORE PUSH1 0x5 DUP3 ADD DUP2 SWAP1 SSTORE PUSH1 0x6 DUP3 ADD SSTORE PUSH1 0x7 DUP2 ADD DUP1 SLOAD PUSH1 0xFF NOT AND SWAP1 SSTORE PUSH1 0x8 ADD PUSH2 0x32F7 JUMP JUMPDEST DUP1 CALLDATALOAD PUSH2 0x335C DUP2 PUSH2 0x3B80 JUMP JUMPDEST SWAP3 SWAP2 POP POP JUMP JUMPDEST DUP1 CALLDATALOAD PUSH2 0x335C DUP2 PUSH2 0x3B94 JUMP JUMPDEST PUSH1 0x0 PUSH1 0x20 DUP3 DUP5 SUB SLT ISZERO PUSH2 0x337F JUMPI PUSH1 0x0 DUP1 REVERT JUMPDEST PUSH1 0x0 PUSH2 0x338B DUP5 DUP5 PUSH2 0x3351 JUMP JUMPDEST SWAP5 SWAP4 POP POP POP POP JUMP JUMPDEST PUSH1 0x0 DUP1 PUSH1 0x0 PUSH1 0x60 DUP5 DUP7 SUB SLT ISZERO PUSH2 0x33A8 JUMPI PUSH1 0x0 DUP1 REVERT JUMPDEST PUSH1 0x0 PUSH2 0x33B4 DUP7 DUP7 PUSH2 0x3351 JUMP JUMPDEST SWAP4 POP POP PUSH1 0x20 PUSH2 0x33C5 DUP7 DUP3 DUP8 ADD PUSH2 0x3362 JUMP JUMPDEST SWAP3 POP POP PUSH1 0x40 PUSH2 0x33D6 DUP7 DUP3 DUP8 ADD PUSH2 0x3362 JUMP JUMPDEST SWAP2 POP POP SWAP3 POP SWAP3 POP SWAP3 JUMP JUMPDEST PUSH1 0x0 DUP1 PUSH1 0x0 DUP1 PUSH1 0x0 PUSH1 0xA0 DUP7 DUP9 SUB SLT ISZERO PUSH2 0x33F8 JUMPI PUSH1 0x0 DUP1 REVERT JUMPDEST PUSH1 0x0 PUSH2 0x3404 DUP9 DUP9 PUSH2 0x3351 JUMP JUMPDEST SWAP6 POP POP PUSH1 0x20 PUSH2 0x3415 DUP9 DUP3 DUP10 ADD PUSH2 0x3362 JUMP JUMPDEST SWAP5 POP POP PUSH1 0x40 PUSH2 0x3426 DUP9 DUP3 DUP10 ADD PUSH2 0x3362 JUMP JUMPDEST SWAP4 POP POP PUSH1 0x60 PUSH2 0x3437 DUP9 DUP3 DUP10 ADD PUSH2 0x3362 JUMP JUMPDEST SWAP3 POP POP PUSH1 0x80 PUSH2 0x3448 DUP9 DUP3 DUP10 ADD PUSH2 0x3362 JUMP JUMPDEST SWAP2 POP POP SWAP3 SWAP6 POP SWAP3 SWAP6 SWAP1 SWAP4 POP JUMP JUMPDEST PUSH1 0x0 PUSH1 0x20 DUP3 DUP5 SUB SLT ISZERO PUSH2 0x3467 JUMPI PUSH1 0x0 DUP1 REVERT JUMPDEST PUSH1 0x0 PUSH2 0x338B DUP5 DUP5 PUSH2 0x3362 JUMP JUMPDEST PUSH1 0x0 DUP1 PUSH1 0x40 DUP4 DUP6 SUB SLT ISZERO PUSH2 0x3486 JUMPI PUSH1 0x0 DUP1 REVERT JUMPDEST PUSH1 0x0 PUSH2 0x3492 DUP6 DUP6 PUSH2 0x3362 JUMP JUMPDEST SWAP3 POP POP PUSH1 0x20 PUSH2 0x34A3 DUP6 DUP3 DUP7 ADD PUSH2 0x3362 JUMP JUMPDEST SWAP2 POP POP SWAP3 POP SWAP3 SWAP1 POP JUMP JUMPDEST PUSH1 0x0 DUP1 PUSH1 0x0 PUSH1 0x60 DUP5 DUP7 SUB SLT ISZERO PUSH2 0x34C2 JUMPI PUSH1 0x0 DUP1 REVERT JUMPDEST PUSH1 0x0 PUSH2 0x33B4 DUP7 DUP7 PUSH2 0x3362 JUMP JUMPDEST PUSH1 0x0 PUSH2 0x34DA DUP4 DUP4 PUSH2 0x37E8 JUMP JUMPDEST POP POP PUSH2 0x100 ADD SWAP1 JUMP JUMPDEST PUSH1 0x0 PUSH2 0x34EF DUP4 DUP4 PUSH2 0x387F JUMP JUMPDEST POP POP PUSH1 0xE0 ADD SWAP1 JUMP JUMPDEST PUSH1 0x0 PUSH2 0x3503 DUP4 DUP4 PUSH2 0x3902 JUMP JUMPDEST POP POP PUSH1 0xA0 ADD SWAP1 JUMP JUMPDEST PUSH2 0x3514 DUP2 PUSH2 0x3B47 JUMP JUMPDEST DUP3 MSTORE POP POP JUMP JUMPDEST PUSH1 0x0 PUSH2 0x3525 DUP3 PUSH2 0x3B3A JUMP JUMPDEST PUSH2 0x352F DUP2 DUP6 PUSH2 0x3B3E JUMP JUMPDEST SWAP4 POP PUSH2 0x353A DUP4 PUSH2 0x3B34 JUMP JUMPDEST DUP1 PUSH1 0x0 JUMPDEST DUP4 DUP2 LT ISZERO PUSH2 0x3568 JUMPI DUP2 MLOAD PUSH2 0x3552 DUP9 DUP3 PUSH2 0x34CE JUMP JUMPDEST SWAP8 POP PUSH2 0x355D DUP4 PUSH2 0x3B34 JUMP JUMPDEST SWAP3 POP POP PUSH1 0x1 ADD PUSH2 0x353E JUMP JUMPDEST POP SWAP5 SWAP6 SWAP5 POP POP POP POP POP JUMP JUMPDEST PUSH1 0x0 PUSH2 0x357E DUP3 PUSH2 0x3B3A JUMP JUMPDEST PUSH2 0x3588 DUP2 DUP6 PUSH2 0x3B3E JUMP JUMPDEST SWAP4 POP PUSH2 0x3593 DUP4 PUSH2 0x3B34 JUMP JUMPDEST DUP1 PUSH1 0x0 JUMPDEST DUP4 DUP2 LT ISZERO PUSH2 0x3568 JUMPI DUP2 MLOAD PUSH2 0x35AB DUP9 DUP3 PUSH2 0x34E3 JUMP JUMPDEST SWAP8 POP PUSH2 0x35B6 DUP4 PUSH2 0x3B34 JUMP JUMPDEST SWAP3 POP POP PUSH1 0x1 ADD PUSH2 0x3597 JUMP JUMPDEST PUSH1 0x0 PUSH2 0x35CC DUP3 PUSH2 0x3B3A JUMP JUMPDEST PUSH2 0x35D6 DUP2 DUP6 PUSH2 0x3B3E JUMP JUMPDEST SWAP4 POP PUSH2 0x35E1 DUP4 PUSH2 0x3B34 JUMP JUMPDEST DUP1 PUSH1 0x0 JUMPDEST DUP4 DUP2 LT ISZERO PUSH2 0x3568 JUMPI DUP2 MLOAD PUSH2 0x35F9 DUP9 DUP3 PUSH2 0x34F7 JUMP JUMPDEST SWAP8 POP PUSH2 0x3604 DUP4 PUSH2 0x3B34 JUMP JUMPDEST SWAP3 POP POP PUSH1 0x1 ADD PUSH2 0x35E5 JUMP JUMPDEST PUSH1 0x0 PUSH2 0x361A DUP3 PUSH2 0x3B3A JUMP JUMPDEST PUSH2 0x3624 DUP2 DUP6 PUSH2 0x3B3E JUMP JUMPDEST SWAP4 POP PUSH2 0x362F DUP4 PUSH2 0x3B34 JUMP JUMPDEST DUP1 PUSH1 0x0 JUMPDEST DUP4 DUP2 LT ISZERO PUSH2 0x3568 JUMPI DUP2 MLOAD PUSH2 0x3647 DUP9 DUP3 PUSH2 0x34F7 JUMP JUMPDEST SWAP8 POP PUSH2 0x3652 DUP4 PUSH2 0x3B34 JUMP JUMPDEST SWAP3 POP POP PUSH1 0x1 ADD PUSH2 0x3633 JUMP JUMPDEST PUSH2 0x3514 DUP2 PUSH2 0x3B68 JUMP JUMPDEST PUSH1 0x0 PUSH2 0x3673 PUSH1 0x15 DUP4 PUSH2 0x3B3E JUMP JUMPDEST PUSH21 0x141410481A5CC81B9BDD081858DD1A5D99481E595D PUSH1 0x5A SHL DUP2 MSTORE PUSH1 0x20 ADD SWAP3 SWAP2 POP POP JUMP JUMPDEST PUSH1 0x0 PUSH2 0x36A4 PUSH1 0x5 DUP4 PUSH2 0x3B3E JUMP JUMPDEST PUSH5 0x32B93937B9 PUSH1 0xD9 SHL DUP2 MSTORE PUSH1 0x20 ADD SWAP3 SWAP2 POP POP JUMP JUMPDEST PUSH1 0x0 PUSH2 0x36C5 PUSH1 0xF DUP4 PUSH2 0x3B3E JUMP JUMPDEST PUSH15 0x4F6E6C7920505041206F776E657273 PUSH1 0x88 SHL DUP2 MSTORE PUSH1 0x20 ADD SWAP3 SWAP2 POP POP JUMP JUMPDEST PUSH1 0x0 PUSH2 0x36F0 PUSH1 0xF DUP4 PUSH2 0x3B3E JUMP JUMPDEST PUSH15 0x141410481A185CC8195E1C1A5C9959 PUSH1 0x8A SHL DUP2 MSTORE PUSH1 0x20 ADD SWAP3 SWAP2 POP POP JUMP JUMPDEST PUSH1 0x0 PUSH2 0x371B PUSH1 0x13 DUP4 PUSH2 0x3B3E JUMP JUMPDEST PUSH19 0x50504120646F6573206E6F7420657869737473 PUSH1 0x68 SHL DUP2 MSTORE PUSH1 0x20 ADD SWAP3 SWAP2 POP POP JUMP JUMPDEST PUSH1 0x0 PUSH2 0x374A PUSH1 0x1E DUP4 PUSH2 0x3B3E JUMP JUMPDEST PUSH32 0x596F75206D75737420626520612063757272656E742050726F64756365720000 DUP2 MSTORE PUSH1 0x20 ADD SWAP3 SWAP2 POP POP JUMP JUMPDEST PUSH1 0x0 PUSH2 0x3783 PUSH1 0x13 DUP4 PUSH2 0x3B3E JUMP JUMPDEST PUSH19 0x2BB937B7339030B2323932B9B990313ABCB2B9 PUSH1 0x69 SHL DUP2 MSTORE PUSH1 0x20 ADD SWAP3 SWAP2 POP POP JUMP JUMPDEST PUSH1 0x0 PUSH2 0x37B2 PUSH1 0x21 DUP4 PUSH2 0x3B3E JUMP JUMPDEST PUSH32 0x4974277320696D706F737369626C6520656E64446179203C2073746172744461 DUP2 MSTORE PUSH1 0x79 PUSH1 0xF8 SHL PUSH1 0x20 DUP3 ADD MSTORE PUSH1 0x40 ADD SWAP3 SWAP2 POP POP JUMP JUMPDEST DUP1 MLOAD PUSH2 0x100 DUP4 ADD SWAP1 PUSH2 0x37FA DUP5 DUP3 PUSH2 0x350B JUMP JUMPDEST POP PUSH1 0x20 DUP3 ADD MLOAD PUSH2 0x380D PUSH1 0x20 DUP6 ADD DUP3 PUSH2 0x350B JUMP JUMPDEST POP PUSH1 0x40 DUP3 ADD MLOAD PUSH2 0x3820 PUSH1 0x40 DUP6 ADD DUP3 PUSH2 0x395B JUMP JUMPDEST POP PUSH1 0x60 DUP3 ADD MLOAD PUSH2 0x3833 PUSH1 0x60 DUP6 ADD DUP3 PUSH2 0x395B JUMP JUMPDEST POP PUSH1 0x80 DUP3 ADD MLOAD PUSH2 0x3846 PUSH1 0x80 DUP6 ADD DUP3 PUSH2 0x395B JUMP JUMPDEST POP PUSH1 0xA0 DUP3 ADD MLOAD PUSH2 0x3859 PUSH1 0xA0 DUP6 ADD DUP3 PUSH2 0x395B JUMP JUMPDEST POP PUSH1 0xC0 DUP3 ADD MLOAD PUSH2 0x386C PUSH1 0xC0 DUP6 ADD DUP3 PUSH2 0x395B JUMP JUMPDEST POP PUSH1 0xE0 DUP3 ADD MLOAD PUSH2 0x294A PUSH1 0xE0 DUP6 ADD DUP3 PUSH2 0x365D JUMP JUMPDEST DUP1 MLOAD PUSH1 0xE0 DUP4 ADD SWAP1 PUSH2 0x3890 DUP5 DUP3 PUSH2 0x350B JUMP JUMPDEST POP PUSH1 0x20 DUP3 ADD MLOAD PUSH2 0x38A3 PUSH1 0x20 DUP6 ADD DUP3 PUSH2 0x350B JUMP JUMPDEST POP PUSH1 0x40 DUP3 ADD MLOAD PUSH2 0x38B6 PUSH1 0x40 DUP6 ADD DUP3 PUSH2 0x395B JUMP JUMPDEST POP PUSH1 0x60 DUP3 ADD MLOAD PUSH2 0x38C9 PUSH1 0x60 DUP6 ADD DUP3 PUSH2 0x395B JUMP JUMPDEST POP PUSH1 0x80 DUP3 ADD MLOAD PUSH2 0x38DC PUSH1 0x80 DUP6 ADD DUP3 PUSH2 0x395B JUMP JUMPDEST POP PUSH1 0xA0 DUP3 ADD MLOAD PUSH2 0x38EF PUSH1 0xA0 DUP6 ADD DUP3 PUSH2 0x395B JUMP JUMPDEST POP PUSH1 0xC0 DUP3 ADD MLOAD PUSH2 0x294A PUSH1 0xC0 DUP6 ADD DUP3 PUSH2 0x365D JUMP JUMPDEST DUP1 MLOAD PUSH1 0xA0 DUP4 ADD SWAP1 PUSH2 0x3913 DUP5 DUP3 PUSH2 0x350B JUMP JUMPDEST POP PUSH1 0x20 DUP3 ADD MLOAD PUSH2 0x3926 PUSH1 0x20 DUP6 ADD DUP3 PUSH2 0x350B JUMP JUMPDEST POP PUSH1 0x40 DUP3 ADD MLOAD PUSH2 0x3939 PUSH1 0x40 DUP6 ADD DUP3 PUSH2 0x395B JUMP JUMPDEST POP PUSH1 0x60 DUP3 ADD MLOAD PUSH2 0x394C PUSH1 0x60 DUP6 ADD DUP3 PUSH2 0x395B JUMP JUMPDEST POP PUSH1 0x80 DUP3 ADD MLOAD PUSH2 0x294A PUSH1 0x80 DUP6 ADD DUP3 JUMPDEST PUSH2 0x3514 DUP2 PUSH2 0x102B JUMP JUMPDEST PUSH1 0xA0 DUP2 ADD PUSH2 0x3972 DUP3 DUP9 PUSH2 0x350B JUMP JUMPDEST PUSH2 0x397F PUSH1 0x20 DUP4 ADD DUP8 PUSH2 0x350B JUMP JUMPDEST PUSH2 0x398C PUSH1 0x40 DUP4 ADD DUP7 PUSH2 0x395B JUMP JUMPDEST PUSH2 0x3999 PUSH1 0x60 DUP4 ADD DUP6 PUSH2 0x395B JUMP JUMPDEST PUSH2 0x39A6 PUSH1 0x80 DUP4 ADD DUP5 PUSH2 0x395B JUMP JUMPDEST SWAP7 SWAP6 POP POP POP POP POP POP JUMP JUMPDEST PUSH1 0xE0 DUP2 ADD PUSH2 0x39BE DUP3 DUP11 PUSH2 0x350B JUMP JUMPDEST PUSH2 0x39CB PUSH1 0x20 DUP4 ADD DUP10 PUSH2 0x350B JUMP JUMPDEST PUSH2 0x39D8 PUSH1 0x40 DUP4 ADD DUP9 PUSH2 0x395B JUMP JUMPDEST PUSH2 0x39E5 PUSH1 0x60 DUP4 ADD DUP8 PUSH2 0x395B JUMP JUMPDEST PUSH2 0x39F2 PUSH1 0x80 DUP4 ADD DUP7 PUSH2 0x395B JUMP JUMPDEST PUSH2 0x39FF PUSH1 0xA0 DUP4 ADD DUP6 PUSH2 0x395B JUMP JUMPDEST PUSH2 0x3A0C PUSH1 0xC0 DUP4 ADD DUP5 PUSH2 0x395B JUMP JUMPDEST SWAP9 SWAP8 POP POP POP POP POP POP POP POP JUMP JUMPDEST PUSH1 0x20 DUP1 DUP3 MSTORE DUP2 ADD PUSH2 0x3A29 DUP2 DUP5 PUSH2 0x351A JUMP JUMPDEST SWAP4 SWAP3 POP POP POP JUMP JUMPDEST PUSH1 0x20 DUP1 DUP3 MSTORE DUP2 ADD PUSH2 0x3A29 DUP2 DUP5 PUSH2 0x3573 JUMP JUMPDEST PUSH1 0x20 DUP1 DUP3 MSTORE DUP2 ADD PUSH2 0x3A29 DUP2 DUP5 PUSH2 0x35C1 JUMP JUMPDEST PUSH1 0x20 DUP1 DUP3 MSTORE DUP2 ADD PUSH2 0x3A29 DUP2 DUP5 PUSH2 0x360F JUMP JUMPDEST PUSH1 0x20 DUP1 DUP3 MSTORE DUP2 ADD PUSH2 0x335C DUP2 PUSH2 0x3666 JUMP JUMPDEST PUSH1 0x20 DUP1 DUP3 MSTORE DUP2 ADD PUSH2 0x335C DUP2 PUSH2 0x3697 JUMP JUMPDEST PUSH1 0x20 DUP1 DUP3 MSTORE DUP2 ADD PUSH2 0x335C DUP2 PUSH2 0x36B8 JUMP JUMPDEST PUSH1 0x20 DUP1 DUP3 MSTORE DUP2 ADD PUSH2 0x335C DUP2 PUSH2 0x36E3 JUMP JUMPDEST PUSH1 0x20 DUP1 DUP3 MSTORE DUP2 ADD PUSH2 0x335C DUP2 PUSH2 0x370E JUMP JUMPDEST PUSH1 0x20 DUP1 DUP3 MSTORE DUP2 ADD PUSH2 0x335C DUP2 PUSH2 0x373D JUMP JUMPDEST PUSH1 0x20 DUP1 DUP3 MSTORE DUP2 ADD PUSH2 0x335C DUP2 PUSH2 0x3776 JUMP JUMPDEST PUSH1 0x20 DUP1 DUP3 MSTORE DUP2 ADD PUSH2 0x335C DUP2 PUSH2 0x37A5 JUMP JUMPDEST PUSH1 0x20 DUP2 ADD PUSH2 0x335C DUP3 DUP5 PUSH2 0x395B JUMP JUMPDEST PUSH1 0x40 DUP2 ADD PUSH2 0x3AFF DUP3 DUP6 PUSH2 0x395B JUMP JUMPDEST PUSH2 0x3A29 PUSH1 0x20 DUP4 ADD DUP5 PUSH2 0x395B JUMP JUMPDEST PUSH1 0x60 DUP2 ADD PUSH2 0x3B1A DUP3 DUP7 PUSH2 0x395B JUMP JUMPDEST PUSH2 0x3B27 PUSH1 0x20 DUP4 ADD DUP6 PUSH2 0x395B JUMP JUMPDEST PUSH2 0x338B PUSH1 0x40 DUP4 ADD DUP5 PUSH2 0x365D JUMP JUMPDEST PUSH1 0x20 ADD SWAP1 JUMP JUMPDEST MLOAD SWAP1 JUMP JUMPDEST SWAP1 DUP2 MSTORE PUSH1 0x20 ADD SWAP1 JUMP JUMPDEST PUSH1 0x0 PUSH2 0x335C DUP3 PUSH2 0x3B5C JUMP JUMPDEST DUP1 PUSH2 0x31C5 DUP2 PUSH2 0x3B73 JUMP JUMPDEST PUSH1 0x1 PUSH1 0x1 PUSH1 0xA0 SHL SUB AND SWAP1 JUMP JUMPDEST PUSH1 0x0 PUSH2 0x335C DUP3 PUSH2 0x3B52 JUMP JUMPDEST PUSH1 0x4 DUP2 LT PUSH2 0x3B7D JUMPI INVALID JUMPDEST POP JUMP JUMPDEST PUSH2 0x3B89 DUP2 PUSH2 0x3B47 JUMP JUMPDEST DUP2 EQ PUSH2 0x3B7D JUMPI PUSH1 0x0 DUP1 REVERT JUMPDEST PUSH2 0x3B89 DUP2 PUSH2 0x102B JUMP INVALID LOG3 PUSH6 0x627A7A723158 KECCAK256 EXTCODEHASH 0xD0 CALL GT 0xA7 AND 0xDD 0x4F LOG2 PUSH14 0x13F3EB1158D5006311A22D497EB6 0xDE 0xED SWAP4 GT PUSH14 0xCFC4CE6C6578706572696D656E74 PUSH2 0x6CF5 PUSH5 0x736F6C6343 STOP SDIV LT STOP BLOCKHASH "
		},
		"gasEstimates": {
			"creation": {
				"codeDepositCost": "3065600",
				"executionCost": "3373",
				"totalCost": "3068973"
			},
			"external": {
				"acceptCorporatePPA()": "infinite",
				"availableKwhs(address,uint256,uint256)": "infinite",
				"buyEnergyByPPA(uint256,uint256)": "infinite",
				"buyEnergyP(uint256,uint256)": "infinite",
				"buyPPAKwhs(uint256)": "infinite",
				"claimAuctionPPA()": "infinite",
				"claimPPA()": "infinite",
				"corporatePPA(address,uint256,uint256,uint256,uint256)": "infinite",
				"createPPA(uint256,uint256,uint256)": "infinite",
				"deregisterPPABuyer(address)": "infinite",
				"deregisterProducer()": "22269",
				"getApprovedPPAByID(uint256)": "infinite",
				"getAvKwhs()": "1166",
				"getPPAByID(uint256)": "infinite",
				"killPPA(uint256)": "infinite",
				"registerPPABuyer(address)": "infinite",
				"registerProducer()": "22320",
				"viewAllApprovedPPAs()": "infinite",
				"viewAllPPAs()": "infinite",
				"viewAllpurchases()": "infinite",
				"viewAvailableKwhs()": "infinite",
				"viewCorporatePPAlist()": "infinite"
			}
		},
		"methodIdentifiers": {
			"acceptCorporatePPA()": "3d833914",
			"availableKwhs(address,uint256,uint256)": "1383ecba",
			"buyEnergyByPPA(uint256,uint256)": "6a138a4a",
			"buyEnergyP(uint256,uint256)": "1f5e377f",
			"buyPPAKwhs(uint256)": "ee566592",
			"claimAuctionPPA()": "f7342a22",
			"claimPPA()": "e436db78",
			"corporatePPA(address,uint256,uint256,uint256,uint256)": "a910103a",
			"createPPA(uint256,uint256,uint256)": "8a28410b",
			"deregisterPPABuyer(address)": "f791560c",
			"deregisterProducer()": "ea1d381f",
			"getApprovedPPAByID(uint256)": "22e5ef3d",
			"getAvKwhs()": "6d36a6b1",
			"getPPAByID(uint256)": "25163d5d",
			"killPPA(uint256)": "ac5afa4e",
			"registerPPABuyer(address)": "9d88df62",
			"registerProducer()": "dbdf0c21",
			"viewAllApprovedPPAs()": "5a604165",
			"viewAllPPAs()": "e1b0d3c0",
			"viewAllpurchases()": "b5b5dcc1",
			"viewAvailableKwhs()": "877b0fde",
			"viewCorporatePPAlist()": "b3c77203"
		}
	},
	"abi": [
		{
			"anonymous": false,
			"inputs": [
				{
					"indexed": true,
					"internalType": "address",
					"name": "producer",
					"type": "address"
				},
				{
					"indexed": true,
					"internalType": "address",
					"name": "buyer",
					"type": "address"
				},
				{
					"indexed": false,
					"internalType": "uint256",
					"name": "id",
					"type": "uint256"
				},
				{
					"indexed": false,
					"internalType": "uint256",
					"name": "agreedPrice",
					"type": "uint256"
				}
			],
			"name": "acceptedCorpPPA",
			"type": "event"
		},
		{
			"anonymous": false,
			"inputs": [
				{
					"indexed": true,
					"internalType": "address",
					"name": "ppaBuyer",
					"type": "address"
				}
			],
			"name": "buyerDeregistered",
			"type": "event"
		},
		{
			"anonymous": false,
			"inputs": [
				{
					"indexed": true,
					"internalType": "address",
					"name": "ppaBuyer",
					"type": "address"
				}
			],
			"name": "buyerRegistered",
			"type": "event"
		},
		{
			"anonymous": false,
			"inputs": [
				{
					"indexed": true,
					"internalType": "address",
					"name": "producer",
					"type": "address"
				},
				{
					"indexed": true,
					"internalType": "address",
					"name": "buyer",
					"type": "address"
				},
				{
					"indexed": false,
					"internalType": "uint256",
					"name": "price",
					"type": "uint256"
				}
			],
			"name": "createdCorpPPA",
			"type": "event"
		},
		{
			"anonymous": false,
			"inputs": [
				{
					"indexed": true,
					"internalType": "address",
					"name": "producer",
					"type": "address"
				},
				{
					"indexed": false,
					"internalType": "uint256",
					"name": "price",
					"type": "uint256"
				}
			],
			"name": "createdPPA",
			"type": "event"
		},
		{
			"anonymous": false,
			"inputs": [
				{
					"indexed": true,
					"internalType": "address",
					"name": "producer",
					"type": "address"
				},
				{
					"indexed": true,
					"internalType": "address",
					"name": "buyer",
					"type": "address"
				},
				{
					"indexed": false,
					"internalType": "uint256",
					"name": "startDay",
					"type": "uint256"
				},
				{
					"indexed": false,
					"internalType": "uint256",
					"name": "endDay",
					"type": "uint256"
				},
				{
					"indexed": false,
					"internalType": "enum PPA.Status",
					"name": "status",
					"type": "uint8"
				}
			],
			"name": "expiredPPA",
			"type": "event"
		},
		{
			"anonymous": false,
			"inputs": [
				{
					"indexed": true,
					"internalType": "address",
					"name": "producer",
					"type": "address"
				}
			],
			"name": "producerDeregistered",
			"type": "event"
		},
		{
			"anonymous": false,
			"inputs": [
				{
					"indexed": true,
					"internalType": "address",
					"name": "producer",
					"type": "address"
				}
			],
			"name": "producerRegistered",
			"type": "event"
		},
		{
			"anonymous": false,
			"inputs": [
				{
					"indexed": false,
					"internalType": "uint256",
					"name": "id",
					"type": "uint256"
				},
				{
					"indexed": true,
					"internalType": "address",
					"name": "buyer",
					"type": "address"
				},
				{
					"indexed": true,
					"internalType": "address",
					"name": "producer",
					"type": "address"
				}
			],
			"name": "purchasedPPA",
			"type": "event"
		},
		{
			"constant": false,
			"inputs": [],
			"name": "acceptCorporatePPA",
			"outputs": [],
			"payable": false,
			"stateMutability": "nonpayable",
			"type": "function"
		},
		{
			"constant": false,
			"inputs": [
				{
					"internalType": "address",
					"name": "_buyer",
					"type": "address"
				},
				{
					"internalType": "uint256",
					"name": "_energy",
					"type": "uint256"
				},
				{
					"internalType": "uint256",
					"name": "_idOfMatchPPA",
					"type": "uint256"
				}
			],
			"name": "availableKwhs",
			"outputs": [],
			"payable": false,
			"stateMutability": "nonpayable",
			"type": "function"
		},
		{
			"constant": false,
			"inputs": [
				{
					"internalType": "uint256",
					"name": "_idOfContract",
					"type": "uint256"
				},
				{
					"internalType": "uint256",
					"name": "_buyEnergy",
					"type": "uint256"
				}
			],
			"name": "buyEnergyByPPA",
			"outputs": [],
			"payable": false,
			"stateMutability": "nonpayable",
			"type": "function"
		},
		{
			"constant": false,
			"inputs": [
				{
					"internalType": "uint256",
					"name": "_idOfContract",
					"type": "uint256"
				},
				{
					"internalType": "uint256",
					"name": "_buyEnergy",
					"type": "uint256"
				}
			],
			"name": "buyEnergyP",
			"outputs": [],
			"payable": false,
			"stateMutability": "nonpayable",
			"type": "function"
		},
		{
			"constant": false,
			"inputs": [
				{
					"internalType": "uint256",
					"name": "_idOfPPA",
					"type": "uint256"
				}
			],
			"name": "buyPPAKwhs",
			"outputs": [],
			"payable": false,
			"stateMutability": "nonpayable",
			"type": "function"
		},
		{
			"constant": false,
			"inputs": [],
			"name": "claimAuctionPPA",
			"outputs": [],
			"payable": false,
			"stateMutability": "nonpayable",
			"type": "function"
		},
		{
			"constant": false,
			"inputs": [],
			"name": "claimPPA",
			"outputs": [],
			"payable": false,
			"stateMutability": "nonpayable",
			"type": "function"
		},
		{
			"constant": false,
			"inputs": [
				{
					"internalType": "address",
					"name": "_buyer",
					"type": "address"
				},
				{
					"internalType": "uint256",
					"name": "_agreedKwhPrice",
					"type": "uint256"
				},
				{
					"internalType": "uint256",
					"name": "_startDay",
					"type": "uint256"
				},
				{
					"internalType": "uint256",
					"name": "_endDay",
					"type": "uint256"
				},
				{
					"internalType": "uint256",
					"name": "_id",
					"type": "uint256"
				}
			],
			"name": "corporatePPA",
			"outputs": [],
			"payable": false,
			"stateMutability": "nonpayable",
			"type": "function"
		},
		{
			"constant": false,
			"inputs": [
				{
					"internalType": "uint256",
					"name": "_kwhPrice",
					"type": "uint256"
				},
				{
					"internalType": "uint256",
					"name": "_startDay",
					"type": "uint256"
				},
				{
					"internalType": "uint256",
					"name": "_endDay",
					"type": "uint256"
				}
			],
			"name": "createPPA",
			"outputs": [],
			"payable": false,
			"stateMutability": "nonpayable",
			"type": "function"
		},
		{
			"constant": false,
			"inputs": [
				{
					"internalType": "address",
					"name": "abuyer",
					"type": "address"
				}
			],
			"name": "deregisterPPABuyer",
			"outputs": [],
			"payable": false,
			"stateMutability": "nonpayable",
			"type": "function"
		},
		{
			"constant": false,
			"inputs": [],
			"name": "deregisterProducer",
			"outputs": [],
			"payable": false,
			"stateMutability": "nonpayable",
			"type": "function"
		},
		{
			"constant": true,
			"inputs": [
				{
					"internalType": "uint256",
					"name": "_id",
					"type": "uint256"
				}
			],
			"name": "getApprovedPPAByID",
			"outputs": [
				{
					"internalType": "address",
					"name": "",
					"type": "address"
				},
				{
					"internalType": "address",
					"name": "",
					"type": "address"
				},
				{
					"internalType": "uint256",
					"name": "",
					"type": "uint256"
				},
				{
					"internalType": "uint256",
					"name": "",
					"type": "uint256"
				},
				{
					"internalType": "uint256",
					"name": "",
					"type": "uint256"
				}
			],
			"payable": false,
			"stateMutability": "view",
			"type": "function"
		},
		{
			"constant": true,
			"inputs": [],
			"name": "getAvKwhs",
			"outputs": [
				{
					"internalType": "uint256",
					"name": "count",
					"type": "uint256"
				}
			],
			"payable": false,
			"stateMutability": "view",
			"type": "function"
		},
		{
			"constant": true,
			"inputs": [
				{
					"internalType": "uint256",
					"name": "_id",
					"type": "uint256"
				}
			],
			"name": "getPPAByID",
			"outputs": [
				{
					"internalType": "address",
					"name": "",
					"type": "address"
				},
				{
					"internalType": "address",
					"name": "",
					"type": "address"
				},
				{
					"internalType": "uint256",
					"name": "",
					"type": "uint256"
				},
				{
					"internalType": "uint256",
					"name": "",
					"type": "uint256"
				},
				{
					"internalType": "uint256",
					"name": "",
					"type": "uint256"
				},
				{
					"internalType": "uint256",
					"name": "",
					"type": "uint256"
				},
				{
					"internalType": "uint256",
					"name": "",
					"type": "uint256"
				}
			],
			"payable": false,
			"stateMutability": "view",
			"type": "function"
		},
		{
			"constant": false,
			"inputs": [
				{
					"internalType": "uint256",
					"name": "_id",
					"type": "uint256"
				}
			],
			"name": "killPPA",
			"outputs": [],
			"payable": false,
			"stateMutability": "nonpayable",
			"type": "function"
		},
		{
			"constant": false,
			"inputs": [
				{
					"internalType": "address",
					"name": "abuyer",
					"type": "address"
				}
			],
			"name": "registerPPABuyer",
			"outputs": [],
			"payable": false,
			"stateMutability": "nonpayable",
			"type": "function"
		},
		{
			"constant": false,
			"inputs": [],
			"name": "registerProducer",
			"outputs": [],
			"payable": false,
			"stateMutability": "nonpayable",
			"type": "function"
		},
		{
			"constant": true,
			"inputs": [],
			"name": "viewAllApprovedPPAs",
			"outputs": [
				{
					"components": [
						{
							"internalType": "address",
							"name": "buyer",
							"type": "address"
						},
						{
							"internalType": "address",
							"name": "producer",
							"type": "address"
						},
						{
							"internalType": "uint256",
							"name": "kwhPrice",
							"type": "uint256"
						},
						{
							"internalType": "uint256",
							"name": "startDay",
							"type": "uint256"
						},
						{
							"internalType": "uint256",
							"name": "endDay",
							"type": "uint256"
						},
						{
							"internalType": "uint256",
							"name": "id",
							"type": "uint256"
						},
						{
							"internalType": "uint256",
							"name": "totalKwh",
							"type": "uint256"
						},
						{
							"internalType": "enum PPA.Status",
							"name": "status",
							"type": "uint8"
						}
					],
					"internalType": "struct PPA.approvedPPA[]",
					"name": "",
					"type": "tuple[]"
				}
			],
			"payable": false,
			"stateMutability": "view",
			"type": "function"
		},
		{
			"constant": true,
			"inputs": [],
			"name": "viewAllPPAs",
			"outputs": [
				{
					"components": [
						{
							"internalType": "address",
							"name": "buyer",
							"type": "address"
						},
						{
							"internalType": "address",
							"name": "producer",
							"type": "address"
						},
						{
							"internalType": "uint256",
							"name": "kwhPrice",
							"type": "uint256"
						},
						{
							"internalType": "uint256",
							"name": "startDay",
							"type": "uint256"
						},
						{
							"internalType": "uint256",
							"name": "endDay",
							"type": "uint256"
						},
						{
							"internalType": "uint256",
							"name": "id",
							"type": "uint256"
						},
						{
							"internalType": "enum PPA.Status",
							"name": "status",
							"type": "uint8"
						}
					],
					"internalType": "struct PPA.ppa[]",
					"name": "",
					"type": "tuple[]"
				}
			],
			"payable": false,
			"stateMutability": "view",
			"type": "function"
		},
		{
			"constant": true,
			"inputs": [],
			"name": "viewAllpurchases",
			"outputs": [
				{
					"components": [
						{
							"internalType": "address",
							"name": "buyer",
							"type": "address"
						},
						{
							"internalType": "address",
							"name": "producer",
							"type": "address"
						},
						{
							"internalType": "uint256",
							"name": "timestamp",
							"type": "uint256"
						},
						{
							"internalType": "uint256",
							"name": "idOfPPA",
							"type": "uint256"
						},
						{
							"internalType": "uint256",
							"name": "purchasedEnergy",
							"type": "uint256"
						}
					],
					"internalType": "struct PPA.purchasesPPA[]",
					"name": "",
					"type": "tuple[]"
				}
			],
			"payable": false,
			"stateMutability": "view",
			"type": "function"
		},
		{
			"constant": true,
			"inputs": [],
			"name": "viewAvailableKwhs",
			"outputs": [
				{
					"components": [
						{
							"internalType": "address",
							"name": "producer",
							"type": "address"
						},
						{
							"internalType": "address",
							"name": "buyer",
							"type": "address"
						},
						{
							"internalType": "uint256",
							"name": "timestamp",
							"type": "uint256"
						},
						{
							"internalType": "uint256",
							"name": "energy",
							"type": "uint256"
						},
						{
							"internalType": "uint256",
							"name": "idOfmatchContract",
							"type": "uint256"
						}
					],
					"internalType": "struct PPA.producerEnergy[]",
					"name": "",
					"type": "tuple[]"
				}
			],
			"payable": false,
			"stateMutability": "view",
			"type": "function"
		},
		{
			"constant": true,
			"inputs": [],
			"name": "viewCorporatePPAlist",
			"outputs": [
				{
					"components": [
						{
							"internalType": "address",
							"name": "buyer",
							"type": "address"
						},
						{
							"internalType": "address",
							"name": "producer",
							"type": "address"
						},
						{
							"internalType": "uint256",
							"name": "kwhPrice",
							"type": "uint256"
						},
						{
							"internalType": "uint256",
							"name": "startDay",
							"type": "uint256"
						},
						{
							"internalType": "uint256",
							"name": "endDay",
							"type": "uint256"
						},
						{
							"internalType": "uint256",
							"name": "id",
							"type": "uint256"
						},
						{
							"internalType": "enum PPA.Status",
							"name": "status",
							"type": "uint8"
						}
					],
					"internalType": "struct PPA.ppa[]",
					"name": "",
					"type": "tuple[]"
				}
			],
			"payable": false,
			"stateMutability": "view",
			"type": "function"
		}
	]
}