{
	"data": {
		"bytecode": {
			"linkReferences": {},
			"object": "608060405234801561001057600080fd5b50610127806100206000396000f3fe6080604052348015600f57600080fd5b506004361060325760003560e01c8063dbdf0c21146037578063ea1d381f14603f575b600080fd5b603d6045565b005b603d6096565b604051339081907f769268709e630d5b24d4c651adeae2d7a75c3dd7c3876275233e21570be22fd490600090a26001600160a01b03166000908152602081905260409020805460ff19166001179055565b604051339081907f0bb6d68f109745f7ae353e3b90fff6fb8245c34cca44f18d9dfa00e4d705fa6490600090a26001600160a01b03166000908152602081905260409020805460ff1916905556fea365627a7a723158208c708bee9b5593f82b850b9c6f307043c73a1b5608b3477d861fbcdc54be4c3a6c6578706572696d656e74616cf564736f6c63430005100040",
			"opcodes": "PUSH1 0x80 PUSH1 0x40 MSTORE CALLVALUE DUP1 ISZERO PUSH2 0x10 JUMPI PUSH1 0x0 DUP1 REVERT JUMPDEST POP PUSH2 0x127 DUP1 PUSH2 0x20 PUSH1 0x0 CODECOPY PUSH1 0x0 RETURN INVALID PUSH1 0x80 PUSH1 0x40 MSTORE CALLVALUE DUP1 ISZERO PUSH1 0xF JUMPI PUSH1 0x0 DUP1 REVERT JUMPDEST POP PUSH1 0x4 CALLDATASIZE LT PUSH1 0x32 JUMPI PUSH1 0x0 CALLDATALOAD PUSH1 0xE0 SHR DUP1 PUSH4 0xDBDF0C21 EQ PUSH1 0x37 JUMPI DUP1 PUSH4 0xEA1D381F EQ PUSH1 0x3F JUMPI JUMPDEST PUSH1 0x0 DUP1 REVERT JUMPDEST PUSH1 0x3D PUSH1 0x45 JUMP JUMPDEST STOP JUMPDEST PUSH1 0x3D PUSH1 0x96 JUMP JUMPDEST PUSH1 0x40 MLOAD CALLER SWAP1 DUP2 SWAP1 PUSH32 0x769268709E630D5B24D4C651ADEAE2D7A75C3DD7C3876275233E21570BE22FD4 SWAP1 PUSH1 0x0 SWAP1 LOG2 PUSH1 0x1 PUSH1 0x1 PUSH1 0xA0 SHL SUB AND PUSH1 0x0 SWAP1 DUP2 MSTORE PUSH1 0x20 DUP2 SWAP1 MSTORE PUSH1 0x40 SWAP1 KECCAK256 DUP1 SLOAD PUSH1 0xFF NOT AND PUSH1 0x1 OR SWAP1 SSTORE JUMP JUMPDEST PUSH1 0x40 MLOAD CALLER SWAP1 DUP2 SWAP1 PUSH32 0xBB6D68F109745F7AE353E3B90FFF6FB8245C34CCA44F18D9DFA00E4D705FA64 SWAP1 PUSH1 0x0 SWAP1 LOG2 PUSH1 0x1 PUSH1 0x1 PUSH1 0xA0 SHL SUB AND PUSH1 0x0 SWAP1 DUP2 MSTORE PUSH1 0x20 DUP2 SWAP1 MSTORE PUSH1 0x40 SWAP1 KECCAK256 DUP1 SLOAD PUSH1 0xFF NOT AND SWAP1 SSTORE JUMP INVALID LOG3 PUSH6 0x627A7A723158 KECCAK256 DUP13 PUSH17 0x8BEE9B5593F82B850B9C6F307043C73A1B JUMP ADDMOD 0xB3 SELFBALANCE PUSH30 0x861FBCDC54BE4C3A6C6578706572696D656E74616CF564736F6C63430005 LT STOP BLOCKHASH "
		},
		"gasEstimates": {
			"creation": {
				"codeDepositCost": "59000",
				"executionCost": "111",
				"totalCost": "59111"
			},
			"external": {
				"deregisterProducer()": "22203",
				"registerProducer()": "22187"
			}
		},
		"methodIdentifiers": {
			"deregisterProducer()": "ea1d381f",
			"registerProducer()": "dbdf0c21"
		}
	},
	"abi": [
		{
			"anonymous": false,
			"inputs": [
				{
					"indexed": true,
					"internalType": "address",
					"name": "producer",
					"type": "address"
				}
			],
			"name": "producerDeregistered",
			"type": "event"
		},
		{
			"anonymous": false,
			"inputs": [
				{
					"indexed": true,
					"internalType": "address",
					"name": "producer",
					"type": "address"
				}
			],
			"name": "producerRegistered",
			"type": "event"
		},
		{
			"constant": false,
			"inputs": [],
			"name": "deregisterProducer",
			"outputs": [],
			"payable": false,
			"stateMutability": "nonpayable",
			"type": "function"
		},
		{
			"constant": false,
			"inputs": [],
			"name": "registerProducer",
			"outputs": [],
			"payable": false,
			"stateMutability": "nonpayable",
			"type": "function"
		}
	]
}