{
	"data": {
		"bytecode": {
			"linkReferences": {},
			"object": "608060405234801561001057600080fd5b506101d6806100206000396000f3fe608060405234801561001057600080fd5b50600436106100365760003560e01c8063dbdf0c211461003b578063ea1d381f14610045575b600080fd5b61004361004f565b005b61004d6100f1565b005b60003390508073ffffffffffffffffffffffffffffffffffffffff167f769268709e630d5b24d4c651adeae2d7a75c3dd7c3876275233e21570be22fd460405160405180910390a260016000808373ffffffffffffffffffffffffffffffffffffffff1673ffffffffffffffffffffffffffffffffffffffff16815260200190815260200160002060006101000a81548160ff02191690831515021790555050565b60003390508073ffffffffffffffffffffffffffffffffffffffff167f0bb6d68f109745f7ae353e3b90fff6fb8245c34cca44f18d9dfa00e4d705fa6460405160405180910390a260008060008373ffffffffffffffffffffffffffffffffffffffff1673ffffffffffffffffffffffffffffffffffffffff16815260200190815260200160002060006101000a81548160ff0219169083151502179055505056fea365627a7a72315820f764d2168b93a2ea86e9e6676d3a7b17ec0aad3685fd60b0670c696eec679a146c6578706572696d656e74616cf564736f6c63430005100040",
			"opcodes": "PUSH1 0x80 PUSH1 0x40 MSTORE CALLVALUE DUP1 ISZERO PUSH2 0x10 JUMPI PUSH1 0x0 DUP1 REVERT JUMPDEST POP PUSH2 0x1D6 DUP1 PUSH2 0x20 PUSH1 0x0 CODECOPY PUSH1 0x0 RETURN INVALID PUSH1 0x80 PUSH1 0x40 MSTORE CALLVALUE DUP1 ISZERO PUSH2 0x10 JUMPI PUSH1 0x0 DUP1 REVERT JUMPDEST POP PUSH1 0x4 CALLDATASIZE LT PUSH2 0x36 JUMPI PUSH1 0x0 CALLDATALOAD PUSH1 0xE0 SHR DUP1 PUSH4 0xDBDF0C21 EQ PUSH2 0x3B JUMPI DUP1 PUSH4 0xEA1D381F EQ PUSH2 0x45 JUMPI JUMPDEST PUSH1 0x0 DUP1 REVERT JUMPDEST PUSH2 0x43 PUSH2 0x4F JUMP JUMPDEST STOP JUMPDEST PUSH2 0x4D PUSH2 0xF1 JUMP JUMPDEST STOP JUMPDEST PUSH1 0x0 CALLER SWAP1 POP DUP1 PUSH20 0xFFFFFFFFFFFFFFFFFFFFFFFFFFFFFFFFFFFFFFFF AND PUSH32 0x769268709E630D5B24D4C651ADEAE2D7A75C3DD7C3876275233E21570BE22FD4 PUSH1 0x40 MLOAD PUSH1 0x40 MLOAD DUP1 SWAP2 SUB SWAP1 LOG2 PUSH1 0x1 PUSH1 0x0 DUP1 DUP4 PUSH20 0xFFFFFFFFFFFFFFFFFFFFFFFFFFFFFFFFFFFFFFFF AND PUSH20 0xFFFFFFFFFFFFFFFFFFFFFFFFFFFFFFFFFFFFFFFF AND DUP2 MSTORE PUSH1 0x20 ADD SWAP1 DUP2 MSTORE PUSH1 0x20 ADD PUSH1 0x0 KECCAK256 PUSH1 0x0 PUSH2 0x100 EXP DUP2 SLOAD DUP2 PUSH1 0xFF MUL NOT AND SWAP1 DUP4 ISZERO ISZERO MUL OR SWAP1 SSTORE POP POP JUMP JUMPDEST PUSH1 0x0 CALLER SWAP1 POP DUP1 PUSH20 0xFFFFFFFFFFFFFFFFFFFFFFFFFFFFFFFFFFFFFFFF AND PUSH32 0xBB6D68F109745F7AE353E3B90FFF6FB8245C34CCA44F18D9DFA00E4D705FA64 PUSH1 0x40 MLOAD PUSH1 0x40 MLOAD DUP1 SWAP2 SUB SWAP1 LOG2 PUSH1 0x0 DUP1 PUSH1 0x0 DUP4 PUSH20 0xFFFFFFFFFFFFFFFFFFFFFFFFFFFFFFFFFFFFFFFF AND PUSH20 0xFFFFFFFFFFFFFFFFFFFFFFFFFFFFFFFFFFFFFFFF AND DUP2 MSTORE PUSH1 0x20 ADD SWAP1 DUP2 MSTORE PUSH1 0x20 ADD PUSH1 0x0 KECCAK256 PUSH1 0x0 PUSH2 0x100 EXP DUP2 SLOAD DUP2 PUSH1 0xFF MUL NOT AND SWAP1 DUP4 ISZERO ISZERO MUL OR SWAP1 SSTORE POP POP JUMP INVALID LOG3 PUSH6 0x627A7A723158 KECCAK256 0xF7 PUSH5 0xD2168B93A2 0xEA DUP7 0xE9 0xE6 PUSH8 0x6D3A7B17EC0AAD36 DUP6 REVERT PUSH1 0xB0 PUSH8 0xC696EEC679A146C PUSH6 0x78706572696D PUSH6 0x6E74616CF564 PUSH20 0x6F6C634300051000400000000000000000000000 "
		},
		"gasEstimates": {
			"creation": {
				"codeDepositCost": "94000",
				"executionCost": "141",
				"totalCost": "94141"
			},
			"external": {
				"deregisterProducer()": "22274",
				"registerProducer()": "22252"
			}
		},
		"methodIdentifiers": {
			"deregisterProducer()": "ea1d381f",
			"registerProducer()": "dbdf0c21"
		}
	},
	"abi": [
		{
			"anonymous": false,
			"inputs": [
				{
					"indexed": true,
					"internalType": "address",
					"name": "producer",
					"type": "address"
				}
			],
			"name": "producerDeregistered",
			"type": "event"
		},
		{
			"anonymous": false,
			"inputs": [
				{
					"indexed": true,
					"internalType": "address",
					"name": "producer",
					"type": "address"
				}
			],
			"name": "producerRegistered",
			"type": "event"
		},
		{
			"constant": false,
			"inputs": [],
			"name": "deregisterProducer",
			"outputs": [],
			"payable": false,
			"stateMutability": "nonpayable",
			"type": "function"
		},
		{
			"constant": false,
			"inputs": [],
			"name": "registerProducer",
			"outputs": [],
			"payable": false,
			"stateMutability": "nonpayable",
			"type": "function"
		}
	]
}